{
  "contractName": "AccessManager",
  "abi": [
    {
      "constant": true,
      "inputs": [],
      "name": "populous",
      "outputs": [
        {
          "name": "",
          "type": "address"
        }
      ],
      "payable": false,
      "stateMutability": "view",
      "type": "function"
    },
    {
      "constant": true,
      "inputs": [],
      "name": "server",
      "outputs": [
        {
          "name": "",
          "type": "address"
        }
      ],
      "payable": false,
      "stateMutability": "view",
      "type": "function"
    },
    {
      "inputs": [
        {
          "name": "_server",
          "type": "address"
        }
      ],
      "payable": false,
      "stateMutability": "nonpayable",
      "type": "constructor"
    },
    {
      "constant": false,
      "inputs": [
        {
          "name": "_server",
          "type": "address"
        }
      ],
      "name": "changeServer",
      "outputs": [],
      "payable": false,
      "stateMutability": "nonpayable",
      "type": "function"
    },
    {
      "constant": false,
      "inputs": [
        {
          "name": "_populous",
          "type": "address"
        }
      ],
      "name": "changePopulous",
      "outputs": [],
      "payable": false,
      "stateMutability": "nonpayable",
      "type": "function"
    },
    {
      "constant": true,
      "inputs": [
        {
          "name": "sender",
          "type": "address"
        }
      ],
      "name": "isServer",
      "outputs": [
        {
          "name": "",
          "type": "bool"
        }
      ],
      "payable": false,
      "stateMutability": "view",
      "type": "function"
    },
    {
      "constant": true,
      "inputs": [
        {
          "name": "sender",
          "type": "address"
        }
      ],
      "name": "isPopulous",
      "outputs": [
        {
          "name": "",
          "type": "bool"
        }
      ],
      "payable": false,
      "stateMutability": "view",
      "type": "function"
    }
  ],
  "bytecode": "0x608060405234801561001057600080fd5b506040516020806104d183398101806040528101908080519060200190929190505050806000806101000a81548173ffffffffffffffffffffffffffffffffffffffff021916908373ffffffffffffffffffffffffffffffffffffffff1602179055505061044e806100836000396000f300608060405260043610610078576000357c0100000000000000000000000000000000000000000000000000000000900463ffffffff16806305fd22d01461007d57806308fb8a88146100d857806394a3760f1461011b578063da37415714610172578063fd922a42146101b5578063fda089581461020c575b600080fd5b34801561008957600080fd5b506100be600480360381019080803573ffffffffffffffffffffffffffffffffffffffff169060200190929190505050610267565b604051808215151515815260200191505060405180910390f35b3480156100e457600080fd5b50610119600480360381019080803573ffffffffffffffffffffffffffffffffffffffff1690602001909291905050506102c1565b005b34801561012757600080fd5b5061013061031f565b604051808273ffffffffffffffffffffffffffffffffffffffff1673ffffffffffffffffffffffffffffffffffffffff16815260200191505060405180910390f35b34801561017e57600080fd5b506101b3600480360381019080803573ffffffffffffffffffffffffffffffffffffffff169060200190929190505050610345565b005b3480156101c157600080fd5b506101ca6103a4565b604051808273ffffffffffffffffffffffffffffffffffffffff1673ffffffffffffffffffffffffffffffffffffffff16815260200191505060405180910390f35b34801561021857600080fd5b5061024d600480360381019080803573ffffffffffffffffffffffffffffffffffffffff1690602001909291905050506103c9565b604051808215151515815260200191505060405180910390f35b6000600160009054906101000a900473ffffffffffffffffffffffffffffffffffffffff1673ffffffffffffffffffffffffffffffffffffffff168273ffffffffffffffffffffffffffffffffffffffff16149050919050565b600115156102ce336103c9565b15151415156102dc57600080fd5b806000806101000a81548173ffffffffffffffffffffffffffffffffffffffff021916908373ffffffffffffffffffffffffffffffffffffffff16021790555050565b600160009054906101000a900473ffffffffffffffffffffffffffffffffffffffff1681565b60011515610352336103c9565b151514151561036057600080fd5b80600160006101000a81548173ffffffffffffffffffffffffffffffffffffffff021916908373ffffffffffffffffffffffffffffffffffffffff16021790555050565b6000809054906101000a900473ffffffffffffffffffffffffffffffffffffffff1681565b60008060009054906101000a900473ffffffffffffffffffffffffffffffffffffffff1673ffffffffffffffffffffffffffffffffffffffff168273ffffffffffffffffffffffffffffffffffffffff161490509190505600a165627a7a72305820b49325b1bdb488efd6a8700e5c6e57cc62a5ef63b5d7dabfd7cad84b58f78c860029",
  "source": "pragma solidity ^0.4.17;\n\n\n/// @title AccessManager contract\ncontract AccessManager {\n    // FIELDS\n\n    // fields that can be changed by constructor and functions\n\n    address public server; // Address, which the platform website uses.\n    address public populous; // Address of the Populous bank contract.\n\n    // NON-CONSTANT METHODS\n\n    /** @dev Constructor that sets the server when contract is deployed.\n      * @param _server The address to set as the server.\n      */\n    function AccessManager(address _server) public {\n        server = _server;\n        //guardian = _guardian;\n    }\n\n    /** @dev Changes the server address that is set by the constructor.\n      * @dev The method requires the message sender to be the set server.\n      * @param _server The new address to be set as the server.\n      */\n    function changeServer(address _server) public {\n        require(isServer(msg.sender) == true);\n        server = _server;\n    }\n\n    /** @dev Changes the guardian address that is set by the constructor.\n      * @dev The method requires the message sender to be the set guardian.\n      */\n    /* function changeGuardian(address _guardian) public {\n        require(isGuardian(msg.sender) == true);\n        guardian = _guardian;\n    } */\n\n    /** @dev Changes the populous contract address.\n      * @dev The method requires the message sender to be the set server.\n      * @param _populous The address to be set as populous.\n      */\n    function changePopulous(address _populous) public {\n        require(isServer(msg.sender) == true);\n        populous = _populous;\n    }\n\n    // CONSTANT METHODS\n    \n    /** @dev Checks a given address to determine whether it is the server.\n      * @param sender The address to be checked.\n      * @return bool returns true or false is the address corresponds to the server or not.\n      */\n    function isServer(address sender) public view returns (bool) {\n        return sender == server;\n    }\n\n    /** @dev Checks a given address to determine whether it is the guardian.\n      * @param sender The address to be checked.\n      * @return bool returns true or false is the address corresponds to the guardian or not.\n      */\n    /* function isGuardian(address sender) public view returns (bool) {\n        return sender == guardian;\n    } */\n\n    /** @dev Checks a given address to determine whether it is populous address.\n      * @param sender The address to be checked.\n      * @return bool returns true or false is the address corresponds to populous or not.\n      */\n    function isPopulous(address sender) public view returns (bool) {\n        return sender == populous;\n    }\n\n}",
  "sourcePath": "/Users/najienka/Desktop/populous-smartcontracts/contracts/AccessManager.sol",
  "compiler": {
    "name": "solc",
    "version": "0.4.24+commit.e67f0147.Emscripten.clang"
  },
  "schemaVersion": "2.0.1",
  "updatedAt": "2019-02-05T13:50:49.334Z"
}