{
  "contractName": "AccessManager",
  "abi": [
    {
      "constant": true,
      "inputs": [],
      "name": "populous",
      "outputs": [
        {
          "name": "",
          "type": "address"
        }
      ],
      "payable": false,
      "stateMutability": "view",
      "type": "function"
    },
    {
      "constant": true,
      "inputs": [],
      "name": "server",
      "outputs": [
        {
          "name": "",
          "type": "address"
        }
      ],
      "payable": false,
      "stateMutability": "view",
      "type": "function"
    },
    {
      "inputs": [
        {
          "name": "_server",
          "type": "address"
        }
      ],
      "payable": false,
      "stateMutability": "nonpayable",
      "type": "constructor"
    },
    {
      "constant": false,
      "inputs": [
        {
          "name": "_server",
          "type": "address"
        }
      ],
      "name": "changeServer",
      "outputs": [],
      "payable": false,
      "stateMutability": "nonpayable",
      "type": "function"
    },
    {
      "constant": false,
      "inputs": [
        {
          "name": "_populous",
          "type": "address"
        }
      ],
      "name": "changePopulous",
      "outputs": [],
      "payable": false,
      "stateMutability": "nonpayable",
      "type": "function"
    },
    {
      "constant": true,
      "inputs": [
        {
          "name": "sender",
          "type": "address"
        }
      ],
      "name": "isServer",
      "outputs": [
        {
          "name": "",
          "type": "bool"
        }
      ],
      "payable": false,
      "stateMutability": "view",
      "type": "function"
    },
    {
      "constant": true,
      "inputs": [
        {
          "name": "sender",
          "type": "address"
        }
      ],
      "name": "isPopulous",
      "outputs": [
        {
          "name": "",
          "type": "bool"
        }
      ],
      "payable": false,
      "stateMutability": "view",
      "type": "function"
    }
  ],
  "bytecode": "0x6060604052341561000f57600080fd5b60405160208061049d83398101604052808051906020019091905050806000806101000a81548173ffffffffffffffffffffffffffffffffffffffff021916908373ffffffffffffffffffffffffffffffffffffffff160217905550506104228061007b6000396000f300606060405260043610610078576000357c0100000000000000000000000000000000000000000000000000000000900463ffffffff16806305fd22d01461007d57806308fb8a88146100ce57806394a3760f14610107578063da3741571461015c578063fd922a4214610195578063fda08958146101ea575b600080fd5b341561008857600080fd5b6100b4600480803573ffffffffffffffffffffffffffffffffffffffff1690602001909190505061023b565b604051808215151515815260200191505060405180910390f35b34156100d957600080fd5b610105600480803573ffffffffffffffffffffffffffffffffffffffff16906020019091905050610295565b005b341561011257600080fd5b61011a6102f3565b604051808273ffffffffffffffffffffffffffffffffffffffff1673ffffffffffffffffffffffffffffffffffffffff16815260200191505060405180910390f35b341561016757600080fd5b610193600480803573ffffffffffffffffffffffffffffffffffffffff16906020019091905050610319565b005b34156101a057600080fd5b6101a8610378565b604051808273ffffffffffffffffffffffffffffffffffffffff1673ffffffffffffffffffffffffffffffffffffffff16815260200191505060405180910390f35b34156101f557600080fd5b610221600480803573ffffffffffffffffffffffffffffffffffffffff1690602001909190505061039d565b604051808215151515815260200191505060405180910390f35b6000600160009054906101000a900473ffffffffffffffffffffffffffffffffffffffff1673ffffffffffffffffffffffffffffffffffffffff168273ffffffffffffffffffffffffffffffffffffffff16149050919050565b600115156102a23361039d565b15151415156102b057600080fd5b806000806101000a81548173ffffffffffffffffffffffffffffffffffffffff021916908373ffffffffffffffffffffffffffffffffffffffff16021790555050565b600160009054906101000a900473ffffffffffffffffffffffffffffffffffffffff1681565b600115156103263361039d565b151514151561033457600080fd5b80600160006101000a81548173ffffffffffffffffffffffffffffffffffffffff021916908373ffffffffffffffffffffffffffffffffffffffff16021790555050565b6000809054906101000a900473ffffffffffffffffffffffffffffffffffffffff1681565b60008060009054906101000a900473ffffffffffffffffffffffffffffffffffffffff1673ffffffffffffffffffffffffffffffffffffffff168273ffffffffffffffffffffffffffffffffffffffff161490509190505600a165627a7a72305820bd5c396697a7264992db6a7fac75091c274a5d0a6d698cb9d866926d090949920029",
  "source": "pragma solidity ^0.4.17;\n\n\n/// @title AccessManager contract\ncontract AccessManager {\n    // FIELDS\n\n    // fields that can be changed by constructor and functions\n\n    address public server; // Address, which the platform website uses.\n    address public populous; // Address of the Populous bank contract.\n\n    // NON-CONSTANT METHODS\n\n    /** @dev Constructor that sets the server when contract is deployed.\n      * @param _server The address to set as the server.\n      */\n    function AccessManager(address _server) public {\n        server = _server;\n        //guardian = _guardian;\n    }\n\n    /** @dev Changes the server address that is set by the constructor.\n      * @dev The method requires the message sender to be the set server.\n      * @param _server The new address to be set as the server.\n      */\n    function changeServer(address _server) public {\n        require(isServer(msg.sender) == true);\n        server = _server;\n    }\n\n    /** @dev Changes the guardian address that is set by the constructor.\n      * @dev The method requires the message sender to be the set guardian.\n      */\n    /* function changeGuardian(address _guardian) public {\n        require(isGuardian(msg.sender) == true);\n        guardian = _guardian;\n    } */\n\n    /** @dev Changes the populous contract address.\n      * @dev The method requires the message sender to be the set server.\n      * @param _populous The address to be set as populous.\n      */\n    function changePopulous(address _populous) public {\n        require(isServer(msg.sender) == true);\n        populous = _populous;\n    }\n\n    // CONSTANT METHODS\n    \n    /** @dev Checks a given address to determine whether it is the server.\n      * @param sender The address to be checked.\n      * @return bool returns true or false is the address corresponds to the server or not.\n      */\n    function isServer(address sender) public view returns (bool) {\n        return sender == server;\n    }\n\n    /** @dev Checks a given address to determine whether it is the guardian.\n      * @param sender The address to be checked.\n      * @return bool returns true or false is the address corresponds to the guardian or not.\n      */\n    /* function isGuardian(address sender) public view returns (bool) {\n        return sender == guardian;\n    } */\n\n    /** @dev Checks a given address to determine whether it is populous address.\n      * @param sender The address to be checked.\n      * @return bool returns true or false is the address corresponds to populous or not.\n      */\n    function isPopulous(address sender) public view returns (bool) {\n        return sender == populous;\n    }\n\n}",
  "sourcePath": "/Users/wisdom/Documents/GitHub/populous-smartcontracts/contracts/AccessManager.sol",
  "compiler": {
    "name": "solc",
    "version": "0.4.19+commit.c4cbbb05.Emscripten.clang"
  },
  "schemaVersion": "2.0.0",
  "updatedAt": "2018-03-05T08:16:22.763Z"
}