{
  "contractName": "AccessManager",
  "abi": [
    {
      "constant": true,
      "inputs": [
        {
          "name": "sender",
          "type": "address"
        }
      ],
      "name": "isPopulous",
      "outputs": [
        {
          "name": "",
          "type": "bool"
        }
      ],
      "payable": false,
      "stateMutability": "view",
      "type": "function"
    },
    {
      "constant": false,
      "inputs": [
        {
          "name": "_server",
          "type": "address"
        }
      ],
      "name": "changeServer",
      "outputs": [],
      "payable": false,
      "stateMutability": "nonpayable",
      "type": "function"
    },
    {
      "constant": true,
      "inputs": [],
      "name": "populous",
      "outputs": [
        {
          "name": "",
          "type": "address"
        }
      ],
      "payable": false,
      "stateMutability": "view",
      "type": "function"
    },
    {
      "constant": true,
      "inputs": [
        {
          "name": "sender",
          "type": "address"
        }
      ],
      "name": "isDCM",
      "outputs": [
        {
          "name": "",
          "type": "bool"
        }
      ],
      "payable": false,
      "stateMutability": "view",
      "type": "function"
    },
    {
      "constant": true,
      "inputs": [],
      "name": "depositContractsManager",
      "outputs": [
        {
          "name": "",
          "type": "address"
        }
      ],
      "payable": false,
      "stateMutability": "view",
      "type": "function"
    },
    {
      "constant": false,
      "inputs": [
        {
          "name": "_populous",
          "type": "address"
        }
      ],
      "name": "changePopulous",
      "outputs": [],
      "payable": false,
      "stateMutability": "nonpayable",
      "type": "function"
    },
    {
      "constant": false,
      "inputs": [
        {
          "name": "_depositContractsManager",
          "type": "address"
        }
      ],
      "name": "changeDCM",
      "outputs": [],
      "payable": false,
      "stateMutability": "nonpayable",
      "type": "function"
    },
    {
      "constant": true,
      "inputs": [],
      "name": "server",
      "outputs": [
        {
          "name": "",
          "type": "address"
        }
      ],
      "payable": false,
      "stateMutability": "view",
      "type": "function"
    },
    {
      "constant": true,
      "inputs": [
        {
          "name": "sender",
          "type": "address"
        }
      ],
      "name": "isServer",
      "outputs": [
        {
          "name": "",
          "type": "bool"
        }
      ],
      "payable": false,
      "stateMutability": "view",
      "type": "function"
    },
    {
      "inputs": [
        {
          "name": "_server",
          "type": "address"
        }
      ],
      "payable": false,
      "stateMutability": "nonpayable",
      "type": "constructor"
    }
  ],
  "bytecode": "0x6060604052341561000f57600080fd5b60405160208061037b8339810160405280805160008054600160a060020a03909216600160a060020a03199092169190911790555050610327806100546000396000f300606060405236156100965763ffffffff7c010000000000000000000000000000000000000000000000000000000060003504166305fd22d0811461009b57806308fb8a88146100ce57806394a3760f146100ef578063a6d286931461011e578063c569fce01461013d578063da37415714610150578063f0384ac11461016f578063fd922a421461018e578063fda08958146101a1575b600080fd5b34156100a657600080fd5b6100ba600160a060020a03600435166101c0565b604051901515815260200160405180910390f35b34156100d957600080fd5b6100ed600160a060020a03600435166101d4565b005b34156100fa57600080fd5b61010261021a565b604051600160a060020a03909116815260200160405180910390f35b341561012957600080fd5b6100ba600160a060020a0360043516610229565b341561014857600080fd5b61010261023d565b341561015b57600080fd5b6100ed600160a060020a036004351661024c565b341561017a57600080fd5b6100ed600160a060020a0360043516610292565b341561019957600080fd5b6101026102d8565b34156101ac57600080fd5b6100ba600160a060020a03600435166102e7565b600154600160a060020a0390811691161490565b6101dd336102e7565b15156001146101eb57600080fd5b6000805473ffffffffffffffffffffffffffffffffffffffff1916600160a060020a0392909216919091179055565b600154600160a060020a031681565b600254600160a060020a0390811691161490565b600254600160a060020a031681565b610255336102e7565b151560011461026357600080fd5b6001805473ffffffffffffffffffffffffffffffffffffffff1916600160a060020a0392909216919091179055565b61029b336102e7565b15156001146102a957600080fd5b6002805473ffffffffffffffffffffffffffffffffffffffff1916600160a060020a0392909216919091179055565b600054600160a060020a031681565b600054600160a060020a03908116911614905600a165627a7a72305820e3e1eff4bf582fefc0c056f057aea5a7cdfc554b2535fed9bb9be06d65adc9f90029",
  "source": "pragma solidity ^0.4.17;\n\n\n/// @title AccessManager contract\ncontract AccessManager {\n    // FIELDS\n\n    // fields that can be changed by constructor and functions\n\n    address public server; // Address, which the platform website uses.\n    //address public guardian; // Address of the guardian, who confirms actions.\n    address public populous; // Address of the Populous bank contract.\n\n    address public depositContractsManager; // Address of the deposit contracts manager contract\n\n    // NON-CONSTANT METHODS\n\n    /** @dev Constructor that sets the server and guardian when contract is deployed.\n      * @param _server The address to set as the server.\n      */\n    function AccessManager(address _server) public {\n        server = _server;\n        //guardian = _guardian;\n    }\n\n    /** @dev Changes the server address that is set by the constructor.\n      * @dev The method requires the message sender to be the set guardian.\n      * @param _server The new address to be set as the server.\n      */\n    function changeServer(address _server) public {\n        require(isServer(msg.sender) == true);\n        server = _server;\n    }\n\n    /** @dev Changes the guardian address that is set by the constructor.\n      * @dev The method requires the message sender to be the set guardian.\n      */\n    /* function changeGuardian(address _guardian) public {\n        require(isGuardian(msg.sender) == true);\n        guardian = _guardian;\n    } */\n\n    /** @dev Changes the populous contract address.\n      * @dev The method requires the message sender to be the set guardian.\n      * @param _populous The address to be set as populous.\n      */\n    function changePopulous(address _populous) public {\n        require(isServer(msg.sender) == true);\n        populous = _populous;\n    }\n\n\n    function changeDCM(address _depositContractsManager) public {\n        require(isServer(msg.sender) == true);\n        depositContractsManager = _depositContractsManager;\n    }\n\n    // CONSTANT METHODS\n    \n    /** @dev Checks a given address to determine whether it is the server.\n      * @param sender The address to be checked.\n      * @return bool returns true or false is the address corresponds to the server or not.\n      */\n    function isServer(address sender) public view returns (bool) {\n        return sender == server;\n    }\n\n    function isDCM(address sender) public view returns (bool) {\n        return sender == depositContractsManager;\n    }\n\n    /** @dev Checks a given address to determine whether it is the guardian.\n      * @param sender The address to be checked.\n      * @return bool returns true or false is the address corresponds to the guardian or not.\n      */\n    /* function isGuardian(address sender) public view returns (bool) {\n        return sender == guardian;\n    } */\n\n    /** @dev Checks a given address to determine whether it is populous address.\n      * @param sender The address to be checked.\n      * @return bool returns true or false is the address corresponds to populous or not.\n      */\n    function isPopulous(address sender) public view returns (bool) {\n        return sender == populous;\n    }\n\n}",
  "sourcePath": "/Users/najienka/Desktop/populous-smartcontracts/contracts/AccessManager.sol",
  "schemaVersion": "1.0.0",
  "updatedAt": "2018-01-31T14:06:12.197Z"
}