{
  "contractName": "CrowdsaleManager",
  "abi": [
    {
      "constant": false,
      "inputs": [
        {
          "name": "_accessManager",
          "type": "address"
        }
      ],
      "name": "updateAccessManager",
      "outputs": [],
      "payable": false,
      "stateMutability": "nonpayable",
      "type": "function"
    },
    {
      "constant": false,
      "inputs": [
        {
          "name": "_currencySymbol",
          "type": "bytes32"
        },
        {
          "name": "_borrowerId",
          "type": "bytes32"
        },
        {
          "name": "_invoiceId",
          "type": "bytes32"
        },
        {
          "name": "_invoiceNumber",
          "type": "string"
        },
        {
          "name": "_invoiceAmount",
          "type": "uint256"
        },
        {
          "name": "_fundingGoal",
          "type": "uint256"
        },
        {
          "name": "_platformTaxPercent",
          "type": "uint256"
        },
        {
          "name": "_signedDocumentIPFSHash",
          "type": "string"
        },
        {
          "name": "_extraTime",
          "type": "uint256"
        }
      ],
      "name": "createCrowdsale",
      "outputs": [
        {
          "name": "crowdsaleAddr",
          "type": "address"
        }
      ],
      "payable": false,
      "stateMutability": "nonpayable",
      "type": "function"
    },
    {
      "constant": true,
      "inputs": [],
      "name": "AM",
      "outputs": [
        {
          "name": "",
          "type": "address"
        }
      ],
      "payable": false,
      "stateMutability": "view",
      "type": "function"
    },
    {
      "inputs": [
        {
          "name": "_accessManager",
          "type": "address"
        }
      ],
      "payable": false,
      "stateMutability": "nonpayable",
      "type": "constructor"
    }
  ],
  "bytecode": "0x6060604052341561000f57600080fd5b6040516020806131358339810160405280805160008054600160a060020a03909216600160a060020a031990921691909117905550506130e1806100546000396000f300606060405263ffffffff60e060020a60003504166302ab72c4811461003957806348f111101461005a578063f7f01b4b1461012957600080fd5b341561004457600080fd5b610058600160a060020a036004351661013c565b005b341561006557600080fd5b61010d600480359060248035916044359160849060643590810190830135806020601f820181900481020160405190810160405281815292919060208401838380828437509496863596602080820135975060408083013597509295506080820194506060909101358501808201935035918291601f83018190048102019051908101604052818152929190602084018383808284375094965050933593506101ef92505050565b604051600160a060020a03909116815260200160405180910390f35b341561013457600080fd5b61010d6104d5565b60008054600160a060020a031690630c68ba219033906040516020015260405160e060020a63ffffffff8416028152600160a060020a039091166004820152602401602060405180830381600087803b151561019757600080fd5b6102c65a03f115156101a857600080fd5b5050506040518051151560011490506101c057600080fd5b6000805473ffffffffffffffffffffffffffffffffffffffff1916600160a060020a0392909216919091179055565b60008054600160a060020a03166305fd22d033836040516020015260405160e060020a63ffffffff8416028152600160a060020a039091166004820152602401602060405180830381600087803b151561024857600080fd5b6102c65a03f1151561025957600080fd5b50505060405180511515600114905061027157600080fd5b6000898152600260205260409081902087918990518082805190602001908083835b602083106102b25780518252601f199092019160209182019101610293565b6001836020036101000a0380198251168184511680821785525050505050509050019150509081526020016040519081900390205414156102f257600080fd5b8585106102fe57600080fd5b6000898152600260205260409081902087918990518082805190602001908083835b6020831061033f5780518252601f199092019160209182019101610320565b6001836020036101000a03801982511681845116808217855250505050505090500191505090815260200160405190819003902055600054600160a060020a03168a8a8a8a8a8a8a8a8a6103916104e4565b600160a060020a038b168152602081018a9052604081018990526060810188905260a0810186905260c0810185905260e0810184905261012081018290526101406080820181815290610100830190830189818151815260200191508051906020019080838360005b838110156104125780820151838201526020016103fa565b50505050905090810190601f16801561043f5780820380516001836020036101000a031916815260200191505b50838103825285818151815260200191508051906020019080838360005b8381101561047557808201518382015260200161045d565b50505050905090810190601f1680156104a25780820380516001836020036101000a031916815260200191505b509c50505050505050505050505050604051809103906000f08015156104c757600080fd5b9a9950505050505050505050565b600054600160a060020a031681565b604051612bc1806104f58339019056006060604052600c8054600160a060020a03191630600160a060020a031617905534156200002b57600080fd5b60405162002bc138038062002bc1833981016040528080519190602001805191906020018051919060200180519190602001805182019190602001805191906020018051919060200180519190602001805182019190602001805160008054600160a060020a031916600160a060020a038e1617905560018b905560048a90556002899055915060039050868051620000c992916020019062000136565b506005859055600684905560088390556009828051620000ee92916020019062000136565b5042603c9190910201620151800160075550506000805460a060020a60ff0219167401000000000000000000000000000000000000000017905550620001db95505050505050565b828054600181600116156101000203166002900490600052602060002090601f016020900481019282601f106200017957805160ff1916838001178555620001a9565b82800160010185558215620001a9579182015b82811115620001a95782518255916020019190600101906200018c565b50620001b7929150620001bb565b5090565b620001d891905b80821115620001b75760008155600101620001c2565b90565b6129d680620001eb6000396000f300606060405236156102145763ffffffff60e060020a60003504166302ab72c481146102195780630cd87cff1461023a57806312b17ade1461026157806312fa769f1461029057806315b20454146102b557806319a0e16d146102f5578063200d2ed21461030e578063246684731461034557806329dcb0cf146103cf57806343bf9936146103e25780634e69d560146103f557806355d97ba81461041e5780635cfa4d60146104315780635e054efb146104445780636a20a8a1146104575780636fbefedf1461046a57806370c862861461047d5780637478901d146104905780637a3a0e84146104a35780637b69c9ae146104b6578063816d5145146104c957806385d8ed7d146104dc5780638688b4df146104f25780638942e19d146105275780638a8f5af71461053a57806396324bd41461054d578063968c420914610613578063983c0a0114610626578063a203886e14610639578063a29b8b911461064f578063a4d8a8da14610662578063a7b80b6c14610675578063ae22824a14610688578063b503d8291461069b578063b84afbb414610769578063ceb606541461077c578063cfece8ef1461082a578063dcb190e31461083d578063dee50b2414610850578063e1c25467146108f8578063ec0a99741461090e578063efd3bc0c14610921578063f29c2e8b14610934578063f52eb38514610992578063f7f01b4b146109a5578063f9784601146109b8575b600080fd5b341561022457600080fd5b610238600160a060020a03600435166109cb565b005b341561024557600080fd5b61024d610a7e565b604051901515815260200160405180910390f35b341561026c57600080fd5b610274610a88565b604051600160a060020a03909116815260200160405180910390f35b341561029b57600080fd5b6102a3610a97565b60405190815260200160405180910390f35b34156102c057600080fd5b6102cb600435610a9d565b604051808460ff1660ff168152602001838152602001828152602001935050505060405180910390f35b341561030057600080fd5b610238600435602435610b2e565b341561031957600080fd5b610321610d26565b6040518082600581111561033157fe5b60ff16815260200191505060405180910390f35b341561035057600080fd5b610358610d36565b60405160208082528190810183818151815260200191508051906020019080838360005b8381101561039457808201518382015260200161037c565b50505050905090810190601f1680156103c15780820380516001836020036101000a031916815260200191505b509250505060405180910390f35b34156103da57600080fd5b6102a3610dd4565b34156103ed57600080fd5b61024d610dda565b341561040057600080fd5b610408610e7e565b60405160ff909116815260200160405180910390f35b341561042957600080fd5b61024d610e9c565b341561043c57600080fd5b6102a3610eaa565b341561044f57600080fd5b61024d610eb0565b341561046257600080fd5b6102a3610ebf565b341561047557600080fd5b6102a3610ec5565b341561048857600080fd5b6102a3610ecb565b341561049b57600080fd5b6102a3610ed1565b34156104ae57600080fd5b6102a3610ed7565b34156104c157600080fd5b61024d610edd565b34156104d457600080fd5b61024d610ee6565b34156104e757600080fd5b610238600435610ef4565b34156104fd57600080fd5b61050b600435602435611018565b60405160ff909216825260208201526040908101905180910390f35b341561053257600080fd5b6102386110aa565b341561054557600080fd5b610358611163565b341561055857600080fd5b6105636004356111ce565b60405186815260408101859052606081018490526080810183905281151560a082015260c0602082018181528754600260001961010060018416150201909116049183018290529060e0830190889080156105ff5780601f106105d4576101008083540402835291602001916105ff565b820191906000526020600020905b8154815290600101906020018083116105e257829003601f168201915b505097505050505050505060405180910390f35b341561061e57600080fd5b6102a3611216565b341561063157600080fd5b61024d61121c565b341561064457600080fd5b61023860043561132b565b341561065a57600080fd5b61024d611477565b341561066d57600080fd5b6102a3611486565b341561068057600080fd5b61024d61148c565b341561069357600080fd5b61024d611516565b34156106a657600080fd5b61073960046024813581810190830135806020601f8201819004810201604051908101604052818152929190602084018383808284375094968635966020808201359750919550606081019450604090810135860180830194503592508291601f830181900481020190519081016040528181529291906020840183838082843750949650509335935061152492505050565b60405160ff9094168452602084019290925260408084019190915290151560608301526080909101905180910390f35b341561077457600080fd5b6102a361163e565b341561078757600080fd5b610792600435611644565b604051808060200186815260200185815260200184815260200183151515158152602001828103825287818151815260200191508051906020019080838360005b838110156107eb5780820151838201526020016107d3565b50505050905090810190601f1680156108185780820380516001836020036101000a031916815260200191505b50965050505050505060405180910390f35b341561083557600080fd5b61024d6118d1565b341561084857600080fd5b61024d6118e5565b341561085b57600080fd5b6108696004356024356118f4565b60405184815260408101839052811515606082015260806020820181815290820185818151815260200191508051906020019080838360005b838110156108ba5780820151838201526020016108a2565b50505050905090810190601f1680156108e75780820380516001836020036101000a031916815260200191505b509550505050505060405180910390f35b341561090357600080fd5b61024d600435611a5b565b341561091957600080fd5b61024d611abb565b341561092c57600080fd5b6102a3611ac4565b341561093f57600080fd5b610739600480359060248035919060649060443590810190830135806020601f820181900481020160405190810160405281815292919060208401838380828437509496505093359350611aca92505050565b341561099d57600080fd5b61050b6121ca565b34156109b057600080fd5b610274612239565b34156109c357600080fd5b6102a3612248565b60008054600160a060020a031690630c68ba219033906040516020015260405160e060020a63ffffffff8416028152600160a060020a039091166004820152602401602060405180830381600087803b1515610a2657600080fd5b6102c65a03f11515610a3757600080fd5b505050604051805115156001149050610a4f57600080fd5b6000805473ffffffffffffffffffffffffffffffffffffffff1916600160a060020a0392909216919091179055565b600f5460ff165b90565b600c54600160a060020a031681565b60105481565b6000818152600b602052604081206001810154815460029092015460ff161515610ad05750600191506000905080610b27565b610b18600a83815481101515610ae257fe5b906000526020600020906007020160030182815481101515610b0057fe5b9060005260206000209060060201600101548561224e565b151560011415610b2757600092505b9193909250565b60008054600160a060020a0316906305fd22d09033906040516020015260405160e060020a63ffffffff8416028152600160a060020a039091166004820152602401602060405180830381600087803b1515610b8957600080fd5b6102c65a03f11515610b9a57600080fd5b505050604051805115156001149050610bb257600080fd5b6001600a83815481101515610bc357fe5b906000526020600020906007020160030182815481101515610be157fe5b60009182526020909120600690910201600501805460ff1916911515919091179055600a805483908110610c1157fe5b6000918252602090912060056007909202010180546001019055600a805483908110610c3957fe5b6000918252602090912060036007909202010154600a805484908110610c5b57fe5b9060005260206000209060070201600501541415610d22576001600a83815481101515610c8457fe5b60009182526020909120600790910201600601805460ff1916911515919091179055600d80546001908101909155600a541415610ce857600f5460ff1615610cdb57610cce612323565b610cd661234c565b610ce3565b610ce3612323565b610d22565b600d54600a54600019011415610d0057610ce3612323565b600d54600a54148015610d155750600f5460ff165b15610d2257610d2261234c565b5050565b60005460a060020a900460ff1681565b60038054600181600116156101000203166002900480601f016020809104026020016040519081016040528092919081815260200182805460018160011615610100020316600290048015610dcc5780601f10610da157610100808354040283529160200191610dcc565b820191906000526020600020905b815481529060010190602001808311610daf57829003601f168201915b505050505081565b60075481565b6000600754421115610e7857600160005460a060020a900460ff166005811115610e0057fe5b1415610e5f576000805460a060020a60ff02191660a160020a179055600c5460008051602061298b83398151915290600160a060020a03166001604051600160a060020a03909216825260ff1660208201526040908101905180910390a15b50600f805462ff00001916620100001790556001610a85565b50600090565b6000805460a060020a900460ff166005811115610e9757fe5b905090565b601154610100900460ff1681565b600e5481565b60115462010000900460ff1681565b60105490565b60045481565b60025481565b60055481565b60065481565b60115460ff1681565b600f54610100900460ff1690565b60008054600160a060020a0316906305fd22d09033906040516020015260405160e060020a63ffffffff8416028152600160a060020a039091166004820152602401602060405180830381600087803b1515610f4f57600080fd5b6102c65a03f11515610f6057600080fd5b505050604051805115156001149050610f7857600080fd5b600360005460a060020a900460ff166005811115610f9257fe5b14156110155760108190556000805460a060020a60ff02191674040000000000000000000000000000000000000000179055600c547f1d1d4459ddc6d370913114af16a65f5427c30a4bf34c206c0ac7aa5d1ccebcc890600160a060020a031682604051600160a060020a03909216825260208201526040908101905180910390a15b50565b6000818152600b60205260408120600181015481546002909201549194509060ff16151561104c57506001905060006110a3565b611094600a8581548110151561105e57fe5b90600052602060002090600702016003018281548110151561107c57fe5b9060005260206000209060060201600101548461224e565b1515600114156110a357600091505b9250929050565b60008054600160a060020a0316906305fd22d09033906040516020015260405160e060020a63ffffffff8416028152600160a060020a039091166004820152602401602060405180830381600087803b151561110557600080fd5b6102c65a03f1151561111657600080fd5b50505060405180511515600114905061112e57600080fd5b6111366118d1565b1561114057600080fd5b6011805460ff19166001908117909155600a54141561116157611161612323565b565b60098054600181600116156101000203166002900480601f016020809104026020016040519081016040528092919081815260200182805460018160011615610100020316600290048015610dcc5780601f10610da157610100808354040283529160200191610dcc565b600a8054829081106111dc57fe5b6000918252602090912060079091020180546002820154600483015460058401546006850154939550600190940193919290919060ff1686565b60015481565b60008054600160a060020a031663fda0895833836040516020015260405160e060020a63ffffffff8416028152600160a060020a039091166004820152602401602060405180830381600087803b151561127557600080fd5b6102c65a03f1151561128657600080fd5b50505060405180511515600114905061129e57600080fd5b600160005460a060020a900460ff1660058111156112b857fe5b1480156112c6575060075442105b15610e78576000805460a060020a60ff02191660a160020a179055600c5460008051602061298b83398151915290600160a060020a03166003604051600160a060020a03909216825260ff1660208201526040908101905180910390a1506001610a85565b600160005460a060020a900460ff16600581111561134557fe5b14156110155760008054600160a060020a03169063fda089589033906040516020015260405160e060020a63ffffffff8416028152600160a060020a039091166004820152602401602060405180830381600087803b15156113a657600080fd5b6102c65a03f115156113b757600080fd5b5050506040518051151560011490506113cf57600080fd5b6113d76118d1565b156113e157600080fd5b6000600a828154811015156113f257fe5b906000526020600020906007020160040154111561101557600e819055600f805460ff191660011790556000805460a060020a60ff02191660a160020a179055600c5460008051602061298b83398151915290600160a060020a03166002604051600160a060020a03909216825260ff1660208201526040908101905180910390a150565b600f5462010000900460ff1681565b600e5490565b60008054600160a060020a031663fda0895833836040516020015260405160e060020a63ffffffff8416028152600160a060020a039091166004820152602401602060405180830381600087803b15156114e557600080fd5b6102c65a03f115156114f657600080fd5b50505060405180511515600114905061150e57600080fd5b610e97612416565b600f54610100900460ff1681565b6000808080808080600160005460a060020a900460ff16600581111561154657fe5b141561162f5760008054600160a060020a0316906305fd22d09033906040516020015260405160e060020a63ffffffff8416028152600160a060020a039091166004820152602401602060405180830381600087803b15156115a757600080fd5b6102c65a03f115156115b857600080fd5b5050506040518051151560011490506115d057600080fd5b6115d98a610a9d565b91945092509050600160ff8416141561161a576115f68c8c6124d7565b9097509150600160ff8816141561161a57600196506000955085945084935061162f565b611626828b8b8b611aca565b96509650965096505b50505095509550955095915050565b600a5490565b61164c61270c565b60008060008061165a61271e565b600a80548890811061166857fe5b906000526020600020906007020160e0604051908101604052908160008201548152602001600182018054600181600116156101000203166002900480601f0160208091040260200160405190810160405280929190818152602001828054600181600116156101000203166002900480156117255780601f106116fa57610100808354040283529160200191611725565b820191906000526020600020905b81548152906001019060200180831161170857829003601f168201915b50505050508152602001600282015481526020016003820180548060200260200160405190810160405281815291906000602084015b8282101561187357600084815260209020600683020160c0604051908101604052908160008201548152602001600182015460001916600019168152602001600282018054600181600116156101000203166002900480601f0160208091040260200160405190810160405280929190818152602001828054600181600116156101000203166002900480156118325780601f1061180757610100808354040283529160200191611832565b820191906000526020600020905b81548152906001019060200180831161181557829003601f168201915b505050918352505060038201546020808301919091526004830154604083015260059092015460ff161515606090910152908252600192909201910161175b565b5050509082525060048201546020808301919091526005830154604083015260069092015460ff161515606090910152909150810151816040015182606001515183608001518460c00151939b929a50909850965090945092505050565b600a546000901515610e7857506001610a85565b600f5462010000900460ff1690565b60006118fe61270c565b60008061190961276a565b600a80548890811061191757fe5b90600052602060002090600702016003018681548110151561193557fe5b906000526020600020906006020160c0604051908101604052908160008201548152602001600182015460001916600019168152602001600282018054600181600116156101000203166002900480601f016020809104026020016040519081016040528092919081815260200182805460018160011615610100020316600290048015611a045780601f106119d957610100808354040283529160200191611a04565b820191906000526020600020905b8154815290600101906020018083116119e757829003601f168201915b505050918352505060038201546020808301919091526004830154604083015260059092015460ff161515606090910152909150810151816040015182606001518360a00151929a91995097509095509350505050565b6000806000806000806000611a6f88610a9d565b91975095509350611a8085856118f4565b9295509350909150611a949050888461224e565b8015611a9d5750805b15611aab5760019650611ab0565b600096505b505050505050919050565b600f5460ff1681565b60085481565b60008080808080600160005460a060020a900460ff166005811115611aeb57fe5b14156121bd5760008054600160a060020a0316906305fd22d09033906040516020015260405160e060020a63ffffffff8416028152600160a060020a039091166004820152602401602060405180830381600087803b1515611b4c57600080fd5b6102c65a03f11515611b5d57600080fd5b505050604051805115156001149050611b7557600080fd5b611b7d610dda565b151560011480611b8b575086155b80611bb55750600a80548b908110611b9f57fe5b9060005260206000209060070201600201546000145b15611bcd5760019550600094508493508392506121bd565b600a80548b908110611bdb57fe5b90600052602060002090600702016002015487600a8c815481101515611bfd57fe5b906000526020600020906007020160040154011115611c6357611c60600a8b815481101515611c2857fe5b906000526020600020906007020160020154600a8c815481101515611c4957fe5b9060005260206000209060070201600401546126d6565b96505b611c6d8a8a611018565b909250905060ff82161515611d4d57611cc4600a8b815481101515611c8e57fe5b906000526020600020906007020160030182815481101515611cac57fe5b906000526020600020906006020160030154886126e8565b600a80548c908110611cd257fe5b906000526020600020906007020160030182815481101515611cf057fe5b90600052602060002090600602016003018190555042600a8b815481101515611d1557fe5b906000526020600020906007020160030182815481101515611d3357fe5b906000526020600020906006020160040181905550611ea1565b600a80548b908110611d5b57fe5b90600052602060002090600702016003018054806001018281611d7e919061278b565b9160005260206000209060060201600060c060405190810160405280600a8f815481101515611da957fe5b6000918252602080832060036007909302019190910154835282018f9052604082018e9052606082018d905242608083015260a0909101529190508151815560208201516001820155604082015181600201908051611e0c9291602001906127bc565b50606082015181600301556080820151816004015560a0820151600591909101805460ff191691151591909117905550506000898152600b602052604090208a9055600a8054600191908c908110611e6057fe5b60009182526020808320600360079093020191909101548c8352600b90915260409091209190036001808301919091556002909101805460ff191690911790555b611ecb600a8b815481101515611eb357fe5b906000526020600020906007020160040154886126e8565b600a80548c908110611ed957fe5b6000918252602090912060046007909202010155600c547f020d565aeac279337d0f8cb762f74b62928f0ea6d0828d86a4ea97870bdf094790600160a060020a03168b8b8b8b604051600160a060020a038616815260208101859052604081018490526080810182905260a06060820181815290820184818151815260200191508051906020019080838360005b83811015611f7f578082015183820152602001611f67565b50505050905090810190601f168015611fac5780820380516001836020036101000a031916815260200191505b50965050505050505060405180910390a1600a80548b908110611fcb57fe5b906000526020600020906007020160020154600a8b815481101515611fec57fe5b6000918252602090912060046007909202010154149250600183141561218f57600e8a9055600f805460ff191660011790556000805460a060020a60ff02191660a160020a179055600c54600a80547f20c9276d9b5ff79d5c6efaa133058d2a43e37892b685a83069b0231c874e2b9092600160a060020a0316918d918290811061207357fe5b9060005260206000209060070201600101600a8e81548110151561209357fe5b906000526020600020906007020160020154604051600160a060020a038516815260208101849052606081018290526080604082018181528454600260001961010060018416150201909116049183018290529060a08301908590801561213b5780601f106121105761010080835404028352916020019161213b565b820191906000526020600020905b81548152906001019060200180831161211e57829003601f168201915b50509550505050505060405180910390a1600c5460008051602061298b83398151915290600160a060020a03166000604051600160a060020a03909216825260ff1660208201526040908101905180910390a15b600087600a8c8154811015156121a157fe5b6000918252602090912060026007909202010154919750955093505b5050945094509450949050565b600080600260005460a060020a900460ff1660058111156121e757fe5b1480156121f7575060115460ff16155b1561222d576000600a600e5481548110151561220f57fe5b90600052602060002090600702016004015481915091509150612235565b506001905060005b9091565b600054600160a060020a031681565b600d5481565b6000805b60208110156123175782816020811061226757fe5b1a7f0100000000000000000000000000000000000000000000000000000000000000027effffffffffffffffffffffffffffffffffffffffffffffffffffffffffffff191684826020811015156122ba57fe5b1a7f0100000000000000000000000000000000000000000000000000000000000000027effffffffffffffffffffffffffffffffffffffffffffffffffffffffffffff191614151561230f576000915061231c565b600101612252565b600191505b5092915050565b61232b6118d1565b1561233557600080fd5b6011805461ff001916610100179055611015612416565b6123546118d1565b1561235e57600080fd5b6011805462ff00001916620100001790556000805460a060020a60ff02191674050000000000000000000000000000000000000000179055600e54600a80546001929081106123a957fe5b60009182526020909120600790910201600601805460ff1916911515919091179055600c547f3bc1b8146e0b1b7a51adc8ede62e3c9cf811151417ee6a8909363897085d64ca90600160a060020a0316604051600160a060020a03909116815260200160405180910390a1565b6000600260005460a060020a900460ff16600581111561243257fe5b148015612446575060115460ff1615156001145b801561245f575060115460ff6101009091041615156001145b15610a85576000805460a060020a60ff02191674030000000000000000000000000000000000000000179055600c547fa9fdf9096b8c0373371fa52baeb8e1baecf8721251574911d9437d9c99c8a02090600160a060020a0316604051600160a060020a03909116815260200160405180910390a190565b600080600160005460a060020a900460ff1660058111156124f457fe5b14156110a357612502610dda565b15801561251157506006548310155b801561251f57506005548311155b1561268157600a805490612536906001830161283a565b905080600a8281548110151561254857fe5b6000918252602090912060079091020155600a80548591908390811061256a57fe5b906000526020600020906007020160010190805161258c9291602001906127bc565b5082600a8281548110151561259d57fe5b6000918252602090912060026007909202010155600c547f8fdc17bb3cd8cd793130123a1c9a98519b3b28fa44541199a38d18657d838f4b90600160a060020a0316828686604051600160a060020a0385168152602081018490526060810182905260806040820181815290820184818151815260200191508051906020019080838360005b8381101561263b578082015183820152602001612623565b50505050905090810190601f1680156126685780820380516001836020036101000a031916815260200191505b509550505050505060405180910390a1600091506110a3565b600c547f764103a1698975093d86c78464d483e3b327f438ddb3ff75224132d871f8abd490600160a060020a0316604051600160a060020a03909116815260200160405180910390a1506001905060006110a3565b6000828211156126e257fe5b50900390565b60008282018381108015906126fd5750828110155b151561270557fe5b9392505050565b60206040519081016040526000815290565b60e0604051908101604052806000815260200161273961270c565b81526020016000815260200161274d61270c565b815260200160008152602001600081526020016000151581525090565b60c0604051908101604090815260008083526020830152810161274d61270c565b8154818355818115116127b7576006028160060283600052602060002091820191016127b79190612866565b505050565b828054600181600116156101000203166002900490600052602060002090601f016020900481019282601f106127fd57805160ff191683800117855561282a565b8280016001018555821561282a579182015b8281111561282a57825182559160200191906001019061280f565b506128369291506128b0565b5090565b8154818355818115116127b7576007028160070283600052602060002091820191016127b791906128ca565b610a8591905b808211156128365760008082556001820181905561288d6002830182612925565b50600060038201819055600482015560058101805460ff1916905560060161286c565b610a8591905b8082111561283657600081556001016128b6565b610a8591905b808211156128365760008082556128ea6001830182612925565b60028201600090556003820160006129029190612969565b50600060048201819055600582015560068101805460ff191690556007016128d0565b50805460018160011615610100020316600290046000825580601f1061294b5750611015565b601f01602090049060005260206000209081019061101591906128b0565b5080546000825560060290600052602060002090810190611015919061286656008b02276858c6e0fd7396421ae2db82efc389b1602bedb1ba520ee4e2241d06b7a165627a7a72305820c4ad3fe8f95ee054d78a0974231e9b21828db226a74ac882645804a14fa917590029a165627a7a72305820ed57c448c15664aabb664d9535f7efeeea92fb992b5531a5c66748c1dce679060029",
  "source": "pragma solidity ^0.4.17;\n\nimport \"./Crowdsale.sol\";\n\n\n/// @title Crowdsalemanager contract\ncontract CrowdsaleManager is withAccessManager {\n\n    // FIELDS\n\n\n    // This CrowdsaleEntry variable represents\n    // the structure/details of individual invoice crowdsales\n    // with details to be recorded for each crowdsale entry.\n    struct CrowdsaleEntry {\n        address addr; // an address\n        bytes32 borrowerId; // borrowerd id\n        bytes32 invoiceId; // invoice id\n        bytes32 invoiceNumber; // invoice number\n        uint invoiceAmount; // invoice amount\n        uint fundingGoal; // funding goal\n    }\n\n    \n    CrowdsaleEntry[] crowdsales;\n\n    // The variable invoicesIndex keeps track of invoices by borrower ID, \n    // invoice number and invoice amount to keep track of crowdsale \n    // invoices and restrict duplicate crowdsales for the same invoice.\n    mapping(bytes32 => mapping(string => uint)) invoicesIndex;\n\n    // NON-CONSTANT METHODS\n\n    // The constructor method called when this contract instance is deployed \n    // using a modifier the _accessManager address\n    function CrowdsaleManager(address _accessManager) public\n        withAccessManager(_accessManager) {} \n\n    /** @dev Creates a new crowdsale for an invoice.\n      * @param _currencySymbol The currency symbol.\n      * @param _borrowerId The borrower ID.\n      * @param _invoiceId The invoice ID.\n      * @param _invoiceNumber The invoice number.\n      * @param _fundingGoal The funding goal.\n      * @param _platformTaxPercent The tax percentage\n      * @param _signedDocumentIPFSHash The hash of a document stored in IPFS.\n      * @return crowdsaleAddr The crowdsale address derived from deploying a crowdsale.\n      */\n    function createCrowdsale(\n            bytes32 _currencySymbol,\n            bytes32 _borrowerId,\n            bytes32 _invoiceId,\n            string _invoiceNumber,\n            uint _invoiceAmount,\n            uint _fundingGoal,\n            uint _platformTaxPercent,\n            string _signedDocumentIPFSHash,\n            uint _extraTime)\n        public\n        onlyPopulous\n        returns (address crowdsaleAddr)\n    {\n        // Avoid using the same invoice in more than crowdsale\n        require(invoicesIndex[_borrowerId][_invoiceNumber] != _invoiceAmount);\n        require(_fundingGoal < _invoiceAmount);\n        invoicesIndex[_borrowerId][_invoiceNumber] = _invoiceAmount;\n\n        crowdsaleAddr = new Crowdsale(\n            address(AM),\n            _currencySymbol,\n            _borrowerId,\n            _invoiceId,\n            _invoiceNumber,\n            _invoiceAmount,\n            _fundingGoal,\n            _platformTaxPercent,\n            _signedDocumentIPFSHash,\n            _extraTime\n        );\n    }\n}",
  "sourcePath": "/Users/najienka/Desktop/populous-smartcontracts/contracts/CrowdsaleManager.sol",
  "schemaVersion": "1.0.0",
  "updatedAt": "2018-01-24T11:16:36.785Z"
}