{
  "contractName": "Crowdsale",
  "abi": [
    {
      "constant": false,
      "inputs": [
        {
          "name": "_accessManager",
          "type": "address"
        }
      ],
      "name": "updateAccessManager",
      "outputs": [],
      "payable": false,
      "type": "function",
      "stateMutability": "nonpayable"
    },
    {
      "constant": true,
      "inputs": [],
      "name": "paidAmount",
      "outputs": [
        {
          "name": "",
          "type": "uint256"
        }
      ],
      "payable": false,
      "type": "function",
      "stateMutability": "view"
    },
    {
      "constant": true,
      "inputs": [
        {
          "name": "bidderId",
          "type": "bytes32"
        }
      ],
      "name": "findBidder",
      "outputs": [
        {
          "name": "err",
          "type": "uint8"
        },
        {
          "name": "groupIndex",
          "type": "uint256"
        },
        {
          "name": "bidderIndex",
          "type": "uint256"
        }
      ],
      "payable": false,
      "type": "function",
      "stateMutability": "view"
    },
    {
      "constant": false,
      "inputs": [
        {
          "name": "groupIndex",
          "type": "uint256"
        },
        {
          "name": "bidderIndex",
          "type": "uint256"
        }
      ],
      "name": "setBidderHasReceivedTokensBack",
      "outputs": [],
      "payable": false,
      "type": "function",
      "stateMutability": "nonpayable"
    },
    {
      "constant": true,
      "inputs": [],
      "name": "status",
      "outputs": [
        {
          "name": "",
          "type": "uint8"
        }
      ],
      "payable": false,
      "type": "function",
      "stateMutability": "view"
    },
    {
      "constant": true,
      "inputs": [],
      "name": "invoiceNumber",
      "outputs": [
        {
          "name": "",
          "type": "string"
        }
      ],
      "payable": false,
      "type": "function",
      "stateMutability": "view"
    },
    {
      "constant": true,
      "inputs": [],
      "name": "deadline",
      "outputs": [
        {
          "name": "",
          "type": "uint256"
        }
      ],
      "payable": false,
      "type": "function",
      "stateMutability": "view"
    },
    {
      "constant": false,
      "inputs": [],
      "name": "checkDeadline",
      "outputs": [
        {
          "name": "",
          "type": "bool"
        }
      ],
      "payable": false,
      "type": "function",
      "stateMutability": "nonpayable"
    },
    {
      "constant": true,
      "inputs": [],
      "name": "getStatus",
      "outputs": [
        {
          "name": "",
          "type": "uint8"
        }
      ],
      "payable": false,
      "type": "function",
      "stateMutability": "view"
    },
    {
      "constant": true,
      "inputs": [],
      "name": "sentToLosingGroups",
      "outputs": [
        {
          "name": "",
          "type": "bool"
        }
      ],
      "payable": false,
      "type": "function",
      "stateMutability": "view"
    },
    {
      "constant": true,
      "inputs": [],
      "name": "winnerGroupIndex",
      "outputs": [
        {
          "name": "",
          "type": "uint256"
        }
      ],
      "payable": false,
      "type": "function",
      "stateMutability": "view"
    },
    {
      "constant": true,
      "inputs": [],
      "name": "sentToWinnerGroup",
      "outputs": [
        {
          "name": "",
          "type": "bool"
        }
      ],
      "payable": false,
      "type": "function",
      "stateMutability": "view"
    },
    {
      "constant": true,
      "inputs": [],
      "name": "borrowerId",
      "outputs": [
        {
          "name": "",
          "type": "bytes32"
        }
      ],
      "payable": false,
      "type": "function",
      "stateMutability": "view"
    },
    {
      "constant": true,
      "inputs": [],
      "name": "invoiceId",
      "outputs": [
        {
          "name": "",
          "type": "bytes32"
        }
      ],
      "payable": false,
      "type": "function",
      "stateMutability": "view"
    },
    {
      "constant": true,
      "inputs": [],
      "name": "invoiceAmount",
      "outputs": [
        {
          "name": "",
          "type": "uint256"
        }
      ],
      "payable": false,
      "type": "function",
      "stateMutability": "view"
    },
    {
      "constant": true,
      "inputs": [],
      "name": "fundingGoal",
      "outputs": [
        {
          "name": "",
          "type": "uint256"
        }
      ],
      "payable": false,
      "type": "function",
      "stateMutability": "view"
    },
    {
      "constant": true,
      "inputs": [],
      "name": "sentToBeneficiary",
      "outputs": [
        {
          "name": "",
          "type": "bool"
        }
      ],
      "payable": false,
      "type": "function",
      "stateMutability": "view"
    },
    {
      "constant": false,
      "inputs": [
        {
          "name": "_paidAmount",
          "type": "uint256"
        }
      ],
      "name": "setPaidAmount",
      "outputs": [],
      "payable": false,
      "type": "function",
      "stateMutability": "nonpayable"
    },
    {
      "constant": true,
      "inputs": [
        {
          "name": "groupIndex",
          "type": "uint256"
        },
        {
          "name": "bidderId",
          "type": "bytes32"
        }
      ],
      "name": "findBidder",
      "outputs": [
        {
          "name": "err",
          "type": "uint8"
        },
        {
          "name": "bidderIndex",
          "type": "uint256"
        }
      ],
      "payable": false,
      "type": "function",
      "stateMutability": "view"
    },
    {
      "constant": false,
      "inputs": [],
      "name": "setSentToBeneficiary",
      "outputs": [],
      "payable": false,
      "type": "function",
      "stateMutability": "nonpayable"
    },
    {
      "constant": true,
      "inputs": [],
      "name": "signedDocumentIPFSHash",
      "outputs": [
        {
          "name": "",
          "type": "string"
        }
      ],
      "payable": false,
      "type": "function",
      "stateMutability": "view"
    },
    {
      "constant": true,
      "inputs": [
        {
          "name": "",
          "type": "uint256"
        }
      ],
      "name": "groups",
      "outputs": [
        {
          "name": "groupIndex",
          "type": "uint256"
        },
        {
          "name": "name",
          "type": "string"
        },
        {
          "name": "goal",
          "type": "uint256"
        },
        {
          "name": "amountRaised",
          "type": "uint256"
        },
        {
          "name": "biddersReceivedTokensBack",
          "type": "uint256"
        },
        {
          "name": "hasReceivedTokensBack",
          "type": "bool"
        }
      ],
      "payable": false,
      "type": "function",
      "stateMutability": "view"
    },
    {
      "constant": true,
      "inputs": [],
      "name": "currencySymbol",
      "outputs": [
        {
          "name": "",
          "type": "bytes32"
        }
      ],
      "payable": false,
      "type": "function",
      "stateMutability": "view"
    },
    {
      "constant": false,
      "inputs": [
        {
          "name": "groupIndex",
          "type": "uint256"
        }
      ],
      "name": "borrowerChooseWinner",
      "outputs": [],
      "payable": false,
      "type": "function",
      "stateMutability": "nonpayable"
    },
    {
      "constant": false,
      "inputs": [],
      "name": "waitingForPayment",
      "outputs": [
        {
          "name": "",
          "type": "bool"
        }
      ],
      "payable": false,
      "type": "function",
      "stateMutability": "nonpayable"
    },
    {
      "constant": true,
      "inputs": [],
      "name": "getGroupsCount",
      "outputs": [
        {
          "name": "",
          "type": "uint256"
        }
      ],
      "payable": false,
      "type": "function",
      "stateMutability": "view"
    },
    {
      "constant": true,
      "inputs": [
        {
          "name": "groupIndex",
          "type": "uint256"
        }
      ],
      "name": "getGroup",
      "outputs": [
        {
          "name": "name",
          "type": "string"
        },
        {
          "name": "goal",
          "type": "uint256"
        },
        {
          "name": "biddersCount",
          "type": "uint256"
        },
        {
          "name": "amountRaised",
          "type": "uint256"
        },
        {
          "name": "hasReceivedTokensBack",
          "type": "bool"
        }
      ],
      "payable": false,
      "type": "function",
      "stateMutability": "view"
    },
    {
      "constant": true,
      "inputs": [
        {
          "name": "groupIndex",
          "type": "uint256"
        },
        {
          "name": "bidderIndex",
          "type": "uint256"
        }
      ],
      "name": "getGroupBidder",
      "outputs": [
        {
          "name": "bidderId",
          "type": "bytes32"
        },
        {
          "name": "name",
          "type": "string"
        },
        {
          "name": "bidAmount",
          "type": "uint256"
        },
        {
          "name": "hasReceivedTokensBack",
          "type": "bool"
        }
      ],
      "payable": false,
      "type": "function",
      "stateMutability": "view"
    },
    {
      "constant": false,
      "inputs": [
        {
          "name": "_name",
          "type": "string"
        },
        {
          "name": "_goal",
          "type": "uint256"
        }
      ],
      "name": "createGroup",
      "outputs": [
        {
          "name": "err",
          "type": "uint8"
        },
        {
          "name": "groupIndex",
          "type": "uint256"
        }
      ],
      "payable": false,
      "type": "function",
      "stateMutability": "nonpayable"
    },
    {
      "constant": true,
      "inputs": [],
      "name": "hasWinnerGroup",
      "outputs": [
        {
          "name": "",
          "type": "bool"
        }
      ],
      "payable": false,
      "type": "function",
      "stateMutability": "view"
    },
    {
      "constant": true,
      "inputs": [],
      "name": "platformTaxPercent",
      "outputs": [
        {
          "name": "",
          "type": "uint256"
        }
      ],
      "payable": false,
      "type": "function",
      "stateMutability": "view"
    },
    {
      "constant": false,
      "inputs": [
        {
          "name": "groupIndex",
          "type": "uint256"
        },
        {
          "name": "bidderId",
          "type": "bytes32"
        },
        {
          "name": "name",
          "type": "string"
        },
        {
          "name": "value",
          "type": "uint256"
        }
      ],
      "name": "bid",
      "outputs": [
        {
          "name": "err",
          "type": "uint8"
        },
        {
          "name": "finalValue",
          "type": "uint256"
        },
        {
          "name": "groupGoal",
          "type": "uint256"
        },
        {
          "name": "goalReached",
          "type": "bool"
        }
      ],
      "payable": false,
      "type": "function",
      "stateMutability": "nonpayable"
    },
    {
      "constant": true,
      "inputs": [],
      "name": "getAmountForBeneficiary",
      "outputs": [
        {
          "name": "err",
          "type": "uint8"
        },
        {
          "name": "amount",
          "type": "uint256"
        }
      ],
      "payable": false,
      "type": "function",
      "stateMutability": "view"
    },
    {
      "constant": true,
      "inputs": [],
      "name": "AM",
      "outputs": [
        {
          "name": "",
          "type": "address"
        }
      ],
      "payable": false,
      "type": "function",
      "stateMutability": "view"
    },
    {
      "constant": true,
      "inputs": [],
      "name": "groupsReceivedTokensBack",
      "outputs": [
        {
          "name": "",
          "type": "uint256"
        }
      ],
      "payable": false,
      "type": "function",
      "stateMutability": "view"
    },
    {
      "inputs": [
        {
          "name": "_accessManager",
          "type": "address"
        },
        {
          "name": "_currencySymbol",
          "type": "bytes32"
        },
        {
          "name": "_borrowerId",
          "type": "bytes32"
        },
        {
          "name": "_invoiceId",
          "type": "bytes32"
        },
        {
          "name": "_invoiceNumber",
          "type": "string"
        },
        {
          "name": "_invoiceAmount",
          "type": "uint256"
        },
        {
          "name": "_fundingGoal",
          "type": "uint256"
        },
        {
          "name": "_platformTaxPercent",
          "type": "uint256"
        },
        {
          "name": "_signedDocumentIPFSHash",
          "type": "string"
        }
      ],
      "payable": false,
      "type": "constructor",
      "stateMutability": "nonpayable"
    },
    {
      "anonymous": false,
      "inputs": [
        {
          "indexed": false,
          "name": "groupIndex",
          "type": "uint256"
        },
        {
          "indexed": false,
          "name": "name",
          "type": "string"
        },
        {
          "indexed": false,
          "name": "goal",
          "type": "uint256"
        }
      ],
      "name": "EventGroupCreated",
      "type": "event"
    },
    {
      "anonymous": false,
      "inputs": [
        {
          "indexed": false,
          "name": "groupIndex",
          "type": "uint256"
        },
        {
          "indexed": false,
          "name": "_name",
          "type": "string"
        },
        {
          "indexed": false,
          "name": "goal",
          "type": "uint256"
        }
      ],
      "name": "EventGroupGoalReached",
      "type": "event"
    },
    {
      "anonymous": false,
      "inputs": [
        {
          "indexed": false,
          "name": "groupIndex",
          "type": "uint256"
        },
        {
          "indexed": false,
          "name": "bidderId",
          "type": "bytes32"
        },
        {
          "indexed": false,
          "name": "name",
          "type": "string"
        },
        {
          "indexed": false,
          "name": "value",
          "type": "uint256"
        }
      ],
      "name": "EventNewBid",
      "type": "event"
    },
    {
      "anonymous": false,
      "inputs": [],
      "name": "EventAuctionOpen",
      "type": "event"
    },
    {
      "anonymous": false,
      "inputs": [
        {
          "indexed": false,
          "name": "reasonCode",
          "type": "uint8"
        }
      ],
      "name": "EventAuctionClosed",
      "type": "event"
    },
    {
      "anonymous": false,
      "inputs": [],
      "name": "EventAuctionWaiting",
      "type": "event"
    },
    {
      "anonymous": false,
      "inputs": [
        {
          "indexed": false,
          "name": "paidAmount",
          "type": "uint256"
        }
      ],
      "name": "EventPaymentReceived",
      "type": "event"
    },
    {
      "anonymous": false,
      "inputs": [],
      "name": "EventAuctionCompleted",
      "type": "event"
    }
  ],
  "bytecode": "0x606060405234156200001057600080fd5b6040516200255738038062002557833981016040528080519190602001805191906020018051919060200180519190602001805182019190602001805191906020018051919060200180519190602001805160008054600160a060020a031916600160a060020a038d1617905560018a9055600489905560028890559190910190506003858051620000a79291602001906200010d565b506005849055600683905560088290556009818051620000cc9291602001906200010d565b50505062015180420160075550506000805460a060020a60ff0219167401000000000000000000000000000000000000000017905550620001b29350505050565b828054600181600116156101000203166002900490600052602060002090601f016020900481019282601f106200015057805160ff191683800117855562000180565b8280016001018555821562000180579182015b828111156200018057825182559160200191906001019062000163565b506200018e92915062000192565b5090565b620001af91905b808211156200018e576000815560010162000199565b90565b61239580620001c26000396000f3006060604052361561019b5763ffffffff60e060020a60003504166302ab72c481146101a057806312fa769f146101c157806315b20454146101e657806319a0e16d14610226578063200d2ed21461023f578063246684731461027657806329dcb0cf1461030057806343bf9936146103135780634e69d5601461033a57806355d97ba8146103635780635cfa4d60146103765780635e054efb146103895780636fbefedf1461039c57806370c86286146103af5780637478901d146103c25780637a3a0e84146103d55780637b69c9ae146103e857806385d8ed7d146103fb5780638688b4df146104115780638942e19d146104465780638a8f5af71461045957806396324bd41461046c578063968c420914610532578063a203886e14610545578063a7b80b6c1461055b578063b84afbb41461056e578063ceb6065414610581578063dee50b241461062f578063e367fc6a146106d7578063ec0a99741461072a578063efd3bc0c1461073d578063f29c2e8b14610750578063f52eb385146107de578063f7f01b4b146107f1578063f978460114610820575b600080fd5b34156101ab57600080fd5b6101bf600160a060020a0360043516610833565b005b34156101cc57600080fd5b6101d46108e6565b60405190815260200160405180910390f35b34156101f157600080fd5b6101fc6004356108ec565b604051808460ff1660ff168152602001838152602001828152602001935050505060405180910390f35b341561023157600080fd5b6101bf6004356024356109a9565b341561024a57600080fd5b610252610b7b565b6040518082600581111561026257fe5b60ff16815260200191505060405180910390f35b341561028157600080fd5b610289610b8b565b60405160208082528190810183818151815260200191508051906020019080838360005b838110156102c55780820151838201526020016102ad565b50505050905090810190601f1680156102f25780820380516001836020036101000a031916815260200191505b509250505060405180910390f35b341561030b57600080fd5b6101d4610c29565b341561031e57600080fd5b610326610c2f565b604051901515815260200160405180910390f35b341561034557600080fd5b61034d610cc9565b60405160ff909116815260200160405180910390f35b341561036e57600080fd5b610326610ce7565b341561038157600080fd5b6101d4610cf5565b341561039457600080fd5b610326610cfb565b34156103a757600080fd5b6101d4610d0a565b34156103ba57600080fd5b6101d4610d10565b34156103cd57600080fd5b6101d4610d16565b34156103e057600080fd5b6101d4610d1c565b34156103f357600080fd5b610326610d22565b341561040657600080fd5b6101bf600435610d2b565b341561041c57600080fd5b61042a600435602435610e32565b60405160ff909216825260208201526040908101905180910390f35b341561045157600080fd5b6101bf610ed2565b341561046457600080fd5b610289610f79565b341561047757600080fd5b610482600435610fe4565b60405186815260408101859052606081018490526080810183905281151560a082015260c0602082018181528754600260001961010060018416150201909116049183018290529060e08301908890801561051e5780601f106104f35761010080835404028352916020019161051e565b820191906000526020600020905b81548152906001019060200180831161050157829003601f168201915b505097505050505050505060405180910390f35b341561053d57600080fd5b6101d461102c565b341561055057600080fd5b6101bf600435611032565b341561056657600080fd5b610326611172565b341561057957600080fd5b6101d46111fc565b341561058c57600080fd5b610597600435611202565b604051808060200186815260200185815260200184815260200183151515158152602001828103825287818151815260200191508051906020019080838360005b838110156105f05780820151838201526020016105d8565b50505050905090810190601f16801561061d5780820380516001836020036101000a031916815260200191505b50965050505050505060405180910390f35b341561063a57600080fd5b61064860043560243561148f565b60405184815260408101839052811515606082015260806020820181815290820185818151815260200191508051906020019080838360005b83811015610699578082015183820152602001610681565b50505050905090810190601f1680156106c65780820380516001836020036101000a031916815260200191505b509550505050505060405180910390f35b34156106e257600080fd5b61042a60046024813581810190830135806020601f8201819004810201604051908101604052818152929190602084018383808284375094965050933593506115f692505050565b341561073557600080fd5b61032661178f565b341561074857600080fd5b6101d4611798565b341561075b57600080fd5b6107ae600480359060248035919060649060443590810190830135806020601f82018190048102016040519081016040528181529291906020840183838082843750949650509335935061179e92505050565b60405160ff9094168452602084019290925260408084019190915290151560608301526080909101905180910390f35b34156107e957600080fd5b61042a611e06565b34156107fc57600080fd5b610804611e75565b604051600160a060020a03909116815260200160405180910390f35b341561082b57600080fd5b6101d4611e84565b60008054600160a060020a031690630c68ba219033906040516020015260405160e060020a63ffffffff8416028152600160a060020a039091166004820152602401602060405180830381600087803b151561088e57600080fd5b6102c65a03f1151561089f57600080fd5b5050506040518051151560011490506108b757600080fd5b6000805473ffffffffffffffffffffffffffffffffffffffff1916600160a060020a0392909216919091179055565b600e5481565b600080805b600a54821015610997575060005b600a80548390811061090d57fe5b90600052602060002090600702016003018054905081101561098c57610971600a8381548110151561093b57fe5b90600052602060002090600702016003018281548110151561095957fe5b90600052602060002090600602016001015485611e8a565b15156001141561098457600092506109a2565b6001016108ff565b6001909101906108f1565b506001915060009050805b9193909250565b60008054600160a060020a0316906305fd22d09033906040516020015260405160e060020a63ffffffff8416028152600160a060020a039091166004820152602401602060405180830381600087803b1515610a0457600080fd5b6102c65a03f11515610a1557600080fd5b505050604051805115156001149050610a2d57600080fd5b6001600a83815481101515610a3e57fe5b906000526020600020906007020160030182815481101515610a5c57fe5b60009182526020909120600690910201600501805460ff1916911515919091179055600a805483908110610a8c57fe5b6000918252602090912060056007909202010180546001019055600a805483908110610ab457fe5b6000918252602090912060036007909202010154600a805484908110610ad657fe5b9060005260206000209060070201600501541415610b77576001600a83815481101515610aff57fe5b60009182526020909120600790910201600601805460ff1916911515919091179055600b80546001908101909155600a541415610b4b57610b3e611f5f565b610b46611f76565b610b77565b600b54600a54600019011415610b6357610b46611f5f565b600b54600a541415610b7757610b77611f76565b5050565b60005460a060020a900460ff1681565b60038054600181600116156101000203166002900480601f016020809104026020016040519081016040528092919081815260200182805460018160011615610100020316600290048015610c215780601f10610bf657610100808354040283529160200191610c21565b820191906000526020600020905b815481529060010190602001808311610c0457829003601f168201915b505050505081565b60075481565b6000600754421115610cc257600160005460a060020a900460ff166005811115610c5557fe5b1415610cba576000805460a060020a60ff021916740200000000000000000000000000000000000000001790557e126a3104272741a09248f1cce180a06442cc9b5e88c131956b0e315557885f600160405160ff909116815260200160405180910390a15b506001610cc6565b5060005b90565b6000805460a060020a900460ff166005811115610ce257fe5b905090565b600f54610100900460ff1681565b600c5481565b600f5462010000900460ff1681565b60045481565b60025481565b60055481565b60065481565b600f5460ff1681565b60008054600160a060020a0316906305fd22d09033906040516020015260405160e060020a63ffffffff8416028152600160a060020a039091166004820152602401602060405180830381600087803b1515610d8657600080fd5b6102c65a03f11515610d9757600080fd5b505050604051805115156001149050610daf57600080fd5b600360005460a060020a900460ff166005811115610dc957fe5b1415610e2f57600e8190556000805460a060020a60ff021916740400000000000000000000000000000000000000001790557fe2630c8bd63a0cac2936da8f1d4fe0d13a8662daca441639630c7e55095683238160405190815260200160405180910390a15b50565b6000805b600a805485908110610e4457fe5b906000526020600020906007020160030180549050811015610ec357610ea8600a85815481101515610e7257fe5b906000526020600020906007020160030182815481101515610e9057fe5b90600052602060002090600602016001015484611e8a565b151560011415610ebb5760009150610ecb565b600101610e36565b506001905060005b9250929050565b60008054600160a060020a0316906305fd22d09033906040516020015260405160e060020a63ffffffff8416028152600160a060020a039091166004820152602401602060405180830381600087803b1515610f2d57600080fd5b6102c65a03f11515610f3e57600080fd5b505050604051805115156001149050610f5657600080fd5b600f805460ff19166001908117909155600a541415610f7757610f77611f5f565b565b60098054600181600116156101000203166002900480601f016020809104026020016040519081016040528092919081815260200182805460018160011615610100020316600290048015610c215780601f10610bf657610100808354040283529160200191610c21565b600a805482908110610ff257fe5b6000918252602090912060079091020180546002820154600483015460058401546006850154939550600190940193919290919060ff1686565b60015481565b600160005460a060020a900460ff16600581111561104c57fe5b1415610e2f5760008054600160a060020a03169063fda089589033906040516020015260405160e060020a63ffffffff8416028152600160a060020a039091166004820152602401602060405180830381600087803b15156110ad57600080fd5b6102c65a03f115156110be57600080fd5b5050506040518051151560011490506110d657600080fd5b6000600a828154811015156110e757fe5b9060005260206000209060070201600401541115610e2f57600c819055600d805460ff191660011790556000805460a060020a60ff021916740200000000000000000000000000000000000000001790557e126a3104272741a09248f1cce180a06442cc9b5e88c131956b0e315557885f600260405160ff909116815260200160405180910390a150565b60008054600160a060020a031663fda0895833836040516020015260405160e060020a63ffffffff8416028152600160a060020a039091166004820152602401602060405180830381600087803b15156111cb57600080fd5b6102c65a03f115156111dc57600080fd5b5050506040518051151560011490506111f457600080fd5b610ce2612011565b600a5490565b61120a6120eb565b6000806000806112186120fd565b600a80548890811061122657fe5b906000526020600020906007020160e0604051908101604052908160008201548152602001600182018054600181600116156101000203166002900480601f0160208091040260200160405190810160405280929190818152602001828054600181600116156101000203166002900480156112e35780601f106112b8576101008083540402835291602001916112e3565b820191906000526020600020905b8154815290600101906020018083116112c657829003601f168201915b50505050508152602001600282015481526020016003820180548060200260200160405190810160405281815291906000602084015b8282101561143157600084815260209020600683020160c0604051908101604052908160008201548152602001600182015460001916600019168152602001600282018054600181600116156101000203166002900480601f0160208091040260200160405190810160405280929190818152602001828054600181600116156101000203166002900480156113f05780601f106113c5576101008083540402835291602001916113f0565b820191906000526020600020905b8154815290600101906020018083116113d357829003601f168201915b505050918352505060038201546020808301919091526004830154604083015260059092015460ff1615156060909101529082526001929092019101611319565b5050509082525060048201546020808301919091526005830154604083015260069092015460ff161515606090910152909150810151816040015182606001515183608001518460c00151939b929a50909850965090945092505050565b60006114996120eb565b6000806114a4612149565b600a8054889081106114b257fe5b9060005260206000209060070201600301868154811015156114d057fe5b906000526020600020906006020160c0604051908101604052908160008201548152602001600182015460001916600019168152602001600282018054600181600116156101000203166002900480601f01602080910402602001604051908101604052809291908181526020018280546001816001161561010002031660029004801561159f5780601f106115745761010080835404028352916020019161159f565b820191906000526020600020905b81548152906001019060200180831161158257829003601f168201915b505050918352505060038201546020808301919091526004830154604083015260059092015460ff161515606090910152909150810151816040015182606001518360a00151929a91995097509095509350505050565b600080600160005460a060020a900460ff16600581111561161357fe5b1415610ecb57611621610c2f565b15801561163057506006548310155b801561163e57506005548311155b1561178357600a805490611655906001830161216a565b905080600a8281548110151561166757fe5b6000918252602090912060079091020155600a80548591908390811061168957fe5b90600052602060002090600702016001019080516116ab92916020019061219b565b5082600a828154811015156116bc57fe5b9060005260206000209060070201600201819055507f8aceed8de06c3ec19c51e5ab9c1ca2eb054cbd116661d1282071fd7703cc353e8185856040518084815260200180602001838152602001828103825284818151815260200191508051906020019080838360005b8381101561173e578082015183820152602001611726565b50505050905090810190601f16801561176b5780820380516001836020036101000a031916815260200191505b5094505050505060405180910390a160009150610ecb565b50600190506000610ecb565b600d5460ff1681565b60085481565b60008080808080600160005460a060020a900460ff1660058111156117bf57fe5b1415611df95760008054600160a060020a0316906305fd22d09033906040516020015260405160e060020a63ffffffff8416028152600160a060020a039091166004820152602401602060405180830381600087803b151561182057600080fd5b6102c65a03f1151561183157600080fd5b50505060405180511515600114905061184957600080fd5b611851610c2f565b15156001148061185f575086155b806118895750600a80548b90811061187357fe5b9060005260206000209060070201600201546000145b156118a1576001955060009450849350839250611df9565b600a80548b9081106118af57fe5b90600052602060002090600702016002015487600a8c8154811015156118d157fe5b90600052602060002090600702016004015401111561193757611934600a8b8154811015156118fc57fe5b906000526020600020906007020160020154600a8c81548110151561191d57fe5b9060005260206000209060070201600401546120b5565b96505b6119418a8a610e32565b909250905060ff82161515611a2157611998600a8b81548110151561196257fe5b90600052602060002090600702016003018281548110151561198057fe5b906000526020600020906006020160030154886120c7565b600a80548c9081106119a657fe5b9060005260206000209060070201600301828154811015156119c457fe5b90600052602060002090600602016003018190555042600a8b8154811015156119e957fe5b906000526020600020906007020160030182815481101515611a0757fe5b906000526020600020906006020160040181905550611b12565b600a80548b908110611a2f57fe5b90600052602060002090600702016003018054806001018281611a529190612219565b9160005260206000209060060201600060c060405190810160405280600a8f815481101515611a7d57fe5b6000918252602080832060036007909302019190910154835282018f9052604082018e9052606082018d905242608083015260a0909101529190508151815560208201516001820155604082015181600201908051611ae092916020019061219b565b50606082015181600301556080820151816004015560a0820151600591909101805460ff191691151591909117905550505b611b3c600a8b815481101515611b2457fe5b906000526020600020906007020160040154886120c7565b600a80548c908110611b4a57fe5b9060005260206000209060070201600401819055507f2ca5aa4afa04f11467caafe7b396d938bc0fdd693831267b9b682e9d2924fab68a8a8a8a604051848152602081018490526060810182905260806040820181815290820184818151815260200191508051906020019080838360005b83811015611bd4578082015183820152602001611bbc565b50505050905090810190601f168015611c015780820380516001836020036101000a031916815260200191505b509550505050505060405180910390a1600a80548b908110611c1f57fe5b906000526020600020906007020160020154600a8b815481101515611c4057fe5b60009182526020909120600460079092020101541492506001831415611dcb57600c8a9055600d805460ff191660011790556000805460a060020a60ff02191674020000000000000000000000000000000000000000179055600a80547ffc283d648f2d223664cf7012091e001a932bf7f34644e0f5f58196aab51df5a7918c9182908110611ccb57fe5b9060005260206000209060070201600101600a8d815481101515611ceb57fe5b9060005260206000209060070201600201546040518381526040810182905260606020820181815284546002600019610100600184161502019091160491830182905290608083019085908015611d835780601f10611d5857610100808354040283529160200191611d83565b820191906000526020600020905b815481529060010190602001808311611d6657829003601f168201915b505094505050505060405180910390a17e126a3104272741a09248f1cce180a06442cc9b5e88c131956b0e315557885f600060405160ff909116815260200160405180910390a15b600087600a8c815481101515611ddd57fe5b6000918252602090912060026007909202010154919750955093505b5050945094509450949050565b600080600260005460a060020a900460ff166005811115611e2357fe5b148015611e335750600f5460ff16155b15611e69576000600a600c54815481101515611e4b57fe5b90600052602060002090600702016004015481915091509150611e71565b506001905060005b9091565b600054600160a060020a031681565b600b5481565b6000805b6020811015611f5357828160208110611ea357fe5b1a7f0100000000000000000000000000000000000000000000000000000000000000027effffffffffffffffffffffffffffffffffffffffffffffffffffffffffffff19168482602081101515611ef657fe5b1a7f0100000000000000000000000000000000000000000000000000000000000000027effffffffffffffffffffffffffffffffffffffffffffffffffffffffffffff1916141515611f4b5760009150611f58565b600101611e8e565b600191505b5092915050565b600f805461ff001916610100179055610e2f612011565b600f805462ff00001916620100001790556000805460a060020a60ff02191674050000000000000000000000000000000000000000179055600c54600a8054600192908110611fc157fe5b60009182526020909120600790910201600601805460ff19169115159190911790557fc78c4715afbbc8ef1412fcff5a686d3b77f7bf569df962283f09a6381067cab760405160405180910390a1565b6000600260005460a060020a900460ff16600581111561202d57fe5b1480156120415750600f5460ff1615156001145b801561205a5750600f5460ff6101009091041615156001145b15610cc6576000805460a060020a60ff021916740300000000000000000000000000000000000000001790557f7a849a85c00b69c54e26174dfe033f0b1a9c34d0d492ba36dd316f1c399d569b60405160405180910390a190565b6000828211156120c157fe5b50900390565b60008282018381108015906120dc5750828110155b15156120e457fe5b9392505050565b60206040519081016040526000815290565b60e060405190810160405280600081526020016121186120eb565b81526020016000815260200161212c6120eb565b815260200160008152602001600081526020016000151581525090565b60c0604051908101604090815260008083526020830152810161212c6120eb565b815481835581811511612196576007028160070283600052602060002091820191016121969190612245565b505050565b828054600181600116156101000203166002900490600052602060002090601f016020900481019282601f106121dc57805160ff1916838001178555612209565b82800160010185558215612209579182015b828111156122095782518255916020019190600101906121ee565b506122159291506122a0565b5090565b8154818355818115116121965760060281600602836000526020600020918201910161219691906122ba565b610cc691905b808211156122155760008082556122656001830182612304565b600282016000905560038201600061227d9190612348565b50600060048201819055600582015560068101805460ff1916905560070161224b565b610cc691905b8082111561221557600081556001016122a6565b610cc691905b80821115612215576000808255600182018190556122e16002830182612304565b50600060038201819055600482015560058101805460ff191690556006016122c0565b50805460018160011615610100020316600290046000825580601f1061232a5750610e2f565b601f016020900490600052602060002090810190610e2f91906122a0565b5080546000825560060290600052602060002090810190610e2f91906122ba5600a165627a7a72305820e9191e6703a8d4666b42961553febec4617702d8189ca646a4b5fc8d18390db50029",
  "source": "pragma solidity ^0.4.17;\n\nimport \"./SafeMath.sol\";\nimport \"./Utils.sol\";\nimport \"./withAccessManager.sol\";\n\n\n\n/// @title Crowdsale contract\ncontract Crowdsale is withAccessManager {\n\n    // EVENTS \n\n    event EventGroupCreated(uint groupIndex, string name, uint goal);\n    event EventGroupGoalReached(uint groupIndex, string _name, uint goal);\n    event EventNewBid(uint groupIndex, bytes32 bidderId, string name, uint value);\n    event EventAuctionOpen();\n    event EventAuctionClosed(uint8 reasonCode);\n    event EventAuctionWaiting();\n    event EventPaymentReceived(uint paidAmount);\n    event EventAuctionCompleted();\n\n\n    // FIELDS \n\n    enum AuctionCloseReasons { GroupGoalReached, DeadlineReached, BorrowerClosed }\n    enum States { Pending, Open, Closed, WaitingForInvoicePayment, PaymentReceived, Completed }\n\n    States public status;\n\n    bytes32 public currencySymbol;\n    bytes32 public invoiceId;\n    string public invoiceNumber;\n    bytes32 public borrowerId;\n    uint public invoiceAmount;\n    uint public fundingGoal;\n    uint public deadline;\n    uint public platformTaxPercent;\n\n    string public signedDocumentIPFSHash;\n\n    struct Bidder {\n        uint bidderIndex; // bidder index\n        bytes32 bidderId; // bidder id\n        string name; // bidder's name\n        uint bidAmount; // total bid amount\n        uint lastBidAt; // Timestamp of last bid\n        bool hasReceivedTokensBack; // This flag is set when losing group receives its tokens back or when winner group gets its winnings\n    }\n\n    struct Group {\n        uint groupIndex; // group index\n        string name; // group name\n        uint goal; // group goal\n        Bidder[] bidders; // group bidders\n        uint amountRaised; // amount raised by group\n        uint biddersReceivedTokensBack;\n        bool hasReceivedTokensBack; // This is set to true when the flag hasReceivedTokensBack is set to true for all bidders in the group\n    }\n\n    //Groups\n    Group[] public groups;\n    uint public groupsReceivedTokensBack;\n    uint public winnerGroupIndex;\n    bool public hasWinnerGroup;\n\n    uint public paidAmount;\n\n    bool public sentToBeneficiary;\n    bool public sentToLosingGroups;\n    bool public sentToWinnerGroup;\n\n    // MODIFIERS\n\n    modifier onlyOpenAuction() { if (status == States.Open) { _; } }\n\n\n    // NON-CONSTANT METHODS\n\n\n    //Constructor\n    /** @dev Creates a new Crowdsale contract instance for an invoice auction.\n      * @param _accessManager The address of an access manager contract instance.\n      * @param _currencySymbol The currency symbol, e.g., GBP.\n      * @param _borrowerId The unique borrower ID.\n      * @param _invoiceId The unique invoice ID.\n      * @param _invoiceNumber The unique invoice number.\n      * @param _invoiceAmount The invoice amount.\n      * @param _fundingGoal The funding goal of the borrower.\n      * @param _platformTaxPercent The percentage charged by the platform\n      * @param _signedDocumentIPFSHash The hash of related invoice documentation saved on IPFS.\n      */\n    function Crowdsale(\n            address _accessManager,\n            bytes32 _currencySymbol,\n            bytes32 _borrowerId,\n            bytes32 _invoiceId,\n            string _invoiceNumber,\n            uint _invoiceAmount,\n            uint _fundingGoal,\n            uint _platformTaxPercent,\n            string _signedDocumentIPFSHash)\n            public\n            withAccessManager(_accessManager)\n    {\n        currencySymbol = _currencySymbol;\n        borrowerId = _borrowerId;\n        invoiceId = _invoiceId;\n        invoiceNumber = _invoiceNumber;\n        invoiceAmount = _invoiceAmount;\n        fundingGoal = _fundingGoal;\n        platformTaxPercent = _platformTaxPercent;\n        signedDocumentIPFSHash = _signedDocumentIPFSHash;\n\n        deadline = now + 24 hours;\n        status = States.Open;\n    }\n\n    /** @dev Checks whether the invoice auction deadline has passed or not.\n      * @return bool A boolean value indicating whether the deadline has passed or not.\n      */\n    function checkDeadline() public returns(bool) {\n        if (now > deadline) {\n            if (status == States.Open) {\n                status = States.Closed;\n                EventAuctionClosed(uint8(AuctionCloseReasons.DeadlineReached));\n            }\n            return true;\n        }\n        return false;\n    }\n\n    /** @dev Sets the 'hasReceivedTokensBack' for a bidder denoting they have received token refund and is restricted to populous.\n      * @param groupIndex The group id in a set of groups.\n      * @param bidderIndex The bidder id in a set of bidders within a group.\n      */\n    function setBidderHasReceivedTokensBack(uint groupIndex, uint bidderIndex) \n        public\n        onlyPopulous \n    {\n        groups[groupIndex].bidders[bidderIndex].hasReceivedTokensBack = true;\n        groups[groupIndex].biddersReceivedTokensBack++;\n\n        if (groups[groupIndex].biddersReceivedTokensBack == groups[groupIndex].bidders.length) {\n            groups[groupIndex].hasReceivedTokensBack = true;\n            groupsReceivedTokensBack++;\n            \n            if (groups.length == 1) {\n                setSentToLosingGroups();\n                setSentToWinnerGroup();\n            } else if (groups.length - 1 == groupsReceivedTokensBack) {\n                setSentToLosingGroups();\n            } else if (groups.length == groupsReceivedTokensBack) {\n                setSentToWinnerGroup();\n            }\n        }\n    }\n\n\n    /** @dev Sets the paidAmount and restricted to populous.\n      * @param _paidAmount The amount paid.\n      */\n    function setPaidAmount(uint _paidAmount) public onlyPopulous {\n        if (status == States.WaitingForInvoicePayment) {\n            paidAmount = _paidAmount;\n            status = States.PaymentReceived;\n\n            EventPaymentReceived(paidAmount);\n        }\n    } \n\n    /** @dev Creates a new bidding group for bidders to bid to fund an invoice and assigns the group an index in the collection of groups.\n      * @param _name The group name.\n      * @param _goal The goal of the group.\n      * @return err 0 or 1 implying absence or presence of error.\n      * @return groupIndex The returned group index/location in a collection of other groups.\n      */\n    function createGroup(string _name, uint _goal)\n        public\n        onlyOpenAuction\n        returns (uint8 err, uint groupIndex)\n    {\n        if(checkDeadline() == false && _goal >= fundingGoal && _goal <= invoiceAmount) {\n            groupIndex = groups.length++;\n            groups[groupIndex].groupIndex = groupIndex;\n            groups[groupIndex].name = _name;\n            groups[groupIndex].goal = _goal;\n\n            EventGroupCreated(groupIndex, _name, _goal);\n\n            return (0, groupIndex);\n        } else {\n            return (1, 0);\n        }\n    }\n\n    /** @dev Allows a bidder to place a bid as part of a group with a set of groups.\n      * @param groupIndex The index/location of a group in a set of groups.\n      * @param bidderId The bidder id/location in a set of bidders.\n      * @param name The bidder name.\n      * @param value The bid value.\n      * @return err 0 or 1 implying absence or presence of error.\n      * @return finalValue All bidder's bids value.\n      * @return groupGoal An unsigned integer representing the group's goal.\n      * @return goalReached A boolean value indicating whether the group goal has reached or not.\n      */\n    function bid(uint groupIndex, bytes32 bidderId, string name, uint value)\n        public\n        onlyOpenAuction\n        onlyPopulous\n        returns (uint8 err, uint finalValue, uint groupGoal, bool goalReached)\n    {\n        if(checkDeadline() == true || value == 0 || groups[groupIndex].goal == 0) {\n            return (1, 0, 0, false);\n        }\n        // checking if amount raised by group and bid value exceed the group's goal\n        if (groups[groupIndex].amountRaised + value > groups[groupIndex].goal) {\n            value = SafeMath.safeSub(groups[groupIndex].goal, groups[groupIndex].amountRaised);\n        }\n\n        uint8 finderErr;\n        uint bidderIndex;\n        // searching for bidder\n        (finderErr, bidderIndex) = findBidder(groupIndex, bidderId);\n        \n        if (finderErr == 0) {\n            // if bidder found in a group, set timestamp of last bid and add to their bid amount\n            groups[groupIndex].bidders[bidderIndex].bidAmount = SafeMath.safeAdd(groups[groupIndex].bidders[bidderIndex].bidAmount, value);\n            groups[groupIndex].bidders[bidderIndex].lastBidAt = now;\n        } else {\n            // adding the bidder to a group if not found\n            groups[groupIndex].bidders.push(Bidder(groups[groupIndex].bidders.length, bidderId, name, value, now, false));\n        }\n        // adding bid value to amount raised for the group using the group index to locate group in groups array\n        groups[groupIndex].amountRaised = SafeMath.safeAdd(groups[groupIndex].amountRaised, value);\n\n        EventNewBid(groupIndex, bidderId, name, value);\n        // boolean value to check if goal has reached\n        goalReached = groups[groupIndex].amountRaised == groups[groupIndex].goal;\n        // using the above boolean value to set the winning group and set the status of the auction to closed\n        if (goalReached == true) {\n            winnerGroupIndex = groupIndex;\n            hasWinnerGroup = true;\n            status = States.Closed;\n            // event denoting groupGoalReached\n            EventGroupGoalReached(groupIndex, groups[groupIndex].name, groups[groupIndex].goal);\n            // event denoting auctionClosed\n            EventAuctionClosed(uint8(AuctionCloseReasons.GroupGoalReached));\n        }\n\n        return (0, value, groups[groupIndex].goal, goalReached);\n    }\n\n    /** @dev Allows a borrower to choose a bid winner group and checks amount raised from that group is > 0.\n      * @param groupIndex The selected index/location of the group in the groups array.\n      */\n    function borrowerChooseWinner(uint groupIndex)\n        public\n        onlyOpenAuction\n        onlyServer\n    {\n        if (groups[groupIndex].amountRaised > 0) {\n            winnerGroupIndex = groupIndex;\n            hasWinnerGroup = true;\n            status = States.Closed;\n\n            EventAuctionClosed(uint8(AuctionCloseReasons.BorrowerClosed));\n        }\n    }\n\n    // calls the _waitingForPayment method\n    function waitingForPayment() public onlyServer returns(bool) {\n        return _waitingForPayment();\n    }\n\n    /** @dev Sets the status to a state of '_waitingForPayment'.\n      * @dev If the current status is closed, sentToBeneficiary and sentToLosingGroups are true.\n      * @return bool A boolean value true or false.\n      */\n    function _waitingForPayment() private returns(bool) {\n        if (status == States.Closed && sentToBeneficiary == true && sentToLosingGroups == true) {\n            // Tokens have been sent to beneficiary\n            // Tokens have been sent to loser groups\n            status = States.WaitingForInvoicePayment;\n            EventAuctionWaiting();\n        }\n    }\n\n    /** @dev Sets the 'sentToBeneficiary' boolean variable to true.\n      * @dev Only populous can use this method.\n      */\n    function setSentToBeneficiary() public onlyPopulous {\n        sentToBeneficiary = true;\n\n        // We have only 1 group (the winning group) and we set \n        // the losing groups as refunded automatically.\n        if (groups.length == 1) {\n            setSentToLosingGroups();\n        }\n    }\n\n    /** @dev Sets the sent 'setSentToLosingGroups' boolean variable to true.\n      */\n    function setSentToLosingGroups() private {\n        sentToLosingGroups = true;\n        \n        _waitingForPayment();\n    }\n\n    /** @dev Sets the sent 'sentToWinnerGroup' boolean variable to true.\n      * @dev Sets the status of the crowdsale to completed\n      * @dev Sets the boolean 'hasReceivedTokensBack' variable of the winning group to true\n      */\n    function setSentToWinnerGroup() private {\n        sentToWinnerGroup = true;\n        status = States.Completed;\n        groups[winnerGroupIndex].hasReceivedTokensBack = true;\n        \n        EventAuctionCompleted();\n    }\n\n\n    // CONSTANT METHODS\n\n    /** @dev Gets the current status.\n      * @return uint8 The returned status.\n      */\n    function getStatus() public view returns (uint8) {\n        return uint8(status);\n    }\n\n    /** @dev Gets the number of groups in the groups array.\n      * @return uint8 The returned status.\n      */\n    function getGroupsCount() public view returns (uint) {\n        return groups.length;\n    }\n\n    /** @dev Gets the details of a group located by its index/location in the group array..\n      * @param groupIndex The location of a group within the groups array variable.\n      * @return uint8 The returned status.\n      */ \n    function getGroup(uint groupIndex)\n        public view\n        returns (string name, uint goal, uint biddersCount, uint amountRaised, bool hasReceivedTokensBack)\n    {\n        Group memory g = groups[groupIndex];\n\n        return (g.name, g.goal, g.bidders.length, g.amountRaised, g.hasReceivedTokensBack);\n    }\n\n    /** @dev Gets a bidders details from a group.\n      * @param groupIndex The location of a group in the groups array.\n      * @param bidderIndex The location of a bidder in the bidders arrays of a group\n      * @return bidderId The bidder ID.\n      * @return name The bidder name.\n      * @return bidAmount The bid amount.\n      * @return hasReceivedTokensBack A boolean value to indicate whether the loosing group has received a refund of their tokens.\n      */\n    function getGroupBidder(uint groupIndex, uint bidderIndex)\n        public view\n        returns (bytes32 bidderId, string name, uint bidAmount, bool hasReceivedTokensBack)\n    {\n        Bidder memory b = groups[groupIndex].bidders[bidderIndex];\n\n        return (b.bidderId, b.name, b.bidAmount, b.hasReceivedTokensBack);\n    }\n\n    /** @dev Finds a bidder in a list of bidders with bidder ID.\n      * @param bidderId The bytes32 bidder ID.\n      * @return err 0 or 1 implying absence or presence of error.\n      * @return bidderIndex The location of the bidder in bidders array.\n      * @return groupIndex The location of the bidders group in the groups array.\n      */\n    function findBidder(bytes32 bidderId) public view returns (uint8 err, uint groupIndex, uint bidderIndex) {\n        for(groupIndex = 0; groupIndex < groups.length; groupIndex++) {\n            for(bidderIndex = 0; bidderIndex < groups[groupIndex].bidders.length; bidderIndex++) {\n                if (Utils.equal(groups[groupIndex].bidders[bidderIndex].bidderId, bidderId) == true) {\n                    return (0, groupIndex, bidderIndex);\n                }\n            }\n        }\n        return (1, 0, 0);\n    }\n\n    /** @dev Finds a bidder in a list of bidders with bidder ID and group index.\n      * @param groupIndex The location of a group in the groups array.\n      * @param bidderIndex The location of a bidder in the bidders arrays of a group\n      * @return err 0 or 1 implying absence or presence of error.\n      * @return bidderIndex The location of the bidder in bidders array.\n      */\n    function findBidder(uint groupIndex, bytes32 bidderId) public view returns (uint8 err, uint bidderIndex) {\n        for(bidderIndex = 0; bidderIndex < groups[groupIndex].bidders.length; bidderIndex++) {\n            if (Utils.equal(groups[groupIndex].bidders[bidderIndex].bidderId, bidderId) == true) {\n                return (0, bidderIndex);\n            }\n        }\n        return (1, 0);\n    }\n\n    /** @dev Gets beneficiary's token amount after bidding is closed.\n      * @return amount The total bid amount.\n      * @return err 0 or 1 implying absence or presence of error.\n      */\n    function getAmountForBeneficiary() public view returns (uint8 err, uint amount) {\n        if (status == States.Closed && sentToBeneficiary == false) {\n            return (0, groups[winnerGroupIndex].amountRaised);\n        } else {\n            return (1, 0);\n        }\n    }\n\n}",
  "sourcePath": "/home/user/Documents/populous/populous/populous-smartcontracts/contracts/Crowdsale.sol",
  "schemaVersion": "1.0.0",
  "updatedAt": "2017-10-21T11:47:49.688Z"
}