{
  "contractName": "Crowdsale",
  "abi": [
    {
      "constant": false,
      "inputs": [
        {
          "name": "_accessManager",
          "type": "address"
        }
      ],
      "name": "updateAccessManager",
      "outputs": [],
      "payable": false,
      "stateMutability": "nonpayable",
      "type": "function"
    },
    {
      "constant": true,
      "inputs": [],
      "name": "getHasWinnerGroup",
      "outputs": [
        {
          "name": "",
          "type": "bool"
        }
      ],
      "payable": false,
      "stateMutability": "view",
      "type": "function"
    },
    {
      "constant": true,
      "inputs": [],
      "name": "crowdsaleaddr",
      "outputs": [
        {
          "name": "",
          "type": "address"
        }
      ],
      "payable": false,
      "stateMutability": "view",
      "type": "function"
    },
    {
      "constant": true,
      "inputs": [],
      "name": "paidAmount",
      "outputs": [
        {
          "name": "",
          "type": "uint256"
        }
      ],
      "payable": false,
      "stateMutability": "view",
      "type": "function"
    },
    {
      "constant": true,
      "inputs": [
        {
          "name": "bidderId",
          "type": "bytes32"
        }
      ],
      "name": "findBidder",
      "outputs": [
        {
          "name": "err",
          "type": "uint8"
        },
        {
          "name": "groupIndex",
          "type": "uint256"
        },
        {
          "name": "bidderIndex",
          "type": "uint256"
        }
      ],
      "payable": false,
      "stateMutability": "view",
      "type": "function"
    },
    {
      "constant": false,
      "inputs": [
        {
          "name": "groupIndex",
          "type": "uint256"
        },
        {
          "name": "bidderIndex",
          "type": "uint256"
        }
      ],
      "name": "setBidderHasReceivedTokensBack",
      "outputs": [],
      "payable": false,
      "stateMutability": "nonpayable",
      "type": "function"
    },
    {
      "constant": true,
      "inputs": [],
      "name": "status",
      "outputs": [
        {
          "name": "",
          "type": "uint8"
        }
      ],
      "payable": false,
      "stateMutability": "view",
      "type": "function"
    },
    {
      "constant": true,
      "inputs": [],
      "name": "invoiceNumber",
      "outputs": [
        {
          "name": "",
          "type": "string"
        }
      ],
      "payable": false,
      "stateMutability": "view",
      "type": "function"
    },
    {
      "constant": true,
      "inputs": [],
      "name": "deadline",
      "outputs": [
        {
          "name": "",
          "type": "uint256"
        }
      ],
      "payable": false,
      "stateMutability": "view",
      "type": "function"
    },
    {
      "constant": false,
      "inputs": [],
      "name": "checkDeadline",
      "outputs": [
        {
          "name": "",
          "type": "bool"
        }
      ],
      "payable": false,
      "stateMutability": "nonpayable",
      "type": "function"
    },
    {
      "constant": true,
      "inputs": [],
      "name": "getStatus",
      "outputs": [
        {
          "name": "",
          "type": "uint8"
        }
      ],
      "payable": false,
      "stateMutability": "view",
      "type": "function"
    },
    {
      "constant": true,
      "inputs": [],
      "name": "sentToLosingGroups",
      "outputs": [
        {
          "name": "",
          "type": "bool"
        }
      ],
      "payable": false,
      "stateMutability": "view",
      "type": "function"
    },
    {
      "constant": true,
      "inputs": [],
      "name": "winnerGroupIndex",
      "outputs": [
        {
          "name": "",
          "type": "uint256"
        }
      ],
      "payable": false,
      "stateMutability": "view",
      "type": "function"
    },
    {
      "constant": true,
      "inputs": [],
      "name": "sentToWinnerGroup",
      "outputs": [
        {
          "name": "",
          "type": "bool"
        }
      ],
      "payable": false,
      "stateMutability": "view",
      "type": "function"
    },
    {
      "constant": true,
      "inputs": [],
      "name": "getPaidAmount",
      "outputs": [
        {
          "name": "",
          "type": "uint256"
        }
      ],
      "payable": false,
      "stateMutability": "view",
      "type": "function"
    },
    {
      "constant": true,
      "inputs": [],
      "name": "borrowerId",
      "outputs": [
        {
          "name": "",
          "type": "bytes32"
        }
      ],
      "payable": false,
      "stateMutability": "view",
      "type": "function"
    },
    {
      "constant": true,
      "inputs": [],
      "name": "invoiceId",
      "outputs": [
        {
          "name": "",
          "type": "bytes32"
        }
      ],
      "payable": false,
      "stateMutability": "view",
      "type": "function"
    },
    {
      "constant": true,
      "inputs": [],
      "name": "invoiceAmount",
      "outputs": [
        {
          "name": "",
          "type": "uint256"
        }
      ],
      "payable": false,
      "stateMutability": "view",
      "type": "function"
    },
    {
      "constant": true,
      "inputs": [],
      "name": "fundingGoal",
      "outputs": [
        {
          "name": "",
          "type": "uint256"
        }
      ],
      "payable": false,
      "stateMutability": "view",
      "type": "function"
    },
    {
      "constant": true,
      "inputs": [],
      "name": "sentToBeneficiary",
      "outputs": [
        {
          "name": "",
          "type": "bool"
        }
      ],
      "payable": false,
      "stateMutability": "view",
      "type": "function"
    },
    {
      "constant": true,
      "inputs": [],
      "name": "getClosedNoBids",
      "outputs": [
        {
          "name": "",
          "type": "bool"
        }
      ],
      "payable": false,
      "stateMutability": "view",
      "type": "function"
    },
    {
      "constant": false,
      "inputs": [
        {
          "name": "_paidAmount",
          "type": "uint256"
        }
      ],
      "name": "setPaidAmount",
      "outputs": [],
      "payable": false,
      "stateMutability": "nonpayable",
      "type": "function"
    },
    {
      "constant": true,
      "inputs": [
        {
          "name": "groupIndex",
          "type": "uint256"
        },
        {
          "name": "bidderId",
          "type": "bytes32"
        }
      ],
      "name": "findBidder",
      "outputs": [
        {
          "name": "err",
          "type": "uint8"
        },
        {
          "name": "bidderIndex",
          "type": "uint256"
        }
      ],
      "payable": false,
      "stateMutability": "view",
      "type": "function"
    },
    {
      "constant": false,
      "inputs": [],
      "name": "setSentToBeneficiary",
      "outputs": [],
      "payable": false,
      "stateMutability": "nonpayable",
      "type": "function"
    },
    {
      "constant": true,
      "inputs": [],
      "name": "signedDocumentIPFSHash",
      "outputs": [
        {
          "name": "",
          "type": "string"
        }
      ],
      "payable": false,
      "stateMutability": "view",
      "type": "function"
    },
    {
      "constant": true,
      "inputs": [
        {
          "name": "",
          "type": "uint256"
        }
      ],
      "name": "groups",
      "outputs": [
        {
          "name": "groupIndex",
          "type": "uint256"
        },
        {
          "name": "name",
          "type": "string"
        },
        {
          "name": "goal",
          "type": "uint256"
        },
        {
          "name": "amountRaised",
          "type": "uint256"
        },
        {
          "name": "biddersReceivedTokensBack",
          "type": "uint256"
        },
        {
          "name": "hasReceivedTokensBack",
          "type": "bool"
        }
      ],
      "payable": false,
      "stateMutability": "view",
      "type": "function"
    },
    {
      "constant": true,
      "inputs": [],
      "name": "currencySymbol",
      "outputs": [
        {
          "name": "",
          "type": "bytes32"
        }
      ],
      "payable": false,
      "stateMutability": "view",
      "type": "function"
    },
    {
      "constant": false,
      "inputs": [],
      "name": "closeCrowdsale",
      "outputs": [
        {
          "name": "success",
          "type": "bool"
        }
      ],
      "payable": false,
      "stateMutability": "nonpayable",
      "type": "function"
    },
    {
      "constant": false,
      "inputs": [
        {
          "name": "groupIndex",
          "type": "uint256"
        }
      ],
      "name": "borrowerChooseWinner",
      "outputs": [],
      "payable": false,
      "stateMutability": "nonpayable",
      "type": "function"
    },
    {
      "constant": true,
      "inputs": [],
      "name": "deadlineReached",
      "outputs": [
        {
          "name": "",
          "type": "bool"
        }
      ],
      "payable": false,
      "stateMutability": "view",
      "type": "function"
    },
    {
      "constant": true,
      "inputs": [],
      "name": "getWinnerGroupIndex",
      "outputs": [
        {
          "name": "",
          "type": "uint256"
        }
      ],
      "payable": false,
      "stateMutability": "view",
      "type": "function"
    },
    {
      "constant": false,
      "inputs": [],
      "name": "waitingForPayment",
      "outputs": [
        {
          "name": "",
          "type": "bool"
        }
      ],
      "payable": false,
      "stateMutability": "nonpayable",
      "type": "function"
    },
    {
      "constant": true,
      "inputs": [],
      "name": "closedWithNoBids",
      "outputs": [
        {
          "name": "",
          "type": "bool"
        }
      ],
      "payable": false,
      "stateMutability": "view",
      "type": "function"
    },
    {
      "constant": false,
      "inputs": [
        {
          "name": "groupName",
          "type": "string"
        },
        {
          "name": "goal",
          "type": "uint256"
        },
        {
          "name": "bidderId",
          "type": "bytes32"
        },
        {
          "name": "name",
          "type": "string"
        },
        {
          "name": "value",
          "type": "uint256"
        }
      ],
      "name": "initialBid",
      "outputs": [
        {
          "name": "err",
          "type": "uint8"
        },
        {
          "name": "finalValue",
          "type": "uint256"
        },
        {
          "name": "groupGoal",
          "type": "uint256"
        },
        {
          "name": "goalReached",
          "type": "bool"
        }
      ],
      "payable": false,
      "stateMutability": "nonpayable",
      "type": "function"
    },
    {
      "constant": true,
      "inputs": [],
      "name": "getGroupsCount",
      "outputs": [
        {
          "name": "",
          "type": "uint256"
        }
      ],
      "payable": false,
      "stateMutability": "view",
      "type": "function"
    },
    {
      "constant": true,
      "inputs": [
        {
          "name": "groupIndex",
          "type": "uint256"
        }
      ],
      "name": "getGroup",
      "outputs": [
        {
          "name": "name",
          "type": "string"
        },
        {
          "name": "goal",
          "type": "uint256"
        },
        {
          "name": "biddersCount",
          "type": "uint256"
        },
        {
          "name": "amountRaised",
          "type": "uint256"
        },
        {
          "name": "hasReceivedTokensBack",
          "type": "bool"
        }
      ],
      "payable": false,
      "stateMutability": "view",
      "type": "function"
    },
    {
      "constant": true,
      "inputs": [],
      "name": "checkNoBids",
      "outputs": [
        {
          "name": "",
          "type": "bool"
        }
      ],
      "payable": false,
      "stateMutability": "view",
      "type": "function"
    },
    {
      "constant": true,
      "inputs": [],
      "name": "getDeadlineReached",
      "outputs": [
        {
          "name": "",
          "type": "bool"
        }
      ],
      "payable": false,
      "stateMutability": "view",
      "type": "function"
    },
    {
      "constant": true,
      "inputs": [
        {
          "name": "groupIndex",
          "type": "uint256"
        },
        {
          "name": "bidderIndex",
          "type": "uint256"
        }
      ],
      "name": "getGroupBidder",
      "outputs": [
        {
          "name": "bidderId",
          "type": "bytes32"
        },
        {
          "name": "name",
          "type": "string"
        },
        {
          "name": "bidAmount",
          "type": "uint256"
        },
        {
          "name": "hasReceivedTokensBack",
          "type": "bool"
        }
      ],
      "payable": false,
      "stateMutability": "view",
      "type": "function"
    },
    {
      "constant": true,
      "inputs": [
        {
          "name": "bidderId",
          "type": "bytes32"
        }
      ],
      "name": "bidderHasTokensBack",
      "outputs": [
        {
          "name": "received",
          "type": "bool"
        }
      ],
      "payable": false,
      "stateMutability": "view",
      "type": "function"
    },
    {
      "constant": true,
      "inputs": [],
      "name": "hasWinnerGroup",
      "outputs": [
        {
          "name": "",
          "type": "bool"
        }
      ],
      "payable": false,
      "stateMutability": "view",
      "type": "function"
    },
    {
      "constant": true,
      "inputs": [],
      "name": "platformTaxPercent",
      "outputs": [
        {
          "name": "",
          "type": "uint256"
        }
      ],
      "payable": false,
      "stateMutability": "view",
      "type": "function"
    },
    {
      "constant": false,
      "inputs": [
        {
          "name": "groupIndex",
          "type": "uint256"
        },
        {
          "name": "bidderId",
          "type": "bytes32"
        },
        {
          "name": "name",
          "type": "string"
        },
        {
          "name": "value",
          "type": "uint256"
        }
      ],
      "name": "bid",
      "outputs": [
        {
          "name": "err",
          "type": "uint8"
        },
        {
          "name": "finalValue",
          "type": "uint256"
        },
        {
          "name": "groupGoal",
          "type": "uint256"
        },
        {
          "name": "goalReached",
          "type": "bool"
        }
      ],
      "payable": false,
      "stateMutability": "nonpayable",
      "type": "function"
    },
    {
      "constant": true,
      "inputs": [],
      "name": "getAmountForBeneficiary",
      "outputs": [
        {
          "name": "err",
          "type": "uint8"
        },
        {
          "name": "amount",
          "type": "uint256"
        }
      ],
      "payable": false,
      "stateMutability": "view",
      "type": "function"
    },
    {
      "constant": true,
      "inputs": [],
      "name": "AM",
      "outputs": [
        {
          "name": "",
          "type": "address"
        }
      ],
      "payable": false,
      "stateMutability": "view",
      "type": "function"
    },
    {
      "constant": true,
      "inputs": [],
      "name": "groupsReceivedTokensBack",
      "outputs": [
        {
          "name": "",
          "type": "uint256"
        }
      ],
      "payable": false,
      "stateMutability": "view",
      "type": "function"
    },
    {
      "inputs": [
        {
          "name": "_accessManager",
          "type": "address"
        },
        {
          "name": "_currencySymbol",
          "type": "bytes32"
        },
        {
          "name": "_borrowerId",
          "type": "bytes32"
        },
        {
          "name": "_invoiceId",
          "type": "bytes32"
        },
        {
          "name": "_invoiceNumber",
          "type": "string"
        },
        {
          "name": "_invoiceAmount",
          "type": "uint256"
        },
        {
          "name": "_fundingGoal",
          "type": "uint256"
        },
        {
          "name": "_platformTaxPercent",
          "type": "uint256"
        },
        {
          "name": "_signedDocumentIPFSHash",
          "type": "string"
        },
        {
          "name": "_extraTime",
          "type": "uint256"
        }
      ],
      "payable": false,
      "stateMutability": "nonpayable",
      "type": "constructor"
    },
    {
      "anonymous": false,
      "inputs": [
        {
          "indexed": false,
          "name": "crowdsaleAddr",
          "type": "address"
        },
        {
          "indexed": false,
          "name": "groupIndex",
          "type": "uint256"
        },
        {
          "indexed": false,
          "name": "name",
          "type": "string"
        },
        {
          "indexed": false,
          "name": "goal",
          "type": "uint256"
        }
      ],
      "name": "EventGroupCreated",
      "type": "event"
    },
    {
      "anonymous": false,
      "inputs": [
        {
          "indexed": false,
          "name": "crowdsaleAddr",
          "type": "address"
        },
        {
          "indexed": false,
          "name": "groupIndex",
          "type": "uint256"
        },
        {
          "indexed": false,
          "name": "_name",
          "type": "string"
        },
        {
          "indexed": false,
          "name": "goal",
          "type": "uint256"
        }
      ],
      "name": "EventGroupGoalReached",
      "type": "event"
    },
    {
      "anonymous": false,
      "inputs": [
        {
          "indexed": false,
          "name": "crowdsaleAddr",
          "type": "address"
        },
        {
          "indexed": false,
          "name": "groupIndex",
          "type": "uint256"
        },
        {
          "indexed": false,
          "name": "bidderId",
          "type": "bytes32"
        },
        {
          "indexed": false,
          "name": "name",
          "type": "string"
        },
        {
          "indexed": false,
          "name": "value",
          "type": "uint256"
        }
      ],
      "name": "EventNewBid",
      "type": "event"
    },
    {
      "anonymous": false,
      "inputs": [
        {
          "indexed": false,
          "name": "crowdsaleAddr",
          "type": "address"
        }
      ],
      "name": "EventCrowdsaleOpen",
      "type": "event"
    },
    {
      "anonymous": false,
      "inputs": [
        {
          "indexed": false,
          "name": "crowdsaleAddr",
          "type": "address"
        },
        {
          "indexed": false,
          "name": "reasonCode",
          "type": "uint8"
        }
      ],
      "name": "EventCrowdsaleClosed",
      "type": "event"
    },
    {
      "anonymous": false,
      "inputs": [
        {
          "indexed": false,
          "name": "crowdsaleAddr",
          "type": "address"
        }
      ],
      "name": "EventCrowdsaleWaiting",
      "type": "event"
    },
    {
      "anonymous": false,
      "inputs": [
        {
          "indexed": false,
          "name": "crowdsaleAddr",
          "type": "address"
        },
        {
          "indexed": false,
          "name": "paidAmount",
          "type": "uint256"
        }
      ],
      "name": "EventPaymentReceived",
      "type": "event"
    },
    {
      "anonymous": false,
      "inputs": [
        {
          "indexed": false,
          "name": "crowdsaleAddr",
          "type": "address"
        }
      ],
      "name": "EventCrowdsaleCompleted",
      "type": "event"
    },
    {
      "anonymous": false,
      "inputs": [
        {
          "indexed": false,
          "name": "crowdsaleAddr",
          "type": "address"
        }
      ],
      "name": "EventGroupCreationFailed",
      "type": "event"
    }
  ],
  "bytecode": "0x6060604052600c8054600160a060020a03191630600160a060020a031617905534156200002b57600080fd5b60405162002bc138038062002bc1833981016040528080519190602001805191906020018051919060200180519190602001805182019190602001805191906020018051919060200180519190602001805182019190602001805160008054600160a060020a031916600160a060020a038e1617905560018b905560048a90556002899055915060039050868051620000c992916020019062000136565b506005859055600684905560088390556009828051620000ee92916020019062000136565b5042603c9190910201620151800160075550506000805460a060020a60ff0219167401000000000000000000000000000000000000000017905550620001db95505050505050565b828054600181600116156101000203166002900490600052602060002090601f016020900481019282601f106200017957805160ff1916838001178555620001a9565b82800160010185558215620001a9579182015b82811115620001a95782518255916020019190600101906200018c565b50620001b7929150620001bb565b5090565b620001d891905b80821115620001b75760008155600101620001c2565b90565b6129d680620001eb6000396000f300606060405236156102145763ffffffff60e060020a60003504166302ab72c481146102195780630cd87cff1461023a57806312b17ade1461026157806312fa769f1461029057806315b20454146102b557806319a0e16d146102f5578063200d2ed21461030e578063246684731461034557806329dcb0cf146103cf57806343bf9936146103e25780634e69d560146103f557806355d97ba81461041e5780635cfa4d60146104315780635e054efb146104445780636a20a8a1146104575780636fbefedf1461046a57806370c862861461047d5780637478901d146104905780637a3a0e84146104a35780637b69c9ae146104b6578063816d5145146104c957806385d8ed7d146104dc5780638688b4df146104f25780638942e19d146105275780638a8f5af71461053a57806396324bd41461054d578063968c420914610613578063983c0a0114610626578063a203886e14610639578063a29b8b911461064f578063a4d8a8da14610662578063a7b80b6c14610675578063ae22824a14610688578063b503d8291461069b578063b84afbb414610769578063ceb606541461077c578063cfece8ef1461082a578063dcb190e31461083d578063dee50b2414610850578063e1c25467146108f8578063ec0a99741461090e578063efd3bc0c14610921578063f29c2e8b14610934578063f52eb38514610992578063f7f01b4b146109a5578063f9784601146109b8575b600080fd5b341561022457600080fd5b610238600160a060020a03600435166109cb565b005b341561024557600080fd5b61024d610a7e565b604051901515815260200160405180910390f35b341561026c57600080fd5b610274610a88565b604051600160a060020a03909116815260200160405180910390f35b341561029b57600080fd5b6102a3610a97565b60405190815260200160405180910390f35b34156102c057600080fd5b6102cb600435610a9d565b604051808460ff1660ff168152602001838152602001828152602001935050505060405180910390f35b341561030057600080fd5b610238600435602435610b2e565b341561031957600080fd5b610321610d26565b6040518082600581111561033157fe5b60ff16815260200191505060405180910390f35b341561035057600080fd5b610358610d36565b60405160208082528190810183818151815260200191508051906020019080838360005b8381101561039457808201518382015260200161037c565b50505050905090810190601f1680156103c15780820380516001836020036101000a031916815260200191505b509250505060405180910390f35b34156103da57600080fd5b6102a3610dd4565b34156103ed57600080fd5b61024d610dda565b341561040057600080fd5b610408610e7e565b60405160ff909116815260200160405180910390f35b341561042957600080fd5b61024d610e9c565b341561043c57600080fd5b6102a3610eaa565b341561044f57600080fd5b61024d610eb0565b341561046257600080fd5b6102a3610ebf565b341561047557600080fd5b6102a3610ec5565b341561048857600080fd5b6102a3610ecb565b341561049b57600080fd5b6102a3610ed1565b34156104ae57600080fd5b6102a3610ed7565b34156104c157600080fd5b61024d610edd565b34156104d457600080fd5b61024d610ee6565b34156104e757600080fd5b610238600435610ef4565b34156104fd57600080fd5b61050b600435602435611018565b60405160ff909216825260208201526040908101905180910390f35b341561053257600080fd5b6102386110aa565b341561054557600080fd5b610358611163565b341561055857600080fd5b6105636004356111ce565b60405186815260408101859052606081018490526080810183905281151560a082015260c0602082018181528754600260001961010060018416150201909116049183018290529060e0830190889080156105ff5780601f106105d4576101008083540402835291602001916105ff565b820191906000526020600020905b8154815290600101906020018083116105e257829003601f168201915b505097505050505050505060405180910390f35b341561061e57600080fd5b6102a3611216565b341561063157600080fd5b61024d61121c565b341561064457600080fd5b61023860043561132b565b341561065a57600080fd5b61024d611477565b341561066d57600080fd5b6102a3611486565b341561068057600080fd5b61024d61148c565b341561069357600080fd5b61024d611516565b34156106a657600080fd5b61073960046024813581810190830135806020601f8201819004810201604051908101604052818152929190602084018383808284375094968635966020808201359750919550606081019450604090810135860180830194503592508291601f830181900481020190519081016040528181529291906020840183838082843750949650509335935061152492505050565b60405160ff9094168452602084019290925260408084019190915290151560608301526080909101905180910390f35b341561077457600080fd5b6102a361163e565b341561078757600080fd5b610792600435611644565b604051808060200186815260200185815260200184815260200183151515158152602001828103825287818151815260200191508051906020019080838360005b838110156107eb5780820151838201526020016107d3565b50505050905090810190601f1680156108185780820380516001836020036101000a031916815260200191505b50965050505050505060405180910390f35b341561083557600080fd5b61024d6118d1565b341561084857600080fd5b61024d6118e5565b341561085b57600080fd5b6108696004356024356118f4565b60405184815260408101839052811515606082015260806020820181815290820185818151815260200191508051906020019080838360005b838110156108ba5780820151838201526020016108a2565b50505050905090810190601f1680156108e75780820380516001836020036101000a031916815260200191505b509550505050505060405180910390f35b341561090357600080fd5b61024d600435611a5b565b341561091957600080fd5b61024d611abb565b341561092c57600080fd5b6102a3611ac4565b341561093f57600080fd5b610739600480359060248035919060649060443590810190830135806020601f820181900481020160405190810160405281815292919060208401838380828437509496505093359350611aca92505050565b341561099d57600080fd5b61050b6121ca565b34156109b057600080fd5b610274612239565b34156109c357600080fd5b6102a3612248565b60008054600160a060020a031690630c68ba219033906040516020015260405160e060020a63ffffffff8416028152600160a060020a039091166004820152602401602060405180830381600087803b1515610a2657600080fd5b6102c65a03f11515610a3757600080fd5b505050604051805115156001149050610a4f57600080fd5b6000805473ffffffffffffffffffffffffffffffffffffffff1916600160a060020a0392909216919091179055565b600f5460ff165b90565b600c54600160a060020a031681565b60105481565b6000818152600b602052604081206001810154815460029092015460ff161515610ad05750600191506000905080610b27565b610b18600a83815481101515610ae257fe5b906000526020600020906007020160030182815481101515610b0057fe5b9060005260206000209060060201600101548561224e565b151560011415610b2757600092505b9193909250565b60008054600160a060020a0316906305fd22d09033906040516020015260405160e060020a63ffffffff8416028152600160a060020a039091166004820152602401602060405180830381600087803b1515610b8957600080fd5b6102c65a03f11515610b9a57600080fd5b505050604051805115156001149050610bb257600080fd5b6001600a83815481101515610bc357fe5b906000526020600020906007020160030182815481101515610be157fe5b60009182526020909120600690910201600501805460ff1916911515919091179055600a805483908110610c1157fe5b6000918252602090912060056007909202010180546001019055600a805483908110610c3957fe5b6000918252602090912060036007909202010154600a805484908110610c5b57fe5b9060005260206000209060070201600501541415610d22576001600a83815481101515610c8457fe5b60009182526020909120600790910201600601805460ff1916911515919091179055600d80546001908101909155600a541415610ce857600f5460ff1615610cdb57610cce612323565b610cd661234c565b610ce3565b610ce3612323565b610d22565b600d54600a54600019011415610d0057610ce3612323565b600d54600a54148015610d155750600f5460ff165b15610d2257610d2261234c565b5050565b60005460a060020a900460ff1681565b60038054600181600116156101000203166002900480601f016020809104026020016040519081016040528092919081815260200182805460018160011615610100020316600290048015610dcc5780601f10610da157610100808354040283529160200191610dcc565b820191906000526020600020905b815481529060010190602001808311610daf57829003601f168201915b505050505081565b60075481565b6000600754421115610e7857600160005460a060020a900460ff166005811115610e0057fe5b1415610e5f576000805460a060020a60ff02191660a160020a179055600c5460008051602061298b83398151915290600160a060020a03166001604051600160a060020a03909216825260ff1660208201526040908101905180910390a15b50600f805462ff00001916620100001790556001610a85565b50600090565b6000805460a060020a900460ff166005811115610e9757fe5b905090565b601154610100900460ff1681565b600e5481565b60115462010000900460ff1681565b60105490565b60045481565b60025481565b60055481565b60065481565b60115460ff1681565b600f54610100900460ff1690565b60008054600160a060020a0316906305fd22d09033906040516020015260405160e060020a63ffffffff8416028152600160a060020a039091166004820152602401602060405180830381600087803b1515610f4f57600080fd5b6102c65a03f11515610f6057600080fd5b505050604051805115156001149050610f7857600080fd5b600360005460a060020a900460ff166005811115610f9257fe5b14156110155760108190556000805460a060020a60ff02191674040000000000000000000000000000000000000000179055600c547f1d1d4459ddc6d370913114af16a65f5427c30a4bf34c206c0ac7aa5d1ccebcc890600160a060020a031682604051600160a060020a03909216825260208201526040908101905180910390a15b50565b6000818152600b60205260408120600181015481546002909201549194509060ff16151561104c57506001905060006110a3565b611094600a8581548110151561105e57fe5b90600052602060002090600702016003018281548110151561107c57fe5b9060005260206000209060060201600101548461224e565b1515600114156110a357600091505b9250929050565b60008054600160a060020a0316906305fd22d09033906040516020015260405160e060020a63ffffffff8416028152600160a060020a039091166004820152602401602060405180830381600087803b151561110557600080fd5b6102c65a03f1151561111657600080fd5b50505060405180511515600114905061112e57600080fd5b6111366118d1565b1561114057600080fd5b6011805460ff19166001908117909155600a54141561116157611161612323565b565b60098054600181600116156101000203166002900480601f016020809104026020016040519081016040528092919081815260200182805460018160011615610100020316600290048015610dcc5780601f10610da157610100808354040283529160200191610dcc565b600a8054829081106111dc57fe5b6000918252602090912060079091020180546002820154600483015460058401546006850154939550600190940193919290919060ff1686565b60015481565b60008054600160a060020a031663fda0895833836040516020015260405160e060020a63ffffffff8416028152600160a060020a039091166004820152602401602060405180830381600087803b151561127557600080fd5b6102c65a03f1151561128657600080fd5b50505060405180511515600114905061129e57600080fd5b600160005460a060020a900460ff1660058111156112b857fe5b1480156112c6575060075442105b15610e78576000805460a060020a60ff02191660a160020a179055600c5460008051602061298b83398151915290600160a060020a03166003604051600160a060020a03909216825260ff1660208201526040908101905180910390a1506001610a85565b600160005460a060020a900460ff16600581111561134557fe5b14156110155760008054600160a060020a03169063fda089589033906040516020015260405160e060020a63ffffffff8416028152600160a060020a039091166004820152602401602060405180830381600087803b15156113a657600080fd5b6102c65a03f115156113b757600080fd5b5050506040518051151560011490506113cf57600080fd5b6113d76118d1565b156113e157600080fd5b6000600a828154811015156113f257fe5b906000526020600020906007020160040154111561101557600e819055600f805460ff191660011790556000805460a060020a60ff02191660a160020a179055600c5460008051602061298b83398151915290600160a060020a03166002604051600160a060020a03909216825260ff1660208201526040908101905180910390a150565b600f5462010000900460ff1681565b600e5490565b60008054600160a060020a031663fda0895833836040516020015260405160e060020a63ffffffff8416028152600160a060020a039091166004820152602401602060405180830381600087803b15156114e557600080fd5b6102c65a03f115156114f657600080fd5b50505060405180511515600114905061150e57600080fd5b610e97612416565b600f54610100900460ff1681565b6000808080808080600160005460a060020a900460ff16600581111561154657fe5b141561162f5760008054600160a060020a0316906305fd22d09033906040516020015260405160e060020a63ffffffff8416028152600160a060020a039091166004820152602401602060405180830381600087803b15156115a757600080fd5b6102c65a03f115156115b857600080fd5b5050506040518051151560011490506115d057600080fd5b6115d98a610a9d565b91945092509050600160ff8416141561161a576115f68c8c6124d7565b9097509150600160ff8816141561161a57600196506000955085945084935061162f565b611626828b8b8b611aca565b96509650965096505b50505095509550955095915050565b600a5490565b61164c61270c565b60008060008061165a61271e565b600a80548890811061166857fe5b906000526020600020906007020160e0604051908101604052908160008201548152602001600182018054600181600116156101000203166002900480601f0160208091040260200160405190810160405280929190818152602001828054600181600116156101000203166002900480156117255780601f106116fa57610100808354040283529160200191611725565b820191906000526020600020905b81548152906001019060200180831161170857829003601f168201915b50505050508152602001600282015481526020016003820180548060200260200160405190810160405281815291906000602084015b8282101561187357600084815260209020600683020160c0604051908101604052908160008201548152602001600182015460001916600019168152602001600282018054600181600116156101000203166002900480601f0160208091040260200160405190810160405280929190818152602001828054600181600116156101000203166002900480156118325780601f1061180757610100808354040283529160200191611832565b820191906000526020600020905b81548152906001019060200180831161181557829003601f168201915b505050918352505060038201546020808301919091526004830154604083015260059092015460ff161515606090910152908252600192909201910161175b565b5050509082525060048201546020808301919091526005830154604083015260069092015460ff161515606090910152909150810151816040015182606001515183608001518460c00151939b929a50909850965090945092505050565b600a546000901515610e7857506001610a85565b600f5462010000900460ff1690565b60006118fe61270c565b60008061190961276a565b600a80548890811061191757fe5b90600052602060002090600702016003018681548110151561193557fe5b906000526020600020906006020160c0604051908101604052908160008201548152602001600182015460001916600019168152602001600282018054600181600116156101000203166002900480601f016020809104026020016040519081016040528092919081815260200182805460018160011615610100020316600290048015611a045780601f106119d957610100808354040283529160200191611a04565b820191906000526020600020905b8154815290600101906020018083116119e757829003601f168201915b505050918352505060038201546020808301919091526004830154604083015260059092015460ff161515606090910152909150810151816040015182606001518360a00151929a91995097509095509350505050565b6000806000806000806000611a6f88610a9d565b91975095509350611a8085856118f4565b9295509350909150611a949050888461224e565b8015611a9d5750805b15611aab5760019650611ab0565b600096505b505050505050919050565b600f5460ff1681565b60085481565b60008080808080600160005460a060020a900460ff166005811115611aeb57fe5b14156121bd5760008054600160a060020a0316906305fd22d09033906040516020015260405160e060020a63ffffffff8416028152600160a060020a039091166004820152602401602060405180830381600087803b1515611b4c57600080fd5b6102c65a03f11515611b5d57600080fd5b505050604051805115156001149050611b7557600080fd5b611b7d610dda565b151560011480611b8b575086155b80611bb55750600a80548b908110611b9f57fe5b9060005260206000209060070201600201546000145b15611bcd5760019550600094508493508392506121bd565b600a80548b908110611bdb57fe5b90600052602060002090600702016002015487600a8c815481101515611bfd57fe5b906000526020600020906007020160040154011115611c6357611c60600a8b815481101515611c2857fe5b906000526020600020906007020160020154600a8c815481101515611c4957fe5b9060005260206000209060070201600401546126d6565b96505b611c6d8a8a611018565b909250905060ff82161515611d4d57611cc4600a8b815481101515611c8e57fe5b906000526020600020906007020160030182815481101515611cac57fe5b906000526020600020906006020160030154886126e8565b600a80548c908110611cd257fe5b906000526020600020906007020160030182815481101515611cf057fe5b90600052602060002090600602016003018190555042600a8b815481101515611d1557fe5b906000526020600020906007020160030182815481101515611d3357fe5b906000526020600020906006020160040181905550611ea1565b600a80548b908110611d5b57fe5b90600052602060002090600702016003018054806001018281611d7e919061278b565b9160005260206000209060060201600060c060405190810160405280600a8f815481101515611da957fe5b6000918252602080832060036007909302019190910154835282018f9052604082018e9052606082018d905242608083015260a0909101529190508151815560208201516001820155604082015181600201908051611e0c9291602001906127bc565b50606082015181600301556080820151816004015560a0820151600591909101805460ff191691151591909117905550506000898152600b602052604090208a9055600a8054600191908c908110611e6057fe5b60009182526020808320600360079093020191909101548c8352600b90915260409091209190036001808301919091556002909101805460ff191690911790555b611ecb600a8b815481101515611eb357fe5b906000526020600020906007020160040154886126e8565b600a80548c908110611ed957fe5b6000918252602090912060046007909202010155600c547f020d565aeac279337d0f8cb762f74b62928f0ea6d0828d86a4ea97870bdf094790600160a060020a03168b8b8b8b604051600160a060020a038616815260208101859052604081018490526080810182905260a06060820181815290820184818151815260200191508051906020019080838360005b83811015611f7f578082015183820152602001611f67565b50505050905090810190601f168015611fac5780820380516001836020036101000a031916815260200191505b50965050505050505060405180910390a1600a80548b908110611fcb57fe5b906000526020600020906007020160020154600a8b815481101515611fec57fe5b6000918252602090912060046007909202010154149250600183141561218f57600e8a9055600f805460ff191660011790556000805460a060020a60ff02191660a160020a179055600c54600a80547f20c9276d9b5ff79d5c6efaa133058d2a43e37892b685a83069b0231c874e2b9092600160a060020a0316918d918290811061207357fe5b9060005260206000209060070201600101600a8e81548110151561209357fe5b906000526020600020906007020160020154604051600160a060020a038516815260208101849052606081018290526080604082018181528454600260001961010060018416150201909116049183018290529060a08301908590801561213b5780601f106121105761010080835404028352916020019161213b565b820191906000526020600020905b81548152906001019060200180831161211e57829003601f168201915b50509550505050505060405180910390a1600c5460008051602061298b83398151915290600160a060020a03166000604051600160a060020a03909216825260ff1660208201526040908101905180910390a15b600087600a8c8154811015156121a157fe5b6000918252602090912060026007909202010154919750955093505b5050945094509450949050565b600080600260005460a060020a900460ff1660058111156121e757fe5b1480156121f7575060115460ff16155b1561222d576000600a600e5481548110151561220f57fe5b90600052602060002090600702016004015481915091509150612235565b506001905060005b9091565b600054600160a060020a031681565b600d5481565b6000805b60208110156123175782816020811061226757fe5b1a7f0100000000000000000000000000000000000000000000000000000000000000027effffffffffffffffffffffffffffffffffffffffffffffffffffffffffffff191684826020811015156122ba57fe5b1a7f0100000000000000000000000000000000000000000000000000000000000000027effffffffffffffffffffffffffffffffffffffffffffffffffffffffffffff191614151561230f576000915061231c565b600101612252565b600191505b5092915050565b61232b6118d1565b1561233557600080fd5b6011805461ff001916610100179055611015612416565b6123546118d1565b1561235e57600080fd5b6011805462ff00001916620100001790556000805460a060020a60ff02191674050000000000000000000000000000000000000000179055600e54600a80546001929081106123a957fe5b60009182526020909120600790910201600601805460ff1916911515919091179055600c547f3bc1b8146e0b1b7a51adc8ede62e3c9cf811151417ee6a8909363897085d64ca90600160a060020a0316604051600160a060020a03909116815260200160405180910390a1565b6000600260005460a060020a900460ff16600581111561243257fe5b148015612446575060115460ff1615156001145b801561245f575060115460ff6101009091041615156001145b15610a85576000805460a060020a60ff02191674030000000000000000000000000000000000000000179055600c547fa9fdf9096b8c0373371fa52baeb8e1baecf8721251574911d9437d9c99c8a02090600160a060020a0316604051600160a060020a03909116815260200160405180910390a190565b600080600160005460a060020a900460ff1660058111156124f457fe5b14156110a357612502610dda565b15801561251157506006548310155b801561251f57506005548311155b1561268157600a805490612536906001830161283a565b905080600a8281548110151561254857fe5b6000918252602090912060079091020155600a80548591908390811061256a57fe5b906000526020600020906007020160010190805161258c9291602001906127bc565b5082600a8281548110151561259d57fe5b6000918252602090912060026007909202010155600c547f8fdc17bb3cd8cd793130123a1c9a98519b3b28fa44541199a38d18657d838f4b90600160a060020a0316828686604051600160a060020a0385168152602081018490526060810182905260806040820181815290820184818151815260200191508051906020019080838360005b8381101561263b578082015183820152602001612623565b50505050905090810190601f1680156126685780820380516001836020036101000a031916815260200191505b509550505050505060405180910390a1600091506110a3565b600c547f764103a1698975093d86c78464d483e3b327f438ddb3ff75224132d871f8abd490600160a060020a0316604051600160a060020a03909116815260200160405180910390a1506001905060006110a3565b6000828211156126e257fe5b50900390565b60008282018381108015906126fd5750828110155b151561270557fe5b9392505050565b60206040519081016040526000815290565b60e0604051908101604052806000815260200161273961270c565b81526020016000815260200161274d61270c565b815260200160008152602001600081526020016000151581525090565b60c0604051908101604090815260008083526020830152810161274d61270c565b8154818355818115116127b7576006028160060283600052602060002091820191016127b79190612866565b505050565b828054600181600116156101000203166002900490600052602060002090601f016020900481019282601f106127fd57805160ff191683800117855561282a565b8280016001018555821561282a579182015b8281111561282a57825182559160200191906001019061280f565b506128369291506128b0565b5090565b8154818355818115116127b7576007028160070283600052602060002091820191016127b791906128ca565b610a8591905b808211156128365760008082556001820181905561288d6002830182612925565b50600060038201819055600482015560058101805460ff1916905560060161286c565b610a8591905b8082111561283657600081556001016128b6565b610a8591905b808211156128365760008082556128ea6001830182612925565b60028201600090556003820160006129029190612969565b50600060048201819055600582015560068101805460ff191690556007016128d0565b50805460018160011615610100020316600290046000825580601f1061294b5750611015565b601f01602090049060005260206000209081019061101591906128b0565b5080546000825560060290600052602060002090810190611015919061286656008b02276858c6e0fd7396421ae2db82efc389b1602bedb1ba520ee4e2241d06b7a165627a7a72305820c4ad3fe8f95ee054d78a0974231e9b21828db226a74ac882645804a14fa917590029",
  "source": "pragma solidity ^0.4.17;\n\nimport \"./SafeMath.sol\";\nimport \"./Utils.sol\";\nimport \"./withAccessManager.sol\";\n\n\n\n/// @title Crowdsale contract\ncontract Crowdsale is withAccessManager {\n\n    // EVENTS \n\n    event EventGroupCreated(address crowdsaleAddr, uint groupIndex, string name, uint goal);\n    event EventGroupGoalReached(address crowdsaleAddr, uint groupIndex, string _name, uint goal);\n    event EventNewBid(address crowdsaleAddr, uint groupIndex, bytes32 bidderId, string name, uint value);\n    event EventCrowdsaleOpen(address crowdsaleAddr);\n    event EventCrowdsaleClosed(address crowdsaleAddr, uint8 reasonCode);\n    event EventCrowdsaleWaiting(address crowdsaleAddr);\n    event EventPaymentReceived(address crowdsaleAddr, uint paidAmount);\n    event EventCrowdsaleCompleted(address crowdsaleAddr);\n    event EventGroupCreationFailed(address crowdsaleAddr);\n\n    // FIELDS \n\n    enum CrowdsaleCloseReasons { GroupGoalReached, DeadlineReached, BorrowerClosed, PopulousClosed }\n    enum States { Pending, Open, Closed, WaitingForInvoicePayment, PaymentReceived, Completed }\n\n    States public status;\n\n    bytes32 public currencySymbol;\n    bytes32 public invoiceId;\n    string public invoiceNumber;\n    bytes32 public borrowerId;\n    uint public invoiceAmount;\n    uint public fundingGoal;\n    uint public deadline;\n    uint public platformTaxPercent;\n\n    string public signedDocumentIPFSHash;\n\n    struct Bidder {\n        uint bidderIndex; // bidder index\n        bytes32 bidderId; // bidder id\n        string name; // bidder's name\n        uint bidAmount; // total bid amount\n        uint lastBidAt; // Timestamp of last bid\n        bool hasReceivedTokensBack; // This flag is set when losing group receives its tokens back or when winner group gets its winnings\n    }\n\n    struct Group {\n        uint groupIndex; // group index\n        string name; // group name\n        uint goal; // group goal\n        Bidder[] bidders; // group bidders\n        uint amountRaised; // amount raised by group\n        uint biddersReceivedTokensBack;\n        bool hasReceivedTokensBack; // This is set to true when the flag hasReceivedTokensBack is set to true for all bidders in the group\n    }\n\n    struct BidderInfo {\n        uint groupIndex;\n        uint bidderIndex;\n        bool inAGroup;\n    }\n\n    //Groups\n    Group[] public groups;\n\n    //bidderId => BidderInfo\n    mapping (bytes32 => BidderInfo) bidderGroupInfo;\n\n    address public crowdsaleaddr = address(this);\n\n    uint public groupsReceivedTokensBack;\n    uint public winnerGroupIndex;\n    bool public hasWinnerGroup;\n\n    bool public closedWithNoBids;\n    bool public deadlineReached;\n    uint public paidAmount;\n\n    bool public sentToBeneficiary;\n    bool public sentToLosingGroups;\n    bool public sentToWinnerGroup;\n\n    // MODIFIERS\n\n    modifier onlyOpenCrowdsale() { if (status == States.Open) { _; } }\n\n\n    // NON-CONSTANT METHODS\n\n\n    //Constructor\n    /** @dev Creates a new Crowdsale contract instance for an invoice crowdsale.\n      * @param _accessManager The address of an access manager contract instance.\n      * @param _currencySymbol The currency symbol, e.g., GBP.\n      * @param _borrowerId The unique borrower ID.\n      * @param _invoiceId The unique invoice ID.\n      * @param _invoiceNumber The unique invoice number.\n      * @param _invoiceAmount The invoice amount.\n      * @param _fundingGoal The funding goal of the borrower.\n      * @param _platformTaxPercent The percentage charged by the platform\n      * @param _signedDocumentIPFSHash The hash of related invoice documentation saved on IPFS.\n      */\n    function Crowdsale(\n            address _accessManager,\n            bytes32 _currencySymbol,\n            bytes32 _borrowerId,\n            bytes32 _invoiceId,\n            string _invoiceNumber,\n            uint _invoiceAmount,\n            uint _fundingGoal,\n            uint _platformTaxPercent,\n            string _signedDocumentIPFSHash,\n            uint _extraTime)\n            public\n            withAccessManager(_accessManager)\n    {\n        currencySymbol = _currencySymbol;\n        borrowerId = _borrowerId;\n        invoiceId = _invoiceId;\n        invoiceNumber = _invoiceNumber;\n        invoiceAmount = _invoiceAmount;\n        fundingGoal = _fundingGoal;\n        platformTaxPercent = _platformTaxPercent;\n        signedDocumentIPFSHash = _signedDocumentIPFSHash;\n        deadline = now + 24 hours + _extraTime * 1 minutes;\n        status = States.Open;\n    }\n\n\n    // to do - add method to check if crowdsale ended without hasWinnerGroup = true\n    // and group length => 1\n    // then refund members with new refund function\n    // findBidder\n\n    // check if crowdsale deadline has reached and if there were any bids\n    // if deadline reached change state to closed with reason being deadline\n    // reached and no bids\n    // return true or false if deadline reached and no bids\n    function checkNoBids() public view returns(bool) {\n        if (groups.length == 0) {\n            return true;\n        }\n        return false;\n    }\n\n    /** @dev closes an open crowdsale\n      * @dev onlyPopulous allowed, i.e., populous address has to be msg.sender\n      * @dev function has to be implemented in populous.sol to be msg.sender\n      * @return success This is a boolean true/false indicating if crowdsale is closed.\n      */\n    function closeCrowdsale() public onlyServer returns(bool success) {\n        if (status == States.Open && now < deadline) {\n            status = States.Closed;\n            EventCrowdsaleClosed(crowdsaleaddr, uint8(CrowdsaleCloseReasons.PopulousClosed));\n            return true;\n        }\n        return false;\n    }\n\n    /** @dev Checks whether the invoice crowdsale deadline has passed or not.\n      * @return bool A boolean value indicating whether the deadline has passed or not.\n      */\n    function checkDeadline() public returns(bool) {\n        if (now > deadline) {\n            if (status == States.Open) {\n                status = States.Closed;\n                EventCrowdsaleClosed(crowdsaleaddr, uint8(CrowdsaleCloseReasons.DeadlineReached));\n            }\n            deadlineReached = true;\n            return true;\n        }\n        return false;\n    }\n\n    /** @dev Sets the 'hasReceivedTokensBack' for a bidder denoting they have received token refund and is restricted to populous.\n      * @param groupIndex The group id in a set of groups.\n      * @param bidderIndex The bidder id in a set of bidders within a group.\n      */\n    function setBidderHasReceivedTokensBack(uint groupIndex, uint bidderIndex) \n        public\n        onlyPopulous \n    {\n        groups[groupIndex].bidders[bidderIndex].hasReceivedTokensBack = true;\n        groups[groupIndex].biddersReceivedTokensBack++;\n\n        if (groups[groupIndex].biddersReceivedTokensBack == groups[groupIndex].bidders.length) {\n            groups[groupIndex].hasReceivedTokensBack = true;\n            groupsReceivedTokensBack++;\n            // comparing number of groups to number of groups that have received tokens back\n            // check if groupIndex = winner group Index\n            // check if hasWinnerGroup\n            // check if crowdsaleisclosed - already checked before state change\n            if (groups.length == 1) {\n                if (hasWinnerGroup) {\n                    setSentToLosingGroups();\n                    setSentToWinnerGroup();\n                } else {\n                    setSentToLosingGroups();\n                }\n            } else if (groups.length - 1 == groupsReceivedTokensBack) {\n                setSentToLosingGroups();\n            } else if (groups.length == groupsReceivedTokensBack && hasWinnerGroup) { // bug fix\n                setSentToWinnerGroup();\n            }\n        }\n    }\n\n\n    /** @dev Sets the paidAmount and restricted to populous.\n      * @param _paidAmount The amount paid.\n      */\n    function setPaidAmount(uint _paidAmount) public onlyPopulous {\n        if (status == States.WaitingForInvoicePayment) {\n            paidAmount = _paidAmount;\n            status = States.PaymentReceived;\n\n            EventPaymentReceived(crowdsaleaddr, paidAmount);\n        }\n    } \n\n    /** @dev Creates a new bidding group for bidders to bid to fund an invoice and assigns the group an index in the collection of groups.\n      * @param _name The group name.\n      * @param _goal The goal of the group.\n      * @return err 0 or 1 implying absence or presence of error.\n      * @return groupIndex The returned group index/location in a collection of other groups.\n      */\n    function createGroup(string _name, uint _goal)\n        private\n        onlyOpenCrowdsale\n        returns (uint8 err, uint groupIndex)\n    {\n        if(checkDeadline() == false && _goal >= fundingGoal && _goal <= invoiceAmount) {\n            groupIndex = groups.length++;\n            groups[groupIndex].groupIndex = groupIndex;\n            groups[groupIndex].name = _name;\n            groups[groupIndex].goal = _goal;\n\n            EventGroupCreated(crowdsaleaddr, groupIndex, _name, _goal);\n\n            return (0, groupIndex);\n        } else {\n            EventGroupCreationFailed(crowdsaleaddr);\n            return (1, 0);\n        }\n    }\n\n\n    /** @dev Allows a bidder to place a bid as part of a group within a set of groups.\n      * @param groupIndex The index/location of a group in a set of groups.\n      * @param bidderId The bidder id/location in a set of bidders.\n      * @param name The bidder name.\n      * @param value The bid value.\n      * @return err 0 or 1 implying absence or presence of error.\n      * @return finalValue All bidder's bids value.\n      * @return groupGoal An unsigned integer representing the group's goal.\n      * @return goalReached A boolean value indicating whether the group goal has reached or not.\n      */\n    function bid(uint groupIndex, bytes32 bidderId, string name, uint value)\n        public\n        onlyOpenCrowdsale\n        onlyPopulous\n        returns (uint8 err, uint finalValue, uint groupGoal, bool goalReached)\n    {\n        if(checkDeadline() == true || value == 0 || groups[groupIndex].goal == 0) {\n            return (1, 0, 0, false);\n        }\n        // checking if amount raised by group and bid value exceed the group's goal\n        if (groups[groupIndex].amountRaised + value > groups[groupIndex].goal) {\n            value = SafeMath.safeSub(groups[groupIndex].goal, groups[groupIndex].amountRaised);\n        }\n\n        uint8 finderErr;\n        uint bidderIndex;\n        // searching for bidder\n        (finderErr, bidderIndex) = findBidder(groupIndex, bidderId);\n        \n        if (finderErr == 0) {\n            // if bidder found in a group, set timestamp of last bid and add to their bid amount\n            groups[groupIndex].bidders[bidderIndex].bidAmount = SafeMath.safeAdd(groups[groupIndex].bidders[bidderIndex].bidAmount, value);\n            groups[groupIndex].bidders[bidderIndex].lastBidAt = now;\n\n        } else {\n\n            // adding the bidder to a group if not found\n            groups[groupIndex].bidders.push(Bidder(groups[groupIndex].bidders.length, bidderId, name, value, now, false));\n            \n            // linking bidderIndex and groupIndex to bidder id for easy lookup\n            bidderGroupInfo[bidderId].groupIndex = groupIndex;\n            bidderGroupInfo[bidderId].bidderIndex = groups[groupIndex].bidders.length - 1;\n            bidderGroupInfo[bidderId].inAGroup = true;\n        }\n        // adding bid value to amount raised for the group using the group index to locate group in groups array\n        groups[groupIndex].amountRaised = SafeMath.safeAdd(groups[groupIndex].amountRaised, value);\n\n        EventNewBid(crowdsaleaddr, groupIndex, bidderId, name, value);\n        // boolean value to check if goal has reached\n        goalReached = groups[groupIndex].amountRaised == groups[groupIndex].goal;\n        // using the above boolean value to set the winning group and set the status of the crowdsale to closed\n        if (goalReached == true) {\n            winnerGroupIndex = groupIndex;\n            hasWinnerGroup = true;\n            status = States.Closed;\n            // event denoting groupGoalReached\n            EventGroupGoalReached(crowdsaleaddr, groupIndex, groups[groupIndex].name, groups[groupIndex].goal);\n            // event denoting crowdsaleClosed\n            EventCrowdsaleClosed(crowdsaleaddr, uint8(CrowdsaleCloseReasons.GroupGoalReached));\n        }\n\n        return (0, value, groups[groupIndex].goal, goalReached);\n    }\n\n    /** @dev Allows a first time bidder to create a new group if they do not belong to a group\n      * @dev and place an intial bid.\n      * @dev This function creates a group and calls the bid() function.\n      * @param groupName The name of the new investor group to be created.\n      * @param goal The group funding goal.\n      * @param bidderId The bidder id/location in a set of bidders.\n      * @param name The bidder name.\n      * @param value The bid value.\n      * @return err 0 or 1 implying absence or presence of error.\n      * @return finalValue All bidder's bids value.\n      * @return groupGoal An unsigned integer representing the group's goal.\n      * @return goalReached A boolean value indicating whether the group goal has reached or not.\n      */\n    function initialBid(string groupName, uint goal, bytes32 bidderId, string name, uint value)\n        public\n        onlyOpenCrowdsale\n        onlyPopulous\n        returns (uint8 err, uint finalValue, uint groupGoal, bool goalReached)\n    {      \n        uint8 finderErr;\n        uint groupIndex;\n        uint bidderIndex;\n        // searching for bidder\n        (finderErr, groupIndex, bidderIndex) = findBidder(bidderId);\n        // check that bidder is in a group -> call bid()\n        if (finderErr == 1) {\n            // if bidder is not in a group, create group - > get group index ->  call bid() with group index \n            // bidder is not in any group. New group can be created at this point.\n            (err, groupIndex) = createGroup(groupName, goal);\n            \n            if (err == 1) {\n                return (1, 0, 0, false);\n            }\n        }\n        return bid(groupIndex, bidderId, name, value);\n        \n    }\n\n    /** @dev Allows a borrower to choose a bid winner group and checks amount raised from that group is > 0.\n      * @param groupIndex The selected index/location of the group in the groups array.\n      */\n    function borrowerChooseWinner(uint groupIndex)\n        public\n        onlyOpenCrowdsale\n        onlyServer\n    {\n        require(!checkNoBids());\n        if (groups[groupIndex].amountRaised > 0) {\n            winnerGroupIndex = groupIndex;\n            hasWinnerGroup = true;\n            status = States.Closed;\n\n            EventCrowdsaleClosed(crowdsaleaddr, uint8(CrowdsaleCloseReasons.BorrowerClosed));\n        }\n    }\n\n    \n\n    // calls the _waitingForPayment method\n    function waitingForPayment() public onlyServer returns(bool) {\n        return _waitingForPayment();\n    }\n\n    /** @dev Sets the status to a state of '_waitingForPayment'.\n      * @dev If the current status is closed, sentToBeneficiary and sentToLosingGroups are true.\n      * @return bool A boolean value true or false.\n      */\n    function _waitingForPayment() private returns(bool) {\n        if (status == States.Closed && sentToBeneficiary == true && sentToLosingGroups == true) {\n            // Tokens have been sent to beneficiary\n            // Tokens have been sent to loser groups\n            status = States.WaitingForInvoicePayment;\n            EventCrowdsaleWaiting(crowdsaleaddr);\n        }\n    }\n\n    /** @dev Sets the 'sentToBeneficiary' boolean variable to true.\n      * @dev Only populous can use this method.\n      */\n    function setSentToBeneficiary() public onlyPopulous {\n        require(!checkNoBids());\n        \n\n        sentToBeneficiary = true;\n\n        // We have only 1 group (the winning group) and we set \n        // the losing groups as refunded automatically.\n        if (groups.length == 1) {\n            setSentToLosingGroups();\n        }\n        \n    }\n\n    /** @dev Sets the sent 'setSentToLosingGroups' boolean variable to true.\n      */\n    function setSentToLosingGroups() private {\n        require(!checkNoBids());\n        sentToLosingGroups = true;\n        \n        _waitingForPayment();\n    }\n\n    /** @dev Sets the sent 'sentToWinnerGroup' boolean variable to true.\n      * @dev Sets the status of the crowdsale to completed\n      * @dev Sets the boolean 'hasReceivedTokensBack' variable of the winning group to true\n      */\n    function setSentToWinnerGroup() private {\n        require(!checkNoBids());\n\n        sentToWinnerGroup = true;\n        status = States.Completed;\n        groups[winnerGroupIndex].hasReceivedTokensBack = true;\n        \n        EventCrowdsaleCompleted(crowdsaleaddr);\n    }\n\n\n    // CONSTANT METHODS\n\n    /** @dev Gets bool indicating crowdsale deadline has reached\n      * @return bool deadlineReached\n      */\n    function getDeadlineReached() public view returns (bool) {\n        return deadlineReached;\n    }\n    /** @dev Gets bool closedWithNoBids for crowdsale\n      * @return bool closedWithNoBids indicates if crowdsale was closed without any bids.\n      */\n    function getClosedNoBids() public view returns (bool) {\n        return closedWithNoBids;\n    }\n    /** @dev Gets bool hasWinnerGroup for crowdsale\n      * @return bool hasWinnerGroup.\n      */\n    function getHasWinnerGroup() public view returns (bool) {\n        return hasWinnerGroup;\n    }\n    \n    /** @dev Gets the paid amount \n      * @return uint The paid amount.\n      */\n    function getPaidAmount() public view returns (uint) {\n        return paidAmount;\n    }\n\n    /** @dev Gets the winning group index \n      * @return uint The index for winning group.\n      */\n    function getWinnerGroupIndex() public view returns (uint) {\n        return winnerGroupIndex;\n    }\n\n    /** @dev Gets the current status.\n      * @return uint8 The returned status.\n      */\n    function getStatus() public view returns (uint8) {\n        return uint8(status);\n    }\n\n    /** @dev Gets the number of groups in the groups array.\n      * @return uint The number of bidding groups in the crowdsale.\n      */\n    function getGroupsCount() public view returns (uint) {\n        return groups.length;\n    }\n\n    \n    /** @dev Checks if a bidder in any bidding group\n      * has received their tokens back.\n      * @param bidderId The bidder ID\n      * @return received The boolean true/false indicating token received or not.\n      */\n    function bidderHasTokensBack (bytes32 bidderId) public view returns(bool received) {\n        uint8 err;\n        uint groupIndex;\n        uint bidderIndex;\n        (err, groupIndex, bidderIndex) = findBidder(bidderId);\n        bytes32 bidder;\n        uint bidAmount;\n        bool hasReceivedTokensBack;\n        (bidder, , bidAmount, hasReceivedTokensBack) = getGroupBidder(groupIndex, bidderIndex);\n        if (Utils.equal(bidderId, bidder) && hasReceivedTokensBack) {\n            return true;\n        }\n        return false;\n\n    }\n\n\n    /** @dev Gets the details of a group located by its index/location in the group array..\n      * @param groupIndex The location of a group within the groups array variable.\n      * @return name The group name.\n      * @return goal The amount representing the group funding goal.\n      * @return biddersCount The number of bidders in the bidding group.\n      * @return amountRaised The amount of tokens raised by the group during crowdsale.\n      * @return hasReceivedTokensBack A boolean value indicating if group has been funded after crowdsale.\n      */ \n    function getGroup(uint groupIndex)\n        public view\n        returns (string name, uint goal, uint biddersCount, uint amountRaised, bool hasReceivedTokensBack)\n    {\n        Group memory g = groups[groupIndex];\n\n        return (g.name, g.goal, g.bidders.length, g.amountRaised, g.hasReceivedTokensBack);\n    }\n\n    /** @dev Gets a bidders details from a group.\n      * @param groupIndex The location of a group in the groups array.\n      * @param bidderIndex The location of a bidder in the bidders arrays of a group\n      * @return bidderId The bidder ID.\n      * @return name The bidder name.\n      * @return bidAmount The bid amount.\n      * @return hasReceivedTokensBack A boolean value to indicate whether the loosing group has received a refund of their tokens.\n      */\n    function getGroupBidder(uint groupIndex, uint bidderIndex)\n        public view\n        returns (bytes32 bidderId, string name, uint bidAmount, bool hasReceivedTokensBack)\n    {\n        Bidder memory b = groups[groupIndex].bidders[bidderIndex];\n\n        return (b.bidderId, b.name, b.bidAmount, b.hasReceivedTokensBack);\n    }\n\n    /** @dev Finds a bidder in a list of bidders with bidder ID.\n      * @param bidderId The bytes32 bidder ID.\n      * @return err 0 or 1 implying absence or presence of error.\n      * @return bidderIndex The location of the bidder in bidders array.\n      * @return groupIndex The location of the bidders group in the groups array.\n      */\n    function findBidder(bytes32 bidderId) public view returns (uint8 err, uint groupIndex, uint bidderIndex) {\n        bidderIndex = bidderGroupInfo[bidderId].bidderIndex;\n        groupIndex = bidderGroupInfo[bidderId].groupIndex;\n        if (!bidderGroupInfo[bidderId].inAGroup) {\n            return (1, 0, 0);\n        } else if (Utils.equal(groups[groupIndex].bidders[bidderIndex].bidderId, bidderId) == true) {\n            return (0, groupIndex, bidderIndex);\n        }\n        \n        /* for(groupIndex = 0; groupIndex < groups.length; groupIndex++) {\n            for(bidderIndex = 0; bidderIndex < groups[groupIndex].bidders.length; bidderIndex++) {\n                if (Utils.equal(groups[groupIndex].bidders[bidderIndex].bidderId, bidderId) == true) {\n                    return (0, groupIndexes[bidderIndex], bidderIndexes[bidderId]);\n                }\n            }\n        }\n        return (1, 0, 0); */\n    }\n\n    /** @dev Finds a bidder in a list of bidders with bidder ID and group index.\n      * @param groupIndex The location of a group in the groups array.\n      * @param bidderIndex The location of a bidder in the bidders arrays of a group\n      * @return err 0 or 1 implying absence or presence of error.\n      * @return bidderIndex The location of the bidder in bidders array.\n      */\n    function findBidder(uint groupIndex, bytes32 bidderId) public view returns (uint8 err, uint bidderIndex) {\n        bidderIndex = bidderGroupInfo[bidderId].bidderIndex;\n        groupIndex = bidderGroupInfo[bidderId].groupIndex;\n        if (!bidderGroupInfo[bidderId].inAGroup) {\n            return (1, 0);\n        } else if (Utils.equal(groups[groupIndex].bidders[bidderIndex].bidderId, bidderId) == true) {\n            return (0, bidderIndex);\n        }\n        /* for(bidderIndex = 0; bidderIndex < groups[groupIndex].bidders.length; bidderIndex++) {\n            if (Utils.equal(groups[groupIndex].bidders[bidderIndex].bidderId, bidderId) == true) {\n                return (0, bidderIndexes[bidderId]);\n            }\n        }\n        return (1, 0);  */ \n    }\n\n    /** @dev Gets beneficiary's token amount after bidding is closed.\n      * @return amount The total bid amount.\n      * @return err 0 or 1 implying absence or presence of error.\n      */\n    function getAmountForBeneficiary() public view returns (uint8 err, uint amount) {\n        if (status == States.Closed && sentToBeneficiary == false) {\n            // winner group will be zero by default but hasWinnerGroup = False\n            // in that case, funding beneficiary should fail\n            // previously, it still tries to get amountRaised for group with index = 0\n            return (0, groups[winnerGroupIndex].amountRaised);\n        } else {\n            return (1, 0);\n        }\n    }\n\n}",
  "sourcePath": "/Users/najienka/Desktop/populous-smartcontracts/contracts/Crowdsale.sol",
  "schemaVersion": "1.0.0",
  "updatedAt": "2018-01-22T11:26:22.320Z"
}