{
  "contractName": "CrowdsaleManager",
  "abi": [
    {
      "constant": false,
      "inputs": [
        {
          "name": "_accessManager",
          "type": "address"
        }
      ],
      "name": "updateAccessManager",
      "outputs": [],
      "payable": false,
      "stateMutability": "nonpayable",
      "type": "function"
    },
    {
      "constant": false,
      "inputs": [
        {
          "name": "_currencySymbol",
          "type": "bytes32"
        },
        {
          "name": "_borrowerId",
          "type": "bytes32"
        },
        {
          "name": "_invoiceId",
          "type": "bytes32"
        },
        {
          "name": "_invoiceNumber",
          "type": "string"
        },
        {
          "name": "_invoiceAmount",
          "type": "uint256"
        },
        {
          "name": "_fundingGoal",
          "type": "uint256"
        },
        {
          "name": "_platformTaxPercent",
          "type": "uint256"
        },
        {
          "name": "_signedDocumentIPFSHash",
          "type": "string"
        }
      ],
      "name": "createCrowdsale",
      "outputs": [
        {
          "name": "crowdsaleAddr",
          "type": "address"
        }
      ],
      "payable": false,
      "stateMutability": "nonpayable",
      "type": "function"
    },
    {
      "constant": true,
      "inputs": [],
      "name": "AM",
      "outputs": [
        {
          "name": "",
          "type": "address"
        }
      ],
      "payable": false,
      "stateMutability": "view",
      "type": "function"
    },
    {
      "inputs": [
        {
          "name": "_accessManager",
          "type": "address"
        }
      ],
      "payable": false,
      "stateMutability": "nonpayable",
      "type": "constructor"
    }
  ],
  "bytecode": "0x6060604052341561000f57600080fd5b604051602080612fcc8339810160405280805160008054600160a060020a03909216600160a060020a03199092169190911790555050612f78806100546000396000f300606060405263ffffffff60e060020a60003504166302ab72c48114610039578063cb4671a21461005a578063f7f01b4b1461012757600080fd5b341561004457600080fd5b610058600160a060020a036004351661013a565b005b341561006557600080fd5b61010b600480359060248035916044359160849060643590810190830135806020601f820181900481020160405190810160405281815292919060208401838380828437509496863596602080820135975060408083013597509295506080820194506060909101358501808201935035918291601f8301819004810201905190810160405281815292919060208401838380828437509496506101ed95505050505050565b604051600160a060020a03909116815260200160405180910390f35b341561013257600080fd5b61010b6104c8565b60008054600160a060020a031690630c68ba219033906040516020015260405160e060020a63ffffffff8416028152600160a060020a039091166004820152602401602060405180830381600087803b151561019557600080fd5b6102c65a03f115156101a657600080fd5b5050506040518051151560011490506101be57600080fd5b6000805473ffffffffffffffffffffffffffffffffffffffff1916600160a060020a0392909216919091179055565b60008054600160a060020a03166305fd22d033836040516020015260405160e060020a63ffffffff8416028152600160a060020a039091166004820152602401602060405180830381600087803b151561024657600080fd5b6102c65a03f1151561025757600080fd5b50505060405180511515600114905061026f57600080fd5b6000888152600260205260409081902086918890518082805190602001908083835b602083106102b05780518252601f199092019160209182019101610291565b6001836020036101000a038019825116818451168082178552505050505050905001915050908152602001604051809103902054141580156102f157508484105b15156102fc57600080fd5b6000888152600260205260409081902086918890518082805190602001908083835b6020831061033d5780518252601f19909201916020918201910161031e565b6001836020036101000a03801982511681845116808217855250505050505090500191505090815260200160405190819003902055600054600160a060020a0316898989898989898961038e6104d7565b600160a060020a038a16815260208101899052604081018890526060810187905260a0810185905260c0810184905260e081018390526101206080820181815290610100830190830188818151815260200191508051906020019080838360005b838110156104075780820151838201526020016103ef565b50505050905090810190601f1680156104345780820380516001836020036101000a031916815260200191505b50838103825284818151815260200191508051906020019080838360005b8381101561046a578082015183820152602001610452565b50505050905090810190601f1680156104975780820380516001836020036101000a031916815260200191505b509b505050505050505050505050604051809103906000f08015156104bb57600080fd5b9998505050505050505050565b600054600160a060020a031681565b604051612a65806104e8833901905600606060405234156200001057600080fd5b60405162002a6538038062002a65833981016040528080519190602001805191906020018051919060200180519190602001805182019190602001805191906020018051919060200180519190602001805160008054600160a060020a031916600160a060020a038d1617905560018a9055600489905560028890559190910190506003858051620000a79291602001906200010d565b506005849055600683905560088290556009818051620000cc9291602001906200010d565b50505062015180420160075550506000805460a060020a60ff0219167401000000000000000000000000000000000000000017905550620001b29350505050565b828054600181600116156101000203166002900490600052602060002090601f016020900481019282601f106200015057805160ff191683800117855562000180565b8280016001018555821562000180579182015b828111156200018057825182559160200191906001019062000163565b506200018e92915062000192565b5090565b620001af91905b808211156200018e576000815560010162000199565b90565b6128a380620001c26000396000f300606060405236156102095763ffffffff60e060020a60003504166302ab72c4811461020e5780630cd87cff1461022f57806312fa769f1461025657806315b204541461027b57806319a0e16d146102bb578063200d2ed2146102d4578063246684731461030b57806329dcb0cf1461039557806343bf9936146103a85780634e69d560146103bb57806355d97ba8146103e45780635cfa4d60146103f75780635e054efb1461040a5780636a20a8a11461041d5780636fbefedf1461043057806370c86286146104435780637478901d146104565780637a3a0e84146104695780637b69c9ae1461047c578063816d51451461048f57806385d8ed7d146104a25780638688b4df146104b85780638942e19d146104ed5780638a8f5af71461050057806396324bd414610513578063968c4209146105d9578063983c0a01146105ec578063a203886e146105ff578063a29b8b9114610615578063a4d8a8da14610628578063a7b80b6c1461063b578063ae22824a1461064e578063b503d82914610661578063b84afbb41461072f578063ceb6065414610742578063cfece8ef146107f0578063dcb190e314610803578063dee50b2414610816578063e1c25467146108be578063ec0a9974146108d4578063efd3bc0c146108e7578063f29c2e8b146108fa578063f52eb38514610958578063f7f01b4b1461096b578063f97846011461099a575b600080fd5b341561021957600080fd5b61022d600160a060020a03600435166109ad565b005b341561023a57600080fd5b610242610a60565b604051901515815260200160405180910390f35b341561026157600080fd5b610269610a6a565b60405190815260200160405180910390f35b341561028657600080fd5b610291600435610a70565b604051808460ff1660ff168152602001838152602001828152602001935050505060405180910390f35b34156102c657600080fd5b61022d600435602435610b01565b34156102df57600080fd5b6102e7610cf9565b604051808260058111156102f757fe5b60ff16815260200191505060405180910390f35b341561031657600080fd5b61031e610d09565b60405160208082528190810183818151815260200191508051906020019080838360005b8381101561035a578082015183820152602001610342565b50505050905090810190601f1680156103875780820380516001836020036101000a031916815260200191505b509250505060405180910390f35b34156103a057600080fd5b610269610da7565b34156103b357600080fd5b610242610dad565b34156103c657600080fd5b6103ce610e3e565b60405160ff909116815260200160405180910390f35b34156103ef57600080fd5b610242610e5c565b341561040257600080fd5b610269610e6a565b341561041557600080fd5b610242610e70565b341561042857600080fd5b610269610e7f565b341561043b57600080fd5b610269610e85565b341561044e57600080fd5b610269610e8b565b341561046157600080fd5b610269610e91565b341561047457600080fd5b610269610e97565b341561048757600080fd5b610242610e9d565b341561049a57600080fd5b610242610ea6565b34156104ad57600080fd5b61022d600435610eb4565b34156104c357600080fd5b6104d1600435602435610fbb565b60405160ff909216825260208201526040908101905180910390f35b34156104f857600080fd5b61022d61104d565b341561050b57600080fd5b61031e611106565b341561051e57600080fd5b610529600435611171565b60405186815260408101859052606081018490526080810183905281151560a082015260c0602082018181528754600260001961010060018416150201909116049183018290529060e0830190889080156105c55780601f1061059a576101008083540402835291602001916105c5565b820191906000526020600020905b8154815290600101906020018083116105a857829003601f168201915b505097505050505050505060405180910390f35b34156105e457600080fd5b6102696111b9565b34156105f757600080fd5b6102426111bf565b341561060a57600080fd5b61022d6004356112a6565b341561062057600080fd5b6102426113d6565b341561063357600080fd5b6102696113e5565b341561064657600080fd5b6102426113eb565b341561065957600080fd5b610242611475565b341561066c57600080fd5b6106ff60046024813581810190830135806020601f8201819004810201604051908101604052818152929190602084018383808284375094968635966020808201359750919550606081019450604090810135860180830194503592508291601f830181900481020190519081016040528181529291906020840183838082843750949650509335935061148392505050565b60405160ff9094168452602084019290925260408084019190915290151560608301526080909101905180910390f35b341561073a57600080fd5b61026961159d565b341561074d57600080fd5b6107586004356115a3565b604051808060200186815260200185815260200184815260200183151515158152602001828103825287818151815260200191508051906020019080838360005b838110156107b1578082015183820152602001610799565b50505050905090810190601f1680156107de5780820380516001836020036101000a031916815260200191505b50965050505050505060405180910390f35b34156107fb57600080fd5b610242611830565b341561080e57600080fd5b61024261187d565b341561082157600080fd5b61082f60043560243561188c565b60405184815260408101839052811515606082015260806020820181815290820185818151815260200191508051906020019080838360005b83811015610880578082015183820152602001610868565b50505050905090810190601f1680156108ad5780820380516001836020036101000a031916815260200191505b509550505050505060405180910390f35b34156108c957600080fd5b6102426004356119f3565b34156108df57600080fd5b610242611a53565b34156108f257600080fd5b610269611a5c565b341561090557600080fd5b6106ff600480359060248035919060649060443590810190830135806020601f820181900481020160405190810160405281815292919060208401838380828437509496505093359350611a6292505050565b341561096357600080fd5b6104d161210b565b341561097657600080fd5b61097e61217a565b604051600160a060020a03909116815260200160405180910390f35b34156109a557600080fd5b610269612189565b60008054600160a060020a031690630c68ba219033906040516020015260405160e060020a63ffffffff8416028152600160a060020a039091166004820152602401602060405180830381600087803b1515610a0857600080fd5b6102c65a03f11515610a1957600080fd5b505050604051805115156001149050610a3157600080fd5b6000805473ffffffffffffffffffffffffffffffffffffffff1916600160a060020a0392909216919091179055565b600e5460ff165b90565b600f5481565b6000818152600b602052604081206001810154815460029092015460ff161515610aa35750600191506000905080610afa565b610aeb600a83815481101515610ab557fe5b906000526020600020906007020160030182815481101515610ad357fe5b9060005260206000209060060201600101548561218f565b151560011415610afa57600092505b9193909250565b60008054600160a060020a0316906305fd22d09033906040516020015260405160e060020a63ffffffff8416028152600160a060020a039091166004820152602401602060405180830381600087803b1515610b5c57600080fd5b6102c65a03f11515610b6d57600080fd5b505050604051805115156001149050610b8557600080fd5b6001600a83815481101515610b9657fe5b906000526020600020906007020160030182815481101515610bb457fe5b60009182526020909120600690910201600501805460ff1916911515919091179055600a805483908110610be457fe5b6000918252602090912060056007909202010180546001019055600a805483908110610c0c57fe5b6000918252602090912060036007909202010154600a805484908110610c2e57fe5b9060005260206000209060070201600501541415610cf5576001600a83815481101515610c5757fe5b60009182526020909120600790910201600601805460ff1916911515919091179055600c80546001908101909155600a541415610cbb57600e5460ff1615610cae57610ca1612264565b610ca961228d565b610cb6565b610cb6612264565b610cf5565b600c54600a54600019011415610cd357610cb6612264565b600c54600a54148015610ce85750600e5460ff165b15610cf557610cf561228d565b5050565b60005460a060020a900460ff1681565b60038054600181600116156101000203166002900480601f016020809104026020016040519081016040528092919081815260200182805460018160011615610100020316600290048015610d9f5780601f10610d7457610100808354040283529160200191610d9f565b820191906000526020600020905b815481529060010190602001808311610d8257829003601f168201915b505050505081565b60075481565b6000600754421115610e3857600160005460a060020a900460ff166005811115610dd357fe5b1415610e1f576000805460a060020a60ff02191660a160020a179055600080516020612858833981519152600160405160ff909116815260200160405180910390a1610e1d611830565b505b50600e805462ff00001916620100001790556001610a67565b50600090565b6000805460a060020a900460ff166005811115610e5757fe5b905090565b601054610100900460ff1681565b600d5481565b60105462010000900460ff1681565b600f5490565b60045481565b60025481565b60055481565b60065481565b60105460ff1681565b600e54610100900460ff1690565b60008054600160a060020a0316906305fd22d09033906040516020015260405160e060020a63ffffffff8416028152600160a060020a039091166004820152602401602060405180830381600087803b1515610f0f57600080fd5b6102c65a03f11515610f2057600080fd5b505050604051805115156001149050610f3857600080fd5b600360005460a060020a900460ff166005811115610f5257fe5b1415610fb857600f8190556000805460a060020a60ff021916740400000000000000000000000000000000000000001790557fe2630c8bd63a0cac2936da8f1d4fe0d13a8662daca441639630c7e55095683238160405190815260200160405180910390a15b50565b6000818152600b60205260408120600181015481546002909201549194509060ff161515610fef5750600190506000611046565b611037600a8581548110151561100157fe5b90600052602060002090600702016003018281548110151561101f57fe5b9060005260206000209060060201600101548461218f565b15156001141561104657600091505b9250929050565b60008054600160a060020a0316906305fd22d09033906040516020015260405160e060020a63ffffffff8416028152600160a060020a039091166004820152602401602060405180830381600087803b15156110a857600080fd5b6102c65a03f115156110b957600080fd5b5050506040518051151560011490506110d157600080fd5b6110d9611830565b156110e357600080fd5b6010805460ff19166001908117909155600a54141561110457611104612264565b565b60098054600181600116156101000203166002900480601f016020809104026020016040519081016040528092919081815260200182805460018160011615610100020316600290048015610d9f5780601f10610d7457610100808354040283529160200191610d9f565b600a80548290811061117f57fe5b6000918252602090912060079091020180546002820154600483015460058401546006850154939550600190940193919290919060ff1686565b60015481565b60008054600160a060020a03166305fd22d033836040516020015260405160e060020a63ffffffff8416028152600160a060020a039091166004820152602401602060405180830381600087803b151561121857600080fd5b6102c65a03f1151561122957600080fd5b50505060405180511515600114905061124157600080fd5b600160005460a060020a900460ff16600581111561125b57fe5b1415610e38576000805460a060020a60ff02191660a160020a17905560008051602061285883398151915260045b60405160ff909116815260200160405180910390a1506001610a67565b600160005460a060020a900460ff1660058111156112c057fe5b1415610fb85760008054600160a060020a03169063fda089589033906040516020015260405160e060020a63ffffffff8416028152600160a060020a039091166004820152602401602060405180830381600087803b151561132157600080fd5b6102c65a03f1151561133257600080fd5b50505060405180511515600114905061134a57600080fd5b611352611830565b1561135c57600080fd5b6000600a8281548110151561136d57fe5b9060005260206000209060070201600401541115610fb857600d819055600e805460ff191660011790556000805460a060020a60ff02191660a160020a179055600080516020612858833981519152600360405160ff909116815260200160405180910390a150565b600e5462010000900460ff1681565b600d5490565b60008054600160a060020a031663fda0895833836040516020015260405160e060020a63ffffffff8416028152600160a060020a039091166004820152602401602060405180830381600087803b151561144457600080fd5b6102c65a03f1151561145557600080fd5b50505060405180511515600114905061146d57600080fd5b610e5761233a565b600e54610100900460ff1681565b6000808080808080600160005460a060020a900460ff1660058111156114a557fe5b141561158e5760008054600160a060020a0316906305fd22d09033906040516020015260405160e060020a63ffffffff8416028152600160a060020a039091166004820152602401602060405180830381600087803b151561150657600080fd5b6102c65a03f1151561151757600080fd5b50505060405180511515600114905061152f57600080fd5b6115388a610a70565b91945092509050600160ff84161415611579576115558c8c6123de565b9097509150600160ff8816141561157957600196506000955085945084935061158e565b611585828b8b8b611a62565b96509650965096505b50505095509550955095915050565b600a5490565b6115ab6125d9565b6000806000806115b96125eb565b600a8054889081106115c757fe5b906000526020600020906007020160e0604051908101604052908160008201548152602001600182018054600181600116156101000203166002900480601f0160208091040260200160405190810160405280929190818152602001828054600181600116156101000203166002900480156116845780601f1061165957610100808354040283529160200191611684565b820191906000526020600020905b81548152906001019060200180831161166757829003601f168201915b50505050508152602001600282015481526020016003820180548060200260200160405190810160405281815291906000602084015b828210156117d257600084815260209020600683020160c0604051908101604052908160008201548152602001600182015460001916600019168152602001600282018054600181600116156101000203166002900480601f0160208091040260200160405190810160405280929190818152602001828054600181600116156101000203166002900480156117915780601f1061176657610100808354040283529160200191611791565b820191906000526020600020905b81548152906001019060200180831161177457829003601f168201915b505050918352505060038201546020808301919091526004830154604083015260059092015460ff16151560609091015290825260019290920191016116ba565b5050509082525060048201546020808301919091526005830154604083015260069092015460ff161515606090910152909150810151816040015182606001515183608001518460c00151939b929a50909850965090945092505050565b600061183a610dad565b50600260005460a060020a900460ff16600581111561185557fe5b1480156118625750600a54155b15610e38576000805160206128588339815191526002611289565b600e5462010000900460ff1690565b60006118966125d9565b6000806118a1612637565b600a8054889081106118af57fe5b9060005260206000209060070201600301868154811015156118cd57fe5b906000526020600020906006020160c0604051908101604052908160008201548152602001600182015460001916600019168152602001600282018054600181600116156101000203166002900480601f01602080910402602001604051908101604052809291908181526020018280546001816001161561010002031660029004801561199c5780601f106119715761010080835404028352916020019161199c565b820191906000526020600020905b81548152906001019060200180831161197f57829003601f168201915b505050918352505060038201546020808301919091526004830154604083015260059092015460ff161515606090910152909150810151816040015182606001518360a00151929a91995097509095509350505050565b6000806000806000806000611a0788610a70565b91975095509350611a18858561188c565b9295509350909150611a2c9050888461218f565b8015611a355750805b15611a435760019650611a48565b600096505b505050505050919050565b600e5460ff1681565b60085481565b60008080808080600160005460a060020a900460ff166005811115611a8357fe5b14156120fe5760008054600160a060020a0316906305fd22d09033906040516020015260405160e060020a63ffffffff8416028152600160a060020a039091166004820152602401602060405180830381600087803b1515611ae457600080fd5b6102c65a03f11515611af557600080fd5b505050604051805115156001149050611b0d57600080fd5b611b15610dad565b151560011480611b23575086155b80611b4d5750600a80548b908110611b3757fe5b9060005260206000209060070201600201546000145b15611b655760019550600094508493508392506120fe565b600a80548b908110611b7357fe5b90600052602060002090600702016002015487600a8c815481101515611b9557fe5b906000526020600020906007020160040154011115611bfb57611bf8600a8b815481101515611bc057fe5b906000526020600020906007020160020154600a8c815481101515611be157fe5b9060005260206000209060070201600401546125a3565b96505b611c058a8a610fbb565b909250905060ff82161515611ce557611c5c600a8b815481101515611c2657fe5b906000526020600020906007020160030182815481101515611c4457fe5b906000526020600020906006020160030154886125b5565b600a80548c908110611c6a57fe5b906000526020600020906007020160030182815481101515611c8857fe5b90600052602060002090600602016003018190555042600a8b815481101515611cad57fe5b906000526020600020906007020160030182815481101515611ccb57fe5b906000526020600020906006020160040181905550611e39565b600a80548b908110611cf357fe5b90600052602060002090600702016003018054806001018281611d169190612658565b9160005260206000209060060201600060c060405190810160405280600a8f815481101515611d4157fe5b6000918252602080832060036007909302019190910154835282018f9052604082018e9052606082018d905242608083015260a0909101529190508151815560208201516001820155604082015181600201908051611da4929160200190612689565b50606082015181600301556080820151816004015560a0820151600591909101805460ff191691151591909117905550506000898152600b602052604090208a9055600a8054600191908c908110611df857fe5b60009182526020808320600360079093020191909101548c8352600b90915260409091209190036001808301919091556002909101805460ff191690911790555b611e63600a8b815481101515611e4b57fe5b906000526020600020906007020160040154886125b5565b600a80548c908110611e7157fe5b9060005260206000209060070201600401819055507f2ca5aa4afa04f11467caafe7b396d938bc0fdd693831267b9b682e9d2924fab68a8a8a8a604051848152602081018490526060810182905260806040820181815290820184818151815260200191508051906020019080838360005b83811015611efb578082015183820152602001611ee3565b50505050905090810190601f168015611f285780820380516001836020036101000a031916815260200191505b509550505050505060405180910390a1600a80548b908110611f4657fe5b906000526020600020906007020160020154600a8b815481101515611f6757fe5b600091825260209091206004600790920201015414925060018314156120d057600d8a9055600e805460ff191660011790556000805460a060020a60ff02191660a160020a179055600a80547ffc283d648f2d223664cf7012091e001a932bf7f34644e0f5f58196aab51df5a7918c9182908110611fe157fe5b9060005260206000209060070201600101600a8d81548110151561200157fe5b90600052602060002090600702016002015460405183815260408101829052606060208201818152845460026000196101006001841615020190911604918301829052906080830190859080156120995780601f1061206e57610100808354040283529160200191612099565b820191906000526020600020905b81548152906001019060200180831161207c57829003601f168201915b505094505050505060405180910390a1600080516020612858833981519152600060405160ff909116815260200160405180910390a15b600087600a8c8154811015156120e257fe5b6000918252602090912060026007909202010154919750955093505b5050945094509450949050565b600080600260005460a060020a900460ff16600581111561212857fe5b148015612138575060105460ff16155b1561216e576000600a600d5481548110151561215057fe5b90600052602060002090600702016004015481915091509150612176565b506001905060005b9091565b600054600160a060020a031681565b600c5481565b6000805b6020811015612258578281602081106121a857fe5b1a7f0100000000000000000000000000000000000000000000000000000000000000027effffffffffffffffffffffffffffffffffffffffffffffffffffffffffffff191684826020811015156121fb57fe5b1a7f0100000000000000000000000000000000000000000000000000000000000000027effffffffffffffffffffffffffffffffffffffffffffffffffffffffffffff1916141515612250576000915061225d565b600101612193565b600191505b5092915050565b61226c611830565b1561227657600080fd5b6010805461ff001916610100179055610fb861233a565b612295611830565b1561229f57600080fd5b6010805462ff00001916620100001790556000805460a060020a60ff02191674050000000000000000000000000000000000000000179055600d54600a80546001929081106122ea57fe5b60009182526020909120600790910201600601805460ff19169115159190911790557f4b0b9fa94d2929dd952e727b42973b107ca8e2d345ddac00a3c776d72100d03060405160405180910390a1565b6000600260005460a060020a900460ff16600581111561235657fe5b14801561236a575060105460ff1615156001145b8015612383575060105460ff6101009091041615156001145b15610a67576000805460a060020a60ff021916740300000000000000000000000000000000000000001790557fb13d124f2b914dc60f0eadd4711ae8ebb3d2a4d235b29ef46b4379af2e9c326a60405160405180910390a190565b600080600160005460a060020a900460ff1660058111156123fb57fe5b141561104657612409610dad565b15801561241857506006548310155b801561242657506005548311155b1561256b57600a80549061243d9060018301612707565b905080600a8281548110151561244f57fe5b6000918252602090912060079091020155600a80548591908390811061247157fe5b9060005260206000209060070201600101908051612493929160200190612689565b5082600a828154811015156124a457fe5b9060005260206000209060070201600201819055507f8aceed8de06c3ec19c51e5ab9c1ca2eb054cbd116661d1282071fd7703cc353e8185856040518084815260200180602001838152602001828103825284818151815260200191508051906020019080838360005b8381101561252657808201518382015260200161250e565b50505050905090810190601f1680156125535780820380516001836020036101000a031916815260200191505b5094505050505060405180910390a160009150611046565b7fcef766fe8a34fc9d432cf018a05286683afedc6cb6f3703bd05ca86684199f4860405160405180910390a150600190506000611046565b6000828211156125af57fe5b50900390565b60008282018381108015906125ca5750828110155b15156125d257fe5b9392505050565b60206040519081016040526000815290565b60e060405190810160405280600081526020016126066125d9565b81526020016000815260200161261a6125d9565b815260200160008152602001600081526020016000151581525090565b60c0604051908101604090815260008083526020830152810161261a6125d9565b815481835581811511612684576006028160060283600052602060002091820191016126849190612733565b505050565b828054600181600116156101000203166002900490600052602060002090601f016020900481019282601f106126ca57805160ff19168380011785556126f7565b828001600101855582156126f7579182015b828111156126f75782518255916020019190600101906126dc565b5061270392915061277d565b5090565b815481835581811511612684576007028160070283600052602060002091820191016126849190612797565b610a6791905b808211156127035760008082556001820181905561275a60028301826127f2565b50600060038201819055600482015560058101805460ff19169055600601612739565b610a6791905b808211156127035760008155600101612783565b610a6791905b808211156127035760008082556127b760018301826127f2565b60028201600090556003820160006127cf9190612836565b50600060048201819055600582015560068101805460ff1916905560070161279d565b50805460018160011615610100020316600290046000825580601f106128185750610fb8565b601f016020900490600052602060002090810190610fb8919061277d565b5080546000825560060290600052602060002090810190610fb891906127335600c5edcd44be892ee502ab20d3835c4cd438b153df077c8b3e63c0bb631c6fee43a165627a7a723058209472f7859fcd92fef3b3b67374757d0d97782434e82ad46fdf48cd211288aef10029a165627a7a72305820e760f8baca77d9a5d75d724cebdfa4d9774a3c138f6e8b61cbb2d23c812bc5240029",
  "source": "pragma solidity ^0.4.17;\n\nimport \"./Crowdsale.sol\";\n\n\n/// @title Crowdsalemanager contract\ncontract CrowdsaleManager is withAccessManager {\n\n    // FIELDS\n\n\n    // This CrowdsaleEntry variable represents\n    // the structure/details of individual invoice crowdsales\n    // with details to be recorded for each crowdsale entry.\n    struct CrowdsaleEntry {\n        address addr; // an address\n        bytes32 borrowerId; // borrowerd id\n        bytes32 invoiceId; // invoice id\n        bytes32 invoiceNumber; // invoice number\n        uint invoiceAmount; // invoice amount\n        uint fundingGoal; // funding goal\n    }\n\n    \n    CrowdsaleEntry[] crowdsales;\n\n    // The variable invoicesIndex keeps track of invoices by borrower ID, \n    // invoice number and invoice amount to keep track of crowdsale \n    // invoices and restrict duplicate crowdsales for the same invoice.\n    mapping(bytes32 => mapping(string => uint)) invoicesIndex;\n\n    // NON-CONSTANT METHODS\n\n    // The constructor method called when this contract instance is deployed \n    // using a modifier the _accessManager address\n    function CrowdsaleManager(address _accessManager) public\n        withAccessManager(_accessManager) {} \n\n    /** @dev Creates a new crowdsale for an invoice.\n      * @param _currencySymbol The currency symbol.\n      * @param _borrowerId The borrower ID.\n      * @param _invoiceId The invoice ID.\n      * @param _invoiceNumber The invoice number.\n      * @param _fundingGoal The funding goal.\n      * @param _platformTaxPercent The tax percentage\n      * @param _signedDocumentIPFSHash The hash of a document stored in IPFS.\n      * @return crowdsaleAddr The crowdsale address derived from deploying a crowdsale.\n      */\n    function createCrowdsale(\n            bytes32 _currencySymbol,\n            bytes32 _borrowerId,\n            bytes32 _invoiceId,\n            string _invoiceNumber,\n            uint _invoiceAmount,\n            uint _fundingGoal,\n            uint _platformTaxPercent,\n            string _signedDocumentIPFSHash)\n        public\n        onlyPopulous\n        returns (address crowdsaleAddr)\n    {\n        // Avoid using the same invoice in more than crowdsale\n        require(invoicesIndex[_borrowerId][_invoiceNumber] != _invoiceAmount && _fundingGoal < _invoiceAmount);\n        invoicesIndex[_borrowerId][_invoiceNumber] = _invoiceAmount;\n\n        crowdsaleAddr = new Crowdsale(\n            address(AM),\n            _currencySymbol,\n            _borrowerId,\n            _invoiceId,\n            _invoiceNumber,\n            _invoiceAmount,\n            _fundingGoal,\n            _platformTaxPercent,\n            _signedDocumentIPFSHash\n        );\n    }\n}",
  "sourcePath": "/Users/najienka/Desktop/populous/populous-smartcontracts/contracts/CrowdsaleManager.sol",
  "schemaVersion": "1.0.0",
  "updatedAt": "2018-01-10T09:39:59.530Z"
}