{
  "contractName": "Crowdsale",
  "abi": [
    {
      "constant": false,
      "inputs": [
        {
          "name": "_accessManager",
          "type": "address"
        }
      ],
      "name": "updateAccessManager",
      "outputs": [],
      "payable": false,
      "stateMutability": "nonpayable",
      "type": "function"
    },
    {
      "constant": true,
      "inputs": [],
      "name": "getHasWinnerGroup",
      "outputs": [
        {
          "name": "",
          "type": "bool"
        }
      ],
      "payable": false,
      "stateMutability": "view",
      "type": "function"
    },
    {
      "constant": true,
      "inputs": [],
      "name": "crowdsaleaddr",
      "outputs": [
        {
          "name": "",
          "type": "address"
        }
      ],
      "payable": false,
      "stateMutability": "view",
      "type": "function"
    },
    {
      "constant": true,
      "inputs": [],
      "name": "paidAmount",
      "outputs": [
        {
          "name": "",
          "type": "uint256"
        }
      ],
      "payable": false,
      "stateMutability": "view",
      "type": "function"
    },
    {
      "constant": true,
      "inputs": [
        {
          "name": "bidderId",
          "type": "bytes32"
        }
      ],
      "name": "findBidder",
      "outputs": [
        {
          "name": "err",
          "type": "uint8"
        },
        {
          "name": "groupIndex",
          "type": "uint256"
        },
        {
          "name": "bidderIndex",
          "type": "uint256"
        }
      ],
      "payable": false,
      "stateMutability": "view",
      "type": "function"
    },
    {
      "constant": false,
      "inputs": [
        {
          "name": "groupIndex",
          "type": "uint256"
        },
        {
          "name": "bidderIndex",
          "type": "uint256"
        }
      ],
      "name": "setBidderHasReceivedTokensBack",
      "outputs": [],
      "payable": false,
      "stateMutability": "nonpayable",
      "type": "function"
    },
    {
      "constant": true,
      "inputs": [],
      "name": "status",
      "outputs": [
        {
          "name": "",
          "type": "uint8"
        }
      ],
      "payable": false,
      "stateMutability": "view",
      "type": "function"
    },
    {
      "constant": true,
      "inputs": [],
      "name": "invoiceNumber",
      "outputs": [
        {
          "name": "",
          "type": "string"
        }
      ],
      "payable": false,
      "stateMutability": "view",
      "type": "function"
    },
    {
      "constant": true,
      "inputs": [],
      "name": "deadline",
      "outputs": [
        {
          "name": "",
          "type": "uint256"
        }
      ],
      "payable": false,
      "stateMutability": "view",
      "type": "function"
    },
    {
      "constant": false,
      "inputs": [],
      "name": "checkDeadline",
      "outputs": [
        {
          "name": "",
          "type": "bool"
        }
      ],
      "payable": false,
      "stateMutability": "nonpayable",
      "type": "function"
    },
    {
      "constant": true,
      "inputs": [],
      "name": "getStatus",
      "outputs": [
        {
          "name": "",
          "type": "uint8"
        }
      ],
      "payable": false,
      "stateMutability": "view",
      "type": "function"
    },
    {
      "constant": true,
      "inputs": [],
      "name": "sentToLosingGroups",
      "outputs": [
        {
          "name": "",
          "type": "bool"
        }
      ],
      "payable": false,
      "stateMutability": "view",
      "type": "function"
    },
    {
      "constant": true,
      "inputs": [],
      "name": "winnerGroupIndex",
      "outputs": [
        {
          "name": "",
          "type": "uint256"
        }
      ],
      "payable": false,
      "stateMutability": "view",
      "type": "function"
    },
    {
      "constant": true,
      "inputs": [],
      "name": "sentToWinnerGroup",
      "outputs": [
        {
          "name": "",
          "type": "bool"
        }
      ],
      "payable": false,
      "stateMutability": "view",
      "type": "function"
    },
    {
      "constant": true,
      "inputs": [],
      "name": "getPaidAmount",
      "outputs": [
        {
          "name": "",
          "type": "uint256"
        }
      ],
      "payable": false,
      "stateMutability": "view",
      "type": "function"
    },
    {
      "constant": true,
      "inputs": [],
      "name": "borrowerId",
      "outputs": [
        {
          "name": "",
          "type": "bytes32"
        }
      ],
      "payable": false,
      "stateMutability": "view",
      "type": "function"
    },
    {
      "constant": true,
      "inputs": [],
      "name": "invoiceId",
      "outputs": [
        {
          "name": "",
          "type": "bytes32"
        }
      ],
      "payable": false,
      "stateMutability": "view",
      "type": "function"
    },
    {
      "constant": true,
      "inputs": [],
      "name": "invoiceAmount",
      "outputs": [
        {
          "name": "",
          "type": "uint256"
        }
      ],
      "payable": false,
      "stateMutability": "view",
      "type": "function"
    },
    {
      "constant": true,
      "inputs": [],
      "name": "fundingGoal",
      "outputs": [
        {
          "name": "",
          "type": "uint256"
        }
      ],
      "payable": false,
      "stateMutability": "view",
      "type": "function"
    },
    {
      "constant": true,
      "inputs": [],
      "name": "sentToBeneficiary",
      "outputs": [
        {
          "name": "",
          "type": "bool"
        }
      ],
      "payable": false,
      "stateMutability": "view",
      "type": "function"
    },
    {
      "constant": false,
      "inputs": [
        {
          "name": "_paidAmount",
          "type": "uint256"
        }
      ],
      "name": "setPaidAmount",
      "outputs": [
        {
          "name": "",
          "type": "bool"
        }
      ],
      "payable": false,
      "stateMutability": "nonpayable",
      "type": "function"
    },
    {
      "constant": true,
      "inputs": [
        {
          "name": "groupIndex",
          "type": "uint256"
        },
        {
          "name": "bidderId",
          "type": "bytes32"
        }
      ],
      "name": "findBidder",
      "outputs": [
        {
          "name": "err",
          "type": "uint8"
        },
        {
          "name": "bidderIndex",
          "type": "uint256"
        }
      ],
      "payable": false,
      "stateMutability": "view",
      "type": "function"
    },
    {
      "constant": false,
      "inputs": [
        {
          "name": "groupIndex",
          "type": "uint256"
        },
        {
          "name": "bidderId",
          "type": "bytes32"
        }
      ],
      "name": "setSentToBeneficiary",
      "outputs": [
        {
          "name": "err",
          "type": "uint8"
        },
        {
          "name": "bidderIndex",
          "type": "uint256"
        }
      ],
      "payable": false,
      "stateMutability": "nonpayable",
      "type": "function"
    },
    {
      "constant": true,
      "inputs": [],
      "name": "signedDocumentIPFSHash",
      "outputs": [
        {
          "name": "",
          "type": "string"
        }
      ],
      "payable": false,
      "stateMutability": "view",
      "type": "function"
    },
    {
      "constant": true,
      "inputs": [
        {
          "name": "",
          "type": "uint256"
        }
      ],
      "name": "groups",
      "outputs": [
        {
          "name": "groupIndex",
          "type": "uint256"
        },
        {
          "name": "name",
          "type": "string"
        },
        {
          "name": "goal",
          "type": "uint256"
        },
        {
          "name": "amountRaised",
          "type": "uint256"
        },
        {
          "name": "biddersReceivedTokensBack",
          "type": "uint256"
        },
        {
          "name": "hasReceivedTokensBack",
          "type": "bool"
        }
      ],
      "payable": false,
      "stateMutability": "view",
      "type": "function"
    },
    {
      "constant": true,
      "inputs": [
        {
          "name": "",
          "type": "uint256"
        }
      ],
      "name": "currencySymbol",
      "outputs": [
        {
          "name": "",
          "type": "bytes32"
        },
        {
          "name": "name",
          "type": "string"
        },
        {
          "name": "goal",
          "type": "uint256"
        },
        {
          "name": "amountRaised",
          "type": "uint256"
        },
        {
          "name": "biddersReceivedTokensBack",
          "type": "uint256"
        },
        {
          "name": "hasReceivedTokensBack",
          "type": "bool"
        }
      ],
      "payable": false,
      "stateMutability": "view",
      "type": "function"
    },
    {
      "constant": false,
      "inputs": [],
      "name": "closeCrowdsale",
      "outputs": [
        {
          "name": "success",
          "type": "bool"
        }
      ],
      "payable": false,
      "stateMutability": "nonpayable",
      "type": "function"
    },
    {
      "constant": false,
      "inputs": [
        {
          "name": "groupIndex",
          "type": "uint256"
        }
      ],
      "name": "borrowerChooseWinner",
      "outputs": [
        {
          "name": "success",
          "type": "bool"
        }
      ],
      "payable": false,
      "stateMutability": "nonpayable",
      "type": "function"
    },
    {
      "constant": true,
      "inputs": [
        {
          "name": "groupIndex",
          "type": "uint256"
        }
      ],
      "name": "deadlineReached",
      "outputs": [
        {
          "name": "",
          "type": "bool"
        }
      ],
      "payable": false,
      "stateMutability": "view",
      "type": "function"
    },
    {
      "constant": true,
      "inputs": [],
      "name": "getWinnerGroupIndex",
      "outputs": [
        {
          "name": "",
          "type": "uint256"
        }
      ],
      "payable": false,
      "stateMutability": "view",
      "type": "function"
    },
    {
      "constant": false,
      "inputs": [],
      "name": "waitingForPayment",
      "outputs": [
        {
          "name": "",
          "type": "bool"
        }
      ],
      "payable": false,
      "stateMutability": "nonpayable",
      "type": "function"
    },
    {
      "constant": false,
      "inputs": [
        {
          "name": "groupName",
          "type": "string"
        },
        {
          "name": "goal",
          "type": "uint256"
        },
        {
          "name": "bidderId",
          "type": "bytes32"
        },
        {
          "name": "name",
          "type": "string"
        },
        {
          "name": "value",
          "type": "uint256"
        }
      ],
      "name": "initialBid",
      "outputs": [
        {
          "name": "err",
          "type": "uint8"
        },
        {
          "name": "finalValue",
          "type": "uint256"
        },
        {
          "name": "groupGoal",
          "type": "uint256"
        },
        {
          "name": "goalReached",
          "type": "bool"
        }
      ],
      "payable": false,
      "stateMutability": "nonpayable",
      "type": "function"
    },
    {
      "constant": true,
      "inputs": [],
      "name": "getGroupsCount",
      "outputs": [
        {
          "name": "",
          "type": "uint256"
        }
      ],
      "payable": false,
      "stateMutability": "view",
      "type": "function"
    },
    {
      "constant": true,
      "inputs": [
        {
          "name": "groupIndex",
          "type": "uint256"
        },
        {
          "name": "goal",
          "type": "uint256"
        },
        {
          "name": "bidderId",
          "type": "bytes32"
        },
        {
          "name": "name",
          "type": "string"
        },
        {
          "name": "value",
          "type": "uint256"
        }
      ],
      "name": "getGroup",
      "outputs": [
        {
          "name": "name",
          "type": "string"
        },
        {
          "name": "goal",
          "type": "uint256"
        },
        {
          "name": "biddersCount",
          "type": "uint256"
        },
        {
          "name": "amountRaised",
          "type": "uint256"
        },
        {
          "name": "hasReceivedTokensBack",
          "type": "bool"
        }
      ],
      "payable": false,
      "stateMutability": "view",
      "type": "function"
    },
    {
      "constant": true,
      "inputs": [],
      "name": "checkNoBids",
      "outputs": [
        {
          "name": "",
          "type": "bool"
        }
      ],
      "payable": false,
      "stateMutability": "view",
      "type": "function"
    },
    {
      "constant": true,
      "inputs": [
        {
          "name": "groupIndex",
          "type": "uint256"
        }
      ],
      "name": "getDeadlineReached",
      "outputs": [
        {
          "name": "",
          "type": "bool"
        },
        {
          "name": "goal",
          "type": "uint256"
        },
        {
          "name": "biddersCount",
          "type": "uint256"
        },
        {
          "name": "amountRaised",
          "type": "uint256"
        },
        {
          "name": "hasReceivedTokensBack",
          "type": "bool"
        }
      ],
      "payable": false,
      "stateMutability": "view",
      "type": "function"
    },
    {
      "constant": true,
      "inputs": [
        {
          "name": "groupIndex",
          "type": "uint256"
        },
        {
          "name": "bidderIndex",
          "type": "uint256"
        }
      ],
      "name": "getGroupBidder",
      "outputs": [
        {
          "name": "bidderId",
          "type": "bytes32"
        },
        {
          "name": "name",
          "type": "string"
        },
        {
          "name": "bidAmount",
          "type": "uint256"
        },
        {
          "name": "hasReceivedTokensBack",
          "type": "bool"
        }
      ],
      "payable": false,
      "stateMutability": "view",
      "type": "function"
    },
    {
      "constant": true,
      "inputs": [
        {
          "name": "bidderId",
          "type": "bytes32"
        }
      ],
      "name": "bidderHasTokensBack",
      "outputs": [
        {
          "name": "received",
          "type": "bool"
        }
      ],
      "payable": false,
      "stateMutability": "view",
      "type": "function"
    },
    {
      "constant": true,
      "inputs": [
        {
          "name": "groupIndex",
          "type": "uint256"
        },
        {
          "name": "bidderIndex",
          "type": "uint256"
        }
      ],
      "name": "hasWinnerGroup",
      "outputs": [
        {
          "name": "",
          "type": "bool"
        },
        {
          "name": "name",
          "type": "string"
        },
        {
          "name": "bidAmount",
          "type": "uint256"
        },
        {
          "name": "hasReceivedTokensBack",
          "type": "bool"
        }
      ],
      "payable": false,
      "stateMutability": "view",
      "type": "function"
    },
    {
      "constant": true,
      "inputs": [
        {
          "name": "bidderId",
          "type": "bytes32"
        }
      ],
      "name": "platformTaxPercent",
      "outputs": [
        {
          "name": "",
          "type": "uint256"
        }
      ],
      "payable": false,
      "stateMutability": "view",
      "type": "function"
    },
    {
      "constant": false,
      "inputs": [
        {
          "name": "groupIndex",
          "type": "uint256"
        },
        {
          "name": "bidderId",
          "type": "bytes32"
        },
        {
          "name": "name",
          "type": "string"
        },
        {
          "name": "value",
          "type": "uint256"
        }
      ],
      "name": "bid",
      "outputs": [
        {
          "name": "err",
          "type": "uint8"
        },
        {
          "name": "finalValue",
          "type": "uint256"
        },
        {
          "name": "groupGoal",
          "type": "uint256"
        },
        {
          "name": "goalReached",
          "type": "bool"
        }
      ],
      "payable": false,
      "stateMutability": "nonpayable",
      "type": "function"
    },
    {
      "constant": true,
      "inputs": [],
      "name": "getAmountForBeneficiary",
      "outputs": [
        {
          "name": "err",
          "type": "uint8"
        },
        {
          "name": "amount",
          "type": "uint256"
        }
      ],
      "payable": false,
      "stateMutability": "view",
      "type": "function"
    },
    {
      "constant": true,
      "inputs": [
        {
          "name": "groupIndex",
          "type": "uint256"
        },
        {
          "name": "bidderId",
          "type": "bytes32"
        },
        {
          "name": "name",
          "type": "string"
        },
        {
          "name": "value",
          "type": "uint256"
        }
      ],
      "name": "AM",
      "outputs": [
        {
          "name": "",
          "type": "address"
        },
        {
          "name": "finalValue",
          "type": "uint256"
        },
        {
          "name": "groupGoal",
          "type": "uint256"
        },
        {
          "name": "goalReached",
          "type": "bool"
        }
      ],
      "payable": false,
      "stateMutability": "view",
      "type": "function"
    },
    {
      "constant": true,
      "inputs": [],
      "name": "groupsReceivedTokensBack",
      "outputs": [
        {
          "name": "",
          "type": "uint256"
        },
        {
          "name": "amount",
          "type": "uint256"
        }
      ],
      "payable": false,
      "stateMutability": "view",
      "type": "function"
    },
    {
      "constant": true,
      "inputs": [
        {
          "name": "_accessManager",
          "type": "address"
        },
        {
          "name": "_currencySymbol",
          "type": "bytes32"
        },
        {
          "name": "_borrowerId",
          "type": "bytes32"
        },
        {
          "name": "_invoiceId",
          "type": "bytes32"
        },
        {
          "name": "_invoiceNumber",
          "type": "string"
        },
        {
          "name": "_invoiceAmount",
          "type": "uint256"
        },
        {
          "name": "_fundingGoal",
          "type": "uint256"
        },
        {
          "name": "_platformTaxPercent",
          "type": "uint256"
        },
        {
          "name": "_signedDocumentIPFSHash",
          "type": "string"
        },
        {
          "name": "_extraTime",
          "type": "uint256"
        }
      ],
      "name": "AM",
      "outputs": [
        {
          "name": "",
          "type": "address"
        }
      ],
      "payable": false,
      "stateMutability": "nonpayable",
      "type": "constructor"
    },
    {
      "constant": true,
      "inputs": [
        {
          "indexed": false,
          "name": "crowdsaleAddr",
          "type": "address"
        },
        {
          "indexed": false,
          "name": "groupIndex",
          "type": "uint256"
        },
        {
          "indexed": false,
          "name": "name",
          "type": "string"
        },
        {
          "indexed": false,
          "name": "goal",
          "type": "uint256"
        }
      ],
      "name": "EventGroupCreated",
      "outputs": [
        {
          "name": "",
          "type": "uint256"
        }
      ],
      "payable": false,
      "stateMutability": "view",
      "type": "event",
      "anonymous": false
    },
    {
      "inputs": [
        {
          "name": "crowdsaleAddr",
          "type": "address",
          "indexed": false
        },
        {
          "name": "groupIndex",
          "type": "uint256",
          "indexed": false
        },
        {
          "name": "_name",
          "type": "string",
          "indexed": false
        },
        {
          "name": "goal",
          "type": "uint256",
          "indexed": false
        },
        {
          "name": "_invoiceNumber",
          "type": "string"
        },
        {
          "name": "_invoiceAmount",
          "type": "uint256"
        },
        {
          "name": "_fundingGoal",
          "type": "uint256"
        },
        {
          "name": "_platformTaxPercent",
          "type": "uint256"
        },
        {
          "name": "_signedDocumentIPFSHash",
          "type": "string"
        },
        {
          "name": "_extraTime",
          "type": "uint256"
        }
      ],
      "payable": false,
      "stateMutability": "nonpayable",
      "type": "event",
      "anonymous": false,
      "name": "EventGroupGoalReached"
    },
    {
      "anonymous": false,
      "inputs": [
        {
          "indexed": false,
          "name": "crowdsaleAddr",
          "type": "address"
        },
        {
          "indexed": false,
          "name": "groupIndex",
          "type": "uint256"
        },
        {
          "indexed": false,
          "name": "bidderId",
          "type": "bytes32"
        },
        {
          "indexed": false,
          "name": "name",
          "type": "string"
        },
        {
          "indexed": false,
          "name": "value",
          "type": "uint256"
        }
      ],
      "name": "EventNewBid",
      "type": "event"
    },
    {
      "anonymous": false,
      "inputs": [
        {
          "indexed": false,
          "name": "crowdsaleAddr",
          "type": "address"
        },
        {
          "indexed": false,
          "name": "groupIndex",
          "type": "uint256"
        },
        {
          "indexed": false,
          "name": "_name",
          "type": "string"
        },
        {
          "indexed": false,
          "name": "goal",
          "type": "uint256"
        }
      ],
      "name": "EventCrowdsaleOpen",
      "type": "event"
    },
    {
      "anonymous": false,
      "inputs": [
        {
          "indexed": false,
          "name": "crowdsaleAddr",
          "type": "address"
        },
        {
          "indexed": false,
          "name": "reasonCode",
          "type": "uint8"
        },
        {
          "indexed": false,
          "name": "bidderId",
          "type": "bytes32"
        },
        {
          "indexed": false,
          "name": "name",
          "type": "string"
        },
        {
          "indexed": false,
          "name": "value",
          "type": "uint256"
        }
      ],
      "name": "EventCrowdsaleClosed",
      "type": "event"
    },
    {
      "anonymous": false,
      "inputs": [
        {
          "indexed": false,
          "name": "crowdsaleAddr",
          "type": "address"
        }
      ],
      "name": "EventCrowdsaleWaiting",
      "type": "event"
    },
    {
      "anonymous": false,
      "inputs": [
        {
          "indexed": false,
          "name": "crowdsaleAddr",
          "type": "address"
        },
        {
          "indexed": false,
          "name": "paidAmount",
          "type": "uint256"
        }
      ],
      "name": "EventPaymentReceived",
      "type": "event"
    },
    {
      "anonymous": false,
      "inputs": [
        {
          "indexed": false,
          "name": "crowdsaleAddr",
          "type": "address"
        }
      ],
      "name": "EventCrowdsaleCompleted",
      "type": "event"
    },
    {
      "anonymous": false,
      "inputs": [
        {
          "indexed": false,
          "name": "crowdsaleAddr",
          "type": "address"
        },
        {
          "indexed": false,
          "name": "paidAmount",
          "type": "uint256"
        }
      ],
      "name": "EventGroupCreationFailed",
      "type": "event"
    },
    {
      "anonymous": false,
      "inputs": [
        {
          "indexed": false,
          "name": "crowdsaleAddr",
          "type": "address"
        }
      ],
      "name": "EventCrowdsaleCompleted",
      "type": "event"
    },
    {
      "anonymous": false,
      "inputs": [
        {
          "indexed": false,
          "name": "crowdsaleAddr",
          "type": "address"
        }
      ],
      "name": "EventGroupCreationFailed",
      "type": "event"
    }
  ],
  "bytecode": "0x6060604052600c8054600160a060020a03191630600160a060020a031617905534156200002b57600080fd5b60405162002b6538038062002b65833981016040528080519190602001805191906020018051919060200180519190602001805182019190602001805191906020018051919060200180519190602001805182019190602001805160008054600160a060020a031916600160a060020a038e1617905560018b905560048a90556002899055915060039050868051620000c992916020019062000136565b506005859055600684905560088390556009828051620000ee92916020019062000136565b5042603c9190910201620151800160075550506000805460a060020a60ff0219167401000000000000000000000000000000000000000017905550620001db95505050505050565b828054600181600116156101000203166002900490600052602060002090601f016020900481019282601f106200017957805160ff1916838001178555620001a9565b82800160010185558215620001a9579182015b82811115620001a95782518255916020019190600101906200018c565b50620001b7929150620001bb565b5090565b620001d891905b80821115620001b75760008155600101620001c2565b90565b61297a80620001eb6000396000f300606060405236156101fe5763ffffffff60e060020a60003504166302ab72c481146102035780630cd87cff1461022457806312b17ade1461024b57806312fa769f1461027a57806315b204541461029f57806319a0e16d146102df578063200d2ed2146102f8578063246684731461032f57806329dcb0cf146103b957806343bf9936146103cc5780634e69d560146103df57806355d97ba8146104085780635cfa4d601461041b5780635e054efb1461042e5780636a20a8a1146104415780636fbefedf1461045457806370c86286146104675780637478901d1461047a5780637a3a0e841461048d5780637b69c9ae146104a057806385d8ed7d146104b35780638688b4df146104c95780638942e19d146104fe5780638a8f5af71461051157806396324bd414610524578063968c4209146105ea578063983c0a01146105fd578063a203886e14610610578063a29b8b9114610626578063a4d8a8da14610639578063a7b80b6c1461064c578063b503d8291461065f578063b84afbb41461072d578063ceb6065414610740578063cfece8ef146107ee578063dcb190e314610801578063dee50b2414610814578063e1c25467146108bc578063ec0a9974146108d2578063efd3bc0c146108e5578063f29c2e8b146108f8578063f52eb38514610956578063f7f01b4b14610969578063f97846011461097c575b600080fd5b341561020e57600080fd5b610222600160a060020a036004351661098f565b005b341561022f57600080fd5b610237610a42565b604051901515815260200160405180910390f35b341561025657600080fd5b61025e610a4c565b604051600160a060020a03909116815260200160405180910390f35b341561028557600080fd5b61028d610a5b565b60405190815260200160405180910390f35b34156102aa57600080fd5b6102b5600435610a61565b604051808460ff1660ff168152602001838152602001828152602001935050505060405180910390f35b34156102ea57600080fd5b610222600435602435610af2565b341561030357600080fd5b61030b610cea565b6040518082600581111561031b57fe5b60ff16815260200191505060405180910390f35b341561033a57600080fd5b610342610cfa565b60405160208082528190810183818151815260200191508051906020019080838360005b8381101561037e578082015183820152602001610366565b50505050905090810190601f1680156103ab5780820380516001836020036101000a031916815260200191505b509250505060405180910390f35b34156103c457600080fd5b61028d610d98565b34156103d757600080fd5b610237610d9e565b34156103ea57600080fd5b6103f2610e40565b60405160ff909116815260200160405180910390f35b341561041357600080fd5b610237610e5e565b341561042657600080fd5b61028d610e6c565b341561043957600080fd5b610237610e72565b341561044c57600080fd5b61028d610e81565b341561045f57600080fd5b61028d610e87565b341561047257600080fd5b61028d610e8d565b341561048557600080fd5b61028d610e93565b341561049857600080fd5b61028d610e99565b34156104ab57600080fd5b610237610e9f565b34156104be57600080fd5b610222600435610ea8565b34156104d457600080fd5b6104e2600435602435610fcc565b60405160ff909216825260208201526040908101905180910390f35b341561050957600080fd5b61022261105e565b341561051c57600080fd5b610342611117565b341561052f57600080fd5b61053a600435611182565b60405186815260408101859052606081018490526080810183905281151560a082015260c0602082018181528754600260001961010060018416150201909116049183018290529060e0830190889080156105d65780601f106105ab576101008083540402835291602001916105d6565b820191906000526020600020905b8154815290600101906020018083116105b957829003601f168201915b505097505050505050505060405180910390f35b34156105f557600080fd5b61028d6111ca565b341561060857600080fd5b6102376111d0565b341561061b57600080fd5b6102226004356112df565b341561063157600080fd5b61023761142b565b341561064457600080fd5b61028d611439565b341561065757600080fd5b61023761143f565b341561066a57600080fd5b6106fd60046024813581810190830135806020601f8201819004810201604051908101604052818152929190602084018383808284375094968635966020808201359750919550606081019450604090810135860180830194503592508291601f83018190048102019051908101604052818152929190602084018383808284375094965050933593506114c992505050565b60405160ff9094168452602084019290925260408084019190915290151560608301526080909101905180910390f35b341561073857600080fd5b61028d6115e3565b341561074b57600080fd5b6107566004356115e9565b604051808060200186815260200185815260200184815260200183151515158152602001828103825287818151815260200191508051906020019080838360005b838110156107af578082015183820152602001610797565b50505050905090810190601f1680156107dc5780820380516001836020036101000a031916815260200191505b50965050505050505060405180910390f35b34156107f957600080fd5b610237611876565b341561080c57600080fd5b61023761188a565b341561081f57600080fd5b61082d600435602435611898565b60405184815260408101839052811515606082015260806020820181815290820185818151815260200191508051906020019080838360005b8381101561087e578082015183820152602001610866565b50505050905090810190601f1680156108ab5780820380516001836020036101000a031916815260200191505b509550505050505060405180910390f35b34156108c757600080fd5b6102376004356119ff565b34156108dd57600080fd5b610237611a5f565b34156108f057600080fd5b61028d611a68565b341561090357600080fd5b6106fd600480359060248035919060649060443590810190830135806020601f820181900481020160405190810160405281815292919060208401838380828437509496505093359350611a6e92505050565b341561096157600080fd5b6104e261216e565b341561097457600080fd5b61025e6121dd565b341561098757600080fd5b61028d6121ec565b60008054600160a060020a031690630c68ba219033906040516020015260405160e060020a63ffffffff8416028152600160a060020a039091166004820152602401602060405180830381600087803b15156109ea57600080fd5b6102c65a03f115156109fb57600080fd5b505050604051805115156001149050610a1357600080fd5b6000805473ffffffffffffffffffffffffffffffffffffffff1916600160a060020a0392909216919091179055565b600f5460ff165b90565b600c54600160a060020a031681565b60105481565b6000818152600b602052604081206001810154815460029092015460ff161515610a945750600191506000905080610aeb565b610adc600a83815481101515610aa657fe5b906000526020600020906007020160030182815481101515610ac457fe5b906000526020600020906006020160010154856121f2565b151560011415610aeb57600092505b9193909250565b60008054600160a060020a0316906305fd22d09033906040516020015260405160e060020a63ffffffff8416028152600160a060020a039091166004820152602401602060405180830381600087803b1515610b4d57600080fd5b6102c65a03f11515610b5e57600080fd5b505050604051805115156001149050610b7657600080fd5b6001600a83815481101515610b8757fe5b906000526020600020906007020160030182815481101515610ba557fe5b60009182526020909120600690910201600501805460ff1916911515919091179055600a805483908110610bd557fe5b6000918252602090912060056007909202010180546001019055600a805483908110610bfd57fe5b6000918252602090912060036007909202010154600a805484908110610c1f57fe5b9060005260206000209060070201600501541415610ce6576001600a83815481101515610c4857fe5b60009182526020909120600790910201600601805460ff1916911515919091179055600d80546001908101909155600a541415610cac57600f5460ff1615610c9f57610c926122c7565b610c9a6122f0565b610ca7565b610ca76122c7565b610ce6565b600d54600a54600019011415610cc457610ca76122c7565b600d54600a54148015610cd95750600f5460ff165b15610ce657610ce66122f0565b5050565b60005460a060020a900460ff1681565b60038054600181600116156101000203166002900480601f016020809104026020016040519081016040528092919081815260200182805460018160011615610100020316600290048015610d905780601f10610d6557610100808354040283529160200191610d90565b820191906000526020600020905b815481529060010190602001808311610d7357829003601f168201915b505050505081565b60075481565b6000600754421115610e3a57600160005460a060020a900460ff166005811115610dc457fe5b1415610e23576000805460a060020a60ff02191660a160020a179055600c5460008051602061292f83398151915290600160a060020a03166001604051600160a060020a03909216825260ff1660208201526040908101905180910390a15b50600f805461ff0019166101001790556001610a49565b50600090565b6000805460a060020a900460ff166005811115610e5957fe5b905090565b601154610100900460ff1681565b600e5481565b60115462010000900460ff1681565b60105490565b60045481565b60025481565b60055481565b60065481565b60115460ff1681565b60008054600160a060020a0316906305fd22d09033906040516020015260405160e060020a63ffffffff8416028152600160a060020a039091166004820152602401602060405180830381600087803b1515610f0357600080fd5b6102c65a03f11515610f1457600080fd5b505050604051805115156001149050610f2c57600080fd5b600360005460a060020a900460ff166005811115610f4657fe5b1415610fc95760108190556000805460a060020a60ff02191674040000000000000000000000000000000000000000179055600c547f1d1d4459ddc6d370913114af16a65f5427c30a4bf34c206c0ac7aa5d1ccebcc890600160a060020a031682604051600160a060020a03909216825260208201526040908101905180910390a15b50565b6000818152600b60205260408120600181015481546002909201549194509060ff1615156110005750600190506000611057565b611048600a8581548110151561101257fe5b90600052602060002090600702016003018281548110151561103057fe5b906000526020600020906006020160010154846121f2565b15156001141561105757600091505b9250929050565b60008054600160a060020a0316906305fd22d09033906040516020015260405160e060020a63ffffffff8416028152600160a060020a039091166004820152602401602060405180830381600087803b15156110b957600080fd5b6102c65a03f115156110ca57600080fd5b5050506040518051151560011490506110e257600080fd5b6110ea611876565b156110f457600080fd5b6011805460ff19166001908117909155600a541415611115576111156122c7565b565b60098054600181600116156101000203166002900480601f016020809104026020016040519081016040528092919081815260200182805460018160011615610100020316600290048015610d905780601f10610d6557610100808354040283529160200191610d90565b600a80548290811061119057fe5b6000918252602090912060079091020180546002820154600483015460058401546006850154939550600190940193919290919060ff1686565b60015481565b60008054600160a060020a031663fda0895833836040516020015260405160e060020a63ffffffff8416028152600160a060020a039091166004820152602401602060405180830381600087803b151561122957600080fd5b6102c65a03f1151561123a57600080fd5b50505060405180511515600114905061125257600080fd5b600160005460a060020a900460ff16600581111561126c57fe5b14801561127a575060075442105b15610e3a576000805460a060020a60ff02191660a160020a179055600c5460008051602061292f83398151915290600160a060020a03166003604051600160a060020a03909216825260ff1660208201526040908101905180910390a1506001610a49565b600160005460a060020a900460ff1660058111156112f957fe5b1415610fc95760008054600160a060020a03169063fda089589033906040516020015260405160e060020a63ffffffff8416028152600160a060020a039091166004820152602401602060405180830381600087803b151561135a57600080fd5b6102c65a03f1151561136b57600080fd5b50505060405180511515600114905061138357600080fd5b61138b611876565b1561139557600080fd5b6000600a828154811015156113a657fe5b9060005260206000209060070201600401541115610fc957600e819055600f805460ff191660011790556000805460a060020a60ff02191660a160020a179055600c5460008051602061292f83398151915290600160a060020a03166002604051600160a060020a03909216825260ff1660208201526040908101905180910390a150565b600f54610100900460ff1681565b600e5490565b60008054600160a060020a031663fda0895833836040516020015260405160e060020a63ffffffff8416028152600160a060020a039091166004820152602401602060405180830381600087803b151561149857600080fd5b6102c65a03f115156114a957600080fd5b5050506040518051151560011490506114c157600080fd5b610e596123ba565b6000808080808080600160005460a060020a900460ff1660058111156114eb57fe5b14156115d45760008054600160a060020a0316906305fd22d09033906040516020015260405160e060020a63ffffffff8416028152600160a060020a039091166004820152602401602060405180830381600087803b151561154c57600080fd5b6102c65a03f1151561155d57600080fd5b50505060405180511515600114905061157557600080fd5b61157e8a610a61565b91945092509050600160ff841614156115bf5761159b8c8c61247b565b9097509150600160ff881614156115bf5760019650600095508594508493506115d4565b6115cb828b8b8b611a6e565b96509650965096505b50505095509550955095915050565b600a5490565b6115f16126b0565b6000806000806115ff6126c2565b600a80548890811061160d57fe5b906000526020600020906007020160e0604051908101604052908160008201548152602001600182018054600181600116156101000203166002900480601f0160208091040260200160405190810160405280929190818152602001828054600181600116156101000203166002900480156116ca5780601f1061169f576101008083540402835291602001916116ca565b820191906000526020600020905b8154815290600101906020018083116116ad57829003601f168201915b50505050508152602001600282015481526020016003820180548060200260200160405190810160405281815291906000602084015b8282101561181857600084815260209020600683020160c0604051908101604052908160008201548152602001600182015460001916600019168152602001600282018054600181600116156101000203166002900480601f0160208091040260200160405190810160405280929190818152602001828054600181600116156101000203166002900480156117d75780601f106117ac576101008083540402835291602001916117d7565b820191906000526020600020905b8154815290600101906020018083116117ba57829003601f168201915b505050918352505060038201546020808301919091526004830154604083015260059092015460ff1615156060909101529082526001929092019101611700565b5050509082525060048201546020808301919091526005830154604083015260069092015460ff161515606090910152909150810151816040015182606001515183608001518460c00151939b929a50909850965090945092505050565b600a546000901515610e3a57506001610a49565b600f54610100900460ff1690565b60006118a26126b0565b6000806118ad61270e565b600a8054889081106118bb57fe5b9060005260206000209060070201600301868154811015156118d957fe5b906000526020600020906006020160c0604051908101604052908160008201548152602001600182015460001916600019168152602001600282018054600181600116156101000203166002900480601f0160208091040260200160405190810160405280929190818152602001828054600181600116156101000203166002900480156119a85780601f1061197d576101008083540402835291602001916119a8565b820191906000526020600020905b81548152906001019060200180831161198b57829003601f168201915b505050918352505060038201546020808301919091526004830154604083015260059092015460ff161515606090910152909150810151816040015182606001518360a00151929a91995097509095509350505050565b6000806000806000806000611a1388610a61565b91975095509350611a248585611898565b9295509350909150611a38905088846121f2565b8015611a415750805b15611a4f5760019650611a54565b600096505b505050505050919050565b600f5460ff1681565b60085481565b60008080808080600160005460a060020a900460ff166005811115611a8f57fe5b14156121615760008054600160a060020a0316906305fd22d09033906040516020015260405160e060020a63ffffffff8416028152600160a060020a039091166004820152602401602060405180830381600087803b1515611af057600080fd5b6102c65a03f11515611b0157600080fd5b505050604051805115156001149050611b1957600080fd5b611b21610d9e565b151560011480611b2f575086155b80611b595750600a80548b908110611b4357fe5b9060005260206000209060070201600201546000145b15611b71576001955060009450849350839250612161565b600a80548b908110611b7f57fe5b90600052602060002090600702016002015487600a8c815481101515611ba157fe5b906000526020600020906007020160040154011115611c0757611c04600a8b815481101515611bcc57fe5b906000526020600020906007020160020154600a8c815481101515611bed57fe5b90600052602060002090600702016004015461267a565b96505b611c118a8a610fcc565b909250905060ff82161515611cf157611c68600a8b815481101515611c3257fe5b906000526020600020906007020160030182815481101515611c5057fe5b9060005260206000209060060201600301548861268c565b600a80548c908110611c7657fe5b906000526020600020906007020160030182815481101515611c9457fe5b90600052602060002090600602016003018190555042600a8b815481101515611cb957fe5b906000526020600020906007020160030182815481101515611cd757fe5b906000526020600020906006020160040181905550611e45565b600a80548b908110611cff57fe5b90600052602060002090600702016003018054806001018281611d22919061272f565b9160005260206000209060060201600060c060405190810160405280600a8f815481101515611d4d57fe5b6000918252602080832060036007909302019190910154835282018f9052604082018e9052606082018d905242608083015260a0909101529190508151815560208201516001820155604082015181600201908051611db0929160200190612760565b50606082015181600301556080820151816004015560a0820151600591909101805460ff191691151591909117905550506000898152600b602052604090208a9055600a8054600191908c908110611e0457fe5b60009182526020808320600360079093020191909101548c8352600b90915260409091209190036001808301919091556002909101805460ff191690911790555b611e6f600a8b815481101515611e5757fe5b9060005260206000209060070201600401548861268c565b600a80548c908110611e7d57fe5b6000918252602090912060046007909202010155600c547f020d565aeac279337d0f8cb762f74b62928f0ea6d0828d86a4ea97870bdf094790600160a060020a03168b8b8b8b604051600160a060020a038616815260208101859052604081018490526080810182905260a06060820181815290820184818151815260200191508051906020019080838360005b83811015611f23578082015183820152602001611f0b565b50505050905090810190601f168015611f505780820380516001836020036101000a031916815260200191505b50965050505050505060405180910390a1600a80548b908110611f6f57fe5b906000526020600020906007020160020154600a8b815481101515611f9057fe5b6000918252602090912060046007909202010154149250600183141561213357600e8a9055600f805460ff191660011790556000805460a060020a60ff02191660a160020a179055600c54600a80547f20c9276d9b5ff79d5c6efaa133058d2a43e37892b685a83069b0231c874e2b9092600160a060020a0316918d918290811061201757fe5b9060005260206000209060070201600101600a8e81548110151561203757fe5b906000526020600020906007020160020154604051600160a060020a038516815260208101849052606081018290526080604082018181528454600260001961010060018416150201909116049183018290529060a0830190859080156120df5780601f106120b4576101008083540402835291602001916120df565b820191906000526020600020905b8154815290600101906020018083116120c257829003601f168201915b50509550505050505060405180910390a1600c5460008051602061292f83398151915290600160a060020a03166000604051600160a060020a03909216825260ff1660208201526040908101905180910390a15b600087600a8c81548110151561214557fe5b6000918252602090912060026007909202010154919750955093505b5050945094509450949050565b600080600260005460a060020a900460ff16600581111561218b57fe5b14801561219b575060115460ff16155b156121d1576000600a600e548154811015156121b357fe5b906000526020600020906007020160040154819150915091506121d9565b506001905060005b9091565b600054600160a060020a031681565b600d5481565b6000805b60208110156122bb5782816020811061220b57fe5b1a7f0100000000000000000000000000000000000000000000000000000000000000027effffffffffffffffffffffffffffffffffffffffffffffffffffffffffffff1916848260208110151561225e57fe5b1a7f0100000000000000000000000000000000000000000000000000000000000000027effffffffffffffffffffffffffffffffffffffffffffffffffffffffffffff19161415156122b357600091506122c0565b6001016121f6565b600191505b5092915050565b6122cf611876565b156122d957600080fd5b6011805461ff001916610100179055610fc96123ba565b6122f8611876565b1561230257600080fd5b6011805462ff00001916620100001790556000805460a060020a60ff02191674050000000000000000000000000000000000000000179055600e54600a805460019290811061234d57fe5b60009182526020909120600790910201600601805460ff1916911515919091179055600c547f3bc1b8146e0b1b7a51adc8ede62e3c9cf811151417ee6a8909363897085d64ca90600160a060020a0316604051600160a060020a03909116815260200160405180910390a1565b6000600260005460a060020a900460ff1660058111156123d657fe5b1480156123ea575060115460ff1615156001145b8015612403575060115460ff6101009091041615156001145b15610a49576000805460a060020a60ff02191674030000000000000000000000000000000000000000179055600c547fa9fdf9096b8c0373371fa52baeb8e1baecf8721251574911d9437d9c99c8a02090600160a060020a0316604051600160a060020a03909116815260200160405180910390a190565b600080600160005460a060020a900460ff16600581111561249857fe5b1415611057576124a6610d9e565b1580156124b557506006548310155b80156124c357506005548311155b1561262557600a8054906124da90600183016127de565b905080600a828154811015156124ec57fe5b6000918252602090912060079091020155600a80548591908390811061250e57fe5b9060005260206000209060070201600101908051612530929160200190612760565b5082600a8281548110151561254157fe5b6000918252602090912060026007909202010155600c547f8fdc17bb3cd8cd793130123a1c9a98519b3b28fa44541199a38d18657d838f4b90600160a060020a0316828686604051600160a060020a0385168152602081018490526060810182905260806040820181815290820184818151815260200191508051906020019080838360005b838110156125df5780820151838201526020016125c7565b50505050905090810190601f16801561260c5780820380516001836020036101000a031916815260200191505b509550505050505060405180910390a160009150611057565b600c547f764103a1698975093d86c78464d483e3b327f438ddb3ff75224132d871f8abd490600160a060020a0316604051600160a060020a03909116815260200160405180910390a150600190506000611057565b60008282111561268657fe5b50900390565b60008282018381108015906126a15750828110155b15156126a957fe5b9392505050565b60206040519081016040526000815290565b60e060405190810160405280600081526020016126dd6126b0565b8152602001600081526020016126f16126b0565b815260200160008152602001600081526020016000151581525090565b60c060405190810160409081526000808352602083015281016126f16126b0565b81548183558181151161275b5760060281600602836000526020600020918201910161275b919061280a565b505050565b828054600181600116156101000203166002900490600052602060002090601f016020900481019282601f106127a157805160ff19168380011785556127ce565b828001600101855582156127ce579182015b828111156127ce5782518255916020019190600101906127b3565b506127da929150612854565b5090565b81548183558181151161275b5760070281600702836000526020600020918201910161275b919061286e565b610a4991905b808211156127da5760008082556001820181905561283160028301826128c9565b50600060038201819055600482015560058101805460ff19169055600601612810565b610a4991905b808211156127da576000815560010161285a565b610a4991905b808211156127da57600080825561288e60018301826128c9565b60028201600090556003820160006128a6919061290d565b50600060048201819055600582015560068101805460ff19169055600701612874565b50805460018160011615610100020316600290046000825580601f106128ef5750610fc9565b601f016020900490600052602060002090810190610fc99190612854565b5080546000825560060290600052602060002090810190610fc9919061280a56008b02276858c6e0fd7396421ae2db82efc389b1602bedb1ba520ee4e2241d06b7a165627a7a7230582094aeaf7fd7c66e103c76fc5b1cd978e4f3369c47848d7fba0f34961d7a0552570029",
  "source": "pragma solidity ^0.4.17;\n\nimport \"./SafeMath.sol\";\nimport \"./Utils.sol\";\nimport \"./withAccessManager.sol\";\n\n\n\n/// @title Crowdsale contract\ncontract Crowdsale is withAccessManager {\n\n    // EVENTS \n\n    event EventGroupCreated(address crowdsaleAddr, uint groupIndex, string name, uint goal);\n    event EventGroupGoalReached(address crowdsaleAddr, uint groupIndex, string _name, uint goal);\n    event EventNewBid(address crowdsaleAddr, uint groupIndex, bytes32 bidderId, string name, uint value);\n    event EventCrowdsaleOpen(address crowdsaleAddr);\n    event EventCrowdsaleClosed(address crowdsaleAddr, uint8 reasonCode);\n    event EventCrowdsaleWaiting(address crowdsaleAddr);\n    event EventPaymentReceived(address crowdsaleAddr, uint paidAmount);\n    event EventCrowdsaleCompleted(address crowdsaleAddr);\n    event EventGroupCreationFailed(address crowdsaleAddr);\n\n    // FIELDS \n\n    enum CrowdsaleCloseReasons { GroupGoalReached, DeadlineReached, BorrowerClosed, PopulousClosed }\n    enum States { Pending, Open, Closed, WaitingForInvoicePayment, PaymentReceived, Completed }\n\n    States public status;\n\n    bytes32 public currencySymbol;\n    bytes32 public invoiceId;\n    string public invoiceNumber;\n    bytes32 public borrowerId;\n    uint public invoiceAmount;\n    uint public fundingGoal;\n    uint public deadline;\n    uint public platformTaxPercent;\n\n    string public signedDocumentIPFSHash;\n\n    struct Bidder {\n        uint bidderIndex; // bidder index\n        bytes32 bidderId; // bidder id\n        string name; // bidder's name\n        uint bidAmount; // total bid amount\n        uint lastBidAt; // Timestamp of last bid\n        bool hasReceivedTokensBack; // This flag is set when losing group receives its tokens back or when winner group gets its winnings\n    }\n\n    struct Group {\n        uint groupIndex; // group index\n        string name; // group name\n        uint goal; // group goal\n        Bidder[] bidders; // group bidders\n        uint amountRaised; // amount raised by group\n        uint biddersReceivedTokensBack;\n        bool hasReceivedTokensBack; // This is set to true when the flag hasReceivedTokensBack is set to true for all bidders in the group\n    }\n\n    struct BidderInfo {\n        uint groupIndex;\n        uint bidderIndex;\n        bool inAGroup;\n    }\n\n    //Groups\n    Group[] public groups;\n\n    //bidderId => BidderInfo\n    mapping (bytes32 => BidderInfo) bidderGroupInfo;\n\n    address public crowdsaleaddr = address(this);\n\n    uint public groupsReceivedTokensBack;\n    uint public winnerGroupIndex;\n    bool public hasWinnerGroup;\n\n    bool public deadlineReached;\n    uint public paidAmount;\n\n    bool public sentToBeneficiary;\n    bool public sentToLosingGroups;\n    bool public sentToWinnerGroup;\n\n    // MODIFIERS\n\n    modifier onlyOpenCrowdsale() { if (status == States.Open) { _; } }\n\n\n    // NON-CONSTANT METHODS\n\n\n    //Constructor\n    /** @dev Creates a new Crowdsale contract instance for an invoice crowdsale.\n      * @param _accessManager The address of an access manager contract instance.\n      * @param _currencySymbol The currency symbol, e.g., GBP.\n      * @param _borrowerId The unique borrower ID.\n      * @param _invoiceId The unique invoice ID.\n      * @param _invoiceNumber The unique invoice number.\n      * @param _invoiceAmount The invoice amount.\n      * @param _fundingGoal The funding goal of the borrower.\n      * @param _platformTaxPercent The percentage charged by the platform\n      * @param _signedDocumentIPFSHash The hash of related invoice documentation saved on IPFS.\n      */\n    function Crowdsale(\n            address _accessManager,\n            bytes32 _currencySymbol,\n            bytes32 _borrowerId,\n            bytes32 _invoiceId,\n            string _invoiceNumber,\n            uint _invoiceAmount,\n            uint _fundingGoal,\n            uint _platformTaxPercent,\n            string _signedDocumentIPFSHash,\n            uint _extraTime)\n            public\n            withAccessManager(_accessManager)\n    {\n        currencySymbol = _currencySymbol;\n        borrowerId = _borrowerId;\n        invoiceId = _invoiceId;\n        invoiceNumber = _invoiceNumber;\n        invoiceAmount = _invoiceAmount;\n        fundingGoal = _fundingGoal;\n        platformTaxPercent = _platformTaxPercent;\n        signedDocumentIPFSHash = _signedDocumentIPFSHash;\n        deadline = now + 24 hours + _extraTime * 1 minutes;\n        status = States.Open;\n    }\n\n\n    // to do - add method to check if crowdsale ended without hasWinnerGroup = true\n    // and group length => 1\n    // then refund members with new refund function\n    // findBidder\n\n    // check if crowdsale deadline has reached and if there were any bids\n    // if deadline reached change state to closed with reason being deadline\n    // reached and no bids\n    // return true or false if deadline reached and no bids\n    function checkNoBids() public view returns(bool) {\n        if (groups.length == 0) {\n            return true;\n        }\n        return false;\n    }\n\n    /** @dev closes an open crowdsale\n      * @dev onlyPopulous allowed, i.e., populous address has to be msg.sender\n      * @dev function has to be implemented in populous.sol to be msg.sender\n      * @return success This is a boolean true/false indicating if crowdsale is closed.\n      */\n    function closeCrowdsale() public onlyServer returns(bool success) {\n        if (status == States.Open && now < deadline) {\n            status = States.Closed;\n            EventCrowdsaleClosed(crowdsaleaddr, uint8(CrowdsaleCloseReasons.PopulousClosed));\n            return true;\n        }\n        return false;\n    }\n\n    /** @dev Checks whether the invoice crowdsale deadline has passed or not.\n      * @return bool A boolean value indicating whether the deadline has passed or not.\n      */\n    function checkDeadline() public returns(bool) {\n        if (now > deadline) {\n            if (status == States.Open) {\n                status = States.Closed;\n                EventCrowdsaleClosed(crowdsaleaddr, uint8(CrowdsaleCloseReasons.DeadlineReached));\n            }\n            deadlineReached = true;\n            return true;\n        }\n        return false;\n    }\n\n    /** @dev Sets the 'hasReceivedTokensBack' for a bidder denoting they have received token refund and is restricted to populous.\n      * @param groupIndex The group id in a set of groups.\n      * @param bidderIndex The bidder id in a set of bidders within a group.\n      */\n    function setBidderHasReceivedTokensBack(uint groupIndex, uint bidderIndex) \n        public\n        onlyPopulous \n    {\n        groups[groupIndex].bidders[bidderIndex].hasReceivedTokensBack = true;\n        groups[groupIndex].biddersReceivedTokensBack++;\n\n        if (groups[groupIndex].biddersReceivedTokensBack == groups[groupIndex].bidders.length) {\n            groups[groupIndex].hasReceivedTokensBack = true;\n            groupsReceivedTokensBack++;\n            // comparing number of groups to number of groups that have received tokens back\n            // check if groupIndex = winner group Index\n            // check if hasWinnerGroup\n            // check if crowdsaleisclosed - already checked before state change\n            if (groups.length == 1) {\n                if (hasWinnerGroup) {\n                    setSentToLosingGroups();\n                    setSentToWinnerGroup();\n                } else {\n                    setSentToLosingGroups();\n                }\n            } else if (groups.length - 1 == groupsReceivedTokensBack) {\n                setSentToLosingGroups();\n            } else if (groups.length == groupsReceivedTokensBack && hasWinnerGroup) { // bug fix\n                setSentToWinnerGroup();\n            }\n        }\n    }\n\n\n    /** @dev Sets the paidAmount and restricted to populous.\n      * @param _paidAmount The amount paid.\n      */\n    function setPaidAmount(uint _paidAmount) public onlyPopulous {\n        if (status == States.WaitingForInvoicePayment) {\n            paidAmount = _paidAmount;\n            status = States.PaymentReceived;\n\n            EventPaymentReceived(crowdsaleaddr, paidAmount);\n        }\n    } \n\n    /** @dev Creates a new bidding group for bidders to bid to fund an invoice and assigns the group an index in the collection of groups.\n      * @param _name The group name.\n      * @param _goal The goal of the group.\n      * @return err 0 or 1 implying absence or presence of error.\n      * @return groupIndex The returned group index/location in a collection of other groups.\n      */\n    function createGroup(string _name, uint _goal)\n        private\n        onlyOpenCrowdsale\n        returns (uint8 err, uint groupIndex)\n    {\n        if(checkDeadline() == false && _goal >= fundingGoal && _goal <= invoiceAmount) {\n            groupIndex = groups.length++;\n            groups[groupIndex].groupIndex = groupIndex;\n            groups[groupIndex].name = _name;\n            groups[groupIndex].goal = _goal;\n\n            EventGroupCreated(crowdsaleaddr, groupIndex, _name, _goal);\n\n            return (0, groupIndex);\n        } else {\n            EventGroupCreationFailed(crowdsaleaddr);\n            return (1, 0);\n        }\n    }\n\n\n    /** @dev Allows a bidder to place a bid as part of a group within a set of groups.\n      * @param groupIndex The index/location of a group in a set of groups.\n      * @param bidderId The bidder id/location in a set of bidders.\n      * @param name The bidder name.\n      * @param value The bid value.\n      * @return err 0 or 1 implying absence or presence of error.\n      * @return finalValue All bidder's bids value.\n      * @return groupGoal An unsigned integer representing the group's goal.\n      * @return goalReached A boolean value indicating whether the group goal has reached or not.\n      */\n    function bid(uint groupIndex, bytes32 bidderId, string name, uint value)\n        public\n        onlyOpenCrowdsale\n        onlyPopulous\n        returns (uint8 err, uint finalValue, uint groupGoal, bool goalReached)\n    {\n        if(checkDeadline() == true || value == 0 || groups[groupIndex].goal == 0) {\n            return (1, 0, 0, false);\n        }\n        // checking if amount raised by group and bid value exceed the group's goal\n        if (groups[groupIndex].amountRaised + value > groups[groupIndex].goal) {\n            value = SafeMath.safeSub(groups[groupIndex].goal, groups[groupIndex].amountRaised);\n        }\n\n        uint8 finderErr;\n        uint bidderIndex;\n        // searching for bidder\n        (finderErr, bidderIndex) = findBidder(groupIndex, bidderId);\n        \n        if (finderErr == 0) {\n            // if bidder found in a group, set timestamp of last bid and add to their bid amount\n            groups[groupIndex].bidders[bidderIndex].bidAmount = SafeMath.safeAdd(groups[groupIndex].bidders[bidderIndex].bidAmount, value);\n            groups[groupIndex].bidders[bidderIndex].lastBidAt = now;\n\n        } else {\n\n            // adding the bidder to a group if not found\n            groups[groupIndex].bidders.push(Bidder(groups[groupIndex].bidders.length, bidderId, name, value, now, false));\n            \n            // linking bidderIndex and groupIndex to bidder id for easy lookup\n            bidderGroupInfo[bidderId].groupIndex = groupIndex;\n            bidderGroupInfo[bidderId].bidderIndex = groups[groupIndex].bidders.length - 1;\n            bidderGroupInfo[bidderId].inAGroup = true;\n        }\n        // adding bid value to amount raised for the group using the group index to locate group in groups array\n        groups[groupIndex].amountRaised = SafeMath.safeAdd(groups[groupIndex].amountRaised, value);\n\n        EventNewBid(crowdsaleaddr, groupIndex, bidderId, name, value);\n        // boolean value to check if goal has reached\n        goalReached = groups[groupIndex].amountRaised == groups[groupIndex].goal;\n        // using the above boolean value to set the winning group and set the status of the crowdsale to closed\n        if (goalReached == true) {\n            winnerGroupIndex = groupIndex;\n            hasWinnerGroup = true;\n            status = States.Closed;\n            // event denoting groupGoalReached\n            EventGroupGoalReached(crowdsaleaddr, groupIndex, groups[groupIndex].name, groups[groupIndex].goal);\n            // event denoting crowdsaleClosed\n            EventCrowdsaleClosed(crowdsaleaddr, uint8(CrowdsaleCloseReasons.GroupGoalReached));\n        }\n\n        return (0, value, groups[groupIndex].goal, goalReached);\n    }\n\n    /** @dev Allows a first time bidder to create a new group if they do not belong to a group\n      * @dev and place an intial bid.\n      * @dev This function creates a group and calls the bid() function.\n      * @param groupName The name of the new investor group to be created.\n      * @param goal The group funding goal.\n      * @param bidderId The bidder id/location in a set of bidders.\n      * @param name The bidder name.\n      * @param value The bid value.\n      * @return err 0 or 1 implying absence or presence of error.\n      * @return finalValue All bidder's bids value.\n      * @return groupGoal An unsigned integer representing the group's goal.\n      * @return goalReached A boolean value indicating whether the group goal has reached or not.\n      */\n    function initialBid(string groupName, uint goal, bytes32 bidderId, string name, uint value)\n        public\n        onlyOpenCrowdsale\n        onlyPopulous\n        returns (uint8 err, uint finalValue, uint groupGoal, bool goalReached)\n    {      \n        uint8 finderErr;\n        uint groupIndex;\n        uint bidderIndex;\n        // searching for bidder\n        (finderErr, groupIndex, bidderIndex) = findBidder(bidderId);\n        // check that bidder is in a group -> call bid()\n        if (finderErr == 1) {\n            // if bidder is not in a group, create group - > get group index ->  call bid() with group index \n            // bidder is not in any group. New group can be created at this point.\n            (err, groupIndex) = createGroup(groupName, goal);\n            \n            if (err == 1) {\n                return (1, 0, 0, false);\n            }\n        }\n        return bid(groupIndex, bidderId, name, value);\n        \n    }\n\n    /** @dev Allows a borrower to choose a bid winner group and checks amount raised from that group is > 0.\n      * @param groupIndex The selected index/location of the group in the groups array.\n      */\n    function borrowerChooseWinner(uint groupIndex)\n        public\n        onlyOpenCrowdsale\n        onlyServer\n    {\n        require(!checkNoBids());\n        if (groups[groupIndex].amountRaised > 0) {\n            winnerGroupIndex = groupIndex;\n            hasWinnerGroup = true;\n            status = States.Closed;\n\n            EventCrowdsaleClosed(crowdsaleaddr, uint8(CrowdsaleCloseReasons.BorrowerClosed));\n        }\n    }\n\n    \n\n    // calls the _waitingForPayment method\n    function waitingForPayment() public onlyServer returns(bool) {\n        return _waitingForPayment();\n    }\n\n    /** @dev Sets the status to a state of '_waitingForPayment'.\n      * @dev If the current status is closed, sentToBeneficiary and sentToLosingGroups are true.\n      * @return bool A boolean value true or false.\n      */\n    function _waitingForPayment() private returns(bool) {\n        if (status == States.Closed && sentToBeneficiary == true && sentToLosingGroups == true) {\n            // Tokens have been sent to beneficiary\n            // Tokens have been sent to loser groups\n            status = States.WaitingForInvoicePayment;\n            EventCrowdsaleWaiting(crowdsaleaddr);\n        }\n    }\n\n    /** @dev Sets the 'sentToBeneficiary' boolean variable to true.\n      * @dev Only populous can use this method.\n      */\n    function setSentToBeneficiary() public onlyPopulous {\n        require(!checkNoBids());\n        \n\n        sentToBeneficiary = true;\n\n        // We have only 1 group (the winning group) and we set \n        // the losing groups as refunded automatically.\n        if (groups.length == 1) {\n            setSentToLosingGroups();\n        }\n        \n    }\n\n    /** @dev Sets the sent 'setSentToLosingGroups' boolean variable to true.\n      */\n    function setSentToLosingGroups() private {\n        require(!checkNoBids());\n        sentToLosingGroups = true;\n        \n        _waitingForPayment();\n    }\n\n    /** @dev Sets the sent 'sentToWinnerGroup' boolean variable to true.\n      * @dev Sets the status of the crowdsale to completed\n      * @dev Sets the boolean 'hasReceivedTokensBack' variable of the winning group to true\n      */\n    function setSentToWinnerGroup() private {\n        require(!checkNoBids());\n\n        sentToWinnerGroup = true;\n        status = States.Completed;\n        groups[winnerGroupIndex].hasReceivedTokensBack = true;\n        \n        EventCrowdsaleCompleted(crowdsaleaddr);\n    }\n\n\n    // CONSTANT METHODS\n\n    /** @dev Gets bool indicating crowdsale deadline has reached\n      * @return bool deadlineReached\n      */\n    function getDeadlineReached() public view returns (bool) {\n        return deadlineReached;\n    }\n    \n    /** @dev Gets bool hasWinnerGroup for crowdsale\n      * @return bool hasWinnerGroup.\n      */\n    function getHasWinnerGroup() public view returns (bool) {\n        return hasWinnerGroup;\n    }\n    \n    /** @dev Gets the paid amount \n      * @return uint The paid amount.\n      */\n    function getPaidAmount() public view returns (uint) {\n        return paidAmount;\n    }\n\n    /** @dev Gets the winning group index \n      * @return uint The index for winning group.\n      */\n    function getWinnerGroupIndex() public view returns (uint) {\n        return winnerGroupIndex;\n    }\n\n    /** @dev Gets the current status.\n      * @return uint8 The returned status.\n      */\n    function getStatus() public view returns (uint8) {\n        return uint8(status);\n    }\n\n    /** @dev Gets the number of groups in the groups array.\n      * @return uint The number of bidding groups in the crowdsale.\n      */\n    function getGroupsCount() public view returns (uint) {\n        return groups.length;\n    }\n\n    \n    /** @dev Checks if a bidder in any bidding group\n      * has received their tokens back.\n      * @param bidderId The bidder ID\n      * @return received The boolean true/false indicating token received or not.\n      */\n    function bidderHasTokensBack (bytes32 bidderId) public view returns(bool received) {\n        uint8 err;\n        uint groupIndex;\n        uint bidderIndex;\n        (err, groupIndex, bidderIndex) = findBidder(bidderId);\n        bytes32 bidder;\n        uint bidAmount;\n        bool hasReceivedTokensBack;\n        (bidder, , bidAmount, hasReceivedTokensBack) = getGroupBidder(groupIndex, bidderIndex);\n        if (Utils.equal(bidderId, bidder) && hasReceivedTokensBack) {\n            return true;\n        }\n        return false;\n\n    }\n\n\n    /** @dev Gets the details of a group located by its index/location in the group array..\n      * @param groupIndex The location of a group within the groups array variable.\n      * @return name The group name.\n      * @return goal The amount representing the group funding goal.\n      * @return biddersCount The number of bidders in the bidding group.\n      * @return amountRaised The amount of tokens raised by the group during crowdsale.\n      * @return hasReceivedTokensBack A boolean value indicating if group has been funded after crowdsale.\n      */ \n    function getGroup(uint groupIndex)\n        public view\n        returns (string name, uint goal, uint biddersCount, uint amountRaised, bool hasReceivedTokensBack)\n    {\n        Group memory g = groups[groupIndex];\n\n        return (g.name, g.goal, g.bidders.length, g.amountRaised, g.hasReceivedTokensBack);\n    }\n\n    /** @dev Gets a bidders details from a group.\n      * @param groupIndex The location of a group in the groups array.\n      * @param bidderIndex The location of a bidder in the bidders arrays of a group\n      * @return bidderId The bidder ID.\n      * @return name The bidder name.\n      * @return bidAmount The bid amount.\n      * @return hasReceivedTokensBack A boolean value to indicate whether the loosing group has received a refund of their tokens.\n      */\n    function getGroupBidder(uint groupIndex, uint bidderIndex)\n        public view\n        returns (bytes32 bidderId, string name, uint bidAmount, bool hasReceivedTokensBack)\n    {\n        Bidder memory b = groups[groupIndex].bidders[bidderIndex];\n\n        return (b.bidderId, b.name, b.bidAmount, b.hasReceivedTokensBack);\n    }\n\n    /** @dev Finds a bidder in a list of bidders with bidder ID.\n      * @param bidderId The bytes32 bidder ID.\n      * @return err 0 or 1 implying absence or presence of error.\n      * @return bidderIndex The location of the bidder in bidders array.\n      * @return groupIndex The location of the bidders group in the groups array.\n      */\n    function findBidder(bytes32 bidderId) public view returns (uint8 err, uint groupIndex, uint bidderIndex) {\n        bidderIndex = bidderGroupInfo[bidderId].bidderIndex;\n        groupIndex = bidderGroupInfo[bidderId].groupIndex;\n        if (!bidderGroupInfo[bidderId].inAGroup) {\n            return (1, 0, 0);\n        } else if (Utils.equal(groups[groupIndex].bidders[bidderIndex].bidderId, bidderId) == true) {\n            return (0, groupIndex, bidderIndex);\n        }\n        \n        /* for(groupIndex = 0; groupIndex < groups.length; groupIndex++) {\n            for(bidderIndex = 0; bidderIndex < groups[groupIndex].bidders.length; bidderIndex++) {\n                if (Utils.equal(groups[groupIndex].bidders[bidderIndex].bidderId, bidderId) == true) {\n                    return (0, groupIndexes[bidderIndex], bidderIndexes[bidderId]);\n                }\n            }\n        }\n        return (1, 0, 0); */\n    }\n\n    /** @dev Finds a bidder in a list of bidders with bidder ID and group index.\n      * @param groupIndex The location of a group in the groups array.\n      * @param bidderIndex The location of a bidder in the bidders arrays of a group\n      * @return err 0 or 1 implying absence or presence of error.\n      * @return bidderIndex The location of the bidder in bidders array.\n      */\n    function findBidder(uint groupIndex, bytes32 bidderId) public view returns (uint8 err, uint bidderIndex) {\n        bidderIndex = bidderGroupInfo[bidderId].bidderIndex;\n        groupIndex = bidderGroupInfo[bidderId].groupIndex;\n        if (!bidderGroupInfo[bidderId].inAGroup) {\n            return (1, 0);\n        } else if (Utils.equal(groups[groupIndex].bidders[bidderIndex].bidderId, bidderId) == true) {\n            return (0, bidderIndex);\n        }\n        /* for(bidderIndex = 0; bidderIndex < groups[groupIndex].bidders.length; bidderIndex++) {\n            if (Utils.equal(groups[groupIndex].bidders[bidderIndex].bidderId, bidderId) == true) {\n                return (0, bidderIndexes[bidderId]);\n            }\n        }\n        return (1, 0);  */ \n    }\n\n    /** @dev Gets beneficiary's token amount after bidding is closed.\n      * @return amount The total bid amount.\n      * @return err 0 or 1 implying absence or presence of error.\n      */\n    function getAmountForBeneficiary() public view returns (uint8 err, uint amount) {\n        if (status == States.Closed && sentToBeneficiary == false) {\n            // winner group will be zero by default but hasWinnerGroup = False\n            // in that case, funding beneficiary should fail\n            // previously, it still tries to get amountRaised for group with index = 0\n            return (0, groups[winnerGroupIndex].amountRaised);\n        } else {\n            return (1, 0);\n        }\n    }\n\n}",
  "sourcePath": "/Users/najienka/Desktop/populous-smartcontracts/contracts/Crowdsale.sol",
  "schemaVersion": "1.0.0",
  "updatedAt": "2018-01-24T11:06:15.215Z"
}