{
  "contractName": "CrowdsaleManager",
  "abi": [
    {
      "constant": false,
      "inputs": [
        {
          "name": "_accessManager",
          "type": "address"
        }
      ],
      "name": "updateAccessManager",
      "outputs": [],
      "payable": false,
      "stateMutability": "nonpayable",
      "type": "function"
    },
    {
      "constant": false,
      "inputs": [
        {
          "name": "_currencySymbol",
          "type": "bytes32"
        },
        {
          "name": "_borrowerId",
          "type": "bytes32"
        },
        {
          "name": "_invoiceId",
          "type": "bytes32"
        },
        {
          "name": "_invoiceNumber",
          "type": "string"
        },
        {
          "name": "_invoiceAmount",
          "type": "uint256"
        },
        {
          "name": "_fundingGoal",
          "type": "uint256"
        },
        {
          "name": "_platformTaxPercent",
          "type": "uint256"
        },
        {
          "name": "_signedDocumentIPFSHash",
          "type": "string"
        },
        {
          "name": "_extraTime",
          "type": "uint256"
        }
      ],
      "name": "createCrowdsale",
      "outputs": [
        {
          "name": "crowdsaleAddr",
          "type": "address"
        }
      ],
      "payable": false,
      "stateMutability": "nonpayable",
      "type": "function"
    },
    {
      "constant": true,
      "inputs": [],
      "name": "AM",
      "outputs": [
        {
          "name": "",
          "type": "address"
        }
      ],
      "payable": false,
      "stateMutability": "view",
      "type": "function"
    },
    {
      "inputs": [
        {
          "name": "_accessManager",
          "type": "address"
        }
      ],
      "payable": false,
      "stateMutability": "nonpayable",
      "type": "constructor"
    }
  ],
  "bytecode": "0x6060604052341561000f57600080fd5b6040516020806130d98339810160405280805160008054600160a060020a03909216600160a060020a03199092169190911790555050613085806100546000396000f300606060405263ffffffff60e060020a60003504166302ab72c4811461003957806348f111101461005a578063f7f01b4b1461012957600080fd5b341561004457600080fd5b610058600160a060020a036004351661013c565b005b341561006557600080fd5b61010d600480359060248035916044359160849060643590810190830135806020601f820181900481020160405190810160405281815292919060208401838380828437509496863596602080820135975060408083013597509295506080820194506060909101358501808201935035918291601f83018190048102019051908101604052818152929190602084018383808284375094965050933593506101ef92505050565b604051600160a060020a03909116815260200160405180910390f35b341561013457600080fd5b61010d6104d5565b60008054600160a060020a031690630c68ba219033906040516020015260405160e060020a63ffffffff8416028152600160a060020a039091166004820152602401602060405180830381600087803b151561019757600080fd5b6102c65a03f115156101a857600080fd5b5050506040518051151560011490506101c057600080fd5b6000805473ffffffffffffffffffffffffffffffffffffffff1916600160a060020a0392909216919091179055565b60008054600160a060020a03166305fd22d033836040516020015260405160e060020a63ffffffff8416028152600160a060020a039091166004820152602401602060405180830381600087803b151561024857600080fd5b6102c65a03f1151561025957600080fd5b50505060405180511515600114905061027157600080fd5b6000898152600260205260409081902087918990518082805190602001908083835b602083106102b25780518252601f199092019160209182019101610293565b6001836020036101000a0380198251168184511680821785525050505050509050019150509081526020016040519081900390205414156102f257600080fd5b8585106102fe57600080fd5b6000898152600260205260409081902087918990518082805190602001908083835b6020831061033f5780518252601f199092019160209182019101610320565b6001836020036101000a03801982511681845116808217855250505050505090500191505090815260200160405190819003902055600054600160a060020a03168a8a8a8a8a8a8a8a8a6103916104e4565b600160a060020a038b168152602081018a9052604081018990526060810188905260a0810186905260c0810185905260e0810184905261012081018290526101406080820181815290610100830190830189818151815260200191508051906020019080838360005b838110156104125780820151838201526020016103fa565b50505050905090810190601f16801561043f5780820380516001836020036101000a031916815260200191505b50838103825285818151815260200191508051906020019080838360005b8381101561047557808201518382015260200161045d565b50505050905090810190601f1680156104a25780820380516001836020036101000a031916815260200191505b509c50505050505050505050505050604051809103906000f08015156104c757600080fd5b9a9950505050505050505050565b600054600160a060020a031681565b604051612b65806104f58339019056006060604052600c8054600160a060020a03191630600160a060020a031617905534156200002b57600080fd5b60405162002b6538038062002b65833981016040528080519190602001805191906020018051919060200180519190602001805182019190602001805191906020018051919060200180519190602001805182019190602001805160008054600160a060020a031916600160a060020a038e1617905560018b905560048a90556002899055915060039050868051620000c992916020019062000136565b506005859055600684905560088390556009828051620000ee92916020019062000136565b5042603c9190910201620151800160075550506000805460a060020a60ff0219167401000000000000000000000000000000000000000017905550620001db95505050505050565b828054600181600116156101000203166002900490600052602060002090601f016020900481019282601f106200017957805160ff1916838001178555620001a9565b82800160010185558215620001a9579182015b82811115620001a95782518255916020019190600101906200018c565b50620001b7929150620001bb565b5090565b620001d891905b80821115620001b75760008155600101620001c2565b90565b61297a80620001eb6000396000f300606060405236156101fe5763ffffffff60e060020a60003504166302ab72c481146102035780630cd87cff1461022457806312b17ade1461024b57806312fa769f1461027a57806315b204541461029f57806319a0e16d146102df578063200d2ed2146102f8578063246684731461032f57806329dcb0cf146103b957806343bf9936146103cc5780634e69d560146103df57806355d97ba8146104085780635cfa4d601461041b5780635e054efb1461042e5780636a20a8a1146104415780636fbefedf1461045457806370c86286146104675780637478901d1461047a5780637a3a0e841461048d5780637b69c9ae146104a057806385d8ed7d146104b35780638688b4df146104c95780638942e19d146104fe5780638a8f5af71461051157806396324bd414610524578063968c4209146105ea578063983c0a01146105fd578063a203886e14610610578063a29b8b9114610626578063a4d8a8da14610639578063a7b80b6c1461064c578063b503d8291461065f578063b84afbb41461072d578063ceb6065414610740578063cfece8ef146107ee578063dcb190e314610801578063dee50b2414610814578063e1c25467146108bc578063ec0a9974146108d2578063efd3bc0c146108e5578063f29c2e8b146108f8578063f52eb38514610956578063f7f01b4b14610969578063f97846011461097c575b600080fd5b341561020e57600080fd5b610222600160a060020a036004351661098f565b005b341561022f57600080fd5b610237610a42565b604051901515815260200160405180910390f35b341561025657600080fd5b61025e610a4c565b604051600160a060020a03909116815260200160405180910390f35b341561028557600080fd5b61028d610a5b565b60405190815260200160405180910390f35b34156102aa57600080fd5b6102b5600435610a61565b604051808460ff1660ff168152602001838152602001828152602001935050505060405180910390f35b34156102ea57600080fd5b610222600435602435610af2565b341561030357600080fd5b61030b610cea565b6040518082600581111561031b57fe5b60ff16815260200191505060405180910390f35b341561033a57600080fd5b610342610cfa565b60405160208082528190810183818151815260200191508051906020019080838360005b8381101561037e578082015183820152602001610366565b50505050905090810190601f1680156103ab5780820380516001836020036101000a031916815260200191505b509250505060405180910390f35b34156103c457600080fd5b61028d610d98565b34156103d757600080fd5b610237610d9e565b34156103ea57600080fd5b6103f2610e40565b60405160ff909116815260200160405180910390f35b341561041357600080fd5b610237610e5e565b341561042657600080fd5b61028d610e6c565b341561043957600080fd5b610237610e72565b341561044c57600080fd5b61028d610e81565b341561045f57600080fd5b61028d610e87565b341561047257600080fd5b61028d610e8d565b341561048557600080fd5b61028d610e93565b341561049857600080fd5b61028d610e99565b34156104ab57600080fd5b610237610e9f565b34156104be57600080fd5b610222600435610ea8565b34156104d457600080fd5b6104e2600435602435610fcc565b60405160ff909216825260208201526040908101905180910390f35b341561050957600080fd5b61022261105e565b341561051c57600080fd5b610342611117565b341561052f57600080fd5b61053a600435611182565b60405186815260408101859052606081018490526080810183905281151560a082015260c0602082018181528754600260001961010060018416150201909116049183018290529060e0830190889080156105d65780601f106105ab576101008083540402835291602001916105d6565b820191906000526020600020905b8154815290600101906020018083116105b957829003601f168201915b505097505050505050505060405180910390f35b34156105f557600080fd5b61028d6111ca565b341561060857600080fd5b6102376111d0565b341561061b57600080fd5b6102226004356112df565b341561063157600080fd5b61023761142b565b341561064457600080fd5b61028d611439565b341561065757600080fd5b61023761143f565b341561066a57600080fd5b6106fd60046024813581810190830135806020601f8201819004810201604051908101604052818152929190602084018383808284375094968635966020808201359750919550606081019450604090810135860180830194503592508291601f83018190048102019051908101604052818152929190602084018383808284375094965050933593506114c992505050565b60405160ff9094168452602084019290925260408084019190915290151560608301526080909101905180910390f35b341561073857600080fd5b61028d6115e3565b341561074b57600080fd5b6107566004356115e9565b604051808060200186815260200185815260200184815260200183151515158152602001828103825287818151815260200191508051906020019080838360005b838110156107af578082015183820152602001610797565b50505050905090810190601f1680156107dc5780820380516001836020036101000a031916815260200191505b50965050505050505060405180910390f35b34156107f957600080fd5b610237611876565b341561080c57600080fd5b61023761188a565b341561081f57600080fd5b61082d600435602435611898565b60405184815260408101839052811515606082015260806020820181815290820185818151815260200191508051906020019080838360005b8381101561087e578082015183820152602001610866565b50505050905090810190601f1680156108ab5780820380516001836020036101000a031916815260200191505b509550505050505060405180910390f35b34156108c757600080fd5b6102376004356119ff565b34156108dd57600080fd5b610237611a5f565b34156108f057600080fd5b61028d611a68565b341561090357600080fd5b6106fd600480359060248035919060649060443590810190830135806020601f820181900481020160405190810160405281815292919060208401838380828437509496505093359350611a6e92505050565b341561096157600080fd5b6104e261216e565b341561097457600080fd5b61025e6121dd565b341561098757600080fd5b61028d6121ec565b60008054600160a060020a031690630c68ba219033906040516020015260405160e060020a63ffffffff8416028152600160a060020a039091166004820152602401602060405180830381600087803b15156109ea57600080fd5b6102c65a03f115156109fb57600080fd5b505050604051805115156001149050610a1357600080fd5b6000805473ffffffffffffffffffffffffffffffffffffffff1916600160a060020a0392909216919091179055565b600f5460ff165b90565b600c54600160a060020a031681565b60105481565b6000818152600b602052604081206001810154815460029092015460ff161515610a945750600191506000905080610aeb565b610adc600a83815481101515610aa657fe5b906000526020600020906007020160030182815481101515610ac457fe5b906000526020600020906006020160010154856121f2565b151560011415610aeb57600092505b9193909250565b60008054600160a060020a0316906305fd22d09033906040516020015260405160e060020a63ffffffff8416028152600160a060020a039091166004820152602401602060405180830381600087803b1515610b4d57600080fd5b6102c65a03f11515610b5e57600080fd5b505050604051805115156001149050610b7657600080fd5b6001600a83815481101515610b8757fe5b906000526020600020906007020160030182815481101515610ba557fe5b60009182526020909120600690910201600501805460ff1916911515919091179055600a805483908110610bd557fe5b6000918252602090912060056007909202010180546001019055600a805483908110610bfd57fe5b6000918252602090912060036007909202010154600a805484908110610c1f57fe5b9060005260206000209060070201600501541415610ce6576001600a83815481101515610c4857fe5b60009182526020909120600790910201600601805460ff1916911515919091179055600d80546001908101909155600a541415610cac57600f5460ff1615610c9f57610c926122c7565b610c9a6122f0565b610ca7565b610ca76122c7565b610ce6565b600d54600a54600019011415610cc457610ca76122c7565b600d54600a54148015610cd95750600f5460ff165b15610ce657610ce66122f0565b5050565b60005460a060020a900460ff1681565b60038054600181600116156101000203166002900480601f016020809104026020016040519081016040528092919081815260200182805460018160011615610100020316600290048015610d905780601f10610d6557610100808354040283529160200191610d90565b820191906000526020600020905b815481529060010190602001808311610d7357829003601f168201915b505050505081565b60075481565b6000600754421115610e3a57600160005460a060020a900460ff166005811115610dc457fe5b1415610e23576000805460a060020a60ff02191660a160020a179055600c5460008051602061292f83398151915290600160a060020a03166001604051600160a060020a03909216825260ff1660208201526040908101905180910390a15b50600f805461ff0019166101001790556001610a49565b50600090565b6000805460a060020a900460ff166005811115610e5957fe5b905090565b601154610100900460ff1681565b600e5481565b60115462010000900460ff1681565b60105490565b60045481565b60025481565b60055481565b60065481565b60115460ff1681565b60008054600160a060020a0316906305fd22d09033906040516020015260405160e060020a63ffffffff8416028152600160a060020a039091166004820152602401602060405180830381600087803b1515610f0357600080fd5b6102c65a03f11515610f1457600080fd5b505050604051805115156001149050610f2c57600080fd5b600360005460a060020a900460ff166005811115610f4657fe5b1415610fc95760108190556000805460a060020a60ff02191674040000000000000000000000000000000000000000179055600c547f1d1d4459ddc6d370913114af16a65f5427c30a4bf34c206c0ac7aa5d1ccebcc890600160a060020a031682604051600160a060020a03909216825260208201526040908101905180910390a15b50565b6000818152600b60205260408120600181015481546002909201549194509060ff1615156110005750600190506000611057565b611048600a8581548110151561101257fe5b90600052602060002090600702016003018281548110151561103057fe5b906000526020600020906006020160010154846121f2565b15156001141561105757600091505b9250929050565b60008054600160a060020a0316906305fd22d09033906040516020015260405160e060020a63ffffffff8416028152600160a060020a039091166004820152602401602060405180830381600087803b15156110b957600080fd5b6102c65a03f115156110ca57600080fd5b5050506040518051151560011490506110e257600080fd5b6110ea611876565b156110f457600080fd5b6011805460ff19166001908117909155600a541415611115576111156122c7565b565b60098054600181600116156101000203166002900480601f016020809104026020016040519081016040528092919081815260200182805460018160011615610100020316600290048015610d905780601f10610d6557610100808354040283529160200191610d90565b600a80548290811061119057fe5b6000918252602090912060079091020180546002820154600483015460058401546006850154939550600190940193919290919060ff1686565b60015481565b60008054600160a060020a031663fda0895833836040516020015260405160e060020a63ffffffff8416028152600160a060020a039091166004820152602401602060405180830381600087803b151561122957600080fd5b6102c65a03f1151561123a57600080fd5b50505060405180511515600114905061125257600080fd5b600160005460a060020a900460ff16600581111561126c57fe5b14801561127a575060075442105b15610e3a576000805460a060020a60ff02191660a160020a179055600c5460008051602061292f83398151915290600160a060020a03166003604051600160a060020a03909216825260ff1660208201526040908101905180910390a1506001610a49565b600160005460a060020a900460ff1660058111156112f957fe5b1415610fc95760008054600160a060020a03169063fda089589033906040516020015260405160e060020a63ffffffff8416028152600160a060020a039091166004820152602401602060405180830381600087803b151561135a57600080fd5b6102c65a03f1151561136b57600080fd5b50505060405180511515600114905061138357600080fd5b61138b611876565b1561139557600080fd5b6000600a828154811015156113a657fe5b9060005260206000209060070201600401541115610fc957600e819055600f805460ff191660011790556000805460a060020a60ff02191660a160020a179055600c5460008051602061292f83398151915290600160a060020a03166002604051600160a060020a03909216825260ff1660208201526040908101905180910390a150565b600f54610100900460ff1681565b600e5490565b60008054600160a060020a031663fda0895833836040516020015260405160e060020a63ffffffff8416028152600160a060020a039091166004820152602401602060405180830381600087803b151561149857600080fd5b6102c65a03f115156114a957600080fd5b5050506040518051151560011490506114c157600080fd5b610e596123ba565b6000808080808080600160005460a060020a900460ff1660058111156114eb57fe5b14156115d45760008054600160a060020a0316906305fd22d09033906040516020015260405160e060020a63ffffffff8416028152600160a060020a039091166004820152602401602060405180830381600087803b151561154c57600080fd5b6102c65a03f1151561155d57600080fd5b50505060405180511515600114905061157557600080fd5b61157e8a610a61565b91945092509050600160ff841614156115bf5761159b8c8c61247b565b9097509150600160ff881614156115bf5760019650600095508594508493506115d4565b6115cb828b8b8b611a6e565b96509650965096505b50505095509550955095915050565b600a5490565b6115f16126b0565b6000806000806115ff6126c2565b600a80548890811061160d57fe5b906000526020600020906007020160e0604051908101604052908160008201548152602001600182018054600181600116156101000203166002900480601f0160208091040260200160405190810160405280929190818152602001828054600181600116156101000203166002900480156116ca5780601f1061169f576101008083540402835291602001916116ca565b820191906000526020600020905b8154815290600101906020018083116116ad57829003601f168201915b50505050508152602001600282015481526020016003820180548060200260200160405190810160405281815291906000602084015b8282101561181857600084815260209020600683020160c0604051908101604052908160008201548152602001600182015460001916600019168152602001600282018054600181600116156101000203166002900480601f0160208091040260200160405190810160405280929190818152602001828054600181600116156101000203166002900480156117d75780601f106117ac576101008083540402835291602001916117d7565b820191906000526020600020905b8154815290600101906020018083116117ba57829003601f168201915b505050918352505060038201546020808301919091526004830154604083015260059092015460ff1615156060909101529082526001929092019101611700565b5050509082525060048201546020808301919091526005830154604083015260069092015460ff161515606090910152909150810151816040015182606001515183608001518460c00151939b929a50909850965090945092505050565b600a546000901515610e3a57506001610a49565b600f54610100900460ff1690565b60006118a26126b0565b6000806118ad61270e565b600a8054889081106118bb57fe5b9060005260206000209060070201600301868154811015156118d957fe5b906000526020600020906006020160c0604051908101604052908160008201548152602001600182015460001916600019168152602001600282018054600181600116156101000203166002900480601f0160208091040260200160405190810160405280929190818152602001828054600181600116156101000203166002900480156119a85780601f1061197d576101008083540402835291602001916119a8565b820191906000526020600020905b81548152906001019060200180831161198b57829003601f168201915b505050918352505060038201546020808301919091526004830154604083015260059092015460ff161515606090910152909150810151816040015182606001518360a00151929a91995097509095509350505050565b6000806000806000806000611a1388610a61565b91975095509350611a248585611898565b9295509350909150611a38905088846121f2565b8015611a415750805b15611a4f5760019650611a54565b600096505b505050505050919050565b600f5460ff1681565b60085481565b60008080808080600160005460a060020a900460ff166005811115611a8f57fe5b14156121615760008054600160a060020a0316906305fd22d09033906040516020015260405160e060020a63ffffffff8416028152600160a060020a039091166004820152602401602060405180830381600087803b1515611af057600080fd5b6102c65a03f11515611b0157600080fd5b505050604051805115156001149050611b1957600080fd5b611b21610d9e565b151560011480611b2f575086155b80611b595750600a80548b908110611b4357fe5b9060005260206000209060070201600201546000145b15611b71576001955060009450849350839250612161565b600a80548b908110611b7f57fe5b90600052602060002090600702016002015487600a8c815481101515611ba157fe5b906000526020600020906007020160040154011115611c0757611c04600a8b815481101515611bcc57fe5b906000526020600020906007020160020154600a8c815481101515611bed57fe5b90600052602060002090600702016004015461267a565b96505b611c118a8a610fcc565b909250905060ff82161515611cf157611c68600a8b815481101515611c3257fe5b906000526020600020906007020160030182815481101515611c5057fe5b9060005260206000209060060201600301548861268c565b600a80548c908110611c7657fe5b906000526020600020906007020160030182815481101515611c9457fe5b90600052602060002090600602016003018190555042600a8b815481101515611cb957fe5b906000526020600020906007020160030182815481101515611cd757fe5b906000526020600020906006020160040181905550611e45565b600a80548b908110611cff57fe5b90600052602060002090600702016003018054806001018281611d22919061272f565b9160005260206000209060060201600060c060405190810160405280600a8f815481101515611d4d57fe5b6000918252602080832060036007909302019190910154835282018f9052604082018e9052606082018d905242608083015260a0909101529190508151815560208201516001820155604082015181600201908051611db0929160200190612760565b50606082015181600301556080820151816004015560a0820151600591909101805460ff191691151591909117905550506000898152600b602052604090208a9055600a8054600191908c908110611e0457fe5b60009182526020808320600360079093020191909101548c8352600b90915260409091209190036001808301919091556002909101805460ff191690911790555b611e6f600a8b815481101515611e5757fe5b9060005260206000209060070201600401548861268c565b600a80548c908110611e7d57fe5b6000918252602090912060046007909202010155600c547f020d565aeac279337d0f8cb762f74b62928f0ea6d0828d86a4ea97870bdf094790600160a060020a03168b8b8b8b604051600160a060020a038616815260208101859052604081018490526080810182905260a06060820181815290820184818151815260200191508051906020019080838360005b83811015611f23578082015183820152602001611f0b565b50505050905090810190601f168015611f505780820380516001836020036101000a031916815260200191505b50965050505050505060405180910390a1600a80548b908110611f6f57fe5b906000526020600020906007020160020154600a8b815481101515611f9057fe5b6000918252602090912060046007909202010154149250600183141561213357600e8a9055600f805460ff191660011790556000805460a060020a60ff02191660a160020a179055600c54600a80547f20c9276d9b5ff79d5c6efaa133058d2a43e37892b685a83069b0231c874e2b9092600160a060020a0316918d918290811061201757fe5b9060005260206000209060070201600101600a8e81548110151561203757fe5b906000526020600020906007020160020154604051600160a060020a038516815260208101849052606081018290526080604082018181528454600260001961010060018416150201909116049183018290529060a0830190859080156120df5780601f106120b4576101008083540402835291602001916120df565b820191906000526020600020905b8154815290600101906020018083116120c257829003601f168201915b50509550505050505060405180910390a1600c5460008051602061292f83398151915290600160a060020a03166000604051600160a060020a03909216825260ff1660208201526040908101905180910390a15b600087600a8c81548110151561214557fe5b6000918252602090912060026007909202010154919750955093505b5050945094509450949050565b600080600260005460a060020a900460ff16600581111561218b57fe5b14801561219b575060115460ff16155b156121d1576000600a600e548154811015156121b357fe5b906000526020600020906007020160040154819150915091506121d9565b506001905060005b9091565b600054600160a060020a031681565b600d5481565b6000805b60208110156122bb5782816020811061220b57fe5b1a7f0100000000000000000000000000000000000000000000000000000000000000027effffffffffffffffffffffffffffffffffffffffffffffffffffffffffffff1916848260208110151561225e57fe5b1a7f0100000000000000000000000000000000000000000000000000000000000000027effffffffffffffffffffffffffffffffffffffffffffffffffffffffffffff19161415156122b357600091506122c0565b6001016121f6565b600191505b5092915050565b6122cf611876565b156122d957600080fd5b6011805461ff001916610100179055610fc96123ba565b6122f8611876565b1561230257600080fd5b6011805462ff00001916620100001790556000805460a060020a60ff02191674050000000000000000000000000000000000000000179055600e54600a805460019290811061234d57fe5b60009182526020909120600790910201600601805460ff1916911515919091179055600c547f3bc1b8146e0b1b7a51adc8ede62e3c9cf811151417ee6a8909363897085d64ca90600160a060020a0316604051600160a060020a03909116815260200160405180910390a1565b6000600260005460a060020a900460ff1660058111156123d657fe5b1480156123ea575060115460ff1615156001145b8015612403575060115460ff6101009091041615156001145b15610a49576000805460a060020a60ff02191674030000000000000000000000000000000000000000179055600c547fa9fdf9096b8c0373371fa52baeb8e1baecf8721251574911d9437d9c99c8a02090600160a060020a0316604051600160a060020a03909116815260200160405180910390a190565b600080600160005460a060020a900460ff16600581111561249857fe5b1415611057576124a6610d9e565b1580156124b557506006548310155b80156124c357506005548311155b1561262557600a8054906124da90600183016127de565b905080600a828154811015156124ec57fe5b6000918252602090912060079091020155600a80548591908390811061250e57fe5b9060005260206000209060070201600101908051612530929160200190612760565b5082600a8281548110151561254157fe5b6000918252602090912060026007909202010155600c547f8fdc17bb3cd8cd793130123a1c9a98519b3b28fa44541199a38d18657d838f4b90600160a060020a0316828686604051600160a060020a0385168152602081018490526060810182905260806040820181815290820184818151815260200191508051906020019080838360005b838110156125df5780820151838201526020016125c7565b50505050905090810190601f16801561260c5780820380516001836020036101000a031916815260200191505b509550505050505060405180910390a160009150611057565b600c547f764103a1698975093d86c78464d483e3b327f438ddb3ff75224132d871f8abd490600160a060020a0316604051600160a060020a03909116815260200160405180910390a150600190506000611057565b60008282111561268657fe5b50900390565b60008282018381108015906126a15750828110155b15156126a957fe5b9392505050565b60206040519081016040526000815290565b60e060405190810160405280600081526020016126dd6126b0565b8152602001600081526020016126f16126b0565b815260200160008152602001600081526020016000151581525090565b60c060405190810160409081526000808352602083015281016126f16126b0565b81548183558181151161275b5760060281600602836000526020600020918201910161275b919061280a565b505050565b828054600181600116156101000203166002900490600052602060002090601f016020900481019282601f106127a157805160ff19168380011785556127ce565b828001600101855582156127ce579182015b828111156127ce5782518255916020019190600101906127b3565b506127da929150612854565b5090565b81548183558181151161275b5760070281600702836000526020600020918201910161275b919061286e565b610a4991905b808211156127da5760008082556001820181905561283160028301826128c9565b50600060038201819055600482015560058101805460ff19169055600601612810565b610a4991905b808211156127da576000815560010161285a565b610a4991905b808211156127da57600080825561288e60018301826128c9565b60028201600090556003820160006128a6919061290d565b50600060048201819055600582015560068101805460ff19169055600701612874565b50805460018160011615610100020316600290046000825580601f106128ef5750610fc9565b601f016020900490600052602060002090810190610fc99190612854565b5080546000825560060290600052602060002090810190610fc9919061280a56008b02276858c6e0fd7396421ae2db82efc389b1602bedb1ba520ee4e2241d06b7a165627a7a7230582094aeaf7fd7c66e103c76fc5b1cd978e4f3369c47848d7fba0f34961d7a0552570029a165627a7a72305820836961186059bbb91b564b0cbbdb928c978e150f02b1b047690d35e08a9d4de70029",
  "source": "pragma solidity ^0.4.17;\n\nimport \"./Crowdsale.sol\";\n\n\n/// @title Crowdsalemanager contract\ncontract CrowdsaleManager is withAccessManager {\n\n    // FIELDS\n\n\n    // This CrowdsaleEntry variable represents\n    // the structure/details of individual invoice crowdsales\n    // with details to be recorded for each crowdsale entry.\n    struct CrowdsaleEntry {\n        address addr; // an address\n        bytes32 borrowerId; // borrowerd id\n        bytes32 invoiceId; // invoice id\n        bytes32 invoiceNumber; // invoice number\n        uint invoiceAmount; // invoice amount\n        uint fundingGoal; // funding goal\n    }\n\n    \n    CrowdsaleEntry[] crowdsales;\n\n    // The variable invoicesIndex keeps track of invoices by borrower ID, \n    // invoice number and invoice amount to keep track of crowdsale \n    // invoices and restrict duplicate crowdsales for the same invoice.\n    mapping(bytes32 => mapping(string => uint)) invoicesIndex;\n\n    // NON-CONSTANT METHODS\n\n    // The constructor method called when this contract instance is deployed \n    // using a modifier the _accessManager address\n    function CrowdsaleManager(address _accessManager) public\n        withAccessManager(_accessManager) {} \n\n    /** @dev Creates a new crowdsale for an invoice.\n      * @param _currencySymbol The currency symbol.\n      * @param _borrowerId The borrower ID.\n      * @param _invoiceId The invoice ID.\n      * @param _invoiceNumber The invoice number.\n      * @param _fundingGoal The funding goal.\n      * @param _platformTaxPercent The tax percentage\n      * @param _signedDocumentIPFSHash The hash of a document stored in IPFS.\n      * @return crowdsaleAddr The crowdsale address derived from deploying a crowdsale.\n      */\n    function createCrowdsale(\n            bytes32 _currencySymbol,\n            bytes32 _borrowerId,\n            bytes32 _invoiceId,\n            string _invoiceNumber,\n            uint _invoiceAmount,\n            uint _fundingGoal,\n            uint _platformTaxPercent,\n            string _signedDocumentIPFSHash,\n            uint _extraTime)\n        public\n        onlyPopulous\n        returns (address crowdsaleAddr)\n    {\n        // Avoid using the same invoice in more than crowdsale\n        require(invoicesIndex[_borrowerId][_invoiceNumber] != _invoiceAmount);\n        require(_fundingGoal < _invoiceAmount);\n        invoicesIndex[_borrowerId][_invoiceNumber] = _invoiceAmount;\n\n        crowdsaleAddr = new Crowdsale(\n            address(AM),\n            _currencySymbol,\n            _borrowerId,\n            _invoiceId,\n            _invoiceNumber,\n            _invoiceAmount,\n            _fundingGoal,\n            _platformTaxPercent,\n            _signedDocumentIPFSHash,\n            _extraTime\n        );\n    }\n}",
  "sourcePath": "/Users/najienka/Desktop/populous-smartcontracts/contracts/CrowdsaleManager.sol",
  "schemaVersion": "1.0.0",
  "updatedAt": "2018-01-24T16:06:27.043Z"
}