{
  "contractName": "Crowdsale",
  "abi": [
    {
      "constant": false,
      "inputs": [
        {
          "name": "_accessManager",
          "type": "address"
        }
      ],
      "name": "updateAccessManager",
      "outputs": [],
      "payable": false,
      "stateMutability": "nonpayable",
      "type": "function"
    },
    {
      "constant": true,
      "inputs": [],
      "name": "paidAmount",
      "outputs": [
        {
          "name": "",
          "type": "uint256"
        }
      ],
      "payable": false,
      "stateMutability": "view",
      "type": "function"
    },
    {
      "constant": true,
      "inputs": [
        {
          "name": "bidderId",
          "type": "bytes32"
        }
      ],
      "name": "findBidder",
      "outputs": [
        {
          "name": "err",
          "type": "uint8"
        },
        {
          "name": "groupIndex",
          "type": "uint256"
        },
        {
          "name": "bidderIndex",
          "type": "uint256"
        }
      ],
      "payable": false,
      "stateMutability": "view",
      "type": "function"
    },
    {
      "constant": false,
      "inputs": [
        {
          "name": "groupIndex",
          "type": "uint256"
        },
        {
          "name": "bidderIndex",
          "type": "uint256"
        }
      ],
      "name": "setBidderHasReceivedTokensBack",
      "outputs": [],
      "payable": false,
      "stateMutability": "nonpayable",
      "type": "function"
    },
    {
      "constant": true,
      "inputs": [],
      "name": "status",
      "outputs": [
        {
          "name": "",
          "type": "uint8"
        }
      ],
      "payable": false,
      "stateMutability": "view",
      "type": "function"
    },
    {
      "constant": true,
      "inputs": [],
      "name": "invoiceNumber",
      "outputs": [
        {
          "name": "",
          "type": "string"
        }
      ],
      "payable": false,
      "stateMutability": "view",
      "type": "function"
    },
    {
      "constant": true,
      "inputs": [],
      "name": "deadline",
      "outputs": [
        {
          "name": "",
          "type": "uint256"
        }
      ],
      "payable": false,
      "stateMutability": "view",
      "type": "function"
    },
    {
      "constant": false,
      "inputs": [],
      "name": "checkDeadline",
      "outputs": [
        {
          "name": "",
          "type": "bool"
        }
      ],
      "payable": false,
      "stateMutability": "nonpayable",
      "type": "function"
    },
    {
      "constant": true,
      "inputs": [],
      "name": "getStatus",
      "outputs": [
        {
          "name": "",
          "type": "uint8"
        }
      ],
      "payable": false,
      "stateMutability": "view",
      "type": "function"
    },
    {
      "constant": true,
      "inputs": [],
      "name": "sentToLosingGroups",
      "outputs": [
        {
          "name": "",
          "type": "bool"
        }
      ],
      "payable": false,
      "stateMutability": "view",
      "type": "function"
    },
    {
      "constant": true,
      "inputs": [],
      "name": "winnerGroupIndex",
      "outputs": [
        {
          "name": "",
          "type": "uint256"
        }
      ],
      "payable": false,
      "stateMutability": "view",
      "type": "function"
    },
    {
      "constant": true,
      "inputs": [],
      "name": "sentToWinnerGroup",
      "outputs": [
        {
          "name": "",
          "type": "bool"
        }
      ],
      "payable": false,
      "stateMutability": "view",
      "type": "function"
    },
    {
      "constant": true,
      "inputs": [],
      "name": "getPaidAmount",
      "outputs": [
        {
          "name": "",
          "type": "uint256"
        }
      ],
      "payable": false,
      "stateMutability": "view",
      "type": "function"
    },
    {
      "constant": true,
      "inputs": [],
      "name": "borrowerId",
      "outputs": [
        {
          "name": "",
          "type": "bytes32"
        }
      ],
      "payable": false,
      "stateMutability": "view",
      "type": "function"
    },
    {
      "constant": true,
      "inputs": [],
      "name": "invoiceId",
      "outputs": [
        {
          "name": "",
          "type": "bytes32"
        }
      ],
      "payable": false,
      "stateMutability": "view",
      "type": "function"
    },
    {
      "constant": true,
      "inputs": [],
      "name": "invoiceAmount",
      "outputs": [
        {
          "name": "",
          "type": "uint256"
        }
      ],
      "payable": false,
      "stateMutability": "view",
      "type": "function"
    },
    {
      "constant": true,
      "inputs": [],
      "name": "fundingGoal",
      "outputs": [
        {
          "name": "",
          "type": "uint256"
        }
      ],
      "payable": false,
      "stateMutability": "view",
      "type": "function"
    },
    {
      "constant": true,
      "inputs": [],
      "name": "sentToBeneficiary",
      "outputs": [
        {
          "name": "",
          "type": "bool"
        }
      ],
      "payable": false,
      "stateMutability": "view",
      "type": "function"
    },
    {
      "constant": false,
      "inputs": [
        {
          "name": "_paidAmount",
          "type": "uint256"
        }
      ],
      "name": "setPaidAmount",
      "outputs": [],
      "payable": false,
      "stateMutability": "nonpayable",
      "type": "function"
    },
    {
      "constant": true,
      "inputs": [
        {
          "name": "groupIndex",
          "type": "uint256"
        },
        {
          "name": "bidderId",
          "type": "bytes32"
        }
      ],
      "name": "findBidder",
      "outputs": [
        {
          "name": "err",
          "type": "uint8"
        },
        {
          "name": "bidderIndex",
          "type": "uint256"
        }
      ],
      "payable": false,
      "stateMutability": "view",
      "type": "function"
    },
    {
      "constant": false,
      "inputs": [],
      "name": "setSentToBeneficiary",
      "outputs": [],
      "payable": false,
      "stateMutability": "nonpayable",
      "type": "function"
    },
    {
      "constant": true,
      "inputs": [],
      "name": "signedDocumentIPFSHash",
      "outputs": [
        {
          "name": "",
          "type": "string"
        }
      ],
      "payable": false,
      "stateMutability": "view",
      "type": "function"
    },
    {
      "constant": true,
      "inputs": [
        {
          "name": "",
          "type": "uint256"
        }
      ],
      "name": "groups",
      "outputs": [
        {
          "name": "groupIndex",
          "type": "uint256"
        },
        {
          "name": "name",
          "type": "string"
        },
        {
          "name": "goal",
          "type": "uint256"
        },
        {
          "name": "amountRaised",
          "type": "uint256"
        },
        {
          "name": "biddersReceivedTokensBack",
          "type": "uint256"
        },
        {
          "name": "hasReceivedTokensBack",
          "type": "bool"
        }
      ],
      "payable": false,
      "stateMutability": "view",
      "type": "function"
    },
    {
      "constant": true,
      "inputs": [],
      "name": "currencySymbol",
      "outputs": [
        {
          "name": "",
          "type": "bytes32"
        }
      ],
      "payable": false,
      "stateMutability": "view",
      "type": "function"
    },
    {
      "constant": false,
      "inputs": [],
      "name": "closeCrowdsale",
      "outputs": [
        {
          "name": "success",
          "type": "bool"
        }
      ],
      "payable": false,
      "stateMutability": "nonpayable",
      "type": "function"
    },
    {
      "constant": false,
      "inputs": [
        {
          "name": "groupIndex",
          "type": "uint256"
        }
      ],
      "name": "borrowerChooseWinner",
      "outputs": [],
      "payable": false,
      "stateMutability": "nonpayable",
      "type": "function"
    },
    {
      "constant": true,
      "inputs": [],
      "name": "getWinnerGroupIndex",
      "outputs": [
        {
          "name": "",
          "type": "uint256"
        }
      ],
      "payable": false,
      "stateMutability": "view",
      "type": "function"
    },
    {
      "constant": false,
      "inputs": [],
      "name": "waitingForPayment",
      "outputs": [
        {
          "name": "",
          "type": "bool"
        }
      ],
      "payable": false,
      "stateMutability": "nonpayable",
      "type": "function"
    },
    {
      "constant": false,
      "inputs": [
        {
          "name": "groupName",
          "type": "string"
        },
        {
          "name": "goal",
          "type": "uint256"
        },
        {
          "name": "bidderId",
          "type": "bytes32"
        },
        {
          "name": "name",
          "type": "string"
        },
        {
          "name": "value",
          "type": "uint256"
        }
      ],
      "name": "initialBid",
      "outputs": [
        {
          "name": "err",
          "type": "uint8"
        },
        {
          "name": "finalValue",
          "type": "uint256"
        },
        {
          "name": "groupGoal",
          "type": "uint256"
        },
        {
          "name": "goalReached",
          "type": "bool"
        }
      ],
      "payable": false,
      "stateMutability": "nonpayable",
      "type": "function"
    },
    {
      "constant": true,
      "inputs": [],
      "name": "getGroupsCount",
      "outputs": [
        {
          "name": "",
          "type": "uint256"
        }
      ],
      "payable": false,
      "stateMutability": "view",
      "type": "function"
    },
    {
      "constant": true,
      "inputs": [
        {
          "name": "groupIndex",
          "type": "uint256"
        }
      ],
      "name": "getGroup",
      "outputs": [
        {
          "name": "name",
          "type": "string"
        },
        {
          "name": "goal",
          "type": "uint256"
        },
        {
          "name": "biddersCount",
          "type": "uint256"
        },
        {
          "name": "amountRaised",
          "type": "uint256"
        },
        {
          "name": "hasReceivedTokensBack",
          "type": "bool"
        }
      ],
      "payable": false,
      "stateMutability": "view",
      "type": "function"
    },
    {
      "constant": false,
      "inputs": [],
      "name": "checkNoBids",
      "outputs": [
        {
          "name": "",
          "type": "bool"
        }
      ],
      "payable": false,
      "stateMutability": "nonpayable",
      "type": "function"
    },
    {
      "constant": true,
      "inputs": [
        {
          "name": "groupIndex",
          "type": "uint256"
        },
        {
          "name": "bidderIndex",
          "type": "uint256"
        }
      ],
      "name": "getGroupBidder",
      "outputs": [
        {
          "name": "bidderId",
          "type": "bytes32"
        },
        {
          "name": "name",
          "type": "string"
        },
        {
          "name": "bidAmount",
          "type": "uint256"
        },
        {
          "name": "hasReceivedTokensBack",
          "type": "bool"
        }
      ],
      "payable": false,
      "stateMutability": "view",
      "type": "function"
    },
    {
      "constant": true,
      "inputs": [
        {
          "name": "bidderId",
          "type": "bytes32"
        }
      ],
      "name": "bidderHasTokensBack",
      "outputs": [
        {
          "name": "received",
          "type": "bool"
        }
      ],
      "payable": false,
      "stateMutability": "view",
      "type": "function"
    },
    {
      "constant": true,
      "inputs": [],
      "name": "hasWinnerGroup",
      "outputs": [
        {
          "name": "",
          "type": "bool"
        }
      ],
      "payable": false,
      "stateMutability": "view",
      "type": "function"
    },
    {
      "constant": true,
      "inputs": [],
      "name": "platformTaxPercent",
      "outputs": [
        {
          "name": "",
          "type": "uint256"
        }
      ],
      "payable": false,
      "stateMutability": "view",
      "type": "function"
    },
    {
      "constant": false,
      "inputs": [
        {
          "name": "groupIndex",
          "type": "uint256"
        },
        {
          "name": "bidderId",
          "type": "bytes32"
        },
        {
          "name": "name",
          "type": "string"
        },
        {
          "name": "value",
          "type": "uint256"
        }
      ],
      "name": "bid",
      "outputs": [
        {
          "name": "err",
          "type": "uint8"
        },
        {
          "name": "finalValue",
          "type": "uint256"
        },
        {
          "name": "groupGoal",
          "type": "uint256"
        },
        {
          "name": "goalReached",
          "type": "bool"
        }
      ],
      "payable": false,
      "stateMutability": "nonpayable",
      "type": "function"
    },
    {
      "constant": true,
      "inputs": [],
      "name": "getAmountForBeneficiary",
      "outputs": [
        {
          "name": "err",
          "type": "uint8"
        },
        {
          "name": "amount",
          "type": "uint256"
        }
      ],
      "payable": false,
      "stateMutability": "view",
      "type": "function"
    },
    {
      "constant": true,
      "inputs": [],
      "name": "AM",
      "outputs": [
        {
          "name": "",
          "type": "address"
        }
      ],
      "payable": false,
      "stateMutability": "view",
      "type": "function"
    },
    {
      "constant": true,
      "inputs": [],
      "name": "groupsReceivedTokensBack",
      "outputs": [
        {
          "name": "",
          "type": "uint256"
        }
      ],
      "payable": false,
      "stateMutability": "view",
      "type": "function"
    },
    {
      "inputs": [
        {
          "name": "_accessManager",
          "type": "address"
        },
        {
          "name": "_currencySymbol",
          "type": "bytes32"
        },
        {
          "name": "_borrowerId",
          "type": "bytes32"
        },
        {
          "name": "_invoiceId",
          "type": "bytes32"
        },
        {
          "name": "_invoiceNumber",
          "type": "string"
        },
        {
          "name": "_invoiceAmount",
          "type": "uint256"
        },
        {
          "name": "_fundingGoal",
          "type": "uint256"
        },
        {
          "name": "_platformTaxPercent",
          "type": "uint256"
        },
        {
          "name": "_signedDocumentIPFSHash",
          "type": "string"
        }
      ],
      "payable": false,
      "stateMutability": "nonpayable",
      "type": "constructor"
    },
    {
      "anonymous": false,
      "inputs": [
        {
          "indexed": false,
          "name": "groupIndex",
          "type": "uint256"
        },
        {
          "indexed": false,
          "name": "name",
          "type": "string"
        },
        {
          "indexed": false,
          "name": "goal",
          "type": "uint256"
        }
      ],
      "name": "EventGroupCreated",
      "type": "event"
    },
    {
      "anonymous": false,
      "inputs": [
        {
          "indexed": false,
          "name": "groupIndex",
          "type": "uint256"
        },
        {
          "indexed": false,
          "name": "_name",
          "type": "string"
        },
        {
          "indexed": false,
          "name": "goal",
          "type": "uint256"
        }
      ],
      "name": "EventGroupGoalReached",
      "type": "event"
    },
    {
      "anonymous": false,
      "inputs": [
        {
          "indexed": false,
          "name": "groupIndex",
          "type": "uint256"
        },
        {
          "indexed": false,
          "name": "bidderId",
          "type": "bytes32"
        },
        {
          "indexed": false,
          "name": "name",
          "type": "string"
        },
        {
          "indexed": false,
          "name": "value",
          "type": "uint256"
        }
      ],
      "name": "EventNewBid",
      "type": "event"
    },
    {
      "anonymous": false,
      "inputs": [],
      "name": "EventCrowdsaleOpen",
      "type": "event"
    },
    {
      "anonymous": false,
      "inputs": [
        {
          "indexed": false,
          "name": "reasonCode",
          "type": "uint8"
        }
      ],
      "name": "EventCrowdsaleClosed",
      "type": "event"
    },
    {
      "anonymous": false,
      "inputs": [],
      "name": "EventCrowdsaleWaiting",
      "type": "event"
    },
    {
      "anonymous": false,
      "inputs": [
        {
          "indexed": false,
          "name": "paidAmount",
          "type": "uint256"
        }
      ],
      "name": "EventPaymentReceived",
      "type": "event"
    },
    {
      "anonymous": false,
      "inputs": [],
      "name": "EventCrowdsaleCompleted",
      "type": "event"
    },
    {
      "anonymous": false,
      "inputs": [],
      "name": "EventGroupCreationFailed",
      "type": "event"
    }
  ],
  "bytecode": "0x606060405234156200001057600080fd5b6040516200298e3803806200298e833981016040528080519190602001805191906020018051919060200180519190602001805182019190602001805191906020018051919060200180519190602001805160008054600160a060020a031916600160a060020a038d1617905560018a9055600489905560028890559190910190506003858051620000a79291602001906200010d565b506005849055600683905560088290556009818051620000cc9291602001906200010d565b50505062015180420160075550506000805460a060020a60ff0219167401000000000000000000000000000000000000000017905550620001b29350505050565b828054600181600116156101000203166002900490600052602060002090601f016020900481019282601f106200015057805160ff191683800117855562000180565b8280016001018555821562000180579182015b828111156200018057825182559160200191906001019062000163565b506200018e92915062000192565b5090565b620001af91905b808211156200018e576000815560010162000199565b90565b6127cc80620001c26000396000f300606060405236156101d25763ffffffff60e060020a60003504166302ab72c481146101d757806312fa769f146101f857806315b204541461021d57806319a0e16d1461025d578063200d2ed21461027657806324668473146102ad57806329dcb0cf1461033757806343bf99361461034a5780634e69d5601461037157806355d97ba81461039a5780635cfa4d60146103ad5780635e054efb146103c05780636a20a8a1146103d35780636fbefedf146103e657806370c86286146103f95780637478901d1461040c5780637a3a0e841461041f5780637b69c9ae1461043257806385d8ed7d146104455780638688b4df1461045b5780638942e19d146104905780638a8f5af7146104a357806396324bd4146104b6578063968c42091461057c578063983c0a011461058f578063a203886e146105a2578063a4d8a8da146105b8578063a7b80b6c146105cb578063b503d829146105de578063b84afbb4146106ac578063ceb60654146106bf578063cfece8ef1461076d578063dee50b2414610780578063e1c2546714610828578063ec0a99741461083e578063efd3bc0c14610851578063f29c2e8b14610864578063f52eb385146108c2578063f7f01b4b146108d5578063f978460114610904575b600080fd5b34156101e257600080fd5b6101f6600160a060020a0360043516610917565b005b341561020357600080fd5b61020b6109ca565b60405190815260200160405180910390f35b341561022857600080fd5b6102336004356109d0565b604051808460ff1660ff168152602001838152602001828152602001935050505060405180910390f35b341561026857600080fd5b6101f6600435602435610a61565b341561028157600080fd5b610289610c33565b6040518082600581111561029957fe5b60ff16815260200191505060405180910390f35b34156102b857600080fd5b6102c0610c43565b60405160208082528190810183818151815260200191508051906020019080838360005b838110156102fc5780820151838201526020016102e4565b50505050905090810190601f1680156103295780820380516001836020036101000a031916815260200191505b509250505060405180910390f35b341561034257600080fd5b61020b610ce1565b341561035557600080fd5b61035d610ce7565b604051901515815260200160405180910390f35b341561037c57600080fd5b610384610d68565b60405160ff909116815260200160405180910390f35b34156103a557600080fd5b61035d610d86565b34156103b857600080fd5b61020b610d94565b34156103cb57600080fd5b61035d610d9a565b34156103de57600080fd5b61020b610da9565b34156103f157600080fd5b61020b610daf565b341561040457600080fd5b61020b610db5565b341561041757600080fd5b61020b610dbb565b341561042a57600080fd5b61020b610dc1565b341561043d57600080fd5b61035d610dc7565b341561045057600080fd5b6101f6600435610dd0565b341561046657600080fd5b610474600435602435610ed7565b60405160ff909216825260208201526040908101905180910390f35b341561049b57600080fd5b6101f6610f69565b34156104ae57600080fd5b6102c0611022565b34156104c157600080fd5b6104cc60043561108d565b60405186815260408101859052606081018490526080810183905281151560a082015260c0602082018181528754600260001961010060018416150201909116049183018290529060e0830190889080156105685780601f1061053d57610100808354040283529160200191610568565b820191906000526020600020905b81548152906001019060200180831161054b57829003601f168201915b505097505050505050505060405180910390f35b341561058757600080fd5b61020b6110d5565b341561059a57600080fd5b61035d6110db565b34156105ad57600080fd5b6101f66004356111c2565b34156105c357600080fd5b61020b6112f2565b34156105d657600080fd5b61035d6112f8565b34156105e957600080fd5b61067c60046024813581810190830135806020601f8201819004810201604051908101604052818152929190602084018383808284375094968635966020808201359750919550606081019450604090810135860180830194503592508291601f830181900481020190519081016040528181529291906020840183838082843750949650509335935061138292505050565b60405160ff9094168452602084019290925260408084019190915290151560608301526080909101905180910390f35b34156106b757600080fd5b61020b61149c565b34156106ca57600080fd5b6106d56004356114a2565b604051808060200186815260200185815260200184815260200183151515158152602001828103825287818151815260200191508051906020019080838360005b8381101561072e578082015183820152602001610716565b50505050905090810190601f16801561075b5780820380516001836020036101000a031916815260200191505b50965050505050505060405180910390f35b341561077857600080fd5b61035d61172f565b341561078b57600080fd5b6107996004356024356117b5565b60405184815260408101839052811515606082015260806020820181815290820185818151815260200191508051906020019080838360005b838110156107ea5780820151838201526020016107d2565b50505050905090810190601f1680156108175780820380516001836020036101000a031916815260200191505b509550505050505060405180910390f35b341561083357600080fd5b61035d60043561191c565b341561084957600080fd5b61035d61197c565b341561085c57600080fd5b61020b611985565b341561086f57600080fd5b61067c600480359060248035919060649060443590810190830135806020601f82018190048102016040519081016040528181529291906020840183838082843750949650509335935061198b92505050565b34156108cd57600080fd5b610474612034565b34156108e057600080fd5b6108e86120a3565b604051600160a060020a03909116815260200160405180910390f35b341561090f57600080fd5b61020b6120b2565b60008054600160a060020a031690630c68ba219033906040516020015260405160e060020a63ffffffff8416028152600160a060020a039091166004820152602401602060405180830381600087803b151561097257600080fd5b6102c65a03f1151561098357600080fd5b50505060405180511515600114905061099b57600080fd5b6000805473ffffffffffffffffffffffffffffffffffffffff1916600160a060020a0392909216919091179055565b600f5481565b6000818152600b602052604081206001810154815460029092015460ff161515610a035750600191506000905080610a5a565b610a4b600a83815481101515610a1557fe5b906000526020600020906007020160030182815481101515610a3357fe5b906000526020600020906006020160010154856120b8565b151560011415610a5a57600092505b9193909250565b60008054600160a060020a0316906305fd22d09033906040516020015260405160e060020a63ffffffff8416028152600160a060020a039091166004820152602401602060405180830381600087803b1515610abc57600080fd5b6102c65a03f11515610acd57600080fd5b505050604051805115156001149050610ae557600080fd5b6001600a83815481101515610af657fe5b906000526020600020906007020160030182815481101515610b1457fe5b60009182526020909120600690910201600501805460ff1916911515919091179055600a805483908110610b4457fe5b6000918252602090912060056007909202010180546001019055600a805483908110610b6c57fe5b6000918252602090912060036007909202010154600a805484908110610b8e57fe5b9060005260206000209060070201600501541415610c2f576001600a83815481101515610bb757fe5b60009182526020909120600790910201600601805460ff1916911515919091179055600c80546001908101909155600a541415610c0357610bf661218d565b610bfe6121b6565b610c2f565b600c54600a54600019011415610c1b57610bfe61218d565b600c54600a541415610c2f57610c2f6121b6565b5050565b60005460a060020a900460ff1681565b60038054600181600116156101000203166002900480601f016020809104026020016040519081016040528092919081815260200182805460018160011615610100020316600290048015610cd95780601f10610cae57610100808354040283529160200191610cd9565b820191906000526020600020905b815481529060010190602001808311610cbc57829003601f168201915b505050505081565b60075481565b6000600754421115610d6157600160005460a060020a900460ff166005811115610d0d57fe5b1415610d59576000805460a060020a60ff02191660a160020a179055600080516020612781833981519152600160405160ff909116815260200160405180910390a1610d5761172f565b505b506001610d65565b5060005b90565b6000805460a060020a900460ff166005811115610d8157fe5b905090565b601054610100900460ff1681565b600d5481565b60105462010000900460ff1681565b600f5490565b60045481565b60025481565b60055481565b60065481565b60105460ff1681565b60008054600160a060020a0316906305fd22d09033906040516020015260405160e060020a63ffffffff8416028152600160a060020a039091166004820152602401602060405180830381600087803b1515610e2b57600080fd5b6102c65a03f11515610e3c57600080fd5b505050604051805115156001149050610e5457600080fd5b600360005460a060020a900460ff166005811115610e6e57fe5b1415610ed457600f8190556000805460a060020a60ff021916740400000000000000000000000000000000000000001790557fe2630c8bd63a0cac2936da8f1d4fe0d13a8662daca441639630c7e55095683238160405190815260200160405180910390a15b50565b6000818152600b60205260408120600181015481546002909201549194509060ff161515610f0b5750600190506000610f62565b610f53600a85815481101515610f1d57fe5b906000526020600020906007020160030182815481101515610f3b57fe5b906000526020600020906006020160010154846120b8565b151560011415610f6257600091505b9250929050565b60008054600160a060020a0316906305fd22d09033906040516020015260405160e060020a63ffffffff8416028152600160a060020a039091166004820152602401602060405180830381600087803b1515610fc457600080fd5b6102c65a03f11515610fd557600080fd5b505050604051805115156001149050610fed57600080fd5b610ff561172f565b15610fff57600080fd5b6010805460ff19166001908117909155600a5414156110205761102061218d565b565b60098054600181600116156101000203166002900480601f016020809104026020016040519081016040528092919081815260200182805460018160011615610100020316600290048015610cd95780601f10610cae57610100808354040283529160200191610cd9565b600a80548290811061109b57fe5b6000918252602090912060079091020180546002820154600483015460058401546006850154939550600190940193919290919060ff1686565b60015481565b60008054600160a060020a03166305fd22d033836040516020015260405160e060020a63ffffffff8416028152600160a060020a039091166004820152602401602060405180830381600087803b151561113457600080fd5b6102c65a03f1151561114557600080fd5b50505060405180511515600114905061115d57600080fd5b600160005460a060020a900460ff16600581111561117757fe5b1415610d61576000805460a060020a60ff02191660a160020a17905560008051602061278183398151915260045b60405160ff909116815260200160405180910390a1506001610d65565b600160005460a060020a900460ff1660058111156111dc57fe5b1415610ed45760008054600160a060020a03169063fda089589033906040516020015260405160e060020a63ffffffff8416028152600160a060020a039091166004820152602401602060405180830381600087803b151561123d57600080fd5b6102c65a03f1151561124e57600080fd5b50505060405180511515600114905061126657600080fd5b61126e61172f565b1561127857600080fd5b6000600a8281548110151561128957fe5b9060005260206000209060070201600401541115610ed457600d819055600e805460ff191660011790556000805460a060020a60ff02191660a160020a179055600080516020612781833981519152600360405160ff909116815260200160405180910390a150565b600d5490565b60008054600160a060020a031663fda0895833836040516020015260405160e060020a63ffffffff8416028152600160a060020a039091166004820152602401602060405180830381600087803b151561135157600080fd5b6102c65a03f1151561136257600080fd5b50505060405180511515600114905061137a57600080fd5b610d81612263565b6000808080808080600160005460a060020a900460ff1660058111156113a457fe5b141561148d5760008054600160a060020a0316906305fd22d09033906040516020015260405160e060020a63ffffffff8416028152600160a060020a039091166004820152602401602060405180830381600087803b151561140557600080fd5b6102c65a03f1151561141657600080fd5b50505060405180511515600114905061142e57600080fd5b6114378a6109d0565b91945092509050600160ff84161415611478576114548c8c612307565b9097509150600160ff8816141561147857600196506000955085945084935061148d565b611484828b8b8b61198b565b96509650965096505b50505095509550955095915050565b600a5490565b6114aa612502565b6000806000806114b8612514565b600a8054889081106114c657fe5b906000526020600020906007020160e0604051908101604052908160008201548152602001600182018054600181600116156101000203166002900480601f0160208091040260200160405190810160405280929190818152602001828054600181600116156101000203166002900480156115835780601f1061155857610100808354040283529160200191611583565b820191906000526020600020905b81548152906001019060200180831161156657829003601f168201915b50505050508152602001600282015481526020016003820180548060200260200160405190810160405281815291906000602084015b828210156116d157600084815260209020600683020160c0604051908101604052908160008201548152602001600182015460001916600019168152602001600282018054600181600116156101000203166002900480601f0160208091040260200160405190810160405280929190818152602001828054600181600116156101000203166002900480156116905780601f1061166557610100808354040283529160200191611690565b820191906000526020600020905b81548152906001019060200180831161167357829003601f168201915b505050918352505060038201546020808301919091526004830154604083015260059092015460ff16151560609091015290825260019290920191016115b9565b5050509082525060048201546020808301919091526005830154604083015260069092015460ff161515606090910152909150810151816040015182606001515183608001518460c00151939b929a50909850965090945092505050565b6000600754421180156117425750600a54155b15610d6157600160005460a060020a900460ff16600581111561176157fe5b14806117845750600260005460a060020a900460ff16600581111561178257fe5b145b15610d59576000805460a060020a60ff02191660a160020a17905560008051602061278183398151915260026111a5565b60006117bf612502565b6000806117ca612560565b600a8054889081106117d857fe5b9060005260206000209060070201600301868154811015156117f657fe5b906000526020600020906006020160c0604051908101604052908160008201548152602001600182015460001916600019168152602001600282018054600181600116156101000203166002900480601f0160208091040260200160405190810160405280929190818152602001828054600181600116156101000203166002900480156118c55780601f1061189a576101008083540402835291602001916118c5565b820191906000526020600020905b8154815290600101906020018083116118a857829003601f168201915b505050918352505060038201546020808301919091526004830154604083015260059092015460ff161515606090910152909150810151816040015182606001518360a00151929a91995097509095509350505050565b6000806000806000806000611930886109d0565b9197509550935061194185856117b5565b9295509350909150611955905088846120b8565b801561195e5750805b1561196c5760019650611971565b600096505b505050505050919050565b600e5460ff1681565b60085481565b60008080808080600160005460a060020a900460ff1660058111156119ac57fe5b14156120275760008054600160a060020a0316906305fd22d09033906040516020015260405160e060020a63ffffffff8416028152600160a060020a039091166004820152602401602060405180830381600087803b1515611a0d57600080fd5b6102c65a03f11515611a1e57600080fd5b505050604051805115156001149050611a3657600080fd5b611a3e610ce7565b151560011480611a4c575086155b80611a765750600a80548b908110611a6057fe5b9060005260206000209060070201600201546000145b15611a8e576001955060009450849350839250612027565b600a80548b908110611a9c57fe5b90600052602060002090600702016002015487600a8c815481101515611abe57fe5b906000526020600020906007020160040154011115611b2457611b21600a8b815481101515611ae957fe5b906000526020600020906007020160020154600a8c815481101515611b0a57fe5b9060005260206000209060070201600401546124cc565b96505b611b2e8a8a610ed7565b909250905060ff82161515611c0e57611b85600a8b815481101515611b4f57fe5b906000526020600020906007020160030182815481101515611b6d57fe5b906000526020600020906006020160030154886124de565b600a80548c908110611b9357fe5b906000526020600020906007020160030182815481101515611bb157fe5b90600052602060002090600602016003018190555042600a8b815481101515611bd657fe5b906000526020600020906007020160030182815481101515611bf457fe5b906000526020600020906006020160040181905550611d62565b600a80548b908110611c1c57fe5b90600052602060002090600702016003018054806001018281611c3f9190612581565b9160005260206000209060060201600060c060405190810160405280600a8f815481101515611c6a57fe5b6000918252602080832060036007909302019190910154835282018f9052604082018e9052606082018d905242608083015260a0909101529190508151815560208201516001820155604082015181600201908051611ccd9291602001906125b2565b50606082015181600301556080820151816004015560a0820151600591909101805460ff191691151591909117905550506000898152600b602052604090208a9055600a8054600191908c908110611d2157fe5b60009182526020808320600360079093020191909101548c8352600b90915260409091209190036001808301919091556002909101805460ff191690911790555b611d8c600a8b815481101515611d7457fe5b906000526020600020906007020160040154886124de565b600a80548c908110611d9a57fe5b9060005260206000209060070201600401819055507f2ca5aa4afa04f11467caafe7b396d938bc0fdd693831267b9b682e9d2924fab68a8a8a8a604051848152602081018490526060810182905260806040820181815290820184818151815260200191508051906020019080838360005b83811015611e24578082015183820152602001611e0c565b50505050905090810190601f168015611e515780820380516001836020036101000a031916815260200191505b509550505050505060405180910390a1600a80548b908110611e6f57fe5b906000526020600020906007020160020154600a8b815481101515611e9057fe5b60009182526020909120600460079092020101541492506001831415611ff957600d8a9055600e805460ff191660011790556000805460a060020a60ff02191660a160020a179055600a80547ffc283d648f2d223664cf7012091e001a932bf7f34644e0f5f58196aab51df5a7918c9182908110611f0a57fe5b9060005260206000209060070201600101600a8d815481101515611f2a57fe5b9060005260206000209060070201600201546040518381526040810182905260606020820181815284546002600019610100600184161502019091160491830182905290608083019085908015611fc25780601f10611f9757610100808354040283529160200191611fc2565b820191906000526020600020905b815481529060010190602001808311611fa557829003601f168201915b505094505050505060405180910390a1600080516020612781833981519152600060405160ff909116815260200160405180910390a15b600087600a8c81548110151561200b57fe5b6000918252602090912060026007909202010154919750955093505b5050945094509450949050565b600080600260005460a060020a900460ff16600581111561205157fe5b148015612061575060105460ff16155b15612097576000600a600d5481548110151561207957fe5b9060005260206000209060070201600401548191509150915061209f565b506001905060005b9091565b600054600160a060020a031681565b600c5481565b6000805b6020811015612181578281602081106120d157fe5b1a7f0100000000000000000000000000000000000000000000000000000000000000027effffffffffffffffffffffffffffffffffffffffffffffffffffffffffffff1916848260208110151561212457fe5b1a7f0100000000000000000000000000000000000000000000000000000000000000027effffffffffffffffffffffffffffffffffffffffffffffffffffffffffffff19161415156121795760009150612186565b6001016120bc565b600191505b5092915050565b61219561172f565b1561219f57600080fd5b6010805461ff001916610100179055610ed4612263565b6121be61172f565b156121c857600080fd5b6010805462ff00001916620100001790556000805460a060020a60ff02191674050000000000000000000000000000000000000000179055600d54600a805460019290811061221357fe5b60009182526020909120600790910201600601805460ff19169115159190911790557f4b0b9fa94d2929dd952e727b42973b107ca8e2d345ddac00a3c776d72100d03060405160405180910390a1565b6000600260005460a060020a900460ff16600581111561227f57fe5b148015612293575060105460ff1615156001145b80156122ac575060105460ff6101009091041615156001145b15610d65576000805460a060020a60ff021916740300000000000000000000000000000000000000001790557fb13d124f2b914dc60f0eadd4711ae8ebb3d2a4d235b29ef46b4379af2e9c326a60405160405180910390a190565b600080600160005460a060020a900460ff16600581111561232457fe5b1415610f6257612332610ce7565b15801561234157506006548310155b801561234f57506005548311155b1561249457600a8054906123669060018301612630565b905080600a8281548110151561237857fe5b6000918252602090912060079091020155600a80548591908390811061239a57fe5b90600052602060002090600702016001019080516123bc9291602001906125b2565b5082600a828154811015156123cd57fe5b9060005260206000209060070201600201819055507f8aceed8de06c3ec19c51e5ab9c1ca2eb054cbd116661d1282071fd7703cc353e8185856040518084815260200180602001838152602001828103825284818151815260200191508051906020019080838360005b8381101561244f578082015183820152602001612437565b50505050905090810190601f16801561247c5780820380516001836020036101000a031916815260200191505b5094505050505060405180910390a160009150610f62565b7fcef766fe8a34fc9d432cf018a05286683afedc6cb6f3703bd05ca86684199f4860405160405180910390a150600190506000610f62565b6000828211156124d857fe5b50900390565b60008282018381108015906124f35750828110155b15156124fb57fe5b9392505050565b60206040519081016040526000815290565b60e0604051908101604052806000815260200161252f612502565b815260200160008152602001612543612502565b815260200160008152602001600081526020016000151581525090565b60c06040519081016040908152600080835260208301528101612543612502565b8154818355818115116125ad576006028160060283600052602060002091820191016125ad919061265c565b505050565b828054600181600116156101000203166002900490600052602060002090601f016020900481019282601f106125f357805160ff1916838001178555612620565b82800160010185558215612620579182015b82811115612620578251825591602001919060010190612605565b5061262c9291506126a6565b5090565b8154818355818115116125ad576007028160070283600052602060002091820191016125ad91906126c0565b610d6591905b8082111561262c57600080825560018201819055612683600283018261271b565b50600060038201819055600482015560058101805460ff19169055600601612662565b610d6591905b8082111561262c57600081556001016126ac565b610d6591905b8082111561262c5760008082556126e0600183018261271b565b60028201600090556003820160006126f8919061275f565b50600060048201819055600582015560068101805460ff191690556007016126c6565b50805460018160011615610100020316600290046000825580601f106127415750610ed4565b601f016020900490600052602060002090810190610ed491906126a6565b5080546000825560060290600052602060002090810190610ed4919061265c5600c5edcd44be892ee502ab20d3835c4cd438b153df077c8b3e63c0bb631c6fee43a165627a7a723058209e856a67c93cf74a558fa454cab52364cdf09c8327f0ceac11f5e7ceff8001340029",
  "source": "pragma solidity ^0.4.17;\n\nimport \"./SafeMath.sol\";\nimport \"./Utils.sol\";\nimport \"./withAccessManager.sol\";\n\n\n\n/// @title Crowdsale contract\ncontract Crowdsale is withAccessManager {\n\n    // EVENTS \n\n    event EventGroupCreated(uint groupIndex, string name, uint goal);\n    event EventGroupGoalReached(uint groupIndex, string _name, uint goal);\n    event EventNewBid(uint groupIndex, bytes32 bidderId, string name, uint value);\n    event EventCrowdsaleOpen();\n    event EventCrowdsaleClosed(uint8 reasonCode);\n    event EventCrowdsaleWaiting();\n    event EventPaymentReceived(uint paidAmount);\n    event EventCrowdsaleCompleted();\n    event EventGroupCreationFailed();\n\n\n    // FIELDS \n\n    enum CrowdsaleCloseReasons { GroupGoalReached, DeadlineReached, NoBidsAndDeadlineReached, BorrowerClosed, PopulousClosed }\n    enum States { Pending, Open, Closed, WaitingForInvoicePayment, PaymentReceived, Completed }\n\n    States public status;\n\n    bytes32 public currencySymbol;\n    bytes32 public invoiceId;\n    string public invoiceNumber;\n    bytes32 public borrowerId;\n    uint public invoiceAmount;\n    uint public fundingGoal;\n    uint public deadline;\n    uint public platformTaxPercent;\n\n    string public signedDocumentIPFSHash;\n\n    struct Bidder {\n        uint bidderIndex; // bidder index\n        bytes32 bidderId; // bidder id\n        string name; // bidder's name\n        uint bidAmount; // total bid amount\n        uint lastBidAt; // Timestamp of last bid\n        bool hasReceivedTokensBack; // This flag is set when losing group receives its tokens back or when winner group gets its winnings\n    }\n\n    struct Group {\n        uint groupIndex; // group index\n        string name; // group name\n        uint goal; // group goal\n        Bidder[] bidders; // group bidders\n        uint amountRaised; // amount raised by group\n        uint biddersReceivedTokensBack;\n        bool hasReceivedTokensBack; // This is set to true when the flag hasReceivedTokensBack is set to true for all bidders in the group\n    }\n\n    struct BidderInfo {\n        uint groupIndex;\n        uint bidderIndex;\n        bool inAGroup;\n    }\n\n    //Groups\n    Group[] public groups;\n\n    //bidderId => BidderInfo\n    mapping (bytes32 => BidderInfo) bidderGroupInfo;\n\n\n    uint public groupsReceivedTokensBack;\n    uint public winnerGroupIndex;\n    bool public hasWinnerGroup;\n\n    uint public paidAmount;\n\n    bool public sentToBeneficiary;\n    bool public sentToLosingGroups;\n    bool public sentToWinnerGroup;\n\n    // MODIFIERS\n\n    modifier onlyOpenCrowdsale() { if (status == States.Open) { _; } }\n\n\n    // NON-CONSTANT METHODS\n\n\n    //Constructor\n    /** @dev Creates a new Crowdsale contract instance for an invoice crowdsale.\n      * @param _accessManager The address of an access manager contract instance.\n      * @param _currencySymbol The currency symbol, e.g., GBP.\n      * @param _borrowerId The unique borrower ID.\n      * @param _invoiceId The unique invoice ID.\n      * @param _invoiceNumber The unique invoice number.\n      * @param _invoiceAmount The invoice amount.\n      * @param _fundingGoal The funding goal of the borrower.\n      * @param _platformTaxPercent The percentage charged by the platform\n      * @param _signedDocumentIPFSHash The hash of related invoice documentation saved on IPFS.\n      */\n    function Crowdsale(\n            address _accessManager,\n            bytes32 _currencySymbol,\n            bytes32 _borrowerId,\n            bytes32 _invoiceId,\n            string _invoiceNumber,\n            uint _invoiceAmount,\n            uint _fundingGoal,\n            uint _platformTaxPercent,\n            string _signedDocumentIPFSHash)\n            public\n            withAccessManager(_accessManager)\n    {\n        currencySymbol = _currencySymbol;\n        borrowerId = _borrowerId;\n        invoiceId = _invoiceId;\n        invoiceNumber = _invoiceNumber;\n        invoiceAmount = _invoiceAmount;\n        fundingGoal = _fundingGoal;\n        platformTaxPercent = _platformTaxPercent;\n        signedDocumentIPFSHash = _signedDocumentIPFSHash;\n\n        deadline = now + 24 hours;\n        status = States.Open;\n    }\n\n    // check if crowdsale deadline has reached and if there were any bids\n    // if deadline reached change state to closed with reason being deadline\n    // reached and no bids\n    // return true or false if deadline reached and no bids\n    function checkNoBids() public returns(bool) {\n        if (now > deadline && groups.length == 0) {\n            if (status == States.Open || status == States.Closed) {\n            //if (status == States.Open && groups[0].amountRaised > 0)\n                status = States.Closed;\n                EventCrowdsaleClosed(uint8(CrowdsaleCloseReasons.NoBidsAndDeadlineReached));\n            }\n            return true;\n        }\n        return false;\n    }\n\n    /** @dev closes an open crowdsale\n      * @dev onlyPopulous allowed, i.e., populous address has to be msg.sender\n      * @dev function has to be implemented in populous.sol to be msg.sender\n      * @return success This is a boolean true/false indicating if crowdsale is closed.\n      */\n    function closeCrowdsale() public onlyPopulous returns(bool success) {\n        if (status == States.Open) {\n            status = States.Closed;\n            EventCrowdsaleClosed(uint8(CrowdsaleCloseReasons.PopulousClosed));\n            return true;\n        }\n        return false;\n    }\n\n    /** @dev Checks whether the invoice crowdsale deadline has passed or not.\n      * @return bool A boolean value indicating whether the deadline has passed or not.\n      */\n    function checkDeadline() public returns(bool) {\n        if (now > deadline) {\n            if (status == States.Open) {\n                status = States.Closed;\n                EventCrowdsaleClosed(uint8(CrowdsaleCloseReasons.DeadlineReached));\n                checkNoBids();\n            }\n            return true;\n        }\n        return false;\n    }\n\n    /** @dev Sets the 'hasReceivedTokensBack' for a bidder denoting they have received token refund and is restricted to populous.\n      * @param groupIndex The group id in a set of groups.\n      * @param bidderIndex The bidder id in a set of bidders within a group.\n      */\n    function setBidderHasReceivedTokensBack(uint groupIndex, uint bidderIndex) \n        public\n        onlyPopulous \n    {\n        groups[groupIndex].bidders[bidderIndex].hasReceivedTokensBack = true;\n        groups[groupIndex].biddersReceivedTokensBack++;\n\n        if (groups[groupIndex].biddersReceivedTokensBack == groups[groupIndex].bidders.length) {\n            groups[groupIndex].hasReceivedTokensBack = true;\n            groupsReceivedTokensBack++;\n            \n            if (groups.length == 1) {\n                setSentToLosingGroups();\n                setSentToWinnerGroup();\n            } else if (groups.length - 1 == groupsReceivedTokensBack) {\n                setSentToLosingGroups();\n            } else if (groups.length == groupsReceivedTokensBack) {\n                setSentToWinnerGroup();\n            }\n        }\n    }\n\n\n    /** @dev Sets the paidAmount and restricted to populous.\n      * @param _paidAmount The amount paid.\n      */\n    function setPaidAmount(uint _paidAmount) public onlyPopulous {\n        if (status == States.WaitingForInvoicePayment) {\n            paidAmount = _paidAmount;\n            status = States.PaymentReceived;\n\n            EventPaymentReceived(paidAmount);\n        }\n    } \n\n    /** @dev Creates a new bidding group for bidders to bid to fund an invoice and assigns the group an index in the collection of groups.\n      * @param _name The group name.\n      * @param _goal The goal of the group.\n      * @return err 0 or 1 implying absence or presence of error.\n      * @return groupIndex The returned group index/location in a collection of other groups.\n      */\n    function createGroup(string _name, uint _goal)\n        private\n        onlyOpenCrowdsale\n        returns (uint8 err, uint groupIndex)\n    {\n        if(checkDeadline() == false && _goal >= fundingGoal && _goal <= invoiceAmount) {\n            groupIndex = groups.length++;\n            groups[groupIndex].groupIndex = groupIndex;\n            groups[groupIndex].name = _name;\n            groups[groupIndex].goal = _goal;\n\n            EventGroupCreated(groupIndex, _name, _goal);\n\n            return (0, groupIndex);\n        } else {\n            EventGroupCreationFailed();\n            return (1, 0);\n        }\n    }\n\n\n    /** @dev Allows a bidder to place a bid as part of a group within a set of groups.\n      * @param groupIndex The index/location of a group in a set of groups.\n      * @param bidderId The bidder id/location in a set of bidders.\n      * @param name The bidder name.\n      * @param value The bid value.\n      * @return err 0 or 1 implying absence or presence of error.\n      * @return finalValue All bidder's bids value.\n      * @return groupGoal An unsigned integer representing the group's goal.\n      * @return goalReached A boolean value indicating whether the group goal has reached or not.\n      */\n    function bid(uint groupIndex, bytes32 bidderId, string name, uint value)\n        public\n        onlyOpenCrowdsale\n        onlyPopulous\n        returns (uint8 err, uint finalValue, uint groupGoal, bool goalReached)\n    {\n        if(checkDeadline() == true || value == 0 || groups[groupIndex].goal == 0) {\n            return (1, 0, 0, false);\n        }\n        // checking if amount raised by group and bid value exceed the group's goal\n        if (groups[groupIndex].amountRaised + value > groups[groupIndex].goal) {\n            value = SafeMath.safeSub(groups[groupIndex].goal, groups[groupIndex].amountRaised);\n        }\n\n        uint8 finderErr;\n        uint bidderIndex;\n        // searching for bidder\n        (finderErr, bidderIndex) = findBidder(groupIndex, bidderId);\n        \n        if (finderErr == 0) {\n            // if bidder found in a group, set timestamp of last bid and add to their bid amount\n            groups[groupIndex].bidders[bidderIndex].bidAmount = SafeMath.safeAdd(groups[groupIndex].bidders[bidderIndex].bidAmount, value);\n            groups[groupIndex].bidders[bidderIndex].lastBidAt = now;\n\n        } else {\n\n            // adding the bidder to a group if not found\n            groups[groupIndex].bidders.push(Bidder(groups[groupIndex].bidders.length, bidderId, name, value, now, false));\n            \n            // linking bidderIndex and groupIndex to bidder id for easy lookup\n            bidderGroupInfo[bidderId].groupIndex = groupIndex;\n            bidderGroupInfo[bidderId].bidderIndex = groups[groupIndex].bidders.length - 1;\n            bidderGroupInfo[bidderId].inAGroup = true;\n        }\n        // adding bid value to amount raised for the group using the group index to locate group in groups array\n        groups[groupIndex].amountRaised = SafeMath.safeAdd(groups[groupIndex].amountRaised, value);\n\n        EventNewBid(groupIndex, bidderId, name, value);\n        // boolean value to check if goal has reached\n        goalReached = groups[groupIndex].amountRaised == groups[groupIndex].goal;\n        // using the above boolean value to set the winning group and set the status of the crowdsale to closed\n        if (goalReached == true) {\n            winnerGroupIndex = groupIndex;\n            hasWinnerGroup = true;\n            status = States.Closed;\n            // event denoting groupGoalReached\n            EventGroupGoalReached(groupIndex, groups[groupIndex].name, groups[groupIndex].goal);\n            // event denoting crowdsaleClosed\n            EventCrowdsaleClosed(uint8(CrowdsaleCloseReasons.GroupGoalReached));\n        }\n\n        return (0, value, groups[groupIndex].goal, goalReached);\n    }\n\n    /** @dev Allows a first time bidder to create a new group if they do not belong to a group\n      * @dev and place an intial bid.\n      * @dev This function creates a group and calls the bid() function.\n      * @param groupName The name of the new investor group to be created.\n      * @param goal The group funding goal.\n      * @param bidderId The bidder id/location in a set of bidders.\n      * @param name The bidder name.\n      * @param value The bid value.\n      * @return err 0 or 1 implying absence or presence of error.\n      * @return finalValue All bidder's bids value.\n      * @return groupGoal An unsigned integer representing the group's goal.\n      * @return goalReached A boolean value indicating whether the group goal has reached or not.\n      */\n    function initialBid(string groupName, uint goal, bytes32 bidderId, string name, uint value)\n        public\n        onlyOpenCrowdsale\n        onlyPopulous\n        returns (uint8 err, uint finalValue, uint groupGoal, bool goalReached)\n    {      \n        uint8 finderErr;\n        uint groupIndex;\n        uint bidderIndex;\n        // searching for bidder\n        (finderErr, groupIndex, bidderIndex) = findBidder(bidderId);\n        // check that bidder is in a group -> call bid()\n        if (finderErr == 1) {\n            // if bidder is not in a group, create group - > get group index ->  call bid() with group index \n            // bidder is not in any group. New group can be created at this point.\n            (err, groupIndex) = createGroup(groupName, goal);\n            \n            if (err == 1) {\n                return (1, 0, 0, false);\n            }\n        }\n        return bid(groupIndex, bidderId, name, value);\n        \n    }\n\n    /** @dev Allows a borrower to choose a bid winner group and checks amount raised from that group is > 0.\n      * @param groupIndex The selected index/location of the group in the groups array.\n      */\n    function borrowerChooseWinner(uint groupIndex)\n        public\n        onlyOpenCrowdsale\n        onlyServer\n    {\n        require(!checkNoBids());\n        if (groups[groupIndex].amountRaised > 0) {\n            winnerGroupIndex = groupIndex;\n            hasWinnerGroup = true;\n            status = States.Closed;\n\n            EventCrowdsaleClosed(uint8(CrowdsaleCloseReasons.BorrowerClosed));\n        }\n    }\n\n    \n\n    // calls the _waitingForPayment method\n    function waitingForPayment() public onlyServer returns(bool) {\n        return _waitingForPayment();\n    }\n\n    /** @dev Sets the status to a state of '_waitingForPayment'.\n      * @dev If the current status is closed, sentToBeneficiary and sentToLosingGroups are true.\n      * @return bool A boolean value true or false.\n      */\n    function _waitingForPayment() private returns(bool) {\n        if (status == States.Closed && sentToBeneficiary == true && sentToLosingGroups == true) {\n            // Tokens have been sent to beneficiary\n            // Tokens have been sent to loser groups\n            status = States.WaitingForInvoicePayment;\n            EventCrowdsaleWaiting();\n        }\n    }\n\n    /** @dev Sets the 'sentToBeneficiary' boolean variable to true.\n      * @dev Only populous can use this method.\n      */\n    function setSentToBeneficiary() public onlyPopulous {\n        require(!checkNoBids());\n        sentToBeneficiary = true;\n\n        // We have only 1 group (the winning group) and we set \n        // the losing groups as refunded automatically.\n        if (groups.length == 1) {\n            setSentToLosingGroups();\n        }\n        \n    }\n\n    /** @dev Sets the sent 'setSentToLosingGroups' boolean variable to true.\n      */\n    function setSentToLosingGroups() private {\n        require(!checkNoBids());\n        sentToLosingGroups = true;\n        \n        _waitingForPayment();\n    }\n\n    /** @dev Sets the sent 'sentToWinnerGroup' boolean variable to true.\n      * @dev Sets the status of the crowdsale to completed\n      * @dev Sets the boolean 'hasReceivedTokensBack' variable of the winning group to true\n      */\n    function setSentToWinnerGroup() private {\n        require(!checkNoBids());\n\n        sentToWinnerGroup = true;\n        status = States.Completed;\n        groups[winnerGroupIndex].hasReceivedTokensBack = true;\n        \n        EventCrowdsaleCompleted();\n    }\n\n\n    // CONSTANT METHODS\n\n\n    /** @dev Gets the paid amount \n      * @return uint The paid amount.\n      */\n    function getPaidAmount() public view returns (uint) {\n        return paidAmount;\n    }\n\n    /** @dev Gets the paid amount \n      * @return uint The paid amount.\n      */\n    function getWinnerGroupIndex() public view returns (uint) {\n        return winnerGroupIndex;\n    }\n\n    /** @dev Gets the current status.\n      * @return uint8 The returned status.\n      */\n    function getStatus() public view returns (uint8) {\n        return uint8(status);\n    }\n\n    /** @dev Gets the number of groups in the groups array.\n      * @return uint The number of bidding groups in the crowdsale.\n      */\n    function getGroupsCount() public view returns (uint) {\n        return groups.length;\n    }\n\n    \n    /** @dev Checks if a bidder in any bidding group\n      * has received their tokens back.\n      * @param bidderId The bidder ID\n      * @return received The boolean true/false indicating token received or not.\n      */\n    function bidderHasTokensBack (bytes32 bidderId) public view returns(bool received) {\n        uint8 err;\n        uint groupIndex;\n        uint bidderIndex;\n        (err, groupIndex, bidderIndex) = findBidder(bidderId);\n        bytes32 bidder;\n        uint bidAmount;\n        bool hasReceivedTokensBack;\n        (bidder, , bidAmount, hasReceivedTokensBack) = getGroupBidder(groupIndex, bidderIndex);\n        if (Utils.equal(bidderId, bidder) && hasReceivedTokensBack) {\n            return true;\n        }\n        return false;\n\n    }\n\n\n    /** @dev Gets the details of a group located by its index/location in the group array..\n      * @param groupIndex The location of a group within the groups array variable.\n      * @return name The group name.\n      * @return goal The amount representing the group funding goal.\n      * @return biddersCount The number of bidders in the bidding group.\n      * @return amountRaised The amount of tokens raised by the group during crowdsale.\n      * @return hasReceivedTokensBack A boolean value indicating if group has been funded after crowdsale.\n      */ \n    function getGroup(uint groupIndex)\n        public view\n        returns (string name, uint goal, uint biddersCount, uint amountRaised, bool hasReceivedTokensBack)\n    {\n        Group memory g = groups[groupIndex];\n\n        return (g.name, g.goal, g.bidders.length, g.amountRaised, g.hasReceivedTokensBack);\n    }\n\n    /** @dev Gets a bidders details from a group.\n      * @param groupIndex The location of a group in the groups array.\n      * @param bidderIndex The location of a bidder in the bidders arrays of a group\n      * @return bidderId The bidder ID.\n      * @return name The bidder name.\n      * @return bidAmount The bid amount.\n      * @return hasReceivedTokensBack A boolean value to indicate whether the loosing group has received a refund of their tokens.\n      */\n    function getGroupBidder(uint groupIndex, uint bidderIndex)\n        public view\n        returns (bytes32 bidderId, string name, uint bidAmount, bool hasReceivedTokensBack)\n    {\n        Bidder memory b = groups[groupIndex].bidders[bidderIndex];\n\n        return (b.bidderId, b.name, b.bidAmount, b.hasReceivedTokensBack);\n    }\n\n    /** @dev Finds a bidder in a list of bidders with bidder ID.\n      * @param bidderId The bytes32 bidder ID.\n      * @return err 0 or 1 implying absence or presence of error.\n      * @return bidderIndex The location of the bidder in bidders array.\n      * @return groupIndex The location of the bidders group in the groups array.\n      */\n    function findBidder(bytes32 bidderId) public view returns (uint8 err, uint groupIndex, uint bidderIndex) {\n        bidderIndex = bidderGroupInfo[bidderId].bidderIndex;\n        groupIndex = bidderGroupInfo[bidderId].groupIndex;\n        if (!bidderGroupInfo[bidderId].inAGroup) {\n            return (1, 0, 0);\n        } else if (Utils.equal(groups[groupIndex].bidders[bidderIndex].bidderId, bidderId) == true) {\n            return (0, groupIndex, bidderIndex);\n        }\n        \n        /* for(groupIndex = 0; groupIndex < groups.length; groupIndex++) {\n            for(bidderIndex = 0; bidderIndex < groups[groupIndex].bidders.length; bidderIndex++) {\n                if (Utils.equal(groups[groupIndex].bidders[bidderIndex].bidderId, bidderId) == true) {\n                    return (0, groupIndexes[bidderIndex], bidderIndexes[bidderId]);\n                }\n            }\n        }\n        return (1, 0, 0); */\n    }\n\n    /** @dev Finds a bidder in a list of bidders with bidder ID and group index.\n      * @param groupIndex The location of a group in the groups array.\n      * @param bidderIndex The location of a bidder in the bidders arrays of a group\n      * @return err 0 or 1 implying absence or presence of error.\n      * @return bidderIndex The location of the bidder in bidders array.\n      */\n    function findBidder(uint groupIndex, bytes32 bidderId) public view returns (uint8 err, uint bidderIndex) {\n        bidderIndex = bidderGroupInfo[bidderId].bidderIndex;\n        groupIndex = bidderGroupInfo[bidderId].groupIndex;\n        if (!bidderGroupInfo[bidderId].inAGroup) {\n            return (1, 0);\n        } else if (Utils.equal(groups[groupIndex].bidders[bidderIndex].bidderId, bidderId) == true) {\n            return (0, bidderIndex);\n        }\n        /* for(bidderIndex = 0; bidderIndex < groups[groupIndex].bidders.length; bidderIndex++) {\n            if (Utils.equal(groups[groupIndex].bidders[bidderIndex].bidderId, bidderId) == true) {\n                return (0, bidderIndexes[bidderId]);\n            }\n        }\n        return (1, 0);  */ \n    }\n\n    /** @dev Gets beneficiary's token amount after bidding is closed.\n      * @return amount The total bid amount.\n      * @return err 0 or 1 implying absence or presence of error.\n      */\n    function getAmountForBeneficiary() public view returns (uint8 err, uint amount) {\n        if (status == States.Closed && sentToBeneficiary == false) {\n            return (0, groups[winnerGroupIndex].amountRaised);\n        } else {\n            return (1, 0);\n        }\n    }\n\n}",
  "sourcePath": "/Users/najienka/Desktop/populous-smartcontracts/contracts/Crowdsale.sol",
  "schemaVersion": "1.0.0",
  "updatedAt": "2017-12-27T12:41:24.976Z"
}