{
  "contractName": "CurrencyToken",
  "abi": [
    {
      "constant": false,
      "inputs": [
        {
          "name": "_accessManager",
          "type": "address"
        }
      ],
      "name": "updateAccessManager",
      "outputs": [],
      "payable": false,
      "stateMutability": "nonpayable",
      "type": "function"
    },
    {
      "constant": true,
      "inputs": [],
      "name": "name",
      "outputs": [
        {
          "name": "",
          "type": "bytes32"
        }
      ],
      "payable": false,
      "stateMutability": "view",
      "type": "function"
    },
    {
      "constant": false,
      "inputs": [
        {
          "name": "_spender",
          "type": "address"
        },
        {
          "name": "_value",
          "type": "uint256"
        }
      ],
      "name": "approve",
      "outputs": [
        {
          "name": "success",
          "type": "bool"
        }
      ],
      "payable": false,
      "stateMutability": "nonpayable",
      "type": "function"
    },
    {
      "constant": true,
      "inputs": [
        {
          "name": "_addr",
          "type": "address"
        }
      ],
      "name": "isContract",
      "outputs": [
        {
          "name": "is_contract",
          "type": "bool"
        }
      ],
      "payable": false,
      "stateMutability": "view",
      "type": "function"
    },
    {
      "constant": true,
      "inputs": [],
      "name": "totalSupply",
      "outputs": [
        {
          "name": "",
          "type": "uint256"
        }
      ],
      "payable": false,
      "stateMutability": "view",
      "type": "function"
    },
    {
      "constant": false,
      "inputs": [
        {
          "name": "_from",
          "type": "address"
        },
        {
          "name": "_to",
          "type": "address"
        },
        {
          "name": "_value",
          "type": "uint256"
        }
      ],
      "name": "transferFrom",
      "outputs": [
        {
          "name": "success",
          "type": "bool"
        }
      ],
      "payable": false,
      "stateMutability": "nonpayable",
      "type": "function"
    },
    {
      "constant": true,
      "inputs": [],
      "name": "decimals",
      "outputs": [
        {
          "name": "",
          "type": "uint8"
        }
      ],
      "payable": false,
      "stateMutability": "view",
      "type": "function"
    },
    {
      "constant": false,
      "inputs": [
        {
          "name": "_to",
          "type": "address"
        },
        {
          "name": "_value",
          "type": "uint256"
        },
        {
          "name": "_data",
          "type": "bytes"
        }
      ],
      "name": "transferToContract",
      "outputs": [
        {
          "name": "success",
          "type": "bool"
        }
      ],
      "payable": false,
      "stateMutability": "nonpayable",
      "type": "function"
    },
    {
      "constant": false,
      "inputs": [
        {
          "name": "amount",
          "type": "uint256"
        }
      ],
      "name": "destroyTokens",
      "outputs": [
        {
          "name": "success",
          "type": "bool"
        }
      ],
      "payable": false,
      "stateMutability": "nonpayable",
      "type": "function"
    },
    {
      "constant": true,
      "inputs": [
        {
          "name": "_owner",
          "type": "address"
        }
      ],
      "name": "balanceOf",
      "outputs": [
        {
          "name": "balance",
          "type": "uint256"
        }
      ],
      "payable": false,
      "stateMutability": "view",
      "type": "function"
    },
    {
      "constant": true,
      "inputs": [],
      "name": "symbol",
      "outputs": [
        {
          "name": "",
          "type": "bytes32"
        }
      ],
      "payable": false,
      "stateMutability": "view",
      "type": "function"
    },
    {
      "constant": false,
      "inputs": [
        {
          "name": "amount",
          "type": "uint256"
        }
      ],
      "name": "mintTokens",
      "outputs": [],
      "payable": false,
      "stateMutability": "nonpayable",
      "type": "function"
    },
    {
      "constant": false,
      "inputs": [
        {
          "name": "_to",
          "type": "address"
        },
        {
          "name": "_value",
          "type": "uint256"
        }
      ],
      "name": "transfer",
      "outputs": [
        {
          "name": "success",
          "type": "bool"
        }
      ],
      "payable": false,
      "stateMutability": "nonpayable",
      "type": "function"
    },
    {
      "constant": false,
      "inputs": [
        {
          "name": "_to",
          "type": "address"
        },
        {
          "name": "_value",
          "type": "uint256"
        }
      ],
      "name": "transferToAddress",
      "outputs": [
        {
          "name": "success",
          "type": "bool"
        }
      ],
      "payable": false,
      "stateMutability": "nonpayable",
      "type": "function"
    },
    {
      "constant": false,
      "inputs": [
        {
          "name": "_to",
          "type": "address"
        },
        {
          "name": "_value",
          "type": "uint256"
        },
        {
          "name": "_data",
          "type": "bytes"
        }
      ],
      "name": "transfer",
      "outputs": [
        {
          "name": "success",
          "type": "bool"
        }
      ],
      "payable": false,
      "stateMutability": "nonpayable",
      "type": "function"
    },
    {
      "constant": true,
      "inputs": [
        {
          "name": "_owner",
          "type": "address"
        },
        {
          "name": "_spender",
          "type": "address"
        }
      ],
      "name": "allowance",
      "outputs": [
        {
          "name": "remaining",
          "type": "uint256"
        }
      ],
      "payable": false,
      "stateMutability": "view",
      "type": "function"
    },
    {
      "constant": true,
      "inputs": [],
      "name": "AM",
      "outputs": [
        {
          "name": "",
          "type": "address"
        }
      ],
      "payable": false,
      "stateMutability": "view",
      "type": "function"
    },
    {
      "inputs": [
        {
          "name": "_accessManager",
          "type": "address"
        },
        {
          "name": "_tokenName",
          "type": "bytes32"
        },
        {
          "name": "_decimalUnits",
          "type": "uint8"
        },
        {
          "name": "_tokenSymbol",
          "type": "bytes32"
        }
      ],
      "payable": false,
      "stateMutability": "nonpayable",
      "type": "constructor"
    },
    {
      "anonymous": false,
      "inputs": [
        {
          "indexed": false,
          "name": "_to",
          "type": "address"
        },
        {
          "indexed": false,
          "name": "_value",
          "type": "uint256"
        },
        {
          "indexed": false,
          "name": "_data",
          "type": "bytes"
        }
      ],
      "name": "ContractTransfer",
      "type": "event"
    },
    {
      "anonymous": false,
      "inputs": [
        {
          "indexed": true,
          "name": "_from",
          "type": "address"
        },
        {
          "indexed": true,
          "name": "_to",
          "type": "address"
        },
        {
          "indexed": false,
          "name": "_value",
          "type": "uint256"
        }
      ],
      "name": "Transfer",
      "type": "event"
    },
    {
      "anonymous": false,
      "inputs": [
        {
          "indexed": true,
          "name": "_owner",
          "type": "address"
        },
        {
          "indexed": true,
          "name": "_spender",
          "type": "address"
        },
        {
          "indexed": false,
          "name": "_value",
          "type": "uint256"
        }
      ],
      "name": "Approval",
      "type": "event"
    }
  ],
  "bytecode": "0x606060405260008055341561001357600080fd5b604051608080610ee98339810160405280805191906020018051919060200180519190602001805160038054600160a060020a031916600160a060020a03979097169690961790955550506004919091556005805460ff191660ff909216919091179055600655610e60806100896000396000f300606060405236156100d55763ffffffff60e060020a60003504166302ab72c481146100da57806306fdde03146100fb578063095ea7b314610120578063162790551461015657806318160ddd1461017557806323b872dd14610188578063313ce567146101b05780633f35d033146101d957806367fbd2891461023e57806370a082311461025457806395d89b411461027357806397304ced14610286578063a9059cbb1461029c578063acef6037146102be578063be45fd62146102e0578063dd62ed3e14610345578063f7f01b4b1461036a575b600080fd5b34156100e557600080fd5b6100f9600160a060020a0360043516610399565b005b341561010657600080fd5b61010e61044a565b60405190815260200160405180910390f35b341561012b57600080fd5b610142600160a060020a0360043516602435610450565b604051901515815260200160405180910390f35b341561016157600080fd5b610142600160a060020a03600435166104bd565b341561018057600080fd5b61010e6104dd565b341561019357600080fd5b610142600160a060020a03600435811690602435166044356104e3565b34156101bb57600080fd5b6101c3610600565b60405160ff909116815260200160405180910390f35b34156101e457600080fd5b61014260048035600160a060020a03169060248035919060649060443590810190830135806020601f8201819004810201604051908101604052818152929190602084018383808284375094965061060995505050505050565b341561024957600080fd5b61014260043561087a565b341561025f57600080fd5b61010e600160a060020a0360043516610abe565b341561027e57600080fd5b61010e610ad9565b341561029157600080fd5b6100f9600435610adf565b34156102a757600080fd5b610142600160a060020a0360043516602435610c8a565b34156102c957600080fd5b610142600160a060020a0360043516602435610cc5565b34156102eb57600080fd5b61014260048035600160a060020a03169060248035919060649060443590810190830135806020601f82018190048102016040519081016040528181529291906020840183838082843750949650610d8d95505050505050565b341561035057600080fd5b61010e600160a060020a0360043581169060243516610db9565b341561037557600080fd5b61037d610de4565b604051600160a060020a03909116815260200160405180910390f35b600354600160a060020a0316630c68ba213360006040516020015260405160e060020a63ffffffff8416028152600160a060020a039091166004820152602401602060405180830381600087803b15156103f257600080fd5b6102c65a03f1151561040357600080fd5b50505060405180511515600114905061041b57600080fd5b6003805473ffffffffffffffffffffffffffffffffffffffff1916600160a060020a0392909216919091179055565b60045481565b600160a060020a03338116600081815260026020908152604080832094871680845294909152808220859055909291907f8c5be1e5ebec7d5bd14f71427d1e84f3dd0314c0f7b2291e5b200ac8c7c3b9259085905190815260200160405180910390a35060015b92915050565b6000813b818111156104d257600191506104d7565b600091505b50919050565b60005481565b600160a060020a0383166000908152600160205260408120548290108015906105335750600160a060020a0380851660009081526002602090815260408083203390941683529290522054829010155b801561053f5750600082115b80156105645750600160a060020a038316600090815260016020526040902054828101115b156105f557600160a060020a03808416600081815260016020908152604080832080548801905588851680845281842080548990039055600283528184203390961684529490915290819020805486900390559091907fddf252ad1be2c89b69c2b068fc378daa952ba7f163c4a11628f55a4df523b3ef9085905190815260200160405180910390a35060016105f9565b5060005b9392505050565b60055460ff1681565b600160a060020a03331660009081526001602052604081205481908490108015906106345750600084115b80156106595750600160a060020a038516600090815260016020526040902054848101115b1561086d5750600160a060020a033381811660009081526001602052604080822080548890039055928716808252908390208054870190558692909163c0ee0b8a9187908790518463ffffffff1660e060020a0281526004018084600160a060020a0316600160a060020a0316815260200183815260200180602001828103825283818151815260200191508051906020019080838360005b8381101561070a5780820151838201526020016106f2565b50505050905090810190601f1680156107375780820380516001836020036101000a031916815260200191505b50945050505050600060405180830381600087803b151561075757600080fd5b6102c65a03f1151561076857600080fd5b50505084600160a060020a031633600160a060020a03167fddf252ad1be2c89b69c2b068fc378daa952ba7f163c4a11628f55a4df523b3ef8660405190815260200160405180910390a37fb35b712dc2c80945537903ca9aa7ed83607d14fc206a7e7ef41d5cf8946a3772858585604051600160a060020a03841681526020810183905260606040820181815290820183818151815260200191508051906020019080838360005b83811015610828578082015183820152602001610810565b50505050905090810190601f1680156108555780820380516001836020036101000a031916815260200191505b5094505050505060405180910390a160019150610872565b600091505b509392505050565b600354600090600160a060020a03166305fd22d033836040516020015260405160e060020a63ffffffff8416028152600160a060020a039091166004820152602401602060405180830381600087803b15156108d557600080fd5b6102c65a03f115156108e657600080fd5b5050506040518051151560011490506108fe57600080fd5b6003548290600190600090600160a060020a03166394a3760f82604051602001526040518163ffffffff1660e060020a028152600401602060405180830381600087803b151561094d57600080fd5b6102c65a03f1151561095e57600080fd5b5050506040518051600160a060020a0316825250602081019190915260400160002054101561098f57506000610ab9565b600354610a1a90600190600090600160a060020a03166394a3760f82604051602001526040518163ffffffff1660e060020a028152600401602060405180830381600087803b15156109e057600080fd5b6102c65a03f115156109f157600080fd5b5050506040518051600160a060020a031682525060208101919091526040016000205483610df3565b600354600190600090600160a060020a03166394a3760f82604051602001526040518163ffffffff1660e060020a028152600401602060405180830381600087803b1515610a6757600080fd5b6102c65a03f11515610a7857600080fd5b50505060405180519050600160a060020a0316600160a060020a0316815260200190815260200160002081905550610ab260005483610df3565b6000555060015b919050565b600160a060020a031660009081526001602052604090205490565b60065481565b600354600160a060020a03166305fd22d03360006040516020015260405160e060020a63ffffffff8416028152600160a060020a039091166004820152602401602060405180830381600087803b1515610b3857600080fd5b6102c65a03f11515610b4957600080fd5b505050604051805115156001149050610b6157600080fd5b600354610bec90600190600090600160a060020a03166394a3760f82604051602001526040518163ffffffff1660e060020a028152600401602060405180830381600087803b1515610bb257600080fd5b6102c65a03f11515610bc357600080fd5b5050506040518051600160a060020a031682525060208101919091526040016000205482610e05565b600354600190600090600160a060020a03166394a3760f82604051602001526040518163ffffffff1660e060020a028152600401602060405180830381600087803b1515610c3957600080fd5b6102c65a03f11515610c4a57600080fd5b50505060405180519050600160a060020a0316600160a060020a0316815260200190815260200160002081905550610c8460005482610e05565b60005550565b6000610c94610e22565b610c9d846104bd565b15610cb457610cad848483610609565b9150610cbe565b610cad8484610cc5565b5092915050565b600160a060020a033316600090815260016020526040812054829010801590610cee5750600082115b8015610d135750600160a060020a038316600090815260016020526040902054828101115b15610d8557600160a060020a033381166000818152600160205260408082208054879003905592861680825290839020805486019055917fddf252ad1be2c89b69c2b068fc378daa952ba7f163c4a11628f55a4df523b3ef9085905190815260200160405180910390a35060016104b7565b5060006104b7565b6000610d98846104bd565b15610daf57610da8848484610609565b90506105f9565b610da88484610cc5565b600160a060020a03918216600090815260026020908152604080832093909416825291909152205490565b600354600160a060020a031681565b600082821115610dff57fe5b50900390565b6000828201838110801590610e1a5750828110155b15156105f957fe5b602060405190810160405260008152905600a165627a7a72305820940e15d91a30b5e9242d71f6222444b2be479aec6b12f60d52a1949151c69d610029",
  "source": "pragma solidity ^0.4.17;\n\nimport \"./ERC23Token.sol\";\nimport \"./SafeMath.sol\";\nimport \"./withAccessManager.sol\";\n\n\n/// @title CurrencyToken contract\ncontract CurrencyToken is ERC23Token, withAccessManager {\n\n    // FIELDS\n\n    bytes32 public name;// token name, e.g, pounds for fiat UK pounds.\n    uint8 public decimals;// How many decimals to show. ie. There could 1000 base units with 3 decimals. Meaning 0.980 SBX = 980 base units. It's like comparing 1 wei to 1 ether.\n    bytes32 public symbol;// An identifier: eg SBX.\n\n\n    // NON-CONSTANT METHODS\n    \n    /** @dev Creates a new currency/token.\n      * @param _accessManager The accessManage contract address.\n      * @param _decimalUnits The decimal units/places the token can have.\n      * @param _tokenSymbol The token's symbol, e.g., GBP.\n      * @return p The calculated perimeter.\n      */\n    function CurrencyToken (\n        address _accessManager,\n        bytes32 _tokenName,\n        uint8 _decimalUnits,\n        bytes32 _tokenSymbol)\n        public\n        withAccessManager(_accessManager)\n    {\n        name = _tokenName; // Set the name for display purposes\n        decimals = _decimalUnits; // Amount of decimals for display purposes\n        symbol = _tokenSymbol; // Set the symbol for display purposes\n    }\n\n    /** @dev Mints/Generates a specified amount of tokens \n      * @dev The method uses a modifier from withAccessManager contract to only permit populous to use it.\n      * @dev The method uses SafeMath to carry out safe additions.\n      * @param amount The amount of tokens to create.\n      */\n    function mintTokens(uint amount) public onlyPopulous {\n        balances[AM.populous()] = SafeMath.safeAdd(balances[AM.populous()], amount);\n        totalSupply = SafeMath.safeAdd(totalSupply, amount);\n    }\n\n    /** @dev Destroys a specified amount of tokens \n      * @dev The method uses a modifier from withAccessManager contract to only permit populous to use it.\n      * @dev The method uses SafeMath to carry out safe token deductions/subtraction.\n      * @param amount The amount of tokens to create.\n      */\n    function destroyTokens(uint amount) public onlyPopulous returns (bool success) {\n        if (balances[AM.populous()] < amount) {\n            return false;\n        } else {\n            balances[AM.populous()] = SafeMath.safeSub(balances[AM.populous()], amount);\n            totalSupply = SafeMath.safeSub(totalSupply, amount);\n            return true;\n        }\n    }\n}",
  "sourcePath": "/Users/najienka/Desktop/populous-smartcontracts/contracts/CurrencyToken.sol",
  "schemaVersion": "1.0.0",
  "updatedAt": "2018-01-02T17:41:06.906Z"
}