{
  "contractName": "CurrencyToken",
  "abi": [
    {
      "constant": true,
      "inputs": [],
      "name": "name",
      "outputs": [
        {
          "name": "",
          "type": "bytes32"
        }
      ],
      "payable": false,
      "stateMutability": "view",
      "type": "function"
    },
    {
      "constant": true,
      "inputs": [],
      "name": "totalSupply",
      "outputs": [
        {
          "name": "",
          "type": "uint256"
        }
      ],
      "payable": false,
      "stateMutability": "view",
      "type": "function"
    },
    {
      "constant": true,
      "inputs": [
        {
          "name": "",
          "type": "address"
        }
      ],
      "name": "balances",
      "outputs": [
        {
          "name": "",
          "type": "uint256"
        }
      ],
      "payable": false,
      "stateMutability": "view",
      "type": "function"
    },
    {
      "constant": true,
      "inputs": [],
      "name": "decimals",
      "outputs": [
        {
          "name": "",
          "type": "uint8"
        }
      ],
      "payable": false,
      "stateMutability": "view",
      "type": "function"
    },
    {
      "constant": true,
      "inputs": [
        {
          "name": "",
          "type": "address"
        },
        {
          "name": "",
          "type": "address"
        }
      ],
      "name": "allowed",
      "outputs": [
        {
          "name": "",
          "type": "uint256"
        }
      ],
      "payable": false,
      "stateMutability": "view",
      "type": "function"
    },
    {
      "constant": true,
      "inputs": [],
      "name": "populous",
      "outputs": [
        {
          "name": "",
          "type": "address"
        }
      ],
      "payable": false,
      "stateMutability": "view",
      "type": "function"
    },
    {
      "constant": true,
      "inputs": [],
      "name": "symbol",
      "outputs": [
        {
          "name": "",
          "type": "bytes32"
        }
      ],
      "payable": false,
      "stateMutability": "view",
      "type": "function"
    },
    {
      "constant": true,
      "inputs": [],
      "name": "server",
      "outputs": [
        {
          "name": "",
          "type": "address"
        }
      ],
      "payable": false,
      "stateMutability": "view",
      "type": "function"
    },
    {
      "inputs": [],
      "payable": false,
      "stateMutability": "nonpayable",
      "type": "constructor"
    },
    {
      "anonymous": false,
      "inputs": [
        {
          "indexed": true,
          "name": "_from",
          "type": "address"
        },
        {
          "indexed": true,
          "name": "_to",
          "type": "address"
        },
        {
          "indexed": false,
          "name": "_value",
          "type": "uint256"
        }
      ],
      "name": "Transfer",
      "type": "event"
    },
    {
      "anonymous": false,
      "inputs": [
        {
          "indexed": true,
          "name": "_owner",
          "type": "address"
        },
        {
          "indexed": true,
          "name": "_spender",
          "type": "address"
        },
        {
          "indexed": false,
          "name": "_value",
          "type": "uint256"
        }
      ],
      "name": "Approval",
      "type": "event"
    },
    {
      "constant": false,
      "inputs": [
        {
          "name": "amount",
          "type": "uint256"
        }
      ],
      "name": "destroyTokens",
      "outputs": [
        {
          "name": "success",
          "type": "bool"
        }
      ],
      "payable": false,
      "stateMutability": "nonpayable",
      "type": "function"
    },
    {
      "constant": false,
      "inputs": [
        {
          "name": "amount",
          "type": "uint256"
        },
        {
          "name": "from",
          "type": "address"
        }
      ],
      "name": "destroyTokensFrom",
      "outputs": [
        {
          "name": "success",
          "type": "bool"
        }
      ],
      "payable": false,
      "stateMutability": "nonpayable",
      "type": "function"
    },
    {
      "constant": false,
      "inputs": [
        {
          "name": "_to",
          "type": "address"
        },
        {
          "name": "_value",
          "type": "uint256"
        }
      ],
      "name": "transfer",
      "outputs": [
        {
          "name": "success",
          "type": "bool"
        }
      ],
      "payable": false,
      "stateMutability": "nonpayable",
      "type": "function"
    },
    {
      "constant": false,
      "inputs": [
        {
          "name": "_from",
          "type": "address"
        },
        {
          "name": "_to",
          "type": "address"
        },
        {
          "name": "_value",
          "type": "uint256"
        }
      ],
      "name": "transferFrom",
      "outputs": [
        {
          "name": "success",
          "type": "bool"
        }
      ],
      "payable": false,
      "stateMutability": "nonpayable",
      "type": "function"
    },
    {
      "constant": true,
      "inputs": [
        {
          "name": "_owner",
          "type": "address"
        }
      ],
      "name": "balanceOf",
      "outputs": [
        {
          "name": "balance",
          "type": "uint256"
        }
      ],
      "payable": false,
      "stateMutability": "view",
      "type": "function"
    },
    {
      "constant": false,
      "inputs": [
        {
          "name": "_spender",
          "type": "address"
        },
        {
          "name": "_value",
          "type": "uint256"
        }
      ],
      "name": "approve",
      "outputs": [
        {
          "name": "success",
          "type": "bool"
        }
      ],
      "payable": false,
      "stateMutability": "nonpayable",
      "type": "function"
    },
    {
      "constant": true,
      "inputs": [
        {
          "name": "_owner",
          "type": "address"
        },
        {
          "name": "_spender",
          "type": "address"
        }
      ],
      "name": "allowance",
      "outputs": [
        {
          "name": "remaining",
          "type": "uint256"
        }
      ],
      "payable": false,
      "stateMutability": "view",
      "type": "function"
    },
    {
      "constant": true,
      "inputs": [
        {
          "name": "sender",
          "type": "address"
        }
      ],
      "name": "isPopulous",
      "outputs": [
        {
          "name": "",
          "type": "bool"
        }
      ],
      "payable": false,
      "stateMutability": "view",
      "type": "function"
    },
    {
      "constant": false,
      "inputs": [
        {
          "name": "_populous",
          "type": "address"
        }
      ],
      "name": "changePopulous",
      "outputs": [],
      "payable": false,
      "stateMutability": "nonpayable",
      "type": "function"
    },
    {
      "constant": true,
      "inputs": [
        {
          "name": "sender",
          "type": "address"
        }
      ],
      "name": "isServer",
      "outputs": [
        {
          "name": "",
          "type": "bool"
        }
      ],
      "payable": false,
      "stateMutability": "view",
      "type": "function"
    },
    {
      "constant": false,
      "inputs": [
        {
          "name": "_server",
          "type": "address"
        }
      ],
      "name": "changeServer",
      "outputs": [],
      "payable": false,
      "stateMutability": "nonpayable",
      "type": "function"
    }
  ],
  "bytecode": "0x608060405234801561001057600080fd5b5073f8b3d742b245ec366288160488a12e7a2f1d720d6000806101000a81548173ffffffffffffffffffffffffffffffffffffffff021916908373ffffffffffffffffffffffffffffffffffffffff1602179055600160006101000a81548173ffffffffffffffffffffffffffffffffffffffff021916908373ffffffffffffffffffffffffffffffffffffffff1602179055506355534443600102600381600019169055600581600019169055506006600460006101000a81548160ff021916908360ff16021790555061015b600660008060009054906101000a900473ffffffffffffffffffffffffffffffffffffffff1673ffffffffffffffffffffffffffffffffffffffff1673ffffffffffffffffffffffffffffffffffffffff16815260200190815260200160002054662386f26fc100006101ec640100000000026401000000009004565b600660008060009054906101000a900473ffffffffffffffffffffffffffffffffffffffff1673ffffffffffffffffffffffffffffffffffffffff1673ffffffffffffffffffffffffffffffffffffffff168152602001908152602001600020819055506101e1600254662386f26fc100006101ec640100000000026401000000009004565b600281905550610216565b60008082840190508381101580156102045750828110155b151561020c57fe5b8091505092915050565b6111f5806102256000396000f300608060405260043610610107576000357c0100000000000000000000000000000000000000000000000000000000900463ffffffff1680630156b3231461010c57806305fd22d01461017157806306fdde03146101cc57806308fb8a88146101ff578063095ea7b31461024257806318160ddd146102a757806323b872dd146102d257806327e235e314610357578063313ce567146103ae5780635c658165146103df57806367fbd2891461045657806370a082311461049b57806394a3760f146104f257806395d89b4114610549578063a9059cbb1461057c578063da374157146105e1578063dd62ed3e14610624578063fd922a421461069b578063fda08958146106f2575b600080fd5b34801561011857600080fd5b5061015760048036038101908080359060200190929190803573ffffffffffffffffffffffffffffffffffffffff16906020019092919050505061074d565b604051808215151515815260200191505060405180910390f35b34801561017d57600080fd5b506101b2600480360381019080803573ffffffffffffffffffffffffffffffffffffffff169060200190929190505050610863565b604051808215151515815260200191505060405180910390f35b3480156101d857600080fd5b506101e16108bd565b60405180826000191660001916815260200191505060405180910390f35b34801561020b57600080fd5b50610240600480360381019080803573ffffffffffffffffffffffffffffffffffffffff1690602001909291905050506108c3565b005b34801561024e57600080fd5b5061028d600480360381019080803573ffffffffffffffffffffffffffffffffffffffff16906020019092919080359060200190929190505050610921565b604051808215151515815260200191505060405180910390f35b3480156102b357600080fd5b506102bc610a13565b6040518082815260200191505060405180910390f35b3480156102de57600080fd5b5061033d600480360381019080803573ffffffffffffffffffffffffffffffffffffffff169060200190929190803573ffffffffffffffffffffffffffffffffffffffff16906020019092919080359060200190929190505050610a19565b604051808215151515815260200191505060405180910390f35b34801561036357600080fd5b50610398600480360381019080803573ffffffffffffffffffffffffffffffffffffffff169060200190929190505050610cb3565b6040518082815260200191505060405180910390f35b3480156103ba57600080fd5b506103c3610ccb565b604051808260ff1660ff16815260200191505060405180910390f35b3480156103eb57600080fd5b50610440600480360381019080803573ffffffffffffffffffffffffffffffffffffffff169060200190929190803573ffffffffffffffffffffffffffffffffffffffff169060200190929190505050610cde565b6040518082815260200191505060405180910390f35b34801561046257600080fd5b5061048160048036038101908080359060200190929190505050610d03565b604051808215151515815260200191505060405180910390f35b3480156104a757600080fd5b506104dc600480360381019080803573ffffffffffffffffffffffffffffffffffffffff169060200190929190505050610e7e565b6040518082815260200191505060405180910390f35b3480156104fe57600080fd5b50610507610ec7565b604051808273ffffffffffffffffffffffffffffffffffffffff1673ffffffffffffffffffffffffffffffffffffffff16815260200191505060405180910390f35b34801561055557600080fd5b5061055e610eed565b60405180826000191660001916815260200191505060405180910390f35b34801561058857600080fd5b506105c7600480360381019080803573ffffffffffffffffffffffffffffffffffffffff16906020019092919080359060200190929190505050610ef3565b604051808215151515815260200191505060405180910390f35b3480156105ed57600080fd5b50610622600480360381019080803573ffffffffffffffffffffffffffffffffffffffff16906020019092919050505061104c565b005b34801561063057600080fd5b50610685600480360381019080803573ffffffffffffffffffffffffffffffffffffffff169060200190929190803573ffffffffffffffffffffffffffffffffffffffff1690602001909291905050506110ab565b6040518082815260200191505060405180910390f35b3480156106a757600080fd5b506106b0611132565b604051808273ffffffffffffffffffffffffffffffffffffffff1673ffffffffffffffffffffffffffffffffffffffff16815260200191505060405180910390f35b3480156106fe57600080fd5b50610733600480360381019080803573ffffffffffffffffffffffffffffffffffffffff169060200190929190505050611157565b604051808215151515815260200191505060405180910390f35b60006001151561075c33610863565b151514151561076a57600080fd5b82600660008473ffffffffffffffffffffffffffffffffffffffff1673ffffffffffffffffffffffffffffffffffffffff1681526020019081526020016000205410156107ba576000905061085d565b610803600660008473ffffffffffffffffffffffffffffffffffffffff1673ffffffffffffffffffffffffffffffffffffffff16815260200190815260200160002054846111b0565b600660008473ffffffffffffffffffffffffffffffffffffffff1673ffffffffffffffffffffffffffffffffffffffff16815260200190815260200160002081905550610852600254846111b0565b600281905550600190505b92915050565b6000600160009054906101000a900473ffffffffffffffffffffffffffffffffffffffff1673ffffffffffffffffffffffffffffffffffffffff168273ffffffffffffffffffffffffffffffffffffffff16149050919050565b60035481565b600115156108d033611157565b15151415156108de57600080fd5b806000806101000a81548173ffffffffffffffffffffffffffffffffffffffff021916908373ffffffffffffffffffffffffffffffffffffffff16021790555050565b600081600760003373ffffffffffffffffffffffffffffffffffffffff1673ffffffffffffffffffffffffffffffffffffffff16815260200190815260200160002060008573ffffffffffffffffffffffffffffffffffffffff1673ffffffffffffffffffffffffffffffffffffffff168152602001908152602001600020819055508273ffffffffffffffffffffffffffffffffffffffff163373ffffffffffffffffffffffffffffffffffffffff167f8c5be1e5ebec7d5bd14f71427d1e84f3dd0314c0f7b2291e5b200ac8c7c3b925846040518082815260200191505060405180910390a36001905092915050565b60025481565b600080600760008673ffffffffffffffffffffffffffffffffffffffff1673ffffffffffffffffffffffffffffffffffffffff16815260200190815260200160002060003373ffffffffffffffffffffffffffffffffffffffff1673ffffffffffffffffffffffffffffffffffffffff16815260200190815260200160002054905082600660008773ffffffffffffffffffffffffffffffffffffffff1673ffffffffffffffffffffffffffffffffffffffff1681526020019081526020016000205410158015610aea5750828110155b1515610af557600080fd5b82600660008673ffffffffffffffffffffffffffffffffffffffff1673ffffffffffffffffffffffffffffffffffffffff1681526020019081526020016000206000828254019250508190555082600660008773ffffffffffffffffffffffffffffffffffffffff1673ffffffffffffffffffffffffffffffffffffffff168152602001908152602001600020600082825403925050819055507fffffffffffffffffffffffffffffffffffffffffffffffffffffffffffffffff811015610c425782600760008773ffffffffffffffffffffffffffffffffffffffff1673ffffffffffffffffffffffffffffffffffffffff16815260200190815260200160002060003373ffffffffffffffffffffffffffffffffffffffff1673ffffffffffffffffffffffffffffffffffffffff168152602001908152602001600020600082825403925050819055505b8373ffffffffffffffffffffffffffffffffffffffff168573ffffffffffffffffffffffffffffffffffffffff167fddf252ad1be2c89b69c2b068fc378daa952ba7f163c4a11628f55a4df523b3ef856040518082815260200191505060405180910390a360019150509392505050565b60066020528060005260406000206000915090505481565b600460009054906101000a900460ff1681565b6007602052816000526040600020602052806000526040600020600091509150505481565b600060011515610d1233610863565b1515141515610d2057600080fd5b8160066000600160009054906101000a900473ffffffffffffffffffffffffffffffffffffffff1673ffffffffffffffffffffffffffffffffffffffff1673ffffffffffffffffffffffffffffffffffffffff168152602001908152602001600020541015610d925760009050610e79565b610dfd60066000600160009054906101000a900473ffffffffffffffffffffffffffffffffffffffff1673ffffffffffffffffffffffffffffffffffffffff1673ffffffffffffffffffffffffffffffffffffffff16815260200190815260200160002054836111b0565b60066000600160009054906101000a900473ffffffffffffffffffffffffffffffffffffffff1673ffffffffffffffffffffffffffffffffffffffff1673ffffffffffffffffffffffffffffffffffffffff16815260200190815260200160002081905550610e6e600254836111b0565b600281905550600190505b919050565b6000600660008373ffffffffffffffffffffffffffffffffffffffff1673ffffffffffffffffffffffffffffffffffffffff168152602001908152602001600020549050919050565b600160009054906101000a900473ffffffffffffffffffffffffffffffffffffffff1681565b60055481565b600081600660003373ffffffffffffffffffffffffffffffffffffffff1673ffffffffffffffffffffffffffffffffffffffff1681526020019081526020016000205410151515610f4357600080fd5b81600660003373ffffffffffffffffffffffffffffffffffffffff1673ffffffffffffffffffffffffffffffffffffffff1681526020019081526020016000206000828254039250508190555081600660008573ffffffffffffffffffffffffffffffffffffffff1673ffffffffffffffffffffffffffffffffffffffff168152602001908152602001600020600082825401925050819055508273ffffffffffffffffffffffffffffffffffffffff163373ffffffffffffffffffffffffffffffffffffffff167fddf252ad1be2c89b69c2b068fc378daa952ba7f163c4a11628f55a4df523b3ef846040518082815260200191505060405180910390a36001905092915050565b6001151561105933611157565b151514151561106757600080fd5b80600160006101000a81548173ffffffffffffffffffffffffffffffffffffffff021916908373ffffffffffffffffffffffffffffffffffffffff16021790555050565b6000600760008473ffffffffffffffffffffffffffffffffffffffff1673ffffffffffffffffffffffffffffffffffffffff16815260200190815260200160002060008373ffffffffffffffffffffffffffffffffffffffff1673ffffffffffffffffffffffffffffffffffffffff16815260200190815260200160002054905092915050565b6000809054906101000a900473ffffffffffffffffffffffffffffffffffffffff1681565b60008060009054906101000a900473ffffffffffffffffffffffffffffffffffffffff1673ffffffffffffffffffffffffffffffffffffffff168273ffffffffffffffffffffffffffffffffffffffff16149050919050565b60008282111515156111be57fe5b8183039050929150505600a165627a7a723058201c7db32a61b12f3a78db1750bf4ada8f8132ed1a7e605ba68653ccfbe6ce314a0029",
  "source": "pragma solidity ^0.4.17;\n\n\n\n/// @title CurrencyToken contract\ncontract CurrencyToken {\n\n    address public server; // Address, which the platform website uses.\n    address public populous; // Address of the Populous bank contract.\n\n    uint256 public totalSupply;\n    bytes32 public name;// token name, e.g, pounds for fiat UK pounds.\n    uint8 public decimals;// How many decimals to show. ie. There could 1000 base units with 3 decimals. Meaning 0.980 SBX = 980 base units. It's like comparing 1 wei to 1 ether.\n    bytes32 public symbol;// An identifier: eg SBX.\n\n    uint256 constant private MAX_UINT256 = 2**256 - 1;\n    mapping (address => uint256) public balances;\n    mapping (address => mapping (address => uint256)) public allowed;\n    //EVENTS\n    // An event triggered when a transfer of tokens is made from a _from address to a _to address.\n    event Transfer(\n        address indexed _from, \n        address indexed _to, \n        uint256 _value\n    );\n    // An event triggered when an owner of tokens successfully approves another address to spend a specified amount of tokens.\n    event Approval(\n        address indexed _owner, \n        address indexed _spender, \n        uint256 _value\n    );\n    // event EventMintTokens(bytes32 currency, uint amount);\n\n    // MODIFIERS\n\n    modifier onlyServer {\n        require(isServer(msg.sender) == true);\n        _;\n    }\n\n    modifier onlyServerOrOnlyPopulous {\n        require(isServer(msg.sender) == true || isPopulous(msg.sender) == true);\n        _;\n    }\n\n    modifier onlyPopulous {\n        require(isPopulous(msg.sender) == true);\n        _;\n    }\n    // NON-CONSTANT METHODS\n    \n    /** @dev Creates a new currency/token.\n      * param _decimalUnits The decimal units/places the token can have.\n      * param _tokenSymbol The token's symbol, e.g., GBP.\n      * param _decimalUnits The tokens decimal unites/precision\n      * param _amount The amount of tokens to create upon deployment\n      * param _owner The owner of the tokens created upon deployment\n      * param _server The server/admin address\n      */\n    function CurrencyToken ()\n        public\n    {\n        populous = server = 0xf8B3d742B245Ec366288160488A12e7A2f1D720D;\n        symbol = name = 0x55534443; // Set the name for display purposes\n        decimals = 6; // Amount of decimals for display purposes\n        balances[server] = safeAdd(balances[server], 10000000000000000);\n        totalSupply = safeAdd(totalSupply, 10000000000000000);\n    }\n\n    // ERC20\n\n    //Note.. Need to emit event, Pokens destroyed... from system\n    /** @dev Destroys a specified amount of tokens \n      * @dev The method uses a modifier from withAccessManager contract to only permit populous to use it.\n      * @dev The method uses SafeMath to carry out safe token deductions/subtraction.\n      * @param amount The amount of tokens to create.\n      */\n\n    function destroyTokens(uint amount) public onlyPopulous returns (bool success) {\n        if (balances[populous] < amount) {\n            return false;\n        } else {\n            balances[populous] = safeSub(balances[populous], amount);\n            totalSupply = safeSub(totalSupply, amount);\n            return true;\n        }\n    }\n\n    \n    /** @dev Destroys a specified amount of tokens, from a user.\n      * @dev The method uses a modifier from withAccessManager contract to only permit populous to use it.\n      * @dev The method uses SafeMath to carry out safe token deductions/subtraction.\n      * @param amount The amount of tokens to create.\n      */\n    function destroyTokensFrom(uint amount, address from) public onlyPopulous returns (bool success) {\n        if (balances[from] < amount) {\n            return false;\n        } else {\n            balances[from] = safeSub(balances[from], amount);\n            totalSupply = safeSub(totalSupply, amount);\n            return true;\n        }\n    }\n\n    function transfer(address _to, uint256 _value) public returns (bool success) {\n        require(balances[msg.sender] >= _value);\n        balances[msg.sender] -= _value;\n        balances[_to] += _value;\n        Transfer(msg.sender, _to, _value);\n        return true;\n    }\n\n    function transferFrom(address _from, address _to, uint256 _value) public returns (bool success) {\n        uint256 allowance = allowed[_from][msg.sender];\n        require(balances[_from] >= _value && allowance >= _value);\n        balances[_to] += _value;\n        balances[_from] -= _value;\n        if (allowance < MAX_UINT256) {\n            allowed[_from][msg.sender] -= _value;\n        }\n        Transfer(_from, _to, _value);\n        return true;\n    }\n\n    function balanceOf(address _owner) public view returns (uint256 balance) {\n        return balances[_owner];\n    }\n\n    function approve(address _spender, uint256 _value) public returns (bool success) {\n        allowed[msg.sender][_spender] = _value;\n        Approval(msg.sender, _spender, _value);\n        return true;\n    }\n\n    function allowance(address _owner, address _spender) public view returns (uint256 remaining) {\n        return allowed[_owner][_spender];\n    }\n\n\n    // ACCESS MANAGER\n\n    /** @dev Checks a given address to determine whether it is populous address.\n      * @param sender The address to be checked.\n      * @return bool returns true or false is the address corresponds to populous or not.\n      */\n    function isPopulous(address sender) public view returns (bool) {\n        return sender == populous;\n    }\n\n        /** @dev Changes the populous contract address.\n      * @dev The method requires the message sender to be the set server.\n      * @param _populous The address to be set as populous.\n      */\n    function changePopulous(address _populous) public {\n        require(isServer(msg.sender) == true);\n        populous = _populous;\n    }\n\n    // CONSTANT METHODS\n    \n    /** @dev Checks a given address to determine whether it is the server.\n      * @param sender The address to be checked.\n      * @return bool returns true or false is the address corresponds to the server or not.\n      */\n    function isServer(address sender) public view returns (bool) {\n        return sender == server;\n    }\n\n    /** @dev Changes the server address that is set by the constructor.\n      * @dev The method requires the message sender to be the set server.\n      * @param _server The new address to be set as the server.\n      */\n    function changeServer(address _server) public {\n        require(isServer(msg.sender) == true);\n        server = _server;\n    }\n\n\n    // SAFE MATH\n\n\n      /** @dev Safely multiplies two unsigned/non-negative integers.\n    * @dev Ensures that one of both numbers can be derived from dividing the product by the other.\n    * @param a The first number.\n    * @param b The second number.\n    * @return uint The expected result.\n    */\n    function safeMul(uint a, uint b) internal pure returns (uint) {\n        uint c = a * b;\n        assert(a == 0 || c / a == b);\n        return c;\n    }\n\n  /** @dev Safely subtracts one number from another\n    * @dev Ensures that the number to subtract is lower.\n    * @param a The first number.\n    * @param b The second number.\n    * @return uint The expected result.\n    */\n    function safeSub(uint a, uint b) internal pure returns (uint) {\n        assert(b <= a);\n        return a - b;\n    }\n\n  /** @dev Safely adds two unsigned/non-negative integers.\n    * @dev Ensures that the sum of both numbers is greater or equal to one of both.\n    * @param a The first number.\n    * @param b The second number.\n    * @return uint The expected result.\n    */\n    function safeAdd(uint a, uint b) internal pure returns (uint) {\n        uint c = a + b;\n        assert(c>=a && c>=b);\n        return c;\n    }\n\n    function div(uint256 a, uint256 b) internal pure returns (uint256) {\n        assert(b > 0); // Solidity automatically throws when dividing by 0\n        uint256 c = a / b;\n        assert(a == b * c + a % b); // There is no case in which this doesn't hold\n        return c;\n    }\n}",
  "sourcePath": "/Users/wisdom/Documents/GitHub/populous-smartcontracts/contracts/CurrencyToken.sol",
  "compiler": {
    "name": "solc",
    "version": "0.4.24+commit.e67f0147.Emscripten.clang"
  },
  "schemaVersion": "2.0.1",
  "updatedAt": "2018-11-16T14:42:53.280Z"
}