{
  "contractName": "DataManager",
  "abi": [
    {
      "constant": false,
      "inputs": [
        {
          "name": "_accessManager",
          "type": "address"
        }
      ],
      "name": "updateAccessManager",
      "outputs": [],
      "payable": false,
      "stateMutability": "nonpayable",
      "type": "function"
    },
    {
      "constant": true,
      "inputs": [],
      "name": "getVersion",
      "outputs": [
        {
          "name": "_version",
          "type": "uint256"
        }
      ],
      "payable": false,
      "stateMutability": "view",
      "type": "function"
    },
    {
      "constant": false,
      "inputs": [
        {
          "name": "_blockchainActionId",
          "type": "bytes32"
        },
        {
          "name": "_depositAddress",
          "type": "address"
        },
        {
          "name": "_clientId",
          "type": "bytes32"
        }
      ],
      "name": "setDepositAddress",
      "outputs": [
        {
          "name": "success",
          "type": "bool"
        }
      ],
      "payable": false,
      "stateMutability": "nonpayable",
      "type": "function"
    },
    {
      "constant": true,
      "inputs": [
        {
          "name": "_blockchainActionId",
          "type": "bytes32"
        }
      ],
      "name": "getBlockchainActionIdData",
      "outputs": [
        {
          "name": "_currency",
          "type": "bytes32"
        },
        {
          "name": "_amount",
          "type": "uint256"
        },
        {
          "name": "_accountId",
          "type": "bytes32"
        },
        {
          "name": "_to",
          "type": "address"
        }
      ],
      "payable": false,
      "stateMutability": "view",
      "type": "function"
    },
    {
      "constant": true,
      "inputs": [
        {
          "name": "_providerUserId",
          "type": "bytes32"
        }
      ],
      "name": "getProviderByUserId",
      "outputs": [
        {
          "name": "countryCode",
          "type": "bytes2"
        },
        {
          "name": "companyName",
          "type": "bytes32"
        },
        {
          "name": "companyNumber",
          "type": "bytes32"
        }
      ],
      "payable": false,
      "stateMutability": "view",
      "type": "function"
    },
    {
      "constant": true,
      "inputs": [
        {
          "name": "_clientId",
          "type": "bytes32"
        }
      ],
      "name": "getDepositAddress",
      "outputs": [
        {
          "name": "clientDepositAddress",
          "type": "address"
        }
      ],
      "payable": false,
      "stateMutability": "view",
      "type": "function"
    },
    {
      "constant": true,
      "inputs": [
        {
          "name": "_depositContract",
          "type": "address"
        }
      ],
      "name": "getClientIdWithDepositAddress",
      "outputs": [
        {
          "name": "depositClientId",
          "type": "bytes32"
        }
      ],
      "payable": false,
      "stateMutability": "view",
      "type": "function"
    },
    {
      "constant": true,
      "inputs": [
        {
          "name": "",
          "type": "address"
        }
      ],
      "name": "currencySymbols",
      "outputs": [
        {
          "name": "",
          "type": "bytes32"
        }
      ],
      "payable": false,
      "stateMutability": "view",
      "type": "function"
    },
    {
      "constant": true,
      "inputs": [
        {
          "name": "",
          "type": "address"
        }
      ],
      "name": "depositClientIds",
      "outputs": [
        {
          "name": "",
          "type": "bytes32"
        }
      ],
      "payable": false,
      "stateMutability": "view",
      "type": "function"
    },
    {
      "constant": true,
      "inputs": [],
      "name": "version",
      "outputs": [
        {
          "name": "",
          "type": "uint256"
        }
      ],
      "payable": false,
      "stateMutability": "view",
      "type": "function"
    },
    {
      "constant": true,
      "inputs": [
        {
          "name": "_currencyAddress",
          "type": "address"
        }
      ],
      "name": "getCurrencySymbol",
      "outputs": [
        {
          "name": "currencySymbol",
          "type": "bytes32"
        }
      ],
      "payable": false,
      "stateMutability": "view",
      "type": "function"
    },
    {
      "constant": true,
      "inputs": [
        {
          "name": "_invoiceCountryCode",
          "type": "bytes2"
        },
        {
          "name": "_invoiceCompanyNumber",
          "type": "bytes32"
        },
        {
          "name": "_invoiceNumber",
          "type": "bytes32"
        }
      ],
      "name": "getInvoice",
      "outputs": [
        {
          "name": "providerUserId",
          "type": "bytes32"
        },
        {
          "name": "invoiceCompanyName",
          "type": "bytes32"
        }
      ],
      "payable": false,
      "stateMutability": "view",
      "type": "function"
    },
    {
      "constant": true,
      "inputs": [
        {
          "name": "",
          "type": "bytes32"
        }
      ],
      "name": "blockchainActionIdData",
      "outputs": [
        {
          "name": "currency",
          "type": "bytes32"
        },
        {
          "name": "amount",
          "type": "uint256"
        },
        {
          "name": "accountId",
          "type": "bytes32"
        },
        {
          "name": "to",
          "type": "address"
        },
        {
          "name": "pptFee",
          "type": "uint256"
        }
      ],
      "payable": false,
      "stateMutability": "view",
      "type": "function"
    },
    {
      "constant": true,
      "inputs": [
        {
          "name": "",
          "type": "bytes32"
        }
      ],
      "name": "providerCompanyData",
      "outputs": [
        {
          "name": "companyNumber",
          "type": "bytes32"
        },
        {
          "name": "companyName",
          "type": "bytes32"
        },
        {
          "name": "countryCode",
          "type": "bytes2"
        }
      ],
      "payable": false,
      "stateMutability": "view",
      "type": "function"
    },
    {
      "constant": true,
      "inputs": [
        {
          "name": "",
          "type": "bytes2"
        },
        {
          "name": "",
          "type": "bytes32"
        },
        {
          "name": "",
          "type": "bytes32"
        }
      ],
      "name": "invoices",
      "outputs": [
        {
          "name": "providerUserId",
          "type": "bytes32"
        },
        {
          "name": "invoiceCompanyName",
          "type": "bytes32"
        }
      ],
      "payable": false,
      "stateMutability": "view",
      "type": "function"
    },
    {
      "constant": false,
      "inputs": [
        {
          "name": "_blockchainActionId",
          "type": "bytes32"
        },
        {
          "name": "_providerUserId",
          "type": "bytes32"
        },
        {
          "name": "_invoiceCountryCode",
          "type": "bytes2"
        },
        {
          "name": "_invoiceCompanyNumber",
          "type": "bytes32"
        },
        {
          "name": "_invoiceCompanyName",
          "type": "bytes32"
        },
        {
          "name": "_invoiceNumber",
          "type": "bytes32"
        }
      ],
      "name": "setInvoice",
      "outputs": [
        {
          "name": "success",
          "type": "bool"
        }
      ],
      "payable": false,
      "stateMutability": "nonpayable",
      "type": "function"
    },
    {
      "constant": false,
      "inputs": [
        {
          "name": "_blockchainActionId",
          "type": "bytes32"
        },
        {
          "name": "currency",
          "type": "bytes32"
        },
        {
          "name": "amount",
          "type": "uint256"
        },
        {
          "name": "accountId",
          "type": "bytes32"
        },
        {
          "name": "to",
          "type": "address"
        },
        {
          "name": "pptFee",
          "type": "uint256"
        }
      ],
      "name": "setBlockchainActionData",
      "outputs": [
        {
          "name": "success",
          "type": "bool"
        }
      ],
      "payable": false,
      "stateMutability": "nonpayable",
      "type": "function"
    },
    {
      "constant": false,
      "inputs": [
        {
          "name": "_blockchainActionId",
          "type": "bytes32"
        },
        {
          "name": "_currencyAddress",
          "type": "address"
        },
        {
          "name": "_currencySymbol",
          "type": "bytes32"
        }
      ],
      "name": "_setCurrency",
      "outputs": [
        {
          "name": "success",
          "type": "bool"
        }
      ],
      "payable": false,
      "stateMutability": "nonpayable",
      "type": "function"
    },
    {
      "constant": true,
      "inputs": [
        {
          "name": "",
          "type": "bytes32"
        }
      ],
      "name": "actionStatus",
      "outputs": [
        {
          "name": "",
          "type": "bool"
        }
      ],
      "payable": false,
      "stateMutability": "view",
      "type": "function"
    },
    {
      "constant": false,
      "inputs": [
        {
          "name": "_blockchainActionId",
          "type": "bytes32"
        },
        {
          "name": "_userId",
          "type": "bytes32"
        },
        {
          "name": "_companyNumber",
          "type": "bytes32"
        },
        {
          "name": "_companyName",
          "type": "bytes32"
        },
        {
          "name": "_countryCode",
          "type": "bytes2"
        }
      ],
      "name": "setProvider",
      "outputs": [
        {
          "name": "success",
          "type": "bool"
        }
      ],
      "payable": false,
      "stateMutability": "nonpayable",
      "type": "function"
    },
    {
      "constant": true,
      "inputs": [
        {
          "name": "",
          "type": "bytes32"
        }
      ],
      "name": "currencyAddresses",
      "outputs": [
        {
          "name": "",
          "type": "address"
        }
      ],
      "payable": false,
      "stateMutability": "view",
      "type": "function"
    },
    {
      "constant": true,
      "inputs": [
        {
          "name": "_currencyAddress",
          "type": "address"
        }
      ],
      "name": "getCurrencyDetails",
      "outputs": [
        {
          "name": "_symbol",
          "type": "bytes32"
        },
        {
          "name": "_name",
          "type": "bytes32"
        },
        {
          "name": "_decimals",
          "type": "uint8"
        }
      ],
      "payable": false,
      "stateMutability": "view",
      "type": "function"
    },
    {
      "constant": false,
      "inputs": [
        {
          "name": "_blockchainActionId",
          "type": "bytes32"
        },
        {
          "name": "_userId",
          "type": "bytes32"
        },
        {
          "name": "_companyNumber",
          "type": "bytes32"
        },
        {
          "name": "_companyName",
          "type": "bytes32"
        },
        {
          "name": "_countryCode",
          "type": "bytes2"
        }
      ],
      "name": "_setProvider",
      "outputs": [
        {
          "name": "success",
          "type": "bool"
        }
      ],
      "payable": false,
      "stateMutability": "nonpayable",
      "type": "function"
    },
    {
      "constant": true,
      "inputs": [
        {
          "name": "_blockchainActionId",
          "type": "bytes32"
        }
      ],
      "name": "getActionStatus",
      "outputs": [
        {
          "name": "_blockchainActionStatus",
          "type": "bool"
        }
      ],
      "payable": false,
      "stateMutability": "view",
      "type": "function"
    },
    {
      "constant": true,
      "inputs": [
        {
          "name": "_providerCountryCode",
          "type": "bytes2"
        },
        {
          "name": "_providerCompanyNumber",
          "type": "bytes32"
        }
      ],
      "name": "getProviderByCountryCodeCompanyNumber",
      "outputs": [
        {
          "name": "providerId",
          "type": "bytes32"
        },
        {
          "name": "companyName",
          "type": "bytes32"
        }
      ],
      "payable": false,
      "stateMutability": "view",
      "type": "function"
    },
    {
      "constant": true,
      "inputs": [
        {
          "name": "",
          "type": "bytes32"
        }
      ],
      "name": "depositAddresses",
      "outputs": [
        {
          "name": "",
          "type": "address"
        }
      ],
      "payable": false,
      "stateMutability": "view",
      "type": "function"
    },
    {
      "constant": false,
      "inputs": [
        {
          "name": "_blockchainActionId",
          "type": "bytes32"
        },
        {
          "name": "_currencyAddress",
          "type": "address"
        },
        {
          "name": "_currencySymbol",
          "type": "bytes32"
        }
      ],
      "name": "setCurrency",
      "outputs": [
        {
          "name": "success",
          "type": "bool"
        }
      ],
      "payable": false,
      "stateMutability": "nonpayable",
      "type": "function"
    },
    {
      "constant": false,
      "inputs": [
        {
          "name": "_blockchainActionId",
          "type": "bytes32"
        },
        {
          "name": "_clientId",
          "type": "bytes32"
        },
        {
          "name": "_depositContract",
          "type": "address"
        }
      ],
      "name": "_setDepositAddress",
      "outputs": [
        {
          "name": "success",
          "type": "bool"
        }
      ],
      "payable": false,
      "stateMutability": "nonpayable",
      "type": "function"
    },
    {
      "constant": true,
      "inputs": [
        {
          "name": "_currencySymbol",
          "type": "bytes32"
        }
      ],
      "name": "getCurrency",
      "outputs": [
        {
          "name": "currencyAddress",
          "type": "address"
        }
      ],
      "payable": false,
      "stateMutability": "view",
      "type": "function"
    },
    {
      "constant": true,
      "inputs": [
        {
          "name": "",
          "type": "bytes32"
        }
      ],
      "name": "actionIdToInvoiceId",
      "outputs": [
        {
          "name": "",
          "type": "bytes32"
        }
      ],
      "payable": false,
      "stateMutability": "view",
      "type": "function"
    },
    {
      "constant": true,
      "inputs": [
        {
          "name": "",
          "type": "bytes2"
        },
        {
          "name": "",
          "type": "bytes32"
        }
      ],
      "name": "providerData",
      "outputs": [
        {
          "name": "",
          "type": "bytes32"
        }
      ],
      "payable": false,
      "stateMutability": "view",
      "type": "function"
    },
    {
      "constant": true,
      "inputs": [],
      "name": "AM",
      "outputs": [
        {
          "name": "",
          "type": "address"
        }
      ],
      "payable": false,
      "stateMutability": "view",
      "type": "function"
    },
    {
      "inputs": [
        {
          "name": "_accessManager",
          "type": "address"
        },
        {
          "name": "_version",
          "type": "uint256"
        }
      ],
      "payable": false,
      "stateMutability": "nonpayable",
      "type": "constructor"
    }
  ],
  "bytecode": "0x6060604052341561000f57600080fd5b604051604080611988833981016040528080519190602001805160008054600160a060020a03909516600160a060020a03199095169490941790935550506001556119298061005f6000396000f3006060604052361561017a5763ffffffff60e060020a60003504166302ab72c4811461017f5780630d8e6e2c146101a05780630e8ba167146101c5578063120ab58c146101fe5780631529905c146102485780632a01a4511461028d5780632cc8faea146102bf57806334791f81146102de57806345d9ff7e146102fd57806354fd4d501461031c578063554c9b6a1461032f57806355a6db821461034e57806359d334b21461038c5780636fa2a3c7146103dc5780637160179414610420578063880a8e541461044657806392c4b867146104755780639cd1b53f146104a3578063a533ad02146104c8578063a5c51a00146104de578063a5f43a511461050a578063b7e72ae614610520578063b86b663b14610566578063bea0897c14610592578063beae439d146105a8578063c3751fd8146105cb578063c7062df3146105e1578063c9939d0e14610606578063d383b80d1461062b578063ddd6702514610641578063df2676af14610657578063f7f01b4b1461067a575b600080fd5b341561018a57600080fd5b61019e600160a060020a036004351661068d565b005b34156101ab57600080fd5b6101b3610733565b60405190815260200160405180910390f35b34156101d057600080fd5b6101ea600435600160a060020a0360243516604435610739565b604051901515815260200160405180910390f35b341561020957600080fd5b61021460043561091c565b6040519384526020840192909252604080840191909152600160a060020a0390911660608301526080909101905180910390f35b341561025357600080fd5b61025e600435610977565b604051600160f060020a0319909316835260208301919091526040808301919091526060909101905180910390f35b341561029857600080fd5b6102a360043561099c565b604051600160a060020a03909116815260200160405180910390f35b34156102ca57600080fd5b6101b3600160a060020a03600435166109b7565b34156102e957600080fd5b6101b3600160a060020a03600435166109d2565b341561030857600080fd5b6101b3600160a060020a03600435166109e4565b341561032757600080fd5b6101b36109f6565b341561033a57600080fd5b6101b3600160a060020a03600435166109fc565b341561035957600080fd5b610374600160f060020a031960043516602435604435610a17565b60405191825260208201526040908101905180910390f35b341561039757600080fd5b6103a2600435610a53565b6040519485526020850193909352604080850192909252600160a060020a03166060840152608083019190915260a0909101905180910390f35b34156103e757600080fd5b6103f2600435610a8b565b6040519283526020830191909152600160f060020a0319166040808301919091526060909101905180910390f35b341561042b57600080fd5b610374600160f060020a031960043516602435604435610ab2565b341561045157600080fd5b6101ea600435602435600160f060020a03196044351660643560843560a435610adc565b341561048057600080fd5b6101ea600435602435604435606435600160a060020a036084351660a435610cb2565b34156104ae57600080fd5b6101ea600435600160a060020a0360243516604435610e3a565b34156104d357600080fd5b6101ea600435610fe0565b34156104e957600080fd5b6101ea600435602435604435606435600160f060020a031960843516610ff5565b341561051557600080fd5b6102a36004356111d3565b341561052b57600080fd5b61053f600160a060020a03600435166111ee565b604051928352602083019190915260ff166040808301919091526060909101905180910390f35b341561057157600080fd5b6101ea600435602435604435606435600160f060020a031960843516611322565b341561059d57600080fd5b6101ea6004356114af565b34156105b357600080fd5b610374600160f060020a0319600435166024356114c4565b34156105d657600080fd5b6102a36004356114ff565b34156105ec57600080fd5b6101ea600435600160a060020a036024351660443561151a565b341561061157600080fd5b6101ea600435602435600160a060020a03604435166116e9565b341561063657600080fd5b6102a36004356118a4565b341561064c57600080fd5b6101b36004356118bf565b341561066257600080fd5b6101b3600160f060020a0319600435166024356118d1565b341561068557600080fd5b6102a36118ee565b60008054600160a060020a03169063fda089589033906040516020015260405160e060020a63ffffffff8416028152600160a060020a039091166004820152602401602060405180830381600087803b15156106e857600080fd5b6102c65a03f115156106f957600080fd5b50505060405180511515600114905061071157600080fd5b60008054600160a060020a031916600160a060020a0392909216919091179055565b60015490565b60008054600160a060020a031663fda0895833836040516020015260405160e060020a63ffffffff8416028152600160a060020a039091166004820152602401602060405180830381600087803b151561079257600080fd5b6102c65a03f115156107a357600080fd5b50505060405180511515600114905080610834575060008054600160a060020a0316906305fd22d09033906040516020015260405160e060020a63ffffffff8416028152600160a060020a039091166004820152602401602060405180830381600087803b151561081357600080fd5b6102c65a03f1151561082457600080fd5b5050506040518051151560011490505b151561083f57600080fd5b60008481526006602052604090205460ff161561085b57600080fd5b600082815260046020526040902054600160a060020a03161580156108965750600160a060020a038316600090815260056020526040902054155b15156108a157600080fd5b60008281526004602081815260408084208054600160a060020a031916600160a060020a03898116918217835590865260058452918520879055938690529190529054161580159061090a5750600160a060020a03831660009081526005602052604090205415155b151561091257fe5b5060019392505050565b60008181526006602052604081205481908190819060ff16151560011461094257600080fd5b5050506000918252506007602052604090208054600182015460028301546003909301549193909291600160a060020a031690565b6000908152600a6020526040902060028101546001820154915460f060020a90910292565b600090815260046020526040902054600160a060020a031690565b600160a060020a031660009081526005602052604090205490565b60036020526000908152604090205481565b60056020526000908152604090205481565b60015481565b600160a060020a031660009081526003602052604090205490565b600160f060020a0319929092166000908152600b6020908152604080832093835292815282822093825292909252902080546001909101549091565b60076020526000908152604090208054600182015460028301546003840154600490940154929391929091600160a060020a03169085565b600a6020526000908152604090208054600182015460029092015490919060f060020a0283565b600b6020908152600093845260408085208252928452828420905282529020805460019091015482565b6000805481908190600160a060020a031663fda0895833836040516020015260405160e060020a63ffffffff8416028152600160a060020a039091166004820152602401602060405180830381600087803b1515610b3957600080fd5b6102c65a03f11515610b4a57600080fd5b50505060405180511515600114905080610bdb575060008054600160a060020a0316906305fd22d09033906040516020015260405160e060020a63ffffffff8416028152600160a060020a039091166004820152602401602060405180830381600087803b1515610bba57600080fd5b6102c65a03f11515610bcb57600080fd5b5050506040518051151560011490505b1515610be657600080fd5b60008981526006602052604090205460ff1615610c0257600080fd5b610c0d878786610a17565b909250905081158015610c1e575080155b1515610c2957600080fd5b600160f060020a031987166000908152600b60209081526040808320898452825280832087845290915290208881556001018590558715801590610c9b5750600160f060020a031987166000908152600b60209081526040808320898452825280832087845290915290206001015415155b1515610ca357fe5b50600198975050505050505050565b60008054600160a060020a031663fda0895833836040516020015260405160e060020a63ffffffff8416028152600160a060020a039091166004820152602401602060405180830381600087803b1515610d0b57600080fd5b6102c65a03f11515610d1c57600080fd5b50505060405180511515600114905080610dad575060008054600160a060020a0316906305fd22d09033906040516020015260405160e060020a63ffffffff8416028152600160a060020a039091166004820152602401602060405180830381600087803b1515610d8c57600080fd5b6102c65a03f11515610d9d57600080fd5b5050506040518051151560011490505b1515610db857600080fd5b60008781526006602052604090205460ff1615610dd457600080fd5b5060009586526007602090815260408088209687556001808801969096556002870194909455600386018054600160a060020a031916600160a060020a03949094169390931790925560049094019390935560069092529120805460ff19168217905590565b60008054600160a060020a031663fda0895833836040516020015260405160e060020a63ffffffff8416028152600160a060020a039091166004820152602401602060405180830381600087803b1515610e9357600080fd5b6102c65a03f11515610ea457600080fd5b50505060405180511515600114905080610f35575060008054600160a060020a0316906305fd22d09033906040516020015260405160e060020a63ffffffff8416028152600160a060020a039091166004820152602401602060405180830381600087803b1515610f1457600080fd5b6102c65a03f11515610f2557600080fd5b5050506040518051151560011490505b1515610f4057600080fd5b60008481526006602052604090205460ff1615610f5c57600080fd5b600160a060020a038084166000818152600360209081526040808320879055868352600290915290208054600160a060020a031916909117908190551615801590610fbe5750600160a060020a03831660009081526003602052604090205415155b1515610fc657fe5b610fd584836000808781610cb2565b506001949350505050565b60066020526000908152604090205460ff1681565b60008054600160a060020a031663fda0895833836040516020015260405160e060020a63ffffffff8416028152600160a060020a039091166004820152602401602060405180830381600087803b151561104e57600080fd5b6102c65a03f1151561105f57600080fd5b505050604051805115156001149050806110f0575060008054600160a060020a0316906305fd22d09033906040516020015260405160e060020a63ffffffff8416028152600160a060020a039091166004820152602401602060405180830381600087803b15156110cf57600080fd5b6102c65a03f115156110e057600080fd5b5050506040518051151560011490505b15156110fb57600080fd5b60008681526006602052604090205460ff161561111757600080fd5b6000858152600a602052604090205415801561115257506000858152600a602052604090206002015460f060020a02600160f060020a031916155b801561116d57506000858152600a6020526040902060010154155b151561117857600080fd5b506000848152600a6020908152604080832060028101805461ffff191660f060020a8704179055600180820196909655869055600160f060020a03199093168252600981528282209482529390935290912091909155919050565b600260205260009081526040902054600160a060020a031681565b600080600083600160a060020a03166395d89b416000604051602001526040518163ffffffff1660e060020a028152600401602060405180830381600087803b151561123957600080fd5b6102c65a03f1151561124a57600080fd5b5050506040518051905084600160a060020a03166306fdde036000604051602001526040518163ffffffff1660e060020a028152600401602060405180830381600087803b151561129a57600080fd5b6102c65a03f115156112ab57600080fd5b5050506040518051905085600160a060020a031663313ce5676000604051602001526040518163ffffffff1660e060020a028152600401602060405180830381600087803b15156112fb57600080fd5b6102c65a03f1151561130c57600080fd5b5050506040518051929791965091945092505050565b60008054600160a060020a031663fda0895833836040516020015260405160e060020a63ffffffff8416028152600160a060020a039091166004820152602401602060405180830381600087803b151561137b57600080fd5b6102c65a03f1151561138c57600080fd5b5050506040518051151560011490508061141d575060008054600160a060020a0316906305fd22d09033906040516020015260405160e060020a63ffffffff8416028152600160a060020a039091166004820152602401602060405180830381600087803b15156113fc57600080fd5b6102c65a03f1151561140d57600080fd5b5050506040518051151560011490505b151561142857600080fd5b60008681526006602052604090205460ff161561144457600080fd5b6000858152600a6020908152604080832060028101805461ffff191660f060020a880417905560018101879055879055600160f060020a0319851683526009825280832087845290915281208690556114a290879080888180610cb2565b5060019695505050505050565b60009081526006602052604090205460ff1690565b600160f060020a031982166000908152600960209081526040808320848452825280832054808452600a909252909120600101549250929050565b600460205260009081526040902054600160a060020a031681565b60008054600160a060020a031663fda0895833836040516020015260405160e060020a63ffffffff8416028152600160a060020a039091166004820152602401602060405180830381600087803b151561157357600080fd5b6102c65a03f1151561158457600080fd5b50505060405180511515600114905080611615575060008054600160a060020a0316906305fd22d09033906040516020015260405160e060020a63ffffffff8416028152600160a060020a039091166004820152602401602060405180830381600087803b15156115f457600080fd5b6102c65a03f1151561160557600080fd5b5050506040518051151560011490505b151561162057600080fd5b60008481526006602052604090205460ff161561163c57600080fd5b600160a060020a0383166000908152600360205260409020541580156116775750600082815260026020526040902054600160a060020a0316155b151561168257600080fd5b600160a060020a038084166000818152600360209081526040808320879055868352600290915290208054600160a060020a03191690911790819055161580159061090a5750600160a060020a038316600090815260036020526040902054151561091257fe5b60008054600160a060020a031663fda0895833836040516020015260405160e060020a63ffffffff8416028152600160a060020a039091166004820152602401602060405180830381600087803b151561174257600080fd5b6102c65a03f1151561175357600080fd5b505050604051805115156001149050806117e4575060008054600160a060020a0316906305fd22d09033906040516020015260405160e060020a63ffffffff8416028152600160a060020a039091166004820152602401602060405180830381600087803b15156117c357600080fd5b6102c65a03f115156117d457600080fd5b5050506040518051151560011490505b15156117ef57600080fd5b60008481526006602052604090205460ff161561180b57600080fd5b60008381526004602081815260408084208054600160a060020a031916600160a060020a0388811691821783558187526005855292862089905594889052929091529054161480156118745750600160a060020a03821660009081526005602052604090205483145b151561187c57fe5b600083815260046020526040812054610fd591869181908790600160a060020a031682610cb2565b600090815260026020526040902054600160a060020a031690565b60086020526000908152604090205481565b600960209081526000928352604080842090915290825290205481565b600054600160a060020a0316815600a165627a7a723058200871f5d52a2711dbc9ecb1b555a85d6254f9849d065c853054654ae242a8a3530029",
  "source": "pragma solidity ^0.4.17;\n\n\nimport \"./iERC20Token.sol\";\nimport \"./CurrencyToken.sol\";\nimport \"./withAccessManager.sol\";\n\n/// @title DataManager contract\ncontract DataManager is withAccessManager {\n    // FIELDS\n    uint256 public version;\n    // currency symbol => currency erc20 contract address\n    mapping(bytes32 => address) public currencyAddresses;\n    // currency address => currency symbol\n    mapping(address => bytes32) public currencySymbols;\n    // clientId => depositAddress\n    mapping(bytes32 => address) public depositAddresses;\n    // depositAddress => clientId\n    mapping(address => bytes32) public depositClientIds;\n    // blockchainActionId => boolean \n    mapping(bytes32 => bool) public actionStatus;\n    // blockchainActionData\n    struct actionData {\n        bytes32 currency;\n        uint amount;\n        bytes32 accountId;\n        address to;\n        uint pptFee;\n    }\n    // blockchainActionId => actionData\n    mapping(bytes32 => actionData) public blockchainActionIdData;\n    \n    //actionId => invoiceId\n    mapping(bytes32 => bytes32) public actionIdToInvoiceId;\n    // invoice provider company data\n    struct providerCompany {\n        //bool isEnabled;\n        bytes32 companyNumber;\n        bytes32 companyName;\n        bytes2 countryCode;\n    }\n    // companyCode => companyNumber => providerId\n    mapping(bytes2 => mapping(bytes32 => bytes32)) public providerData;\n    // providedId => providerCompany\n    mapping(bytes32 => providerCompany) public providerCompanyData;\n    // crowdsale invoiceDetails\n    struct _invoiceDetails {\n        bytes2 invoiceCountryCode;\n        bytes32 invoiceCompanyNumber;\n        bytes32 invoiceCompanyName;\n        bytes32 invoiceNumber;\n    }\n    // crowdsale invoiceData\n    struct invoiceData {\n        bytes32 providerUserId;\n        bytes32 invoiceCompanyName;\n    }\n\n    // country code => company number => invoice number => invoice data\n    mapping(bytes2 => mapping(bytes32 => mapping(bytes32 => invoiceData))) public invoices;\n\n    // NON-CONSTANT METHODS\n\n    /** @dev Constructor that sets the server when contract is deployed.\n      * @param _accessManager The address to set as the access manager.\n      */\n    function DataManager(address _accessManager, uint256 _version) public withAccessManager(_accessManager) {\n        version = _version;\n    }\n\n    /** @dev Adds a new deposit smart contract address linked to a client id\n      * @param _depositAddress the deposit smart contract address\n      * @param _clientId the client id\n      * @return success true/false denoting successful function call\n      */\n    function setDepositAddress(bytes32 _blockchainActionId, address _depositAddress, bytes32 _clientId) public onlyServerOrOnlyPopulous returns (bool success) {\n        require(actionStatus[_blockchainActionId] == false);\n        require(depositAddresses[_clientId] == 0x0 && depositClientIds[_depositAddress] == 0x0);\n        depositAddresses[_clientId] = _depositAddress;\n        depositClientIds[_depositAddress] = _clientId;\n        assert(depositAddresses[_clientId] != 0x0 && depositClientIds[_depositAddress] != 0x0);\n        return true;\n    }\n\n    /** @dev Adds a new currency sumbol and smart contract address  \n      * @param _currencyAddress the currency smart contract address\n      * @param _currencySymbol the currency symbol\n      * @return success true/false denoting successful function call\n      */\n    function setCurrency(bytes32 _blockchainActionId, address _currencyAddress, bytes32 _currencySymbol) public onlyServerOrOnlyPopulous returns (bool success) {\n        require(actionStatus[_blockchainActionId] == false);\n        require(currencySymbols[_currencyAddress] == 0x0 && currencyAddresses[_currencySymbol] == 0x0);\n        currencySymbols[_currencyAddress] = _currencySymbol;\n        currencyAddresses[_currencySymbol] = _currencyAddress;\n        assert(currencyAddresses[_currencySymbol] != 0x0 && currencySymbols[_currencyAddress] != 0x0);\n        return true;\n    }\n\n    /** @dev Updates a currency sumbol and smart contract address  \n      * @param _currencyAddress the currency smart contract address\n      * @param _currencySymbol the currency symbol\n      * @return success true/false denoting successful function call\n      */\n    function _setCurrency(bytes32 _blockchainActionId, address _currencyAddress, bytes32 _currencySymbol) public onlyServerOrOnlyPopulous returns (bool success) {\n        require(actionStatus[_blockchainActionId] == false);\n        currencySymbols[_currencyAddress] = _currencySymbol;\n        currencyAddresses[_currencySymbol] = _currencyAddress;\n        assert(currencyAddresses[_currencySymbol] != 0x0 && currencySymbols[_currencyAddress] != 0x0);\n        setBlockchainActionData(_blockchainActionId, _currencySymbol, 0, 0x0, _currencyAddress, 0);\n        return true;\n    }\n\n    /** @dev set blockchain action data in struct \n      * @param _blockchainActionId the blockchain action id\n      * @param currency the token currency symbol\n      * @param accountId the clientId\n      * @param to the blockchain address or smart contract address used in the transaction\n      * @param amount the amount of tokens in the transaction\n      * @return success true/false denoting successful function call\n      */\n    function setBlockchainActionData(\n        bytes32 _blockchainActionId, bytes32 currency, \n        uint amount, bytes32 accountId, address to, uint pptFee) \n        public\n        onlyServerOrOnlyPopulous \n        returns (bool success)\n    {\n        require(actionStatus[_blockchainActionId] == false);\n        blockchainActionIdData[_blockchainActionId].currency = currency;\n        blockchainActionIdData[_blockchainActionId].amount = amount;\n        blockchainActionIdData[_blockchainActionId].accountId = accountId;\n        blockchainActionIdData[_blockchainActionId].to = to;\n        blockchainActionIdData[_blockchainActionId].pptFee = pptFee;\n        actionStatus[_blockchainActionId] = true;\n        return true;\n    }\n    \n    /** @dev Updates a deposit address for client id\n      * @param _blockchainActionId the blockchain action id\n      * @param _clientId the client id\n      * @param _depositContract the deposit contract address for the client\n      * @return success true/false denoting successful function call\n      */\n    function _setDepositAddress(bytes32 _blockchainActionId, bytes32 _clientId, address _depositContract) public\n      onlyServerOrOnlyPopulous\n      returns (bool success)\n    {\n        require(actionStatus[_blockchainActionId] == false);\n        depositAddresses[_clientId] = _depositContract;\n        depositClientIds[_depositContract] = _clientId;\n        // check that deposit address has been stored for client Id\n        assert(depositAddresses[_clientId] == _depositContract && depositClientIds[_depositContract] == _clientId);\n        // set blockchain action data\n        setBlockchainActionData(_blockchainActionId, 0x0, 0, _clientId, depositAddresses[_clientId], 0);\n        return true;\n    }\n\n    /** @dev Add a new invoice to the platform  \n      * @param _providerUserId the providers user id\n      * @param _invoiceCountryCode the country code of the provider\n      * @param _invoiceCompanyNumber the providers company number\n      * @param _invoiceCompanyName the providers company name\n      * @param _invoiceNumber the invoice number\n      * @return success true or false if function call is successful\n      */\n    function setInvoice(\n        bytes32 _blockchainActionId, bytes32 _providerUserId, bytes2 _invoiceCountryCode, \n        bytes32 _invoiceCompanyNumber, bytes32 _invoiceCompanyName, bytes32 _invoiceNumber) \n        public \n        onlyServerOrOnlyPopulous \n        returns (bool success) \n    {   \n        require(actionStatus[_blockchainActionId] == false);\n        bytes32 providerUserId; \n        bytes32 companyName;\n        (providerUserId, companyName) = getInvoice(_invoiceCountryCode, _invoiceCompanyNumber, _invoiceNumber);\n        require(providerUserId == 0x0 && companyName == 0x0);\n        // country code => company number => invoice number => invoice data\n        invoices[_invoiceCountryCode][_invoiceCompanyNumber][_invoiceNumber].providerUserId = _providerUserId;\n        invoices[_invoiceCountryCode][_invoiceCompanyNumber][_invoiceNumber].invoiceCompanyName = _invoiceCompanyName;\n        \n        assert(\n            invoices[_invoiceCountryCode][_invoiceCompanyNumber][_invoiceNumber].providerUserId != 0x0 && \n            invoices[_invoiceCountryCode][_invoiceCompanyNumber][_invoiceNumber].invoiceCompanyName != 0x0\n        );\n        return true;\n    }\n    \n    /** @dev Add a new invoice provider to the platform  \n      * @param _blockchainActionId the blockchain action id\n      * @param _userId the user id of the provider\n      * @param _companyNumber the providers company number\n      * @param _companyName the providers company name\n      * @param _countryCode the providers country code\n      * @return success true or false if function call is successful\n      */\n    function setProvider(\n        bytes32 _blockchainActionId, bytes32 _userId, bytes32 _companyNumber, \n        bytes32 _companyName, bytes2 _countryCode) \n        public \n        onlyServerOrOnlyPopulous\n        returns (bool success)\n    {   \n        require(actionStatus[_blockchainActionId] == false);\n        require(\n            providerCompanyData[_userId].companyNumber == 0x0 && \n            providerCompanyData[_userId].countryCode == 0x0 &&\n            providerCompanyData[_userId].companyName == 0x0);\n        \n        providerCompanyData[_userId].countryCode = _countryCode;\n        providerCompanyData[_userId].companyName = _companyName;\n        providerCompanyData[_userId].companyNumber = _companyNumber;\n\n        providerData[_countryCode][_companyNumber] = _userId;\n        return true;\n    }\n\n\n    /** @dev Update an added invoice provider to the platform  \n      * @param _blockchainActionId the blockchain action id\n      * @param _userId the user id of the provider\n      * @param _companyNumber the providers company number\n      * @param _companyName the providers company name\n      * @param _countryCode the providers country code\n      * @return success true or false if function call is successful\n      */\n    function _setProvider(\n        bytes32 _blockchainActionId, bytes32 _userId, bytes32 _companyNumber, \n        bytes32 _companyName, bytes2 _countryCode) \n        public \n        onlyServerOrOnlyPopulous\n        returns (bool success)\n    {   \n        require(actionStatus[_blockchainActionId] == false);\n        providerCompanyData[_userId].countryCode = _countryCode;\n        providerCompanyData[_userId].companyName = _companyName;\n        providerCompanyData[_userId].companyNumber = _companyNumber;\n\n        providerData[_countryCode][_companyNumber] = _userId;\n        \n        setBlockchainActionData(_blockchainActionId, 0x0, 0, _userId, 0x0, 0);\n        return true;\n    }\n\n    // CONSTANT METHODS\n\n    /** @dev Gets a deposit address with the client id \n      * @return clientDepositAddress The client's deposit address\n      */\n    function getDepositAddress(bytes32 _clientId) public view returns (address clientDepositAddress){\n        return depositAddresses[_clientId];\n    }\n\n    /** @dev Gets a client id linked to a deposit address \n      * @return depositClientId The client id\n      */\n    function getClientIdWithDepositAddress(address _depositContract) public view returns (bytes32 depositClientId){\n        return depositClientIds[_depositContract];\n    }\n\n    /** @dev Gets a currency smart contract address \n      * @return currencyAddress The currency address\n      */\n    function getCurrency(bytes32 _currencySymbol) public view returns (address currencyAddress) {\n        return currencyAddresses[_currencySymbol];\n    }\n   \n    /** @dev Gets a currency symbol given it's smart contract address \n      * @return currencySymbol The currency symbol\n      */\n    function getCurrencySymbol(address _currencyAddress) public view returns (bytes32 currencySymbol) {\n        return currencySymbols[_currencyAddress];\n    }\n\n    function getCurrencyDetails(address _currencyAddress) public view returns (bytes32 _symbol, bytes32 _name, uint8 _decimals) {\n        return (CurrencyToken(_currencyAddress).symbol(), CurrencyToken(_currencyAddress).name(), CurrencyToken(_currencyAddress).decimals());\n    } \n\n    /** @dev Get the blockchain action Id Data for a blockchain Action id\n      * @param _blockchainActionId the blockchain action id\n      * @return bytes32 currency\n      * @return uint amount\n      * @return bytes32 accountId\n      * @return address to\n      */\n    function getBlockchainActionIdData(bytes32 _blockchainActionId) public view \n    returns (bytes32 _currency, uint _amount, bytes32 _accountId, address _to) \n    {\n        require(actionStatus[_blockchainActionId] == true);\n\n        return (blockchainActionIdData[_blockchainActionId].currency, \n        blockchainActionIdData[_blockchainActionId].amount,\n        blockchainActionIdData[_blockchainActionId].accountId,\n        blockchainActionIdData[_blockchainActionId].to);\n    }\n\n    /** @dev Get the bool status of a blockchain Action id\n      * @param _blockchainActionId the blockchain action id\n      * @return bool actionStatus\n      */\n    function getActionStatus(bytes32 _blockchainActionId) public view returns (bool _blockchainActionStatus) {\n        return actionStatus[_blockchainActionId];\n    }\n\n    /** @dev Gets the details of an invoice with the country code, company number and invocie number.\n      * @param _invoiceCountryCode The country code.\n      * @param _invoiceCompanyNumber The company number.\n      * @param _invoiceNumber The invoice number\n      * @return providerUserId The invoice provider user Id\n      * @return invoiceCompanyName the invoice company name\n      */\n    function getInvoice(bytes2 _invoiceCountryCode, bytes32 _invoiceCompanyNumber, bytes32 _invoiceNumber) \n        public \n        view \n        returns (bytes32 providerUserId, bytes32 invoiceCompanyName) \n    {   \n        bytes32 _providerUserId = invoices[_invoiceCountryCode][_invoiceCompanyNumber][_invoiceNumber].providerUserId;\n        bytes32 _invoiceCompanyName = invoices[_invoiceCountryCode][_invoiceCompanyNumber][_invoiceNumber].invoiceCompanyName;\n        //require(_providerUserId != 0x0 && _invoiceCompanyName != 0x0);\n        return (_providerUserId, _invoiceCompanyName);\n    }\n\n    /** @dev Gets the details of an invoice provider with the country code and company number.\n      * @param _providerCountryCode The country code.\n      * @param _providerCompanyNumber The company number.\n      * @return isEnabled The boolean value true/false indicating whether invoice provider is enabled or not\n      * @return providerId The invoice provider user Id\n      * @return companyName the invoice company name\n      */\n    function getProviderByCountryCodeCompanyNumber(bytes2 _providerCountryCode, bytes32 _providerCompanyNumber) \n        public \n        view \n        returns (bytes32 providerId, bytes32 companyName) \n    {\n        bytes32 providerUserId = providerData[_providerCountryCode][_providerCompanyNumber];\n\n        return (providerUserId, \n        providerCompanyData[providerUserId].companyName);\n        //providerCompanyData[providerUserId].isEnabled);\n    }\n\n    /** @dev Gets the details of an invoice provider with the providers user Id.\n      * @param _providerUserId The provider user Id.\n      * @return countryCode The invoice provider country code\n      * @return companyName the invoice company name\n      */\n    function getProviderByUserId(bytes32 _providerUserId) public view \n        returns (bytes2 countryCode, bytes32 companyName, bytes32 companyNumber) \n    {\n        return (providerCompanyData[_providerUserId].countryCode,\n        providerCompanyData[_providerUserId].companyName,\n        providerCompanyData[_providerUserId].companyNumber);\n    }\n\n    /** @dev Gets the version number for the current contract instance\n      * @return _version The version number\n      */\n    function getVersion() public view returns (uint256 _version) {\n        return version;\n    }\n\n\n}",
  "sourcePath": "/Users/najienka/Desktop/populous-smartcontracts/contracts/DataManager.sol",
  "schemaVersion": "1.0.0",
  "updatedAt": "2018-07-18T11:03:38.347Z"
}