{
  "contractName": "DataManager",
  "abi": [
    {
      "constant": false,
      "inputs": [
        {
          "name": "_accessManager",
          "type": "address"
        }
      ],
      "name": "updateAccessManager",
      "outputs": [],
      "payable": false,
      "stateMutability": "nonpayable",
      "type": "function"
    },
    {
      "constant": true,
      "inputs": [],
      "name": "getVersion",
      "outputs": [
        {
          "name": "_version",
          "type": "uint256"
        }
      ],
      "payable": false,
      "stateMutability": "view",
      "type": "function"
    },
    {
      "constant": true,
      "inputs": [
        {
          "name": "_blockchainActionId",
          "type": "bytes32"
        }
      ],
      "name": "getBlockchainActionIdData",
      "outputs": [
        {
          "name": "_currency",
          "type": "bytes32"
        },
        {
          "name": "_amount",
          "type": "uint256"
        },
        {
          "name": "_accountId",
          "type": "bytes32"
        },
        {
          "name": "_to",
          "type": "address"
        }
      ],
      "payable": false,
      "stateMutability": "view",
      "type": "function"
    },
    {
      "constant": true,
      "inputs": [
        {
          "name": "_providerUserId",
          "type": "bytes32"
        }
      ],
      "name": "getProviderByUserId",
      "outputs": [
        {
          "name": "countryCode",
          "type": "bytes2"
        },
        {
          "name": "companyName",
          "type": "bytes32"
        },
        {
          "name": "companyNumber",
          "type": "bytes32"
        }
      ],
      "payable": false,
      "stateMutability": "view",
      "type": "function"
    },
    {
      "constant": true,
      "inputs": [
        {
          "name": "_clientId",
          "type": "bytes32"
        }
      ],
      "name": "getDepositAddress",
      "outputs": [
        {
          "name": "clientDepositAddress",
          "type": "address"
        }
      ],
      "payable": false,
      "stateMutability": "view",
      "type": "function"
    },
    {
      "constant": true,
      "inputs": [
        {
          "name": "_depositContract",
          "type": "address"
        }
      ],
      "name": "getClientIdWithDepositAddress",
      "outputs": [
        {
          "name": "depositClientId",
          "type": "bytes32"
        }
      ],
      "payable": false,
      "stateMutability": "view",
      "type": "function"
    },
    {
      "constant": false,
      "inputs": [
        {
          "name": "_currencyAddress",
          "type": "address"
        },
        {
          "name": "_currencySymbol",
          "type": "bytes32"
        }
      ],
      "name": "setCurrency",
      "outputs": [
        {
          "name": "success",
          "type": "bool"
        }
      ],
      "payable": false,
      "stateMutability": "nonpayable",
      "type": "function"
    },
    {
      "constant": true,
      "inputs": [
        {
          "name": "",
          "type": "address"
        }
      ],
      "name": "currencySymbols",
      "outputs": [
        {
          "name": "",
          "type": "bytes32"
        }
      ],
      "payable": false,
      "stateMutability": "view",
      "type": "function"
    },
    {
      "constant": false,
      "inputs": [
        {
          "name": "_providerUserId",
          "type": "bytes32"
        },
        {
          "name": "_invoiceCountryCode",
          "type": "bytes2"
        },
        {
          "name": "_invoiceCompanyNumber",
          "type": "bytes32"
        },
        {
          "name": "_invoiceCompanyName",
          "type": "bytes32"
        },
        {
          "name": "_invoiceNumber",
          "type": "bytes32"
        }
      ],
      "name": "setInvoice",
      "outputs": [
        {
          "name": "success",
          "type": "bool"
        }
      ],
      "payable": false,
      "stateMutability": "nonpayable",
      "type": "function"
    },
    {
      "constant": true,
      "inputs": [
        {
          "name": "",
          "type": "address"
        }
      ],
      "name": "depositClientIds",
      "outputs": [
        {
          "name": "",
          "type": "bytes32"
        }
      ],
      "payable": false,
      "stateMutability": "view",
      "type": "function"
    },
    {
      "constant": true,
      "inputs": [],
      "name": "version",
      "outputs": [
        {
          "name": "",
          "type": "uint256"
        }
      ],
      "payable": false,
      "stateMutability": "view",
      "type": "function"
    },
    {
      "constant": true,
      "inputs": [
        {
          "name": "_currencyAddress",
          "type": "address"
        }
      ],
      "name": "getCurrencySymbol",
      "outputs": [
        {
          "name": "currencySymbol",
          "type": "bytes32"
        }
      ],
      "payable": false,
      "stateMutability": "view",
      "type": "function"
    },
    {
      "constant": true,
      "inputs": [
        {
          "name": "_invoiceCountryCode",
          "type": "bytes2"
        },
        {
          "name": "_invoiceCompanyNumber",
          "type": "bytes32"
        },
        {
          "name": "_invoiceNumber",
          "type": "bytes32"
        }
      ],
      "name": "getInvoice",
      "outputs": [
        {
          "name": "providerUserId",
          "type": "bytes32"
        },
        {
          "name": "invoiceCompanyName",
          "type": "bytes32"
        }
      ],
      "payable": false,
      "stateMutability": "view",
      "type": "function"
    },
    {
      "constant": true,
      "inputs": [
        {
          "name": "",
          "type": "bytes32"
        }
      ],
      "name": "blockchainActionIdData",
      "outputs": [
        {
          "name": "currency",
          "type": "bytes32"
        },
        {
          "name": "amount",
          "type": "uint256"
        },
        {
          "name": "accountId",
          "type": "bytes32"
        },
        {
          "name": "to",
          "type": "address"
        },
        {
          "name": "pptFee",
          "type": "uint256"
        }
      ],
      "payable": false,
      "stateMutability": "view",
      "type": "function"
    },
    {
      "constant": false,
      "inputs": [
        {
          "name": "_depositAddress",
          "type": "address"
        },
        {
          "name": "_clientId",
          "type": "bytes32"
        }
      ],
      "name": "setDepositAddress",
      "outputs": [
        {
          "name": "success",
          "type": "bool"
        }
      ],
      "payable": false,
      "stateMutability": "nonpayable",
      "type": "function"
    },
    {
      "constant": true,
      "inputs": [
        {
          "name": "",
          "type": "bytes32"
        }
      ],
      "name": "providerCompanyData",
      "outputs": [
        {
          "name": "companyNumber",
          "type": "bytes32"
        },
        {
          "name": "companyName",
          "type": "bytes32"
        },
        {
          "name": "countryCode",
          "type": "bytes2"
        }
      ],
      "payable": false,
      "stateMutability": "view",
      "type": "function"
    },
    {
      "constant": true,
      "inputs": [
        {
          "name": "",
          "type": "bytes2"
        },
        {
          "name": "",
          "type": "bytes32"
        },
        {
          "name": "",
          "type": "bytes32"
        }
      ],
      "name": "invoices",
      "outputs": [
        {
          "name": "providerUserId",
          "type": "bytes32"
        },
        {
          "name": "invoiceCompanyName",
          "type": "bytes32"
        }
      ],
      "payable": false,
      "stateMutability": "view",
      "type": "function"
    },
    {
      "constant": false,
      "inputs": [
        {
          "name": "_blockchainActionId",
          "type": "bytes32"
        },
        {
          "name": "currency",
          "type": "bytes32"
        },
        {
          "name": "amount",
          "type": "uint256"
        },
        {
          "name": "accountId",
          "type": "bytes32"
        },
        {
          "name": "to",
          "type": "address"
        },
        {
          "name": "pptFee",
          "type": "uint256"
        }
      ],
      "name": "setBlockchainActionData",
      "outputs": [
        {
          "name": "success",
          "type": "bool"
        }
      ],
      "payable": false,
      "stateMutability": "nonpayable",
      "type": "function"
    },
    {
      "constant": false,
      "inputs": [
        {
          "name": "_currencyAddress",
          "type": "address"
        },
        {
          "name": "_currencySymbol",
          "type": "bytes32"
        }
      ],
      "name": "_setCurrency",
      "outputs": [
        {
          "name": "success",
          "type": "bool"
        }
      ],
      "payable": false,
      "stateMutability": "nonpayable",
      "type": "function"
    },
    {
      "constant": true,
      "inputs": [
        {
          "name": "",
          "type": "bytes32"
        }
      ],
      "name": "actionStatus",
      "outputs": [
        {
          "name": "",
          "type": "bool"
        }
      ],
      "payable": false,
      "stateMutability": "view",
      "type": "function"
    },
    {
      "constant": false,
      "inputs": [
        {
          "name": "_blockchainActionId",
          "type": "bytes32"
        },
        {
          "name": "_userId",
          "type": "bytes32"
        },
        {
          "name": "_companyNumber",
          "type": "bytes32"
        },
        {
          "name": "_companyName",
          "type": "bytes32"
        },
        {
          "name": "_countryCode",
          "type": "bytes2"
        }
      ],
      "name": "setProvider",
      "outputs": [
        {
          "name": "success",
          "type": "bool"
        }
      ],
      "payable": false,
      "stateMutability": "nonpayable",
      "type": "function"
    },
    {
      "constant": true,
      "inputs": [
        {
          "name": "",
          "type": "bytes32"
        }
      ],
      "name": "currencyAddresses",
      "outputs": [
        {
          "name": "",
          "type": "address"
        }
      ],
      "payable": false,
      "stateMutability": "view",
      "type": "function"
    },
    {
      "constant": false,
      "inputs": [
        {
          "name": "_blockchainActionId",
          "type": "bytes32"
        },
        {
          "name": "_clientId",
          "type": "bytes32"
        },
        {
          "name": "_depositContract",
          "type": "address"
        }
      ],
      "name": "upgradeDepositAddress",
      "outputs": [
        {
          "name": "success",
          "type": "bool"
        }
      ],
      "payable": false,
      "stateMutability": "nonpayable",
      "type": "function"
    },
    {
      "constant": true,
      "inputs": [
        {
          "name": "_currencyAddress",
          "type": "address"
        }
      ],
      "name": "getCurrencyDetails",
      "outputs": [
        {
          "name": "_symbol",
          "type": "bytes32"
        },
        {
          "name": "_name",
          "type": "bytes32"
        },
        {
          "name": "_decimals",
          "type": "uint8"
        }
      ],
      "payable": false,
      "stateMutability": "view",
      "type": "function"
    },
    {
      "constant": false,
      "inputs": [
        {
          "name": "_blockchainActionId",
          "type": "bytes32"
        },
        {
          "name": "_userId",
          "type": "bytes32"
        },
        {
          "name": "_companyNumber",
          "type": "bytes32"
        },
        {
          "name": "_companyName",
          "type": "bytes32"
        },
        {
          "name": "_countryCode",
          "type": "bytes2"
        }
      ],
      "name": "_setProvider",
      "outputs": [
        {
          "name": "success",
          "type": "bool"
        }
      ],
      "payable": false,
      "stateMutability": "nonpayable",
      "type": "function"
    },
    {
      "constant": true,
      "inputs": [
        {
          "name": "_blockchainActionId",
          "type": "bytes32"
        }
      ],
      "name": "getActionStatus",
      "outputs": [
        {
          "name": "_blockchainActionStatus",
          "type": "bool"
        }
      ],
      "payable": false,
      "stateMutability": "view",
      "type": "function"
    },
    {
      "constant": true,
      "inputs": [
        {
          "name": "_providerCountryCode",
          "type": "bytes2"
        },
        {
          "name": "_providerCompanyNumber",
          "type": "bytes32"
        }
      ],
      "name": "getProviderByCountryCodeCompanyNumber",
      "outputs": [
        {
          "name": "providerId",
          "type": "bytes32"
        },
        {
          "name": "companyName",
          "type": "bytes32"
        }
      ],
      "payable": false,
      "stateMutability": "view",
      "type": "function"
    },
    {
      "constant": true,
      "inputs": [
        {
          "name": "",
          "type": "bytes32"
        }
      ],
      "name": "depositAddresses",
      "outputs": [
        {
          "name": "",
          "type": "address"
        }
      ],
      "payable": false,
      "stateMutability": "view",
      "type": "function"
    },
    {
      "constant": false,
      "inputs": [
        {
          "name": "_blockchainActionId",
          "type": "bytes32"
        }
      ],
      "name": "setActionStatus",
      "outputs": [
        {
          "name": "success",
          "type": "bool"
        }
      ],
      "payable": false,
      "stateMutability": "nonpayable",
      "type": "function"
    },
    {
      "constant": false,
      "inputs": [
        {
          "name": "_blockchainActionId",
          "type": "bytes32"
        },
        {
          "name": "_clientId",
          "type": "bytes32"
        },
        {
          "name": "_depositContract",
          "type": "address"
        }
      ],
      "name": "_setDepositAddress",
      "outputs": [
        {
          "name": "success",
          "type": "bool"
        }
      ],
      "payable": false,
      "stateMutability": "nonpayable",
      "type": "function"
    },
    {
      "constant": true,
      "inputs": [
        {
          "name": "_currencySymbol",
          "type": "bytes32"
        }
      ],
      "name": "getCurrency",
      "outputs": [
        {
          "name": "currencyAddress",
          "type": "address"
        }
      ],
      "payable": false,
      "stateMutability": "view",
      "type": "function"
    },
    {
      "constant": true,
      "inputs": [
        {
          "name": "",
          "type": "bytes32"
        }
      ],
      "name": "actionIdToInvoiceId",
      "outputs": [
        {
          "name": "",
          "type": "bytes32"
        }
      ],
      "payable": false,
      "stateMutability": "view",
      "type": "function"
    },
    {
      "constant": true,
      "inputs": [
        {
          "name": "",
          "type": "bytes2"
        },
        {
          "name": "",
          "type": "bytes32"
        }
      ],
      "name": "providerData",
      "outputs": [
        {
          "name": "",
          "type": "bytes32"
        }
      ],
      "payable": false,
      "stateMutability": "view",
      "type": "function"
    },
    {
      "constant": true,
      "inputs": [],
      "name": "AM",
      "outputs": [
        {
          "name": "",
          "type": "address"
        }
      ],
      "payable": false,
      "stateMutability": "view",
      "type": "function"
    },
    {
      "inputs": [
        {
          "name": "_accessManager",
          "type": "address"
        }
      ],
      "payable": false,
      "stateMutability": "nonpayable",
      "type": "constructor"
    }
  ],
  "bytecode": "0x60606040526002600155341561001457600080fd5b6040516020806119758339810160405280805160008054600160a060020a03909216600160a060020a0319909216919091179055505061191c806100596000396000f300606060405236156101905763ffffffff60e060020a60003504166302ab72c481146101955780630d8e6e2c146101b6578063120ab58c146101db5780631529905c146102255780632a01a4511461026a5780632cc8faea1461029c5780632fdfd33a146102bb57806334791f81146102f157806339cb696e1461031057806345d9ff7e1461033c57806354fd4d501461035b578063554c9b6a1461036e57806355a6db821461038d57806359d334b2146103cb57806368d9d3e11461041b5780636fa2a3c71461043d578063716017941461048157806392c4b867146104a75780639da55332146104d5578063a533ad02146104f7578063a5c51a001461050d578063a5f43a5114610539578063a85eb3341461054f578063b7e72ae614610574578063b86b663b146105ba578063bea0897c146105e6578063beae439d146105fc578063c3751fd81461061f578063c5dbb9f814610635578063c9939d0e1461064b578063d383b80d14610670578063ddd6702514610686578063df2676af1461069c578063f7f01b4b146106bf575b600080fd5b34156101a057600080fd5b6101b4600160a060020a03600435166106d2565b005b34156101c157600080fd5b6101c9610778565b60405190815260200160405180910390f35b34156101e657600080fd5b6101f160043561077e565b6040519384526020840192909252604080840191909152600160a060020a0390911660608301526080909101905180910390f35b341561023057600080fd5b61023b6004356107d9565b604051600160f060020a0319909316835260208301919091526040808301919091526060909101905180910390f35b341561027557600080fd5b6102806004356107fe565b604051600160a060020a03909116815260200160405180910390f35b34156102a757600080fd5b6101c9600160a060020a0360043516610819565b34156102c657600080fd5b6102dd600160a060020a0360043516602435610834565b604051901515815260200160405180910390f35b34156102fc57600080fd5b6101c9600160a060020a03600435166109f8565b341561031b57600080fd5b6102dd600435600160f060020a031960243516604435606435608435610a0a565b341561034757600080fd5b6101c9600160a060020a0360043516610bb7565b341561036657600080fd5b6101c9610bc9565b341561037957600080fd5b6101c9600160a060020a0360043516610bcf565b341561039857600080fd5b6103b3600160f060020a031960043516602435604435610bea565b60405191825260208201526040908101905180910390f35b34156103d657600080fd5b6103e1600435610c26565b6040519485526020850193909352604080850192909252600160a060020a03166060840152608083019190915260a0909101905180910390f35b341561042657600080fd5b6102dd600160a060020a0360043516602435610c5e565b341561044857600080fd5b610453600435610def565b6040519283526020830191909152600160f060020a0319166040808301919091526060909101905180910390f35b341561048c57600080fd5b6103b3600160f060020a031960043516602435604435610e16565b34156104b257600080fd5b6102dd600435602435604435606435600160a060020a036084351660a435610e40565b34156104e057600080fd5b6102dd600160a060020a0360043516602435610fb8565b341561050257600080fd5b6102dd60043561103a565b341561051857600080fd5b6102dd600435602435604435606435600160f060020a03196084351661104f565b341561054457600080fd5b610280600435611254565b341561055a57600080fd5b6102dd600435602435600160a060020a036044351661126f565b341561057f57600080fd5b610593600160a060020a036004351661147a565b604051928352602083019190915260ff166040808301919091526060909101905180910390f35b34156105c557600080fd5b6102dd600435602435604435606435600160f060020a0319608435166115ae565b34156105f157600080fd5b6102dd60043561164c565b341561060757600080fd5b6103b3600160f060020a031960043516602435611661565b341561062a57600080fd5b61028060043561169c565b341561064057600080fd5b6102dd6004356116b7565b341561065657600080fd5b6102dd600435602435600160a060020a03604435166117f9565b341561067b57600080fd5b610280600435611897565b341561069157600080fd5b6101c96004356118b2565b34156106a757600080fd5b6101c9600160f060020a0319600435166024356118c4565b34156106ca57600080fd5b6102806118e1565b60008054600160a060020a03169063fda089589033906040516020015260405160e060020a63ffffffff8416028152600160a060020a039091166004820152602401602060405180830381600087803b151561072d57600080fd5b6102c65a03f1151561073e57600080fd5b50505060405180511515600114905061075657600080fd5b60008054600160a060020a031916600160a060020a0392909216919091179055565b60015490565b60008181526006602052604081205481908190819060ff1615156001146107a457600080fd5b5050506000918252506007602052604090208054600182015460028301546003909301549193909291600160a060020a031690565b6000908152600a6020526040902060028101546001820154915460f060020a90910292565b600090815260046020526040902054600160a060020a031690565b600160a060020a031660009081526005602052604090205490565b60008054600160a060020a031663fda0895833836040516020015260405160e060020a63ffffffff8416028152600160a060020a039091166004820152602401602060405180830381600087803b151561088d57600080fd5b6102c65a03f1151561089e57600080fd5b5050506040518051151560011490508061092f575060008054600160a060020a0316906305fd22d09033906040516020015260405160e060020a63ffffffff8416028152600160a060020a039091166004820152602401602060405180830381600087803b151561090e57600080fd5b6102c65a03f1151561091f57600080fd5b5050506040518051151560011490505b151561093a57600080fd5b600160a060020a038316600090815260036020526040902054158015906109775750600082815260026020526040902054600160a060020a031615155b15610984575060006109f2565b600160a060020a038084166000818152600360209081526040808320879055868352600290915290208054600160a060020a0319169091179081905516158015906109e65750600160a060020a03831660009081526003602052604090205415155b15156109ee57fe5b5060015b92915050565b60036020526000908152604090205481565b6000805481908190600160a060020a031663fda0895833836040516020015260405160e060020a63ffffffff8416028152600160a060020a039091166004820152602401602060405180830381600087803b1515610a6757600080fd5b6102c65a03f11515610a7857600080fd5b50505060405180511515600114905080610b09575060008054600160a060020a0316906305fd22d09033906040516020015260405160e060020a63ffffffff8416028152600160a060020a039091166004820152602401602060405180830381600087803b1515610ae857600080fd5b6102c65a03f11515610af957600080fd5b5050506040518051151560011490505b1515610b1457600080fd5b610b1f878786610bea565b90925090508115610b2f57600080fd5b600160f060020a031987166000908152600b60209081526040808320898452825280832087845290915290208881556001018590558715801590610ba15750600160f060020a031987166000908152600b60209081526040808320898452825280832087845290915290206001015415155b1515610ba957fe5b506001979650505050505050565b60056020526000908152604090205481565b60015481565b600160a060020a031660009081526003602052604090205490565b600160f060020a0319929092166000908152600b6020908152604080832093835292815282822093825292909252902080546001909101549091565b60076020526000908152604090208054600182015460028301546003840154600490940154929391929091600160a060020a03169085565b60008054600160a060020a031663fda0895833836040516020015260405160e060020a63ffffffff8416028152600160a060020a039091166004820152602401602060405180830381600087803b1515610cb757600080fd5b6102c65a03f11515610cc857600080fd5b50505060405180511515600114905080610d59575060008054600160a060020a0316906305fd22d09033906040516020015260405160e060020a63ffffffff8416028152600160a060020a039091166004820152602401602060405180830381600087803b1515610d3857600080fd5b6102c65a03f11515610d4957600080fd5b5050506040518051151560011490505b1515610d6457600080fd5b600082815260046020526040902054600160a060020a031615801590610da15750600160a060020a03831660009081526005602052604090205415155b15610dae575060006109f2565b5060008181526004602090815260408083208054600160a060020a031916600160a060020a03871690811790915583526005909152902081905560016109f2565b600a6020526000908152604090208054600182015460029092015490919060f060020a0283565b600b6020908152600093845260408085208252928452828420905282529020805460019091015482565b60008054600160a060020a031663fda0895833836040516020015260405160e060020a63ffffffff8416028152600160a060020a039091166004820152602401602060405180830381600087803b1515610e9957600080fd5b6102c65a03f11515610eaa57600080fd5b50505060405180511515600114905080610f3b575060008054600160a060020a0316906305fd22d09033906040516020015260405160e060020a63ffffffff8416028152600160a060020a039091166004820152602401602060405180830381600087803b1515610f1a57600080fd5b6102c65a03f11515610f2b57600080fd5b5050506040518051151560011490505b1515610f4657600080fd5b60008781526006602052604090205460ff161515600114610f6657600080fd5b506000868152600760205260409020858155600180820186905560028201859055600382018054600160a060020a038616600160a060020a031990911617905560049091018290559695505050505050565b60008054600160a060020a03166305fd22d033836040516020015260405160e060020a63ffffffff8416028152600160a060020a039091166004820152602401602060405180830381600087803b151561101157600080fd5b6102c65a03f1151561102257600080fd5b50505060405180511515600114905061098457600080fd5b60066020526000908152604090205460ff1681565b60008054600160a060020a031663fda0895833836040516020015260405160e060020a63ffffffff8416028152600160a060020a039091166004820152602401602060405180830381600087803b15156110a857600080fd5b6102c65a03f115156110b957600080fd5b5050506040518051151560011490508061114a575060008054600160a060020a0316906305fd22d09033906040516020015260405160e060020a63ffffffff8416028152600160a060020a039091166004820152602401602060405180830381600087803b151561112957600080fd5b6102c65a03f1151561113a57600080fd5b5050506040518051151560011490505b151561115557600080fd5b60008681526006602052604090205460ff161561117157600080fd5b6000858152600a60205260409020541580156111ac57506000858152600a602052604090206002015460f060020a02600160f060020a031916155b80156111c757506000858152600a6020526040902060010154155b15156111d257600080fd5b6000858152600a6020908152604080832060028101805461ffff191660f060020a8804179055600180820188905590889055600160f060020a03198616845260098352818420888552835281842089905589845260069092528220805460ff1916909117905561124790879080888180610e40565b5060019695505050505050565b600260205260009081526040902054600160a060020a031681565b60008054600160a060020a031663fda0895833836040516020015260405160e060020a63ffffffff8416028152600160a060020a039091166004820152602401602060405180830381600087803b15156112c857600080fd5b6102c65a03f115156112d957600080fd5b5050506040518051151560011490508061136a575060008054600160a060020a0316906305fd22d09033906040516020015260405160e060020a63ffffffff8416028152600160a060020a039091166004820152602401602060405180830381600087803b151561134957600080fd5b6102c65a03f1151561135a57600080fd5b5050506040518051151560011490505b151561137557600080fd5b60008481526006602052604090205460ff161561139157600080fd5b600083815260046020526040902054600160a060020a03161580156113d05750600083815260046020526040902054600160a060020a03838116911614155b15156113db57600080fd5b60008381526004602052604090208054600160a060020a031916600160a060020a03848116919091179182905516151561141157fe5b506000838152600660209081526040808320805460ff191660019081179091556007808452828520600281018890558786526004855292852054948890529092526003018054600160a060020a031916600160a060020a03909316929092179091559392505050565b600080600083600160a060020a03166395d89b416000604051602001526040518163ffffffff1660e060020a028152600401602060405180830381600087803b15156114c557600080fd5b6102c65a03f115156114d657600080fd5b5050506040518051905084600160a060020a03166306fdde036000604051602001526040518163ffffffff1660e060020a028152600401602060405180830381600087803b151561152657600080fd5b6102c65a03f1151561153757600080fd5b5050506040518051905085600160a060020a031663313ce5676000604051602001526040518163ffffffff1660e060020a028152600401602060405180830381600087803b151561158757600080fd5b6102c65a03f1151561159857600080fd5b5050506040518051929791965091945092505050565b60008054600160a060020a03166305fd22d033836040516020015260405160e060020a63ffffffff8416028152600160a060020a039091166004820152602401602060405180830381600087803b151561160757600080fd5b6102c65a03f1151561161857600080fd5b50505060405180511515600114905061163057600080fd5b60008681526006602052604090205460ff16156111d257600080fd5b60009081526006602052604090205460ff1690565b600160f060020a031982166000908152600960209081526040808320848452825280832054808452600a909252909120600101549250929050565b600460205260009081526040902054600160a060020a031681565b60008054600160a060020a031663fda0895833836040516020015260405160e060020a63ffffffff8416028152600160a060020a039091166004820152602401602060405180830381600087803b151561171057600080fd5b6102c65a03f1151561172157600080fd5b505050604051805115156001149050806117b2575060008054600160a060020a0316906305fd22d09033906040516020015260405160e060020a63ffffffff8416028152600160a060020a039091166004820152602401602060405180830381600087803b151561179157600080fd5b6102c65a03f115156117a257600080fd5b5050506040518051151560011490505b15156117bd57600080fd5b60008281526006602052604090205460ff16156117d957600080fd5b506000908152600660205260409020805460ff1916600190811790915590565b60008054600160a060020a03166305fd22d033836040516020015260405160e060020a63ffffffff8416028152600160a060020a039091166004820152602401602060405180830381600087803b151561185257600080fd5b6102c65a03f1151561186357600080fd5b50505060405180511515600114905061187b57600080fd5b60008481526006602052604090205460ff16156113db57600080fd5b600090815260026020526040902054600160a060020a031690565b60086020526000908152604090205481565b600960209081526000928352604080842090915290825290205481565b600054600160a060020a0316815600a165627a7a7230582015475e8ce76c058497f14053ab69e1bd535030bfa698d5ab34a4ce8c8d54a2010029",
  "source": "pragma solidity ^0.4.17;\n\n\nimport \"./iERC20Token.sol\";\nimport \"./CurrencyToken.sol\";\nimport \"./withAccessManager.sol\";\n\n/// @title DataManager contract\ncontract DataManager is withAccessManager {\n    // FIELDS\n    uint256 public version = 2;\n    // currency symbol => currency erc20 contract address\n    mapping(bytes32 => address) public currencyAddresses;\n    // currency address => currency symbol\n    mapping(address => bytes32) public currencySymbols;\n    // clientId => depositAddress\n    mapping(bytes32 => address) public depositAddresses;\n    // depositAddress => clientId\n    mapping(address => bytes32) public depositClientIds;\n    // blockchainActionId => boolean \n    mapping(bytes32 => bool) public actionStatus;\n    // blockchainActionData\n    struct actionData {\n        bytes32 currency;\n        uint amount;\n        bytes32 accountId;\n        address to;\n        uint pptFee;\n    }\n    // blockchainActionId => actionData\n    mapping(bytes32 => actionData) public blockchainActionIdData;\n    \n    //actionId => invoiceId\n    mapping(bytes32 => bytes32) public actionIdToInvoiceId;\n    // invoice provider company data\n    struct providerCompany {\n        //bool isEnabled;\n        bytes32 companyNumber;\n        bytes32 companyName;\n        bytes2 countryCode;\n    }\n    // companyCode => companyNumber => providerId\n    mapping(bytes2 => mapping(bytes32 => bytes32)) public providerData;\n    // providedId => providerCompany\n    mapping(bytes32 => providerCompany) public providerCompanyData;\n    // crowdsale invoiceDetails\n    struct _invoiceDetails {\n        bytes2 invoiceCountryCode;\n        bytes32 invoiceCompanyNumber;\n        bytes32 invoiceCompanyName;\n        bytes32 invoiceNumber;\n    }\n    // crowdsale invoiceData\n    struct invoiceData {\n        bytes32 providerUserId;\n        bytes32 invoiceCompanyName;\n    }\n\n    // country code => company number => invoice number => invoice data\n    mapping(bytes2 => mapping(bytes32 => mapping(bytes32 => invoiceData))) public invoices;\n\n    // NON-CONSTANT METHODS\n\n    /** @dev Constructor that sets the server when contract is deployed.\n      * @param _accessManager The address to set as the access manager.\n      */\n    function DataManager(address _accessManager) public withAccessManager(_accessManager) { }\n\n    /** @dev Adds a new deposit smart contract address linked to a client id\n      * @param _depositAddress the deposit smart contract address\n      * @param _clientId the client id\n      * @return success true/false denoting successful function call\n      */\n    function setDepositAddress(address _depositAddress, bytes32 _clientId) public onlyServerOrOnlyPopulous returns (bool success) {\n        if (depositAddresses[_clientId] != 0x0 && depositClientIds[_depositAddress] != 0x0){\n            return false;\n        } else {\n            depositAddresses[_clientId] = _depositAddress;\n            depositClientIds[_depositAddress] = _clientId;\n            return true;\n        }\n    }\n\n    /** @dev Adds a new currency sumbol and smart contract address  \n      * @param _currencyAddress the currency smart contract address\n      * @param _currencySymbol the currency symbol\n      * @return success true/false denoting successful function call\n      */\n    function setCurrency(address _currencyAddress, bytes32 _currencySymbol) public onlyServerOrOnlyPopulous returns (bool success) {\n        if (currencySymbols[_currencyAddress] != 0x0 && currencyAddresses[_currencySymbol] != 0x0){\n            return false;\n        } else {\n            currencySymbols[_currencyAddress] = _currencySymbol;\n            currencyAddresses[_currencySymbol] = _currencyAddress;\n            assert(currencyAddresses[_currencySymbol] != 0x0 && currencySymbols[_currencyAddress] != 0x0);\n            return true;\n        }\n    }\n\n    /** @dev Updates a currency sumbol and smart contract address  \n      * @param _currencyAddress the currency smart contract address\n      * @param _currencySymbol the currency symbol\n      * @return success true/false denoting successful function call\n      */\n    function _setCurrency(address _currencyAddress, bytes32 _currencySymbol) public onlyPopulous returns (bool success) {\n        currencySymbols[_currencyAddress] = _currencySymbol;\n        currencyAddresses[_currencySymbol] = _currencyAddress;\n        assert(currencyAddresses[_currencySymbol] != 0x0 && currencySymbols[_currencyAddress] != 0x0);\n        return true;\n    }\n\n    /** @dev set blockchain action data in struct \n      * @param _blockchainActionId the blockchain action id\n      * @param currency the token currency symbol\n      * @param accountId the clientId\n      * @param to the blockchain address or smart contract address used in the transaction\n      * @param amount the amount of tokens in the transaction\n      * @return success true/false denoting successful function call\n      */\n    function setBlockchainActionData(\n        bytes32 _blockchainActionId, bytes32 currency, \n        uint amount, bytes32 accountId, address to, uint pptFee) \n        public\n        onlyServerOrOnlyPopulous \n        returns (bool success)\n    {\n        require(actionStatus[_blockchainActionId] == true);\n        blockchainActionIdData[_blockchainActionId].currency = currency;\n        blockchainActionIdData[_blockchainActionId].amount = amount;\n        blockchainActionIdData[_blockchainActionId].accountId = accountId;\n        blockchainActionIdData[_blockchainActionId].to = to;\n        blockchainActionIdData[_blockchainActionId].pptFee = pptFee;\n        return true;\n    }\n\n    /** @dev upgrade deposit address \n      * @param _blockchainActionId the blockchain action id\n      * @param _clientId the client id\n      * @param _depositContract the deposit contract address for the client\n      * @return success true/false denoting successful function call\n      */\n    function upgradeDepositAddress(bytes32 _blockchainActionId, bytes32 _clientId, address _depositContract) public\n      onlyServerOrOnlyPopulous\n      returns (bool success)\n    {\n        require(actionStatus[_blockchainActionId] == false);\n        // check that client does not already have a stored deposit address\n        require(depositAddresses[_clientId] == 0x0 && depositAddresses[_clientId] != _depositContract);\n        // DepositContract(_clientId).clientId() == _clientId\n        // store the deposit address for the client Id\n        //DepositContract(_clientId, address(AM));\n        depositAddresses[_clientId] = _depositContract;\n        // check that deposit address has been stored for client Id\n        assert(depositAddresses[_clientId] != 0x0);\n        // set blockchain action data\n        actionStatus[_blockchainActionId] = true;\n        blockchainActionIdData[_blockchainActionId].accountId = _clientId;\n        blockchainActionIdData[_blockchainActionId].to = depositAddresses[_clientId];\n        return true;\n    }\n  \n\n    /** @dev Updates a deposit address for client id\n      * @param _blockchainActionId the blockchain action id\n      * @param _clientId the client id\n      * @param _depositContract the deposit contract address for the client\n      * @return success true/false denoting successful function call\n      */\n    function _setDepositAddress(bytes32 _blockchainActionId, bytes32 _clientId, address _depositContract) public\n      onlyPopulous\n      returns (bool success)\n    {\n        require(actionStatus[_blockchainActionId] == false);\n        depositAddresses[_clientId] = _depositContract;\n        // check that deposit address has been stored for client Id\n        assert(depositAddresses[_clientId] != 0x0);\n        // set blockchain action data\n        actionStatus[_blockchainActionId] = true;\n        blockchainActionIdData[_blockchainActionId].accountId = _clientId;\n        blockchainActionIdData[_blockchainActionId].to = depositAddresses[_clientId];\n        return true;\n    }\n\n    /** @dev Set action status for blockchain action  \n      * @param _blockchainActionId the action id\n      * @return success true or false if function call is successful\n      */\n    function setActionStatus(bytes32 _blockchainActionId) public onlyServerOrOnlyPopulous returns (bool success) {\n        require(actionStatus[_blockchainActionId] == false);\n        actionStatus[_blockchainActionId] = true;\n        return true;\n    }\n\n    /** @dev Add a new invoice to the platform  \n      * @param _providerUserId the providers user id\n      * @param _invoiceCountryCode the country code of the provider\n      * @param _invoiceCompanyNumber the providers company number\n      * @param _invoiceCompanyName the providers company name\n      * @param _invoiceNumber the invoice number\n      * @return success true or false if function call is successful\n      */\n    function setInvoice(\n        bytes32 _providerUserId, bytes2 _invoiceCountryCode, \n        bytes32 _invoiceCompanyNumber, bytes32 _invoiceCompanyName, bytes32 _invoiceNumber) \n        public \n        onlyServerOrOnlyPopulous \n        returns (bool success) \n    {   \n        bytes32 providerUserId; \n        bytes32 companyName;\n        (providerUserId, companyName) = getInvoice(_invoiceCountryCode, _invoiceCompanyNumber, _invoiceNumber);\n        require(providerUserId == 0x0);\n        // country code => company number => invoice number => invoice data\n        invoices[_invoiceCountryCode][_invoiceCompanyNumber][_invoiceNumber].providerUserId = _providerUserId;\n        invoices[_invoiceCountryCode][_invoiceCompanyNumber][_invoiceNumber].invoiceCompanyName = _invoiceCompanyName;\n        \n        assert(\n            invoices[_invoiceCountryCode][_invoiceCompanyNumber][_invoiceNumber].providerUserId != 0x0 && \n            invoices[_invoiceCountryCode][_invoiceCompanyNumber][_invoiceNumber].invoiceCompanyName != 0x0\n        );\n        return true;\n    }\n    \n    /** @dev Add a new invoice provider to the platform  \n      * @param _blockchainActionId the blockchain action id\n      * @param _userId the user id of the provider\n      * @param _companyNumber the providers company number\n      * @param _companyName the providers company name\n      * @param _countryCode the providers country code\n      * @return success true or false if function call is successful\n      */\n    function setProvider(\n        bytes32 _blockchainActionId, bytes32 _userId, bytes32 _companyNumber, \n        bytes32 _companyName, bytes2 _countryCode) \n        public \n        onlyServerOrOnlyPopulous\n        returns (bool success)\n    {   \n        require(actionStatus[_blockchainActionId] == false);\n        require(\n            providerCompanyData[_userId].companyNumber == 0x0 && \n            providerCompanyData[_userId].countryCode == 0x0 &&\n            providerCompanyData[_userId].companyName == 0x0);\n        providerCompanyData[_userId].countryCode = _countryCode;\n        providerCompanyData[_userId].companyName = _companyName;\n        providerCompanyData[_userId].companyNumber = _companyNumber;\n\n        providerData[_countryCode][_companyNumber] = _userId;\n        \n        actionStatus[_blockchainActionId] = true;\n        setBlockchainActionData(_blockchainActionId, 0x0, 0, _userId, 0x0, 0);\n        return true;\n    }\n\n\n    /** @dev Update an added invoice provider to the platform  \n      * @param _blockchainActionId the blockchain action id\n      * @param _userId the user id of the provider\n      * @param _companyNumber the providers company number\n      * @param _companyName the providers company name\n      * @param _countryCode the providers country code\n      * @return success true or false if function call is successful\n      */\n    function _setProvider(\n        bytes32 _blockchainActionId, bytes32 _userId, bytes32 _companyNumber, \n        bytes32 _companyName, bytes2 _countryCode) \n        public \n        onlyPopulous\n        returns (bool success)\n    {   \n        require(actionStatus[_blockchainActionId] == false);\n        providerCompanyData[_userId].countryCode = _countryCode;\n        providerCompanyData[_userId].companyName = _companyName;\n        providerCompanyData[_userId].companyNumber = _companyNumber;\n\n        providerData[_countryCode][_companyNumber] = _userId;\n        \n        actionStatus[_blockchainActionId] = true;\n        setBlockchainActionData(_blockchainActionId, 0x0, 0, _userId, 0x0, 0);\n        return true;\n    }\n\n    // CONSTANT METHODS\n\n    /** @dev Gets a deposit address with the client id \n      * @return clientDepositAddress The client's deposit address\n      */\n    function getDepositAddress(bytes32 _clientId) public view returns (address clientDepositAddress){\n        return depositAddresses[_clientId];\n    }\n\n    /** @dev Gets a client id linked to a deposit address \n      * @return depositClientId The client id\n      */\n    function getClientIdWithDepositAddress(address _depositContract) public view returns (bytes32 depositClientId){\n        return depositClientIds[_depositContract];\n    }\n\n    /** @dev Gets a currency smart contract address \n      * @return currencyAddress The currency address\n      */\n    function getCurrency(bytes32 _currencySymbol) public view returns (address currencyAddress) {\n        return currencyAddresses[_currencySymbol];\n    }\n   \n    /** @dev Gets a currency symbol given it's smart contract address \n      * @return currencySymbol The currency symbol\n      */\n    function getCurrencySymbol(address _currencyAddress) public view returns (bytes32 currencySymbol) {\n        return currencySymbols[_currencyAddress];\n    }\n\n    function getCurrencyDetails(address _currencyAddress) public view returns (bytes32 _symbol, bytes32 _name, uint8 _decimals) {\n        return (CurrencyToken(_currencyAddress).symbol(), CurrencyToken(_currencyAddress).name(), CurrencyToken(_currencyAddress).decimals());\n    } \n\n    /** @dev Get the blockchain action Id Data for a blockchain Action id\n      * @param _blockchainActionId the blockchain action id\n      * @return bytes32 currency\n      * @return uint amount\n      * @return bytes32 accountId\n      * @return address to\n      */\n    function getBlockchainActionIdData(bytes32 _blockchainActionId) public view \n    returns (bytes32 _currency, uint _amount, bytes32 _accountId, address _to) \n    {\n        require(actionStatus[_blockchainActionId] == true);\n\n        return (blockchainActionIdData[_blockchainActionId].currency, \n        blockchainActionIdData[_blockchainActionId].amount,\n        blockchainActionIdData[_blockchainActionId].accountId,\n        blockchainActionIdData[_blockchainActionId].to);\n    }\n\n    /** @dev Get the bool status of a blockchain Action id\n      * @param _blockchainActionId the blockchain action id\n      * @return bool actionStatus\n      */\n    function getActionStatus(bytes32 _blockchainActionId) public view returns (bool _blockchainActionStatus) {\n        return actionStatus[_blockchainActionId];\n    }\n\n    /** @dev Gets the details of an invoice with the country code, company number and invocie number.\n      * @param _invoiceCountryCode The country code.\n      * @param _invoiceCompanyNumber The company number.\n      * @param _invoiceNumber The invoice number\n      * @return providerUserId The invoice provider user Id\n      * @return invoiceCompanyName the invoice company name\n      */\n    function getInvoice(bytes2 _invoiceCountryCode, bytes32 _invoiceCompanyNumber, bytes32 _invoiceNumber) \n        public \n        view \n        returns (bytes32 providerUserId, bytes32 invoiceCompanyName) \n    {   \n        bytes32 _providerUserId = invoices[_invoiceCountryCode][_invoiceCompanyNumber][_invoiceNumber].providerUserId;\n        bytes32 _invoiceCompanyName = invoices[_invoiceCountryCode][_invoiceCompanyNumber][_invoiceNumber].invoiceCompanyName;\n        //require(_providerUserId != 0x0 && _invoiceCompanyName != 0x0);\n        return (_providerUserId, _invoiceCompanyName);\n    }\n\n    /** @dev Gets the details of an invoice provider with the country code and company number.\n      * @param _providerCountryCode The country code.\n      * @param _providerCompanyNumber The company number.\n      * @return isEnabled The boolean value true/false indicating whether invoice provider is enabled or not\n      * @return providerId The invoice provider user Id\n      * @return companyName the invoice company name\n      */\n    function getProviderByCountryCodeCompanyNumber(bytes2 _providerCountryCode, bytes32 _providerCompanyNumber) \n        public \n        view \n        returns (bytes32 providerId, bytes32 companyName) \n    {\n        bytes32 providerUserId = providerData[_providerCountryCode][_providerCompanyNumber];\n\n        return (providerUserId, \n        providerCompanyData[providerUserId].companyName);\n        //providerCompanyData[providerUserId].isEnabled);\n    }\n\n    /** @dev Gets the details of an invoice provider with the providers user Id.\n      * @param _providerUserId The provider user Id.\n      * @return countryCode The invoice provider country code\n      * @return companyName the invoice company name\n      */\n    function getProviderByUserId(bytes32 _providerUserId) public view \n        returns (bytes2 countryCode, bytes32 companyName, bytes32 companyNumber) \n    {\n        return (providerCompanyData[_providerUserId].countryCode,\n        providerCompanyData[_providerUserId].companyName,\n        providerCompanyData[_providerUserId].companyNumber);\n    }\n    \n    \n    /**\n    function getProviderStatus(bytes32 _userId) public view returns (bool isEnabled) {\n        return providerCompanyData[_userId].isEnabled;\n    } */\n\n    /** @dev Gets the version number for the current contract instance\n      * @return _version The version number\n      */\n    function getVersion() public view returns (uint256 _version) {\n        return version;\n    }\n\n\n}",
  "sourcePath": "/Users/najienka/Desktop/populous-smartcontracts/contracts/DataManager.sol",
  "schemaVersion": "1.0.0",
  "updatedAt": "2018-06-15T13:02:45.748Z"
}