{
  "contractName": "DataManager",
  "abi": [
    {
      "constant": false,
      "inputs": [
        {
          "name": "_accessManager",
          "type": "address"
        }
      ],
      "name": "updateAccessManager",
      "outputs": [],
      "payable": false,
      "stateMutability": "nonpayable",
      "type": "function"
    },
    {
      "constant": true,
      "inputs": [],
      "name": "getVersion",
      "outputs": [
        {
          "name": "_version",
          "type": "uint256"
        }
      ],
      "payable": false,
      "stateMutability": "view",
      "type": "function"
    },
    {
      "constant": true,
      "inputs": [
        {
          "name": "_blockchainActionId",
          "type": "bytes32"
        }
      ],
      "name": "getBlockchainActionIdData",
      "outputs": [
        {
          "name": "_currency",
          "type": "bytes32"
        },
        {
          "name": "_amount",
          "type": "uint256"
        },
        {
          "name": "_accountId",
          "type": "bytes32"
        },
        {
          "name": "_to",
          "type": "address"
        }
      ],
      "payable": false,
      "stateMutability": "view",
      "type": "function"
    },
    {
      "constant": true,
      "inputs": [
        {
          "name": "_providerUserId",
          "type": "bytes32"
        }
      ],
      "name": "getProviderByUserId",
      "outputs": [
        {
          "name": "countryCode",
          "type": "bytes2"
        },
        {
          "name": "companyName",
          "type": "bytes32"
        },
        {
          "name": "companyNumber",
          "type": "bytes32"
        }
      ],
      "payable": false,
      "stateMutability": "view",
      "type": "function"
    },
    {
      "constant": true,
      "inputs": [
        {
          "name": "_clientId",
          "type": "bytes32"
        }
      ],
      "name": "getDepositAddress",
      "outputs": [
        {
          "name": "clientDepositAddress",
          "type": "address"
        }
      ],
      "payable": false,
      "stateMutability": "view",
      "type": "function"
    },
    {
      "constant": true,
      "inputs": [
        {
          "name": "_depositContract",
          "type": "address"
        }
      ],
      "name": "getClientIdWithDepositAddress",
      "outputs": [
        {
          "name": "depositClientId",
          "type": "bytes32"
        }
      ],
      "payable": false,
      "stateMutability": "view",
      "type": "function"
    },
    {
      "constant": false,
      "inputs": [
        {
          "name": "_currencyAddress",
          "type": "address"
        },
        {
          "name": "_currencySymbol",
          "type": "bytes32"
        }
      ],
      "name": "setCurrency",
      "outputs": [
        {
          "name": "success",
          "type": "bool"
        }
      ],
      "payable": false,
      "stateMutability": "nonpayable",
      "type": "function"
    },
    {
      "constant": true,
      "inputs": [
        {
          "name": "",
          "type": "address"
        }
      ],
      "name": "currencySymbols",
      "outputs": [
        {
          "name": "",
          "type": "bytes32"
        }
      ],
      "payable": false,
      "stateMutability": "view",
      "type": "function"
    },
    {
      "constant": false,
      "inputs": [
        {
          "name": "_providerUserId",
          "type": "bytes32"
        },
        {
          "name": "_invoiceCountryCode",
          "type": "bytes2"
        },
        {
          "name": "_invoiceCompanyNumber",
          "type": "bytes32"
        },
        {
          "name": "_invoiceCompanyName",
          "type": "bytes32"
        },
        {
          "name": "_invoiceNumber",
          "type": "bytes32"
        }
      ],
      "name": "setInvoice",
      "outputs": [
        {
          "name": "success",
          "type": "bool"
        }
      ],
      "payable": false,
      "stateMutability": "nonpayable",
      "type": "function"
    },
    {
      "constant": true,
      "inputs": [
        {
          "name": "",
          "type": "address"
        }
      ],
      "name": "depositClientIds",
      "outputs": [
        {
          "name": "",
          "type": "bytes32"
        }
      ],
      "payable": false,
      "stateMutability": "view",
      "type": "function"
    },
    {
      "constant": true,
      "inputs": [],
      "name": "version",
      "outputs": [
        {
          "name": "",
          "type": "uint256"
        }
      ],
      "payable": false,
      "stateMutability": "view",
      "type": "function"
    },
    {
      "constant": true,
      "inputs": [
        {
          "name": "_currencyAddress",
          "type": "address"
        }
      ],
      "name": "getCurrencySymbol",
      "outputs": [
        {
          "name": "currencySymbol",
          "type": "bytes32"
        }
      ],
      "payable": false,
      "stateMutability": "view",
      "type": "function"
    },
    {
      "constant": true,
      "inputs": [
        {
          "name": "_invoiceCountryCode",
          "type": "bytes2"
        },
        {
          "name": "_invoiceCompanyNumber",
          "type": "bytes32"
        },
        {
          "name": "_invoiceNumber",
          "type": "bytes32"
        }
      ],
      "name": "getInvoice",
      "outputs": [
        {
          "name": "providerUserId",
          "type": "bytes32"
        },
        {
          "name": "invoiceCompanyName",
          "type": "bytes32"
        }
      ],
      "payable": false,
      "stateMutability": "view",
      "type": "function"
    },
    {
      "constant": true,
      "inputs": [
        {
          "name": "",
          "type": "bytes32"
        }
      ],
      "name": "blockchainActionIdData",
      "outputs": [
        {
          "name": "currency",
          "type": "bytes32"
        },
        {
          "name": "amount",
          "type": "uint256"
        },
        {
          "name": "accountId",
          "type": "bytes32"
        },
        {
          "name": "to",
          "type": "address"
        },
        {
          "name": "pptFee",
          "type": "uint256"
        }
      ],
      "payable": false,
      "stateMutability": "view",
      "type": "function"
    },
    {
      "constant": false,
      "inputs": [
        {
          "name": "_depositAddress",
          "type": "address"
        },
        {
          "name": "_clientId",
          "type": "bytes32"
        }
      ],
      "name": "setDepositAddress",
      "outputs": [
        {
          "name": "success",
          "type": "bool"
        }
      ],
      "payable": false,
      "stateMutability": "nonpayable",
      "type": "function"
    },
    {
      "constant": true,
      "inputs": [
        {
          "name": "",
          "type": "bytes32"
        }
      ],
      "name": "providerCompanyData",
      "outputs": [
        {
          "name": "companyNumber",
          "type": "bytes32"
        },
        {
          "name": "companyName",
          "type": "bytes32"
        },
        {
          "name": "countryCode",
          "type": "bytes2"
        }
      ],
      "payable": false,
      "stateMutability": "view",
      "type": "function"
    },
    {
      "constant": true,
      "inputs": [
        {
          "name": "",
          "type": "bytes2"
        },
        {
          "name": "",
          "type": "bytes32"
        },
        {
          "name": "",
          "type": "bytes32"
        }
      ],
      "name": "invoices",
      "outputs": [
        {
          "name": "providerUserId",
          "type": "bytes32"
        },
        {
          "name": "invoiceCompanyName",
          "type": "bytes32"
        }
      ],
      "payable": false,
      "stateMutability": "view",
      "type": "function"
    },
    {
      "constant": false,
      "inputs": [
        {
          "name": "_blockchainActionId",
          "type": "bytes32"
        },
        {
          "name": "currency",
          "type": "bytes32"
        },
        {
          "name": "amount",
          "type": "uint256"
        },
        {
          "name": "accountId",
          "type": "bytes32"
        },
        {
          "name": "to",
          "type": "address"
        },
        {
          "name": "pptFee",
          "type": "uint256"
        }
      ],
      "name": "setBlockchainActionData",
      "outputs": [
        {
          "name": "success",
          "type": "bool"
        }
      ],
      "payable": false,
      "stateMutability": "nonpayable",
      "type": "function"
    },
    {
      "constant": true,
      "inputs": [
        {
          "name": "",
          "type": "bytes32"
        }
      ],
      "name": "actionStatus",
      "outputs": [
        {
          "name": "",
          "type": "bool"
        }
      ],
      "payable": false,
      "stateMutability": "view",
      "type": "function"
    },
    {
      "constant": false,
      "inputs": [
        {
          "name": "_blockchainActionId",
          "type": "bytes32"
        },
        {
          "name": "_userId",
          "type": "bytes32"
        },
        {
          "name": "_companyNumber",
          "type": "bytes32"
        },
        {
          "name": "_companyName",
          "type": "bytes32"
        },
        {
          "name": "_countryCode",
          "type": "bytes2"
        }
      ],
      "name": "setProvider",
      "outputs": [
        {
          "name": "success",
          "type": "bool"
        }
      ],
      "payable": false,
      "stateMutability": "nonpayable",
      "type": "function"
    },
    {
      "constant": true,
      "inputs": [
        {
          "name": "",
          "type": "bytes32"
        }
      ],
      "name": "currencyAddresses",
      "outputs": [
        {
          "name": "",
          "type": "address"
        }
      ],
      "payable": false,
      "stateMutability": "view",
      "type": "function"
    },
    {
      "constant": false,
      "inputs": [
        {
          "name": "_blockchainActionId",
          "type": "bytes32"
        },
        {
          "name": "_clientId",
          "type": "bytes32"
        },
        {
          "name": "_depositContract",
          "type": "address"
        }
      ],
      "name": "upgradeDepositAddress",
      "outputs": [
        {
          "name": "success",
          "type": "bool"
        }
      ],
      "payable": false,
      "stateMutability": "nonpayable",
      "type": "function"
    },
    {
      "constant": true,
      "inputs": [
        {
          "name": "_blockchainActionId",
          "type": "bytes32"
        }
      ],
      "name": "getActionStatus",
      "outputs": [
        {
          "name": "_blockchainActionStatus",
          "type": "bool"
        }
      ],
      "payable": false,
      "stateMutability": "view",
      "type": "function"
    },
    {
      "constant": true,
      "inputs": [
        {
          "name": "_providerCountryCode",
          "type": "bytes2"
        },
        {
          "name": "_providerCompanyNumber",
          "type": "bytes32"
        }
      ],
      "name": "getProviderByCountryCodeCompanyNumber",
      "outputs": [
        {
          "name": "providerId",
          "type": "bytes32"
        },
        {
          "name": "companyName",
          "type": "bytes32"
        }
      ],
      "payable": false,
      "stateMutability": "view",
      "type": "function"
    },
    {
      "constant": true,
      "inputs": [
        {
          "name": "",
          "type": "bytes32"
        }
      ],
      "name": "depositAddresses",
      "outputs": [
        {
          "name": "",
          "type": "address"
        }
      ],
      "payable": false,
      "stateMutability": "view",
      "type": "function"
    },
    {
      "constant": false,
      "inputs": [
        {
          "name": "_blockchainActionId",
          "type": "bytes32"
        }
      ],
      "name": "setActionStatus",
      "outputs": [
        {
          "name": "success",
          "type": "bool"
        }
      ],
      "payable": false,
      "stateMutability": "nonpayable",
      "type": "function"
    },
    {
      "constant": true,
      "inputs": [
        {
          "name": "_currencySymbol",
          "type": "bytes32"
        }
      ],
      "name": "getCurrency",
      "outputs": [
        {
          "name": "currencyAddress",
          "type": "address"
        }
      ],
      "payable": false,
      "stateMutability": "view",
      "type": "function"
    },
    {
      "constant": true,
      "inputs": [
        {
          "name": "",
          "type": "bytes32"
        }
      ],
      "name": "actionIdToInvoiceId",
      "outputs": [
        {
          "name": "",
          "type": "bytes32"
        }
      ],
      "payable": false,
      "stateMutability": "view",
      "type": "function"
    },
    {
      "constant": true,
      "inputs": [
        {
          "name": "",
          "type": "bytes2"
        },
        {
          "name": "",
          "type": "bytes32"
        }
      ],
      "name": "providerData",
      "outputs": [
        {
          "name": "",
          "type": "bytes32"
        }
      ],
      "payable": false,
      "stateMutability": "view",
      "type": "function"
    },
    {
      "constant": true,
      "inputs": [],
      "name": "AM",
      "outputs": [
        {
          "name": "",
          "type": "address"
        }
      ],
      "payable": false,
      "stateMutability": "view",
      "type": "function"
    },
    {
      "inputs": [
        {
          "name": "_accessManager",
          "type": "address"
        }
      ],
      "payable": false,
      "stateMutability": "nonpayable",
      "type": "constructor"
    }
  ],
  "bytecode": "0x606060405260018055341561001357600080fd5b6040516020806115558339810160405280805160008054600160a060020a03909216600160a060020a031990921691909117905550506114fd806100586000396000f300606060405236156101645763ffffffff60e060020a60003504166302ab72c481146101695780630d8e6e2c1461018a578063120ab58c146101af5780631529905c146101f95780632a01a4511461023e5780632cc8faea146102705780632fdfd33a1461028f57806334791f81146102c557806339cb696e146102e457806345d9ff7e1461031057806354fd4d501461032f578063554c9b6a1461034257806355a6db821461036157806359d334b21461039f57806368d9d3e1146103ef5780636fa2a3c714610411578063716017941461045557806392c4b8671461047b578063a533ad02146104a9578063a5c51a00146104bf578063a5f43a51146104eb578063a85eb33414610501578063bea0897c14610526578063beae439d1461053c578063c3751fd81461055f578063c5dbb9f814610575578063d383b80d1461058b578063ddd67025146105a1578063df2676af146105b7578063f7f01b4b146105da575b600080fd5b341561017457600080fd5b610188600160a060020a03600435166105ed565b005b341561019557600080fd5b61019d610693565b60405190815260200160405180910390f35b34156101ba57600080fd5b6101c5600435610699565b6040519384526020840192909252604080840191909152600160a060020a0390911660608301526080909101905180910390f35b341561020457600080fd5b61020f6004356106f4565b604051600160f060020a0319909316835260208301919091526040808301919091526060909101905180910390f35b341561024957600080fd5b610254600435610719565b604051600160a060020a03909116815260200160405180910390f35b341561027b57600080fd5b61019d600160a060020a0360043516610734565b341561029a57600080fd5b6102b1600160a060020a036004351660243561074f565b604051901515815260200160405180910390f35b34156102d057600080fd5b61019d600160a060020a0360043516610913565b34156102ef57600080fd5b6102b1600435600160f060020a031960243516604435606435608435610925565b341561031b57600080fd5b61019d600160a060020a0360043516610ad2565b341561033a57600080fd5b61019d610ae4565b341561034d57600080fd5b61019d600160a060020a0360043516610aea565b341561036c57600080fd5b610387600160f060020a031960043516602435604435610b05565b60405191825260208201526040908101905180910390f35b34156103aa57600080fd5b6103b5600435610b41565b6040519485526020850193909352604080850192909252600160a060020a03166060840152608083019190915260a0909101905180910390f35b34156103fa57600080fd5b6102b1600160a060020a0360043516602435610b79565b341561041c57600080fd5b610427600435610d0a565b6040519283526020830191909152600160f060020a0319166040808301919091526060909101905180910390f35b341561046057600080fd5b610387600160f060020a031960043516602435604435610d31565b341561048657600080fd5b6102b1600435602435604435606435600160a060020a036084351660a435610d5b565b34156104b457600080fd5b6102b1600435610ed3565b34156104ca57600080fd5b6102b1600435602435604435606435600160f060020a031960843516610ee8565b34156104f657600080fd5b6102546004356110a5565b341561050c57600080fd5b6102b1600435602435600160a060020a03604435166110c0565b341561053157600080fd5b6102b16004356112cb565b341561054757600080fd5b610387600160f060020a0319600435166024356112e0565b341561056a57600080fd5b61025460043561131b565b341561058057600080fd5b6102b1600435611336565b341561059657600080fd5b610254600435611478565b34156105ac57600080fd5b61019d600435611493565b34156105c257600080fd5b61019d600160f060020a0319600435166024356114a5565b34156105e557600080fd5b6102546114c2565b60008054600160a060020a03169063fda089589033906040516020015260405160e060020a63ffffffff8416028152600160a060020a039091166004820152602401602060405180830381600087803b151561064857600080fd5b6102c65a03f1151561065957600080fd5b50505060405180511515600114905061067157600080fd5b60008054600160a060020a031916600160a060020a0392909216919091179055565b60015490565b60008181526006602052604081205481908190819060ff1615156001146106bf57600080fd5b5050506000918252506007602052604090208054600182015460028301546003909301549193909291600160a060020a031690565b6000908152600a6020526040902060028101546001820154915460f060020a90910292565b600090815260046020526040902054600160a060020a031690565b600160a060020a031660009081526005602052604090205490565b60008054600160a060020a031663fda0895833836040516020015260405160e060020a63ffffffff8416028152600160a060020a039091166004820152602401602060405180830381600087803b15156107a857600080fd5b6102c65a03f115156107b957600080fd5b5050506040518051151560011490508061084a575060008054600160a060020a0316906305fd22d09033906040516020015260405160e060020a63ffffffff8416028152600160a060020a039091166004820152602401602060405180830381600087803b151561082957600080fd5b6102c65a03f1151561083a57600080fd5b5050506040518051151560011490505b151561085557600080fd5b600160a060020a038316600090815260036020526040902054158015906108925750600082815260026020526040902054600160a060020a031615155b1561089f5750600061090d565b600160a060020a038084166000818152600360209081526040808320879055868352600290915290208054600160a060020a0319169091179081905516158015906109015750600160a060020a03831660009081526003602052604090205415155b151561090957fe5b5060015b92915050565b60036020526000908152604090205481565b6000805481908190600160a060020a031663fda0895833836040516020015260405160e060020a63ffffffff8416028152600160a060020a039091166004820152602401602060405180830381600087803b151561098257600080fd5b6102c65a03f1151561099357600080fd5b50505060405180511515600114905080610a24575060008054600160a060020a0316906305fd22d09033906040516020015260405160e060020a63ffffffff8416028152600160a060020a039091166004820152602401602060405180830381600087803b1515610a0357600080fd5b6102c65a03f11515610a1457600080fd5b5050506040518051151560011490505b1515610a2f57600080fd5b610a3a878786610b05565b90925090508115610a4a57600080fd5b600160f060020a031987166000908152600b60209081526040808320898452825280832087845290915290208881556001018590558715801590610abc5750600160f060020a031987166000908152600b60209081526040808320898452825280832087845290915290206001015415155b1515610ac457fe5b506001979650505050505050565b60056020526000908152604090205481565b60015481565b600160a060020a031660009081526003602052604090205490565b600160f060020a0319929092166000908152600b6020908152604080832093835292815282822093825292909252902080546001909101549091565b60076020526000908152604090208054600182015460028301546003840154600490940154929391929091600160a060020a03169085565b60008054600160a060020a031663fda0895833836040516020015260405160e060020a63ffffffff8416028152600160a060020a039091166004820152602401602060405180830381600087803b1515610bd257600080fd5b6102c65a03f11515610be357600080fd5b50505060405180511515600114905080610c74575060008054600160a060020a0316906305fd22d09033906040516020015260405160e060020a63ffffffff8416028152600160a060020a039091166004820152602401602060405180830381600087803b1515610c5357600080fd5b6102c65a03f11515610c6457600080fd5b5050506040518051151560011490505b1515610c7f57600080fd5b600082815260046020526040902054600160a060020a031615801590610cbc5750600160a060020a03831660009081526005602052604090205415155b15610cc95750600061090d565b5060008181526004602090815260408083208054600160a060020a031916600160a060020a038716908117909155835260059091529020819055600161090d565b600a6020526000908152604090208054600182015460029092015490919060f060020a0283565b600b6020908152600093845260408085208252928452828420905282529020805460019091015482565b60008054600160a060020a031663fda0895833836040516020015260405160e060020a63ffffffff8416028152600160a060020a039091166004820152602401602060405180830381600087803b1515610db457600080fd5b6102c65a03f11515610dc557600080fd5b50505060405180511515600114905080610e56575060008054600160a060020a0316906305fd22d09033906040516020015260405160e060020a63ffffffff8416028152600160a060020a039091166004820152602401602060405180830381600087803b1515610e3557600080fd5b6102c65a03f11515610e4657600080fd5b5050506040518051151560011490505b1515610e6157600080fd5b60008781526006602052604090205460ff161515600114610e8157600080fd5b506000868152600760205260409020858155600180820186905560028201859055600382018054600160a060020a038616600160a060020a031990911617905560049091018290559695505050505050565b60066020526000908152604090205460ff1681565b60008054600160a060020a031663fda0895833836040516020015260405160e060020a63ffffffff8416028152600160a060020a039091166004820152602401602060405180830381600087803b1515610f4157600080fd5b6102c65a03f11515610f5257600080fd5b50505060405180511515600114905080610fe3575060008054600160a060020a0316906305fd22d09033906040516020015260405160e060020a63ffffffff8416028152600160a060020a039091166004820152602401602060405180830381600087803b1515610fc257600080fd5b6102c65a03f11515610fd357600080fd5b5050506040518051151560011490505b1515610fee57600080fd5b60008681526006602052604090205460ff161561100a57600080fd5b6000858152600a60205260409020541561102357600080fd5b6000858152600a6020908152604080832060028101805461ffff191660f060020a8804179055600180820188905590889055600160f060020a03198616845260098352818420888552835281842089905589845260069092528220805460ff1916909117905561109890879080888180610d5b565b5060019695505050505050565b600260205260009081526040902054600160a060020a031681565b60008054600160a060020a031663fda0895833836040516020015260405160e060020a63ffffffff8416028152600160a060020a039091166004820152602401602060405180830381600087803b151561111957600080fd5b6102c65a03f1151561112a57600080fd5b505050604051805115156001149050806111bb575060008054600160a060020a0316906305fd22d09033906040516020015260405160e060020a63ffffffff8416028152600160a060020a039091166004820152602401602060405180830381600087803b151561119a57600080fd5b6102c65a03f115156111ab57600080fd5b5050506040518051151560011490505b15156111c657600080fd5b60008481526006602052604090205460ff16156111e257600080fd5b600083815260046020526040902054600160a060020a03161580156112215750600083815260046020526040902054600160a060020a03838116911614155b151561122c57600080fd5b60008381526004602052604090208054600160a060020a031916600160a060020a03848116919091179182905516151561126257fe5b506000838152600660209081526040808320805460ff191660019081179091556007808452828520600281018890558786526004855292852054948890529092526003018054600160a060020a031916600160a060020a03909316929092179091559392505050565b60009081526006602052604090205460ff1690565b600160f060020a031982166000908152600960209081526040808320848452825280832054808452600a909252909120600101549250929050565b600460205260009081526040902054600160a060020a031681565b60008054600160a060020a031663fda0895833836040516020015260405160e060020a63ffffffff8416028152600160a060020a039091166004820152602401602060405180830381600087803b151561138f57600080fd5b6102c65a03f115156113a057600080fd5b50505060405180511515600114905080611431575060008054600160a060020a0316906305fd22d09033906040516020015260405160e060020a63ffffffff8416028152600160a060020a039091166004820152602401602060405180830381600087803b151561141057600080fd5b6102c65a03f1151561142157600080fd5b5050506040518051151560011490505b151561143c57600080fd5b60008281526006602052604090205460ff161561145857600080fd5b506000908152600660205260409020805460ff1916600190811790915590565b600090815260026020526040902054600160a060020a031690565b60086020526000908152604090205481565b600960209081526000928352604080842090915290825290205481565b600054600160a060020a0316815600a165627a7a72305820b6df1ab47eeeac5735cce75ee269b6ecb49a883ed4b8b91cd39f3b710846b3e70029",
  "source": "pragma solidity ^0.4.17;\n\n\n\nimport \"./withAccessManager.sol\";\n\n/// @title DataManager contract\ncontract DataManager is withAccessManager {\n    // FIELDS\n    uint256 public version = 1;\n    // currency symbol => currency erc20 contract address\n    mapping(bytes32 => address) public currencyAddresses;\n    // currency address => currency symbol\n    mapping(address => bytes32) public currencySymbols;\n    // clientId => depositAddress\n    mapping(bytes32 => address) public depositAddresses;\n    // depositAddress => clientId\n    mapping(address => bytes32) public depositClientIds;\n    // blockchainActionId => boolean \n    mapping(bytes32 => bool) public actionStatus;\n    // blockchainActionData\n    struct actionData {\n        bytes32 currency;\n        uint amount;\n        bytes32 accountId;\n        address to;\n        uint pptFee;\n    }\n    // blockchainActionId => actionData\n    mapping(bytes32 => actionData) public blockchainActionIdData;\n    \n    //actionId => invoiceId\n    mapping(bytes32 => bytes32) public actionIdToInvoiceId;\n    // invoice provider company data\n    struct providerCompany {\n        //bool isEnabled;\n        bytes32 companyNumber;\n        bytes32 companyName;\n        bytes2 countryCode;\n    }\n    // companyCode => companyNumber => providerId\n    mapping(bytes2 => mapping(bytes32 => bytes32)) public providerData;\n    // providedId => providerCompany\n    mapping(bytes32 => providerCompany) public providerCompanyData;\n    // crowdsale invoiceDetails\n    struct _invoiceDetails {\n        bytes2 invoiceCountryCode;\n        bytes32 invoiceCompanyNumber;\n        bytes32 invoiceCompanyName;\n        bytes32 invoiceNumber;\n    }\n    // crowdsale invoiceData\n    struct invoiceData {\n        bytes32 providerUserId;\n        bytes32 invoiceCompanyName;\n    }\n\n    // country code => company number => invoice number => invoice data\n    mapping(bytes2 => mapping(bytes32 => mapping(bytes32 => invoiceData))) public invoices;\n\n    // NON-CONSTANT METHODS\n\n    /** @dev Constructor that sets the server when contract is deployed.\n      * @param _accessManager The address to set as the access manager.\n      */\n    function DataManager(address _accessManager) public withAccessManager(_accessManager) {\n        \n    }\n\n    function setDepositAddress(address _depositAddress, bytes32 _clientId) public onlyServerOrOnlyPopulous returns (bool success) {\n        if (depositAddresses[_clientId] != 0x0 && depositClientIds[_depositAddress] != 0x0){\n            return false;\n        } else {\n            depositAddresses[_clientId] = _depositAddress;\n            depositClientIds[_depositAddress] = _clientId;\n            return true;\n        }\n    }\n\n    function setCurrency(address _currencyAddress, bytes32 _currencySymbol) public onlyServerOrOnlyPopulous returns (bool success) {\n        if (currencySymbols[_currencyAddress] != 0x0 && currencyAddresses[_currencySymbol] != 0x0){\n            return false;\n        } else {\n            currencySymbols[_currencyAddress] = _currencySymbol;\n            currencyAddresses[_currencySymbol] = _currencyAddress;\n            assert(currencyAddresses[_currencySymbol] != 0x0 && currencySymbols[_currencyAddress] != 0x0);\n            return true;\n        }\n    }\n\n    /** @dev set blockchain action data in struct \n      * @param _blockchainActionId the blockchain action id\n      * @param currency the token currency symbol\n      * @param accountId the clientId\n      * @param to the blockchain address or smart contract address used in the transaction\n      * @param amount the amount of tokens in the transaction\n      */\n    function setBlockchainActionData(\n        bytes32 _blockchainActionId, bytes32 currency, \n        uint amount, bytes32 accountId, address to, uint pptFee) \n        public\n        onlyServerOrOnlyPopulous \n        returns (bool success)\n    {\n        require(actionStatus[_blockchainActionId] == true);\n        blockchainActionIdData[_blockchainActionId].currency = currency;\n        blockchainActionIdData[_blockchainActionId].amount = amount;\n        blockchainActionIdData[_blockchainActionId].accountId = accountId;\n        blockchainActionIdData[_blockchainActionId].to = to;\n        blockchainActionIdData[_blockchainActionId].pptFee = pptFee;\n        return true;\n    }\n\n    function upgradeDepositAddress(bytes32 _blockchainActionId, bytes32 _clientId, address _depositContract) public\n      onlyServerOrOnlyPopulous\n      returns (bool success)\n    {\n        require(actionStatus[_blockchainActionId] == false);\n        // check that client does not already have a stored deposit address\n        require(depositAddresses[_clientId] == 0x0 && depositAddresses[_clientId] != _depositContract);\n        // DepositContract(_clientId).clientId() == _clientId\n        // store the deposit address for the client Id\n        //DepositContract(_clientId, address(AM));\n        depositAddresses[_clientId] = _depositContract;\n        // check that deposit address has been stored for client Id\n        assert(depositAddresses[_clientId] != 0x0);\n        // set blockchain action data\n        actionStatus[_blockchainActionId] = true;\n        blockchainActionIdData[_blockchainActionId].accountId = _clientId;\n        blockchainActionIdData[_blockchainActionId].to = depositAddresses[_clientId];\n        return true;\n    }\n\n    function setActionStatus(bytes32 _blockchainActionId) public onlyServerOrOnlyPopulous returns (bool success) {\n        require(actionStatus[_blockchainActionId] == false);\n        actionStatus[_blockchainActionId] = true;\n        return true;\n    }\n\n    /* function setProviderStatus(bytes32 _userId, bool _status) public onlyServerOrOnlyPopulous returns (bool success) {\n        require(providerCompanyData[_userId].companyNumber != 0x0);\n        providerCompanyData[_userId].isEnabled = _status;\n        return true;\n    } */\n\n    function setInvoice(\n        bytes32 _providerUserId, bytes2 _invoiceCountryCode, \n        bytes32 _invoiceCompanyNumber, bytes32 _invoiceCompanyName, bytes32 _invoiceNumber) \n        public \n        onlyServerOrOnlyPopulous \n        returns (bool success) \n    {   \n        bytes32 providerUserId; \n        bytes32 companyName;\n        (providerUserId, companyName) = getInvoice(_invoiceCountryCode, _invoiceCompanyNumber, _invoiceNumber);\n        require(providerUserId == 0x0);\n        // country code => company number => invoice number => invoice data\n        invoices[_invoiceCountryCode][_invoiceCompanyNumber][_invoiceNumber].providerUserId = _providerUserId;\n        invoices[_invoiceCountryCode][_invoiceCompanyNumber][_invoiceNumber].invoiceCompanyName = _invoiceCompanyName;\n        \n        assert(\n            invoices[_invoiceCountryCode][_invoiceCompanyNumber][_invoiceNumber].providerUserId != 0x0 && \n            invoices[_invoiceCountryCode][_invoiceCompanyNumber][_invoiceNumber].invoiceCompanyName != 0x0\n        );\n        return true;\n    }\n    \n    /** @dev Add a new invoice provider to the platform  \n      * @param _blockchainActionId the blockchain action id\n      * @param _userId the user id of the provider\n      * @param _companyNumber the providers company number\n      * @param _companyName the providers company name\n      * @param _countryCode the providers country code\n      */\n    function setProvider(\n        bytes32 _blockchainActionId, bytes32 _userId, bytes32 _companyNumber, \n        bytes32 _companyName, bytes2 _countryCode) \n        public \n        onlyServerOrOnlyPopulous\n        returns (bool success)\n    {   \n        require(actionStatus[_blockchainActionId] == false);\n        require(providerCompanyData[_userId].companyNumber == 0x0);\n        providerCompanyData[_userId].countryCode = _countryCode;\n        providerCompanyData[_userId].companyName = _companyName;\n        providerCompanyData[_userId].companyNumber = _companyNumber;\n        //providerCompanyData[_userId].isEnabled = true;\n\n        providerData[_countryCode][_companyNumber] = _userId;\n        \n        actionStatus[_blockchainActionId] = true;\n        setBlockchainActionData(_blockchainActionId, 0x0, 0, _userId, 0x0, 0);\n        return true;\n    }\n\n    // CONSTANT METHODS\n\n    function getDepositAddress(bytes32 _clientId) public view returns (address clientDepositAddress){\n        return depositAddresses[_clientId];\n    }\n\n    function getClientIdWithDepositAddress(address _depositContract) public view returns (bytes32 depositClientId){\n        return depositClientIds[_depositContract];\n    }\n\n    function getCurrency(bytes32 _currencySymbol) public view returns (address currencyAddress) {\n        return currencyAddresses[_currencySymbol];\n    }\n   \n    function getCurrencySymbol(address _currencyAddress) public view returns (bytes32 currencySymbol) {\n        return currencySymbols[_currencyAddress];\n    }\n\n        /** @dev Get the blockchain action Id Data for a blockchain Action id\n      * @param _blockchainActionId the blockchain action id\n      * @return bytes32 currency\n      * @return uint amount\n      * @return bytes32 accountId\n      * @return address to\n      */\n    function getBlockchainActionIdData(bytes32 _blockchainActionId) public view \n    returns (bytes32 _currency, uint _amount, bytes32 _accountId, address _to) \n    {\n        require(actionStatus[_blockchainActionId] == true);\n\n        return (blockchainActionIdData[_blockchainActionId].currency, \n        blockchainActionIdData[_blockchainActionId].amount,\n        blockchainActionIdData[_blockchainActionId].accountId,\n        blockchainActionIdData[_blockchainActionId].to);\n    }\n\n    /** @dev Get the bool status of a blockchain Action id\n      * @param _blockchainActionId the blockchain action id\n      * @return bool actionStatus\n      */\n    function getActionStatus(bytes32 _blockchainActionId) public view returns (bool _blockchainActionStatus) {\n        return actionStatus[_blockchainActionId];\n    }\n\n    /** @dev Gets the details of an invoice with the country code, company number and invocie number.\n      * @param _invoiceCountryCode The country code.\n      * @param _invoiceCompanyNumber The company number.\n      * @param _invoiceNumber The invoice number\n      * @return providerUserId The invoice provider user Id\n      * @return invoiceCompanyName the invoice company name\n      */\n    function getInvoice(bytes2 _invoiceCountryCode, bytes32 _invoiceCompanyNumber, bytes32 _invoiceNumber) \n        public \n        view \n        returns (bytes32 providerUserId, bytes32 invoiceCompanyName) \n    {   \n        bytes32 _providerUserId = invoices[_invoiceCountryCode][_invoiceCompanyNumber][_invoiceNumber].providerUserId;\n        bytes32 _invoiceCompanyName = invoices[_invoiceCountryCode][_invoiceCompanyNumber][_invoiceNumber].invoiceCompanyName;\n        //require(_providerUserId != 0x0 && _invoiceCompanyName != 0x0);\n        return (_providerUserId, _invoiceCompanyName);\n    }\n\n    /** @dev Gets the details of an invoice provider with the country code and company number.\n      * @param _providerCountryCode The country code.\n      * @param _providerCompanyNumber The company number.\n      * @return isEnabled The boolean value true/false indicating whether invoice provider is enabled or not\n      * @return providerId The invoice provider user Id\n      * @return companyName the invoice company name\n      */\n    function getProviderByCountryCodeCompanyNumber(bytes2 _providerCountryCode, bytes32 _providerCompanyNumber) \n        public \n        view \n        returns (bytes32 providerId, bytes32 companyName) \n    {\n        bytes32 providerUserId = providerData[_providerCountryCode][_providerCompanyNumber];\n\n        return (providerUserId, \n        providerCompanyData[providerUserId].companyName);\n        //providerCompanyData[providerUserId].isEnabled);\n    }\n\n    /** @dev Gets the details of an invoice provider with the providers user Id.\n      * @param _providerUserId The provider user Id.\n      * @return countryCode The invoice provider country code\n      * @return companyName the invoice company name\n      */\n    function getProviderByUserId(bytes32 _providerUserId) public view \n        returns (bytes2 countryCode, bytes32 companyName, bytes32 companyNumber) \n    {\n        return (providerCompanyData[_providerUserId].countryCode,\n        providerCompanyData[_providerUserId].companyName,\n        providerCompanyData[_providerUserId].companyNumber);\n    }\n    \n    \n    /**\n    function getProviderStatus(bytes32 _userId) public view returns (bool isEnabled) {\n        return providerCompanyData[_userId].isEnabled;\n    } */\n\n    function getVersion() public view returns (uint256 _version) {\n        return version;\n    }\n\n}",
  "sourcePath": "/Users/najienka/Desktop/populous-smartcontracts/contracts/DataManager.sol",
  "schemaVersion": "1.0.0",
  "updatedAt": "2018-06-12T10:52:18.500Z"
}