{
  "contractName": "DataManager",
  "abi": [
    {
      "constant": false,
      "inputs": [
        {
          "name": "_accessManager",
          "type": "address"
        }
      ],
      "name": "updateAccessManager",
      "outputs": [],
      "payable": false,
      "stateMutability": "nonpayable",
      "type": "function"
    },
    {
      "constant": true,
      "inputs": [],
      "name": "getVersion",
      "outputs": [
        {
          "name": "_version",
          "type": "uint256"
        }
      ],
      "payable": false,
      "stateMutability": "view",
      "type": "function"
    },
    {
      "constant": false,
      "inputs": [
        {
          "name": "_blockchainActionId",
          "type": "bytes32"
        },
        {
          "name": "_depositAddress",
          "type": "address"
        },
        {
          "name": "_clientId",
          "type": "bytes32"
        }
      ],
      "name": "setDepositAddress",
      "outputs": [
        {
          "name": "success",
          "type": "bool"
        }
      ],
      "payable": false,
      "stateMutability": "nonpayable",
      "type": "function"
    },
    {
      "constant": true,
      "inputs": [
        {
          "name": "_blockchainActionId",
          "type": "bytes32"
        }
      ],
      "name": "getBlockchainActionIdData",
      "outputs": [
        {
          "name": "_currency",
          "type": "bytes32"
        },
        {
          "name": "_amount",
          "type": "uint256"
        },
        {
          "name": "_accountId",
          "type": "bytes32"
        },
        {
          "name": "_to",
          "type": "address"
        }
      ],
      "payable": false,
      "stateMutability": "view",
      "type": "function"
    },
    {
      "constant": true,
      "inputs": [
        {
          "name": "_providerUserId",
          "type": "bytes32"
        }
      ],
      "name": "getProviderByUserId",
      "outputs": [
        {
          "name": "countryCode",
          "type": "bytes2"
        },
        {
          "name": "companyName",
          "type": "bytes32"
        },
        {
          "name": "companyNumber",
          "type": "bytes32"
        }
      ],
      "payable": false,
      "stateMutability": "view",
      "type": "function"
    },
    {
      "constant": true,
      "inputs": [
        {
          "name": "_clientId",
          "type": "bytes32"
        }
      ],
      "name": "getDepositAddress",
      "outputs": [
        {
          "name": "clientDepositAddress",
          "type": "address"
        }
      ],
      "payable": false,
      "stateMutability": "view",
      "type": "function"
    },
    {
      "constant": true,
      "inputs": [
        {
          "name": "_depositContract",
          "type": "address"
        }
      ],
      "name": "getClientIdWithDepositAddress",
      "outputs": [
        {
          "name": "depositClientId",
          "type": "bytes32"
        }
      ],
      "payable": false,
      "stateMutability": "view",
      "type": "function"
    },
    {
      "constant": true,
      "inputs": [
        {
          "name": "",
          "type": "address"
        }
      ],
      "name": "currencySymbols",
      "outputs": [
        {
          "name": "",
          "type": "bytes32"
        }
      ],
      "payable": false,
      "stateMutability": "view",
      "type": "function"
    },
    {
      "constant": true,
      "inputs": [
        {
          "name": "",
          "type": "address"
        }
      ],
      "name": "depositClientIds",
      "outputs": [
        {
          "name": "",
          "type": "bytes32"
        }
      ],
      "payable": false,
      "stateMutability": "view",
      "type": "function"
    },
    {
      "constant": true,
      "inputs": [],
      "name": "version",
      "outputs": [
        {
          "name": "",
          "type": "uint256"
        }
      ],
      "payable": false,
      "stateMutability": "view",
      "type": "function"
    },
    {
      "constant": true,
      "inputs": [
        {
          "name": "_currencyAddress",
          "type": "address"
        }
      ],
      "name": "getCurrencySymbol",
      "outputs": [
        {
          "name": "currencySymbol",
          "type": "bytes32"
        }
      ],
      "payable": false,
      "stateMutability": "view",
      "type": "function"
    },
    {
      "constant": true,
      "inputs": [
        {
          "name": "_invoiceCountryCode",
          "type": "bytes2"
        },
        {
          "name": "_invoiceCompanyNumber",
          "type": "bytes32"
        },
        {
          "name": "_invoiceNumber",
          "type": "bytes32"
        }
      ],
      "name": "getInvoice",
      "outputs": [
        {
          "name": "providerUserId",
          "type": "bytes32"
        },
        {
          "name": "invoiceCompanyName",
          "type": "bytes32"
        }
      ],
      "payable": false,
      "stateMutability": "view",
      "type": "function"
    },
    {
      "constant": true,
      "inputs": [
        {
          "name": "",
          "type": "bytes32"
        }
      ],
      "name": "blockchainActionIdData",
      "outputs": [
        {
          "name": "currency",
          "type": "bytes32"
        },
        {
          "name": "amount",
          "type": "uint256"
        },
        {
          "name": "accountId",
          "type": "bytes32"
        },
        {
          "name": "to",
          "type": "address"
        },
        {
          "name": "pptFee",
          "type": "uint256"
        }
      ],
      "payable": false,
      "stateMutability": "view",
      "type": "function"
    },
    {
      "constant": true,
      "inputs": [
        {
          "name": "",
          "type": "bytes32"
        }
      ],
      "name": "providerCompanyData",
      "outputs": [
        {
          "name": "companyNumber",
          "type": "bytes32"
        },
        {
          "name": "companyName",
          "type": "bytes32"
        },
        {
          "name": "countryCode",
          "type": "bytes2"
        }
      ],
      "payable": false,
      "stateMutability": "view",
      "type": "function"
    },
    {
      "constant": true,
      "inputs": [
        {
          "name": "",
          "type": "bytes2"
        },
        {
          "name": "",
          "type": "bytes32"
        },
        {
          "name": "",
          "type": "bytes32"
        }
      ],
      "name": "invoices",
      "outputs": [
        {
          "name": "providerUserId",
          "type": "bytes32"
        },
        {
          "name": "invoiceCompanyName",
          "type": "bytes32"
        }
      ],
      "payable": false,
      "stateMutability": "view",
      "type": "function"
    },
    {
      "constant": false,
      "inputs": [
        {
          "name": "_blockchainActionId",
          "type": "bytes32"
        },
        {
          "name": "_providerUserId",
          "type": "bytes32"
        },
        {
          "name": "_invoiceCountryCode",
          "type": "bytes2"
        },
        {
          "name": "_invoiceCompanyNumber",
          "type": "bytes32"
        },
        {
          "name": "_invoiceCompanyName",
          "type": "bytes32"
        },
        {
          "name": "_invoiceNumber",
          "type": "bytes32"
        }
      ],
      "name": "setInvoice",
      "outputs": [
        {
          "name": "success",
          "type": "bool"
        }
      ],
      "payable": false,
      "stateMutability": "nonpayable",
      "type": "function"
    },
    {
      "constant": false,
      "inputs": [
        {
          "name": "_blockchainActionId",
          "type": "bytes32"
        },
        {
          "name": "currency",
          "type": "bytes32"
        },
        {
          "name": "amount",
          "type": "uint256"
        },
        {
          "name": "accountId",
          "type": "bytes32"
        },
        {
          "name": "to",
          "type": "address"
        },
        {
          "name": "pptFee",
          "type": "uint256"
        }
      ],
      "name": "setBlockchainActionData",
      "outputs": [
        {
          "name": "success",
          "type": "bool"
        }
      ],
      "payable": false,
      "stateMutability": "nonpayable",
      "type": "function"
    },
    {
      "constant": false,
      "inputs": [
        {
          "name": "_blockchainActionId",
          "type": "bytes32"
        },
        {
          "name": "_currencyAddress",
          "type": "address"
        },
        {
          "name": "_currencySymbol",
          "type": "bytes32"
        }
      ],
      "name": "_setCurrency",
      "outputs": [
        {
          "name": "success",
          "type": "bool"
        }
      ],
      "payable": false,
      "stateMutability": "nonpayable",
      "type": "function"
    },
    {
      "constant": true,
      "inputs": [
        {
          "name": "",
          "type": "bytes32"
        }
      ],
      "name": "actionStatus",
      "outputs": [
        {
          "name": "",
          "type": "bool"
        }
      ],
      "payable": false,
      "stateMutability": "view",
      "type": "function"
    },
    {
      "constant": false,
      "inputs": [
        {
          "name": "_blockchainActionId",
          "type": "bytes32"
        },
        {
          "name": "_userId",
          "type": "bytes32"
        },
        {
          "name": "_companyNumber",
          "type": "bytes32"
        },
        {
          "name": "_companyName",
          "type": "bytes32"
        },
        {
          "name": "_countryCode",
          "type": "bytes2"
        }
      ],
      "name": "setProvider",
      "outputs": [
        {
          "name": "success",
          "type": "bool"
        }
      ],
      "payable": false,
      "stateMutability": "nonpayable",
      "type": "function"
    },
    {
      "constant": true,
      "inputs": [
        {
          "name": "",
          "type": "bytes32"
        }
      ],
      "name": "currencyAddresses",
      "outputs": [
        {
          "name": "",
          "type": "address"
        }
      ],
      "payable": false,
      "stateMutability": "view",
      "type": "function"
    },
    {
      "constant": false,
      "inputs": [
        {
          "name": "_blockchainActionId",
          "type": "bytes32"
        },
        {
          "name": "_clientId",
          "type": "bytes32"
        },
        {
          "name": "_depositContract",
          "type": "address"
        }
      ],
      "name": "upgradeDepositAddress",
      "outputs": [
        {
          "name": "success",
          "type": "bool"
        }
      ],
      "payable": false,
      "stateMutability": "nonpayable",
      "type": "function"
    },
    {
      "constant": true,
      "inputs": [
        {
          "name": "_currencyAddress",
          "type": "address"
        }
      ],
      "name": "getCurrencyDetails",
      "outputs": [
        {
          "name": "_symbol",
          "type": "bytes32"
        },
        {
          "name": "_name",
          "type": "bytes32"
        },
        {
          "name": "_decimals",
          "type": "uint8"
        }
      ],
      "payable": false,
      "stateMutability": "view",
      "type": "function"
    },
    {
      "constant": false,
      "inputs": [
        {
          "name": "_blockchainActionId",
          "type": "bytes32"
        },
        {
          "name": "_userId",
          "type": "bytes32"
        },
        {
          "name": "_companyNumber",
          "type": "bytes32"
        },
        {
          "name": "_companyName",
          "type": "bytes32"
        },
        {
          "name": "_countryCode",
          "type": "bytes2"
        }
      ],
      "name": "_setProvider",
      "outputs": [
        {
          "name": "success",
          "type": "bool"
        }
      ],
      "payable": false,
      "stateMutability": "nonpayable",
      "type": "function"
    },
    {
      "constant": true,
      "inputs": [
        {
          "name": "_blockchainActionId",
          "type": "bytes32"
        }
      ],
      "name": "getActionStatus",
      "outputs": [
        {
          "name": "_blockchainActionStatus",
          "type": "bool"
        }
      ],
      "payable": false,
      "stateMutability": "view",
      "type": "function"
    },
    {
      "constant": true,
      "inputs": [
        {
          "name": "_providerCountryCode",
          "type": "bytes2"
        },
        {
          "name": "_providerCompanyNumber",
          "type": "bytes32"
        }
      ],
      "name": "getProviderByCountryCodeCompanyNumber",
      "outputs": [
        {
          "name": "providerId",
          "type": "bytes32"
        },
        {
          "name": "companyName",
          "type": "bytes32"
        }
      ],
      "payable": false,
      "stateMutability": "view",
      "type": "function"
    },
    {
      "constant": true,
      "inputs": [
        {
          "name": "",
          "type": "bytes32"
        }
      ],
      "name": "depositAddresses",
      "outputs": [
        {
          "name": "",
          "type": "address"
        }
      ],
      "payable": false,
      "stateMutability": "view",
      "type": "function"
    },
    {
      "constant": false,
      "inputs": [
        {
          "name": "_blockchainActionId",
          "type": "bytes32"
        },
        {
          "name": "_currencyAddress",
          "type": "address"
        },
        {
          "name": "_currencySymbol",
          "type": "bytes32"
        }
      ],
      "name": "setCurrency",
      "outputs": [
        {
          "name": "success",
          "type": "bool"
        }
      ],
      "payable": false,
      "stateMutability": "nonpayable",
      "type": "function"
    },
    {
      "constant": false,
      "inputs": [
        {
          "name": "_blockchainActionId",
          "type": "bytes32"
        },
        {
          "name": "_clientId",
          "type": "bytes32"
        },
        {
          "name": "_depositContract",
          "type": "address"
        }
      ],
      "name": "_setDepositAddress",
      "outputs": [
        {
          "name": "success",
          "type": "bool"
        }
      ],
      "payable": false,
      "stateMutability": "nonpayable",
      "type": "function"
    },
    {
      "constant": true,
      "inputs": [
        {
          "name": "_currencySymbol",
          "type": "bytes32"
        }
      ],
      "name": "getCurrency",
      "outputs": [
        {
          "name": "currencyAddress",
          "type": "address"
        }
      ],
      "payable": false,
      "stateMutability": "view",
      "type": "function"
    },
    {
      "constant": true,
      "inputs": [
        {
          "name": "",
          "type": "bytes32"
        }
      ],
      "name": "actionIdToInvoiceId",
      "outputs": [
        {
          "name": "",
          "type": "bytes32"
        }
      ],
      "payable": false,
      "stateMutability": "view",
      "type": "function"
    },
    {
      "constant": true,
      "inputs": [
        {
          "name": "",
          "type": "bytes2"
        },
        {
          "name": "",
          "type": "bytes32"
        }
      ],
      "name": "providerData",
      "outputs": [
        {
          "name": "",
          "type": "bytes32"
        }
      ],
      "payable": false,
      "stateMutability": "view",
      "type": "function"
    },
    {
      "constant": true,
      "inputs": [],
      "name": "AM",
      "outputs": [
        {
          "name": "",
          "type": "address"
        }
      ],
      "payable": false,
      "stateMutability": "view",
      "type": "function"
    },
    {
      "inputs": [
        {
          "name": "_accessManager",
          "type": "address"
        },
        {
          "name": "_version",
          "type": "uint256"
        }
      ],
      "payable": false,
      "stateMutability": "nonpayable",
      "type": "constructor"
    }
  ],
  "bytecode": "0x6060604052341561000f57600080fd5b604051604080611afa8339810160405280805191906020018051600b8054600160a060020a03909516600160a060020a0319909516949094179093555050600055611a9b8061005f6000396000f300606060405236156101855763ffffffff60e060020a60003504166302ab72c4811461018a5780630d8e6e2c146101ab5780630e8ba167146101d0578063120ab58c146102095780631529905c146102535780632a01a451146102985780632cc8faea146102ca57806334791f81146102e957806345d9ff7e1461030857806354fd4d5014610327578063554c9b6a1461033a57806355a6db821461035957806359d334b2146103975780636fa2a3c7146103e7578063716017941461042b578063880a8e541461045157806392c4b867146104805780639cd1b53f146104ae578063a533ad02146104d3578063a5c51a00146104e9578063a5f43a5114610515578063a85eb3341461052b578063b7e72ae614610550578063b86b663b14610596578063bea0897c146105c2578063beae439d146105d8578063c3751fd8146105fb578063c7062df314610611578063c9939d0e14610636578063d383b80d1461065b578063ddd6702514610671578063df2676af14610687578063f7f01b4b146106aa575b600080fd5b341561019557600080fd5b6101a9600160a060020a03600435166106bd565b005b34156101b657600080fd5b6101be610761565b60405190815260200160405180910390f35b34156101db57600080fd5b6101f5600435600160a060020a0360243516604435610767565b604051901515815260200160405180910390f35b341561021457600080fd5b61021f60043561094a565b6040519384526020840192909252604080840191909152600160a060020a0390911660608301526080909101905180910390f35b341561025e57600080fd5b6102696004356109a5565b604051600160f060020a0319909316835260208301919091526040808301919091526060909101905180910390f35b34156102a357600080fd5b6102ae6004356109ca565b604051600160a060020a03909116815260200160405180910390f35b34156102d557600080fd5b6101be600160a060020a03600435166109e5565b34156102f457600080fd5b6101be600160a060020a0360043516610a00565b341561031357600080fd5b6101be600160a060020a0360043516610a12565b341561033257600080fd5b6101be610a24565b341561034557600080fd5b6101be600160a060020a0360043516610a2a565b341561036457600080fd5b61037f600160f060020a031960043516602435604435610a45565b60405191825260208201526040908101905180910390f35b34156103a257600080fd5b6103ad600435610a81565b6040519485526020850193909352604080850192909252600160a060020a03166060840152608083019190915260a0909101905180910390f35b34156103f257600080fd5b6103fd600435610ab9565b6040519283526020830191909152600160f060020a0319166040808301919091526060909101905180910390f35b341561043657600080fd5b61037f600160f060020a031960043516602435604435610ae0565b341561045c57600080fd5b6101f5600435602435600160f060020a03196044351660643560843560a435610b0a565b341561048b57600080fd5b6101f5600435602435604435606435600160a060020a036084351660a435610ce0565b34156104b957600080fd5b6101f5600435600160a060020a0360243516604435610e68565b34156104de57600080fd5b6101f560043561100e565b34156104f457600080fd5b6101f5600435602435604435606435600160f060020a031960843516611023565b341561052057600080fd5b6102ae600435611201565b341561053657600080fd5b6101f5600435602435600160a060020a036044351661121c565b341561055b57600080fd5b61056f600160a060020a03600435166113f9565b604051928352602083019190915260ff166040808301919091526060909101905180910390f35b34156105a157600080fd5b6101f5600435602435604435606435600160f060020a03196084351661152d565b34156105cd57600080fd5b6101f56004356116ba565b34156105e357600080fd5b61037f600160f060020a0319600435166024356116cf565b341561060657600080fd5b6102ae60043561170a565b341561061c57600080fd5b6101f5600435600160a060020a0360243516604435611725565b341561064157600080fd5b6101f5600435602435600160a060020a03604435166118f4565b341561066657600080fd5b6102ae600435611a16565b341561067c57600080fd5b6101be600435611a31565b341561069257600080fd5b6101be600160f060020a031960043516602435611a43565b34156106b557600080fd5b6102ae611a60565b600b54600160a060020a031663fda089583360006040516020015260405160e060020a63ffffffff8416028152600160a060020a039091166004820152602401602060405180830381600087803b151561071657600080fd5b6102c65a03f1151561072757600080fd5b50505060405180511515600114905061073f57600080fd5b600b8054600160a060020a031916600160a060020a0392909216919091179055565b60005490565b600b54600090600160a060020a031663fda0895833836040516020015260405160e060020a63ffffffff8416028152600160a060020a039091166004820152602401602060405180830381600087803b15156107c257600080fd5b6102c65a03f115156107d357600080fd5b505050604051805115156001149050806108625750600b54600160a060020a03166305fd22d03360006040516020015260405160e060020a63ffffffff8416028152600160a060020a039091166004820152602401602060405180830381600087803b151561084157600080fd5b6102c65a03f1151561085257600080fd5b5050506040518051151560011490505b151561086d57600080fd5b60008481526005602052604090205460ff161561088957600080fd5b600082815260036020526040902054600160a060020a03161580156108c45750600160a060020a038316600090815260046020526040902054155b15156108cf57600080fd5b60008281526003602081815260408084208054600160a060020a031916600160a060020a0389811691821783559086526004845291852087905593869052919052905416158015906109385750600160a060020a03831660009081526004602052604090205415155b151561094057fe5b5060019392505050565b60008181526005602052604081205481908190819060ff16151560011461097057600080fd5b5050506000918252506006602052604090208054600182015460028301546003909301549193909291600160a060020a031690565b600090815260096020526040902060028101546001820154915460f060020a90910292565b600090815260036020526040902054600160a060020a031690565b600160a060020a031660009081526004602052604090205490565b60026020526000908152604090205481565b60046020526000908152604090205481565b60005481565b600160a060020a031660009081526002602052604090205490565b600160f060020a0319929092166000908152600a6020908152604080832093835292815282822093825292909252902080546001909101549091565b60066020526000908152604090208054600182015460028301546003840154600490940154929391929091600160a060020a03169085565b60096020526000908152604090208054600182015460029092015490919060f060020a0283565b600a6020908152600093845260408085208252928452828420905282529020805460019091015482565b600b5460009081908190600160a060020a031663fda0895833836040516020015260405160e060020a63ffffffff8416028152600160a060020a039091166004820152602401602060405180830381600087803b1515610b6957600080fd5b6102c65a03f11515610b7a57600080fd5b50505060405180511515600114905080610c095750600b54600160a060020a03166305fd22d03360006040516020015260405160e060020a63ffffffff8416028152600160a060020a039091166004820152602401602060405180830381600087803b1515610be857600080fd5b6102c65a03f11515610bf957600080fd5b5050506040518051151560011490505b1515610c1457600080fd5b60008981526005602052604090205460ff1615610c3057600080fd5b610c3b878786610a45565b909250905081158015610c4c575080155b1515610c5757600080fd5b600160f060020a031987166000908152600a60209081526040808320898452825280832087845290915290208881556001018590558715801590610cc95750600160f060020a031987166000908152600a60209081526040808320898452825280832087845290915290206001015415155b1515610cd157fe5b50600198975050505050505050565b600b54600090600160a060020a031663fda0895833836040516020015260405160e060020a63ffffffff8416028152600160a060020a039091166004820152602401602060405180830381600087803b1515610d3b57600080fd5b6102c65a03f11515610d4c57600080fd5b50505060405180511515600114905080610ddb5750600b54600160a060020a03166305fd22d03360006040516020015260405160e060020a63ffffffff8416028152600160a060020a039091166004820152602401602060405180830381600087803b1515610dba57600080fd5b6102c65a03f11515610dcb57600080fd5b5050506040518051151560011490505b1515610de657600080fd5b60008781526005602052604090205460ff1615610e0257600080fd5b5060009586526006602090815260408088209687556001808801969096556002870194909455600386018054600160a060020a031916600160a060020a03949094169390931790925560049094019390935560059092529120805460ff19168217905590565b600b54600090600160a060020a031663fda0895833836040516020015260405160e060020a63ffffffff8416028152600160a060020a039091166004820152602401602060405180830381600087803b1515610ec357600080fd5b6102c65a03f11515610ed457600080fd5b50505060405180511515600114905080610f635750600b54600160a060020a03166305fd22d03360006040516020015260405160e060020a63ffffffff8416028152600160a060020a039091166004820152602401602060405180830381600087803b1515610f4257600080fd5b6102c65a03f11515610f5357600080fd5b5050506040518051151560011490505b1515610f6e57600080fd5b60008481526005602052604090205460ff1615610f8a57600080fd5b600160a060020a038084166000818152600260209081526040808320879055868352600190915290208054600160a060020a031916909117908190551615801590610fec5750600160a060020a03831660009081526002602052604090205415155b1515610ff457fe5b61100384836000808781610ce0565b506001949350505050565b60056020526000908152604090205460ff1681565b600b54600090600160a060020a031663fda0895833836040516020015260405160e060020a63ffffffff8416028152600160a060020a039091166004820152602401602060405180830381600087803b151561107e57600080fd5b6102c65a03f1151561108f57600080fd5b5050506040518051151560011490508061111e5750600b54600160a060020a03166305fd22d03360006040516020015260405160e060020a63ffffffff8416028152600160a060020a039091166004820152602401602060405180830381600087803b15156110fd57600080fd5b6102c65a03f1151561110e57600080fd5b5050506040518051151560011490505b151561112957600080fd5b60008681526005602052604090205460ff161561114557600080fd5b600085815260096020526040902054158015611180575060008581526009602052604090206002015460f060020a02600160f060020a031916155b801561119b5750600085815260096020526040902060010154155b15156111a657600080fd5b50600084815260096020908152604080832060028101805461ffff191660f060020a8704179055600180820196909655869055600160f060020a03199093168252600881528282209482529390935290912091909155919050565b600160205260009081526040902054600160a060020a031681565b600b54600090600160a060020a031663fda0895833836040516020015260405160e060020a63ffffffff8416028152600160a060020a039091166004820152602401602060405180830381600087803b151561127757600080fd5b6102c65a03f1151561128857600080fd5b505050604051805115156001149050806113175750600b54600160a060020a03166305fd22d03360006040516020015260405160e060020a63ffffffff8416028152600160a060020a039091166004820152602401602060405180830381600087803b15156112f657600080fd5b6102c65a03f1151561130757600080fd5b5050506040518051151560011490505b151561132257600080fd5b60008481526005602052604090205460ff161561133e57600080fd5b600083815260036020526040902054600160a060020a03161561136057600080fd5b60008381526003602081815260408084208054600160a060020a031916600160a060020a0388811691821783558187526004855292862089905594889052929091529054161480156113c95750600160a060020a03821660009081526004602052604090205483145b15156113d157fe5b60008381526003602052604081205461100391869181908790600160a060020a031682610ce0565b600080600083600160a060020a03166395d89b416000604051602001526040518163ffffffff1660e060020a028152600401602060405180830381600087803b151561144457600080fd5b6102c65a03f1151561145557600080fd5b5050506040518051905084600160a060020a03166306fdde036000604051602001526040518163ffffffff1660e060020a028152600401602060405180830381600087803b15156114a557600080fd5b6102c65a03f115156114b657600080fd5b5050506040518051905085600160a060020a031663313ce5676000604051602001526040518163ffffffff1660e060020a028152600401602060405180830381600087803b151561150657600080fd5b6102c65a03f1151561151757600080fd5b5050506040518051929791965091945092505050565b600b54600090600160a060020a031663fda0895833836040516020015260405160e060020a63ffffffff8416028152600160a060020a039091166004820152602401602060405180830381600087803b151561158857600080fd5b6102c65a03f1151561159957600080fd5b505050604051805115156001149050806116285750600b54600160a060020a03166305fd22d03360006040516020015260405160e060020a63ffffffff8416028152600160a060020a039091166004820152602401602060405180830381600087803b151561160757600080fd5b6102c65a03f1151561161857600080fd5b5050506040518051151560011490505b151561163357600080fd5b60008681526005602052604090205460ff161561164f57600080fd5b600085815260096020908152604080832060028101805461ffff191660f060020a880417905560018101879055879055600160f060020a0319851683526008825280832087845290915281208690556116ad90879080888180610ce0565b5060019695505050505050565b60009081526005602052604090205460ff1690565b600160f060020a0319821660009081526008602090815260408083208484528252808320548084526009909252909120600101549250929050565b600360205260009081526040902054600160a060020a031681565b600b54600090600160a060020a031663fda0895833836040516020015260405160e060020a63ffffffff8416028152600160a060020a039091166004820152602401602060405180830381600087803b151561178057600080fd5b6102c65a03f1151561179157600080fd5b505050604051805115156001149050806118205750600b54600160a060020a03166305fd22d03360006040516020015260405160e060020a63ffffffff8416028152600160a060020a039091166004820152602401602060405180830381600087803b15156117ff57600080fd5b6102c65a03f1151561181057600080fd5b5050506040518051151560011490505b151561182b57600080fd5b60008481526005602052604090205460ff161561184757600080fd5b600160a060020a0383166000908152600260205260409020541580156118825750600082815260016020526040902054600160a060020a0316155b151561188d57600080fd5b600160a060020a038084166000818152600260209081526040808320879055868352600190915290208054600160a060020a0319169091179081905516158015906109385750600160a060020a038316600090815260026020526040902054151561094057fe5b600b54600090600160a060020a031663fda0895833836040516020015260405160e060020a63ffffffff8416028152600160a060020a039091166004820152602401602060405180830381600087803b151561194f57600080fd5b6102c65a03f1151561196057600080fd5b505050604051805115156001149050806119ef5750600b54600160a060020a03166305fd22d03360006040516020015260405160e060020a63ffffffff8416028152600160a060020a039091166004820152602401602060405180830381600087803b15156119ce57600080fd5b6102c65a03f115156119df57600080fd5b5050506040518051151560011490505b15156119fa57600080fd5b60008481526005602052604090205460ff161561136057600080fd5b600090815260016020526040902054600160a060020a031690565b60076020526000908152604090205481565b600860209081526000928352604080842090915290825290205481565b600b54600160a060020a0316815600a165627a7a72305820bf00d3d38cd69418aeeca99caa1a4d9e069405bbcff563e0c2a6488ae0c996e70029",
  "source": "pragma solidity ^0.4.17;\n\n\nimport \"./iERC20Token.sol\";\nimport \"./CurrencyToken.sol\";\nimport \"./withAccessManager.sol\";\nimport \"./iDataManager.sol\";\n\n/// @title DataManager contract\ncontract DataManager is iDataManager, withAccessManager {\n    \n\n    // NON-CONSTANT METHODS\n\n    /** @dev Constructor that sets the server when contract is deployed.\n      * @param _accessManager The address to set as the access manager.\n      */\n    function DataManager(address _accessManager, uint256 _version) public withAccessManager(_accessManager) {\n        version = _version;\n    }\n\n    /** @dev Adds a new deposit smart contract address linked to a client id\n      * @param _depositAddress the deposit smart contract address\n      * @param _clientId the client id\n      * @return success true/false denoting successful function call\n      */\n    function setDepositAddress(bytes32 _blockchainActionId, address _depositAddress, bytes32 _clientId) public onlyServerOrOnlyPopulous returns (bool success) {\n        require(actionStatus[_blockchainActionId] == false);\n        require(depositAddresses[_clientId] == 0x0 && depositClientIds[_depositAddress] == 0x0);\n        depositAddresses[_clientId] = _depositAddress;\n        depositClientIds[_depositAddress] = _clientId;\n        assert(depositAddresses[_clientId] != 0x0 && depositClientIds[_depositAddress] != 0x0);\n        return true;\n    }\n\n    /** @dev Adds a new currency sumbol and smart contract address  \n      * @param _currencyAddress the currency smart contract address\n      * @param _currencySymbol the currency symbol\n      * @return success true/false denoting successful function call\n      */\n    function setCurrency(bytes32 _blockchainActionId, address _currencyAddress, bytes32 _currencySymbol) public onlyServerOrOnlyPopulous returns (bool success) {\n        require(actionStatus[_blockchainActionId] == false);\n        require(currencySymbols[_currencyAddress] == 0x0 && currencyAddresses[_currencySymbol] == 0x0);\n        currencySymbols[_currencyAddress] = _currencySymbol;\n        currencyAddresses[_currencySymbol] = _currencyAddress;\n        assert(currencyAddresses[_currencySymbol] != 0x0 && currencySymbols[_currencyAddress] != 0x0);\n        return true;\n    }\n\n    /** @dev Updates a currency sumbol and smart contract address  \n      * @param _currencyAddress the currency smart contract address\n      * @param _currencySymbol the currency symbol\n      * @return success true/false denoting successful function call\n      */\n    function _setCurrency(bytes32 _blockchainActionId, address _currencyAddress, bytes32 _currencySymbol) public onlyServerOrOnlyPopulous returns (bool success) {\n        require(actionStatus[_blockchainActionId] == false);\n        currencySymbols[_currencyAddress] = _currencySymbol;\n        currencyAddresses[_currencySymbol] = _currencyAddress;\n        assert(currencyAddresses[_currencySymbol] != 0x0 && currencySymbols[_currencyAddress] != 0x0);\n        setBlockchainActionData(_blockchainActionId, _currencySymbol, 0, 0x0, _currencyAddress, 0);\n        return true;\n    }\n\n    /** @dev set blockchain action data in struct \n      * @param _blockchainActionId the blockchain action id\n      * @param currency the token currency symbol\n      * @param accountId the clientId\n      * @param to the blockchain address or smart contract address used in the transaction\n      * @param amount the amount of tokens in the transaction\n      * @return success true/false denoting successful function call\n      */\n    function setBlockchainActionData(\n        bytes32 _blockchainActionId, bytes32 currency, \n        uint amount, bytes32 accountId, address to, uint pptFee) \n        public\n        onlyServerOrOnlyPopulous \n        returns (bool success)\n    {\n        require(actionStatus[_blockchainActionId] == false);\n        blockchainActionIdData[_blockchainActionId].currency = currency;\n        blockchainActionIdData[_blockchainActionId].amount = amount;\n        blockchainActionIdData[_blockchainActionId].accountId = accountId;\n        blockchainActionIdData[_blockchainActionId].to = to;\n        blockchainActionIdData[_blockchainActionId].pptFee = pptFee;\n        actionStatus[_blockchainActionId] = true;\n        return true;\n    }\n\n    /** @dev upgrade deposit address \n      * @param _blockchainActionId the blockchain action id\n      * @param _clientId the client id\n      * @param _depositContract the deposit contract address for the client\n      * @return success true/false denoting successful function call\n      */\n    function upgradeDepositAddress(bytes32 _blockchainActionId, bytes32 _clientId, address _depositContract) public\n      onlyServerOrOnlyPopulous\n      returns (bool success)\n    {\n        require(actionStatus[_blockchainActionId] == false);\n        // check that client does not already have a stored deposit address\n        require(depositAddresses[_clientId] == 0x0);\n        // DepositContract(_clientId).clientId() == _clientId\n        // store the deposit address for the client Id\n        //DepositContract(_clientId, address(AM));\n        depositAddresses[_clientId] = _depositContract;\n        depositClientIds[_depositContract] = _clientId;\n        // check that deposit address has been stored for client Id\n        assert(depositAddresses[_clientId] == _depositContract && depositClientIds[_depositContract] == _clientId);\n        // set blockchain action data\n        setBlockchainActionData(_blockchainActionId, 0x0, 0, _clientId, depositAddresses[_clientId], 0);\n        return true;\n    }\n  \n\n    /** @dev Updates a deposit address for client id\n      * @param _blockchainActionId the blockchain action id\n      * @param _clientId the client id\n      * @param _depositContract the deposit contract address for the client\n      * @return success true/false denoting successful function call\n      */\n    function _setDepositAddress(bytes32 _blockchainActionId, bytes32 _clientId, address _depositContract) public\n      onlyServerOrOnlyPopulous\n      returns (bool success)\n    {\n        require(actionStatus[_blockchainActionId] == false);\n        depositAddresses[_clientId] = _depositContract;\n        depositClientIds[_depositContract] = _clientId;\n        // check that deposit address has been stored for client Id\n        assert(depositAddresses[_clientId] == _depositContract && depositClientIds[_depositContract] == _clientId);\n        // set blockchain action data\n        setBlockchainActionData(_blockchainActionId, 0x0, 0, _clientId, depositAddresses[_clientId], 0);\n        return true;\n    }\n\n    /** @dev Add a new invoice to the platform  \n      * @param _providerUserId the providers user id\n      * @param _invoiceCountryCode the country code of the provider\n      * @param _invoiceCompanyNumber the providers company number\n      * @param _invoiceCompanyName the providers company name\n      * @param _invoiceNumber the invoice number\n      * @return success true or false if function call is successful\n      */\n    function setInvoice(\n        bytes32 _blockchainActionId, bytes32 _providerUserId, bytes2 _invoiceCountryCode, \n        bytes32 _invoiceCompanyNumber, bytes32 _invoiceCompanyName, bytes32 _invoiceNumber) \n        public \n        onlyServerOrOnlyPopulous \n        returns (bool success) \n    {   \n        require(actionStatus[_blockchainActionId] == false);\n        bytes32 providerUserId; \n        bytes32 companyName;\n        (providerUserId, companyName) = getInvoice(_invoiceCountryCode, _invoiceCompanyNumber, _invoiceNumber);\n        require(providerUserId == 0x0 && companyName == 0x0);\n        // country code => company number => invoice number => invoice data\n        invoices[_invoiceCountryCode][_invoiceCompanyNumber][_invoiceNumber].providerUserId = _providerUserId;\n        invoices[_invoiceCountryCode][_invoiceCompanyNumber][_invoiceNumber].invoiceCompanyName = _invoiceCompanyName;\n        \n        assert(\n            invoices[_invoiceCountryCode][_invoiceCompanyNumber][_invoiceNumber].providerUserId != 0x0 && \n            invoices[_invoiceCountryCode][_invoiceCompanyNumber][_invoiceNumber].invoiceCompanyName != 0x0\n        );\n        return true;\n    }\n    \n    /** @dev Add a new invoice provider to the platform  \n      * @param _blockchainActionId the blockchain action id\n      * @param _userId the user id of the provider\n      * @param _companyNumber the providers company number\n      * @param _companyName the providers company name\n      * @param _countryCode the providers country code\n      * @return success true or false if function call is successful\n      */\n    function setProvider(\n        bytes32 _blockchainActionId, bytes32 _userId, bytes32 _companyNumber, \n        bytes32 _companyName, bytes2 _countryCode) \n        public \n        onlyServerOrOnlyPopulous\n        returns (bool success)\n    {   \n        require(actionStatus[_blockchainActionId] == false);\n        require(\n            providerCompanyData[_userId].companyNumber == 0x0 && \n            providerCompanyData[_userId].countryCode == 0x0 &&\n            providerCompanyData[_userId].companyName == 0x0);\n        \n        providerCompanyData[_userId].countryCode = _countryCode;\n        providerCompanyData[_userId].companyName = _companyName;\n        providerCompanyData[_userId].companyNumber = _companyNumber;\n\n        providerData[_countryCode][_companyNumber] = _userId;\n        return true;\n    }\n\n\n    /** @dev Update an added invoice provider to the platform  \n      * @param _blockchainActionId the blockchain action id\n      * @param _userId the user id of the provider\n      * @param _companyNumber the providers company number\n      * @param _companyName the providers company name\n      * @param _countryCode the providers country code\n      * @return success true or false if function call is successful\n      */\n    function _setProvider(\n        bytes32 _blockchainActionId, bytes32 _userId, bytes32 _companyNumber, \n        bytes32 _companyName, bytes2 _countryCode) \n        public \n        onlyServerOrOnlyPopulous\n        returns (bool success)\n    {   \n        require(actionStatus[_blockchainActionId] == false);\n        providerCompanyData[_userId].countryCode = _countryCode;\n        providerCompanyData[_userId].companyName = _companyName;\n        providerCompanyData[_userId].companyNumber = _companyNumber;\n        providerData[_countryCode][_companyNumber] = _userId;\n        \n        setBlockchainActionData(_blockchainActionId, 0x0, 0, _userId, 0x0, 0);\n        return true;\n    }\n\n    // CONSTANT METHODS\n\n    /** @dev Gets a deposit address with the client id \n      * @return clientDepositAddress The client's deposit address\n      */\n    function getDepositAddress(bytes32 _clientId) public view returns (address clientDepositAddress){\n        return depositAddresses[_clientId];\n    }\n\n    /** @dev Gets a client id linked to a deposit address \n      * @return depositClientId The client id\n      */\n    function getClientIdWithDepositAddress(address _depositContract) public view returns (bytes32 depositClientId){\n        return depositClientIds[_depositContract];\n    }\n\n    /** @dev Gets a currency smart contract address \n      * @return currencyAddress The currency address\n      */\n    function getCurrency(bytes32 _currencySymbol) public view returns (address currencyAddress) {\n        return currencyAddresses[_currencySymbol];\n    }\n   \n    /** @dev Gets a currency symbol given it's smart contract address \n      * @return currencySymbol The currency symbol\n      */\n    function getCurrencySymbol(address _currencyAddress) public view returns (bytes32 currencySymbol) {\n        return currencySymbols[_currencyAddress];\n    }\n\n    /** @dev Gets details of a currency given it's smart contract address \n      * @return _symbol The currency symbol\n      * @return _name The currency name\n      * @return _decimals The currency decimal places/precision\n      */\n    function getCurrencyDetails(address _currencyAddress) public view returns (bytes32 _symbol, bytes32 _name, uint8 _decimals) {\n        return (CurrencyToken(_currencyAddress).symbol(), CurrencyToken(_currencyAddress).name(), CurrencyToken(_currencyAddress).decimals());\n    } \n\n    /** @dev Get the blockchain action Id Data for a blockchain Action id\n      * @param _blockchainActionId the blockchain action id\n      * @return bytes32 currency\n      * @return uint amount\n      * @return bytes32 accountId\n      * @return address to\n      */\n    function getBlockchainActionIdData(bytes32 _blockchainActionId) public view \n    returns (bytes32 _currency, uint _amount, bytes32 _accountId, address _to) \n    {\n        require(actionStatus[_blockchainActionId] == true);\n        return (blockchainActionIdData[_blockchainActionId].currency, \n        blockchainActionIdData[_blockchainActionId].amount,\n        blockchainActionIdData[_blockchainActionId].accountId,\n        blockchainActionIdData[_blockchainActionId].to);\n    }\n\n    /** @dev Get the bool status of a blockchain Action id\n      * @param _blockchainActionId the blockchain action id\n      * @return bool actionStatus\n      */\n    function getActionStatus(bytes32 _blockchainActionId) public view returns (bool _blockchainActionStatus) {\n        return actionStatus[_blockchainActionId];\n    }\n\n    /** @dev Gets the details of an invoice with the country code, company number and invocie number.\n      * @param _invoiceCountryCode The country code.\n      * @param _invoiceCompanyNumber The company number.\n      * @param _invoiceNumber The invoice number\n      * @return providerUserId The invoice provider user Id\n      * @return invoiceCompanyName the invoice company name\n      */\n    function getInvoice(bytes2 _invoiceCountryCode, bytes32 _invoiceCompanyNumber, bytes32 _invoiceNumber) \n        public \n        view \n        returns (bytes32 providerUserId, bytes32 invoiceCompanyName) \n    {   \n        bytes32 _providerUserId = invoices[_invoiceCountryCode][_invoiceCompanyNumber][_invoiceNumber].providerUserId;\n        bytes32 _invoiceCompanyName = invoices[_invoiceCountryCode][_invoiceCompanyNumber][_invoiceNumber].invoiceCompanyName;\n        return (_providerUserId, _invoiceCompanyName);\n    }\n\n    /** @dev Gets the details of an invoice provider with the country code and company number.\n      * @param _providerCountryCode The country code.\n      * @param _providerCompanyNumber The company number.\n      * @return isEnabled The boolean value true/false indicating whether invoice provider is enabled or not\n      * @return providerId The invoice provider user Id\n      * @return companyName the invoice company name\n      */\n    function getProviderByCountryCodeCompanyNumber(bytes2 _providerCountryCode, bytes32 _providerCompanyNumber) \n        public \n        view \n        returns (bytes32 providerId, bytes32 companyName) \n    {\n        bytes32 providerUserId = providerData[_providerCountryCode][_providerCompanyNumber];\n        return (providerUserId, \n        providerCompanyData[providerUserId].companyName);\n    }\n\n    /** @dev Gets the details of an invoice provider with the providers user Id.\n      * @param _providerUserId The provider user Id.\n      * @return countryCode The invoice provider country code\n      * @return companyName the invoice company name\n      */\n    function getProviderByUserId(bytes32 _providerUserId) public view \n        returns (bytes2 countryCode, bytes32 companyName, bytes32 companyNumber) \n    {\n        return (providerCompanyData[_providerUserId].countryCode,\n        providerCompanyData[_providerUserId].companyName,\n        providerCompanyData[_providerUserId].companyNumber);\n    }\n\n    /** @dev Gets the version number for the current contract instance\n      * @return _version The version number\n      */\n    function getVersion() public view returns (uint256 _version) {\n        return version;\n    }\n\n}",
  "sourcePath": "/Users/najienka/Desktop/populous-smartcontracts/contracts/DataManager.sol",
  "schemaVersion": "1.0.0",
  "updatedAt": "2018-06-25T09:33:47.479Z"
}