{
  "contractName": "DepositContract",
  "abi": [
    {
      "constant": true,
      "inputs": [
        {
          "name": "populousTokenContract",
          "type": "address"
        }
      ],
      "name": "balanceOf",
      "outputs": [
        {
          "name": "",
          "type": "uint256"
        }
      ],
      "payable": false,
      "stateMutability": "view",
      "type": "function"
    },
    {
      "constant": false,
      "inputs": [
        {
          "name": "populousTokenContract",
          "type": "address"
        },
        {
          "name": "_to",
          "type": "address"
        },
        {
          "name": "_value",
          "type": "uint256"
        }
      ],
      "name": "transfer",
      "outputs": [
        {
          "name": "success",
          "type": "bool"
        }
      ],
      "payable": false,
      "stateMutability": "nonpayable",
      "type": "function"
    },
    {
      "inputs": [
        {
          "name": "_clientId",
          "type": "bytes32"
        }
      ],
      "payable": false,
      "stateMutability": "nonpayable",
      "type": "constructor"
    }
  ],
  "bytecode": "0x6060604052341561000f57600080fd5b60405160208061023083398101604052808051600055505060018054600160a060020a033316600160a060020a03199091161790556101dd806100536000396000f300606060405263ffffffff60e060020a60003504166370a08231811461002e578063beabacc81461005f57600080fd5b341561003957600080fd5b61004d600160a060020a036004351661009b565b60405190815260200160405180910390f35b341561006a57600080fd5b610087600160a060020a0360043581169060243516604435610114565b604051901515815260200160405180910390f35b600081600160a060020a03166370a082313060006040516020015260405160e060020a63ffffffff8416028152600160a060020a039091166004820152602401602060405180830381600087803b15156100f457600080fd5b6102c65a03f1151561010557600080fd5b50505060405180519392505050565b60015460009033600160a060020a0390811691161461013257600080fd5b83600160a060020a031663a9059cbb848460006040516020015260405160e060020a63ffffffff8516028152600160a060020a0390921660048301526024820152604401602060405180830381600087803b151561018f57600080fd5b6102c65a03f115156101a057600080fd5b5050506040518051959450505050505600a165627a7a72305820345e38fa584dd5faf915f3747f9950c55fe836c4260dcee858b59bc8571c51cd0029",
  "source": "pragma solidity ^0.4.17;\n\nimport \"./iERC20Token.sol\";\n\n\n/// @title DepositContract contract\ncontract DepositContract {\n\n    bytes32 clientId;// cliend ID.\n    address manager; // address of contract manager.\n\n    // MODIFIERS\n\n    modifier onlyManager() {\n        require(msg.sender == manager);\n        _;\n    }\n\n    // NON-CONSTANT METHODS \n\n    /** @dev Constructor that sets the _clientID when the contract is deployed.\n      * @dev The method also sets the manager to the msg.sender.\n      * @param _clientId A string of fixed length representing the client ID.\n      */\n    function DepositContract(bytes32 _clientId) public {\n        clientId = _clientId;\n        manager = msg.sender;\n    }\n\n    /** @dev Transfers an amount '_value' of tokens from msg.sender to '_to' address/wallet.\n      * @param populousTokenContract The address of the ERC20 token contract which implements the transfer method.\n      * @param _value the amount of tokens to transfer.\n      * @param _to The address/wallet to send to.\n      * @return success boolean true or false indicating whether the transfer was successful or not.\n      */\n    function transfer(address populousTokenContract, address _to, uint256 _value) public\n        onlyManager returns (bool success) \n    {\n        return iERC20Token(populousTokenContract).transfer(_to, _value);\n    }\n\n    // CONSTANT METHODS\n    \n    /** @dev Returns the token balance of the current contract instance using the ERC20 balanceOf method.\n      * @param populousTokenContract An address implementing the ERC20 token standard. \n      * @return uint An unsigned integer representing the returned token balance.\n      */\n    function balanceOf(address populousTokenContract) public view returns (uint) {\n        return iERC20Token(populousTokenContract).balanceOf(this);\n    }\n\n}",
  "sourcePath": "/Users/najienka/Desktop/populous-smartcontracts/contracts/DepositContract.sol",
  "schemaVersion": "1.0.0",
  "updatedAt": "2018-01-24T16:00:11.168Z"
}