{
  "contractName": "DepositContractsManager",
  "abi": [
    {
      "constant": false,
      "inputs": [
        {
          "name": "_accessManager",
          "type": "address"
        }
      ],
      "name": "updateAccessManager",
      "outputs": [],
      "payable": false,
      "stateMutability": "nonpayable",
      "type": "function"
    },
    {
      "constant": false,
      "inputs": [
        {
          "name": "populousContract",
          "type": "address"
        },
        {
          "name": "clientId",
          "type": "bytes32"
        },
        {
          "name": "populousTokenContract",
          "type": "address"
        },
        {
          "name": "receiveCurrency",
          "type": "bytes32"
        },
        {
          "name": "receiver",
          "type": "address"
        },
        {
          "name": "depositIndex",
          "type": "uint256"
        }
      ],
      "name": "releaseDeposit",
      "outputs": [],
      "payable": false,
      "stateMutability": "nonpayable",
      "type": "function"
    },
    {
      "constant": true,
      "inputs": [
        {
          "name": "clientId",
          "type": "bytes32"
        },
        {
          "name": "populousTokenContract",
          "type": "address"
        },
        {
          "name": "receiveCurrency",
          "type": "bytes32"
        },
        {
          "name": "depositIndex",
          "type": "uint256"
        }
      ],
      "name": "getActiveDeposit",
      "outputs": [
        {
          "name": "",
          "type": "uint256"
        },
        {
          "name": "",
          "type": "uint256"
        },
        {
          "name": "",
          "type": "bool"
        }
      ],
      "payable": false,
      "stateMutability": "view",
      "type": "function"
    },
    {
      "constant": true,
      "inputs": [
        {
          "name": "clientId",
          "type": "bytes32"
        }
      ],
      "name": "getDepositAddress",
      "outputs": [
        {
          "name": "",
          "type": "address"
        }
      ],
      "payable": false,
      "stateMutability": "view",
      "type": "function"
    },
    {
      "constant": false,
      "inputs": [
        {
          "name": "populousContract",
          "type": "address"
        },
        {
          "name": "clientId",
          "type": "bytes32"
        },
        {
          "name": "populousTokenContract",
          "type": "address"
        },
        {
          "name": "receiveCurrency",
          "type": "bytes32"
        },
        {
          "name": "depositAmount",
          "type": "uint256"
        },
        {
          "name": "receiveAmount",
          "type": "uint256"
        }
      ],
      "name": "deposit",
      "outputs": [],
      "payable": false,
      "stateMutability": "nonpayable",
      "type": "function"
    },
    {
      "constant": false,
      "inputs": [
        {
          "name": "clientId",
          "type": "bytes32"
        }
      ],
      "name": "create",
      "outputs": [],
      "payable": false,
      "stateMutability": "nonpayable",
      "type": "function"
    },
    {
      "constant": true,
      "inputs": [
        {
          "name": "clientId",
          "type": "bytes32"
        },
        {
          "name": "populousTokenContract",
          "type": "address"
        },
        {
          "name": "receiveCurrency",
          "type": "bytes32"
        }
      ],
      "name": "getActiveDepositList",
      "outputs": [
        {
          "name": "",
          "type": "uint256"
        },
        {
          "name": "",
          "type": "uint256"
        },
        {
          "name": "",
          "type": "uint256"
        }
      ],
      "payable": false,
      "stateMutability": "view",
      "type": "function"
    },
    {
      "constant": true,
      "inputs": [],
      "name": "AM",
      "outputs": [
        {
          "name": "",
          "type": "address"
        }
      ],
      "payable": false,
      "stateMutability": "view",
      "type": "function"
    },
    {
      "inputs": [
        {
          "name": "_accessManager",
          "type": "address"
        }
      ],
      "payable": false,
      "stateMutability": "nonpayable",
      "type": "constructor"
    },
    {
      "anonymous": false,
      "inputs": [
        {
          "indexed": false,
          "name": "clientId",
          "type": "bytes32"
        },
        {
          "indexed": false,
          "name": "depositContractAddress",
          "type": "address"
        }
      ],
      "name": "EventNewDepositContract",
      "type": "event"
    },
    {
      "anonymous": false,
      "inputs": [
        {
          "indexed": false,
          "name": "clientId",
          "type": "bytes32"
        },
        {
          "indexed": false,
          "name": "populousTokenContract",
          "type": "address"
        },
        {
          "indexed": false,
          "name": "receiveCurrency",
          "type": "bytes32"
        },
        {
          "indexed": false,
          "name": "deposited",
          "type": "uint256"
        },
        {
          "indexed": false,
          "name": "received",
          "type": "uint256"
        },
        {
          "indexed": false,
          "name": "depositIndex",
          "type": "uint256"
        }
      ],
      "name": "EventNewDeposit",
      "type": "event"
    },
    {
      "anonymous": false,
      "inputs": [
        {
          "indexed": false,
          "name": "clientId",
          "type": "bytes32"
        },
        {
          "indexed": false,
          "name": "populousTokenContract",
          "type": "address"
        },
        {
          "indexed": false,
          "name": "releaseCurrency",
          "type": "bytes32"
        },
        {
          "indexed": false,
          "name": "deposited",
          "type": "uint256"
        },
        {
          "indexed": false,
          "name": "received",
          "type": "uint256"
        },
        {
          "indexed": false,
          "name": "depositIndex",
          "type": "uint256"
        }
      ],
      "name": "EventDepositReleased",
      "type": "event"
    }
  ],
  "bytecode": "0x6060604052341561000f57600080fd5b6040516020806114f28339810160405280805160008054600160a060020a03909216600160a060020a0319909216919091179055505061149e806100546000396000f300606060405236156100725763ffffffff60e060020a60003504166302ab72c48114610077578063174ebd17146100985780631abc3632146100ce5780632a01a4511461011c5780632f513df51461014e5780637368a8ce14610180578063d68388d614610196578063f7f01b4b146101df575b600080fd5b341561008257600080fd5b610096600160a060020a03600435166101f2565b005b34156100a357600080fd5b610096600160a060020a0360043581169060243590604435811690606435906084351660a4356102a5565b34156100d957600080fd5b6100f6600435600160a060020a036024351660443560643561086d565b604051928352602083019190915215156040808301919091526060909101905180910390f35b341561012757600080fd5b61013260043561095b565b604051600160a060020a03909116815260200160405180910390f35b341561015957600080fd5b610096600160a060020a03600435811690602435906044351660643560843560a435610976565b341561018b57600080fd5b610096600435610dc1565b34156101a157600080fd5b6101bb600435600160a060020a0360243516604435610f26565b60405180848152602001838152602001828152602001935050505060405180910390f35b34156101ea57600080fd5b610132610f67565b60008054600160a060020a03169063fda089589033906040516020015260405160e060020a63ffffffff8416028152600160a060020a039091166004820152602401602060405180830381600087803b151561024d57600080fd5b6102c65a03f1151561025e57600080fd5b50505060405180511515600114905061027657600080fd5b6000805473ffffffffffffffffffffffffffffffffffffffff1916600160a060020a0392909216919091179055565b60008054819081908190600160a060020a031663fda0895833836040516020015260405160e060020a63ffffffff8416028152600160a060020a039091166004820152602401602060405180830381600087803b151561030457600080fd5b6102c65a03f1151561031557600080fd5b50505060405180511515600114905061032d57600080fd5b60008981526001602090815260408083205460028352818420600160a060020a038d811686529084528285208c8652909352922080549190921695508690811061037357fe5b9060005260206000209060040201600001546000141580156103df57506000898152600260209081526040808320600160a060020a038c16845282528083208a845290915290208054869081106103c657fe5b600091825260209091206003600490920201015460ff16155b80156104b457506000898152600260209081526040808320600160a060020a038c811685529083528184208b855290925290912080549186169163beabacc8918b918a91908a90811061042e57fe5b90600052602060002090600402016000015460006040516020015260405160e060020a63ffffffff8616028152600160a060020a0393841660048201529190921660248201526044810191909152606401602060405180830381600087803b151561049857600080fd5b6102c65a03f115156104a957600080fd5b505050604051805190505b801561050857506000898152600260209081526040808320600160a060020a038c16845282528083208a845290915290208054429190879081106104f457fe5b906000526020600020906004020160020154115b15610861576000898152600260209081526040808320600160a060020a038c16845282528083208a845290915290208054600191908790811061054757fe5b60009182526020808320600492909202909101600301805460ff1916931515939093179092558a8152600282526040808220600160a060020a038c16835283528082208a835290925220600181015481546105be9290889081106105a757fe5b906000526020600020906004020160000154610f76565b60008a8152600260208181526040808420600160a060020a038e16855282528084208c85529091529091206001810192909255810154815461061c92908890811061060557fe5b906000526020600020906004020160010154610f76565b60008a8152600260208181526040808420600160a060020a038e16855282528084208c85529091529091209081019190915580548b94508690811061065d57fe5b600091825260208083206004909202909101548b8352600282526040808420600160a060020a038d16855283528084208b85529092529120805491935090869081106106a557fe5b906000526020600020906004020160010154905082600160a060020a0316635e63067f888b86600160a060020a0316636123db816000604051602001526040518163ffffffff1660e060020a028152600401602060405180830381600087803b151561071057600080fd5b6102c65a03f1151561072157600080fd5b505050604051805190508560405160e060020a63ffffffff87160281526004810194909452602484019290925260448301526064820152608401600060405180830381600087803b151561077457600080fd5b6102c65a03f1151561078557600080fd5b50505082600160a060020a031663db86e0cb888360006040516020015260405160e060020a63ffffffff851602815260048101929092526024820152604401602060405180830381600087803b15156107dd57600080fd5b6102c65a03f115156107ee57600080fd5b50505060405180519050507fbc56f62e82bebdc69f74f6678f58f9e76155da7a0b9fc8c70bb9cf65dbbc772f89898985858a604051958652600160a060020a0390941660208601526040808601939093526060850191909152608084015260a083019190915260c0909101905180910390a15b50505050505050505050565b6000848152600260209081526040808320600160a060020a038716845282528083208584529091528120805482918291859081106108a757fe5b60009182526020808320600490920290910154898352600282526040808420600160a060020a038b168552835280842089855290925291208054869081106108eb57fe5b60009182526020808320600160049093020191909101548a8352600282526040808420600160a060020a038c16855283528084208a8552909252912080548790811061093357fe5b6000918252602090912060036004909202010154919450925060ff1690509450945094915050565b600090815260016020526040902054600160a060020a031690565b6000805481908190600160a060020a031663fda0895833836040516020015260405160e060020a63ffffffff8416028152600160a060020a039091166004820152602401602060405180830381600087803b15156109d357600080fd5b6102c65a03f115156109e457600080fd5b5050506040518051151560011490506109fc57600080fd5b60008881526001602052604080822054600160a060020a031694508691610aba9186916370a08231918c9190516020015260405160e060020a63ffffffff8416028152600160a060020a039091166004820152602401602060405180830381600087803b1515610a6b57600080fd5b6102c65a03f11515610a7c57600080fd5b505050604051805160008c8152600260209081526040808320600160a060020a038f16845282528083208d8452909152902060010154909150610f76565b1415610db6576000888152600260209081526040808320600160a060020a038b16845282528083208984529091529020805460018101610afa8382610fac565b91600052602060002090600402016000608060405190810160409081528982526020820189905262278d00420190820152600060608201529190508151815560208201518160010155604082015181600201556060820151600391909101805460ff191691151591909117905550506000888152600260209081526040808320600160a060020a038b1684528252808320898452909152902060010154610ba19086610f88565b6000898152600260208181526040808420600160a060020a038d16855282528084208b855290915290912060018101929092550154610be09085610f88565b6000898152600260208181526040808420600160a060020a038d811686529083528185208c86529092528084209283019490945590548c955060001901935084169163af8d309e918991889190516020015260405160e060020a63ffffffff851602815260048101929092526024820152604401602060405180830381600087803b1515610c6d57600080fd5b6102c65a03f11515610c7e57600080fd5b50505060405180515050600160a060020a038216635e63067f8782636123db816000604051602001526040518163ffffffff1660e060020a028152600401602060405180830381600087803b1515610cd557600080fd5b6102c65a03f11515610ce657600080fd5b505050604051805190508b8860405160e060020a63ffffffff87160281526004810194909452602484019290925260448301526064820152608401600060405180830381600087803b1515610d3a57600080fd5b6102c65a03f11515610d4b57600080fd5b5050507ff120c283702a0153dde599235e898e3273954cc6f34256add8928e4b51c8b639888888888886604051958652600160a060020a0390941660208601526040808601939093526060850191909152608084015260a083019190915260c0909101905180910390a15b505050505050505050565b60008054600160a060020a03169063fda089589033906040516020015260405160e060020a63ffffffff8416028152600160a060020a039091166004820152602401602060405180830381600087803b1515610e1c57600080fd5b6102c65a03f11515610e2d57600080fd5b505050604051805115156001149050610e4557600080fd5b6000548190600160a060020a0316610e5b610fdd565b918252600160a060020a0316602082015260409081019051809103906000f0801515610e8657600080fd5b6000828152600160205260409020805473ffffffffffffffffffffffffffffffffffffffff1916600160a060020a039283161790819055161515610ec657fe5b60008181526001602052604090819020547f331e8d7fbf36512cd5eb514f38db31465c8f937497c179aa3eda3250125028fc918391600160a060020a03169051918252600160a060020a031660208201526040908101905180910390a150565b6000928352600260208181526040808620600160a060020a039590951686529381528385209285529190915291208054600182015491909201549192909190565b600054600160a060020a031681565b600082821115610f8257fe5b50900390565b6000828201838110801590610f9d5750828110155b1515610fa557fe5b9392505050565b815481835581811511610fd857600402816004028360005260206000209182019101610fd89190610fed565b505050565b60405161044b8061102883390190565b61102491905b8082111561102057600080825560018201819055600282015560038101805460ff19169055600401610ff3565b5090565b9056006060604052341561000f57600080fd5b60405160408061044b833981016040528080519190602001805160008054600160a060020a03909216600160a060020a031990921691909117905550506001556103ed8061005e6000396000f300606060405263ffffffff60e060020a60003504166302ab72c4811461004457806370a0823114610065578063beabacc814610096578063f7f01b4b146100d257600080fd5b341561004f57600080fd5b610063600160a060020a0360043516610101565b005b341561007057600080fd5b610084600160a060020a03600435166101b4565b60405190815260200160405180910390f35b34156100a157600080fd5b6100be600160a060020a036004358116906024351660443561022d565b604051901515815260200160405180910390f35b34156100dd57600080fd5b6100e56103b2565b604051600160a060020a03909116815260200160405180910390f35b60008054600160a060020a03169063fda089589033906040516020015260405160e060020a63ffffffff8416028152600160a060020a039091166004820152602401602060405180830381600087803b151561015c57600080fd5b6102c65a03f1151561016d57600080fd5b50505060405180511515600114905061018557600080fd5b6000805473ffffffffffffffffffffffffffffffffffffffff1916600160a060020a0392909216919091179055565b600081600160a060020a03166370a082313060006040516020015260405160e060020a63ffffffff8416028152600160a060020a039091166004820152602401602060405180830381600087803b151561020d57600080fd5b6102c65a03f1151561021e57600080fd5b50505060405180519392505050565b60008054600160a060020a031663fda0895833836040516020015260405160e060020a63ffffffff8416028152600160a060020a039091166004820152602401602060405180830381600087803b151561028657600080fd5b6102c65a03f1151561029757600080fd5b50505060405180511515600114905080610328575060008054600160a060020a03169063a6d286939033906040516020015260405160e060020a63ffffffff8416028152600160a060020a039091166004820152602401602060405180830381600087803b151561030757600080fd5b6102c65a03f1151561031857600080fd5b5050506040518051151560011490505b151561033357600080fd5b83600160a060020a031663a9059cbb848460006040516020015260405160e060020a63ffffffff8516028152600160a060020a0390921660048301526024820152604401602060405180830381600087803b151561039057600080fd5b6102c65a03f115156103a157600080fd5b505050604051805195945050505050565b600054600160a060020a0316815600a165627a7a7230582045edea2f886a7db073011201e2ddfdec3ba18912d03ccefdfd72d07f8e96a9660029a165627a7a72305820b1c77528f5e2571e3404ec67b24cfcfca496df9c465047e53b6197e9043155600029",
  "source": "pragma solidity ^0.4.17;\n\nimport \"./SafeMath.sol\";\nimport \"./withAccessManager.sol\";\nimport \"./DepositContract.sol\";\nimport \"./Populous.sol\";\n\n\n/// @title DepositCountractsManager contract\ncontract DepositContractsManager is withAccessManager {\n\n     // PPT deposits events\n    event EventNewDepositContract(bytes32 clientId, address depositContractAddress);\n    event EventNewDeposit(bytes32 clientId, address populousTokenContract, bytes32 receiveCurrency, uint deposited, uint received, uint depositIndex);\n    event EventDepositReleased(bytes32 clientId, address populousTokenContract, bytes32 releaseCurrency, uint deposited, uint received, uint depositIndex);\n\n    // FIELDS\n\n    // This variable represents deposits \n    // and their related information i.e., amount deposited and received\n    // and a boolean isReleased indicating whether the deposit has been released.\n    struct Deposit {\n        uint deposited;\n        uint received;\n        uint releaseTime;\n        bool isReleased;\n    }\n\n    // This variable will be used to store a list of deposits\n    // together with the total amount deposited and received for a deposit contract.\n    struct DepositList {\n        Deposit[] list;\n        uint deposited;\n        uint received;\n    }\n\n    // This variable will be used to keep track of client IDs and\n    // their deposit addresses\n    // clientId => depositAddress\n    mapping (bytes32 => address) depositAddress;\n\n    // The variable 'deposits'\n    // links a bytes32 client ID to a token contract address linked to a currency symbol \n    // linked to a DepositList object type declared above.\n    // clientId => populousTokenContract => currencySymbol => DepositList\n    mapping (bytes32 => mapping(address => mapping(bytes32 => DepositList))) deposits;\n\n\n    // NON-CONSTANT METHODS\n\n    // The constructor method called when this contract instance is deployed \n    // using a modifier the _accessManager address\n    function DepositContractsManager(address _accessManager) public\n        withAccessManager(_accessManager) { }\n\n    /** @dev Creates a new 'depositAddress' gotten from deploying a deposit contract linked to a client ID\n      * @param clientId The bytes32 client ID\n      * @return address The address of the deployed deposit contract instance.\n      */\n    function create(bytes32 clientId) public\n        onlyServer\n    {\n        depositAddress[clientId] = new DepositContract(clientId, AM);\n        assert(depositAddress[clientId] != 0x0);\n\n        EventNewDepositContract(clientId, depositAddress[clientId]);\n    }\n\n    /** @dev Deposits an amount of tokens linked to a client ID.\n      * @param clientId The client ID.\n      * @param populousTokenContract The token contract.\n      * @param receiveCurrency The currency symbol.\n      * @param depositAmount The deposit amount.\n      * @param receiveAmount The receive amount.\n      * @return bool boolean value indicating whether or not a deposit transaction has been made with success.\n      * @return uint The updated number of deposits.\n      */\n    function deposit(address populousContract, bytes32 clientId, address populousTokenContract, bytes32 receiveCurrency, uint depositAmount, uint receiveAmount)\n        public\n        onlyServer\n    {\n        DepositContract o = DepositContract(depositAddress[clientId]);\n\n        if (SafeMath.safeSub(o.balanceOf(populousTokenContract), deposits[clientId][populousTokenContract][receiveCurrency].deposited) == depositAmount) {\n            // save new deposit info\n            deposits[clientId][populousTokenContract][receiveCurrency].list.push(Deposit(depositAmount, receiveAmount, now + 30 days, false));\n            \n            // update totals\n            deposits[clientId][populousTokenContract][receiveCurrency].deposited = SafeMath.safeAdd(\n                deposits[clientId][populousTokenContract][receiveCurrency].deposited,\n                depositAmount\n            );\n            deposits[clientId][populousTokenContract][receiveCurrency].received = SafeMath.safeAdd(\n                deposits[clientId][populousTokenContract][receiveCurrency].received,\n                receiveAmount\n            );\n            \n            //success\n            Populous populous = Populous(populousContract);\n\n            uint depositIndex = deposits[clientId][populousTokenContract][receiveCurrency].list.length - 1;\n\n            populous.mintTokens(receiveCurrency, receiveAmount);\n            populous.transfer(receiveCurrency, populous.getLedgerSystemAccount(), clientId, receiveAmount);\n\n            EventNewDeposit(clientId, populousTokenContract, receiveCurrency, depositAmount, receiveAmount, depositIndex);\n\n        }\n    }\n\n    /** @dev Releases a deposit to an address/wallet.\n      * @param clientId The client ID.\n      * @param populousTokenContract The token contract.\n      * @param receiveCurrency The currency symbol.\n      * @param receiver The address/wallet of the receiver.\n      * @param depositIndex The index/location of a specific deposit in the declared deposit list above.\n      * @return bool boolean value indicating whether or not a deposit has been updated with success.\n      * @return uint The token amount deposited.\n      * @return uint The token amount received.\n      */\n    function releaseDeposit(address populousContract, bytes32 clientId, address populousTokenContract, bytes32 receiveCurrency, address receiver, uint depositIndex)\n        public\n        onlyServer\n    {\n        DepositContract o = DepositContract(depositAddress[clientId]);\n        \n        if (deposits[clientId][populousTokenContract][receiveCurrency].list[depositIndex].deposited != 0 &&\n            deposits[clientId][populousTokenContract][receiveCurrency].list[depositIndex].isReleased == false &&\n            o.transfer(populousTokenContract, receiver, deposits[clientId][populousTokenContract][receiveCurrency].list[depositIndex].deposited) &&\n            deposits[clientId][populousTokenContract][receiveCurrency].list[depositIndex].releaseTime > now\n        ) {\n            deposits[clientId][populousTokenContract][receiveCurrency].list[depositIndex].isReleased = true;\n\n            // update totals\n            deposits[clientId][populousTokenContract][receiveCurrency].deposited = SafeMath.safeSub(\n                deposits[clientId][populousTokenContract][receiveCurrency].deposited,\n                deposits[clientId][populousTokenContract][receiveCurrency].list[depositIndex].deposited\n            );\n            deposits[clientId][populousTokenContract][receiveCurrency].received = SafeMath.safeSub(\n                deposits[clientId][populousTokenContract][receiveCurrency].received,\n                deposits[clientId][populousTokenContract][receiveCurrency].list[depositIndex].received\n            );\n          \n            //success\n            Populous populous = Populous(populousContract);\n\n            uint deposited = deposits[clientId][populousTokenContract][receiveCurrency].list[depositIndex].deposited;\n            uint received = deposits[clientId][populousTokenContract][receiveCurrency].list[depositIndex].received;\n\n            populous.transfer(receiveCurrency, clientId, populous.getLedgerSystemAccount(), received);\n            populous.destroyTokens(receiveCurrency, received);\n\n            EventDepositReleased(clientId, populousTokenContract, receiveCurrency, deposited, received, depositIndex);\n\n        }\n    }\n\n\n    // CONSTANT METHODS\n\n\n    /** @dev Gets the deposit address linked to a given client ID.\n      * @param clientId The client ID.\n      * @return address The deposit address.\n      */\n    function getDepositAddress(bytes32 clientId) public view returns (address) {\n        return depositAddress[clientId];\n    }\n\n    /** @dev Gets the deposit address linked to a given client ID.\n      * @param clientId The client ID.\n      * @param populousTokenContract The token contract\n      * @param receiveCurrency The currency symbol\n      * @return uint The length of a deposit list linked to the client ID, token contract and currency.\n      * @return uint The token amount deposited.\n      * @return uint The token amount received.\n      */\n    function getActiveDepositList(bytes32 clientId, address populousTokenContract, bytes32 receiveCurrency) \n        public \n        view returns (uint, uint, uint){\n        return (\n            deposits[clientId][populousTokenContract][receiveCurrency].list.length,\n            deposits[clientId][populousTokenContract][receiveCurrency].deposited,\n            deposits[clientId][populousTokenContract][receiveCurrency].received\n        );\n    }\n\n    /** @dev Gets the details of a deposit.\n      * @param clientId The client ID.\n      * @param populousTokenContract The token contract.\n      * @param receiveCurrency The currency symbol.\n      * @param depositIndex The ID of a particular deposit in a deposit list.\n      * @return uint Deposited amount.\n      * @return uint Received amount.\n      * @return bool Boolean value to indicate if deposit is released or not.\n      */\n    function getActiveDeposit(bytes32 clientId, address populousTokenContract, bytes32 receiveCurrency, uint depositIndex) \n        public \n        view returns (uint, uint, bool) {\n        return (\n            deposits[clientId][populousTokenContract][receiveCurrency].list[depositIndex].deposited,\n            deposits[clientId][populousTokenContract][receiveCurrency].list[depositIndex].received,\n            deposits[clientId][populousTokenContract][receiveCurrency].list[depositIndex].isReleased\n        );\n    }\n\n\n}",
  "sourcePath": "/Users/najienka/Desktop/populous-smartcontracts/contracts/DepositContractsManager.sol",
  "schemaVersion": "1.0.0",
  "updatedAt": "2018-02-02T08:05:34.219Z"
}