{
  "contractName": "DepositContract",
  "abi": [
    {
      "constant": false,
      "inputs": [
        {
          "name": "_accessManager",
          "type": "address"
        }
      ],
      "name": "updateAccessManager",
      "outputs": [],
      "payable": false,
      "stateMutability": "nonpayable",
      "type": "function"
    },
    {
      "constant": false,
      "inputs": [
        {
          "name": "_erc1155Token",
          "type": "address"
        },
        {
          "name": "_to",
          "type": "address"
        },
        {
          "name": "_id",
          "type": "uint256"
        },
        {
          "name": "_value",
          "type": "uint256"
        }
      ],
      "name": "transferERC1155",
      "outputs": [
        {
          "name": "success",
          "type": "bool"
        }
      ],
      "payable": false,
      "stateMutability": "nonpayable",
      "type": "function"
    },
    {
      "constant": true,
      "inputs": [],
      "name": "getVersion",
      "outputs": [
        {
          "name": "",
          "type": "uint256"
        }
      ],
      "payable": false,
      "stateMutability": "view",
      "type": "function"
    },
    {
      "constant": false,
      "inputs": [
        {
          "name": "_operator",
          "type": "address"
        },
        {
          "name": "_from",
          "type": "address"
        },
        {
          "name": "_tokenId",
          "type": "uint256"
        },
        {
          "name": "_data",
          "type": "bytes"
        }
      ],
      "name": "onERC721Received",
      "outputs": [
        {
          "name": "",
          "type": "bytes4"
        }
      ],
      "payable": false,
      "stateMutability": "nonpayable",
      "type": "function"
    },
    {
      "constant": false,
      "inputs": [
        {
          "name": "erc721Token",
          "type": "address"
        },
        {
          "name": "_to",
          "type": "address"
        },
        {
          "name": "_tokenId",
          "type": "uint256"
        }
      ],
      "name": "transferERC721",
      "outputs": [
        {
          "name": "success",
          "type": "bool"
        }
      ],
      "payable": false,
      "stateMutability": "nonpayable",
      "type": "function"
    },
    {
      "constant": true,
      "inputs": [
        {
          "name": "erc1155Token",
          "type": "address"
        },
        {
          "name": "_id",
          "type": "uint256"
        }
      ],
      "name": "balanceOfERC1155",
      "outputs": [
        {
          "name": "",
          "type": "uint256"
        }
      ],
      "payable": false,
      "stateMutability": "view",
      "type": "function"
    },
    {
      "constant": true,
      "inputs": [
        {
          "name": "erc721Token",
          "type": "address"
        }
      ],
      "name": "balanceOfERC721",
      "outputs": [
        {
          "name": "",
          "type": "uint256"
        }
      ],
      "payable": false,
      "stateMutability": "view",
      "type": "function"
    },
    {
      "constant": true,
      "inputs": [],
      "name": "getClientId",
      "outputs": [
        {
          "name": "_clientId",
          "type": "bytes32"
        }
      ],
      "payable": false,
      "stateMutability": "view",
      "type": "function"
    },
    {
      "constant": true,
      "inputs": [],
      "name": "version",
      "outputs": [
        {
          "name": "",
          "type": "uint256"
        }
      ],
      "payable": false,
      "stateMutability": "view",
      "type": "function"
    },
    {
      "constant": true,
      "inputs": [],
      "name": "clientId",
      "outputs": [
        {
          "name": "",
          "type": "bytes32"
        }
      ],
      "payable": false,
      "stateMutability": "view",
      "type": "function"
    },
    {
      "constant": true,
      "inputs": [
        {
          "name": "populousTokenContract",
          "type": "address"
        }
      ],
      "name": "balanceOf",
      "outputs": [
        {
          "name": "",
          "type": "uint256"
        }
      ],
      "payable": false,
      "stateMutability": "view",
      "type": "function"
    },
    {
      "constant": false,
      "inputs": [
        {
          "name": "_to",
          "type": "address"
        },
        {
          "name": "_value",
          "type": "uint256"
        },
        {
          "name": "inCollateral",
          "type": "uint256"
        },
        {
          "name": "pptFee",
          "type": "uint256"
        },
        {
          "name": "adminExternalWallet",
          "type": "address"
        },
        {
          "name": "pptAddress",
          "type": "address"
        }
      ],
      "name": "transferEther",
      "outputs": [],
      "payable": false,
      "stateMutability": "nonpayable",
      "type": "function"
    },
    {
      "constant": false,
      "inputs": [
        {
          "name": "populousTokenContract",
          "type": "address"
        },
        {
          "name": "_to",
          "type": "address"
        },
        {
          "name": "_value",
          "type": "uint256"
        }
      ],
      "name": "transfer",
      "outputs": [
        {
          "name": "success",
          "type": "bool"
        }
      ],
      "payable": false,
      "stateMutability": "nonpayable",
      "type": "function"
    },
    {
      "constant": false,
      "inputs": [
        {
          "name": "_operator",
          "type": "address"
        },
        {
          "name": "_from",
          "type": "address"
        },
        {
          "name": "_id",
          "type": "uint256"
        },
        {
          "name": "_value",
          "type": "uint256"
        },
        {
          "name": "_data",
          "type": "bytes"
        }
      ],
      "name": "onERC1155Received",
      "outputs": [
        {
          "name": "",
          "type": "bytes4"
        }
      ],
      "payable": false,
      "stateMutability": "nonpayable",
      "type": "function"
    },
    {
      "constant": true,
      "inputs": [],
      "name": "AM",
      "outputs": [
        {
          "name": "",
          "type": "address"
        }
      ],
      "payable": false,
      "stateMutability": "view",
      "type": "function"
    },
    {
      "inputs": [
        {
          "name": "_clientId",
          "type": "bytes32"
        },
        {
          "name": "accessManager",
          "type": "address"
        }
      ],
      "payable": false,
      "stateMutability": "nonpayable",
      "type": "constructor"
    },
    {
      "payable": true,
      "stateMutability": "payable",
      "type": "fallback"
    },
    {
      "anonymous": false,
      "inputs": [
        {
          "indexed": false,
          "name": "to",
          "type": "address"
        },
        {
          "indexed": false,
          "name": "value",
          "type": "uint256"
        },
        {
          "indexed": false,
          "name": "pptFee",
          "type": "uint256"
        },
        {
          "indexed": false,
          "name": "adminExternalWallet",
          "type": "address"
        }
      ],
      "name": "EventEtherTransfer",
      "type": "event"
    }
  ],
  "bytecode": "0x60606040526003600255341561001457600080fd5b604051604080610e71833981016040528080519190602001805160008054600160a060020a03909216600160a060020a03199092169190911790555050600155610e0e806100636000396000f300606060405236156100bf5763ffffffff60e060020a60003504166302ab72c481146100c15780630a7e880c146100e05780630d8e6e2c1461011f578063150b7a02146101445780631aca6376146101e5578063418ae2691461020d578063468f26221461022f578063527fe4131461024e57806354fd4d50146102615780636bb3471a1461027457806370a082311461028757806382a4fe69146102a6578063beabacc8146102dd578063f23a6e6114610305578063f7f01b4b14610376575b005b34156100cc57600080fd5b6100bf600160a060020a03600435166103a5565b34156100eb57600080fd5b61010b600160a060020a0360043581169060243516604435606435610458565b604051901515815260200160405180910390f35b341561012a57600080fd5b6101326105eb565b60405190815260200160405180910390f35b341561014f57600080fd5b6101b0600160a060020a036004803582169160248035909116916044359160849060643590810190830135806020601f820181900481020160405190810160405281815292919060208401838380828437509496506105f195505050505050565b6040517fffffffff00000000000000000000000000000000000000000000000000000000909116815260200160405180910390f35b34156101f057600080fd5b61010b600160a060020a036004358116906024351660443561061a565b341561021857600080fd5b610132600160a060020a03600435166024356107b0565b341561023a57600080fd5b610132600160a060020a0360043516610831565b341561025957600080fd5b6101326108ac565b341561026c57600080fd5b6101326108b2565b341561027f57600080fd5b6101326108b8565b341561029257600080fd5b610132600160a060020a03600435166108be565b34156102b157600080fd5b6100bf600160a060020a0360043581169060243590604435906064359060843581169060a4351661095a565b34156102e857600080fd5b61010b600160a060020a0360043581169060243516604435610c24565b341561031057600080fd5b6101b0600160a060020a0360048035821691602480359091169160443591606435919060a49060843590810190830135806020601f82018190048102016040519081016040528181529291906020840183838082843750949650610da995505050505050565b341561038157600080fd5b610389610dd3565b604051600160a060020a03909116815260200160405180910390f35b60008054600160a060020a03169063fda089589033906040516020015260405160e060020a63ffffffff8416028152600160a060020a039091166004820152602401602060405180830381600087803b151561040057600080fd5b6102c65a03f1151561041157600080fd5b50505060405180511515600114905061042957600080fd5b6000805473ffffffffffffffffffffffffffffffffffffffff1916600160a060020a0392909216919091179055565b60008054600160a060020a031663fda0895833836040516020015260405160e060020a63ffffffff8416028152600160a060020a039091166004820152602401602060405180830381600087803b15156104b157600080fd5b6102c65a03f115156104c257600080fd5b50505060405180511515600114905080610553575060008054600160a060020a0316906305fd22d09033906040516020015260405160e060020a63ffffffff8416028152600160a060020a039091166004820152602401602060405180830381600087803b151561053257600080fd5b6102c65a03f1151561054357600080fd5b5050506040518051151560011490505b151561055e57600080fd5b84600160a060020a031663ae28b68c85858560405160e060020a63ffffffff8616028152600160a060020a039093166004840152602483019190915260448201526080606482015260006084820181905260c49091019060405180830381600087803b15156105cc57600080fd5b6102c65a03f115156105dd57600080fd5b506001979650505050505050565b60025490565b7f150b7a0200000000000000000000000000000000000000000000000000000000949350505050565b60008054600160a060020a031663fda0895833836040516020015260405160e060020a63ffffffff8416028152600160a060020a039091166004820152602401602060405180830381600087803b151561067357600080fd5b6102c65a03f1151561068457600080fd5b50505060405180511515600114905080610715575060008054600160a060020a0316906305fd22d09033906040516020015260405160e060020a63ffffffff8416028152600160a060020a039091166004820152602401602060405180830381600087803b15156106f457600080fd5b6102c65a03f1151561070557600080fd5b5050506040518051151560011490505b151561072057600080fd5b83600160a060020a031663b88d4fde30858560405160e060020a63ffffffff8616028152600160a060020a03938416600482015291909216602482015260448101919091526080606482015260006084820181905260c49091019060405180830381600087803b151561079257600080fd5b6102c65a03f115156107a357600080fd5b5060019695505050505050565b600082600160a060020a0316633656eec2833060006040516020015260405160e060020a63ffffffff85160281526004810192909252600160a060020a03166024820152604401602060405180830381600087803b151561081057600080fd5b6102c65a03f1151561082157600080fd5b5050506040518051949350505050565b600081600160a060020a03166370a082313060006040516020015260405160e060020a63ffffffff8416028152600160a060020a039091166004820152602401602060405180830381600087803b151561088a57600080fd5b6102c65a03f1151561089b57600080fd5b50505060405180519150505b919050565b60015490565b60025481565b60015481565b6000600160a060020a03821615156108e15750600160a060020a033016316108a7565b81600160a060020a03166370a082313060006040516020015260405160e060020a63ffffffff8416028152600160a060020a039091166004820152602401602060405180830381600087803b151561093857600080fd5b6102c65a03f1151561094957600080fd5b5050506040518051905090506108a7565b60008054600160a060020a031663fda0895833836040516020015260405160e060020a63ffffffff8416028152600160a060020a039091166004820152602401602060405180830381600087803b15156109b357600080fd5b6102c65a03f115156109c457600080fd5b50505060405180511515600114905080610a55575060008054600160a060020a0316906305fd22d09033906040516020015260405160e060020a63ffffffff8416028152600160a060020a039091166004820152602401602060405180830381600087803b1515610a3457600080fd5b6102c65a03f11515610a4557600080fd5b5050506040518051151560011490505b1515610a6057600080fd5b600160a060020a0330163186901015610a7857600080fd5b600160a060020a03871686156108fc0287604051600060405180830381858888f115156001149350610aad9250505057600080fd5b81600160a060020a03166370a082313060006040516020015260405160e060020a63ffffffff8416028152600160a060020a039091166004820152602401602060405180830381600087803b1515610b0457600080fd5b6102c65a03f11515610b1557600080fd5b505050604051805191505080851115610b2d57600080fd5b84810384901015610b3d57600080fd5b81600160a060020a031663a9059cbb848660006040516020015260405160e060020a63ffffffff8516028152600160a060020a0390921660048301526024820152604401602060405180830381600087803b1515610b9a57600080fd5b6102c65a03f11515610bab57600080fd5b505050604051805115156001149050610bc357600080fd5b7fa8f744480abd19068d60b6e904ee9adad171e023b0e0351fff99e6266ba674cc87878686604051600160a060020a03948516815260208101939093526040808401929092529092166060820152608001905180910390a150505050505050565b60008054600160a060020a031663fda0895833836040516020015260405160e060020a63ffffffff8416028152600160a060020a039091166004820152602401602060405180830381600087803b1515610c7d57600080fd5b6102c65a03f11515610c8e57600080fd5b50505060405180511515600114905080610d1f575060008054600160a060020a0316906305fd22d09033906040516020015260405160e060020a63ffffffff8416028152600160a060020a039091166004820152602401602060405180830381600087803b1515610cfe57600080fd5b6102c65a03f11515610d0f57600080fd5b5050506040518051151560011490505b1515610d2a57600080fd5b83600160a060020a031663a9059cbb848460006040516020015260405160e060020a63ffffffff8516028152600160a060020a0390921660048301526024820152604401602060405180830381600087803b1515610d8757600080fd5b6102c65a03f11515610d9857600080fd5b505050604051805195945050505050565b7ff23a6e610000000000000000000000000000000000000000000000000000000095945050505050565b600054600160a060020a0316815600a165627a7a72305820edb35ba23a3b768abd6bf74d43220a7de2744b4e281483feba9dc1d884e316750029",
  "source": "pragma solidity ^0.4.17;\n\nimport \"./iERC20Token.sol\";\nimport \"./withAccessManager.sol\";\nimport \"./ERC1155.sol\";\nimport \"./ERC721Basic.sol\";\n\n/// @title DepositContract contract\ncontract DepositContract is withAccessManager {\n\n    bytes32 public clientId; // client ID.\n    uint256 public version = 3;\n\n    // EVENTS\n    event EventEtherTransfer(address to, uint256 value, uint256 pptFee, address adminExternalWallet);\n\n    // NON-CONSTANT METHODS \n\n    /** @dev Constructor that sets the _clientID when the contract is deployed.\n      * @dev The method also sets the manager to the msg.sender.\n      * @param _clientId A string of fixed length representing the client ID.\n      */\n    function DepositContract(bytes32 _clientId, address accessManager) public withAccessManager(accessManager) {\n        clientId = _clientId;\n    }\n     \n    /** @dev Transfers an amount '_value' of tokens from msg.sender to '_to' address/wallet.\n      * @param populousTokenContract The address of the ERC20 token contract which implements the transfer method.\n      * @param _value the amount of tokens to transfer.\n      * @param _to The address/wallet to send to.\n      * @return success boolean true or false indicating whether the transfer was successful or not.\n      */\n    function transfer(address populousTokenContract, address _to, uint256 _value) public\n        onlyServerOrOnlyPopulous returns (bool success) \n    {\n        return iERC20Token(populousTokenContract).transfer(_to, _value);\n    }\n\n    /** @dev This function will transfer iERC1155 tokens\n     */\n    function transferERC1155(address _erc1155Token, address _to, uint256 _id, uint256 _value) \n        public onlyServerOrOnlyPopulous returns (bool success) {\n        ERC1155(_erc1155Token).safeTransfer(_to, _id, _value, \"\");\n        return true;\n    }\n\n    /**\n    * @notice Handle the receipt of an NFT\n    * @dev The ERC721 smart contract calls this function on the recipient\n    * after a `safetransfer` if the recipient is a smart contract. This function MAY throw to revert and reject the\n    * transfer. Return of other than the magic value (0x150b7a02) MUST result in the\n    * transaction being reverted.\n    * Note: the contract address is always the message sender.\n    * @param _operator The address which called `safeTransferFrom` function\n    * @param _from The address which previously owned the token\n    * @param _tokenId The NFT identifier which is being transferred\n    * @param _data Additional data with no specified format\n    * @return `bytes4(keccak256(\"onERC721Received(address,address,uint256,bytes)\"))`\n    */\n    function onERC721Received(address _operator, address _from, uint256 _tokenId, bytes _data) public returns(bytes4) {\n        return 0x150b7a02; \n    }\n\n    /// @notice Handle the receipt of an ERC1155 type\n    /// @dev The smart contract calls this function on the recipient\n    ///  after a `safeTransfer`. This function MAY throw to revert and reject the\n    ///  transfer. Return of other than the magic value MUST result in the\n    ///  transaction being reverted.\n    ///  Note: the contract address is always the message sender.\n    /// @param _operator The address which called `safeTransferFrom` function\n    /// @param _from The address which previously owned the token\n    /// @param _id The identifier of the item being transferred\n    /// @param _value The amount of the item being transferred\n    /// @param _data Additional data with no specified format\n    /// @return `bytes4(keccak256(\"onERC1155Received(address,address,uint256,uint256,bytes)\"))`\n    ///  unless throwing\n    function onERC1155Received(address _operator, address _from, uint256 _id, uint256 _value, bytes _data) public returns(bytes4) {\n        return 0xf23a6e61;\n    }\n\n    /**\n    * @dev Safely transfers the ownership of a given token ID to another address\n    * If the target address is a contract, it must implement `onERC721Received`,\n    * which is called upon a safe transfer, and return the magic value\n    * `bytes4(keccak256(\"onERC721Received(address,address,uint256,bytes)\"))`; otherwise,\n    * the transfer is reverted.\n    *\n    * Requires the msg sender to be the owner, approved, or operator\n    * @param erc721Token address of the erc721 token to target\n    * @param _to address to receive the ownership of the given token ID\n    * @param _tokenId uint256 ID of the token to be transferred\n    */\n    function transferERC721(\n        address erc721Token,\n        address _to,\n        uint256 _tokenId\n    )\n        public onlyServerOrOnlyPopulous returns (bool success)\n    {\n        // solium-disable-next-line arg-overflow\n        ERC721Basic(erc721Token).safeTransferFrom(this, _to, _tokenId, \"\");\n        return true;\n    }\n\n    /** @dev Transfers ether from this contract to a specified wallet/address\n      * @param _to An address implementing to send ether to.\n      * @param _value The amount of ether to send in wei. \n      * @return bool Successful or unsuccessful transfer\n      */\n    function transferEther(\n        address _to, uint256 _value,\n        uint256 inCollateral,\n        uint256 pptFee, address adminExternalWallet, address pptAddress) \n        public \n        onlyServerOrOnlyPopulous\n    {   \n        require(this.balance >= _value);      \n        require(_to.send(_value) == true);\n        \n        uint256 pptBalance = iERC20Token(pptAddress).balanceOf(this);\n        require(inCollateral <= pptBalance);\n        require((pptBalance - inCollateral) >= pptFee);\n        require(iERC20Token(pptAddress).transfer(adminExternalWallet, pptFee) == true);\n\n        EventEtherTransfer(_to, _value, pptFee, adminExternalWallet);\n        //return true;\n    }\n\n    // payable function to allow this contract receive ether\n    function () public payable {}\n\n    // CONSTANT METHODS\n    \n    /** @dev Returns the ether or token balance of the current contract instance using the ERC20 balanceOf method.\n      * @param populousTokenContract An address implementing the ERC20 token standard. \n      * @return uint An unsigned integer representing the returned token balance.\n      */\n    function balanceOf(address populousTokenContract) public view returns (uint256) {\n        // ether\n        if (populousTokenContract == address(0)) {\n            return address(this).balance;\n        } else {\n            // erc20\n            return iERC20Token(populousTokenContract).balanceOf(this);\n        }\n    }\n\n    /**\n    * @dev Gets the balance of the specified address\n    * @param erc721Token address to erc721 token to target\n    * @return uint256 representing the amount owned by the passed address\n    */\n    function balanceOfERC721(address erc721Token) public view returns (uint256) {\n        return ERC721Basic(erc721Token).balanceOf(this);\n        // returns ownedTokensCount[_owner];\n    }\n\n    /**\n    * @dev Gets the balance of the specified address\n    * @param _id the token id\n    * @param erc1155Token address to erc1155 token to target\n    * @return uint256 representing the amount owned by the passed address\n    */\n    function balanceOfERC1155(address erc1155Token, uint256 _id) external view returns (uint256) {\n        return ERC1155(erc1155Token).balanceOf(_id, this);\n        // returns items[_id].balances[_owner];\n    }\n\n    /** @dev Gets the version of this deposit contract\n      * @return uint256 version\n      */\n    function getVersion() public view returns (uint256) {\n        return version;\n    }\n\n    // CONSTANT FUNCTIONS\n\n    /** @dev This function gets the client ID or deposit contract owner\n     * returns _clientId\n     */\n    function getClientId() public view returns (bytes32 _clientId) {\n        return clientId;\n    }\n}",
  "sourcePath": "/Users/najienka/Desktop/populous-smartcontracts/contracts/DepositContract.sol",
  "schemaVersion": "1.0.0",
  "updatedAt": "2018-12-05T17:58:00.842Z"
}