{
  "contractName": "DepositContract",
  "abi": [
    {
      "constant": false,
      "inputs": [
        {
          "name": "_accessManager",
          "type": "address"
        }
      ],
      "name": "updateAccessManager",
      "outputs": [],
      "payable": false,
      "stateMutability": "nonpayable",
      "type": "function"
    },
    {
      "constant": false,
      "inputs": [
        {
          "name": "_to",
          "type": "address"
        },
        {
          "name": "_value",
          "type": "uint256"
        }
      ],
      "name": "transferEther",
      "outputs": [
        {
          "name": "success",
          "type": "bool"
        }
      ],
      "payable": false,
      "stateMutability": "nonpayable",
      "type": "function"
    },
    {
      "constant": true,
      "inputs": [],
      "name": "getVersion",
      "outputs": [
        {
          "name": "",
          "type": "uint256"
        }
      ],
      "payable": false,
      "stateMutability": "view",
      "type": "function"
    },
    {
      "constant": false,
      "inputs": [
        {
          "name": "_erc1155Token",
          "type": "address"
        },
        {
          "name": "_to",
          "type": "address"
        },
        {
          "name": "_id",
          "type": "uint256"
        },
        {
          "name": "_value",
          "type": "uint256"
        }
      ],
      "name": "transfer1155",
      "outputs": [
        {
          "name": "success",
          "type": "bool"
        }
      ],
      "payable": false,
      "stateMutability": "nonpayable",
      "type": "function"
    },
    {
      "constant": true,
      "inputs": [],
      "name": "getClientId",
      "outputs": [
        {
          "name": "_clientId",
          "type": "bytes32"
        }
      ],
      "payable": false,
      "stateMutability": "view",
      "type": "function"
    },
    {
      "constant": true,
      "inputs": [],
      "name": "version",
      "outputs": [
        {
          "name": "",
          "type": "uint256"
        }
      ],
      "payable": false,
      "stateMutability": "view",
      "type": "function"
    },
    {
      "constant": true,
      "inputs": [],
      "name": "clientId",
      "outputs": [
        {
          "name": "",
          "type": "bytes32"
        }
      ],
      "payable": false,
      "stateMutability": "view",
      "type": "function"
    },
    {
      "constant": true,
      "inputs": [
        {
          "name": "populousTokenContract",
          "type": "address"
        }
      ],
      "name": "balanceOf",
      "outputs": [
        {
          "name": "",
          "type": "uint256"
        }
      ],
      "payable": false,
      "stateMutability": "view",
      "type": "function"
    },
    {
      "constant": false,
      "inputs": [
        {
          "name": "populousTokenContract",
          "type": "address"
        },
        {
          "name": "_to",
          "type": "address"
        },
        {
          "name": "_value",
          "type": "uint256"
        }
      ],
      "name": "transfer",
      "outputs": [
        {
          "name": "success",
          "type": "bool"
        }
      ],
      "payable": false,
      "stateMutability": "nonpayable",
      "type": "function"
    },
    {
      "constant": true,
      "inputs": [],
      "name": "AM",
      "outputs": [
        {
          "name": "",
          "type": "address"
        }
      ],
      "payable": false,
      "stateMutability": "view",
      "type": "function"
    },
    {
      "inputs": [
        {
          "name": "_clientId",
          "type": "bytes32"
        },
        {
          "name": "accessManager",
          "type": "address"
        }
      ],
      "payable": false,
      "stateMutability": "nonpayable",
      "type": "constructor"
    },
    {
      "anonymous": false,
      "inputs": [
        {
          "indexed": false,
          "name": "to",
          "type": "address"
        },
        {
          "indexed": false,
          "name": "value",
          "type": "uint256"
        }
      ],
      "name": "EtherTransfer",
      "type": "event"
    }
  ],
  "bytecode": "0x606060405260028055341561001357600080fd5b60405160408061088e833981016040528080519190602001805160008054600160a060020a03909216600160a060020a0319909216919091179055505060015561082c806100626000396000f300606060405236156100885763ffffffff60e060020a60003504166302ab72c4811461008d57806305b1137b146100ae5780630d8e6e2c146100e457806345b8669914610109578063527fe4131461013457806354fd4d50146101475780636bb3471a1461015a57806370a082311461016d578063beabacc81461018c578063f7f01b4b146101b4575b600080fd5b341561009857600080fd5b6100ac600160a060020a03600435166101e3565b005b34156100b957600080fd5b6100d0600160a060020a0360043516602435610296565b604051901515815260200160405180910390f35b34156100ef57600080fd5b6100f7610436565b60405190815260200160405180910390f35b341561011457600080fd5b6100d0600160a060020a036004358116906024351660443560643561043c565b341561013f57600080fd5b6100f76105be565b341561015257600080fd5b6100f76105c4565b341561016557600080fd5b6100f76105ca565b341561017857600080fd5b6100f7600160a060020a03600435166105d0565b341561019757600080fd5b6100d0600160a060020a036004358116906024351660443561066c565b34156101bf57600080fd5b6101c76107f1565b604051600160a060020a03909116815260200160405180910390f35b60008054600160a060020a03169063fda089589033906040516020015260405160e060020a63ffffffff8416028152600160a060020a039091166004820152602401602060405180830381600087803b151561023e57600080fd5b6102c65a03f1151561024f57600080fd5b50505060405180511515600114905061026757600080fd5b6000805473ffffffffffffffffffffffffffffffffffffffff1916600160a060020a0392909216919091179055565b60008054600160a060020a031663fda0895833836040516020015260405160e060020a63ffffffff8416028152600160a060020a039091166004820152602401602060405180830381600087803b15156102ef57600080fd5b6102c65a03f1151561030057600080fd5b50505060405180511515600114905080610391575060008054600160a060020a0316906305fd22d09033906040516020015260405160e060020a63ffffffff8416028152600160a060020a039091166004820152602401602060405180830381600087803b151561037057600080fd5b6102c65a03f1151561038157600080fd5b5050506040518051151560011490505b151561039c57600080fd5b600160a060020a03301631829010156103b457600080fd5b600160a060020a03831682156108fc0283604051600060405180830381858888f1151560011493506103e99250505057600080fd5b7f1853ca9dc0208799379313b2b43364e45db022f073c72648fbc206dc0bacbcdc8383604051600160a060020a03909216825260208201526040908101905180910390a150600192915050565b60025490565b60008054600160a060020a031663fda0895833836040516020015260405160e060020a63ffffffff8416028152600160a060020a039091166004820152602401602060405180830381600087803b151561049557600080fd5b6102c65a03f115156104a657600080fd5b50505060405180511515600114905080610537575060008054600160a060020a0316906305fd22d09033906040516020015260405160e060020a63ffffffff8416028152600160a060020a039091166004820152602401602060405180830381600087803b151561051657600080fd5b6102c65a03f1151561052757600080fd5b5050506040518051151560011490505b151561054257600080fd5b84600160a060020a031663095bcdb685858560405160e060020a63ffffffff8616028152600160a060020a03909316600484015260248301919091526044820152606401600060405180830381600087803b151561059f57600080fd5b6102c65a03f115156105b057600080fd5b506001979650505050505050565b60015490565b60025481565b60015481565b6000600160a060020a03821615156105f35750600160a060020a03301631610667565b81600160a060020a03166370a082313060006040516020015260405160e060020a63ffffffff8416028152600160a060020a039091166004820152602401602060405180830381600087803b151561064a57600080fd5b6102c65a03f1151561065b57600080fd5b50505060405180519150505b919050565b60008054600160a060020a031663fda0895833836040516020015260405160e060020a63ffffffff8416028152600160a060020a039091166004820152602401602060405180830381600087803b15156106c557600080fd5b6102c65a03f115156106d657600080fd5b50505060405180511515600114905080610767575060008054600160a060020a0316906305fd22d09033906040516020015260405160e060020a63ffffffff8416028152600160a060020a039091166004820152602401602060405180830381600087803b151561074657600080fd5b6102c65a03f1151561075757600080fd5b5050506040518051151560011490505b151561077257600080fd5b83600160a060020a031663a9059cbb848460006040516020015260405160e060020a63ffffffff8516028152600160a060020a0390921660048301526024820152604401602060405180830381600087803b15156107cf57600080fd5b6102c65a03f115156107e057600080fd5b505050604051805195945050505050565b600054600160a060020a0316815600a165627a7a72305820ec4d4e0ac8badf050d0fe188ef02d1da8d9690dc0fbfe93d6b7e52709f0cf44f0029",
  "source": "pragma solidity ^0.4.17;\n\nimport \"./iERC20Token.sol\";\nimport \"./withAccessManager.sol\";\nimport \"./ERC1155.sol\";\n\n\n/// @title DepositContract contract\ncontract DepositContract is withAccessManager {\n\n    bytes32 public clientId; // client ID.\n    uint256 public version = 2;\n\n    // EVENTS\n    event EtherTransfer(address to, uint256 value);\n\n    // NON-CONSTANT METHODS \n\n    /** @dev Constructor that sets the _clientID when the contract is deployed.\n      * @dev The method also sets the manager to the msg.sender.\n      * @param _clientId A string of fixed length representing the client ID.\n      */\n    function DepositContract(bytes32 _clientId, address accessManager) public withAccessManager(accessManager) {\n        clientId = _clientId;\n    }\n     \n    /** @dev Transfers an amount '_value' of tokens from msg.sender to '_to' address/wallet.\n      * @param populousTokenContract The address of the ERC20 token contract which implements the transfer method.\n      * @param _value the amount of tokens to transfer.\n      * @param _to The address/wallet to send to.\n      * @return success boolean true or false indicating whether the transfer was successful or not.\n      */\n    function transfer(address populousTokenContract, address _to, uint256 _value) public\n        onlyServerOrOnlyPopulous returns (bool success) \n    {\n        return iERC20Token(populousTokenContract).transfer(_to, _value);\n    }\n\n    /** @dev This function will transfer iERC1155 tokens\n     */\n    function transfer1155(address _erc1155Token, address _to, uint256 _id, uint256 _value) \n        public onlyServerOrOnlyPopulous returns (bool success) {\n        ERC1155(_erc1155Token).transfer(_to, _id, _value);\n        return true;\n    }\n\n    /** @dev Transfers ether from this contract to a specified wallet/address\n      * @param _to An address implementing to send ether to.\n      * @param _value The amount of ether to send in wei. \n      * @return bool Successful or unsuccessful transfer\n      */\n    function transferEther(address _to, uint256 _value) public \n        onlyServerOrOnlyPopulous returns (bool success) \n    {\n        require(this.balance >= _value);\n        require(_to.send(_value) == true);\n        EtherTransfer(_to, _value);\n        return true;\n    }\n\n    // CONSTANT METHODS\n    \n    /** @dev Returns the token balance of the current contract instance using the ERC20 balanceOf method.\n      * @param populousTokenContract An address implementing the ERC20 token standard. \n      * @return uint An unsigned integer representing the returned token balance.\n      */\n    function balanceOf(address populousTokenContract) public view returns (uint) {\n        // ether\n        if (populousTokenContract == address(0)) {\n            return address(this).balance;\n        } else {\n            // erc20\n            return iERC20Token(populousTokenContract).balanceOf(this);\n        }\n    }\n\n    /** @dev Gets the version of this deposit contract\n      * @return uint256 version\n      */\n    function getVersion() public view returns (uint256) {\n        return version;\n    }\n\n    // CONSTANT FUNCTIONS\n\n    /** @dev This function gets the client ID or deposit contract owner\n     * returns _clientId\n     */\n    function getClientId() public view returns (bytes32 _clientId) {\n        return clientId;\n    }\n}",
  "sourcePath": "/Users/najienka/Desktop/test/populous-smartcontracts/contracts/DepositContract.sol",
  "schemaVersion": "1.0.0",
  "updatedAt": "2018-10-24T16:34:26.748Z"
}