{
  "contractName": "DepositContractsManager",
  "abi": [
    {
      "constant": false,
      "inputs": [
        {
          "name": "_accessManager",
          "type": "address"
        }
      ],
      "name": "updateAccessManager",
      "outputs": [],
      "payable": false,
      "stateMutability": "nonpayable",
      "type": "function"
    },
    {
      "constant": false,
      "inputs": [
        {
          "name": "populousContract",
          "type": "address"
        },
        {
          "name": "clientId",
          "type": "bytes32"
        },
        {
          "name": "populousTokenContract",
          "type": "address"
        },
        {
          "name": "receiveCurrency",
          "type": "bytes32"
        },
        {
          "name": "receiver",
          "type": "address"
        },
        {
          "name": "depositIndex",
          "type": "uint256"
        }
      ],
      "name": "releaseDeposit",
      "outputs": [],
      "payable": false,
      "stateMutability": "nonpayable",
      "type": "function"
    },
    {
      "constant": true,
      "inputs": [
        {
          "name": "clientId",
          "type": "bytes32"
        },
        {
          "name": "populousTokenContract",
          "type": "address"
        },
        {
          "name": "receiveCurrency",
          "type": "bytes32"
        },
        {
          "name": "depositIndex",
          "type": "uint256"
        }
      ],
      "name": "getActiveDeposit",
      "outputs": [
        {
          "name": "",
          "type": "uint256"
        },
        {
          "name": "",
          "type": "uint256"
        },
        {
          "name": "",
          "type": "bool"
        }
      ],
      "payable": false,
      "stateMutability": "view",
      "type": "function"
    },
    {
      "constant": true,
      "inputs": [
        {
          "name": "clientId",
          "type": "bytes32"
        }
      ],
      "name": "getDepositAddress",
      "outputs": [
        {
          "name": "",
          "type": "address"
        }
      ],
      "payable": false,
      "stateMutability": "view",
      "type": "function"
    },
    {
      "constant": false,
      "inputs": [
        {
          "name": "populousContract",
          "type": "address"
        },
        {
          "name": "clientId",
          "type": "bytes32"
        },
        {
          "name": "populousTokenContract",
          "type": "address"
        },
        {
          "name": "receiveCurrency",
          "type": "bytes32"
        },
        {
          "name": "depositAmount",
          "type": "uint256"
        },
        {
          "name": "receiveAmount",
          "type": "uint256"
        }
      ],
      "name": "deposit",
      "outputs": [],
      "payable": false,
      "stateMutability": "nonpayable",
      "type": "function"
    },
    {
      "constant": false,
      "inputs": [
        {
          "name": "clientId",
          "type": "bytes32"
        }
      ],
      "name": "create",
      "outputs": [],
      "payable": false,
      "stateMutability": "nonpayable",
      "type": "function"
    },
    {
      "constant": true,
      "inputs": [
        {
          "name": "clientId",
          "type": "bytes32"
        },
        {
          "name": "populousTokenContract",
          "type": "address"
        }
      ],
      "name": "getActiveDepositList",
      "outputs": [
        {
          "name": "",
          "type": "uint256"
        },
        {
          "name": "",
          "type": "uint256"
        }
      ],
      "payable": false,
      "stateMutability": "view",
      "type": "function"
    },
    {
      "constant": true,
      "inputs": [
        {
          "name": "clientId",
          "type": "bytes32"
        },
        {
          "name": "populousTokenContract",
          "type": "address"
        }
      ],
      "name": "getTotalDeposited",
      "outputs": [
        {
          "name": "",
          "type": "uint256"
        }
      ],
      "payable": false,
      "stateMutability": "view",
      "type": "function"
    },
    {
      "constant": true,
      "inputs": [],
      "name": "AM",
      "outputs": [
        {
          "name": "",
          "type": "address"
        }
      ],
      "payable": false,
      "stateMutability": "view",
      "type": "function"
    },
    {
      "inputs": [
        {
          "name": "_accessManager",
          "type": "address"
        }
      ],
      "payable": false,
      "stateMutability": "nonpayable",
      "type": "constructor"
    },
    {
      "anonymous": false,
      "inputs": [
        {
          "indexed": false,
          "name": "clientId",
          "type": "bytes32"
        },
        {
          "indexed": false,
          "name": "depositContractAddress",
          "type": "address"
        }
      ],
      "name": "EventNewDepositContract",
      "type": "event"
    },
    {
      "anonymous": false,
      "inputs": [
        {
          "indexed": false,
          "name": "clientId",
          "type": "bytes32"
        },
        {
          "indexed": false,
          "name": "populousTokenContract",
          "type": "address"
        },
        {
          "indexed": false,
          "name": "receiveCurrency",
          "type": "bytes32"
        },
        {
          "indexed": false,
          "name": "deposited",
          "type": "uint256"
        },
        {
          "indexed": false,
          "name": "received",
          "type": "uint256"
        },
        {
          "indexed": false,
          "name": "depositIndex",
          "type": "uint256"
        }
      ],
      "name": "EventNewDeposit",
      "type": "event"
    },
    {
      "anonymous": false,
      "inputs": [
        {
          "indexed": false,
          "name": "clientId",
          "type": "bytes32"
        },
        {
          "indexed": false,
          "name": "populousTokenContract",
          "type": "address"
        },
        {
          "indexed": false,
          "name": "releaseCurrency",
          "type": "bytes32"
        },
        {
          "indexed": false,
          "name": "deposited",
          "type": "uint256"
        },
        {
          "indexed": false,
          "name": "received",
          "type": "uint256"
        },
        {
          "indexed": false,
          "name": "depositIndex",
          "type": "uint256"
        }
      ],
      "name": "EventDepositReleased",
      "type": "event"
    }
  ],
  "bytecode": "0x6060604052341561000f57600080fd5b60405160208061157e8339810160405280805160008054600160a060020a03909216600160a060020a0319909216919091179055505061152a806100546000396000f3006060604052361561007d5763ffffffff60e060020a60003504166302ab72c48114610082578063174ebd17146100a35780631abc3632146100d95780632a01a451146101275780632f513df5146101595780637368a8ce1461018b5780639ee5dba7146101a1578063d9c6aee8146101db578063f7f01b4b1461020f575b600080fd5b341561008d57600080fd5b6100a1600160a060020a0360043516610222565b005b34156100ae57600080fd5b6100a1600160a060020a0360043581169060243590604435811690606435906084351660a4356102d5565b34156100e457600080fd5b610101600435600160a060020a03602435166044356064356108ea565b604051928352602083019190915215156040808301919091526060909101905180910390f35b341561013257600080fd5b61013d600435610a0c565b604051600160a060020a03909116815260200160405180910390f35b341561016457600080fd5b6100a1600160a060020a03600435811690602435906044351660643560843560a435610a27565b341561019657600080fd5b6100a1600435610e38565b34156101ac57600080fd5b6101c3600435600160a060020a0360243516610f9d565b60405191825260208201526040908101905180910390f35b34156101e657600080fd5b6101fd600435600160a060020a0360243516610fca565b60405190815260200160405180910390f35b341561021a57600080fd5b61013d610ff3565b60008054600160a060020a03169063fda089589033906040516020015260405160e060020a63ffffffff8416028152600160a060020a039091166004820152602401602060405180830381600087803b151561027d57600080fd5b6102c65a03f1151561028e57600080fd5b5050506040518051151560011490506102a657600080fd5b6000805473ffffffffffffffffffffffffffffffffffffffff1916600160a060020a0392909216919091179055565b60008054819081908190600160a060020a031663fda0895833836040516020015260405160e060020a63ffffffff8416028152600160a060020a039091166004820152602401602060405180830381600087803b151561033457600080fd5b6102c65a03f1151561034557600080fd5b50505060405180511515600114905061035d57600080fd5b60008981526002602090815260408083205460018352818420600160a060020a038d811686529352922080549190921695508b94508690811061039c57fe5b90600052602060002090600402016001015483600160a060020a0316637f84ceec898c60006040516020015260405160e060020a63ffffffff851602815260048101929092526024820152604401602060405180830381600087803b151561040357600080fd5b6102c65a03f1151561041457600080fd5b505050604051805190501015151561042b57600080fd5b6000898152600160209081526040808320600160a060020a038c168452909152902080548690811061045957fe5b9060005260206000209060040201600001546000141580156104bd57506000898152600160209081526040808320600160a060020a038c16845290915290208054869081106104a457fe5b600091825260209091206003600490920201015460ff16155b801561050d57506000898152600160209081526040808320600160a060020a038c16845290915290208054889190879081106104f557fe5b90600052602060002090600402016002015460001916145b156108de576000898152600160208181526040808420600160a060020a038d16855290915290912080548790811061054157fe5b60009182526020808320600492909202909101600301805460ff1916931515939093179092558a815260018083526040808320600160a060020a038d1684529093529190209081015481546105b292908890811061059b57fe5b906000526020600020906004020160000154611002565b60008a8152600160208181526040808420600160a060020a038e8116865292529092209081019290925581549086169163beabacc8918b918a918a9081106105f657fe5b90600052602060002090600402016000015460006040516020015260405160e060020a63ffffffff8616028152600160a060020a0393841660048201529190921660248201526044810191909152606401602060405180830381600087803b151561066057600080fd5b6102c65a03f1151561067157600080fd5b50505060405180511515600114905061068957600080fd5b6000898152600160209081526040808320600160a060020a038c16845290915290208054869081106106b757fe5b600091825260208083206004909202909101548b8352600182526040808420600160a060020a038d1685529092529120805491935090869081106106f757fe5b906000526020600020906004020160010154905082600160a060020a0316635e63067f888b86600160a060020a0316636123db816000604051602001526040518163ffffffff1660e060020a028152600401602060405180830381600087803b151561076257600080fd5b6102c65a03f1151561077357600080fd5b505050604051805190508560006040516020015260405160e060020a63ffffffff87160281526004810194909452602484019290925260448301526064820152608401602060405180830381600087803b15156107cf57600080fd5b6102c65a03f115156107e057600080fd5b5050506040518051151560011490506107f857600080fd5b82600160a060020a031663db86e0cb888360006040516020015260405160e060020a63ffffffff851602815260048101929092526024820152604401602060405180830381600087803b151561084d57600080fd5b6102c65a03f1151561085e57600080fd5b50505060405180511515600114905061087657600080fd5b7fbc56f62e82bebdc69f74f6678f58f9e76155da7a0b9fc8c70bb9cf65dbbc772f89898985858a604051958652600160a060020a0390941660208601526040808601939093526060850191909152608084015260a083019190915260c0909101905180910390a15b50505050505050505050565b6000848152600160209081526040808320600160a060020a038716845290915281208054829182918691908690811061091f57fe5b906000526020600020906004020160020154600019161415610a02576000878152600160209081526040808320600160a060020a038a168452909152902080548590811061096957fe5b60009182526020808320600490920290910154898352600182526040808420600160a060020a038b16855290925291208054869081106109a557fe5b6000918252602080832060016004909302018201548b84529181526040808420600160a060020a038c1685529091529091208054879081106109e357fe5b6000918252602090912060036004909202010154919450925060ff1690505b9450945094915050565b600090815260026020526040902054600160a060020a031690565b6000805481908190600160a060020a031663fda0895833836040516020015260405160e060020a63ffffffff8416028152600160a060020a039091166004820152602401602060405180830381600087803b1515610a8457600080fd5b6102c65a03f11515610a9557600080fd5b505050604051805115156001149050610aad57600080fd5b60008881526002602052604080822054600160a060020a031694508691610b7e9186916370a08231918c9190516020015260405160e060020a63ffffffff8416028152600160a060020a039091166004820152602401602060405180830381600087803b1515610b1c57600080fd5b6102c65a03f11515610b2d57600080fd5b50505060405180519050600160008c6000191660001916815260200190815260200160002060008b600160a060020a0316600160a060020a0316815260200190815260200160002060010154611002565b1415610e2d576000888152600160208181526040808420600160a060020a038c168552909152909120805490918101610bb78382611038565b91600052602060002090600402016000608060405190810160409081528982526020820189905281018a9052600060608201529190508151815560208201518160010155604082015160028201556060820151600391909101805460ff191691151591909117905550506000888152600160208181526040808420600160a060020a038c1685529091529091200154610c509086611014565b6000898152600160208181526040808420600160a060020a038d8116865292528084209283019490945590548c955060001901935084169163af8d309e918991889190516020015260405160e060020a63ffffffff851602815260048101929092526024820152604401602060405180830381600087803b1515610cd357600080fd5b6102c65a03f11515610ce457600080fd5b50505060405180515050600160a060020a038216635e63067f8782636123db816000604051602001526040518163ffffffff1660e060020a028152600401602060405180830381600087803b1515610d3b57600080fd5b6102c65a03f11515610d4c57600080fd5b505050604051805190508b8860006040516020015260405160e060020a63ffffffff87160281526004810194909452602484019290925260448301526064820152608401602060405180830381600087803b1515610da957600080fd5b6102c65a03f11515610dba57600080fd5b50505060405180519050507ff120c283702a0153dde599235e898e3273954cc6f34256add8928e4b51c8b639888888888886604051958652600160a060020a0390941660208601526040808601939093526060850191909152608084015260a083019190915260c0909101905180910390a15b505050505050505050565b60008054600160a060020a03169063fda089589033906040516020015260405160e060020a63ffffffff8416028152600160a060020a039091166004820152602401602060405180830381600087803b1515610e9357600080fd5b6102c65a03f11515610ea457600080fd5b505050604051805115156001149050610ebc57600080fd5b6000548190600160a060020a0316610ed2611069565b918252600160a060020a0316602082015260409081019051809103906000f0801515610efd57600080fd5b6000828152600260205260409020805473ffffffffffffffffffffffffffffffffffffffff1916600160a060020a039283161790819055161515610f3d57fe5b60008181526002602052604090819020547f331e8d7fbf36512cd5eb514f38db31465c8f937497c179aa3eda3250125028fc918391600160a060020a03169051918252600160a060020a031660208201526040908101905180910390a150565b6000918252600160208181526040808520600160a060020a03949094168552929052912080549101549091565b6000918252600160208181526040808520600160a060020a039490941685529290529120015490565b600054600160a060020a031681565b60008282111561100e57fe5b50900390565b60008282018381108015906110295750828110155b151561103157fe5b9392505050565b815481835581811511611064576004028160040283600052602060002091820191016110649190611079565b505050565b60405161044b806110b483390190565b6110b091905b808211156110ac57600080825560018201819055600282015560038101805460ff1916905560040161107f565b5090565b9056006060604052341561000f57600080fd5b60405160408061044b833981016040528080519190602001805160008054600160a060020a03909216600160a060020a031990921691909117905550506001556103ed8061005e6000396000f300606060405263ffffffff60e060020a60003504166302ab72c4811461004457806370a0823114610065578063beabacc814610096578063f7f01b4b146100d257600080fd5b341561004f57600080fd5b610063600160a060020a0360043516610101565b005b341561007057600080fd5b610084600160a060020a03600435166101b4565b60405190815260200160405180910390f35b34156100a157600080fd5b6100be600160a060020a036004358116906024351660443561022d565b604051901515815260200160405180910390f35b34156100dd57600080fd5b6100e56103b2565b604051600160a060020a03909116815260200160405180910390f35b60008054600160a060020a03169063fda089589033906040516020015260405160e060020a63ffffffff8416028152600160a060020a039091166004820152602401602060405180830381600087803b151561015c57600080fd5b6102c65a03f1151561016d57600080fd5b50505060405180511515600114905061018557600080fd5b6000805473ffffffffffffffffffffffffffffffffffffffff1916600160a060020a0392909216919091179055565b600081600160a060020a03166370a082313060006040516020015260405160e060020a63ffffffff8416028152600160a060020a039091166004820152602401602060405180830381600087803b151561020d57600080fd5b6102c65a03f1151561021e57600080fd5b50505060405180519392505050565b60008054600160a060020a031663fda0895833836040516020015260405160e060020a63ffffffff8416028152600160a060020a039091166004820152602401602060405180830381600087803b151561028657600080fd5b6102c65a03f1151561029757600080fd5b50505060405180511515600114905080610328575060008054600160a060020a03169063a6d286939033906040516020015260405160e060020a63ffffffff8416028152600160a060020a039091166004820152602401602060405180830381600087803b151561030757600080fd5b6102c65a03f1151561031857600080fd5b5050506040518051151560011490505b151561033357600080fd5b83600160a060020a031663a9059cbb848460006040516020015260405160e060020a63ffffffff8516028152600160a060020a0390921660048301526024820152604401602060405180830381600087803b151561039057600080fd5b6102c65a03f115156103a157600080fd5b505050604051805195945050505050565b600054600160a060020a0316815600a165627a7a7230582045edea2f886a7db073011201e2ddfdec3ba18912d03ccefdfd72d07f8e96a9660029a165627a7a723058201fe47b48dfbeeffdb3e22ae4b663ac05bf4f669cb9e67246d68338cc519d2ded0029",
  "source": "pragma solidity ^0.4.17;\n\nimport \"./SafeMath.sol\";\nimport \"./withAccessManager.sol\";\nimport \"./DepositContract.sol\";\nimport \"./Populous.sol\";\n\n\n/// @title DepositCountractsManager contract\ncontract DepositContractsManager is withAccessManager {\n\n     // PPT deposits events\n    event EventNewDepositContract(bytes32 clientId, address depositContractAddress);\n    event EventNewDeposit(bytes32 clientId, address populousTokenContract, bytes32 receiveCurrency, uint deposited, uint received, uint depositIndex);\n    event EventDepositReleased(bytes32 clientId, address populousTokenContract, bytes32 releaseCurrency, uint deposited, uint received, uint depositIndex);\n\n    // FIELDS\n\n    // This variable represents deposits \n    // and their related information i.e., amount deposited and received\n    // and a boolean isReleased indicating whether the deposit has been released.\n    struct Deposit {\n        uint deposited;\n        uint received;\n        bytes32 currency;\n        bool isReleased;\n    }\n\n    // This variable will be used to store a list of deposits\n    // together with the total amount deposited and received for a deposit contract.\n    struct DepositList {\n        Deposit[] list;\n        uint totalDeposited;\n    }\n\n    // clientId => populousTokenContract => DepositList\n    mapping (bytes32 => mapping(address => DepositList)) deposits;\n\n    // This variable will be used to keep track of client IDs and\n    // their deposit addresses\n    // clientId => depositAddress\n    mapping (bytes32 => address) depositAddress;\n\n\n    // NON-CONSTANT METHODS\n\n    // The constructor method called when this contract instance is deployed \n    // using a modifier the _accessManager address\n    function DepositContractsManager(address _accessManager) public\n        withAccessManager(_accessManager) { }\n\n    /** @dev Creates a new 'depositAddress' gotten from deploying a deposit contract linked to a client ID\n      * @param clientId The bytes32 client ID\n      * @return address The address of the deployed deposit contract instance.\n      */\n    function create(bytes32 clientId) public\n        onlyServer\n    {\n        depositAddress[clientId] = new DepositContract(clientId, AM);\n        assert(depositAddress[clientId] != 0x0);\n\n        EventNewDepositContract(clientId, depositAddress[clientId]);\n    }\n\n    /** @dev Deposits an amount of tokens linked to a client ID.\n      * @param clientId The client ID.\n      * @param populousTokenContract The token contract.\n      * @param receiveCurrency The currency symbol.\n      * @param depositAmount The deposit amount.\n      * @param receiveAmount The receive amount.\n      * @return bool boolean value indicating whether or not a deposit transaction has been made with success.\n      * @return uint The updated number of deposits.\n      */\n    function deposit(address populousContract, bytes32 clientId, address populousTokenContract, bytes32 receiveCurrency, uint depositAmount, uint receiveAmount)\n        public\n        onlyServer\n    {\n        DepositContract o = DepositContract(depositAddress[clientId]);\n\n        if (SafeMath.safeSub(o.balanceOf(populousTokenContract), deposits[clientId][populousTokenContract].totalDeposited) == depositAmount) {\n            // save new deposit info\n            deposits[clientId][populousTokenContract].list.push(Deposit(depositAmount, receiveAmount, receiveCurrency, false));\n\n            // update totals\n            deposits[clientId][populousTokenContract].totalDeposited = SafeMath.safeAdd(\n                deposits[clientId][populousTokenContract].totalDeposited,\n                depositAmount\n            );\n            \n            //success\n            Populous populous = Populous(populousContract);\n\n            uint depositIndex = deposits[clientId][populousTokenContract].list.length - 1;\n\n            populous.mintTokens(receiveCurrency, receiveAmount);\n            populous.transfer(receiveCurrency, populous.getLedgerSystemAccount(), clientId, receiveAmount);\n\n            EventNewDeposit(clientId, populousTokenContract, receiveCurrency, depositAmount, receiveAmount, depositIndex);\n\n        }\n    }\n\n    /** @dev Releases a deposit to an address/wallet.\n      * @param clientId The client ID.\n      * @param populousTokenContract The token contract.\n      * @param receiveCurrency The currency symbol.\n      * @param receiver The address/wallet of the receiver.\n      * @param depositIndex The index/location of a specific deposit in the declared deposit list above.\n      * @return bool boolean value indicating whether or not a deposit has been updated with success.\n      * @return uint The token amount deposited.\n      * @return uint The token amount received.\n      */\n    function releaseDeposit(address populousContract, bytes32 clientId, address populousTokenContract, bytes32 receiveCurrency, address receiver, uint depositIndex)\n        public\n        onlyServer\n    {\n        DepositContract o = DepositContract(depositAddress[clientId]);\n        Populous populous = Populous(populousContract);\n\n        require(populous.getLedgerEntry(receiveCurrency, clientId) >= deposits[clientId][populousTokenContract].list[depositIndex].received);\n\n\n        if (deposits[clientId][populousTokenContract].list[depositIndex].deposited != 0 && \n            deposits[clientId][populousTokenContract].list[depositIndex].isReleased == false &&\n            deposits[clientId][populousTokenContract].list[depositIndex].currency == receiveCurrency\n        ) {\n            deposits[clientId][populousTokenContract].list[depositIndex].isReleased = true;\n\n            // update totals\n            deposits[clientId][populousTokenContract].totalDeposited = SafeMath.safeSub(\n                deposits[clientId][populousTokenContract].totalDeposited,\n                deposits[clientId][populousTokenContract].list[depositIndex].deposited\n            );\n                      \n            //success\n            \n            require(o.transfer(populousTokenContract, receiver, deposits[clientId][populousTokenContract].list[depositIndex].deposited) == true);\n\n            uint deposited = deposits[clientId][populousTokenContract].list[depositIndex].deposited;\n            uint received = deposits[clientId][populousTokenContract].list[depositIndex].received;\n\n            require(populous.transfer(receiveCurrency, clientId, populous.getLedgerSystemAccount(), received) == true);\n            require(populous.destroyTokens(receiveCurrency, received) == true);\n\n            EventDepositReleased(clientId, populousTokenContract, receiveCurrency, deposited, received, depositIndex);\n\n        }\n    }\n\n\n    // CONSTANT METHODS\n\n    function getTotalDeposited(bytes32 clientId, address populousTokenContract) \n        public \n        view returns (uint) \n    {\n        return deposits[clientId][populousTokenContract].totalDeposited;\n    }\n\n    /** @dev Gets the deposit address linked to a given client ID.\n      * @param clientId The client ID.\n      * @return address The deposit address.\n      */\n    function getDepositAddress(bytes32 clientId) public view returns (address) {\n        return depositAddress[clientId];\n    }\n\n    /** @dev Gets the deposit address linked to a given client ID.\n      * @param clientId The client ID.\n      * @param populousTokenContract The token contract\n      * @return uint The length of a deposit list linked to the client ID, token contract and currency.\n      * @return uint The token amount deposited.\n      */\n    function getActiveDepositList(bytes32 clientId, address populousTokenContract) \n        public \n        view returns (uint, uint)\n    {\n        return (\n            deposits[clientId][populousTokenContract].list.length,\n            deposits[clientId][populousTokenContract].totalDeposited\n        );\n    }\n\n    /** @dev Gets the details of a deposit.\n      * @param clientId The client ID.\n      * @param populousTokenContract The token contract.\n      * @param receiveCurrency The currency symbol.\n      * @param depositIndex The ID of a particular deposit in a deposit list.\n      * @return uint Deposited amount.\n      * @return uint Received amount.\n      * @return bool Boolean value to indicate if deposit is released or not.\n      */\n    function getActiveDeposit(bytes32 clientId, address populousTokenContract, bytes32 receiveCurrency, uint depositIndex) \n        public \n        view returns (uint, uint, bool) \n    {\n        if (deposits[clientId][populousTokenContract].list[depositIndex].currency == receiveCurrency) {\n            return (\n                deposits[clientId][populousTokenContract].list[depositIndex].deposited,\n                deposits[clientId][populousTokenContract].list[depositIndex].received,\n                deposits[clientId][populousTokenContract].list[depositIndex].isReleased\n            );\n        }\n    }\n\n\n}",
  "sourcePath": "/Users/najienka/Desktop/populous-smartcontracts/contracts/DepositContractsManager.sol",
  "schemaVersion": "1.0.0",
  "updatedAt": "2018-02-05T13:20:05.611Z"
}