{
  "contractName": "DepositContract",
  "abi": [
    {
      "constant": false,
      "inputs": [
        {
          "name": "_accessManager",
          "type": "address"
        }
      ],
      "name": "updateAccessManager",
      "outputs": [],
      "payable": false,
      "stateMutability": "nonpayable",
      "type": "function"
    },
    {
      "constant": false,
      "inputs": [
        {
          "name": "_to",
          "type": "address"
        },
        {
          "name": "_value",
          "type": "uint256"
        }
      ],
      "name": "transferEther",
      "outputs": [
        {
          "name": "success",
          "type": "bool"
        }
      ],
      "payable": false,
      "stateMutability": "nonpayable",
      "type": "function"
    },
    {
      "constant": true,
      "inputs": [],
      "name": "getVersion",
      "outputs": [
        {
          "name": "",
          "type": "uint256"
        }
      ],
      "payable": false,
      "stateMutability": "view",
      "type": "function"
    },
    {
      "constant": false,
      "inputs": [
        {
          "name": "_operator",
          "type": "address"
        },
        {
          "name": "_from",
          "type": "address"
        },
        {
          "name": "_tokenId",
          "type": "uint256"
        },
        {
          "name": "_data",
          "type": "bytes"
        }
      ],
      "name": "onERC721Received",
      "outputs": [
        {
          "name": "",
          "type": "bytes4"
        }
      ],
      "payable": false,
      "stateMutability": "nonpayable",
      "type": "function"
    },
    {
      "constant": false,
      "inputs": [
        {
          "name": "erc721Token",
          "type": "address"
        },
        {
          "name": "_to",
          "type": "address"
        },
        {
          "name": "_tokenId",
          "type": "uint256"
        }
      ],
      "name": "transferERC721",
      "outputs": [
        {
          "name": "success",
          "type": "bool"
        }
      ],
      "payable": false,
      "stateMutability": "nonpayable",
      "type": "function"
    },
    {
      "constant": true,
      "inputs": [
        {
          "name": "erc1155Token",
          "type": "address"
        },
        {
          "name": "_id",
          "type": "uint256"
        }
      ],
      "name": "balanceOfERC1155",
      "outputs": [
        {
          "name": "",
          "type": "uint256"
        }
      ],
      "payable": false,
      "stateMutability": "view",
      "type": "function"
    },
    {
      "constant": false,
      "inputs": [
        {
          "name": "_erc1155Token",
          "type": "address"
        },
        {
          "name": "_to",
          "type": "address"
        },
        {
          "name": "_id",
          "type": "uint256"
        },
        {
          "name": "_value",
          "type": "uint256"
        }
      ],
      "name": "transfer1155",
      "outputs": [
        {
          "name": "success",
          "type": "bool"
        }
      ],
      "payable": false,
      "stateMutability": "nonpayable",
      "type": "function"
    },
    {
      "constant": true,
      "inputs": [
        {
          "name": "erc721Token",
          "type": "address"
        }
      ],
      "name": "balanceOfERC721",
      "outputs": [
        {
          "name": "",
          "type": "uint256"
        }
      ],
      "payable": false,
      "stateMutability": "view",
      "type": "function"
    },
    {
      "constant": true,
      "inputs": [],
      "name": "getClientId",
      "outputs": [
        {
          "name": "_clientId",
          "type": "bytes32"
        }
      ],
      "payable": false,
      "stateMutability": "view",
      "type": "function"
    },
    {
      "constant": true,
      "inputs": [],
      "name": "version",
      "outputs": [
        {
          "name": "",
          "type": "uint256"
        }
      ],
      "payable": false,
      "stateMutability": "view",
      "type": "function"
    },
    {
      "constant": true,
      "inputs": [],
      "name": "clientId",
      "outputs": [
        {
          "name": "",
          "type": "bytes32"
        }
      ],
      "payable": false,
      "stateMutability": "view",
      "type": "function"
    },
    {
      "constant": true,
      "inputs": [
        {
          "name": "populousTokenContract",
          "type": "address"
        }
      ],
      "name": "balanceOf",
      "outputs": [
        {
          "name": "",
          "type": "uint256"
        }
      ],
      "payable": false,
      "stateMutability": "view",
      "type": "function"
    },
    {
      "constant": false,
      "inputs": [
        {
          "name": "populousTokenContract",
          "type": "address"
        },
        {
          "name": "_to",
          "type": "address"
        },
        {
          "name": "_value",
          "type": "uint256"
        }
      ],
      "name": "transfer",
      "outputs": [
        {
          "name": "success",
          "type": "bool"
        }
      ],
      "payable": false,
      "stateMutability": "nonpayable",
      "type": "function"
    },
    {
      "constant": true,
      "inputs": [],
      "name": "AM",
      "outputs": [
        {
          "name": "",
          "type": "address"
        }
      ],
      "payable": false,
      "stateMutability": "view",
      "type": "function"
    },
    {
      "inputs": [
        {
          "name": "_clientId",
          "type": "bytes32"
        },
        {
          "name": "accessManager",
          "type": "address"
        }
      ],
      "payable": false,
      "stateMutability": "nonpayable",
      "type": "constructor"
    },
    {
      "anonymous": false,
      "inputs": [
        {
          "indexed": false,
          "name": "to",
          "type": "address"
        },
        {
          "indexed": false,
          "name": "value",
          "type": "uint256"
        }
      ],
      "name": "EtherTransfer",
      "type": "event"
    }
  ],
  "bytecode": "0x606060405260028055341561001357600080fd5b604051604080610c7f833981016040528080519190602001805160008054600160a060020a03909216600160a060020a03199092169190911790555050600155610c1d806100626000396000f300606060405236156100b45763ffffffff60e060020a60003504166302ab72c481146100b957806305b1137b146100da5780630d8e6e2c14610110578063150b7a02146101355780631aca6376146101d6578063418ae269146101fe57806345b8669914610220578063468f26221461024b578063527fe4131461026a57806354fd4d501461027d5780636bb3471a1461029057806370a08231146102a3578063beabacc8146102c2578063f7f01b4b146102ea575b600080fd5b34156100c457600080fd5b6100d8600160a060020a0360043516610319565b005b34156100e557600080fd5b6100fc600160a060020a03600435166024356103cc565b604051901515815260200160405180910390f35b341561011b57600080fd5b61012361056c565b60405190815260200160405180910390f35b341561014057600080fd5b6101a1600160a060020a036004803582169160248035909116916044359160849060643590810190830135806020601f8201819004810201604051908101604052818152929190602084018383808284375094965061057295505050505050565b6040517fffffffff00000000000000000000000000000000000000000000000000000000909116815260200160405180910390f35b34156101e157600080fd5b6100fc600160a060020a036004358116906024351660443561059b565b341561020957600080fd5b610123600160a060020a0360043516602435610731565b341561022b57600080fd5b6100fc600160a060020a03600435811690602435166044356064356107b2565b341561025657600080fd5b610123600160a060020a0360043516610934565b341561027557600080fd5b6101236109af565b341561028857600080fd5b6101236109b5565b341561029b57600080fd5b6101236109bb565b34156102ae57600080fd5b610123600160a060020a03600435166109c1565b34156102cd57600080fd5b6100fc600160a060020a0360043581169060243516604435610a5d565b34156102f557600080fd5b6102fd610be2565b604051600160a060020a03909116815260200160405180910390f35b60008054600160a060020a03169063fda089589033906040516020015260405160e060020a63ffffffff8416028152600160a060020a039091166004820152602401602060405180830381600087803b151561037457600080fd5b6102c65a03f1151561038557600080fd5b50505060405180511515600114905061039d57600080fd5b6000805473ffffffffffffffffffffffffffffffffffffffff1916600160a060020a0392909216919091179055565b60008054600160a060020a031663fda0895833836040516020015260405160e060020a63ffffffff8416028152600160a060020a039091166004820152602401602060405180830381600087803b151561042557600080fd5b6102c65a03f1151561043657600080fd5b505050604051805115156001149050806104c7575060008054600160a060020a0316906305fd22d09033906040516020015260405160e060020a63ffffffff8416028152600160a060020a039091166004820152602401602060405180830381600087803b15156104a657600080fd5b6102c65a03f115156104b757600080fd5b5050506040518051151560011490505b15156104d257600080fd5b600160a060020a03301631829010156104ea57600080fd5b600160a060020a03831682156108fc0283604051600060405180830381858888f11515600114935061051f9250505057600080fd5b7f1853ca9dc0208799379313b2b43364e45db022f073c72648fbc206dc0bacbcdc8383604051600160a060020a03909216825260208201526040908101905180910390a150600192915050565b60025490565b7f150b7a0200000000000000000000000000000000000000000000000000000000949350505050565b60008054600160a060020a031663fda0895833836040516020015260405160e060020a63ffffffff8416028152600160a060020a039091166004820152602401602060405180830381600087803b15156105f457600080fd5b6102c65a03f1151561060557600080fd5b50505060405180511515600114905080610696575060008054600160a060020a0316906305fd22d09033906040516020015260405160e060020a63ffffffff8416028152600160a060020a039091166004820152602401602060405180830381600087803b151561067557600080fd5b6102c65a03f1151561068657600080fd5b5050506040518051151560011490505b15156106a157600080fd5b83600160a060020a031663b88d4fde30858560405160e060020a63ffffffff8616028152600160a060020a03938416600482015291909216602482015260448101919091526080606482015260006084820181905260c49091019060405180830381600087803b151561071357600080fd5b6102c65a03f1151561072457600080fd5b5060019695505050505050565b600082600160a060020a0316633656eec2833060006040516020015260405160e060020a63ffffffff85160281526004810192909252600160a060020a03166024820152604401602060405180830381600087803b151561079157600080fd5b6102c65a03f115156107a257600080fd5b5050506040518051949350505050565b60008054600160a060020a031663fda0895833836040516020015260405160e060020a63ffffffff8416028152600160a060020a039091166004820152602401602060405180830381600087803b151561080b57600080fd5b6102c65a03f1151561081c57600080fd5b505050604051805115156001149050806108ad575060008054600160a060020a0316906305fd22d09033906040516020015260405160e060020a63ffffffff8416028152600160a060020a039091166004820152602401602060405180830381600087803b151561088c57600080fd5b6102c65a03f1151561089d57600080fd5b5050506040518051151560011490505b15156108b857600080fd5b84600160a060020a031663095bcdb685858560405160e060020a63ffffffff8616028152600160a060020a03909316600484015260248301919091526044820152606401600060405180830381600087803b151561091557600080fd5b6102c65a03f1151561092657600080fd5b506001979650505050505050565b600081600160a060020a03166370a082313060006040516020015260405160e060020a63ffffffff8416028152600160a060020a039091166004820152602401602060405180830381600087803b151561098d57600080fd5b6102c65a03f1151561099e57600080fd5b50505060405180519150505b919050565b60015490565b60025481565b60015481565b6000600160a060020a03821615156109e45750600160a060020a033016316109aa565b81600160a060020a03166370a082313060006040516020015260405160e060020a63ffffffff8416028152600160a060020a039091166004820152602401602060405180830381600087803b1515610a3b57600080fd5b6102c65a03f11515610a4c57600080fd5b5050506040518051905090506109aa565b60008054600160a060020a031663fda0895833836040516020015260405160e060020a63ffffffff8416028152600160a060020a039091166004820152602401602060405180830381600087803b1515610ab657600080fd5b6102c65a03f11515610ac757600080fd5b50505060405180511515600114905080610b58575060008054600160a060020a0316906305fd22d09033906040516020015260405160e060020a63ffffffff8416028152600160a060020a039091166004820152602401602060405180830381600087803b1515610b3757600080fd5b6102c65a03f11515610b4857600080fd5b5050506040518051151560011490505b1515610b6357600080fd5b83600160a060020a031663a9059cbb848460006040516020015260405160e060020a63ffffffff8516028152600160a060020a0390921660048301526024820152604401602060405180830381600087803b1515610bc057600080fd5b6102c65a03f11515610bd157600080fd5b505050604051805195945050505050565b600054600160a060020a0316815600a165627a7a72305820cb903df8d8e53441b61e58d6a62764a82f5bd2a65517eed0eec3b18f1e3015c90029",
  "source": "pragma solidity ^0.4.17;\n\nimport \"./iERC20Token.sol\";\nimport \"./withAccessManager.sol\";\nimport \"./ERC1155.sol\";\nimport \"./ERC721Basic.sol\";\n\n\n/// @title DepositContract contract\ncontract DepositContract is withAccessManager {\n\n    bytes32 public clientId; // client ID.\n    uint256 public version = 2;\n\n    // EVENTS\n    event EtherTransfer(address to, uint256 value);\n\n    // NON-CONSTANT METHODS \n\n    /** @dev Constructor that sets the _clientID when the contract is deployed.\n      * @dev The method also sets the manager to the msg.sender.\n      * @param _clientId A string of fixed length representing the client ID.\n      */\n    function DepositContract(bytes32 _clientId, address accessManager) public withAccessManager(accessManager) {\n        clientId = _clientId;\n    }\n     \n    /** @dev Transfers an amount '_value' of tokens from msg.sender to '_to' address/wallet.\n      * @param populousTokenContract The address of the ERC20 token contract which implements the transfer method.\n      * @param _value the amount of tokens to transfer.\n      * @param _to The address/wallet to send to.\n      * @return success boolean true or false indicating whether the transfer was successful or not.\n      */\n    function transfer(address populousTokenContract, address _to, uint256 _value) public\n        onlyServerOrOnlyPopulous returns (bool success) \n    {\n        return iERC20Token(populousTokenContract).transfer(_to, _value);\n    }\n\n    /** @dev This function will transfer iERC1155 tokens\n     */\n    function transfer1155(address _erc1155Token, address _to, uint256 _id, uint256 _value) \n        public onlyServerOrOnlyPopulous returns (bool success) {\n        ERC1155(_erc1155Token).transfer(_to, _id, _value);\n        return true;\n    }\n\n\n    /**\n    * @notice Handle the receipt of an NFT\n    * @dev The ERC721 smart contract calls this function on the recipient\n    * after a `safetransfer` if the recipient is a smart contract. This function MAY throw to revert and reject the\n    * transfer. Return of other than the magic value (0x150b7a02) MUST result in the\n    * transaction being reverted.\n    * Note: the contract address is always the message sender.\n    * @param _operator The address which called `safeTransferFrom` function\n    * @param _from The address which previously owned the token\n    * @param _tokenId The NFT identifier which is being transferred\n    * @param _data Additional data with no specified format\n    * @return `bytes4(keccak256(\"onERC721Received(address,address,uint256,bytes)\"))`\n    */\n    function onERC721Received(address _operator, address _from, uint256 _tokenId, bytes _data) public returns(bytes4) {\n        return 0x150b7a02; \n    }\n\n    /**\n    * @dev Safely transfers the ownership of a given token ID to another address\n    * If the target address is a contract, it must implement `onERC721Received`,\n    * which is called upon a safe transfer, and return the magic value\n    * `bytes4(keccak256(\"onERC721Received(address,address,uint256,bytes)\"))`; otherwise,\n    * the transfer is reverted.\n    *\n    * Requires the msg sender to be the owner, approved, or operator\n    * @param erc721Token address of the erc721 token to target\n    * @param _to address to receive the ownership of the given token ID\n    * @param _tokenId uint256 ID of the token to be transferred\n    */\n    function transferERC721(\n        address erc721Token,\n        address _to,\n        uint256 _tokenId\n    )\n        public onlyServerOrOnlyPopulous returns (bool success)\n    {\n        // solium-disable-next-line arg-overflow\n        ERC721Basic(erc721Token).safeTransferFrom(this, _to, _tokenId, \"\");\n        return true;\n    }\n\n    /** @dev Transfers ether from this contract to a specified wallet/address\n      * @param _to An address implementing to send ether to.\n      * @param _value The amount of ether to send in wei. \n      * @return bool Successful or unsuccessful transfer\n      */\n    function transferEther(address _to, uint256 _value) public \n        onlyServerOrOnlyPopulous returns (bool success) \n    {\n        require(this.balance >= _value);\n        require(_to.send(_value) == true);\n        EtherTransfer(_to, _value);\n        return true;\n    }\n\n    // CONSTANT METHODS\n    \n    /** @dev Returns the ether or token balance of the current contract instance using the ERC20 balanceOf method.\n      * @param populousTokenContract An address implementing the ERC20 token standard. \n      * @return uint An unsigned integer representing the returned token balance.\n      */\n    function balanceOf(address populousTokenContract) public view returns (uint) {\n        // ether\n        if (populousTokenContract == address(0)) {\n            return address(this).balance;\n        } else {\n            // erc20\n            return iERC20Token(populousTokenContract).balanceOf(this);\n        }\n    }\n\n    /**\n    * @dev Gets the balance of the specified address\n    * @param erc721Token address to erc721 token to target\n    * @return uint256 representing the amount owned by the passed address\n    */\n    function balanceOfERC721(address erc721Token) public view returns (uint256) {\n        return ERC721Basic(erc721Token).balanceOf(this);\n        // returns ownedTokensCount[_owner];\n    }\n\n    /**\n    * @dev Gets the balance of the specified address\n    * @param _id the token id\n    * @param erc1155Token address to erc1155 token to target\n    * @return uint256 representing the amount owned by the passed address\n    */\n    function balanceOfERC1155(address erc1155Token, uint256 _id) external view returns (uint256) {\n        return ERC1155(erc1155Token).balanceOf(_id, this);\n        // returns items[_id].balances[_owner];\n    }\n\n    /** @dev Gets the version of this deposit contract\n      * @return uint256 version\n      */\n    function getVersion() public view returns (uint256) {\n        return version;\n    }\n\n    // CONSTANT FUNCTIONS\n\n    /** @dev This function gets the client ID or deposit contract owner\n     * returns _clientId\n     */\n    function getClientId() public view returns (bytes32 _clientId) {\n        return clientId;\n    }\n}",
  "sourcePath": "/Users/najienka/Desktop/test/populous-smartcontracts/contracts/DepositContract.sol",
  "schemaVersion": "1.0.0",
  "updatedAt": "2018-10-25T08:44:34.415Z"
}