{
  "contractName": "DepositContract",
  "abi": [
    {
      "constant": false,
      "inputs": [
        {
          "name": "_accessManager",
          "type": "address"
        }
      ],
      "name": "updateAccessManager",
      "outputs": [],
      "payable": false,
      "stateMutability": "nonpayable",
      "type": "function"
    },
    {
      "constant": true,
      "inputs": [],
      "name": "version",
      "outputs": [
        {
          "name": "",
          "type": "uint256"
        }
      ],
      "payable": false,
      "stateMutability": "view",
      "type": "function"
    },
    {
      "constant": true,
      "inputs": [],
      "name": "clientId",
      "outputs": [
        {
          "name": "",
          "type": "bytes32"
        }
      ],
      "payable": false,
      "stateMutability": "view",
      "type": "function"
    },
    {
      "constant": true,
      "inputs": [],
      "name": "AM",
      "outputs": [
        {
          "name": "",
          "type": "address"
        }
      ],
      "payable": false,
      "stateMutability": "view",
      "type": "function"
    },
    {
      "inputs": [
        {
          "name": "_clientId",
          "type": "bytes32"
        },
        {
          "name": "accessManager",
          "type": "address"
        }
      ],
      "payable": false,
      "stateMutability": "nonpayable",
      "type": "constructor"
    },
    {
      "anonymous": false,
      "inputs": [
        {
          "indexed": false,
          "name": "to",
          "type": "address"
        },
        {
          "indexed": false,
          "name": "value",
          "type": "uint256"
        }
      ],
      "name": "EtherTransfer",
      "type": "event"
    },
    {
      "constant": false,
      "inputs": [
        {
          "name": "populousTokenContract",
          "type": "address"
        },
        {
          "name": "_to",
          "type": "address"
        },
        {
          "name": "_value",
          "type": "uint256"
        }
      ],
      "name": "transfer",
      "outputs": [
        {
          "name": "success",
          "type": "bool"
        }
      ],
      "payable": false,
      "stateMutability": "nonpayable",
      "type": "function"
    },
    {
      "constant": true,
      "inputs": [
        {
          "name": "populousTokenContract",
          "type": "address"
        }
      ],
      "name": "balanceOf",
      "outputs": [
        {
          "name": "",
          "type": "uint256"
        }
      ],
      "payable": false,
      "stateMutability": "view",
      "type": "function"
    },
    {
      "constant": false,
      "inputs": [
        {
          "name": "_to",
          "type": "address"
        },
        {
          "name": "_value",
          "type": "uint256"
        }
      ],
      "name": "transferEther",
      "outputs": [
        {
          "name": "success",
          "type": "bool"
        }
      ],
      "payable": false,
      "stateMutability": "nonpayable",
      "type": "function"
    },
    {
      "constant": false,
      "inputs": [],
      "name": "getEtherBalance",
      "outputs": [
        {
          "name": "_balance",
          "type": "uint256"
        }
      ],
      "payable": false,
      "stateMutability": "nonpayable",
      "type": "function"
    },
    {
      "constant": true,
      "inputs": [],
      "name": "getVersion",
      "outputs": [
        {
          "name": "",
          "type": "uint256"
        }
      ],
      "payable": false,
      "stateMutability": "view",
      "type": "function"
    },
    {
      "constant": true,
      "inputs": [],
      "name": "getClientId",
      "outputs": [
        {
          "name": "_clientId",
          "type": "bytes32"
        }
      ],
      "payable": false,
      "stateMutability": "view",
      "type": "function"
    }
  ],
  "bytecode": "0x60806040526002805534801561001457600080fd5b50604051604080610cae833981018060405281019080805190602001909291908051906020019092919050505080806000806101000a81548173ffffffffffffffffffffffffffffffffffffffff021916908373ffffffffffffffffffffffffffffffffffffffff1602179055505081600181600019169055505050610c0f8061009f6000396000f3006080604052600436106100a4576000357c0100000000000000000000000000000000000000000000000000000000900463ffffffff16806302ab72c4146100a957806305b1137b146100ec5780630d8e6e2c14610151578063527fe4131461017c57806354fd4d50146101af5780636bb3471a146101da57806370a082311461020d578063beabacc814610264578063ea46193e146102e9578063f7f01b4b14610314575b600080fd5b3480156100b557600080fd5b506100ea600480360381019080803573ffffffffffffffffffffffffffffffffffffffff16906020019092919050505061036b565b005b3480156100f857600080fd5b50610137600480360381019080803573ffffffffffffffffffffffffffffffffffffffff169060200190929190803590602001909291905050506104b7565b604051808215151515815260200191505060405180910390f35b34801561015d57600080fd5b506101666107a9565b6040518082815260200191505060405180910390f35b34801561018857600080fd5b506101916107b3565b60405180826000191660001916815260200191505060405180910390f35b3480156101bb57600080fd5b506101c46107bd565b6040518082815260200191505060405180910390f35b3480156101e657600080fd5b506101ef6107c3565b60405180826000191660001916815260200191505060405180910390f35b34801561021957600080fd5b5061024e600480360381019080803573ffffffffffffffffffffffffffffffffffffffff1690602001909291905050506107c9565b6040518082815260200191505060405180910390f35b34801561027057600080fd5b506102cf600480360381019080803573ffffffffffffffffffffffffffffffffffffffff169060200190929190803573ffffffffffffffffffffffffffffffffffffffff169060200190929190803590602001909291905050506108a8565b604051808215151515815260200191505060405180910390f35b3480156102f557600080fd5b506102fe610b9f565b6040518082815260200191505060405180910390f35b34801561032057600080fd5b50610329610bbe565b604051808273ffffffffffffffffffffffffffffffffffffffff1673ffffffffffffffffffffffffffffffffffffffff16815260200191505060405180910390f35b600115156000809054906101000a900473ffffffffffffffffffffffffffffffffffffffff1673ffffffffffffffffffffffffffffffffffffffff1663fda08958336040518263ffffffff167c0100000000000000000000000000000000000000000000000000000000028152600401808273ffffffffffffffffffffffffffffffffffffffff1673ffffffffffffffffffffffffffffffffffffffff168152602001915050602060405180830381600087803b15801561042b57600080fd5b505af115801561043f573d6000803e3d6000fd5b505050506040513d602081101561045557600080fd5b8101908080519060200190929190505050151514151561047457600080fd5b806000806101000a81548173ffffffffffffffffffffffffffffffffffffffff021916908373ffffffffffffffffffffffffffffffffffffffff16021790555050565b6000600115156000809054906101000a900473ffffffffffffffffffffffffffffffffffffffff1673ffffffffffffffffffffffffffffffffffffffff1663fda08958336040518263ffffffff167c0100000000000000000000000000000000000000000000000000000000028152600401808273ffffffffffffffffffffffffffffffffffffffff1673ffffffffffffffffffffffffffffffffffffffff168152602001915050602060405180830381600087803b15801561057957600080fd5b505af115801561058d573d6000803e3d6000fd5b505050506040513d60208110156105a357600080fd5b8101908080519060200190929190505050151514806106bc5750600115156000809054906101000a900473ffffffffffffffffffffffffffffffffffffffff1673ffffffffffffffffffffffffffffffffffffffff166305fd22d0336040518263ffffffff167c0100000000000000000000000000000000000000000000000000000000028152600401808273ffffffffffffffffffffffffffffffffffffffff1673ffffffffffffffffffffffffffffffffffffffff168152602001915050602060405180830381600087803b15801561067d57600080fd5b505af1158015610691573d6000803e3d6000fd5b505050506040513d60208110156106a757600080fd5b81019080805190602001909291905050501515145b15156106c757600080fd5b813073ffffffffffffffffffffffffffffffffffffffff1631101515156106ed57600080fd5b8273ffffffffffffffffffffffffffffffffffffffff166108fc839081150290604051600060405180830381858888f19350505050158015610733573d6000803e3d6000fd5b507f1853ca9dc0208799379313b2b43364e45db022f073c72648fbc206dc0bacbcdc8383604051808373ffffffffffffffffffffffffffffffffffffffff1673ffffffffffffffffffffffffffffffffffffffff1681526020018281526020019250505060405180910390a16001905092915050565b6000600254905090565b6000600154905090565b60025481565b60015481565b60008173ffffffffffffffffffffffffffffffffffffffff166370a08231306040518263ffffffff167c0100000000000000000000000000000000000000000000000000000000028152600401808273ffffffffffffffffffffffffffffffffffffffff1673ffffffffffffffffffffffffffffffffffffffff168152602001915050602060405180830381600087803b15801561086657600080fd5b505af115801561087a573d6000803e3d6000fd5b505050506040513d602081101561089057600080fd5b81019080805190602001909291905050509050919050565b6000600115156000809054906101000a900473ffffffffffffffffffffffffffffffffffffffff1673ffffffffffffffffffffffffffffffffffffffff1663fda08958336040518263ffffffff167c0100000000000000000000000000000000000000000000000000000000028152600401808273ffffffffffffffffffffffffffffffffffffffff1673ffffffffffffffffffffffffffffffffffffffff168152602001915050602060405180830381600087803b15801561096a57600080fd5b505af115801561097e573d6000803e3d6000fd5b505050506040513d602081101561099457600080fd5b810190808051906020019092919050505015151480610aad5750600115156000809054906101000a900473ffffffffffffffffffffffffffffffffffffffff1673ffffffffffffffffffffffffffffffffffffffff166305fd22d0336040518263ffffffff167c0100000000000000000000000000000000000000000000000000000000028152600401808273ffffffffffffffffffffffffffffffffffffffff1673ffffffffffffffffffffffffffffffffffffffff168152602001915050602060405180830381600087803b158015610a6e57600080fd5b505af1158015610a82573d6000803e3d6000fd5b505050506040513d6020811015610a9857600080fd5b81019080805190602001909291905050501515145b1515610ab857600080fd5b8373ffffffffffffffffffffffffffffffffffffffff1663a9059cbb84846040518363ffffffff167c0100000000000000000000000000000000000000000000000000000000028152600401808373ffffffffffffffffffffffffffffffffffffffff1673ffffffffffffffffffffffffffffffffffffffff16815260200182815260200192505050602060405180830381600087803b158015610b5b57600080fd5b505af1158015610b6f573d6000803e3d6000fd5b505050506040513d6020811015610b8557600080fd5b810190808051906020019092919050505090509392505050565b60003073ffffffffffffffffffffffffffffffffffffffff1631905090565b6000809054906101000a900473ffffffffffffffffffffffffffffffffffffffff16815600a165627a7a7230582029327c44cbb992b6158c6186dbcf971fdd5d96bd7a26801523f278c4af1157460029",
  "source": "pragma solidity ^0.4.17;\n\nimport \"./iERC20Token.sol\";\nimport \"./withAccessManager.sol\";\n\n\n\n/// @title DepositContract contract\ncontract DepositContract is withAccessManager {\n\n    bytes32 public clientId; // client ID.\n\n    uint256 public version = 2;\n    // MODIFIERS\n\n\n    // EVENTS\n    event EtherTransfer(address to, uint256 value);\n\n    // NON-CONSTANT METHODS \n\n    /** @dev Constructor that sets the _clientID when the contract is deployed.\n      * @dev The method also sets the manager to the msg.sender.\n      * @param _clientId A string of fixed length representing the client ID.\n      */\n    function DepositContract(bytes32 _clientId, address accessManager) public withAccessManager(accessManager) {\n        clientId = _clientId;\n    }\n     \n\n    /** @dev Transfers an amount '_value' of tokens from msg.sender to '_to' address/wallet.\n      * @param populousTokenContract The address of the ERC20 token contract which implements the transfer method.\n      * @param _value the amount of tokens to transfer.\n      * @param _to The address/wallet to send to.\n      * @return success boolean true or false indicating whether the transfer was successful or not.\n      */\n    function transfer(address populousTokenContract, address _to, uint256 _value) public\n        onlyServerOrOnlyPopulous returns (bool success) \n    {\n        return iERC20Token(populousTokenContract).transfer(_to, _value);\n    }\n\n    // CONSTANT METHODS\n    \n    /** @dev Returns the token balance of the current contract instance using the ERC20 balanceOf method.\n      * @param populousTokenContract An address implementing the ERC20 token standard. \n      * @return uint An unsigned integer representing the returned token balance.\n      */\n    function balanceOf(address populousTokenContract) public view returns (uint) {\n        return iERC20Token(populousTokenContract).balanceOf(this);\n    }\n\n\n    /** @dev Transfers ether from this contract to a specified wallet/address\n      * @param _to An address implementing to send ether to.\n      * @param _value The amount of ether to send in wei. \n      * @return bool Successful or unsuccessful transfer\n      */\n    function transferEther(address _to, uint256 _value) public \n        onlyServerOrOnlyPopulous returns (bool success) \n    {\n        require(this.balance >= _value);\n        _to.transfer(_value);\n        EtherTransfer(_to, _value);\n        return true;\n    }\n\n\n    /** @dev Gets ether balance from this contract\n      * @return uint256 ether balance\n      */\n    function getEtherBalance() public \n        returns (uint256 _balance) \n    {\n        return this.balance;\n    }\n\n    /** @dev Gets the version of this deposit contract\n      * @return uint256 version\n      */\n    function getVersion() public view returns (uint256) {\n        return version;\n    }\n\n\n\n    // CONSTANT FUNCTIONS\n\n    /** @dev This function gets the client ID or deposit contract owner\n     * returns _clientId\n     */\n    function getClientId() public view returns (bytes32 _clientId) {\n        return clientId;\n    }\n\n\n}",
  "sourcePath": "/Users/najienka/Desktop/populous-smartcontracts/contracts/DepositContract.sol",
  "compiler": {
    "name": "solc",
    "version": "0.4.24+commit.e67f0147.Emscripten.clang"
  },
  "schemaVersion": "2.0.1",
  "updatedAt": "2018-10-24T11:39:26.197Z"
}