{
  "contractName": "DepositContractsManager",
  "abi": [
    {
      "constant": false,
      "inputs": [
        {
          "name": "_accessManager",
          "type": "address"
        }
      ],
      "name": "updateAccessManager",
      "outputs": [],
      "payable": false,
      "stateMutability": "nonpayable",
      "type": "function"
    },
    {
      "constant": true,
      "inputs": [
        {
          "name": "clientId",
          "type": "bytes32"
        },
        {
          "name": "tokenContract",
          "type": "address"
        },
        {
          "name": "receiveCurrency",
          "type": "bytes32"
        },
        {
          "name": "depositIndex",
          "type": "uint256"
        }
      ],
      "name": "getActiveDeposit",
      "outputs": [
        {
          "name": "",
          "type": "uint256"
        },
        {
          "name": "",
          "type": "uint256"
        },
        {
          "name": "",
          "type": "bool"
        }
      ],
      "payable": false,
      "stateMutability": "view",
      "type": "function"
    },
    {
      "constant": true,
      "inputs": [
        {
          "name": "clientId",
          "type": "bytes32"
        }
      ],
      "name": "getDepositAddress",
      "outputs": [
        {
          "name": "",
          "type": "address"
        }
      ],
      "payable": false,
      "stateMutability": "view",
      "type": "function"
    },
    {
      "constant": false,
      "inputs": [
        {
          "name": "clientId",
          "type": "bytes32"
        }
      ],
      "name": "create",
      "outputs": [
        {
          "name": "",
          "type": "address"
        }
      ],
      "payable": false,
      "stateMutability": "nonpayable",
      "type": "function"
    },
    {
      "constant": false,
      "inputs": [
        {
          "name": "clientId",
          "type": "bytes32"
        },
        {
          "name": "tokenContract",
          "type": "address"
        },
        {
          "name": "receiveCurrency",
          "type": "bytes32"
        },
        {
          "name": "depositAmount",
          "type": "uint256"
        },
        {
          "name": "receiveAmount",
          "type": "uint256"
        }
      ],
      "name": "deposit",
      "outputs": [
        {
          "name": "",
          "type": "bool"
        },
        {
          "name": "",
          "type": "uint256"
        }
      ],
      "payable": false,
      "stateMutability": "nonpayable",
      "type": "function"
    },
    {
      "constant": false,
      "inputs": [
        {
          "name": "clientId",
          "type": "bytes32"
        },
        {
          "name": "tokenContract",
          "type": "address"
        },
        {
          "name": "receiveCurrency",
          "type": "bytes32"
        },
        {
          "name": "receiver",
          "type": "address"
        },
        {
          "name": "depositIndex",
          "type": "uint256"
        }
      ],
      "name": "releaseDeposit",
      "outputs": [
        {
          "name": "",
          "type": "bool"
        },
        {
          "name": "",
          "type": "uint256"
        },
        {
          "name": "",
          "type": "uint256"
        }
      ],
      "payable": false,
      "stateMutability": "nonpayable",
      "type": "function"
    },
    {
      "constant": true,
      "inputs": [
        {
          "name": "clientId",
          "type": "bytes32"
        },
        {
          "name": "tokenContract",
          "type": "address"
        },
        {
          "name": "receiveCurrency",
          "type": "bytes32"
        }
      ],
      "name": "getActiveDepositList",
      "outputs": [
        {
          "name": "",
          "type": "uint256"
        },
        {
          "name": "",
          "type": "uint256"
        },
        {
          "name": "",
          "type": "uint256"
        }
      ],
      "payable": false,
      "stateMutability": "view",
      "type": "function"
    },
    {
      "constant": true,
      "inputs": [],
      "name": "AM",
      "outputs": [
        {
          "name": "",
          "type": "address"
        }
      ],
      "payable": false,
      "stateMutability": "view",
      "type": "function"
    },
    {
      "inputs": [
        {
          "name": "_accessManager",
          "type": "address"
        }
      ],
      "payable": false,
      "stateMutability": "nonpayable",
      "type": "constructor"
    }
  ],
  "bytecode": "0x6060604052341561000f57600080fd5b604051602080610f848339810160405280805160008054600160a060020a03909216600160a060020a03199092169190911790555050610f30806100546000396000f300606060405236156100725763ffffffff60e060020a60003504166302ab72c481146100775780631abc3632146100985780632a01a451146100e65780637368a8ce1461011857806390d64f3a1461012e578063ccce317f14610173578063d68388d6146101c8578063f7f01b4b14610211575b600080fd5b341561008257600080fd5b610096600160a060020a0360043516610224565b005b34156100a357600080fd5b6100c0600435600160a060020a03602435166044356064356102d7565b604051928352602083019190915215156040808301919091526060909101905180910390f35b34156100f157600080fd5b6100fc6004356103c5565b604051600160a060020a03909116815260200160405180910390f35b341561012357600080fd5b6100fc6004356103e0565b341561013957600080fd5b610159600435600160a060020a03602435166044356064356084356104e3565b604051911515825260208201526040908101905180910390f35b341561017e57600080fd5b6101a2600435600160a060020a0360243581169060443590606435166084356107a1565b604051921515835260208301919091526040808301919091526060909101905180910390f35b34156101d357600080fd5b6101ed600435600160a060020a0360243516604435610bd3565b60405180848152602001838152602001828152602001935050505060405180910390f35b341561021c57600080fd5b6100fc610c14565b60008054600160a060020a031690630c68ba219033906040516020015260405160e060020a63ffffffff8416028152600160a060020a039091166004820152602401602060405180830381600087803b151561027f57600080fd5b6102c65a03f1151561029057600080fd5b5050506040518051151560011490506102a857600080fd5b6000805473ffffffffffffffffffffffffffffffffffffffff1916600160a060020a0392909216919091179055565b6000848152600260209081526040808320600160a060020a0387168452825280832085845290915281208054829182918590811061031157fe5b60009182526020808320600490920290910154898352600282526040808420600160a060020a038b1685528352808420898552909252912080548690811061035557fe5b60009182526020808320600160049093020191909101548a8352600282526040808420600160a060020a038c16855283528084208a8552909252912080548790811061039d57fe5b6000918252602090912060036004909202010154919450925060ff1690509450945094915050565b600090815260016020526040902054600160a060020a031690565b60008054600160a060020a03166305fd22d033836040516020015260405160e060020a63ffffffff8416028152600160a060020a039091166004820152602401602060405180830381600087803b151561043957600080fd5b6102c65a03f1151561044a57600080fd5b50505060405180511515600114905061046257600080fd5b8161046b610c59565b908152602001604051809103906000f080151561048757600080fd5b6000838152600160205260409020805473ffffffffffffffffffffffffffffffffffffffff1916600160a060020a0392831617908190551615156104c757fe5b50600090815260016020526040902054600160a060020a031690565b6000805481908190600160a060020a03166305fd22d033836040516020015260405160e060020a63ffffffff8416028152600160a060020a039091166004820152602401602060405180830381600087803b151561054057600080fd5b6102c65a03f1151561055157600080fd5b50505060405180511515600114905061056957600080fd5b5060008781526001602052604080822054600160a060020a03169186916106269184916370a08231918c91516020015260405160e060020a63ffffffff8416028152600160a060020a039091166004820152602401602060405180830381600087803b15156105d757600080fd5b6102c65a03f115156105e857600080fd5b505050604051805160008c8152600260209081526040808320600160a060020a038f16845282528083208d8452909152902060010154909150610c23565b141561078e576000888152600260209081526040808320600160a060020a038b168452825280832089845290915290208054600181016106668382610c69565b91600052602060002090600402016000608060405190810160409081528982526020820189905262278d00420190820152600060608201529190508151815560208201518160010155604082015181600201556060820151600391909101805460ff191691151591909117905550506000888152600260209081526040808320600160a060020a038b168452825280832089845290915290206001015461070d9086610c35565b6000898152600260208181526040808420600160a060020a038d16855282528084208b85529091529091206001810192909255015461074c9085610c35565b6000898152600260208181526040808420600160a060020a038d16855282528084208b8552909152909120908101919091555460019350600019019150610796565b600092508291505b509550959350505050565b60008054819081908190600160a060020a03166305fd22d033836040516020015260405160e060020a63ffffffff8416028152600160a060020a039091166004820152602401602060405180830381600087803b151561080057600080fd5b6102c65a03f1151561081157600080fd5b50505060405180511515600114905061082957600080fd5b5060008881526001602090815260408083205460028352818420600160a060020a038c811686529084528285208b8652909352922080549190921691908690811061087057fe5b9060005260206000209060040201600001546000141580156108dc57506000898152600260209081526040808320600160a060020a038c16845282528083208a845290915290208054869081106108c357fe5b600091825260209091206003600490920201015460ff16155b80156109b157506000898152600260209081526040808320600160a060020a038c811685529083528184208b855290925290912080549183169163beabacc8918b918a91908a90811061092b57fe5b90600052602060002090600402016000015460006040516020015260405160e060020a63ffffffff8616028152600160a060020a0393841660048201529190921660248201526044810191909152606401602060405180830381600087803b151561099557600080fd5b6102c65a03f115156109a657600080fd5b505050604051805190505b8015610a0557506000898152600260209081526040808320600160a060020a038c16845282528083208a845290915290208054429190879081106109f157fe5b906000526020600020906004020160020154115b15610bbc576000898152600260209081526040808320600160a060020a038c16845282528083208a8452909152902080546001919087908110610a4457fe5b60009182526020808320600492909202909101600301805460ff1916931515939093179092558a8152600282526040808220600160a060020a038c16835283528082208a83529092522060018101548154610abb929088908110610aa457fe5b906000526020600020906004020160000154610c23565b60008a8152600260208181526040808420600160a060020a038e16855282528084208c855290915290912060018101929092558101548154610b19929088908110610b0257fe5b906000526020600020906004020160010154610c23565b60008a8152600260208181526040808420600160a060020a038e16855282528084208c85529091529091209081019190915580546001919087908110610b5b57fe5b600091825260208083206004909202909101548c8352600282526040808420600160a060020a038e16855283528084208c85529092529120805488908110610b9f57fe5b906000526020600020906004020160010154935093509350610bc7565b600093508392508291505b50955095509592505050565b6000928352600260208181526040808620600160a060020a039590951686529381528385209285529190915291208054600182015491909201549192909190565b600054600160a060020a031681565b600082821115610c2f57fe5b50900390565b6000828201838110801590610c4a5750828110155b1515610c5257fe5b9392505050565b60405161023080610cd583390190565b815481835581811511610c9557600402816004028360005260206000209182019101610c959190610c9a565b505050565b610cd191905b80821115610ccd57600080825560018201819055600282015560038101805460ff19169055600401610ca0565b5090565b9056006060604052341561000f57600080fd5b60405160208061023083398101604052808051600055505060018054600160a060020a033316600160a060020a03199091161790556101dd806100536000396000f300606060405263ffffffff60e060020a60003504166370a08231811461002e578063beabacc81461005f57600080fd5b341561003957600080fd5b61004d600160a060020a036004351661009b565b60405190815260200160405180910390f35b341561006a57600080fd5b610087600160a060020a0360043581169060243516604435610114565b604051901515815260200160405180910390f35b600081600160a060020a03166370a082313060006040516020015260405160e060020a63ffffffff8416028152600160a060020a039091166004820152602401602060405180830381600087803b15156100f457600080fd5b6102c65a03f1151561010557600080fd5b50505060405180519392505050565b60015460009033600160a060020a0390811691161461013257600080fd5b83600160a060020a031663a9059cbb848460006040516020015260405160e060020a63ffffffff8516028152600160a060020a0390921660048301526024820152604401602060405180830381600087803b151561018f57600080fd5b6102c65a03f115156101a057600080fd5b5050506040518051959450505050505600a165627a7a723058202a1ddbb12fcbcff9fa86450b0370f2534a8683d0c4455adf1bab5f44327f2d730029a165627a7a723058207304cece38214ded51f39e71df9d58403f187379ecdfb2d664c0b791210baecc0029",
  "source": "pragma solidity ^0.4.17;\n\nimport \"./SafeMath.sol\";\nimport \"./withAccessManager.sol\";\nimport \"./DepositContract.sol\";\n\n\n/// @title DepositCountractsManager contract\ncontract DepositContractsManager is withAccessManager {\n    // FIELDS\n\n    // This variable represents deposits \n    // and their related information i.e., amount deposited and received\n    // and a boolean isReleased indicating whether the deposit has been released.\n    struct Deposit {\n        uint deposited;\n        uint received;\n        uint releaseTime;\n        bool isReleased;\n    }\n\n    // This variable will be used to store a list of deposits\n    // together with the total amount deposited and received for a deposit contract.\n    struct DepositList {\n        Deposit[] list;\n        uint deposited;\n        uint received;\n    }\n\n    // This variable will be used to keep track of client IDs and\n    // their deposit addresses\n    // clientId => depositAddress\n    mapping (bytes32 => address) depositAddress;\n\n    // The variable 'deposits'\n    // links a bytes32 client ID to a token contract address linked to a currency symbol \n    // linked to a DepositList object type declared above.\n    // clientId => tokenContract => currencySymbol => DepositList\n    mapping (bytes32 => mapping(address => mapping(bytes32 => DepositList))) deposits;\n\n\n    // NON-CONSTANT METHODS\n\n    // The constructor method called when this contract instance is deployed \n    // using a modifier the _accessManager address\n    function DepositContractsManager(address _accessManager) public\n        withAccessManager(_accessManager) { }\n\n    /** @dev Creates a new 'depositAddress' gotten from deploying a deposit contract linked to a client ID\n      * @param clientId The bytes32 client ID\n      * @return address The address of the deployed deposit contract instance.\n      */\n    function create(bytes32 clientId) public\n        onlyPopulous\n        returns (address)\n    {\n        depositAddress[clientId] = new DepositContract(clientId);\n        assert(depositAddress[clientId] != 0x0);\n\n        return depositAddress[clientId];\n    }\n\n    /** @dev Deposits an amount of tokens linked to a client ID.\n      * @param clientId The client ID.\n      * @param tokenContract The token contract.\n      * @param receiveCurrency The currency symbol.\n      * @param depositAmount The deposit amount.\n      * @param receiveAmount The receive amount.\n      * @return bool boolean value indicating whether or not a deposit transaction has been made with success.\n      * @return uint The updated number of deposits.\n      */\n    function deposit(bytes32 clientId, address tokenContract, bytes32 receiveCurrency, uint depositAmount, uint receiveAmount)\n        public\n        onlyPopulous\n        returns (bool, uint)\n    {\n        DepositContract o = DepositContract(depositAddress[clientId]);\n\n        if (SafeMath.safeSub(o.balanceOf(tokenContract), deposits[clientId][tokenContract][receiveCurrency].deposited) == depositAmount) {\n            // save new deposit info\n            deposits[clientId][tokenContract][receiveCurrency].list.push(Deposit(depositAmount, receiveAmount, now + 30 days, false));\n            \n            // update totals\n            deposits[clientId][tokenContract][receiveCurrency].deposited = SafeMath.safeAdd(\n                deposits[clientId][tokenContract][receiveCurrency].deposited,\n                depositAmount\n            );\n            deposits[clientId][tokenContract][receiveCurrency].received = SafeMath.safeAdd(\n                deposits[clientId][tokenContract][receiveCurrency].received,\n                receiveAmount\n            );\n            return (true, deposits[clientId][tokenContract][receiveCurrency].list.length - 1);\n        }\n        return (false, 0);\n    }\n\n    /** @dev Releases a deposit to an address/wallet.\n      * @param clientId The client ID.\n      * @param tokenContract The token contract.\n      * @param receiveCurrency The currency symbol.\n      * @param receiver The address/wallet of the receiver.\n      * @param depositIndex The index/location of a specific deposit in the declared deposit list above.\n      * @return bool boolean value indicating whether or not a deposit has been updated with success.\n      * @return uint The token amount deposited.\n      * @return uint The token amount received.\n      */\n    function releaseDeposit(bytes32 clientId, address tokenContract, bytes32 receiveCurrency, address receiver, uint depositIndex)\n        public\n        onlyPopulous\n        returns (bool, uint, uint)\n    {\n        DepositContract o = DepositContract(depositAddress[clientId]);\n        \n        if (deposits[clientId][tokenContract][receiveCurrency].list[depositIndex].deposited != 0 &&\n            deposits[clientId][tokenContract][receiveCurrency].list[depositIndex].isReleased == false &&\n            o.transfer(tokenContract, receiver, deposits[clientId][tokenContract][receiveCurrency].list[depositIndex].deposited) &&\n            deposits[clientId][tokenContract][receiveCurrency].list[depositIndex].releaseTime > now\n        ) {\n            deposits[clientId][tokenContract][receiveCurrency].list[depositIndex].isReleased = true;\n\n            // update totals\n            deposits[clientId][tokenContract][receiveCurrency].deposited = SafeMath.safeSub(\n                deposits[clientId][tokenContract][receiveCurrency].deposited,\n                deposits[clientId][tokenContract][receiveCurrency].list[depositIndex].deposited\n            );\n            deposits[clientId][tokenContract][receiveCurrency].received = SafeMath.safeSub(\n                deposits[clientId][tokenContract][receiveCurrency].received,\n                deposits[clientId][tokenContract][receiveCurrency].list[depositIndex].received\n            );\n            return (\n                true,\n                deposits[clientId][tokenContract][receiveCurrency].list[depositIndex].deposited,\n                deposits[clientId][tokenContract][receiveCurrency].list[depositIndex].received\n            );\n        }\n        return (false, 0, 0);\n    }\n\n\n    // CONSTANT METHODS\n\n\n    /** @dev Gets the deposit address linked to a given client ID.\n      * @param clientId The client ID.\n      * @return address The deposit address.\n      */\n    function getDepositAddress(bytes32 clientId) public view returns (address) {\n        return depositAddress[clientId];\n    }\n\n    /** @dev Gets the deposit address linked to a given client ID.\n      * @param clientId The client ID.\n      * @param tokenContract The token contract\n      * @param receiveCurrency The currency symbol\n      * @return uint The length of a deposit list linked to the client ID, token contract and currency.\n      * @return uint The token amount deposited.\n      * @return uint The token amount received.\n      */\n    function getActiveDepositList(bytes32 clientId, address tokenContract, bytes32 receiveCurrency) \n        public \n        view returns (uint, uint, uint) {\n        return (\n            deposits[clientId][tokenContract][receiveCurrency].list.length,\n            deposits[clientId][tokenContract][receiveCurrency].deposited,\n            deposits[clientId][tokenContract][receiveCurrency].received\n        );\n    }\n\n    /** @dev Gets the details of a deposit.\n      * @param clientId The client ID.\n      * @param tokenContract The token contract.\n      * @param receiveCurrency The currency symbol.\n      * @param depositIndex The ID of a particular deposit in a deposit list.\n      * @return uint Deposited amount.\n      * @return uint Received amount.\n      * @return bool Boolean value to indicate if deposit is released or not.\n      */\n    function getActiveDeposit(bytes32 clientId, address tokenContract, bytes32 receiveCurrency, uint depositIndex) \n        public \n        view returns (uint, uint, bool) {\n        return (\n            deposits[clientId][tokenContract][receiveCurrency].list[depositIndex].deposited,\n            deposits[clientId][tokenContract][receiveCurrency].list[depositIndex].received,\n            deposits[clientId][tokenContract][receiveCurrency].list[depositIndex].isReleased\n        );\n    }\n\n\n}",
  "sourcePath": "/Users/najienka/Desktop/populous-smartcontracts/contracts/DepositContractsManager.sol",
  "schemaVersion": "1.0.0",
  "updatedAt": "2018-01-22T11:31:43.555Z"
}