{
  "contractName": "DepositContract",
  "abi": [
    {
      "constant": false,
      "inputs": [
        {
          "name": "_accessManager",
          "type": "address"
        }
      ],
      "name": "updateAccessManager",
      "outputs": [],
      "payable": false,
      "stateMutability": "nonpayable",
      "type": "function"
    },
    {
      "constant": true,
      "inputs": [
        {
          "name": "populousTokenContract",
          "type": "address"
        }
      ],
      "name": "balanceOf",
      "outputs": [
        {
          "name": "",
          "type": "uint256"
        }
      ],
      "payable": false,
      "stateMutability": "view",
      "type": "function"
    },
    {
      "constant": false,
      "inputs": [
        {
          "name": "populousTokenContract",
          "type": "address"
        },
        {
          "name": "_to",
          "type": "address"
        },
        {
          "name": "_value",
          "type": "uint256"
        }
      ],
      "name": "transfer",
      "outputs": [
        {
          "name": "success",
          "type": "bool"
        }
      ],
      "payable": false,
      "stateMutability": "nonpayable",
      "type": "function"
    },
    {
      "constant": true,
      "inputs": [],
      "name": "AM",
      "outputs": [
        {
          "name": "",
          "type": "address"
        }
      ],
      "payable": false,
      "stateMutability": "view",
      "type": "function"
    },
    {
      "inputs": [
        {
          "name": "_clientId",
          "type": "bytes32"
        },
        {
          "name": "accessManager",
          "type": "address"
        }
      ],
      "payable": false,
      "stateMutability": "nonpayable",
      "type": "constructor"
    }
  ],
  "bytecode": "0x6060604052341561000f57600080fd5b60405160408061044b833981016040528080519190602001805160008054600160a060020a03909216600160a060020a031990921691909117905550506001556103ed8061005e6000396000f300606060405263ffffffff60e060020a60003504166302ab72c4811461004457806370a0823114610065578063beabacc814610096578063f7f01b4b146100d257600080fd5b341561004f57600080fd5b610063600160a060020a0360043516610101565b005b341561007057600080fd5b610084600160a060020a03600435166101b4565b60405190815260200160405180910390f35b34156100a157600080fd5b6100be600160a060020a036004358116906024351660443561022d565b604051901515815260200160405180910390f35b34156100dd57600080fd5b6100e56103b2565b604051600160a060020a03909116815260200160405180910390f35b60008054600160a060020a03169063fda089589033906040516020015260405160e060020a63ffffffff8416028152600160a060020a039091166004820152602401602060405180830381600087803b151561015c57600080fd5b6102c65a03f1151561016d57600080fd5b50505060405180511515600114905061018557600080fd5b6000805473ffffffffffffffffffffffffffffffffffffffff1916600160a060020a0392909216919091179055565b600081600160a060020a03166370a082313060006040516020015260405160e060020a63ffffffff8416028152600160a060020a039091166004820152602401602060405180830381600087803b151561020d57600080fd5b6102c65a03f1151561021e57600080fd5b50505060405180519392505050565b60008054600160a060020a031663fda0895833836040516020015260405160e060020a63ffffffff8416028152600160a060020a039091166004820152602401602060405180830381600087803b151561028657600080fd5b6102c65a03f1151561029757600080fd5b50505060405180511515600114905080610328575060008054600160a060020a0316906305fd22d09033906040516020015260405160e060020a63ffffffff8416028152600160a060020a039091166004820152602401602060405180830381600087803b151561030757600080fd5b6102c65a03f1151561031857600080fd5b5050506040518051151560011490505b151561033357600080fd5b83600160a060020a031663a9059cbb848460006040516020015260405160e060020a63ffffffff8516028152600160a060020a0390921660048301526024820152604401602060405180830381600087803b151561039057600080fd5b6102c65a03f115156103a157600080fd5b505050604051805195945050505050565b600054600160a060020a0316815600a165627a7a72305820aa6b00f4bb58e86009b6b26aa3b35733ea3d9e8b343423b70006bf2958ef9a310029",
  "source": "pragma solidity ^0.4.17;\n\nimport \"./iERC20Token.sol\";\nimport \"./withAccessManager.sol\";\n\n\n\n/// @title DepositContract contract\ncontract DepositContract is withAccessManager {\n\n    bytes32 clientId;// client ID.\n    address manager; // address of contract manager.\n\n    // MODIFIERS\n\n    /* modifier onlyManager() {\n        require(msg.sender == manager);\n        _;\n    } */\n\n    // NON-CONSTANT METHODS \n\n    /** @dev Constructor that sets the _clientID when the contract is deployed.\n      * @dev The method also sets the manager to the msg.sender.\n      * @param _clientId A string of fixed length representing the client ID.\n      */\n    function DepositContract(bytes32 _clientId, address accessManager) public withAccessManager(accessManager) {\n        clientId = _clientId;\n    }\n     \n\n    /** @dev Transfers an amount '_value' of tokens from msg.sender to '_to' address/wallet.\n      * @param populousTokenContract The address of the ERC20 token contract which implements the transfer method.\n      * @param _value the amount of tokens to transfer.\n      * @param _to The address/wallet to send to.\n      * @return success boolean true or false indicating whether the transfer was successful or not.\n      */\n    function transfer(address populousTokenContract, address _to, uint256 _value) public\n        onlyServerOrOnlyPopulous returns (bool success) \n    {\n        return iERC20Token(populousTokenContract).transfer(_to, _value);\n    }\n\n    // CONSTANT METHODS\n    \n    /** @dev Returns the token balance of the current contract instance using the ERC20 balanceOf method.\n      * @param populousTokenContract An address implementing the ERC20 token standard. \n      * @return uint An unsigned integer representing the returned token balance.\n      */\n    function balanceOf(address populousTokenContract) public view returns (uint) {\n        return iERC20Token(populousTokenContract).balanceOf(this);\n    }\n\n\n}",
  "sourcePath": "/Users/najienka/Desktop/populous-smartcontracts/contracts/DepositContract.sol",
  "schemaVersion": "1.0.0",
  "updatedAt": "2018-06-07T10:20:25.947Z"
}