{
  "contractName": "ERC1155",
  "abi": [
    {
      "constant": true,
      "inputs": [
        {
          "name": "_id",
          "type": "uint256"
        }
      ],
      "name": "name",
      "outputs": [
        {
          "name": "",
          "type": "string"
        }
      ],
      "payable": false,
      "stateMutability": "view",
      "type": "function"
    },
    {
      "constant": false,
      "inputs": [
        {
          "name": "_to",
          "type": "address"
        },
        {
          "name": "_id",
          "type": "uint256"
        },
        {
          "name": "_value",
          "type": "uint256"
        }
      ],
      "name": "transfer",
      "outputs": [
        {
          "name": "name",
          "type": "string"
        },
        {
          "name": "totalSupply",
          "type": "uint256"
        }
      ],
      "payable": false,
      "stateMutability": "nonpayable",
      "type": "function"
    },
    {
      "constant": true,
      "inputs": [
        {
          "name": "_id",
          "type": "uint256"
        },
        {
          "name": "_owner",
          "type": "address"
        },
        {
          "name": "_spender",
          "type": "address"
        }
      ],
      "name": "allowance",
      "outputs": [
        {
          "name": "",
          "type": "uint256"
        }
      ],
      "payable": false,
      "stateMutability": "view",
      "type": "function"
    },
    {
      "constant": true,
      "inputs": [
        {
          "name": "_id",
          "type": "uint256"
        },
        {
          "name": "",
          "type": "address"
        },
        {
          "name": "",
          "type": "address"
        }
      ],
      "name": "uri",
      "outputs": [
        {
          "name": "",
          "type": "string"
        }
      ],
      "payable": false,
      "stateMutability": "view",
      "type": "function"
    },
    {
      "anonymous": false,
      "inputs": [
        {
          "indexed": true,
          "name": "_from",
          "type": "address"
        },
        {
          "indexed": true,
          "name": "_to",
          "type": "address"
        },
        {
          "indexed": true,
          "name": "_ids",
          "type": "uint256[]"
        },
        {
          "indexed": false,
          "name": "_values",
          "type": "uint256[]"
        },
        {
          "indexed": false,
          "name": "_value",
          "type": "uint256"
        }
      ],
      "name": "batchTransferFrom",
      "type": "function",
      "constant": false,
      "outputs": [],
      "payable": false,
      "stateMutability": "nonpayable"
    },
    {
      "anonymous": false,
      "inputs": [
        {
          "indexed": false,
          "name": "_from",
          "type": "address"
        },
        {
          "indexed": true,
          "name": "_to",
          "type": "address"
        },
        {
          "indexed": true,
          "name": "_ids",
          "type": "uint256[]"
        },
        {
          "indexed": true,
          "name": "_values",
          "type": "uint256[]"
        },
        {
          "indexed": false,
          "name": "_data",
          "type": "bytes"
        }
      ],
      "name": "safeBatchTransferFrom",
      "type": "function",
      "constant": false,
      "outputs": [],
      "payable": false,
      "stateMutability": "nonpayable"
    },
    {
      "constant": true,
      "inputs": [
        {
          "name": "_id",
          "type": "uint256"
        },
        {
          "name": "_owner",
          "type": "address"
        },
        {
          "name": "_id",
          "type": "uint256"
        },
        {
          "name": "_value",
          "type": "uint256"
        }
      ],
      "name": "balanceOf",
      "outputs": [
        {
          "name": "",
          "type": "uint256"
        }
      ],
      "payable": false,
      "stateMutability": "view",
      "type": "function"
    },
    {
      "constant": false,
      "inputs": [
        {
          "name": "_to",
          "type": "address"
        },
        {
          "name": "_ids",
          "type": "uint256[]"
        },
        {
          "name": "_values",
          "type": "uint256[]"
        },
        {
          "name": "_data",
          "type": "bytes"
        },
        {
          "name": "_data",
          "type": "bytes"
        }
      ],
      "name": "safeBatchTransfer",
      "outputs": [],
      "payable": false,
      "stateMutability": "nonpayable",
      "type": "function"
    },
    {
      "constant": true,
      "inputs": [
        {
          "name": "_id",
          "type": "uint256"
        },
        {
          "name": "_id",
          "type": "uint256"
        },
        {
          "name": "_currentValue",
          "type": "uint256"
        },
        {
          "name": "_value",
          "type": "uint256"
        }
      ],
      "name": "decimals",
      "outputs": [
        {
          "name": "",
          "type": "uint8"
        }
      ],
      "payable": false,
      "stateMutability": "view",
      "type": "function"
    },
    {
      "constant": true,
      "inputs": [
        {
          "name": "_id",
          "type": "uint256"
        },
        {
          "name": "_owner",
          "type": "address"
        }
      ],
      "name": "symbol",
      "outputs": [
        {
          "name": "",
          "type": "string"
        }
      ],
      "payable": false,
      "stateMutability": "view",
      "type": "function"
    },
    {
      "constant": true,
      "inputs": [
        {
          "name": "",
          "type": "uint256"
        },
        {
          "name": "_owner",
          "type": "address"
        },
        {
          "name": "_spender",
          "type": "address"
        }
      ],
      "name": "metadataURIs",
      "outputs": [
        {
          "name": "",
          "type": "string"
        }
      ],
      "payable": false,
      "stateMutability": "view",
      "type": "function"
    },
    {
      "constant": false,
      "inputs": [
        {
          "name": "_spender",
          "type": "address"
        },
        {
          "name": "_id",
          "type": "uint256"
        },
        {
          "name": "_currentValue",
          "type": "uint256"
        },
        {
          "name": "_value",
          "type": "uint256"
        }
      ],
      "name": "approve",
      "outputs": [],
      "payable": false,
      "stateMutability": "nonpayable",
      "type": "function"
    },
    {
      "constant": false,
      "inputs": [
        {
          "name": "_to",
          "type": "address[]"
        },
        {
          "name": "_ids",
          "type": "uint256[]"
        },
        {
          "name": "_values",
          "type": "uint256[]"
        },
        {
          "name": "_data",
          "type": "bytes"
        }
      ],
      "name": "multicastTransfer",
      "outputs": [],
      "payable": false,
      "stateMutability": "nonpayable",
      "type": "function"
    },
    {
      "constant": false,
      "inputs": [
        {
          "name": "_to",
          "type": "address"
        },
        {
          "name": "_id",
          "type": "uint256"
        },
        {
          "name": "_value",
          "type": "uint256"
        },
        {
          "name": "_data",
          "type": "bytes"
        }
      ],
      "name": "safeTransfer",
      "outputs": [],
      "payable": false,
      "stateMutability": "nonpayable",
      "type": "function"
    },
    {
      "constant": true,
      "inputs": [
        {
          "name": "_id",
          "type": "uint256"
        },
        {
          "name": "_to",
          "type": "address"
        },
        {
          "name": "_ids",
          "type": "uint256[]"
        },
        {
          "name": "_values",
          "type": "uint256[]"
        },
        {
          "name": "_data",
          "type": "bytes"
        }
      ],
      "name": "totalSupply",
      "outputs": [
        {
          "name": "",
          "type": "uint256"
        }
      ],
      "payable": false,
      "stateMutability": "view",
      "type": "function"
    },
    {
      "constant": true,
      "inputs": [
        {
          "name": "",
          "type": "uint256"
        },
        {
          "name": "_ids",
          "type": "uint256[]"
        },
        {
          "name": "_currentValues",
          "type": "uint256[]"
        },
        {
          "name": "_values",
          "type": "uint256[]"
        }
      ],
      "name": "items",
      "outputs": [
        {
          "name": "name",
          "type": "string"
        },
        {
          "name": "totalSupply",
          "type": "uint256"
        }
      ],
      "payable": false,
      "stateMutability": "view",
      "type": "function"
    },
    {
      "constant": true,
      "inputs": [
        {
          "name": "",
          "type": "uint256"
        },
        {
          "name": "_ids",
          "type": "uint256[]"
        },
        {
          "name": "_values",
          "type": "uint256[]"
        }
      ],
      "name": "symbols",
      "outputs": [
        {
          "name": "",
          "type": "string"
        }
      ],
      "payable": false,
      "stateMutability": "view",
      "type": "function"
    },
    {
      "constant": false,
      "inputs": [
        {
          "name": "_spender",
          "type": "address"
        },
        {
          "name": "_ids",
          "type": "uint256[]"
        },
        {
          "name": "_currentValues",
          "type": "uint256[]"
        },
        {
          "name": "_values",
          "type": "uint256[]"
        }
      ],
      "name": "batchApprove",
      "outputs": [],
      "payable": false,
      "stateMutability": "nonpayable",
      "type": "function"
    },
    {
      "constant": false,
      "inputs": [
        {
          "name": "_to",
          "type": "address[]"
        },
        {
          "name": "_ids",
          "type": "uint256[]"
        },
        {
          "name": "_values",
          "type": "uint256[]"
        },
        {
          "name": "_data",
          "type": "bytes"
        }
      ],
      "name": "safeMulticastTransfer",
      "outputs": [
        {
          "name": "",
          "type": "string"
        }
      ],
      "payable": false,
      "stateMutability": "nonpayable",
      "type": "function"
    },
    {
      "constant": false,
      "inputs": [
        {
          "name": "_to",
          "type": "address"
        },
        {
          "name": "_ids",
          "type": "uint256[]"
        },
        {
          "name": "_values",
          "type": "uint256[]"
        }
      ],
      "name": "batchTransfer",
      "outputs": [
        {
          "name": "",
          "type": "string"
        }
      ],
      "payable": false,
      "stateMutability": "nonpayable",
      "type": "function"
    },
    {
      "constant": true,
      "inputs": [
        {
          "name": "",
          "type": "uint256"
        },
        {
          "name": "",
          "type": "address"
        },
        {
          "name": "",
          "type": "address"
        }
      ],
      "name": "allowances",
      "outputs": [
        {
          "name": "",
          "type": "uint256"
        }
      ],
      "payable": false,
      "stateMutability": "view",
      "type": "function"
    },
    {
      "constant": false,
      "inputs": [
        {
          "name": "_from",
          "type": "address"
        },
        {
          "name": "_to",
          "type": "address"
        },
        {
          "name": "_id",
          "type": "uint256"
        },
        {
          "name": "_value",
          "type": "uint256"
        },
        {
          "name": "_data",
          "type": "bytes"
        }
      ],
      "name": "safeTransferFrom",
      "outputs": [
        {
          "name": "",
          "type": "uint256"
        }
      ],
      "payable": false,
      "stateMutability": "nonpayable",
      "type": "function"
    },
    {
      "constant": false,
      "inputs": [
        {
          "name": "_from",
          "type": "address"
        },
        {
          "name": "_to",
          "type": "address"
        },
        {
          "name": "_id",
          "type": "uint256"
        },
        {
          "name": "_value",
          "type": "uint256"
        }
      ],
      "name": "transferFrom",
      "outputs": [
        {
          "name": "",
          "type": "string"
        }
      ],
      "payable": false,
      "stateMutability": "nonpayable",
      "type": "function"
    },
    {
      "constant": false,
      "inputs": [
        {
          "name": "_owner",
          "type": "address",
          "indexed": true
        },
        {
          "name": "_spender",
          "type": "address",
          "indexed": true
        },
        {
          "name": "_id",
          "type": "uint256",
          "indexed": true
        },
        {
          "indexed": false,
          "name": "_oldValue",
          "type": "uint256"
        },
        {
          "indexed": false,
          "name": "_value",
          "type": "uint256"
        }
      ],
      "name": "Approval",
      "outputs": [],
      "payable": false,
      "stateMutability": "nonpayable",
      "type": "event",
      "anonymous": false
    },
    {
      "constant": false,
      "inputs": [
        {
          "name": "_spender",
          "type": "address",
          "indexed": false
        },
        {
          "name": "_from",
          "type": "address",
          "indexed": true
        },
        {
          "name": "_to",
          "type": "address",
          "indexed": true
        },
        {
          "name": "_id",
          "type": "uint256",
          "indexed": true
        },
        {
          "indexed": false,
          "name": "_value",
          "type": "uint256"
        }
      ],
      "name": "Transfer",
      "outputs": [],
      "payable": false,
      "stateMutability": "nonpayable",
      "type": "event",
      "anonymous": false
    }
  ],
  "bytecode": "0x6060604052341561000f57600080fd5b6121118061001e6000396000f3006060604052361561012f5763ffffffff7c0100000000000000000000000000000000000000000000000000000000600035041662ad800c8114610134578063095bcdb6146101c15780630d550b75146101e85780630e89341c1461022257806317fad7fc146102385780632eb2c2d6146102775780633656eec2146102c2578063368b2842146102e45780633f47e662146103275780634e41a1fb146103535780634ed5c558146103695780634f4df4421461037f57806367fd9da3146103a7578063ae28b68c146103dd578063bd85b03914610410578063bfb231d214610426578063ccce413b146104cc578063d1bab4cc146104e2578063dbd3c37214610525578063e39c6d8014610567578063e70d6dc51461059e578063f242432a146105c6578063fe99049a14610601575b600080fd5b341561013f57600080fd5b61014a60043561062c565b60405160208082528190810183818151815260200191508051906020019080838360005b8381101561018657808201518382015260200161016e565b50505050905090810190601f1680156101b35780820380516001836020036101000a031916815260200191505b509250505060405180910390f35b34156101cc57600080fd5b6101e6600160a060020a03600435166024356044356106ea565b005b34156101f357600080fd5b610210600435600160a060020a03602435811690604435166107ca565b60405190815260200160405180910390f35b341561022d57600080fd5b61014a6004356107fa565b341561024357600080fd5b6101e6600160a060020a0360048035821691602480359091169160443580830192908201359160643591820191013561087e565b341561028257600080fd5b6101e6600160a060020a03600480358216916024803590911691604435808301929082013591606435808301929082013591608435918201910135610bda565b34156102cd57600080fd5b610210600435600160a060020a036024351661108e565b34156102ef57600080fd5b6101e660048035600160a060020a031690602480358082019290810135916044358082019290810135916064359081019101356110ba565b341561033257600080fd5b61033d600435611238565b60405160ff909116815260200160405180910390f35b341561035e57600080fd5b61014a60043561124d565b341561037457600080fd5b61014a6004356112d1565b341561038a57600080fd5b6101e6600160a060020a0360043516602435604435606435611381565b34156103b257600080fd5b6101e6602460048035828101929082013591813580830192908201359160443591820191013561143e565b34156103e857600080fd5b6101e660048035600160a060020a031690602480359160443591606435908101910135611576565b341561041b57600080fd5b61021060043561169f565b341561043157600080fd5b61043c6004356116b4565b60405160208101829052604080825283546002600019610100600184161502019091160490820181905281906060820190859080156104bc5780601f10610491576101008083540402835291602001916104bc565b820191906000526020600020905b81548152906001019060200180831161049f57829003601f168201915b5050935050505060405180910390f35b34156104d757600080fd5b61014a6004356116ca565b34156104ed57600080fd5b6101e660048035600160a060020a03169060248035808201929081013591604435808201929081013591606435908101910135611747565b341561053057600080fd5b6101e6602460048035828101929082013591813580830192908201359160443580830192908201359160643591820191013561188c565b341561057257600080fd5b6101e660048035600160a060020a03169060248035808201929081013591604435908101910135611a74565b34156105a957600080fd5b610210600435600160a060020a0360243581169060443516611b9c565b34156105d157600080fd5b6101e6600160a060020a036004803582169160248035909116916044359160643591608435918201910135611bbf565b341561060c57600080fd5b6101e6600160a060020a0360043581169060243516604435606435611d76565b6106346120b3565b600360008381526020019081526020016000206000018054600181600116156101000203166002900480601f0160208091040260200160405190810160405280929190818152602001828054600181600116156101000203166002900480156106de5780601f106106b3576101008083540402835291602001916106de565b820191906000526020600020905b8154815290600101906020018083116106c157829003601f168201915b50505050509050919050565b6000828152600360209081526040808320600160a060020a0333168452600201909152902054610720908263ffffffff611ee416565b6000838152600360209081526040808320600160a060020a03338116855260029091019092528083209390935585168152205461075e908290611ef6565b6000838152600360209081526040808320600160a060020a0380891680865260029092019093529281902093909355849233918216916000805160206120c683398151915291869051600160a060020a03909216825260208201526040908101905180910390a4505050565b6000928352600260209081526040808520600160a060020a03948516865282528085209290931684525290205490565b6108026120b3565b600460008381526020019081526020016000208054600181600116156101000203166002900480601f0160208091040260200160405190810160405280929190818152602001828054600181600116156101000203166002900480156106de5780601f106106b3576101008083540402835291602001916106de565b600080600033600160a060020a031689600160a060020a031614156109d4575060005b858110156109cf578686828181106108b557fe5b90506020020135925084848281811015156108cc57fe5b905060200201359150610921826003600086815260200190815260200160002060020160008c600160a060020a0316600160a060020a0316815260200190815260200160002054611ee490919063ffffffff16565b6000848152600360209081526040808320600160a060020a038e811685526002909101909252808320939093558a168152205461095f908390611ef6565b6000848152600360209081526040808320600160a060020a03808e16808652600290920190935292819020939093558592908c16906000805160206120c6833981519152903390879051600160a060020a03909216825260208201526040908101905180910390a46001016108a1565b610bcf565b5060005b85811015610bcf578686828181106109ec57fe5b9050602002013592508484828181101515610a0357fe5b905060200201359150610a78826002600086815260200190815260200160002060008c600160a060020a0316600160a060020a03168152602001908152602001600020600033600160a060020a0316600160a060020a0316815260200190815260200160002054611ee490919063ffffffff16565b6002600085815260200190815260200160002060008b600160a060020a0316600160a060020a03168152602001908152602001600020600033600160a060020a0316600160a060020a0316815260200190815260200160002081905550610b21826003600086815260200190815260200160002060020160008c600160a060020a0316600160a060020a0316815260200190815260200160002054611ee490919063ffffffff16565b6000848152600360209081526040808320600160a060020a038e811685526002909101909252808320939093558a1681522054610b5f908390611ef6565b6000848152600360209081526040808320600160a060020a03808e16808652600290920190935292819020939093558592908c16906000805160206120c6833981519152903390879051600160a060020a03909216825260208201526040908101905180910390a46001016109d8565b505050505050505050565b600080805b87831015610c5f57610c498b8b8b8b87818110610bf857fe5b905060200201358a8a888181101515610c0d57fe5b9050602002013589898080601f016020809104026020016040519081016040528181529291906020840183838082843750611f09945050505050565b1515610c5457600080fd5b826001019250610bdf565b33600160a060020a03168b600160a060020a03161415610e1b57600092505b87831015610e1657888884818110610c9257fe5b9050602002013591508686848181101515610ca957fe5b905060200201359050610cfe816003600085815260200190815260200160002060020160008e600160a060020a0316600160a060020a0316815260200190815260200160002054611ee490919063ffffffff16565b6003600084815260200190815260200160002060020160008d600160a060020a0316600160a060020a0316815260200190815260200160002081905550610d876003600084815260200190815260200160002060020160008c600160a060020a0316600160a060020a031681526020019081526020016000205482611ef690919063ffffffff16565b6003600084815260200190815260200160002060020160008c600160a060020a0316600160a060020a0316815260200190815260200160002081905550818a600160a060020a03168c600160a060020a03166000805160206120c68339815191523385604051600160a060020a03909216825260208201526040908101905180910390a4826001019250610c7e565b611081565b600092505b8783101561108157888884818110610e3457fe5b9050602002013591508686848181101515610e4b57fe5b905060200201359050610ec0816002600085815260200190815260200160002060008e600160a060020a0316600160a060020a03168152602001908152602001600020600033600160a060020a0316600160a060020a0316815260200190815260200160002054611ee490919063ffffffff16565b6002600084815260200190815260200160002060008d600160a060020a0316600160a060020a03168152602001908152602001600020600033600160a060020a0316600160a060020a0316815260200190815260200160002081905550610f69816003600085815260200190815260200160002060020160008e600160a060020a0316600160a060020a0316815260200190815260200160002054611ee490919063ffffffff16565b6003600084815260200190815260200160002060020160008d600160a060020a0316600160a060020a0316815260200190815260200160002081905550610ff26003600084815260200190815260200160002060020160008c600160a060020a0316600160a060020a031681526020019081526020016000205482611ef690919063ffffffff16565b6003600084815260200190815260200160002060020160008c600160a060020a0316600160a060020a0316815260200190815260200160002081905550818a600160a060020a03168c600160a060020a03166000805160206120c68339815191523385604051600160a060020a03909216825260208201526040908101905180910390a4826001019250610e20565b5050505050505050505050565b6000828152600360209081526040808320600160a060020a038516845260020190915290205492915050565b600080805b878310156110ee576110d8338b8b8b87818110610bf857fe5b15156110e357600080fd5b8260010192506110bf565b600092505b8783101561122c5788888481811061110757fe5b905060200201359150868684818110151561111e57fe5b6000858152600360209081526040808320600160a060020a033316845260020182529091205491029290920135925061115f9190508263ffffffff611ee416565b6000838152600360209081526040808320600160a060020a0333811685526002909101909252808320939093558c168152205461119d908290611ef6565b6003600084815260200190815260200160002060020160008c600160a060020a0316600160a060020a0316815260200190815260200160002081905550818a600160a060020a031633600160a060020a03166000805160206120c68339815191523385604051600160a060020a03909216825260208201526040908101905180910390a48260010192506110f3565b50505050505050505050565b60009081526020819052604090205460ff1690565b6112556120b3565b600160008381526020019081526020016000208054600181600116156101000203166002900480601f0160208091040260200160405190810160405280929190818152602001828054600181600116156101000203166002900480156106de5780601f106106b3576101008083540402835291602001916106de565b60046020528060005260406000206000915090508054600181600116156101000203166002900480601f0160208091040260200160405190810160405280929190818152602001828054600181600116156101000203166002900480156113795780601f1061134e57610100808354040283529160200191611379565b820191906000526020600020905b81548152906001019060200180831161135c57829003601f168201915b505050505081565b8015806113bb57506000838152600260209081526040808320600160a060020a033381168552908352818420908816845290915290205482145b15156113c657600080fd5b6000838152600260209081526040808320600160a060020a033381168086529184528285209089168086529352928190208490558592907f3a9c85c6b31f7a9d7fe1478f53e1be42e85db97ca30d1789cfef9196dbc472c990869086905191825260208201526040908101905180910390a450505050565b60008080805b8884101561122c5787878581811061145857fe5b905060200201359250858585818110151561146f57fe5b905060200201359150898985818110151561148657fe5b6000868152600360209081526040808320600160a060020a033381168552600290910183529220549202939093013590921692506114c691905083611ee4565b6000848152600360209081526040808320600160a060020a033381168552600290910190925280832093909355831681522054611504908390611ef6565b6000848152600360209081526040808320600160a060020a0380871680865260029092019093529281902093909355859233918216916000805160206120c683398151915291879051600160a060020a03909216825260208201526040908101905180910390a4836001019350611444565b6115b23386868686868080601f016020809104026020016040519081016040528181529291906020840183838082843750611f09945050505050565b15156115bd57600080fd5b6000848152600360209081526040808320600160a060020a03331684526002019091529020546115f3908463ffffffff611ee416565b6000858152600360209081526040808320600160a060020a033381168552600290910190925280832093909355871681522054611631908490611ef6565b6000858152600360209081526040808320600160a060020a03808b1680865260029092019093529281902093909355869233918216916000805160206120c683398151915291889051600160a060020a03909216825260208201526040908101905180910390a45050505050565b60009081526003602052604090206001015490565b6003602052600090815260409020600181015482565b60016020528060005260406000206000915090508054600181600116156101000203166002900480601f0160208091040260200160405190810160405280929190818152602001828054600181600116156101000203166002900480156113795780601f1061134e57610100808354040283529160200191611379565b600080805b8781101561122c5788888281811061176057fe5b905060200201359250848482818110151561177757fe5b90506020020135915081600014806117f9575086868281811061179657fe5b9050602002013560026000858152602001908152602001600020600033600160a060020a0316600160a060020a0316815260200190815260200160002060008c600160a060020a0316600160a060020a0316815260200190815260200160002054145b151561180457600080fd5b6000838152600260209081526040808320600160a060020a03338116808652918452828520908f168086529352922084905584917f3a9c85c6b31f7a9d7fe1478f53e1be42e85db97ca30d1789cfef9196dbc472c98a8a8681811061186557fe5b905060200201358660405191825260208201526040908101905180910390a460010161174c565b60008080805b8884101561192f57611919338d8d878181106118aa57fe5b90506020020135600160a060020a03168c8c8881811015156118c857fe5b905060200201358b8b8981811015156118dd57fe5b905060200201358a8a8080601f016020809104026020016040519081016040528181529291906020840183838082843750611f09945050505050565b151561192457600080fd5b836001019350611892565b600093505b8a841015611a665789898581811061194857fe5b905060200201359250878785818110151561195f57fe5b9050602002013591508b8b85818110151561197657fe5b6000868152600360209081526040808320600160a060020a033381168552600290910183529220549202939093013590921692506119b691905083611ee4565b6000848152600360209081526040808320600160a060020a0333811685526002909101909252808320939093558316815220546119f4908390611ef6565b6000848152600360209081526040808320600160a060020a0380871680865260029092019093529281902093909355859233918216916000805160206120c683398151915291879051600160a060020a03909216825260208201526040908101905180910390a4836001019350611934565b505050505050505050505050565b600080805b85811015611b9257868682818110611a8d57fe5b9050602002013592508484828181101515611aa457fe5b6000868152600360209081526040808320600160a060020a0333168452600201825290912054910292909201359350611ae59190508363ffffffff611ee416565b6000848152600360209081526040808320600160a060020a0333811685526002909101909252808320939093558a1681522054611b23908390611ef6565b6000848152600360209081526040808320600160a060020a03808e1680865260029092019093529281902093909355859233918216916000805160206120c683398151915291879051600160a060020a03909216825260208201526040908101905180910390a4600101611a79565b5050505050505050565b600260209081526000938452604080852082529284528284209052825290205481565b611bfb8686868686868080601f016020809104026020016040519081016040528181529291906020840183838082843750611f09945050505050565b1515611c0657600080fd5b33600160a060020a031686600160a060020a0316141515611c92576000848152600260209081526040808320600160a060020a03808b168552908352818420339091168452909152902054611c61908463ffffffff611ee416565b6000858152600260209081526040808320600160a060020a03808c1685529083528184203390911684529091529020555b6000848152600360209081526040808320600160a060020a038a168452600201909152902054611cc8908463ffffffff611ee416565b6000858152600360209081526040808320600160a060020a038b81168552600290910190925280832093909355871681522054611d06908490611ef6565b6000858152600360209081526040808320600160a060020a03808b16808652600290920190935292819020939093558692908916906000805160206120c6833981519152903390889051600160a060020a03909216825260208201526040908101905180910390a4505050505050565b33600160a060020a031684600160a060020a0316141515611e02576000828152600260209081526040808320600160a060020a038089168552908352818420339091168452909152902054611dd1908263ffffffff611ee416565b6000838152600260209081526040808320600160a060020a03808a1685529083528184203390911684529091529020555b6000828152600360209081526040808320600160a060020a0388168452600201909152902054611e38908263ffffffff611ee416565b6000838152600360209081526040808320600160a060020a038981168552600290910190925280832093909355851681522054611e76908290611ef6565b6000838152600360209081526040808320600160a060020a03808916808652600290920190935292819020939093558492908716906000805160206120c6833981519152903390869051600160a060020a03909216825260208201526040908101905180910390a450505050565b600082821115611ef057fe5b50900390565b81810182811015611f0357fe5b92915050565b600080611f1e86600160a060020a03166120ab565b1515611f2d57600191506120a1565b85600160a060020a031663f23a6e6133898888886000604051602001526040518663ffffffff167c01000000000000000000000000000000000000000000000000000000000281526004018086600160a060020a0316600160a060020a0316815260200185600160a060020a0316600160a060020a0316815260200184815260200183815260200180602001828103825283818151815260200191508051906020019080838360005b83811015611fee578082015183820152602001611fd6565b50505050905090810190601f16801561201b5780820380516001836020036101000a031916815260200191505b509650505050505050602060405180830381600087803b151561203d57600080fd5b6102c65a03f1151561204e57600080fd5b50505060405180517fffffffff0000000000000000000000000000000000000000000000000000000081167ff23a6e61000000000000000000000000000000000000000000000000000000001493509150505b5095945050505050565b6000903b1190565b6020604051908101604052600081529056001b3d7edb2e9c0b0e7c525b20aaaef0f5940d2ed71663c7d39266ecafac728859a165627a7a72305820bb2da54aab4c7ba4b510f939d998fa37c89230a98d9bb3f2a02a5cc7a25e6f2e0029",
  "source": "pragma solidity ^0.4.17;\n\nimport \"./ERC1155SafeMath.sol\";\nimport \"./Address.sol\";\nimport \"./IERC1155.sol\";\n\ncontract ERC1155 is IERC1155, IERC1155Extended, IERC1155BatchTransfer, IERC1155BatchTransferExtended {\n    using ERC1155SafeMath for uint256;\n    using Address for address;\n\n    // Variables\n    struct Items {\n        string name;\n        uint256 totalSupply;\n        mapping (address => uint256) balances;\n    }\n    mapping (uint256 => uint8) public decimals;\n    mapping (uint256 => string) public symbols;\n    mapping (uint256 => mapping(address => mapping(address => uint256))) public allowances;\n    mapping (uint256 => Items) public items;\n    mapping (uint256 => string) public metadataURIs;\n\n    bytes4 constant private ERC1155_RECEIVED = 0xf23a6e61;\n\n/////////////////////////////////////////// IERC1155 //////////////////////////////////////////////\n\n    // Events\n    event Approval(address indexed _owner, address indexed _spender, uint256 indexed _id, uint256 _oldValue, uint256 _value);\n    event Transfer(address _spender, address indexed _from, address indexed _to, uint256 indexed _id, uint256 _value);\n\n    function transferFrom(address _from, address _to, uint256 _id, uint256 _value) external {\n        if(_from != msg.sender) {\n            //require(allowances[_id][_from][msg.sender] >= _value);\n            allowances[_id][_from][msg.sender] = allowances[_id][_from][msg.sender].sub(_value);\n        }\n\n        items[_id].balances[_from] = items[_id].balances[_from].sub(_value);\n        items[_id].balances[_to] = _value.add(items[_id].balances[_to]);\n\n        Transfer(msg.sender, _from, _to, _id, _value);\n    }\n\n    function safeTransferFrom(address _from, address _to, uint256 _id, uint256 _value, bytes _data) external {\n        //this.transferFrom(_from, _to, _id, _value);\n\n        // solium-disable-next-line arg-overflow\n        require(_checkAndCallSafeTransfer(_from, _to, _id, _value, _data));\n        if(_from != msg.sender) {\n            //require(allowances[_id][_from][msg.sender] >= _value);\n            allowances[_id][_from][msg.sender] = allowances[_id][_from][msg.sender].sub(_value);\n        }\n\n        items[_id].balances[_from] = items[_id].balances[_from].sub(_value);\n        items[_id].balances[_to] = _value.add(items[_id].balances[_to]);\n\n        Transfer(msg.sender, _from, _to, _id, _value);\n    }\n\n    function approve(address _spender, uint256 _id, uint256 _currentValue, uint256 _value) external {\n        // if the allowance isn't 0, it can only be updated to 0 to prevent an allowance change immediately after withdrawal\n        require(_value == 0 || allowances[_id][msg.sender][_spender] == _currentValue);\n        allowances[_id][msg.sender][_spender] = _value;\n        Approval(msg.sender, _spender, _id, _currentValue, _value);\n    }\n\n    function balanceOf(uint256 _id, address _owner) external view returns (uint256) {\n        return items[_id].balances[_owner];\n    }\n\n    function allowance(uint256 _id, address _owner, address _spender) external view returns (uint256) {\n        return allowances[_id][_owner][_spender];\n    }\n\n/////////////////////////////////////// IERC1155Extended //////////////////////////////////////////\n\n    function transfer(address _to, uint256 _id, uint256 _value) external {\n        // Not needed. SafeMath will do the same check on .sub(_value)\n        //require(_value <= items[_id].balances[msg.sender]);\n        items[_id].balances[msg.sender] = items[_id].balances[msg.sender].sub(_value);\n        items[_id].balances[_to] = _value.add(items[_id].balances[_to]);\n        Transfer(msg.sender, msg.sender, _to, _id, _value);\n    }\n\n    function safeTransfer(address _to, uint256 _id, uint256 _value, bytes _data) external {\n        //this.transfer(_to, _id, _value);\n                \n        // solium-disable-next-line arg-overflow\n        require(_checkAndCallSafeTransfer(msg.sender, _to, _id, _value, _data));\n        items[_id].balances[msg.sender] = items[_id].balances[msg.sender].sub(_value);\n        items[_id].balances[_to] = _value.add(items[_id].balances[_to]);\n        Transfer(msg.sender, msg.sender, _to, _id, _value);\n    }\n\n//////////////////////////////////// IERC1155BatchTransfer ////////////////////////////////////////\n\n    function batchTransferFrom(address _from, address _to, uint256[] _ids, uint256[] _values) external {\n        uint256 _id;\n        uint256 _value;\n\n        if(_from == msg.sender) {\n            for (uint256 i = 0; i < _ids.length; ++i) {\n                _id = _ids[i];\n                _value = _values[i];\n\n                items[_id].balances[_from] = items[_id].balances[_from].sub(_value);\n                items[_id].balances[_to] = _value.add(items[_id].balances[_to]);\n\n                Transfer(msg.sender, _from, _to, _id, _value);\n            }\n        }\n        else {\n            for (i = 0; i < _ids.length; ++i) {\n                _id = _ids[i];\n                _value = _values[i];\n\n                allowances[_id][_from][msg.sender] = allowances[_id][_from][msg.sender].sub(_value);\n\n                items[_id].balances[_from] = items[_id].balances[_from].sub(_value);\n                items[_id].balances[_to] = _value.add(items[_id].balances[_to]);\n\n                Transfer(msg.sender, _from, _to, _id, _value);\n            }\n        }\n    }\n\n    function safeBatchTransferFrom(address _from, address _to, uint256[] _ids, uint256[] _values, bytes _data) external {\n        //this.batchTransferFrom(_from, _to, _ids, _values);\n\n        for (uint256 i = 0; i < _ids.length; ++i) {\n            // solium-disable-next-line arg-overflow\n            require(_checkAndCallSafeTransfer(_from, _to, _ids[i], _values[i], _data));\n        }\n\n        uint256 _id;\n        uint256 _value;\n\n        if(_from == msg.sender) {\n            for (i = 0; i < _ids.length; ++i) {\n                _id = _ids[i];\n                _value = _values[i];\n\n                items[_id].balances[_from] = items[_id].balances[_from].sub(_value);\n                items[_id].balances[_to] = _value.add(items[_id].balances[_to]);\n\n                Transfer(msg.sender, _from, _to, _id, _value);\n            }\n        }\n        else {\n            for (i = 0; i < _ids.length; ++i) {\n                _id = _ids[i];\n                _value = _values[i];\n\n                allowances[_id][_from][msg.sender] = allowances[_id][_from][msg.sender].sub(_value);\n\n                items[_id].balances[_from] = items[_id].balances[_from].sub(_value);\n                items[_id].balances[_to] = _value.add(items[_id].balances[_to]);\n\n                Transfer(msg.sender, _from, _to, _id, _value);\n            }\n        }\n    }\n\n    function batchApprove(address _spender, uint256[] _ids,  uint256[] _currentValues, uint256[] _values) external {\n        uint256 _id;\n        uint256 _value;\n\n        for (uint256 i = 0; i < _ids.length; ++i) {\n            _id = _ids[i];\n            _value = _values[i];\n\n            require(_value == 0 || allowances[_id][msg.sender][_spender] == _currentValues[i]);\n            allowances[_id][msg.sender][_spender] = _value;\n            Approval(msg.sender, _spender, _id, _currentValues[i], _value);\n        }\n    }\n\n//////////////////////////////// IERC1155BatchTransferExtended ////////////////////////////////////\n\n    function batchTransfer(address _to, uint256[] _ids, uint256[] _values) external {\n        uint256 _id;\n        uint256 _value;\n\n        for (uint256 i = 0; i < _ids.length; ++i) {\n            _id = _ids[i];\n            _value = _values[i];\n\n            items[_id].balances[msg.sender] = items[_id].balances[msg.sender].sub(_value);\n            items[_id].balances[_to] = _value.add(items[_id].balances[_to]);\n\n            Transfer(msg.sender, msg.sender, _to, _id, _value);\n        }\n    }\n\n    function safeBatchTransfer(address _to, uint256[] _ids, uint256[] _values, bytes _data) external {\n        //this.batchTransfer(_to, _ids, _values);\n\n        for (uint256 i = 0; i < _ids.length; ++i) {\n            // solium-disable-next-line arg-overflow\n            require(_checkAndCallSafeTransfer(msg.sender, _to, _ids[i], _values[i], _data));\n        }\n\n        uint256 _id;\n        uint256 _value;\n\n        for (i = 0; i < _ids.length; ++i) {\n            _id = _ids[i];\n            _value = _values[i];\n\n            items[_id].balances[msg.sender] = items[_id].balances[msg.sender].sub(_value);\n            items[_id].balances[_to] = _value.add(items[_id].balances[_to]);\n\n            Transfer(msg.sender, msg.sender, _to, _id, _value);\n        }\n    }\n\n//////////////////////////////// IERC1155BatchTransferExtended ////////////////////////////////////\n\n    // Optional meta data view Functions\n    // consider multi-lingual support for name?\n    function name(uint256 _id) external view returns (string) {\n        return items[_id].name;\n    }\n\n    function symbol(uint256 _id) external view returns (string) {\n        return symbols[_id];\n    }\n\n    function decimals(uint256 _id) external view returns (uint8) {\n        return decimals[_id];\n    }\n\n    function totalSupply(uint256 _id) external view returns (uint256) {\n        return items[_id].totalSupply;\n    }\n\n    function uri(uint256 _id) external view returns (string) {\n        return metadataURIs[_id];\n    }\n\n////////////////////////////////////////// OPTIONALS //////////////////////////////////////////////\n\n\n    function multicastTransfer(address[] _to, uint256[] _ids, uint256[] _values) external {\n        for (uint256 i = 0; i < _to.length; ++i) {\n            uint256 _id = _ids[i];\n            uint256 _value = _values[i];\n            address _dst = _to[i];\n\n            items[_id].balances[msg.sender] = items[_id].balances[msg.sender].sub(_value);\n            items[_id].balances[_dst] = _value.add(items[_id].balances[_dst]);\n\n            Transfer(msg.sender, msg.sender, _dst, _id, _value);\n        }\n    }\n\n    function safeMulticastTransfer(address[] _to, uint256[] _ids, uint256[] _values, bytes _data) external {\n        //this.multicastTransfer(_to, _ids, _values);\n\n        for (uint256 i = 0; i < _ids.length; ++i) {\n            // solium-disable-next-line arg-overflow\n            require(_checkAndCallSafeTransfer(msg.sender, _to[i], _ids[i], _values[i], _data));\n        }\n\n        for (i = 0; i < _to.length; ++i) {\n            uint256 _id = _ids[i];\n            uint256 _value = _values[i];\n            address _dst = _to[i];\n\n            items[_id].balances[msg.sender] = items[_id].balances[msg.sender].sub(_value);\n            items[_id].balances[_dst] = _value.add(items[_id].balances[_dst]);\n\n            Transfer(msg.sender, msg.sender, _dst, _id, _value);\n        }\n    }\n\n////////////////////////////////////////// INTERNAL //////////////////////////////////////////////\n\n    function _checkAndCallSafeTransfer(\n        address _from,\n        address _to,\n        uint256 _id,\n        uint256 _value,\n        bytes _data\n    )\n    internal\n    returns (bool)\n    {\n        if (!_to.isContract()) {\n            return true;\n        }\n        bytes4 retval = IERC1155TokenReceiver(_to).onERC1155Received(\n            msg.sender, _from, _id, _value, _data);\n        return (retval == ERC1155_RECEIVED);\n    }\n}",
  "sourcePath": "/Users/wisdom/Documents/GitHub/populous-smartcontracts/contracts/ERC1155.sol",
  "schemaVersion": "1.0.0",
  "updatedAt": "2018-11-16T15:37:08.950Z"
}