{
  "contractName": "ERC1155",
  "abi": [
    {
      "constant": true,
      "inputs": [
        {
          "name": "_id",
          "type": "uint256"
        }
      ],
      "name": "name",
      "outputs": [
        {
          "name": "",
          "type": "string"
        }
      ],
      "payable": false,
      "stateMutability": "view",
      "type": "function"
    },
    {
      "constant": false,
      "inputs": [
        {
          "name": "_to",
          "type": "address"
        },
        {
          "name": "_id",
          "type": "uint256"
        },
        {
          "name": "_value",
          "type": "uint256"
        }
      ],
      "name": "transfer",
      "outputs": [
        {
          "name": "name",
          "type": "string"
        },
        {
          "name": "totalSupply",
          "type": "uint256"
        }
      ],
      "payable": false,
      "stateMutability": "nonpayable",
      "type": "function"
    },
    {
      "constant": true,
      "inputs": [
        {
          "name": "_id",
          "type": "uint256"
        },
        {
          "name": "_owner",
          "type": "address"
        },
        {
          "name": "_spender",
          "type": "address"
        }
      ],
      "name": "allowance",
      "outputs": [
        {
          "name": "",
          "type": "uint256"
        }
      ],
      "payable": false,
      "stateMutability": "view",
      "type": "function"
    },
    {
      "constant": true,
      "inputs": [
        {
          "name": "_id",
          "type": "uint256"
        },
        {
          "name": "",
          "type": "address"
        },
        {
          "name": "",
          "type": "address"
        }
      ],
      "name": "uri",
      "outputs": [
        {
          "name": "",
          "type": "string"
        }
      ],
      "payable": false,
      "stateMutability": "view",
      "type": "function"
    },
    {
      "anonymous": false,
      "inputs": [
        {
          "indexed": true,
          "name": "_from",
          "type": "address"
        },
        {
          "indexed": true,
          "name": "_to",
          "type": "address"
        },
        {
          "indexed": true,
          "name": "_ids",
          "type": "uint256[]"
        },
        {
          "indexed": false,
          "name": "_values",
          "type": "uint256[]"
        },
        {
          "indexed": false,
          "name": "_value",
          "type": "uint256"
        }
      ],
      "name": "batchTransferFrom",
      "type": "function",
      "constant": false,
      "outputs": [],
      "payable": false,
      "stateMutability": "nonpayable"
    },
    {
      "anonymous": false,
      "inputs": [
        {
          "indexed": false,
          "name": "_from",
          "type": "address"
        },
        {
          "indexed": true,
          "name": "_to",
          "type": "address"
        },
        {
          "indexed": true,
          "name": "_ids",
          "type": "uint256[]"
        },
        {
          "indexed": true,
          "name": "_values",
          "type": "uint256[]"
        },
        {
          "indexed": false,
          "name": "_data",
          "type": "bytes"
        }
      ],
      "name": "safeBatchTransferFrom",
      "type": "function",
      "constant": false,
      "outputs": [],
      "payable": false,
      "stateMutability": "nonpayable"
    },
    {
      "anonymous": false,
      "inputs": [
        {
          "indexed": false,
          "name": "_id",
          "type": "uint256"
        },
        {
          "indexed": false,
          "name": "_owner",
          "type": "address"
        },
        {
          "indexed": false,
          "name": "value",
          "type": "uint256"
        }
      ],
      "name": "balanceOf",
      "type": "function",
      "constant": true,
      "outputs": [
        {
          "name": "",
          "type": "uint256"
        }
      ],
      "payable": false,
      "stateMutability": "view"
    },
    {
      "constant": false,
      "inputs": [
        {
          "name": "_to",
          "type": "address"
        },
        {
          "name": "_ids",
          "type": "uint256[]"
        },
        {
          "name": "_values",
          "type": "uint256[]"
        },
        {
          "name": "_data",
          "type": "bytes"
        }
      ],
      "name": "safeBatchTransfer",
      "outputs": [],
      "payable": false,
      "stateMutability": "nonpayable",
      "type": "function"
    },
    {
      "constant": true,
      "inputs": [
        {
          "name": "_id",
          "type": "uint256"
        },
        {
          "name": "_to",
          "type": "address"
        },
        {
          "name": "_id",
          "type": "uint256"
        },
        {
          "name": "_value",
          "type": "uint256"
        },
        {
          "name": "_data",
          "type": "bytes"
        }
      ],
      "name": "decimals",
      "outputs": [
        {
          "name": "",
          "type": "uint8"
        }
      ],
      "payable": false,
      "stateMutability": "view",
      "type": "function"
    },
    {
      "constant": true,
      "inputs": [
        {
          "name": "_id",
          "type": "uint256"
        },
        {
          "name": "_id",
          "type": "uint256"
        },
        {
          "name": "_currentValue",
          "type": "uint256"
        },
        {
          "name": "_value",
          "type": "uint256"
        }
      ],
      "name": "symbol",
      "outputs": [
        {
          "name": "",
          "type": "string"
        }
      ],
      "payable": false,
      "stateMutability": "view",
      "type": "function"
    },
    {
      "constant": true,
      "inputs": [
        {
          "name": "",
          "type": "uint256"
        },
        {
          "name": "_owner",
          "type": "address"
        }
      ],
      "name": "metadataURIs",
      "outputs": [
        {
          "name": "",
          "type": "string"
        }
      ],
      "payable": false,
      "stateMutability": "view",
      "type": "function"
    },
    {
      "constant": false,
      "inputs": [
        {
          "name": "_spender",
          "type": "address"
        },
        {
          "name": "_id",
          "type": "uint256"
        },
        {
          "name": "_currentValue",
          "type": "uint256"
        },
        {
          "name": "_value",
          "type": "uint256"
        }
      ],
      "name": "approve",
      "outputs": [
        {
          "name": "",
          "type": "uint256"
        }
      ],
      "payable": false,
      "stateMutability": "nonpayable",
      "type": "function"
    },
    {
      "constant": false,
      "inputs": [
        {
          "name": "_to",
          "type": "address[]"
        },
        {
          "name": "_ids",
          "type": "uint256[]"
        },
        {
          "name": "_values",
          "type": "uint256[]"
        }
      ],
      "name": "multicastTransfer",
      "outputs": [],
      "payable": false,
      "stateMutability": "nonpayable",
      "type": "function"
    },
    {
      "constant": false,
      "inputs": [
        {
          "name": "_to",
          "type": "address"
        },
        {
          "name": "_id",
          "type": "uint256"
        },
        {
          "name": "_value",
          "type": "uint256"
        },
        {
          "name": "_data",
          "type": "bytes"
        }
      ],
      "name": "safeTransfer",
      "outputs": [],
      "payable": false,
      "stateMutability": "nonpayable",
      "type": "function"
    },
    {
      "constant": true,
      "inputs": [
        {
          "name": "_id",
          "type": "uint256"
        },
        {
          "name": "_to",
          "type": "address"
        },
        {
          "name": "_ids",
          "type": "uint256[]"
        },
        {
          "name": "_values",
          "type": "uint256[]"
        }
      ],
      "name": "totalSupply",
      "outputs": [
        {
          "name": "",
          "type": "uint256"
        }
      ],
      "payable": false,
      "stateMutability": "view",
      "type": "function"
    },
    {
      "constant": true,
      "inputs": [
        {
          "name": "",
          "type": "uint256"
        },
        {
          "name": "_to",
          "type": "address"
        },
        {
          "name": "_ids",
          "type": "uint256[]"
        },
        {
          "name": "_values",
          "type": "uint256[]"
        },
        {
          "name": "_data",
          "type": "bytes"
        }
      ],
      "name": "items",
      "outputs": [
        {
          "name": "name",
          "type": "string"
        },
        {
          "name": "totalSupply",
          "type": "uint256"
        }
      ],
      "payable": false,
      "stateMutability": "view",
      "type": "function"
    },
    {
      "constant": true,
      "inputs": [
        {
          "name": "",
          "type": "uint256"
        },
        {
          "name": "_ids",
          "type": "uint256[]"
        },
        {
          "name": "_currentValues",
          "type": "uint256[]"
        },
        {
          "name": "_values",
          "type": "uint256[]"
        }
      ],
      "name": "symbols",
      "outputs": [
        {
          "name": "",
          "type": "string"
        }
      ],
      "payable": false,
      "stateMutability": "view",
      "type": "function"
    },
    {
      "constant": false,
      "inputs": [
        {
          "name": "_spender",
          "type": "address"
        },
        {
          "name": "_ids",
          "type": "uint256[]"
        },
        {
          "name": "_currentValues",
          "type": "uint256[]"
        },
        {
          "name": "_values",
          "type": "uint256[]"
        }
      ],
      "name": "batchApprove",
      "outputs": [],
      "payable": false,
      "stateMutability": "nonpayable",
      "type": "function"
    },
    {
      "constant": false,
      "inputs": [
        {
          "name": "_to",
          "type": "address[]"
        },
        {
          "name": "_ids",
          "type": "uint256[]"
        },
        {
          "name": "_values",
          "type": "uint256[]"
        },
        {
          "name": "_data",
          "type": "bytes"
        }
      ],
      "name": "safeMulticastTransfer",
      "outputs": [],
      "payable": false,
      "stateMutability": "nonpayable",
      "type": "function"
    },
    {
      "constant": false,
      "inputs": [
        {
          "name": "_to",
          "type": "address"
        },
        {
          "name": "_ids",
          "type": "uint256[]"
        },
        {
          "name": "_values",
          "type": "uint256[]"
        }
      ],
      "name": "batchTransfer",
      "outputs": [
        {
          "name": "",
          "type": "string"
        }
      ],
      "payable": false,
      "stateMutability": "nonpayable",
      "type": "function"
    },
    {
      "constant": true,
      "inputs": [
        {
          "name": "",
          "type": "uint256"
        },
        {
          "name": "",
          "type": "address"
        },
        {
          "name": "",
          "type": "address"
        }
      ],
      "name": "allowances",
      "outputs": [
        {
          "name": "",
          "type": "uint256"
        }
      ],
      "payable": false,
      "stateMutability": "view",
      "type": "function"
    },
    {
      "constant": false,
      "inputs": [
        {
          "name": "_from",
          "type": "address"
        },
        {
          "name": "_to",
          "type": "address"
        },
        {
          "name": "_id",
          "type": "uint256"
        },
        {
          "name": "_value",
          "type": "uint256"
        },
        {
          "name": "_data",
          "type": "bytes"
        }
      ],
      "name": "safeTransferFrom",
      "outputs": [
        {
          "name": "",
          "type": "uint8"
        }
      ],
      "payable": false,
      "stateMutability": "nonpayable",
      "type": "function"
    },
    {
      "constant": false,
      "inputs": [
        {
          "name": "_from",
          "type": "address"
        },
        {
          "name": "_to",
          "type": "address"
        },
        {
          "name": "_id",
          "type": "uint256"
        },
        {
          "name": "_value",
          "type": "uint256"
        }
      ],
      "name": "transferFrom",
      "outputs": [
        {
          "name": "",
          "type": "uint256"
        }
      ],
      "payable": false,
      "stateMutability": "nonpayable",
      "type": "function"
    },
    {
      "constant": true,
      "inputs": [
        {
          "name": "_owner",
          "type": "address",
          "indexed": true
        },
        {
          "indexed": true,
          "name": "_spender",
          "type": "address"
        },
        {
          "indexed": true,
          "name": "_id",
          "type": "uint256"
        },
        {
          "indexed": false,
          "name": "_oldValue",
          "type": "uint256"
        },
        {
          "indexed": false,
          "name": "_value",
          "type": "uint256"
        }
      ],
      "name": "Approval",
      "outputs": [
        {
          "name": "",
          "type": "string"
        }
      ],
      "payable": false,
      "stateMutability": "view",
      "type": "event",
      "anonymous": false
    },
    {
      "constant": false,
      "inputs": [
        {
          "name": "_spender",
          "type": "address",
          "indexed": false
        },
        {
          "name": "_from",
          "type": "address",
          "indexed": true
        },
        {
          "name": "_to",
          "type": "address",
          "indexed": true
        },
        {
          "indexed": true,
          "name": "_id",
          "type": "uint256"
        },
        {
          "indexed": false,
          "name": "_value",
          "type": "uint256"
        }
      ],
      "name": "Transfer",
      "outputs": [],
      "payable": false,
      "stateMutability": "nonpayable",
      "type": "event",
      "anonymous": false
    },
    {
      "constant": false,
      "inputs": [
        {
          "name": "owner",
          "type": "address",
          "indexed": false
        },
        {
          "name": "id",
          "type": "uint256",
          "indexed": false
        },
        {
          "name": "value",
          "type": "uint256",
          "indexed": false
        },
        {
          "name": "_data",
          "type": "bytes"
        }
      ],
      "name": "Burn",
      "outputs": [],
      "payable": false,
      "stateMutability": "nonpayable",
      "type": "event",
      "anonymous": false
    }
  ],
  "bytecode": "0x6060604052341561000f57600080fd5b611a968061001e6000396000f300606060405236156101165763ffffffff60e060020a600035041662ad800c811461011b578063095bcdb6146101a85780630d550b75146101cf5780630e89341c1461020957806317fad7fc1461021f5780632eb2c2d61461025e5780633656eec2146102a9578063368b2842146102cb5780633f47e6621461030e5780634e41a1fb1461033a5780634ed5c558146103505780634f4df4421461036657806367fd9da31461038e578063ae28b68c146103c4578063bd85b039146103f7578063bfb231d21461040d578063ccce413b146104b3578063d1bab4cc146104c9578063dbd3c3721461050c578063e39c6d801461054e578063e70d6dc514610585578063f242432a146105ad578063fe99049a146105e8575b600080fd5b341561012657600080fd5b610131600435610613565b60405160208082528190810183818151815260200191508051906020019080838360005b8381101561016d578082015183820152602001610155565b50505050905090810190601f16801561019a5780820380516001836020036101000a031916815260200191505b509250505060405180910390f35b34156101b357600080fd5b6101cd600160a060020a03600435166024356044356106d1565b005b34156101da57600080fd5b6101f7600435600160a060020a03602435811690604435166107b1565b60405190815260200160405180910390f35b341561021457600080fd5b6101316004356107e1565b341561022a57600080fd5b6101cd600160a060020a03600480358216916024803590911691604435808301929082013591606435918201910135610865565b341561026957600080fd5b6101cd600160a060020a03600480358216916024803590911691604435808301929082013591606435808301929082013591608435918201910135610bc1565b34156102b457600080fd5b6101f7600435600160a060020a0360243516610cff565b34156102d657600080fd5b6101cd60048035600160a060020a03169060248035808201929081013591604435808201929081013591606435908101910135610d2b565b341561031957600080fd5b610324600435610e17565b60405160ff909116815260200160405180910390f35b341561034557600080fd5b610131600435610e2c565b341561035b57600080fd5b610131600435610eb0565b341561037157600080fd5b6101cd600160a060020a0360043516602435604435606435610f60565b341561039957600080fd5b6101cd602460048035828101929082013591813580830192908201359160443591820191013561101d565b34156103cf57600080fd5b6101cd60048035600160a060020a031690602480359160443591606435908101910135611161565b341561040257600080fd5b6101f7600435611220565b341561041857600080fd5b610423600435611235565b60405160208101829052604080825283546002600019610100600184161502019091160490820181905281906060820190859080156104a35780601f10610478576101008083540402835291602001916104a3565b820191906000526020600020905b81548152906001019060200180831161048657829003601f168201915b5050935050505060405180910390f35b34156104be57600080fd5b61013160043561124b565b34156104d457600080fd5b6101cd60048035600160a060020a031690602480358082019290810135916044358082019290810135916064359081019101356112c8565b341561051757600080fd5b6101cd602460048035828101929082013591813580830192908201359160443580830192908201359160643591820191013561140d565b341561055957600080fd5b6101cd60048035600160a060020a0316906024803580820192908101359160443590810191013561151c565b341561059057600080fd5b6101f7600435600160a060020a036024358116906044351661163a565b34156105b857600080fd5b6101cd600160a060020a03600480358216916024803590911691604435916064359160843591820191013561165d565b34156105f357600080fd5b6101cd600160a060020a0360043581169060243516604435606435611727565b61061b611a38565b600360008381526020019081526020016000206000018054600181600116156101000203166002900480601f0160208091040260200160405190810160405280929190818152602001828054600181600116156101000203166002900480156106c55780601f1061069a576101008083540402835291602001916106c5565b820191906000526020600020905b8154815290600101906020018083116106a857829003601f168201915b50505050509050919050565b6000828152600360209081526040808320600160a060020a0333168452600201909152902054610707908263ffffffff61189516565b6000838152600360209081526040808320600160a060020a0333811685526002909101909252808320939093558516815220546107459082906118a7565b6000838152600360209081526040808320600160a060020a038089168086526002909201909352928190209390935584923391821691600080516020611a4b83398151915291869051600160a060020a03909216825260208201526040908101905180910390a4505050565b6000928352600260209081526040808520600160a060020a03948516865282528085209290931684525290205490565b6107e9611a38565b600460008381526020019081526020016000208054600181600116156101000203166002900480601f0160208091040260200160405190810160405280929190818152602001828054600181600116156101000203166002900480156106c55780601f1061069a576101008083540402835291602001916106c5565b600080600033600160a060020a031689600160a060020a031614156109bb575060005b858110156109b65786868281811061089c57fe5b90506020020135925084848281811015156108b357fe5b905060200201359150610908826003600086815260200190815260200160002060020160008c600160a060020a0316600160a060020a031681526020019081526020016000205461189590919063ffffffff16565b6000848152600360209081526040808320600160a060020a038e811685526002909101909252808320939093558a16815220546109469083906118a7565b6000848152600360209081526040808320600160a060020a03808e16808652600290920190935292819020939093558592908c1690600080516020611a4b833981519152903390879051600160a060020a03909216825260208201526040908101905180910390a4600101610888565b610bb6565b5060005b85811015610bb6578686828181106109d357fe5b90506020020135925084848281811015156109ea57fe5b905060200201359150610a5f826002600086815260200190815260200160002060008c600160a060020a0316600160a060020a03168152602001908152602001600020600033600160a060020a0316600160a060020a031681526020019081526020016000205461189590919063ffffffff16565b6002600085815260200190815260200160002060008b600160a060020a0316600160a060020a03168152602001908152602001600020600033600160a060020a0316600160a060020a0316815260200190815260200160002081905550610b08826003600086815260200190815260200160002060020160008c600160a060020a0316600160a060020a031681526020019081526020016000205461189590919063ffffffff16565b6000848152600360209081526040808320600160a060020a038e811685526002909101909252808320939093558a1681522054610b469083906118a7565b6000848152600360209081526040808320600160a060020a03808e16808652600290920190935292819020939093558592908c1690600080516020611a4b833981519152903390879051600160a060020a03909216825260208201526040908101905180910390a46001016109bf565b505050505050505050565b600030600160a060020a03166317fad7fc8a8a8a8a8a8a60405160e060020a63ffffffff8916028152600160a060020a03808816600483019081529087166024830152608060448301908152608483018690529091606481019060a4018760208802808284379091018481038352858152602090810191508690860280828437820191505098505050505050505050600060405180830381600087803b1515610c6957600080fd5b6102c65a03f11515610c7a57600080fd5b505050600090505b85811015610bb657610cec8989898985818110610c9b57fe5b905060200201358888868181101515610cb057fe5b9050602002013587878080601f0160208091040260200160405190810160405281815292919060208401838380828437506118ba945050505050565b1515610cf757600080fd5b600101610c82565b6000828152600360209081526040808320600160a060020a038516845260020190915290205492915050565b600030600160a060020a031663e39c6d80898989898960405160e060020a63ffffffff8816028152600160a060020a03861660048201908152606060248301908152606483018690529091604481019060840187602088028082843790910184810383528581526020908101915086908602808284378201915050975050505050505050600060405180830381600087803b1515610dc857600080fd5b6102c65a03f11515610dd957600080fd5b505050600090505b85811015610e0d57610dfa3389898985818110610c9b57fe5b1515610e0557600080fd5b600101610de1565b5050505050505050565b60009081526020819052604090205460ff1690565b610e34611a38565b600160008381526020019081526020016000208054600181600116156101000203166002900480601f0160208091040260200160405190810160405280929190818152602001828054600181600116156101000203166002900480156106c55780601f1061069a576101008083540402835291602001916106c5565b60046020528060005260406000206000915090508054600181600116156101000203166002900480601f016020809104026020016040519081016040528092919081815260200182805460018160011615610100020316600290048015610f585780601f10610f2d57610100808354040283529160200191610f58565b820191906000526020600020905b815481529060010190602001808311610f3b57829003601f168201915b505050505081565b801580610f9a57506000838152600260209081526040808320600160a060020a033381168552908352818420908816845290915290205482145b1515610fa557600080fd5b6000838152600260209081526040808320600160a060020a033381168086529184528285209089168086529352928190208490558592907f3a9c85c6b31f7a9d7fe1478f53e1be42e85db97ca30d1789cfef9196dbc472c990869086905191825260208201526040908101905180910390a450505050565b60008080805b888410156111555787878581811061103757fe5b905060200201359250858585818110151561104e57fe5b905060200201359150898985818110151561106557fe5b6000868152600360209081526040808320600160a060020a033381168552600290910183529220549202939093013590921692506110a591905083611895565b6000848152600360209081526040808320600160a060020a0333811685526002909101909252808320939093558316815220546110e39083906118a7565b6000848152600360209081526040808320600160a060020a038087168086526002909201909352928190209390935585923391821691600080516020611a4b83398151915291879051600160a060020a03909216825260208201526040908101905180910390a4836001019350611023565b50505050505050505050565b30600160a060020a031663095bcdb686868660405160e060020a63ffffffff8616028152600160a060020a03909316600484015260248301919091526044820152606401600060405180830381600087803b15156111be57600080fd5b6102c65a03f115156111cf57600080fd5b50505061120e3386868686868080601f0160208091040260200160405190810160405281815292919060208401838380828437506118ba945050505050565b151561121957600080fd5b5050505050565b60009081526003602052604090206001015490565b6003602052600090815260409020600181015482565b60016020528060005260406000206000915090508054600181600116156101000203166002900480601f016020809104026020016040519081016040528092919081815260200182805460018160011615610100020316600290048015610f585780601f10610f2d57610100808354040283529160200191610f58565b600080805b87811015611155578888828181106112e157fe5b90506020020135925084848281811015156112f857fe5b905060200201359150816000148061137a575086868281811061131757fe5b9050602002013560026000858152602001908152602001600020600033600160a060020a0316600160a060020a0316815260200190815260200160002060008c600160a060020a0316600160a060020a0316815260200190815260200160002054145b151561138557600080fd5b6000838152600260209081526040808320600160a060020a03338116808652918452828520908f168086529352922084905584917f3a9c85c6b31f7a9d7fe1478f53e1be42e85db97ca30d1789cfef9196dbc472c98a8a868181106113e657fe5b905060200201358660405191825260208201526040908101905180910390a46001016112cd565b600030600160a060020a03166367fd9da38a8a8a8a8a8a6040518763ffffffff1660e060020a0281526004018080602001806020018060200184810384528a8a828181526020019250602002808284379091018581038452888152602090810191508990890280828437909101858103835286815260209081019150879087028082843782019150509950505050505050505050600060405180830381600087803b15156114ba57600080fd5b6102c65a03f115156114cb57600080fd5b505050600090505b85811015610bb657611509338a8a848181106114eb57fe5b90506020020135600160a060020a03168989858181101515610c9b57fe5b151561151457600080fd5b6001016114d3565b600080805b85811015610e0d5786868281811061153557fe5b905060200201359250848482818110151561154c57fe5b6000868152600360209081526040808320600160a060020a033316845260020182529091205491029290920135935061158d9190508363ffffffff61189516565b6000848152600360209081526040808320600160a060020a0333811685526002909101909252808320939093558a16815220546115cb9083906118a7565b6000848152600360209081526040808320600160a060020a03808e168086526002909201909352928190209390935585923391821691600080516020611a4b83398151915291879051600160a060020a03909216825260208201526040908101905180910390a4600101611521565b600260209081526000938452604080852082529284528284209052825290205481565b30600160a060020a031663fe99049a8787878760405160e060020a63ffffffff8716028152600160a060020a03948516600482015292909316602483015260448201526064810191909152608401600060405180830381600087803b15156116c457600080fd5b6102c65a03f115156116d557600080fd5b5050506117148686868686868080601f0160208091040260200160405190810160405281815292919060208401838380828437506118ba945050505050565b151561171f57600080fd5b505050505050565b33600160a060020a031684600160a060020a03161415156117b3576000828152600260209081526040808320600160a060020a038089168552908352818420339091168452909152902054611782908263ffffffff61189516565b6000838152600260209081526040808320600160a060020a03808a1685529083528184203390911684529091529020555b6000828152600360209081526040808320600160a060020a03881684526002019091529020546117e9908263ffffffff61189516565b6000838152600360209081526040808320600160a060020a0389811685526002909101909252808320939093558516815220546118279082906118a7565b6000838152600360209081526040808320600160a060020a0380891680865260029092019093529281902093909355849290871690600080516020611a4b833981519152903390869051600160a060020a03909216825260208201526040908101905180910390a450505050565b6000828211156118a157fe5b50900390565b818101828110156118b457fe5b92915050565b6000806118cf86600160a060020a0316611a30565b5085600160a060020a031663f23a6e6133898888886000604051602001526040518663ffffffff1660e060020a0281526004018086600160a060020a0316600160a060020a0316815260200185600160a060020a0316600160a060020a0316815260200184815260200183815260200180602001828103825283818151815260200191508051906020019080838360005b83811015611978578082015183820152602001611960565b50505050905090810190601f1680156119a55780820380516001836020036101000a031916815260200191505b509650505050505050602060405180830381600087803b15156119c757600080fd5b6102c65a03f115156119d857600080fd5b50505060405180517fffffffff00000000000000000000000000000000000000000000000000000000167ff23a6e61000000000000000000000000000000000000000000000000000000001498975050505050505050565b6000903b1190565b6020604051908101604052600081529056001b3d7edb2e9c0b0e7c525b20aaaef0f5940d2ed71663c7d39266ecafac728859a165627a7a72305820ddab60a3e0c0b3102a62f698d763732004a10ddccb0638d87e61eeb6c5176b040029",
  "source": "pragma solidity ^0.4.17;\n\nimport \"./ERC1155SafeMath.sol\";\nimport \"./Address.sol\";\nimport \"./IERC1155.sol\";\n\ncontract ERC1155 is IERC1155, IERC1155Extended, IERC1155BatchTransfer, IERC1155BatchTransferExtended {\n    using ERC1155SafeMath for uint256;\n    using Address for address;\n\n    // Variables\n    struct Items {\n        string name;\n        uint256 totalSupply;\n        mapping (address => uint256) balances;\n    }\n    mapping (uint256 => uint8) public decimals;\n    mapping (uint256 => string) public symbols;\n    mapping (uint256 => mapping(address => mapping(address => uint256))) public allowances;\n    mapping (uint256 => Items) public items;\n    mapping (uint256 => string) public metadataURIs;\n\n    bytes4 constant private ERC1155_RECEIVED = 0xf23a6e61;\n\n/////////////////////////////////////////// IERC1155 //////////////////////////////////////////////\n\n    // Events\n    event Approval(address indexed _owner, address indexed _spender, uint256 indexed _id, uint256 _oldValue, uint256 _value);\n    event Transfer(address _spender, address indexed _from, address indexed _to, uint256 indexed _id, uint256 _value);\n    event Burn(address owner, uint256 id, uint256 value);\n\n    function transferFrom(address _from, address _to, uint256 _id, uint256 _value) external {\n        if(_from != msg.sender) {\n            //require(allowances[_id][_from][msg.sender] >= _value);\n            allowances[_id][_from][msg.sender] = allowances[_id][_from][msg.sender].sub(_value);\n        }\n\n        items[_id].balances[_from] = items[_id].balances[_from].sub(_value);\n        items[_id].balances[_to] = _value.add(items[_id].balances[_to]);\n\n        Transfer(msg.sender, _from, _to, _id, _value);\n    }\n\n    function safeTransferFrom(address _from, address _to, uint256 _id, uint256 _value, bytes _data) external {\n        this.transferFrom(_from, _to, _id, _value);\n\n        // solium-disable-next-line arg-overflow\n        require(_checkAndCallSafeTransfer(_from, _to, _id, _value, _data));\n    }\n\n    function approve(address _spender, uint256 _id, uint256 _currentValue, uint256 _value) external {\n        // if the allowance isn't 0, it can only be updated to 0 to prevent an allowance change immediately after withdrawal\n        require(_value == 0 || allowances[_id][msg.sender][_spender] == _currentValue);\n        allowances[_id][msg.sender][_spender] = _value;\n        Approval(msg.sender, _spender, _id, _currentValue, _value);\n        \n    }\n\n    function balanceOf(uint256 _id, address _owner) external view returns (uint256) {\n        return items[_id].balances[_owner];\n    }\n\n    function allowance(uint256 _id, address _owner, address _spender) external view returns (uint256) {\n        return allowances[_id][_owner][_spender];\n    }\n\n/////////////////////////////////////// IERC1155Extended //////////////////////////////////////////\n\n    /** @dev This function will burn all tokens sent to address(0)\n     */\n    function transfer(address _to, uint256 _id, uint256 _value) external {\n        // Not needed. SafeMath will do the same check on .sub(_value)\n        //require(_value <= items[_id].balances[msg.sender]);\n        items[_id].balances[msg.sender] = items[_id].balances[msg.sender].sub(_value);\n        items[_id].balances[_to] = _value.add(items[_id].balances[_to]);\n        Transfer(msg.sender, msg.sender, _to, _id, _value);\n    }\n\n    function safeTransfer(address _to, uint256 _id, uint256 _value, bytes _data) external {\n        this.transfer(_to, _id, _value);\n\n        // solium-disable-next-line arg-overflow\n        require(_checkAndCallSafeTransfer(msg.sender, _to, _id, _value, _data));\n    }\n\n//////////////////////////////////// IERC1155BatchTransfer ////////////////////////////////////////\n\n    function batchTransferFrom(address _from, address _to, uint256[] _ids, uint256[] _values) external {\n        uint256 _id;\n        uint256 _value;\n\n        if(_from == msg.sender) {\n            for (uint256 i = 0; i < _ids.length; ++i) {\n                _id = _ids[i];\n                _value = _values[i];\n\n                items[_id].balances[_from] = items[_id].balances[_from].sub(_value);\n                items[_id].balances[_to] = _value.add(items[_id].balances[_to]);\n\n                Transfer(msg.sender, _from, _to, _id, _value);\n            }\n            \n        }\n        else {\n            for (i = 0; i < _ids.length; ++i) {\n                _id = _ids[i];\n                _value = _values[i];\n\n                allowances[_id][_from][msg.sender] = allowances[_id][_from][msg.sender].sub(_value);\n\n                items[_id].balances[_from] = items[_id].balances[_from].sub(_value);\n                items[_id].balances[_to] = _value.add(items[_id].balances[_to]);\n\n                Transfer(msg.sender, _from, _to, _id, _value);\n            }\n            \n        }\n    }\n\n    function safeBatchTransferFrom(address _from, address _to, uint256[] _ids, uint256[] _values, bytes _data) external {\n        this.batchTransferFrom(_from, _to, _ids, _values);\n\n        for (uint256 i = 0; i < _ids.length; ++i) {\n            // solium-disable-next-line arg-overflow\n            require(_checkAndCallSafeTransfer(_from, _to, _ids[i], _values[i], _data));\n        }\n    }\n\n    function batchApprove(address _spender, uint256[] _ids,  uint256[] _currentValues, uint256[] _values) external {\n        uint256 _id;\n        uint256 _value;\n\n        for (uint256 i = 0; i < _ids.length; ++i) {\n            _id = _ids[i];\n            _value = _values[i];\n\n            require(_value == 0 || allowances[_id][msg.sender][_spender] == _currentValues[i]);\n            allowances[_id][msg.sender][_spender] = _value;\n            Approval(msg.sender, _spender, _id, _currentValues[i], _value);\n        }\n        \n    }\n\n//////////////////////////////// IERC1155BatchTransferExtended ////////////////////////////////////\n\n    function batchTransfer(address _to, uint256[] _ids, uint256[] _values) external {\n        uint256 _id;\n        uint256 _value;\n\n        for (uint256 i = 0; i < _ids.length; ++i) {\n            _id = _ids[i];\n            _value = _values[i];\n\n            items[_id].balances[msg.sender] = items[_id].balances[msg.sender].sub(_value);\n            items[_id].balances[_to] = _value.add(items[_id].balances[_to]);\n\n            Transfer(msg.sender, msg.sender, _to, _id, _value);\n        }\n        \n    }\n\n    function safeBatchTransfer(address _to, uint256[] _ids, uint256[] _values, bytes _data) external {\n        this.batchTransfer(_to, _ids, _values);\n\n        for (uint256 i = 0; i < _ids.length; ++i) {\n            // solium-disable-next-line arg-overflow\n            require(_checkAndCallSafeTransfer(msg.sender, _to, _ids[i], _values[i], _data));\n        }\n    }\n\n//////////////////////////////// IERC1155BatchTransferExtended ////////////////////////////////////\n\n    // Optional meta data view Functions\n    // consider multi-lingual support for name?\n    function name(uint256 _id) external view returns (string) {\n        return items[_id].name;\n    }\n\n    function symbol(uint256 _id) external view returns (string) {\n        return symbols[_id];\n    }\n\n    function decimals(uint256 _id) external view returns (uint8) {\n        return decimals[_id];\n    }\n\n    function totalSupply(uint256 _id) external view returns (uint256) {\n        return items[_id].totalSupply;\n    }\n\n    function uri(uint256 _id) external view returns (string) {\n        return metadataURIs[_id];\n    }\n\n////////////////////////////////////////// OPTIONALS //////////////////////////////////////////////\n\n\n    function multicastTransfer(address[] _to, uint256[] _ids, uint256[] _values) external {\n        for (uint256 i = 0; i < _to.length; ++i) {\n            uint256 _id = _ids[i];\n            uint256 _value = _values[i];\n            address _dst = _to[i];\n\n            items[_id].balances[msg.sender] = items[_id].balances[msg.sender].sub(_value);\n            items[_id].balances[_dst] = _value.add(items[_id].balances[_dst]);\n\n            Transfer(msg.sender, msg.sender, _dst, _id, _value);\n        }\n        \n    }\n\n    function safeMulticastTransfer(address[] _to, uint256[] _ids, uint256[] _values, bytes _data) external {\n        this.multicastTransfer(_to, _ids, _values);\n\n        for (uint256 i = 0; i < _ids.length; ++i) {\n            // solium-disable-next-line arg-overflow\n            require(_checkAndCallSafeTransfer(msg.sender, _to[i], _ids[i], _values[i], _data));\n        }\n    }\n\n////////////////////////////////////////// INTERNAL //////////////////////////////////////////////\n\n    function _checkAndCallSafeTransfer(\n        address _from,\n        address _to,\n        uint256 _id,\n        uint256 _value,\n        bytes _data\n    )\n    internal\n    returns (bool)\n   {\n        if (!_to.isContract()) {\n            \n        }\n        bytes4 retval = IERC1155TokenReceiver(_to).onERC1155Received(\n            msg.sender, _from, _id, _value, _data);\n        return (retval == ERC1155_RECEIVED);\n    }\n}\n",
  "sourcePath": "/Users/najienka/Desktop/populous-smartcontracts/contracts/ERC1155.sol",
  "schemaVersion": "1.0.0",
  "updatedAt": "2018-11-06T10:08:44.304Z"
}