{
  "contractName": "ERC23Token",
  "abi": [
    {
      "constant": true,
      "inputs": [],
      "name": "name",
      "outputs": [
        {
          "name": "",
          "type": "bytes32"
        }
      ],
      "payable": false,
      "stateMutability": "view",
      "type": "function"
    },
    {
      "constant": false,
      "inputs": [
        {
          "name": "_spender",
          "type": "address"
        },
        {
          "name": "_value",
          "type": "uint256"
        }
      ],
      "name": "approve",
      "outputs": [
        {
          "name": "success",
          "type": "bool"
        }
      ],
      "payable": false,
      "stateMutability": "nonpayable",
      "type": "function"
    },
    {
      "constant": true,
      "inputs": [
        {
          "name": "_addr",
          "type": "address"
        }
      ],
      "name": "isContract",
      "outputs": [
        {
          "name": "is_contract",
          "type": "bool"
        }
      ],
      "payable": false,
      "stateMutability": "view",
      "type": "function"
    },
    {
      "constant": true,
      "inputs": [],
      "name": "totalSupply",
      "outputs": [
        {
          "name": "",
          "type": "uint256"
        }
      ],
      "payable": false,
      "stateMutability": "view",
      "type": "function"
    },
    {
      "constant": false,
      "inputs": [
        {
          "name": "_from",
          "type": "address"
        },
        {
          "name": "_to",
          "type": "address"
        },
        {
          "name": "_value",
          "type": "uint256"
        }
      ],
      "name": "transferFrom",
      "outputs": [
        {
          "name": "success",
          "type": "bool"
        }
      ],
      "payable": false,
      "stateMutability": "nonpayable",
      "type": "function"
    },
    {
      "constant": true,
      "inputs": [],
      "name": "decimals",
      "outputs": [
        {
          "name": "",
          "type": "uint8"
        }
      ],
      "payable": false,
      "stateMutability": "view",
      "type": "function"
    },
    {
      "constant": false,
      "inputs": [
        {
          "name": "_to",
          "type": "address"
        },
        {
          "name": "_value",
          "type": "uint256"
        },
        {
          "name": "_data",
          "type": "bytes"
        }
      ],
      "name": "transferToContract",
      "outputs": [
        {
          "name": "success",
          "type": "bool"
        }
      ],
      "payable": false,
      "stateMutability": "nonpayable",
      "type": "function"
    },
    {
      "constant": true,
      "inputs": [
        {
          "name": "_owner",
          "type": "address"
        }
      ],
      "name": "balanceOf",
      "outputs": [
        {
          "name": "balance",
          "type": "uint256"
        }
      ],
      "payable": false,
      "stateMutability": "view",
      "type": "function"
    },
    {
      "constant": true,
      "inputs": [],
      "name": "symbol",
      "outputs": [
        {
          "name": "",
          "type": "bytes32"
        }
      ],
      "payable": false,
      "stateMutability": "view",
      "type": "function"
    },
    {
      "constant": false,
      "inputs": [
        {
          "name": "_to",
          "type": "address"
        },
        {
          "name": "_value",
          "type": "uint256"
        }
      ],
      "name": "transfer",
      "outputs": [
        {
          "name": "success",
          "type": "bool"
        }
      ],
      "payable": false,
      "stateMutability": "nonpayable",
      "type": "function"
    },
    {
      "constant": false,
      "inputs": [
        {
          "name": "_to",
          "type": "address"
        },
        {
          "name": "_value",
          "type": "uint256"
        }
      ],
      "name": "transferToAddress",
      "outputs": [
        {
          "name": "success",
          "type": "bool"
        }
      ],
      "payable": false,
      "stateMutability": "nonpayable",
      "type": "function"
    },
    {
      "constant": false,
      "inputs": [
        {
          "name": "_to",
          "type": "address"
        },
        {
          "name": "_value",
          "type": "uint256"
        },
        {
          "name": "_data",
          "type": "bytes"
        }
      ],
      "name": "transfer",
      "outputs": [
        {
          "name": "success",
          "type": "bool"
        }
      ],
      "payable": false,
      "stateMutability": "nonpayable",
      "type": "function"
    },
    {
      "constant": true,
      "inputs": [
        {
          "name": "_owner",
          "type": "address"
        },
        {
          "name": "_spender",
          "type": "address"
        }
      ],
      "name": "allowance",
      "outputs": [
        {
          "name": "remaining",
          "type": "uint256"
        }
      ],
      "payable": false,
      "stateMutability": "view",
      "type": "function"
    },
    {
      "anonymous": false,
      "inputs": [
        {
          "indexed": false,
          "name": "_to",
          "type": "address"
        },
        {
          "indexed": false,
          "name": "_value",
          "type": "uint256"
        },
        {
          "indexed": false,
          "name": "_data",
          "type": "bytes"
        }
      ],
      "name": "ContractTransfer",
      "type": "event"
    },
    {
      "anonymous": false,
      "inputs": [
        {
          "indexed": true,
          "name": "_from",
          "type": "address"
        },
        {
          "indexed": true,
          "name": "_to",
          "type": "address"
        },
        {
          "indexed": false,
          "name": "_value",
          "type": "uint256"
        }
      ],
      "name": "Transfer",
      "type": "event"
    },
    {
      "anonymous": false,
      "inputs": [
        {
          "indexed": true,
          "name": "_owner",
          "type": "address"
        },
        {
          "indexed": true,
          "name": "_spender",
          "type": "address"
        },
        {
          "indexed": false,
          "name": "_value",
          "type": "uint256"
        }
      ],
      "name": "Approval",
      "type": "event"
    }
  ],
  "bytecode": "0x606060405260008055341561001357600080fd5b61090c806100226000396000f300606060405236156100c25763ffffffff7c010000000000000000000000000000000000000000000000000000000060003504166306fdde0381146100c7578063095ea7b3146100ec578063162790551461012257806318160ddd1461014157806323b872dd14610154578063313ce5671461017c5780633f35d033146101a557806370a082311461020a57806395d89b4114610229578063a9059cbb1461023c578063acef60371461025e578063be45fd6214610280578063dd62ed3e146102e5575b600080fd5b34156100d257600080fd5b6100da61030a565b60405190815260200160405180910390f35b34156100f757600080fd5b61010e600160a060020a0360043516602435610310565b604051901515815260200160405180910390f35b341561012d57600080fd5b61010e600160a060020a036004351661037d565b341561014c57600080fd5b6100da61039d565b341561015f57600080fd5b61010e600160a060020a03600435811690602435166044356103a3565b341561018757600080fd5b61018f6104c0565b60405160ff909116815260200160405180910390f35b34156101b057600080fd5b61010e60048035600160a060020a03169060248035919060649060443590810190830135806020601f820181900481020160405190810160405281815292919060208401838380828437509496506104c995505050505050565b341561021557600080fd5b6100da600160a060020a0360043516610753565b341561023457600080fd5b6100da61076e565b341561024757600080fd5b61010e600160a060020a0360043516602435610774565b341561026957600080fd5b61010e600160a060020a03600435166024356107af565b341561028b57600080fd5b61010e60048035600160a060020a03169060248035919060649060443590810190830135806020601f8201819004810201604051908101604052818152929190602084018383808284375094965061087795505050505050565b34156102f057600080fd5b6100da600160a060020a03600435811690602435166108a3565b60015481565b600160a060020a03338116600081815260056020908152604080832094871680845294909152808220859055909291907f8c5be1e5ebec7d5bd14f71427d1e84f3dd0314c0f7b2291e5b200ac8c7c3b9259085905190815260200160405180910390a35060015b92915050565b6000813b818111156103925760019150610397565b600091505b50919050565b60005481565b600160a060020a0383166000908152600460205260408120548290108015906103f35750600160a060020a0380851660009081526005602090815260408083203390941683529290522054829010155b80156103ff5750600082115b80156104245750600160a060020a038316600090815260046020526040902054828101115b156104b557600160a060020a03808416600081815260046020908152604080832080548801905588851680845281842080548990039055600583528184203390961684529490915290819020805486900390559091907fddf252ad1be2c89b69c2b068fc378daa952ba7f163c4a11628f55a4df523b3ef9085905190815260200160405180910390a35060016104b9565b5060005b9392505050565b60025460ff1681565b600160a060020a03331660009081526004602052604081205481908490108015906104f45750600084115b80156105195750600160a060020a038516600090815260046020526040902054848101115b156107465750600160a060020a033381811660009081526004602052604080822080548890039055928716808252908390208054870190558692909163c0ee0b8a9187908790518463ffffffff167c01000000000000000000000000000000000000000000000000000000000281526004018084600160a060020a0316600160a060020a0316815260200183815260200180602001828103825283818151815260200191508051906020019080838360005b838110156105e35780820151838201526020016105cb565b50505050905090810190601f1680156106105780820380516001836020036101000a031916815260200191505b50945050505050600060405180830381600087803b151561063057600080fd5b6102c65a03f1151561064157600080fd5b50505084600160a060020a031633600160a060020a03167fddf252ad1be2c89b69c2b068fc378daa952ba7f163c4a11628f55a4df523b3ef8660405190815260200160405180910390a37fb35b712dc2c80945537903ca9aa7ed83607d14fc206a7e7ef41d5cf8946a3772858585604051600160a060020a03841681526020810183905260606040820181815290820183818151815260200191508051906020019080838360005b838110156107015780820151838201526020016106e9565b50505050905090810190601f16801561072e5780820380516001836020036101000a031916815260200191505b5094505050505060405180910390a16001915061074b565b600091505b509392505050565b600160a060020a031660009081526004602052604090205490565b60035481565b600061077e6108ce565b6107878461037d565b1561079e576107978484836104c9565b91506107a8565b61079784846107af565b5092915050565b600160a060020a0333166000908152600460205260408120548290108015906107d85750600082115b80156107fd5750600160a060020a038316600090815260046020526040902054828101115b1561086f57600160a060020a033381166000818152600460205260408082208054879003905592861680825290839020805486019055917fddf252ad1be2c89b69c2b068fc378daa952ba7f163c4a11628f55a4df523b3ef9085905190815260200160405180910390a3506001610377565b506000610377565b60006108828461037d565b15610899576108928484846104c9565b90506104b9565b61089284846107af565b600160a060020a03918216600090815260056020908152604080832093909416825291909152205490565b602060405190810160405260008152905600a165627a7a72305820ee96dd1d17200fe0f06aaaf04cce4ba4970911997934e584bbf47dc579fea1c00029",
  "source": "/*\nhttps://github.com/ConsenSys/Tokens\n\nImplements ERC 23 Token standard: https://github.com/ethereum/EIPs/issues/223\n.*/\npragma solidity ^0.4.17;\n\nimport \"./iERC20Token.sol\";\n\n/// @title ContractReceiver contract\ncontract ContractReceiver {\n\n    /** @dev A function to handle token transfers that is called from token.\n      * @dev contract when token holder is sending tokens.\n      * @dev The function works like fallback function for Ether transactions and returns nothing.\n      * @param from Token sender.\n      * @param amount The amount of incoming tokens.\n      * @param data The attached data similar to data in Ether transactions.\n      * @return The function returns nothing.\n      */\n    function tokenFallback(address from, uint amount, bytes data) public;\n}\n\n/// @title ERC23Token contract\n/// @notice Implements the ERC223 token standard\n/// @notice See https://github.com/ethereum/EIPs/issues/223\ncontract ERC23Token is iERC20Token {\n\n    // EVENTS\n\n    event ContractTransfer(address _to, uint _value, bytes _data);\n\n    // NON-CONSTANT METHODS\n\n\n    /** @dev Transfers tokens to a specified address from the message sender.\n      * @dev This function must transfer tokens and invoke the function tokenFallback (address, uint256, bytes) \n      * @dev in _to, if _to is a contract. If the tokenFallback function is not implemented \n      * @dev in _to (receiver contract), then the transaction must fail and the transfer of tokens should not occur.\n      * @param _to The address to send the tokens to.\n      * @param _value The amount of tokens to transfer.\n      * @param _data The payload/data that can accompany a transaction.\n      * @return success A boolean value True/False to indicate a successful transfer\n      */\n    function transfer(address _to, uint _value, bytes _data) public returns (bool success) {\n        //filtering if the target is a contract with bytecode inside it\n        if(isContract(_to)) {\n            return transferToContract(_to, _value, _data);\n        } else {\n            return transferToAddress(_to, _value);\n        }\n    }\n\n    /** @dev Transfers tokens to a specified address from the message sender.\n      * @dev This function must transfer tokens and invoke the function tokenFallback (address, uint256, bytes) \n      * @dev in _to, if _to is a contract. If the tokenFallback function is not implemented \n      * @dev in _to (receiver contract), then the transaction must fail and the transfer of tokens should not occur.\n      * @param _to The address to send the tokens to.\n      * @param _value The amount of tokens to transfer.\n      * @return success A boolean value True/False to indicate a successful transfer\n      */\n    function transfer(address _to, uint _value) public returns (bool success) {\n        //A standard function transfer similar to ERC20 transfer with no _data\n        if(isContract(_to)) {\n            bytes memory emptyData;\n            return transferToContract(_to, _value, emptyData);\n        } else {\n            return transferToAddress(_to, _value);\n        }\n    }\n\n    /** @dev The transferToAddress function is called when transaction target is an address.\n      * @param _to The address to send the tokens to.\n      * @param _value The amount of tokens to transfer.\n      * @return success A boolean value True/False to indicate a successful transfer\n      */\n    function transferToAddress(address _to, uint _value) public returns (bool success) {\n        if (balances[msg.sender] >= _value && _value > 0 && balances[_to] + _value > balances[_to]) {\n            balances[msg.sender] -= _value;\n            balances[_to] += _value;\n            Transfer(msg.sender, _to, _value);\n\n            return true;\n        } else {\n            return false;\n        }\n    }\n\n    /** @dev The transferToContract function is called when transaction target is a contract.\n      * @param _to The address to send the tokens to.\n      * @param _value The amount of tokens to transfer.\n      * @param _data The payload/data that can accompany a transaction.\n      * @return success A boolean value True/False to indicate a successful transfer\n      */\n    function transferToContract(address _to, uint _value, bytes _data) public returns (bool success) {\n        if (balances[msg.sender] >= _value && _value > 0 && balances[_to] + _value > balances[_to]) {\n            balances[msg.sender] -= _value;\n            balances[_to] += _value;\n            ContractReceiver reciever = ContractReceiver(_to);\n            reciever.tokenFallback(msg.sender, _value, _data);\n            Transfer(msg.sender, _to, _value);\n            ContractTransfer(_to, _value, _data);\n\n            return true;\n        } else {\n            return false;\n        }\n    }\n\n    /** @dev Assembles the given address bytecode. If bytecode exists then the _addr is a contract.\n      * @param _addr The specified address to check.\n      * @return is_contract A boolean value True/False to indicate whether _addr is a conract or not.\n      */\n    function isContract(address _addr) public view returns (bool is_contract) {\n        uint length;\n        assembly {\n            // retrieve the size of the code on target address, this needs assembly\n            length := extcodesize(_addr)\n        }\n        if (length>0) {\n            return true;\n        }else {\n            return false;\n        }\n    }\n\n    /** @dev Transfers tokens to an address on behalf of the owner of the tokens.\n      * @param _from The address to debit.\n      * @param _to The address to credit.\n      * @param _value The amount to send.\n      * @return success A boolean value True/False to indicate whether the transaction was successful or not.\n      */\n    function transferFrom(address _from, address _to, uint256 _value) public returns (bool success) {\n        if (balances[_from] >= _value && allowed[_from][msg.sender] >= _value && _value > 0 && balances[_to] + _value > balances[_to]) {\n            balances[_to] += _value;\n            balances[_from] -= _value;\n            allowed[_from][msg.sender] -= _value;\n            Transfer(_from, _to, _value);\n            return true;\n        } else {return false;}\n    }\n\n    /** @dev Allows token owner to approve another address owner to spend their tokens on their behalf.\n      * @param _spender The allowed address.\n      * @param _value The allowed amount.\n      * @return success A boolean value True/False to indicate whether the transaction was successful or not.\n      */\n    function approve(address _spender, uint256 _value) public returns (bool success) {\n        allowed[msg.sender][_spender] = _value;\n        Approval(msg.sender, _spender, _value);\n        return true;\n    }\n\n    // CONSTANT METHODS\n\n    /** @dev Checks the balance of an address without changing the state of the blockchain.\n      * @param _owner The address to check.\n      * @return balance An unsigned integer representing the token balance of the address.\n      */\n    function balanceOf(address _owner) public view returns (uint256 balance) {\n        return balances[_owner];\n    }\n\n    /** @dev Checks for the balance of the tokens of that which the owner had approved another address owner to spend.\n      * @param _owner The address of the token owner.\n      * @param _spender The address of the allowed spender.\n      * @return remaining An unsigned integer representing the remaining approved tokens.\n      */\n    function allowance(address _owner, address _spender) public view returns (uint256 remaining) {\n      return allowed[_owner][_spender];\n    }\n\n\n    // FIELDS\n\n    // This variable is used to store the balance of\n    // addresses. The balance is retrieved using the address as a key\n    mapping (address => uint256) balances;\n    // This variable 'allowed'\n    // stores an unsigned integer representing an amount owned and\n    // approved by an address/wallet owner which other address owners have\n    // been allowed to spend.\n    mapping (address => mapping (address => uint256)) allowed;\n}",
  "sourcePath": "/Users/najienka/Desktop/populous-smartcontracts/contracts/_ERC23Token.sol",
  "schemaVersion": "1.0.0",
  "updatedAt": "2018-01-31T14:00:14.089Z"
}