{
  "contractName": "Populous",
  "abi": [
    {
      "constant": false,
      "inputs": [
        {
          "name": "_accessManager",
          "type": "address"
        }
      ],
      "name": "updateAccessManager",
      "outputs": [],
      "payable": false,
      "stateMutability": "nonpayable",
      "type": "function"
    },
    {
      "constant": false,
      "inputs": [
        {
          "name": "_operator",
          "type": "address"
        },
        {
          "name": "_from",
          "type": "address"
        },
        {
          "name": "_tokenId",
          "type": "uint256"
        },
        {
          "name": "_data",
          "type": "bytes"
        }
      ],
      "name": "onERC721Received",
      "outputs": [
        {
          "name": "",
          "type": "bytes4"
        }
      ],
      "payable": false,
      "stateMutability": "nonpayable",
      "type": "function"
    },
    {
      "constant": false,
      "inputs": [
        {
          "name": "tokenName",
          "type": "bytes8"
        },
        {
          "name": "token",
          "type": "address"
        },
        {
          "name": "precision",
          "type": "uint256"
        }
      ],
      "name": "setTokenDetails",
      "outputs": [
        {
          "name": "success",
          "type": "bool"
        }
      ],
      "payable": false,
      "stateMutability": "nonpayable",
      "type": "function"
    },
    {
      "constant": false,
      "inputs": [
        {
          "name": "_dataManager",
          "type": "address"
        },
        {
          "name": "_blockchainActionId",
          "type": "bytes32"
        },
        {
          "name": "currency",
          "type": "bytes32"
        },
        {
          "name": "amount",
          "type": "uint256"
        },
        {
          "name": "from",
          "type": "address"
        },
        {
          "name": "to",
          "type": "address"
        },
        {
          "name": "accountId",
          "type": "bytes32"
        },
        {
          "name": "inCollateral",
          "type": "uint256"
        },
        {
          "name": "pptFee",
          "type": "uint256"
        },
        {
          "name": "adminExternalWallet",
          "type": "address"
        }
      ],
      "name": "withdrawPoken",
      "outputs": [],
      "payable": false,
      "stateMutability": "nonpayable",
      "type": "function"
    },
    {
      "constant": true,
      "inputs": [
        {
          "name": "tokenName",
          "type": "bytes8"
        }
      ],
      "name": "getTokenDetails",
      "outputs": [
        {
          "name": "token",
          "type": "address"
        },
        {
          "name": "precision",
          "type": "uint256"
        }
      ],
      "payable": false,
      "stateMutability": "view",
      "type": "function"
    },
    {
      "constant": false,
      "inputs": [
        {
          "name": "_dataManager",
          "type": "address"
        },
        {
          "name": "_blockchainActionId",
          "type": "bytes32"
        },
        {
          "name": "pptAddress",
          "type": "address"
        },
        {
          "name": "accountId",
          "type": "bytes32"
        },
        {
          "name": "to",
          "type": "address"
        },
        {
          "name": "amount",
          "type": "uint256"
        },
        {
          "name": "inCollateral",
          "type": "uint256"
        },
        {
          "name": "pptFee",
          "type": "uint256"
        },
        {
          "name": "adminExternalWallet",
          "type": "address"
        }
      ],
      "name": "withdrawERC20",
      "outputs": [],
      "payable": false,
      "stateMutability": "nonpayable",
      "type": "function"
    },
    {
      "constant": false,
      "inputs": [
        {
          "name": "_dataManager",
          "type": "address"
        },
        {
          "name": "_blockchainActionId",
          "type": "bytes32"
        },
        {
          "name": "erc20_tokenAddress",
          "type": "address"
        },
        {
          "name": "erc20_amount",
          "type": "uint256"
        },
        {
          "name": "xaup_amount",
          "type": "uint256"
        },
        {
          "name": "_tokenId",
          "type": "uint256"
        },
        {
          "name": "_clientId",
          "type": "bytes32"
        },
        {
          "name": "adminExternalWallet",
          "type": "address"
        }
      ],
      "name": "exchangeXAUP",
      "outputs": [],
      "payable": false,
      "stateMutability": "nonpayable",
      "type": "function"
    },
    {
      "constant": true,
      "inputs": [
        {
          "name": "",
          "type": "bytes8"
        }
      ],
      "name": "tokenDetails",
      "outputs": [
        {
          "name": "_token",
          "type": "address"
        },
        {
          "name": "_precision",
          "type": "uint256"
        }
      ],
      "payable": false,
      "stateMutability": "view",
      "type": "function"
    },
    {
      "constant": false,
      "inputs": [
        {
          "name": "_dataManager",
          "type": "address"
        },
        {
          "name": "_blockchainActionId",
          "type": "bytes32"
        },
        {
          "name": "clientId",
          "type": "bytes32"
        }
      ],
      "name": "createAddress",
      "outputs": [],
      "payable": false,
      "stateMutability": "nonpayable",
      "type": "function"
    },
    {
      "constant": false,
      "inputs": [
        {
          "name": "_dataManager",
          "type": "address"
        },
        {
          "name": "_blockchainActionId",
          "type": "bytes32"
        },
        {
          "name": "_providerUserId",
          "type": "bytes32"
        },
        {
          "name": "_invoiceCountryCode",
          "type": "bytes2"
        },
        {
          "name": "_invoiceCompanyNumber",
          "type": "bytes32"
        },
        {
          "name": "_invoiceCompanyName",
          "type": "bytes32"
        },
        {
          "name": "_invoiceNumber",
          "type": "bytes32"
        }
      ],
      "name": "addInvoice",
      "outputs": [],
      "payable": false,
      "stateMutability": "nonpayable",
      "type": "function"
    },
    {
      "constant": false,
      "inputs": [
        {
          "name": "_operator",
          "type": "address"
        },
        {
          "name": "_from",
          "type": "address"
        },
        {
          "name": "_id",
          "type": "uint256"
        },
        {
          "name": "_value",
          "type": "uint256"
        },
        {
          "name": "_data",
          "type": "bytes"
        }
      ],
      "name": "onERC1155Received",
      "outputs": [
        {
          "name": "",
          "type": "bytes4"
        }
      ],
      "payable": false,
      "stateMutability": "nonpayable",
      "type": "function"
    },
    {
      "constant": true,
      "inputs": [],
      "name": "AM",
      "outputs": [
        {
          "name": "",
          "type": "address"
        }
      ],
      "payable": false,
      "stateMutability": "view",
      "type": "function"
    },
    {
      "inputs": [
        {
          "name": "_accessManager",
          "type": "address"
        }
      ],
      "payable": false,
      "stateMutability": "nonpayable",
      "type": "constructor"
    },
    {
      "anonymous": false,
      "inputs": [
        {
          "indexed": false,
          "name": "_blockchainActionId",
          "type": "bytes32"
        },
        {
          "indexed": false,
          "name": "erc20_tokenAddress",
          "type": "address"
        },
        {
          "indexed": false,
          "name": "erc20_amount",
          "type": "uint256"
        },
        {
          "indexed": false,
          "name": "xaup_amount",
          "type": "uint256"
        },
        {
          "indexed": false,
          "name": "_tokenId",
          "type": "uint256"
        },
        {
          "indexed": false,
          "name": "_clientId",
          "type": "bytes32"
        },
        {
          "indexed": false,
          "name": "_from",
          "type": "address"
        }
      ],
      "name": "EventExchangeXAUp",
      "type": "event"
    },
    {
      "anonymous": false,
      "inputs": [
        {
          "indexed": false,
          "name": "blockchainActionId",
          "type": "bytes32"
        },
        {
          "indexed": false,
          "name": "oldDepositContract",
          "type": "address"
        },
        {
          "indexed": false,
          "name": "newDepositContract",
          "type": "address"
        },
        {
          "indexed": false,
          "name": "clientId",
          "type": "bytes32"
        },
        {
          "indexed": false,
          "name": "version",
          "type": "uint256"
        }
      ],
      "name": "EventDepositAddressUpgrade",
      "type": "event"
    },
    {
      "anonymous": false,
      "inputs": [
        {
          "indexed": false,
          "name": "blockchainActionId",
          "type": "bytes32"
        },
        {
          "indexed": false,
          "name": "accountId",
          "type": "bytes32"
        },
        {
          "indexed": false,
          "name": "depositContract",
          "type": "address"
        },
        {
          "indexed": false,
          "name": "to",
          "type": "address"
        },
        {
          "indexed": false,
          "name": "amount",
          "type": "uint256"
        }
      ],
      "name": "EventWithdrawPPT",
      "type": "event"
    },
    {
      "anonymous": false,
      "inputs": [
        {
          "indexed": false,
          "name": "_blockchainActionId",
          "type": "bytes32"
        },
        {
          "indexed": false,
          "name": "accountId",
          "type": "bytes32"
        },
        {
          "indexed": false,
          "name": "currency",
          "type": "bytes32"
        },
        {
          "indexed": false,
          "name": "amount",
          "type": "uint256"
        }
      ],
      "name": "EventWithdrawPoken",
      "type": "event"
    },
    {
      "anonymous": false,
      "inputs": [
        {
          "indexed": false,
          "name": "blockchainActionId",
          "type": "bytes32"
        },
        {
          "indexed": false,
          "name": "clientId",
          "type": "bytes32"
        },
        {
          "indexed": false,
          "name": "depositContractAddress",
          "type": "address"
        },
        {
          "indexed": false,
          "name": "version",
          "type": "uint256"
        }
      ],
      "name": "EventNewDepositContract",
      "type": "event"
    },
    {
      "anonymous": false,
      "inputs": [
        {
          "indexed": false,
          "name": "_blockchainActionId",
          "type": "bytes32"
        },
        {
          "indexed": false,
          "name": "_providerUserId",
          "type": "bytes32"
        },
        {
          "indexed": false,
          "name": "invoiceCountryCode",
          "type": "bytes2"
        },
        {
          "indexed": false,
          "name": "invoiceCompanyNumber",
          "type": "bytes32"
        },
        {
          "indexed": false,
          "name": "invoiceCompanyName",
          "type": "bytes32"
        },
        {
          "indexed": false,
          "name": "invoiceNumber",
          "type": "bytes32"
        }
      ],
      "name": "EventNewInvoice",
      "type": "event"
    }
  ],
  "bytecode": "0x6060604052341561000f57600080fd5b6040516020806136698339810160405280805160008054600160a060020a03909216600160a060020a03199092169190911790555050613615806100546000396000f3006060604052361561009e5763ffffffff60e060020a60003504166302ab72c481146100a3578063150b7a02146100c457806315e9a2aa1461016557806319041ee2146101a85780633c9c912e146101f35780633da4138c146102355780635904243e1461027b578063878f666b146102ba578063a78caf19146102da578063aa1b6fc6146102ff578063f23a6e611461033a578063f7f01b4b146103ab575b600080fd5b34156100ae57600080fd5b6100c2600160a060020a03600435166103da565b005b34156100cf57600080fd5b610130600160a060020a036004803582169160248035909116916044359160849060643590810190830135806020601f8201819004810201604051908101604052818152929190602084018383808284375094965061048d95505050505050565b6040517fffffffff00000000000000000000000000000000000000000000000000000000909116815260200160405180910390f35b341561017057600080fd5b610194600160c060020a031960043516600160a060020a03602435166044356104b6565b604051901515815260200160405180910390f35b34156101b357600080fd5b6100c2600160a060020a0360043581169060243590604435906064359060843581169060a43581169060c4359060e4359061010435906101243516610599565b34156101fe57600080fd5b610213600160c060020a031960043516610f83565b604051600160a060020a03909216825260208201526040908101905180910390f35b341561024057600080fd5b6100c2600160a060020a03600435811690602435906044358116906064359060843581169060a4359060c4359060e435906101043516610fb1565b341561028657600080fd5b6100c2600160a060020a0360043581169060243590604435811690606435906084359060a4359060c4359060e43516611574565b34156102c557600080fd5b610213600160c060020a031960043516611a9b565b34156102e557600080fd5b6100c2600160a060020a0360043516602435604435611ac0565b341561030a57600080fd5b6100c2600160a060020a0360043516602435604435600160f060020a03196064351660843560a43560c435612521565b341561034557600080fd5b610130600160a060020a0360048035821691602480359091169160443591606435919060a49060843590810190830135806020601f8201819004810201604051908101604052818152929190602084018383808284375094965061283495505050505050565b34156103b657600080fd5b6103be61285e565b604051600160a060020a03909116815260200160405180910390f35b60008054600160a060020a03169063fda089589033906040516020015260405160e060020a63ffffffff8416028152600160a060020a039091166004820152602401602060405180830381600087803b151561043557600080fd5b6102c65a03f1151561044657600080fd5b50505060405180511515600114905061045e57600080fd5b6000805473ffffffffffffffffffffffffffffffffffffffff1916600160a060020a0392909216919091179055565b7f150b7a0200000000000000000000000000000000000000000000000000000000949350505050565b60008054600160a060020a031663fda0895833836040516020015260405160e060020a63ffffffff8416028152600160a060020a039091166004820152602401602060405180830381600087803b151561050f57600080fd5b6102c65a03f1151561052057600080fd5b50505060405180511515600114905061053857600080fd5b600160c060020a031984166000908152600160208190526040909120805473ffffffffffffffffffffffffffffffffffffffff1916600160a060020a03868116919091178083559190920184905516151561058f57fe5b5060019392505050565b60008054600160a060020a031663fda0895833836040516020015260405160e060020a63ffffffff8416028152600160a060020a039091166004820152602401602060405180830381600087803b15156105f257600080fd5b6102c65a03f1151561060357600080fd5b50505060405180511515600114905061061b57600080fd5b600160a060020a038b16151561063057600080fd5b8a600160a060020a031663bea0897c8b60006040516020015260405160e060020a63ffffffff84160281526004810191909152602401602060405180830381600087803b151561067f57600080fd5b6102c65a03f1151561069057600080fd5b5050506040518051159050801561071857508a600160a060020a0316632a01a4518660006040516020015260405160e060020a63ffffffff84160281526004810191909152602401602060405180830381600087803b15156106f157600080fd5b6102c65a03f1151561070257600080fd5b5050506040518051600160a060020a0316151590505b151561072357600080fd5b600160a060020a0382161580159061073b5750600083115b80156107475750600088115b151561075257600080fd5b8a600160a060020a031663d383b80d8a60006040516020015260405160e060020a63ffffffff84160281526004810191909152602401602060405180830381600087803b15156107a157600080fd5b6102c65a03f115156107b257600080fd5b5050506040518051600160a060020a0316151590506107d057600080fd5b8a600160a060020a0316632a01a4518660006040516020015260405160e060020a63ffffffff84160281526004810191909152602401602060405180830381600087803b151561081f57600080fd5b6102c65a03f1151561083057600080fd5b50505060405180517a505054000000000000000000000000000000000000000000000000600090815260016020527f2c6379ca2c83a957e0e33b79bf5f499e3437bdc022951391661524f3e473ebfd5491935085925061090691600160a060020a03808616926370a0823192909116906040516020015260405160e060020a63ffffffff8416028152600160a060020a039091166004820152602401602060405180830381600087803b15156108e557600080fd5b6102c65a03f115156108f657600080fd5b505050604051805190508661286d565b101561091157600080fd5b7a505054000000000000000000000000000000000000000000000000600090815260016020527f2c6379ca2c83a957e0e33b79bf5f499e3437bdc022951391661524f3e473ebfd54600160a060020a038084169263beabacc89290911690859087906040516020015260405160e060020a63ffffffff8616028152600160a060020a0393841660048201529190921660248201526044810191909152606401602060405180830381600087803b15156109c957600080fd5b6102c65a03f115156109da57600080fd5b5050506040518051151560011490506109f257600080fd5b8a600160a060020a031663d383b80d8a60006040516020015260405160e060020a63ffffffff84160281526004810191909152602401602060405180830381600087803b1515610a4157600080fd5b6102c65a03f11515610a5257600080fd5b50505060405180519050600160a060020a03166370a082318860006040516020015260405160e060020a63ffffffff8416028152600160a060020a039091166004820152602401602060405180830381600087803b1515610ab257600080fd5b6102c65a03f11515610ac357600080fd5b50505060405180519050881115610ca3578a600160a060020a031663d383b80d8a60006040516020015260405160e060020a63ffffffff84160281526004810191909152602401602060405180830381600087803b1515610b2357600080fd5b6102c65a03f11515610b3457600080fd5b50505060405180519050600160a060020a0316630156b3238c600160a060020a031663d383b80d8c60006040516020015260405160e060020a63ffffffff84160281526004810191909152602401602060405180830381600087803b1515610b9b57600080fd5b6102c65a03f11515610bac57600080fd5b50505060405180519050600160a060020a03166370a082318a60006040516020015260405160e060020a63ffffffff8416028152600160a060020a039091166004820152602401602060405180830381600087803b1515610c0c57600080fd5b6102c65a03f11515610c1d57600080fd5b505050604051805190508960006040516020015260405160e060020a63ffffffff85160281526004810192909252600160a060020a03166024820152604401602060405180830381600087803b1515610c7557600080fd5b6102c65a03f11515610c8657600080fd5b505050604051805115156001149050610c9e57600080fd5b610d93565b8a600160a060020a031663d383b80d8a60006040516020015260405160e060020a63ffffffff84160281526004810191909152602401602060405180830381600087803b1515610cf257600080fd5b6102c65a03f11515610d0357600080fd5b50505060405180519050600160a060020a0316630156b323898960006040516020015260405160e060020a63ffffffff85160281526004810192909252600160a060020a03166024820152604401602060405180830381600087803b1515610d6a57600080fd5b6102c65a03f11515610d7b57600080fd5b505050604051805115156001149050610d9357600080fd5b8a600160a060020a031663d383b80d8a60006040516020015260405160e060020a63ffffffff84160281526004810191909152602401602060405180830381600087803b1515610de257600080fd5b6102c65a03f11515610df357600080fd5b50505060405180519050600160a060020a03166323b872dd33888b60006040516020015260405160e060020a63ffffffff8616028152600160a060020a0393841660048201529190921660248201526044810191909152606401602060405180830381600087803b1515610e6657600080fd5b6102c65a03f11515610e7757600080fd5b50505060405180515050600160a060020a038b166392c4b8678b8b8b898b8960006040516020015260405160e060020a63ffffffff89160281526004810196909652602486019490945260448501929092526064840152600160a060020a0316608483015260a482015260c401602060405180830381600087803b1515610efd57600080fd5b6102c65a03f11515610f0e57600080fd5b505050604051805115156001149050610f2657600080fd5b7f7ad4d17a5e7c561e98e5c4a65c9108011dda4b022882de21c25c530df0054a6c8a868b8b604051938452602084019290925260408084019190915260608301919091526080909101905180910390a15050505050505050505050565b600160c060020a03191660009081526001602081905260409091208054910154600160a060020a0390911691565b6000805481908190600160a060020a031663fda0895833836040516020015260405160e060020a63ffffffff8416028152600160a060020a039091166004820152602401602060405180830381600087803b151561100e57600080fd5b6102c65a03f1151561101f57600080fd5b50505060405180511515600114905061103757600080fd5b600160a060020a038c16151561104c57600080fd5b8b600160a060020a031663bea0897c8c60006040516020015260405160e060020a63ffffffff84160281526004810191909152602401602060405180830381600087803b151561109b57600080fd5b6102c65a03f115156110ac57600080fd5b5050506040518051159050801561113457508b600160a060020a0316632a01a4518a60006040516020015260405160e060020a63ffffffff84160281526004810191909152602401602060405180830381600087803b151561110d57600080fd5b6102c65a03f1151561111e57600080fd5b5050506040518051600160a060020a0316151590505b151561113f57600080fd5b600160a060020a038416158015906111575750600085115b80156111635750600087115b151561116e57600080fd5b8b600160a060020a0316632a01a4518a60006040516020015260405160e060020a63ffffffff84160281526004810191909152602401602060405180830381600087803b15156111bd57600080fd5b6102c65a03f115156111ce57600080fd5b50505060405180519050925061125583600160a060020a03166370a082318c60006040516020015260405160e060020a63ffffffff8416028152600160a060020a039091166004820152602401602060405180830381600087803b151561123457600080fd5b6102c65a03f1151561124557600080fd5b505050604051805190508761286d565b9150611261878661287f565b82101561126d57600080fd5b82600160a060020a031663beabacc88b8a8a60006040516020015260405160e060020a63ffffffff8616028152600160a060020a0393841660048201529190921660248201526044810191909152606401602060405180830381600087803b15156112d757600080fd5b6102c65a03f115156112e857600080fd5b50505060405180511515600114905061130057600080fd5b82600160a060020a031663beabacc88b868860006040516020015260405160e060020a63ffffffff8616028152600160a060020a0393841660048201529190921660248201526044810191909152606401602060405180830381600087803b151561136a57600080fd5b6102c65a03f1151561137b57600080fd5b50505060405180511515600114905061139357600080fd5b89600160a060020a03166395d89b416000604051602001526040518163ffffffff1660e060020a028152600401602060405180830381600087803b15156113d957600080fd5b6102c65a03f115156113ea57600080fd5b5050506040518051915050600160a060020a038c166392c4b8678c838a8d8d8b60006040516020015260405160e060020a63ffffffff89160281526004810196909652602486019490945260448501929092526064840152600160a060020a0316608483015260a482015260c401602060405180830381600087803b151561147157600080fd5b6102c65a03f1151561148257600080fd5b50505060405180511515600114905061149a57600080fd5b7fb34e83f654f4c047e331cea47cc1783dd0511abde3cac240a47bfbdefd6812e88b8a8e600160a060020a0316632a01a4518d60006040516020015260405160e060020a63ffffffff84160281526004810191909152602401602060405180830381600087803b151561150c57600080fd5b6102c65a03f1151561151d57600080fd5b505050604051805190508b8b6040519485526020850193909352600160a060020a0391821660408086019190915291166060840152608083019190915260a0909101905180910390a1505050505050505050505050565b6000805481908190600160a060020a031663fda0895833836040516020015260405160e060020a63ffffffff8416028152600160a060020a039091166004820152602401602060405180830381600087803b15156115d157600080fd5b6102c65a03f115156115e257600080fd5b5050506040518051151560011490506115fa57600080fd5b7a584155000000000000000000000000000000000000000000000000600090815260016020527f5b61a34fc175c19d1a4e74ce629a51a3a9a6de769c03f11be4bb3c488642d88a548c9450600160a060020a039081169350841690632a01a4519087906040516020015260405160e060020a63ffffffff84160281526004810191909152602401602060405180830381600087803b151561169a57600080fd5b6102c65a03f115156116ab57600080fd5b5050506040518051915050600160a060020a038b16158015906116d65750600160a060020a03811615155b80156116ea5750600160a060020a03891615155b801561175d575082600160a060020a031663bea0897c8b60006040516020015260405160e060020a63ffffffff84160281526004810191909152602401602060405180830381600087803b151561174057600080fd5b6102c65a03f1151561175157600080fd5b50505060405180511590505b80156117ca5750600281600160a060020a0316630d8e6e2c6000604051602001526040518163ffffffff1660e060020a028152600401602060405180830381600087803b15156117ac57600080fd5b6102c65a03f115156117bd57600080fd5b5050506040518051905010155b801561184e57508682600160a060020a0316633656eec2883360006040516020015260405160e060020a63ffffffff85160281526004810192909252600160a060020a03166024820152604401602060405180830381600087803b151561183057600080fd5b6102c65a03f1151561184157600080fd5b5050506040518051905010155b151561185957600080fd5b80600160a060020a031663beabacc88a868b60006040516020015260405160e060020a63ffffffff8616028152600160a060020a0393841660048201529190921660248201526044810191909152606401602060405180830381600087803b15156118c357600080fd5b6102c65a03f115156118d457600080fd5b5050506040518051151560011490506118ec57600080fd5b81600160a060020a031663f242432a3383898b60405160e060020a63ffffffff8716028152600160a060020a0394851660048201529290931660248301526044820152606481019190915260a06084820152600060a4820181905260e49091019060405180830381600087803b151561196457600080fd5b6102c65a03f1151561197557600080fd5b50505082600160a060020a03166392c4b8678b60008b89866000806040516020015260405160e060020a63ffffffff89160281526004810196909652602486019490945260448501929092526064840152600160a060020a0316608483015260a482015260c401602060405180830381600087803b15156119f557600080fd5b6102c65a03f11515611a0657600080fd5b505050604051805115156001149050611a1e57600080fd5b7f3a0f94ac6dfce4f3ae7bdb44dc7ca27dfc76d4747283fbbea8cc33c59cc35afe8a8a8a8a8a8a87604051968752600160a060020a0395861660208801526040808801959095526060870193909352608086019190915260a085015290911660c083015260e0909101905180910390a15050505050505050505050565b60016020819052600091825260409091208054910154600160a060020a039091169082565b600080548190819081908190600160a060020a031663fda0895833836040516020015260405160e060020a63ffffffff8416028152600160a060020a039091166004820152602401602060405180830381600087803b1515611b2157600080fd5b6102c65a03f11515611b3257600080fd5b505050604051805115156001149050611b4a57600080fd5b600160a060020a0388161515611b5f57600080fd5b87945084600160a060020a0316632a01a4518760006040516020015260405160e060020a63ffffffff84160281526004810191909152602401602060405180830381600087803b1515611bb157600080fd5b6102c65a03f11515611bc257600080fd5b5050506040518051600160a060020a031615905061221d5784600160a060020a0316632a01a4518760006040516020015260405160e060020a63ffffffff84160281526004810191909152602401602060405180830381600087803b1515611c2957600080fd5b6102c65a03f11515611c3a57600080fd5b5050506040518051600054909450879150600160a060020a0316611c5c6128a3565b918252600160a060020a0316602082015260409081019051809103906000f0801515611c8757600080fd5b935082600160a060020a03166040517f67657456657273696f6e282900000000000000000000000000000000000000008152600c01604051809103902060e060020a90046040518163ffffffff1660e060020a02815260040160006040518083038160008761646e5a03f1159250611d0191505057600080fd5b505060016020527fc1ee47c52a7b34bb9e05588a03eb18c9c810d5a67689e63a421233cda146257f547a50505400000000000000000000000000000000000000000000000060009081527f2c6379ca2c83a957e0e33b79bf5f499e3437bdc022951391661524f3e473ebfd54600160a060020a0392831692908116919084166370a0823184836040516020015260405160e060020a63ffffffff8416028152600160a060020a039091166004820152602401602060405180830381600087803b1515611dcc57600080fd5b6102c65a03f11515611ddd57600080fd5b505050604051805190501115611ee857600160a060020a03831663beabacc88386836370a082318360006040516020015260405160e060020a63ffffffff8416028152600160a060020a039091166004820152602401602060405180830381600087803b1515611e4c57600080fd5b6102c65a03f11515611e5d57600080fd5b5050506040518051905060006040516020015260405160e060020a63ffffffff8616028152600160a060020a0393841660048201529190921660248201526044810191909152606401602060405180830381600087803b1515611ebf57600080fd5b6102c65a03f11515611ed057600080fd5b505050604051805115156001149050611ee857600080fd5b600083600160a060020a03166370a082318360006040516020015260405160e060020a63ffffffff8416028152600160a060020a039091166004820152602401602060405180830381600087803b1515611f4157600080fd5b6102c65a03f11515611f5257600080fd5b50505060405180519050111561205d57600160a060020a03831663beabacc88286836370a082318360006040516020015260405160e060020a63ffffffff8416028152600160a060020a039091166004820152602401602060405180830381600087803b1515611fc157600080fd5b6102c65a03f11515611fd257600080fd5b5050506040518051905060006040516020015260405160e060020a63ffffffff8616028152600160a060020a0393841660048201529190921660248201526044810191909152606401602060405180830381600087803b151561203457600080fd5b6102c65a03f1151561204557600080fd5b50505060405180511515600114905061205d57600080fd5b84600160a060020a031663c9939d0e88888760006040516020015260405160e060020a63ffffffff861602815260048101939093526024830191909152600160a060020a03166044820152606401602060405180830381600087803b15156120c457600080fd5b6102c65a03f115156120d557600080fd5b5050506040518051151560011490506120ed57600080fd5b7f0456067687d27fcf6d3db141acb08cedd0fa786fdc7d672a7ed802514669b2e0878487600160a060020a0316632a01a4518a60006040516020015260405160e060020a63ffffffff84160281526004810191909152602401602060405180830381600087803b151561215f57600080fd5b6102c65a03f1151561217057600080fd5b505050604051805190508988600160a060020a0316630d8e6e2c6000604051602001526040518163ffffffff1660e060020a028152600401602060405180830381600087803b15156121c157600080fd5b6102c65a03f115156121d257600080fd5b50505060405180519050604051948552600160a060020a039384166020860152919092166040808501919091526060840192909252608083015260a0909101905180910390a1612517565b6000548690600160a060020a03166122336128a3565b918252600160a060020a0316602082015260409081019051809103906000f080151561225e57600080fd5b935084600160a060020a0316630e8ba16788868960006040516020015260405160e060020a63ffffffff86160281526004810193909352600160a060020a0390911660248301526044820152606401602060405180830381600087803b15156122c657600080fd5b6102c65a03f115156122d757600080fd5b5050506040518051151560011490506122ef57600080fd5b600160a060020a0385166392c4b867886000808a85632a01a45182846040516020015260405160e060020a63ffffffff84160281526004810191909152602401602060405180830381600087803b151561234857600080fd5b6102c65a03f1151561235957600080fd5b505050604051805190506000806040516020015260405160e060020a63ffffffff89160281526004810196909652602486019490945260448501929092526064840152600160a060020a0316608483015260a482015260c401602060405180830381600087803b15156123cb57600080fd5b6102c65a03f115156123dc57600080fd5b5050506040518051151560011490506123f457600080fd5b7f0fb3e865b3e3996382296fd8ddd17b0bb8ae5d9866b08a51945a2e58cac30730878787600160a060020a0316632a01a4518a60006040516020015260405160e060020a63ffffffff84160281526004810191909152602401602060405180830381600087803b151561246657600080fd5b6102c65a03f1151561247757600080fd5b5050506040518051905087600160a060020a0316630d8e6e2c6000604051602001526040518163ffffffff1660e060020a028152600401602060405180830381600087803b15156124c757600080fd5b6102c65a03f115156124d857600080fd5b505050604051805190506040519384526020840192909252600160a060020a031660408084019190915260608301919091526080909101905180910390a15b5050505050505050565b60008054819081908190600160a060020a031663fda0895833836040516020015260405160e060020a63ffffffff8416028152600160a060020a039091166004820152602401602060405180830381600087803b151561258057600080fd5b6102c65a03f1151561259157600080fd5b5050506040518051151560011490506125a957600080fd5b600160a060020a038b1615156125be57600080fd5b8a935083600160a060020a0316631529905c8a60006040516060015260405160e060020a63ffffffff84160281526004810191909152602401606060405180830381600087803b151561261057600080fd5b6102c65a03f1151561262157600080fd5b505050604051805190602001805190602001805192955090935090915050600160f060020a031983161580159061265757508115155b801561266257508015155b151561266d57600080fd5b83600160a060020a031663880a8e548b8b8b8b8b8b60006040516020015260405160e060020a63ffffffff891602815260048101969096526024860194909452600160f060020a031990921660448501526064840152608483015260a482015260c401602060405180830381600087803b15156126e957600080fd5b6102c65a03f115156126fa57600080fd5b50505060405180511515600114905061271257600080fd5b83600160a060020a03166392c4b8678b6000808d60008060006040516020015260405160e060020a63ffffffff89160281526004810196909652602486019490945260448501929092526064840152600160a060020a0316608483015260a482015260c401602060405180830381600087803b151561279057600080fd5b6102c65a03f115156127a157600080fd5b5050506040518051151560011490506127b957600080fd5b7f53c9402948bb1a0f1c1ff853af7d9843a08489c0e79a7066f4d6ac7a7ac7876a8a8a8a8a8a8a6040519586526020860194909452600160f060020a03199092166040808601919091526060850191909152608084019190915260a083019190915260c0909101905180910390a15050505050505050505050565b7ff23a6e610000000000000000000000000000000000000000000000000000000095945050505050565b600054600160a060020a031681565b60008282111561287957fe5b50900390565b60008282018381108015906128945750828110155b151561289c57fe5b9392505050565b604051610d36806128b4833901905600606060405260028055341561001357600080fd5b604051604080610d36833981016040528080519190602001805160008054600160a060020a03909216600160a060020a03199092169190911790555050600155610cd4806100626000396000f300606060405236156100bf5763ffffffff60e060020a60003504166302ab72c481146100c457806305b1137b146100e55780630a7e880c1461011b5780630d8e6e2c14610146578063150b7a021461016b5780631aca63761461020c578063418ae26914610234578063468f262214610256578063527fe4131461027557806354fd4d50146102885780636bb3471a1461029b57806370a08231146102ae578063beabacc8146102cd578063f23a6e61146102f5578063f7f01b4b14610366575b600080fd5b34156100cf57600080fd5b6100e3600160a060020a0360043516610395565b005b34156100f057600080fd5b610107600160a060020a0360043516602435610448565b604051901515815260200160405180910390f35b341561012657600080fd5b610107600160a060020a03600435811690602435166044356064356105e8565b341561015157600080fd5b61015961077b565b60405190815260200160405180910390f35b341561017657600080fd5b6101d7600160a060020a036004803582169160248035909116916044359160849060643590810190830135806020601f8201819004810201604051908101604052818152929190602084018383808284375094965061078195505050505050565b6040517fffffffff00000000000000000000000000000000000000000000000000000000909116815260200160405180910390f35b341561021757600080fd5b610107600160a060020a03600435811690602435166044356107aa565b341561023f57600080fd5b610159600160a060020a0360043516602435610940565b341561026157600080fd5b610159600160a060020a03600435166109c1565b341561028057600080fd5b610159610a3c565b341561029357600080fd5b610159610a42565b34156102a657600080fd5b610159610a48565b34156102b957600080fd5b610159600160a060020a0360043516610a4e565b34156102d857600080fd5b610107600160a060020a0360043581169060243516604435610aea565b341561030057600080fd5b6101d7600160a060020a0360048035821691602480359091169160443591606435919060a49060843590810190830135806020601f82018190048102016040519081016040528181529291906020840183838082843750949650610c6f95505050505050565b341561037157600080fd5b610379610c99565b604051600160a060020a03909116815260200160405180910390f35b60008054600160a060020a03169063fda089589033906040516020015260405160e060020a63ffffffff8416028152600160a060020a039091166004820152602401602060405180830381600087803b15156103f057600080fd5b6102c65a03f1151561040157600080fd5b50505060405180511515600114905061041957600080fd5b6000805473ffffffffffffffffffffffffffffffffffffffff1916600160a060020a0392909216919091179055565b60008054600160a060020a031663fda0895833836040516020015260405160e060020a63ffffffff8416028152600160a060020a039091166004820152602401602060405180830381600087803b15156104a157600080fd5b6102c65a03f115156104b257600080fd5b50505060405180511515600114905080610543575060008054600160a060020a0316906305fd22d09033906040516020015260405160e060020a63ffffffff8416028152600160a060020a039091166004820152602401602060405180830381600087803b151561052257600080fd5b6102c65a03f1151561053357600080fd5b5050506040518051151560011490505b151561054e57600080fd5b600160a060020a033016318290101561056657600080fd5b600160a060020a03831682156108fc0283604051600060405180830381858888f11515600114935061059b9250505057600080fd5b7f1853ca9dc0208799379313b2b43364e45db022f073c72648fbc206dc0bacbcdc8383604051600160a060020a03909216825260208201526040908101905180910390a150600192915050565b60008054600160a060020a031663fda0895833836040516020015260405160e060020a63ffffffff8416028152600160a060020a039091166004820152602401602060405180830381600087803b151561064157600080fd5b6102c65a03f1151561065257600080fd5b505050604051805115156001149050806106e3575060008054600160a060020a0316906305fd22d09033906040516020015260405160e060020a63ffffffff8416028152600160a060020a039091166004820152602401602060405180830381600087803b15156106c257600080fd5b6102c65a03f115156106d357600080fd5b5050506040518051151560011490505b15156106ee57600080fd5b84600160a060020a031663ae28b68c85858560405160e060020a63ffffffff8616028152600160a060020a039093166004840152602483019190915260448201526080606482015260006084820181905260c49091019060405180830381600087803b151561075c57600080fd5b6102c65a03f1151561076d57600080fd5b506001979650505050505050565b60025490565b7f150b7a0200000000000000000000000000000000000000000000000000000000949350505050565b60008054600160a060020a031663fda0895833836040516020015260405160e060020a63ffffffff8416028152600160a060020a039091166004820152602401602060405180830381600087803b151561080357600080fd5b6102c65a03f1151561081457600080fd5b505050604051805115156001149050806108a5575060008054600160a060020a0316906305fd22d09033906040516020015260405160e060020a63ffffffff8416028152600160a060020a039091166004820152602401602060405180830381600087803b151561088457600080fd5b6102c65a03f1151561089557600080fd5b5050506040518051151560011490505b15156108b057600080fd5b83600160a060020a031663b88d4fde30858560405160e060020a63ffffffff8616028152600160a060020a03938416600482015291909216602482015260448101919091526080606482015260006084820181905260c49091019060405180830381600087803b151561092257600080fd5b6102c65a03f1151561093357600080fd5b5060019695505050505050565b600082600160a060020a0316633656eec2833060006040516020015260405160e060020a63ffffffff85160281526004810192909252600160a060020a03166024820152604401602060405180830381600087803b15156109a057600080fd5b6102c65a03f115156109b157600080fd5b5050506040518051949350505050565b600081600160a060020a03166370a082313060006040516020015260405160e060020a63ffffffff8416028152600160a060020a039091166004820152602401602060405180830381600087803b1515610a1a57600080fd5b6102c65a03f11515610a2b57600080fd5b50505060405180519150505b919050565b60015490565b60025481565b60015481565b6000600160a060020a0382161515610a715750600160a060020a03301631610a37565b81600160a060020a03166370a082313060006040516020015260405160e060020a63ffffffff8416028152600160a060020a039091166004820152602401602060405180830381600087803b1515610ac857600080fd5b6102c65a03f11515610ad957600080fd5b505050604051805190509050610a37565b60008054600160a060020a031663fda0895833836040516020015260405160e060020a63ffffffff8416028152600160a060020a039091166004820152602401602060405180830381600087803b1515610b4357600080fd5b6102c65a03f11515610b5457600080fd5b50505060405180511515600114905080610be5575060008054600160a060020a0316906305fd22d09033906040516020015260405160e060020a63ffffffff8416028152600160a060020a039091166004820152602401602060405180830381600087803b1515610bc457600080fd5b6102c65a03f11515610bd557600080fd5b5050506040518051151560011490505b1515610bf057600080fd5b83600160a060020a031663a9059cbb848460006040516020015260405160e060020a63ffffffff8516028152600160a060020a0390921660048301526024820152604401602060405180830381600087803b1515610c4d57600080fd5b6102c65a03f11515610c5e57600080fd5b505050604051805195945050505050565b7ff23a6e610000000000000000000000000000000000000000000000000000000095945050505050565b600054600160a060020a0316815600a165627a7a72305820699083e75a443648c131832683bf631e93c5daaabde2d5e663159a8a63a07e3d0029a165627a7a723058206da5c9eb61ff001adcb891703e31caed8c7b095e9487957fa7440cc089df758e0029",
  "source": "pragma solidity ^0.4.17;\n/**\nThis is the core module of the system. Currently it holds the code of\nthe Bank and crowdsale modules to avoid external calls and higher gas costs.\nIt might be a good idea in the future to split the code, separate Bank\nand crowdsale modules into external files and have the core interact with them\nwith addresses and interfaces. \n*/\nimport \"./iERC20Token.sol\";\nimport \"./CurrencyToken.sol\";\nimport \"./DepositContract.sol\";\nimport \"./SafeMath.sol\";\nimport \"./DataManager.sol\";\nimport \"./ERC1155.sol\";\nimport \"./withAccessManager.sol\";\n\n/// @title Populous contract\ncontract Populous is withAccessManager {\n    // EVENTS\n    // Bank events\n    event EventExchangeXAUp (bytes32 _blockchainActionId, address erc20_tokenAddress, uint256 erc20_amount, uint256 xaup_amount, uint256 _tokenId, bytes32 _clientId, address _from);\n    event EventDepositAddressUpgrade(bytes32 blockchainActionId, address oldDepositContract, address newDepositContract, bytes32 clientId, uint256 version);\n    event EventWithdrawPPT(bytes32 blockchainActionId, bytes32 accountId, address depositContract, address to, uint amount);\n    event EventWithdrawPoken(bytes32 _blockchainActionId, bytes32 accountId, bytes32 currency, uint amount);\n    event EventNewDepositContract(bytes32 blockchainActionId, bytes32 clientId, address depositContractAddress, uint256 version);\n    event EventNewInvoice(bytes32 _blockchainActionId, bytes32 _providerUserId, bytes2 invoiceCountryCode, bytes32 invoiceCompanyNumber, bytes32 invoiceCompanyName, bytes32 invoiceNumber);\n\n    // FIELDS\n    struct tokens {   \n        address _token;\n        uint256 _precision;\n    }\n    mapping(bytes8 => tokens) public tokenDetails;\n\n    // NON-CONSTANT METHODS\n    // Constructor method called when contract instance is \n    // deployed with 'withAccessManager' modifier.\n    function Populous(address _accessManager) public withAccessManager(_accessManager) {\n\n    }\n\n        /** @dev Add a new crowdsale invoice from an invoice provider to the platform  \n      * @param _blockchainActionId the blockchain action id\n      * @param _providerUserId the user id of the provider\n      * @param _invoiceCompanyNumber the providers company number\n      * @param _invoiceCompanyName the providers company name\n      * @param _invoiceCountryCode the providers country code\n      * @param _invoiceNumber the invoice identification number\n      */\n    function addInvoice(\n        address _dataManager, bytes32 _blockchainActionId, \n        bytes32 _providerUserId, bytes2 _invoiceCountryCode, \n        bytes32 _invoiceCompanyNumber, bytes32 _invoiceCompanyName, bytes32 _invoiceNumber)\n        public\n        onlyServer\n    {\n        require(_dataManager != 0x0);\n        DataManager dm = DataManager(_dataManager);\n        bytes2 countryCode;\n        bytes32 companyName;\n        bytes32 companyNumber;\n        (countryCode, companyName, companyNumber) = dm.getProviderByUserId(_providerUserId);\n        require(countryCode != 0x0 && companyName != 0x0 && companyNumber != 0x0);\n        require(dm.setInvoice(_blockchainActionId, _providerUserId, _invoiceCountryCode, _invoiceCompanyNumber, _invoiceCompanyName, _invoiceNumber) == true);\n        require(dm.setBlockchainActionData(_blockchainActionId, 0x0, 0, _providerUserId, 0x0, 0) == true);\n        EventNewInvoice(_blockchainActionId, _providerUserId, _invoiceCountryCode, _invoiceCompanyNumber, _invoiceCompanyName, _invoiceNumber);\n    }\n\n    /**\n    BANK MODULE\n    */\n    // NON-CONSTANT METHODS\n    /// Ether to XAUP exchange between deposit contract and Populous.sol\n    function exchangeXAUP(\n        address _dataManager, bytes32 _blockchainActionId, \n        address erc20_tokenAddress, uint erc20_amount, uint xaup_amount, \n        uint _tokenId, bytes32 _clientId, address adminExternalWallet) \n        public \n        onlyServer\n    {    \n        DataManager dm = DataManager(_dataManager);\n        ERC1155 xa = ERC1155(tokenDetails[0x584155]._token);\n        // client deposit smart contract address\n        address _depositAddress = dm.getDepositAddress(_clientId);\n        require(\n            // check dataManager contract is valid\n            _dataManager != 0x0 &&\n            // check deposit address of client\n            _depositAddress != 0x0 && \n            // check xaup token address\n            // tokenDetails[0x584155]._token != 0x0 && \n            erc20_tokenAddress != 0x0 &&\n            // check action id is unused\n            dm.getActionStatus(_blockchainActionId) == false &&\n            // deposit contract version >= 2\n            DepositContract(_depositAddress).getVersion() >= 2 &&\n            // populous server xaup balance\n            xa.balanceOf(_tokenId, msg.sender) >= xaup_amount\n        );\n        // transfer erc20 token balance from clients deposit contract to server/admin\n        require(DepositContract(_depositAddress).transfer(erc20_tokenAddress, adminExternalWallet, erc20_amount) == true);\n        // transfer xaup tokens to clients deposit address from populous server allowance\n        xa.safeTransferFrom(msg.sender, _depositAddress, _tokenId, xaup_amount, \"\");\n        // set action status in dataManager\n        require(dm.setBlockchainActionData(_blockchainActionId, 0x0, erc20_amount, _clientId, _depositAddress, 0) == true);\n        // emit event \n        EventExchangeXAUp(_blockchainActionId, erc20_tokenAddress, erc20_amount, xaup_amount, _tokenId, _clientId, _depositAddress);\n    }\n\n    /// @notice Handle the receipt of an ERC1155 type\n    function onERC1155Received(address _operator, address _from, uint256 _id, uint256 _value, bytes _data) public returns(bytes4) {\n        return 0xf23a6e61;\n    }\n\n    /// @notice Handle the receipt of an ERC721 type\n    function onERC721Received(address _operator, address _from, uint256 _tokenId, bytes _data) public returns(bytes4) {\n        return 0x150b7a02; \n    }\n\n    // Creates a new 'depositAddress' gotten from deploying a deposit contract linked to a client ID\n    function createAddress(address _dataManager, bytes32 _blockchainActionId, bytes32 clientId) \n        public\n        onlyServer\n    {   \n        require(_dataManager != 0x0);\n        DataManager dm = DataManager(_dataManager);\n        DepositContract newDepositContract;\n        DepositContract dc;\n        if (dm.getDepositAddress(clientId) != 0x0) {\n            dc = DepositContract(dm.getDepositAddress(clientId));\n            newDepositContract = new DepositContract(clientId, AM);\n            require(!dc.call(bytes4(keccak256(\"getVersion()\"))));\n            //require(dc.getVersion() < 2);\n            address PXT = tokenDetails[0x505854]._token;\n            address PPT = tokenDetails[0x505054]._token;\n            if(dc.balanceOf(PXT) > 0){\n                require(dc.transfer(PXT, newDepositContract, dc.balanceOf(PXT)) == true);\n            }\n            if(dc.balanceOf(PPT) > 0) {\n                require(dc.transfer(PPT, newDepositContract, dc.balanceOf(PPT)) == true);\n            }\n            require(dm._setDepositAddress(_blockchainActionId, clientId, newDepositContract) == true);\n            EventDepositAddressUpgrade(_blockchainActionId, address(dc), dm.getDepositAddress(clientId), clientId, newDepositContract.getVersion());\n        } else { \n            newDepositContract = new DepositContract(clientId, AM);\n            require(dm.setDepositAddress(_blockchainActionId, newDepositContract, clientId) == true);\n            require(dm.setBlockchainActionData(_blockchainActionId, 0x0, 0, clientId, dm.getDepositAddress(clientId), 0) == true);\n            EventNewDepositContract(_blockchainActionId, clientId, dm.getDepositAddress(clientId), newDepositContract.getVersion());\n        }\n    }\n\n    /** dev Import an amount of pokens of a particular currency from an ethereum wallet/address to bank\n      * param _blockchainActionId the blockchain action id\n      * param accountId the account id of the client\n      * param from the blockchain address to import pokens from\n      * param currency the poken currency\n      */\n    function withdrawPoken(\n        address _dataManager, bytes32 _blockchainActionId, \n        bytes32 currency, uint256 amount,\n        address from, address to, bytes32 accountId, \n        uint256 inCollateral,\n        uint256 pptFee, address adminExternalWallet) \n        public \n        onlyServer \n    {\n        require(_dataManager != 0x0);\n        //DataManager dm = DataManager(_dataManager);\n        require(DataManager(_dataManager).getActionStatus(_blockchainActionId) == false && DataManager(_dataManager).getDepositAddress(accountId) != 0x0);\n        require(adminExternalWallet != 0x0 && pptFee > 0 && amount > 0);\n        require(DataManager(_dataManager).getCurrency(currency) != 0x0);\n        DepositContract o = DepositContract(DataManager(_dataManager).getDepositAddress(accountId));\n        // check if pptbalance minus collateral held is more than pptFee then transfer pptFee from users ppt deposit to adminWallet\n        require(SafeMath.safeSub(o.balanceOf(tokenDetails[0x505054]._token), inCollateral) >= pptFee);\n        require(o.transfer(tokenDetails[0x505054]._token, adminExternalWallet, pptFee) == true);\n        // WITHDRAW PART / DEBIT\n        if(amount > CurrencyToken(DataManager(_dataManager).getCurrency(currency)).balanceOf(from)) {\n                // destroying total balance\n            require(CurrencyToken(DataManager(_dataManager).getCurrency(currency)).destroyTokensFrom(CurrencyToken(DataManager(_dataManager).getCurrency(currency)).balanceOf(from), from) == true);\n            //remaining ledger balance. deposit address is 0\n        } else {\n                // destroy amount from balance\n            require(CurrencyToken(DataManager(_dataManager).getCurrency(currency)).destroyTokensFrom(amount, from) == true);\n            //left over deposit address balance.\n        }\n        // TRANSFER PART / CREDIT\n        // approve currency amount for populous for the next require to pass\n        CurrencyToken(DataManager(_dataManager).getCurrency(currency)).transferFrom(msg.sender, to, amount);\n        require(DataManager(_dataManager).setBlockchainActionData(_blockchainActionId, currency, amount, accountId, to, pptFee) == true); \n        EventWithdrawPoken(_blockchainActionId, accountId, currency, amount);\n    }\n\n    /** @dev Withdraw an amount of PPT Populous tokens to a blockchain address \n      * @param _blockchainActionId the blockchain action id\n      * @param pptAddress the address of the PPT smart contract\n      * @param accountId the account id of the client\n      * @param pptFee the amount of fees to pay in PPT tokens\n      * @param adminExternalWallet the platform admin wallet address to pay the fees to \n      * @param to the blockchain address to withdraw and transfer the pokens to\n      * @param inCollateral the amount of pokens withheld by the platform\n      */    \n    function withdrawERC20(\n        address _dataManager, bytes32 _blockchainActionId, \n        address pptAddress, bytes32 accountId, \n        address to, uint256 amount, uint256 inCollateral, uint256 pptFee, address adminExternalWallet) \n        public \n        onlyServer \n    {   \n        require(_dataManager != 0x0);\n        //DataManager dm = DataManager(_dataManager);\n        require(DataManager(_dataManager).getActionStatus(_blockchainActionId) == false && DataManager(_dataManager).getDepositAddress(accountId) != 0x0);\n        require(adminExternalWallet != 0x0 && pptFee > 0 && amount > 0);\n        address depositContract = DataManager(_dataManager).getDepositAddress(accountId);\n        uint pptBalance = SafeMath.safeSub(DepositContract(depositContract).balanceOf(pptAddress), inCollateral);\n        require(pptBalance >= SafeMath.safeAdd(amount, pptFee));\n        require(DepositContract(depositContract).transfer(pptAddress, to, amount) == true);\n        require(DepositContract(depositContract).transfer(pptAddress, adminExternalWallet, pptFee) == true); \n        bytes32 tokenSymbol = iERC20Token(pptAddress).symbol();    \n        require(DataManager(_dataManager).setBlockchainActionData(_blockchainActionId, tokenSymbol, amount, accountId, to, pptFee) == true);\n        EventWithdrawPPT(_blockchainActionId, accountId, DataManager(_dataManager).getDepositAddress(accountId), to, amount);\n    }\n    \n    // Set/Update token address and precision\n    function setTokenDetails(bytes8 tokenName, address token, uint256 precision) \n        public \n        onlyServer \n        returns(bool success) \n    {\n        tokenDetails[tokenName]._token = token;\n        tokenDetails[tokenName]._precision = precision;\n        assert(tokenDetails[tokenName]._token != 0x0);\n        return true;\n    }\n\n    // CONSTANT METHODS\n    function getTokenDetails(bytes8 tokenName) public view returns (address token, uint256 precision) {\n        return (tokenDetails[tokenName]._token, tokenDetails[tokenName]._precision);\n    }\n}",
  "sourcePath": "/Users/najienka/Desktop/populous-smartcontracts/contracts/Populous.sol",
  "schemaVersion": "1.0.0",
  "updatedAt": "2018-11-19T20:06:49.116Z"
}