{
  "contractName": "Populous",
  "abi": [
    {
      "constant": false,
      "inputs": [
        {
          "name": "_accessManager",
          "type": "address"
        }
      ],
      "name": "updateAccessManager",
      "outputs": [],
      "payable": false,
      "stateMutability": "nonpayable",
      "type": "function"
    },
    {
      "constant": false,
      "inputs": [
        {
          "name": "_operator",
          "type": "address"
        },
        {
          "name": "_from",
          "type": "address"
        },
        {
          "name": "_tokenId",
          "type": "uint256"
        },
        {
          "name": "_data",
          "type": "bytes"
        }
      ],
      "name": "onERC721Received",
      "outputs": [
        {
          "name": "",
          "type": "bytes4"
        }
      ],
      "payable": false,
      "stateMutability": "nonpayable",
      "type": "function"
    },
    {
      "constant": false,
      "inputs": [
        {
          "name": "tokenName",
          "type": "bytes8"
        },
        {
          "name": "token",
          "type": "address"
        },
        {
          "name": "precision",
          "type": "uint256"
        }
      ],
      "name": "setTokenDetails",
      "outputs": [
        {
          "name": "success",
          "type": "bool"
        }
      ],
      "payable": false,
      "stateMutability": "nonpayable",
      "type": "function"
    },
    {
      "constant": false,
      "inputs": [
        {
          "name": "_dataManager",
          "type": "address"
        },
        {
          "name": "_blockchainActionId",
          "type": "bytes32"
        },
        {
          "name": "currency",
          "type": "bytes32"
        },
        {
          "name": "amount",
          "type": "uint256"
        },
        {
          "name": "from",
          "type": "address"
        },
        {
          "name": "to",
          "type": "address"
        },
        {
          "name": "accountId",
          "type": "bytes32"
        },
        {
          "name": "inCollateral",
          "type": "uint256"
        },
        {
          "name": "pptFee",
          "type": "uint256"
        },
        {
          "name": "adminExternalWallet",
          "type": "address"
        }
      ],
      "name": "withdrawPoken",
      "outputs": [],
      "payable": false,
      "stateMutability": "nonpayable",
      "type": "function"
    },
    {
      "constant": true,
      "inputs": [
        {
          "name": "tokenName",
          "type": "bytes8"
        }
      ],
      "name": "getTokenDetails",
      "outputs": [
        {
          "name": "token",
          "type": "address"
        },
        {
          "name": "precision",
          "type": "uint256"
        }
      ],
      "payable": false,
      "stateMutability": "view",
      "type": "function"
    },
    {
      "constant": false,
      "inputs": [
        {
          "name": "_dataManager",
          "type": "address"
        },
        {
          "name": "_blockchainActionId",
          "type": "bytes32"
        },
        {
          "name": "pptAddress",
          "type": "address"
        },
        {
          "name": "accountId",
          "type": "bytes32"
        },
        {
          "name": "to",
          "type": "address"
        },
        {
          "name": "amount",
          "type": "uint256"
        },
        {
          "name": "inCollateral",
          "type": "uint256"
        },
        {
          "name": "pptFee",
          "type": "uint256"
        },
        {
          "name": "adminExternalWallet",
          "type": "address"
        }
      ],
      "name": "withdrawERC20",
      "outputs": [],
      "payable": false,
      "stateMutability": "nonpayable",
      "type": "function"
    },
    {
      "constant": false,
      "inputs": [
        {
          "name": "_dataManager",
          "type": "address"
        },
        {
          "name": "_blockchainActionId",
          "type": "bytes32"
        },
        {
          "name": "erc20_tokenAddress",
          "type": "address"
        },
        {
          "name": "erc20_amount",
          "type": "uint256"
        },
        {
          "name": "xaup_amount",
          "type": "uint256"
        },
        {
          "name": "_tokenId",
          "type": "uint256"
        },
        {
          "name": "_clientId",
          "type": "bytes32"
        },
        {
          "name": "adminExternalWallet",
          "type": "address"
        }
      ],
      "name": "exchangeXAUP",
      "outputs": [],
      "payable": false,
      "stateMutability": "nonpayable",
      "type": "function"
    },
    {
      "constant": true,
      "inputs": [
        {
          "name": "",
          "type": "bytes8"
        }
      ],
      "name": "tokenDetails",
      "outputs": [
        {
          "name": "_token",
          "type": "address"
        },
        {
          "name": "_precision",
          "type": "uint256"
        }
      ],
      "payable": false,
      "stateMutability": "view",
      "type": "function"
    },
    {
      "constant": false,
      "inputs": [
        {
          "name": "_dataManager",
          "type": "address"
        },
        {
          "name": "_blockchainActionId",
          "type": "bytes32"
        },
        {
          "name": "clientId",
          "type": "bytes32"
        }
      ],
      "name": "createAddress",
      "outputs": [],
      "payable": false,
      "stateMutability": "nonpayable",
      "type": "function"
    },
    {
      "constant": false,
      "inputs": [
        {
          "name": "_operator",
          "type": "address"
        },
        {
          "name": "_from",
          "type": "address"
        },
        {
          "name": "_id",
          "type": "uint256"
        },
        {
          "name": "_value",
          "type": "uint256"
        },
        {
          "name": "_data",
          "type": "bytes"
        }
      ],
      "name": "onERC1155Received",
      "outputs": [
        {
          "name": "",
          "type": "bytes4"
        }
      ],
      "payable": false,
      "stateMutability": "nonpayable",
      "type": "function"
    },
    {
      "constant": true,
      "inputs": [],
      "name": "AM",
      "outputs": [
        {
          "name": "",
          "type": "address"
        }
      ],
      "payable": false,
      "stateMutability": "view",
      "type": "function"
    },
    {
      "inputs": [
        {
          "name": "_accessManager",
          "type": "address"
        }
      ],
      "payable": false,
      "stateMutability": "nonpayable",
      "type": "constructor"
    },
    {
      "anonymous": false,
      "inputs": [
        {
          "indexed": false,
          "name": "_blockchainActionId",
          "type": "bytes32"
        },
        {
          "indexed": false,
          "name": "erc20_tokenAddress",
          "type": "address"
        },
        {
          "indexed": false,
          "name": "erc20_amount",
          "type": "uint256"
        },
        {
          "indexed": false,
          "name": "xaup_amount",
          "type": "uint256"
        },
        {
          "indexed": false,
          "name": "_tokenId",
          "type": "uint256"
        },
        {
          "indexed": false,
          "name": "_clientId",
          "type": "bytes32"
        },
        {
          "indexed": false,
          "name": "_from",
          "type": "address"
        }
      ],
      "name": "EventExchangeXAUp",
      "type": "event"
    },
    {
      "anonymous": false,
      "inputs": [
        {
          "indexed": false,
          "name": "blockchainActionId",
          "type": "bytes32"
        },
        {
          "indexed": false,
          "name": "oldDepositContract",
          "type": "address"
        },
        {
          "indexed": false,
          "name": "newDepositContract",
          "type": "address"
        },
        {
          "indexed": false,
          "name": "clientId",
          "type": "bytes32"
        },
        {
          "indexed": false,
          "name": "version",
          "type": "uint256"
        }
      ],
      "name": "EventDepositAddressUpgrade",
      "type": "event"
    },
    {
      "anonymous": false,
      "inputs": [
        {
          "indexed": false,
          "name": "blockchainActionId",
          "type": "bytes32"
        },
        {
          "indexed": false,
          "name": "accountId",
          "type": "bytes32"
        },
        {
          "indexed": false,
          "name": "depositContract",
          "type": "address"
        },
        {
          "indexed": false,
          "name": "to",
          "type": "address"
        },
        {
          "indexed": false,
          "name": "amount",
          "type": "uint256"
        }
      ],
      "name": "EventWithdrawPPT",
      "type": "event"
    },
    {
      "anonymous": false,
      "inputs": [
        {
          "indexed": false,
          "name": "_blockchainActionId",
          "type": "bytes32"
        },
        {
          "indexed": false,
          "name": "accountId",
          "type": "bytes32"
        },
        {
          "indexed": false,
          "name": "currency",
          "type": "bytes32"
        },
        {
          "indexed": false,
          "name": "amount",
          "type": "uint256"
        }
      ],
      "name": "EventWithdrawPoken",
      "type": "event"
    },
    {
      "anonymous": false,
      "inputs": [
        {
          "indexed": false,
          "name": "blockchainActionId",
          "type": "bytes32"
        },
        {
          "indexed": false,
          "name": "clientId",
          "type": "bytes32"
        },
        {
          "indexed": false,
          "name": "depositContractAddress",
          "type": "address"
        },
        {
          "indexed": false,
          "name": "version",
          "type": "uint256"
        }
      ],
      "name": "EventNewDepositContract",
      "type": "event"
    }
  ],
  "bytecode": "0x6060604052341561000f57600080fd5b6040516020806133108339810160405280805160008054600160a060020a03909216600160a060020a031990921691909117905550506132bc806100546000396000f300606060405236156100935763ffffffff60e060020a60003504166302ab72c48114610098578063150b7a02146100b957806315e9a2aa1461015a57806319041ee21461019d5780633c9c912e146101e85780633da4138c1461022a5780635904243e14610270578063878f666b146102af578063a78caf19146102cf578063f23a6e61146102f4578063f7f01b4b14610365575b600080fd5b34156100a357600080fd5b6100b7600160a060020a0360043516610394565b005b34156100c457600080fd5b610125600160a060020a036004803582169160248035909116916044359160849060643590810190830135806020601f8201819004810201604051908101604052818152929190602084018383808284375094965061044795505050505050565b6040517fffffffff00000000000000000000000000000000000000000000000000000000909116815260200160405180910390f35b341561016557600080fd5b610189600160c060020a031960043516600160a060020a0360243516604435610470565b604051901515815260200160405180910390f35b34156101a857600080fd5b6100b7600160a060020a0360043581169060243590604435906064359060843581169060a43581169060c4359060e4359061010435906101243516610553565b34156101f357600080fd5b610208600160c060020a031960043516610f3d565b604051600160a060020a03909216825260208201526040908101905180910390f35b341561023557600080fd5b6100b7600160a060020a03600435811690602435906044358116906064359060843581169060a4359060c4359060e435906101043516610f6b565b341561027b57600080fd5b6100b7600160a060020a0360043581169060243590604435811690606435906084359060a4359060c4359060e4351661152e565b34156102ba57600080fd5b610208600160c060020a031960043516611a55565b34156102da57600080fd5b6100b7600160a060020a0360043516602435604435611a7a565b34156102ff57600080fd5b610125600160a060020a0360048035821691602480359091169160443591606435919060a49060843590810190830135806020601f820181900481020160405190810160405281815292919060208401838380828437509496506124db95505050505050565b341561037057600080fd5b610378612505565b604051600160a060020a03909116815260200160405180910390f35b60008054600160a060020a03169063fda089589033906040516020015260405160e060020a63ffffffff8416028152600160a060020a039091166004820152602401602060405180830381600087803b15156103ef57600080fd5b6102c65a03f1151561040057600080fd5b50505060405180511515600114905061041857600080fd5b6000805473ffffffffffffffffffffffffffffffffffffffff1916600160a060020a0392909216919091179055565b7f150b7a0200000000000000000000000000000000000000000000000000000000949350505050565b60008054600160a060020a031663fda0895833836040516020015260405160e060020a63ffffffff8416028152600160a060020a039091166004820152602401602060405180830381600087803b15156104c957600080fd5b6102c65a03f115156104da57600080fd5b5050506040518051151560011490506104f257600080fd5b600160c060020a031984166000908152600160208190526040909120805473ffffffffffffffffffffffffffffffffffffffff1916600160a060020a03868116919091178083559190920184905516151561054957fe5b5060019392505050565b60008054600160a060020a031663fda0895833836040516020015260405160e060020a63ffffffff8416028152600160a060020a039091166004820152602401602060405180830381600087803b15156105ac57600080fd5b6102c65a03f115156105bd57600080fd5b5050506040518051151560011490506105d557600080fd5b600160a060020a038b1615156105ea57600080fd5b8a600160a060020a031663bea0897c8b60006040516020015260405160e060020a63ffffffff84160281526004810191909152602401602060405180830381600087803b151561063957600080fd5b6102c65a03f1151561064a57600080fd5b505050604051805115905080156106d257508a600160a060020a0316632a01a4518660006040516020015260405160e060020a63ffffffff84160281526004810191909152602401602060405180830381600087803b15156106ab57600080fd5b6102c65a03f115156106bc57600080fd5b5050506040518051600160a060020a0316151590505b15156106dd57600080fd5b600160a060020a038216158015906106f55750600083115b80156107015750600088115b151561070c57600080fd5b8a600160a060020a031663d383b80d8a60006040516020015260405160e060020a63ffffffff84160281526004810191909152602401602060405180830381600087803b151561075b57600080fd5b6102c65a03f1151561076c57600080fd5b5050506040518051600160a060020a03161515905061078a57600080fd5b8a600160a060020a0316632a01a4518660006040516020015260405160e060020a63ffffffff84160281526004810191909152602401602060405180830381600087803b15156107d957600080fd5b6102c65a03f115156107ea57600080fd5b50505060405180517a505054000000000000000000000000000000000000000000000000600090815260016020527f2c6379ca2c83a957e0e33b79bf5f499e3437bdc022951391661524f3e473ebfd549193508592506108c091600160a060020a03808616926370a0823192909116906040516020015260405160e060020a63ffffffff8416028152600160a060020a039091166004820152602401602060405180830381600087803b151561089f57600080fd5b6102c65a03f115156108b057600080fd5b5050506040518051905086612514565b10156108cb57600080fd5b7a505054000000000000000000000000000000000000000000000000600090815260016020527f2c6379ca2c83a957e0e33b79bf5f499e3437bdc022951391661524f3e473ebfd54600160a060020a038084169263beabacc89290911690859087906040516020015260405160e060020a63ffffffff8616028152600160a060020a0393841660048201529190921660248201526044810191909152606401602060405180830381600087803b151561098357600080fd5b6102c65a03f1151561099457600080fd5b5050506040518051151560011490506109ac57600080fd5b8a600160a060020a031663d383b80d8a60006040516020015260405160e060020a63ffffffff84160281526004810191909152602401602060405180830381600087803b15156109fb57600080fd5b6102c65a03f11515610a0c57600080fd5b50505060405180519050600160a060020a03166370a082318860006040516020015260405160e060020a63ffffffff8416028152600160a060020a039091166004820152602401602060405180830381600087803b1515610a6c57600080fd5b6102c65a03f11515610a7d57600080fd5b50505060405180519050881115610c5d578a600160a060020a031663d383b80d8a60006040516020015260405160e060020a63ffffffff84160281526004810191909152602401602060405180830381600087803b1515610add57600080fd5b6102c65a03f11515610aee57600080fd5b50505060405180519050600160a060020a0316630156b3238c600160a060020a031663d383b80d8c60006040516020015260405160e060020a63ffffffff84160281526004810191909152602401602060405180830381600087803b1515610b5557600080fd5b6102c65a03f11515610b6657600080fd5b50505060405180519050600160a060020a03166370a082318a60006040516020015260405160e060020a63ffffffff8416028152600160a060020a039091166004820152602401602060405180830381600087803b1515610bc657600080fd5b6102c65a03f11515610bd757600080fd5b505050604051805190508960006040516020015260405160e060020a63ffffffff85160281526004810192909252600160a060020a03166024820152604401602060405180830381600087803b1515610c2f57600080fd5b6102c65a03f11515610c4057600080fd5b505050604051805115156001149050610c5857600080fd5b610d4d565b8a600160a060020a031663d383b80d8a60006040516020015260405160e060020a63ffffffff84160281526004810191909152602401602060405180830381600087803b1515610cac57600080fd5b6102c65a03f11515610cbd57600080fd5b50505060405180519050600160a060020a0316630156b323898960006040516020015260405160e060020a63ffffffff85160281526004810192909252600160a060020a03166024820152604401602060405180830381600087803b1515610d2457600080fd5b6102c65a03f11515610d3557600080fd5b505050604051805115156001149050610d4d57600080fd5b8a600160a060020a031663d383b80d8a60006040516020015260405160e060020a63ffffffff84160281526004810191909152602401602060405180830381600087803b1515610d9c57600080fd5b6102c65a03f11515610dad57600080fd5b50505060405180519050600160a060020a03166323b872dd33888b60006040516020015260405160e060020a63ffffffff8616028152600160a060020a0393841660048201529190921660248201526044810191909152606401602060405180830381600087803b1515610e2057600080fd5b6102c65a03f11515610e3157600080fd5b50505060405180515050600160a060020a038b166392c4b8678b8b8b898b8960006040516020015260405160e060020a63ffffffff89160281526004810196909652602486019490945260448501929092526064840152600160a060020a0316608483015260a482015260c401602060405180830381600087803b1515610eb757600080fd5b6102c65a03f11515610ec857600080fd5b505050604051805115156001149050610ee057600080fd5b7f7ad4d17a5e7c561e98e5c4a65c9108011dda4b022882de21c25c530df0054a6c8a868b8b604051938452602084019290925260408084019190915260608301919091526080909101905180910390a15050505050505050505050565b600160c060020a03191660009081526001602081905260409091208054910154600160a060020a0390911691565b6000805481908190600160a060020a031663fda0895833836040516020015260405160e060020a63ffffffff8416028152600160a060020a039091166004820152602401602060405180830381600087803b1515610fc857600080fd5b6102c65a03f11515610fd957600080fd5b505050604051805115156001149050610ff157600080fd5b600160a060020a038c16151561100657600080fd5b8b600160a060020a031663bea0897c8c60006040516020015260405160e060020a63ffffffff84160281526004810191909152602401602060405180830381600087803b151561105557600080fd5b6102c65a03f1151561106657600080fd5b505050604051805115905080156110ee57508b600160a060020a0316632a01a4518a60006040516020015260405160e060020a63ffffffff84160281526004810191909152602401602060405180830381600087803b15156110c757600080fd5b6102c65a03f115156110d857600080fd5b5050506040518051600160a060020a0316151590505b15156110f957600080fd5b600160a060020a038416158015906111115750600085115b801561111d5750600087115b151561112857600080fd5b8b600160a060020a0316632a01a4518a60006040516020015260405160e060020a63ffffffff84160281526004810191909152602401602060405180830381600087803b151561117757600080fd5b6102c65a03f1151561118857600080fd5b50505060405180519050925061120f83600160a060020a03166370a082318c60006040516020015260405160e060020a63ffffffff8416028152600160a060020a039091166004820152602401602060405180830381600087803b15156111ee57600080fd5b6102c65a03f115156111ff57600080fd5b5050506040518051905087612514565b915061121b8786612526565b82101561122757600080fd5b82600160a060020a031663beabacc88b8a8a60006040516020015260405160e060020a63ffffffff8616028152600160a060020a0393841660048201529190921660248201526044810191909152606401602060405180830381600087803b151561129157600080fd5b6102c65a03f115156112a257600080fd5b5050506040518051151560011490506112ba57600080fd5b82600160a060020a031663beabacc88b868860006040516020015260405160e060020a63ffffffff8616028152600160a060020a0393841660048201529190921660248201526044810191909152606401602060405180830381600087803b151561132457600080fd5b6102c65a03f1151561133557600080fd5b50505060405180511515600114905061134d57600080fd5b89600160a060020a03166395d89b416000604051602001526040518163ffffffff1660e060020a028152600401602060405180830381600087803b151561139357600080fd5b6102c65a03f115156113a457600080fd5b5050506040518051915050600160a060020a038c166392c4b8678c838a8d8d8b60006040516020015260405160e060020a63ffffffff89160281526004810196909652602486019490945260448501929092526064840152600160a060020a0316608483015260a482015260c401602060405180830381600087803b151561142b57600080fd5b6102c65a03f1151561143c57600080fd5b50505060405180511515600114905061145457600080fd5b7fb34e83f654f4c047e331cea47cc1783dd0511abde3cac240a47bfbdefd6812e88b8a8e600160a060020a0316632a01a4518d60006040516020015260405160e060020a63ffffffff84160281526004810191909152602401602060405180830381600087803b15156114c657600080fd5b6102c65a03f115156114d757600080fd5b505050604051805190508b8b6040519485526020850193909352600160a060020a0391821660408086019190915291166060840152608083019190915260a0909101905180910390a1505050505050505050505050565b6000805481908190600160a060020a031663fda0895833836040516020015260405160e060020a63ffffffff8416028152600160a060020a039091166004820152602401602060405180830381600087803b151561158b57600080fd5b6102c65a03f1151561159c57600080fd5b5050506040518051151560011490506115b457600080fd5b7a584155000000000000000000000000000000000000000000000000600090815260016020527f5b61a34fc175c19d1a4e74ce629a51a3a9a6de769c03f11be4bb3c488642d88a548c9450600160a060020a039081169350841690632a01a4519087906040516020015260405160e060020a63ffffffff84160281526004810191909152602401602060405180830381600087803b151561165457600080fd5b6102c65a03f1151561166557600080fd5b5050506040518051915050600160a060020a038b16158015906116905750600160a060020a03811615155b80156116a45750600160a060020a03891615155b8015611717575082600160a060020a031663bea0897c8b60006040516020015260405160e060020a63ffffffff84160281526004810191909152602401602060405180830381600087803b15156116fa57600080fd5b6102c65a03f1151561170b57600080fd5b50505060405180511590505b80156117845750600281600160a060020a0316630d8e6e2c6000604051602001526040518163ffffffff1660e060020a028152600401602060405180830381600087803b151561176657600080fd5b6102c65a03f1151561177757600080fd5b5050506040518051905010155b801561180857508682600160a060020a0316633656eec2883360006040516020015260405160e060020a63ffffffff85160281526004810192909252600160a060020a03166024820152604401602060405180830381600087803b15156117ea57600080fd5b6102c65a03f115156117fb57600080fd5b5050506040518051905010155b151561181357600080fd5b80600160a060020a031663beabacc88a868b60006040516020015260405160e060020a63ffffffff8616028152600160a060020a0393841660048201529190921660248201526044810191909152606401602060405180830381600087803b151561187d57600080fd5b6102c65a03f1151561188e57600080fd5b5050506040518051151560011490506118a657600080fd5b81600160a060020a031663f242432a3383898b60405160e060020a63ffffffff8716028152600160a060020a0394851660048201529290931660248301526044820152606481019190915260a06084820152600060a4820181905260e49091019060405180830381600087803b151561191e57600080fd5b6102c65a03f1151561192f57600080fd5b50505082600160a060020a03166392c4b8678b60008b89866000806040516020015260405160e060020a63ffffffff89160281526004810196909652602486019490945260448501929092526064840152600160a060020a0316608483015260a482015260c401602060405180830381600087803b15156119af57600080fd5b6102c65a03f115156119c057600080fd5b5050506040518051151560011490506119d857600080fd5b7f3a0f94ac6dfce4f3ae7bdb44dc7ca27dfc76d4747283fbbea8cc33c59cc35afe8a8a8a8a8a8a87604051968752600160a060020a0395861660208801526040808801959095526060870193909352608086019190915260a085015290911660c083015260e0909101905180910390a15050505050505050505050565b60016020819052600091825260409091208054910154600160a060020a039091169082565b600080548190819081908190600160a060020a031663fda0895833836040516020015260405160e060020a63ffffffff8416028152600160a060020a039091166004820152602401602060405180830381600087803b1515611adb57600080fd5b6102c65a03f11515611aec57600080fd5b505050604051805115156001149050611b0457600080fd5b600160a060020a0388161515611b1957600080fd5b87945084600160a060020a0316632a01a4518760006040516020015260405160e060020a63ffffffff84160281526004810191909152602401602060405180830381600087803b1515611b6b57600080fd5b6102c65a03f11515611b7c57600080fd5b5050506040518051600160a060020a03161590506121d75784600160a060020a0316632a01a4518760006040516020015260405160e060020a63ffffffff84160281526004810191909152602401602060405180830381600087803b1515611be357600080fd5b6102c65a03f11515611bf457600080fd5b5050506040518051600054909450879150600160a060020a0316611c1661254a565b918252600160a060020a0316602082015260409081019051809103906000f0801515611c4157600080fd5b935082600160a060020a03166040517f67657456657273696f6e282900000000000000000000000000000000000000008152600c01604051809103902060e060020a90046040518163ffffffff1660e060020a02815260040160006040518083038160008761646e5a03f1159250611cbb91505057600080fd5b505060016020527fc1ee47c52a7b34bb9e05588a03eb18c9c810d5a67689e63a421233cda146257f547a50505400000000000000000000000000000000000000000000000060009081527f2c6379ca2c83a957e0e33b79bf5f499e3437bdc022951391661524f3e473ebfd54600160a060020a0392831692908116919084166370a0823184836040516020015260405160e060020a63ffffffff8416028152600160a060020a039091166004820152602401602060405180830381600087803b1515611d8657600080fd5b6102c65a03f11515611d9757600080fd5b505050604051805190501115611ea257600160a060020a03831663beabacc88386836370a082318360006040516020015260405160e060020a63ffffffff8416028152600160a060020a039091166004820152602401602060405180830381600087803b1515611e0657600080fd5b6102c65a03f11515611e1757600080fd5b5050506040518051905060006040516020015260405160e060020a63ffffffff8616028152600160a060020a0393841660048201529190921660248201526044810191909152606401602060405180830381600087803b1515611e7957600080fd5b6102c65a03f11515611e8a57600080fd5b505050604051805115156001149050611ea257600080fd5b600083600160a060020a03166370a082318360006040516020015260405160e060020a63ffffffff8416028152600160a060020a039091166004820152602401602060405180830381600087803b1515611efb57600080fd5b6102c65a03f11515611f0c57600080fd5b50505060405180519050111561201757600160a060020a03831663beabacc88286836370a082318360006040516020015260405160e060020a63ffffffff8416028152600160a060020a039091166004820152602401602060405180830381600087803b1515611f7b57600080fd5b6102c65a03f11515611f8c57600080fd5b5050506040518051905060006040516020015260405160e060020a63ffffffff8616028152600160a060020a0393841660048201529190921660248201526044810191909152606401602060405180830381600087803b1515611fee57600080fd5b6102c65a03f11515611fff57600080fd5b50505060405180511515600114905061201757600080fd5b84600160a060020a031663c9939d0e88888760006040516020015260405160e060020a63ffffffff861602815260048101939093526024830191909152600160a060020a03166044820152606401602060405180830381600087803b151561207e57600080fd5b6102c65a03f1151561208f57600080fd5b5050506040518051151560011490506120a757600080fd5b7f0456067687d27fcf6d3db141acb08cedd0fa786fdc7d672a7ed802514669b2e0878487600160a060020a0316632a01a4518a60006040516020015260405160e060020a63ffffffff84160281526004810191909152602401602060405180830381600087803b151561211957600080fd5b6102c65a03f1151561212a57600080fd5b505050604051805190508988600160a060020a0316630d8e6e2c6000604051602001526040518163ffffffff1660e060020a028152600401602060405180830381600087803b151561217b57600080fd5b6102c65a03f1151561218c57600080fd5b50505060405180519050604051948552600160a060020a039384166020860152919092166040808501919091526060840192909252608083015260a0909101905180910390a16124d1565b6000548690600160a060020a03166121ed61254a565b918252600160a060020a0316602082015260409081019051809103906000f080151561221857600080fd5b935084600160a060020a0316630e8ba16788868960006040516020015260405160e060020a63ffffffff86160281526004810193909352600160a060020a0390911660248301526044820152606401602060405180830381600087803b151561228057600080fd5b6102c65a03f1151561229157600080fd5b5050506040518051151560011490506122a957600080fd5b600160a060020a0385166392c4b867886000808a85632a01a45182846040516020015260405160e060020a63ffffffff84160281526004810191909152602401602060405180830381600087803b151561230257600080fd5b6102c65a03f1151561231357600080fd5b505050604051805190506000806040516020015260405160e060020a63ffffffff89160281526004810196909652602486019490945260448501929092526064840152600160a060020a0316608483015260a482015260c401602060405180830381600087803b151561238557600080fd5b6102c65a03f1151561239657600080fd5b5050506040518051151560011490506123ae57600080fd5b7f0fb3e865b3e3996382296fd8ddd17b0bb8ae5d9866b08a51945a2e58cac30730878787600160a060020a0316632a01a4518a60006040516020015260405160e060020a63ffffffff84160281526004810191909152602401602060405180830381600087803b151561242057600080fd5b6102c65a03f1151561243157600080fd5b5050506040518051905087600160a060020a0316630d8e6e2c6000604051602001526040518163ffffffff1660e060020a028152600401602060405180830381600087803b151561248157600080fd5b6102c65a03f1151561249257600080fd5b505050604051805190506040519384526020840192909252600160a060020a031660408084019190915260608301919091526080909101905180910390a15b5050505050505050565b7ff23a6e610000000000000000000000000000000000000000000000000000000095945050505050565b600054600160a060020a031681565b60008282111561252057fe5b50900390565b600082820183811080159061253b5750828110155b151561254357fe5b9392505050565b604051610d368061255b833901905600606060405260028055341561001357600080fd5b604051604080610d36833981016040528080519190602001805160008054600160a060020a03909216600160a060020a03199092169190911790555050600155610cd4806100626000396000f300606060405236156100bf5763ffffffff60e060020a60003504166302ab72c481146100c457806305b1137b146100e55780630a7e880c1461011b5780630d8e6e2c14610146578063150b7a021461016b5780631aca63761461020c578063418ae26914610234578063468f262214610256578063527fe4131461027557806354fd4d50146102885780636bb3471a1461029b57806370a08231146102ae578063beabacc8146102cd578063f23a6e61146102f5578063f7f01b4b14610366575b600080fd5b34156100cf57600080fd5b6100e3600160a060020a0360043516610395565b005b34156100f057600080fd5b610107600160a060020a0360043516602435610448565b604051901515815260200160405180910390f35b341561012657600080fd5b610107600160a060020a03600435811690602435166044356064356105e8565b341561015157600080fd5b61015961077b565b60405190815260200160405180910390f35b341561017657600080fd5b6101d7600160a060020a036004803582169160248035909116916044359160849060643590810190830135806020601f8201819004810201604051908101604052818152929190602084018383808284375094965061078195505050505050565b6040517fffffffff00000000000000000000000000000000000000000000000000000000909116815260200160405180910390f35b341561021757600080fd5b610107600160a060020a03600435811690602435166044356107aa565b341561023f57600080fd5b610159600160a060020a0360043516602435610940565b341561026157600080fd5b610159600160a060020a03600435166109c1565b341561028057600080fd5b610159610a3c565b341561029357600080fd5b610159610a42565b34156102a657600080fd5b610159610a48565b34156102b957600080fd5b610159600160a060020a0360043516610a4e565b34156102d857600080fd5b610107600160a060020a0360043581169060243516604435610aea565b341561030057600080fd5b6101d7600160a060020a0360048035821691602480359091169160443591606435919060a49060843590810190830135806020601f82018190048102016040519081016040528181529291906020840183838082843750949650610c6f95505050505050565b341561037157600080fd5b610379610c99565b604051600160a060020a03909116815260200160405180910390f35b60008054600160a060020a03169063fda089589033906040516020015260405160e060020a63ffffffff8416028152600160a060020a039091166004820152602401602060405180830381600087803b15156103f057600080fd5b6102c65a03f1151561040157600080fd5b50505060405180511515600114905061041957600080fd5b6000805473ffffffffffffffffffffffffffffffffffffffff1916600160a060020a0392909216919091179055565b60008054600160a060020a031663fda0895833836040516020015260405160e060020a63ffffffff8416028152600160a060020a039091166004820152602401602060405180830381600087803b15156104a157600080fd5b6102c65a03f115156104b257600080fd5b50505060405180511515600114905080610543575060008054600160a060020a0316906305fd22d09033906040516020015260405160e060020a63ffffffff8416028152600160a060020a039091166004820152602401602060405180830381600087803b151561052257600080fd5b6102c65a03f1151561053357600080fd5b5050506040518051151560011490505b151561054e57600080fd5b600160a060020a033016318290101561056657600080fd5b600160a060020a03831682156108fc0283604051600060405180830381858888f11515600114935061059b9250505057600080fd5b7f1853ca9dc0208799379313b2b43364e45db022f073c72648fbc206dc0bacbcdc8383604051600160a060020a03909216825260208201526040908101905180910390a150600192915050565b60008054600160a060020a031663fda0895833836040516020015260405160e060020a63ffffffff8416028152600160a060020a039091166004820152602401602060405180830381600087803b151561064157600080fd5b6102c65a03f1151561065257600080fd5b505050604051805115156001149050806106e3575060008054600160a060020a0316906305fd22d09033906040516020015260405160e060020a63ffffffff8416028152600160a060020a039091166004820152602401602060405180830381600087803b15156106c257600080fd5b6102c65a03f115156106d357600080fd5b5050506040518051151560011490505b15156106ee57600080fd5b84600160a060020a031663ae28b68c85858560405160e060020a63ffffffff8616028152600160a060020a039093166004840152602483019190915260448201526080606482015260006084820181905260c49091019060405180830381600087803b151561075c57600080fd5b6102c65a03f1151561076d57600080fd5b506001979650505050505050565b60025490565b7f150b7a0200000000000000000000000000000000000000000000000000000000949350505050565b60008054600160a060020a031663fda0895833836040516020015260405160e060020a63ffffffff8416028152600160a060020a039091166004820152602401602060405180830381600087803b151561080357600080fd5b6102c65a03f1151561081457600080fd5b505050604051805115156001149050806108a5575060008054600160a060020a0316906305fd22d09033906040516020015260405160e060020a63ffffffff8416028152600160a060020a039091166004820152602401602060405180830381600087803b151561088457600080fd5b6102c65a03f1151561089557600080fd5b5050506040518051151560011490505b15156108b057600080fd5b83600160a060020a031663b88d4fde30858560405160e060020a63ffffffff8616028152600160a060020a03938416600482015291909216602482015260448101919091526080606482015260006084820181905260c49091019060405180830381600087803b151561092257600080fd5b6102c65a03f1151561093357600080fd5b5060019695505050505050565b600082600160a060020a0316633656eec2833060006040516020015260405160e060020a63ffffffff85160281526004810192909252600160a060020a03166024820152604401602060405180830381600087803b15156109a057600080fd5b6102c65a03f115156109b157600080fd5b5050506040518051949350505050565b600081600160a060020a03166370a082313060006040516020015260405160e060020a63ffffffff8416028152600160a060020a039091166004820152602401602060405180830381600087803b1515610a1a57600080fd5b6102c65a03f11515610a2b57600080fd5b50505060405180519150505b919050565b60015490565b60025481565b60015481565b6000600160a060020a0382161515610a715750600160a060020a03301631610a37565b81600160a060020a03166370a082313060006040516020015260405160e060020a63ffffffff8416028152600160a060020a039091166004820152602401602060405180830381600087803b1515610ac857600080fd5b6102c65a03f11515610ad957600080fd5b505050604051805190509050610a37565b60008054600160a060020a031663fda0895833836040516020015260405160e060020a63ffffffff8416028152600160a060020a039091166004820152602401602060405180830381600087803b1515610b4357600080fd5b6102c65a03f11515610b5457600080fd5b50505060405180511515600114905080610be5575060008054600160a060020a0316906305fd22d09033906040516020015260405160e060020a63ffffffff8416028152600160a060020a039091166004820152602401602060405180830381600087803b1515610bc457600080fd5b6102c65a03f11515610bd557600080fd5b5050506040518051151560011490505b1515610bf057600080fd5b83600160a060020a031663a9059cbb848460006040516020015260405160e060020a63ffffffff8516028152600160a060020a0390921660048301526024820152604401602060405180830381600087803b1515610c4d57600080fd5b6102c65a03f11515610c5e57600080fd5b505050604051805195945050505050565b7ff23a6e610000000000000000000000000000000000000000000000000000000095945050505050565b600054600160a060020a0316815600a165627a7a72305820699083e75a443648c131832683bf631e93c5daaabde2d5e663159a8a63a07e3d0029a165627a7a72305820e293aa29fb3cd71b52bd1150d00ceace82047b13d9216fd58a578a88f32955c10029",
  "source": "pragma solidity ^0.4.17;\n/**\nThis is the core module of the system. Currently it holds the code of\nthe Bank and crowdsale modules to avoid external calls and higher gas costs.\nIt might be a good idea in the future to split the code, separate Bank\nand crowdsale modules into external files and have the core interact with them\nwith addresses and interfaces. \n*/\nimport \"./iERC20Token.sol\";\nimport \"./CurrencyToken.sol\";\nimport \"./DepositContract.sol\";\nimport \"./SafeMath.sol\";\nimport \"./DataManager.sol\";\nimport \"./ERC1155.sol\";\nimport \"./withAccessManager.sol\";\n\n/// @title Populous contract\ncontract Populous is withAccessManager {\n    // EVENTS\n    // Bank events\n    event EventExchangeXAUp (bytes32 _blockchainActionId, address erc20_tokenAddress, uint256 erc20_amount, uint256 xaup_amount, uint256 _tokenId, bytes32 _clientId, address _from);\n    event EventDepositAddressUpgrade(bytes32 blockchainActionId, address oldDepositContract, address newDepositContract, bytes32 clientId, uint256 version);\n    event EventWithdrawPPT(bytes32 blockchainActionId, bytes32 accountId, address depositContract, address to, uint amount);\n    event EventWithdrawPoken(bytes32 _blockchainActionId, bytes32 accountId, bytes32 currency, uint amount);\n    event EventNewDepositContract(bytes32 blockchainActionId, bytes32 clientId, address depositContractAddress, uint256 version);\n    // FIELDS\n    struct tokens {   \n        address _token;\n        uint256 _precision;\n    }\n    mapping(bytes8 => tokens) public tokenDetails;\n\n    // NON-CONSTANT METHODS\n    // Constructor method called when contract instance is \n    // deployed with 'withAccessManager' modifier.\n    function Populous(address _accessManager) public withAccessManager(_accessManager) {\n\n    }\n    /**\n    BANK MODULE\n    */\n    // NON-CONSTANT METHODS\n    /// Ether to XAUP exchange between deposit contract and Populous.sol\n    function exchangeXAUP(\n        address _dataManager, bytes32 _blockchainActionId, \n        address erc20_tokenAddress, uint erc20_amount, uint xaup_amount, \n        uint _tokenId, bytes32 _clientId, address adminExternalWallet) \n        public \n        onlyServer\n    {    \n        DataManager dm = DataManager(_dataManager);\n        ERC1155 xa = ERC1155(tokenDetails[0x584155]._token);\n        // client deposit smart contract address\n        address _depositAddress = dm.getDepositAddress(_clientId);\n        require(\n            // check dataManager contract is valid\n            _dataManager != 0x0 &&\n            // check deposit address of client\n            _depositAddress != 0x0 && \n            // check xaup token address\n            // tokenDetails[0x584155]._token != 0x0 && \n            erc20_tokenAddress != 0x0 &&\n            // check action id is unused\n            dm.getActionStatus(_blockchainActionId) == false &&\n            // deposit contract version >= 2\n            DepositContract(_depositAddress).getVersion() >= 2 &&\n            // populous server xaup balance\n            xa.balanceOf(_tokenId, msg.sender) >= xaup_amount\n        );\n        // transfer erc20 token balance from clients deposit contract to server/admin\n        require(DepositContract(_depositAddress).transfer(erc20_tokenAddress, adminExternalWallet, erc20_amount) == true);\n        // transfer xaup tokens to clients deposit address from populous server allowance\n        xa.safeTransferFrom(msg.sender, _depositAddress, _tokenId, xaup_amount, \"\");\n        // set action status in dataManager\n        require(dm.setBlockchainActionData(_blockchainActionId, 0x0, erc20_amount, _clientId, _depositAddress, 0) == true);\n        // emit event \n        EventExchangeXAUp(_blockchainActionId, erc20_tokenAddress, erc20_amount, xaup_amount, _tokenId, _clientId, _depositAddress);\n    }\n\n    /// @notice Handle the receipt of an ERC1155 type\n    function onERC1155Received(address _operator, address _from, uint256 _id, uint256 _value, bytes _data) public returns(bytes4) {\n        return 0xf23a6e61;\n    }\n\n    /// @notice Handle the receipt of an ERC721 type\n    function onERC721Received(address _operator, address _from, uint256 _tokenId, bytes _data) public returns(bytes4) {\n        return 0x150b7a02; \n    }\n\n    // Creates a new 'depositAddress' gotten from deploying a deposit contract linked to a client ID\n    function createAddress(address _dataManager, bytes32 _blockchainActionId, bytes32 clientId) \n        public\n        onlyServer\n    {   \n        require(_dataManager != 0x0);\n        DataManager dm = DataManager(_dataManager);\n        DepositContract newDepositContract;\n        DepositContract dc;\n        if (dm.getDepositAddress(clientId) != 0x0) {\n            dc = DepositContract(dm.getDepositAddress(clientId));\n            newDepositContract = new DepositContract(clientId, AM);\n            require(!dc.call(bytes4(keccak256(\"getVersion()\"))));\n            //require(dc.getVersion() < 2);\n            address PXT = tokenDetails[0x505854]._token;\n            address PPT = tokenDetails[0x505054]._token;\n            if(dc.balanceOf(PXT) > 0){\n                require(dc.transfer(PXT, newDepositContract, dc.balanceOf(PXT)) == true);\n            }\n            if(dc.balanceOf(PPT) > 0) {\n                require(dc.transfer(PPT, newDepositContract, dc.balanceOf(PPT)) == true);\n            }\n            require(dm._setDepositAddress(_blockchainActionId, clientId, newDepositContract) == true);\n            EventDepositAddressUpgrade(_blockchainActionId, address(dc), dm.getDepositAddress(clientId), clientId, newDepositContract.getVersion());\n        } else { \n            newDepositContract = new DepositContract(clientId, AM);\n            require(dm.setDepositAddress(_blockchainActionId, newDepositContract, clientId) == true);\n            require(dm.setBlockchainActionData(_blockchainActionId, 0x0, 0, clientId, dm.getDepositAddress(clientId), 0) == true);\n            EventNewDepositContract(_blockchainActionId, clientId, dm.getDepositAddress(clientId), newDepositContract.getVersion());\n        }\n    }\n\n    /** dev Import an amount of pokens of a particular currency from an ethereum wallet/address to bank\n      * param _blockchainActionId the blockchain action id\n      * param accountId the account id of the client\n      * param from the blockchain address to import pokens from\n      * param currency the poken currency\n      */\n    function withdrawPoken(\n        address _dataManager, bytes32 _blockchainActionId, \n        bytes32 currency, uint256 amount,\n        address from, address to, bytes32 accountId, \n        uint256 inCollateral,\n        uint256 pptFee, address adminExternalWallet) \n        public \n        onlyServer \n    {\n        require(_dataManager != 0x0);\n        //DataManager dm = DataManager(_dataManager);\n        require(DataManager(_dataManager).getActionStatus(_blockchainActionId) == false && DataManager(_dataManager).getDepositAddress(accountId) != 0x0);\n        require(adminExternalWallet != 0x0 && pptFee > 0 && amount > 0);\n        require(DataManager(_dataManager).getCurrency(currency) != 0x0);\n        DepositContract o = DepositContract(DataManager(_dataManager).getDepositAddress(accountId));\n        // check if pptbalance minus collateral held is more than pptFee then transfer pptFee from users ppt deposit to adminWallet\n        require(SafeMath.safeSub(o.balanceOf(tokenDetails[0x505054]._token), inCollateral) >= pptFee);\n        require(o.transfer(tokenDetails[0x505054]._token, adminExternalWallet, pptFee) == true);\n        // WITHDRAW PART / DEBIT\n        if(amount > CurrencyToken(DataManager(_dataManager).getCurrency(currency)).balanceOf(from)) {\n                // destroying total balance\n            require(CurrencyToken(DataManager(_dataManager).getCurrency(currency)).destroyTokensFrom(CurrencyToken(DataManager(_dataManager).getCurrency(currency)).balanceOf(from), from) == true);\n            //remaining ledger balance. deposit address is 0\n        } else {\n                // destroy amount from balance\n            require(CurrencyToken(DataManager(_dataManager).getCurrency(currency)).destroyTokensFrom(amount, from) == true);\n            //left over deposit address balance.\n        }\n        // TRANSFER PART / CREDIT\n        // approve currency amount for populous for the next require to pass\n        CurrencyToken(DataManager(_dataManager).getCurrency(currency)).transferFrom(msg.sender, to, amount);\n        require(DataManager(_dataManager).setBlockchainActionData(_blockchainActionId, currency, amount, accountId, to, pptFee) == true); \n        EventWithdrawPoken(_blockchainActionId, accountId, currency, amount);\n    }\n\n    /** @dev Withdraw an amount of PPT Populous tokens to a blockchain address \n      * @param _blockchainActionId the blockchain action id\n      * @param pptAddress the address of the PPT smart contract\n      * @param accountId the account id of the client\n      * @param pptFee the amount of fees to pay in PPT tokens\n      * @param adminExternalWallet the platform admin wallet address to pay the fees to \n      * @param to the blockchain address to withdraw and transfer the pokens to\n      * @param inCollateral the amount of pokens withheld by the platform\n      */    \n    function withdrawERC20(\n        address _dataManager, bytes32 _blockchainActionId, \n        address pptAddress, bytes32 accountId, \n        address to, uint256 amount, uint256 inCollateral, uint256 pptFee, address adminExternalWallet) \n        public \n        onlyServer \n    {   \n        require(_dataManager != 0x0);\n        //DataManager dm = DataManager(_dataManager);\n        require(DataManager(_dataManager).getActionStatus(_blockchainActionId) == false && DataManager(_dataManager).getDepositAddress(accountId) != 0x0);\n        require(adminExternalWallet != 0x0 && pptFee > 0 && amount > 0);\n        address depositContract = DataManager(_dataManager).getDepositAddress(accountId);\n        uint pptBalance = SafeMath.safeSub(DepositContract(depositContract).balanceOf(pptAddress), inCollateral);\n        require(pptBalance >= SafeMath.safeAdd(amount, pptFee));\n        require(DepositContract(depositContract).transfer(pptAddress, to, amount) == true);\n        require(DepositContract(depositContract).transfer(pptAddress, adminExternalWallet, pptFee) == true); \n        bytes32 tokenSymbol = iERC20Token(pptAddress).symbol();    \n        require(DataManager(_dataManager).setBlockchainActionData(_blockchainActionId, tokenSymbol, amount, accountId, to, pptFee) == true);\n        EventWithdrawPPT(_blockchainActionId, accountId, DataManager(_dataManager).getDepositAddress(accountId), to, amount);\n    }\n    \n    // Set/Update token address and precision\n    function setTokenDetails(bytes8 tokenName, address token, uint256 precision) \n        public \n        onlyServer \n        returns(bool success) \n    {\n        tokenDetails[tokenName]._token = token;\n        tokenDetails[tokenName]._precision = precision;\n        assert(tokenDetails[tokenName]._token != 0x0);\n        return true;\n    }\n\n    // CONSTANT METHODS\n    function getTokenDetails(bytes8 tokenName) public view returns (address token, uint256 precision) {\n        return (tokenDetails[tokenName]._token, tokenDetails[tokenName]._precision);\n    }\n}",
  "sourcePath": "/Users/najienka/Desktop/populous-smartcontracts/contracts/Populous.sol",
  "schemaVersion": "1.0.0",
  "updatedAt": "2018-11-16T12:59:11.299Z"
}