{
  "contractName": "Populous",
  "abi": [
    {
      "constant": false,
      "inputs": [
        {
          "name": "_accessManager",
          "type": "address"
        }
      ],
      "name": "updateAccessManager",
      "outputs": [],
      "payable": false,
      "stateMutability": "nonpayable",
      "type": "function"
    },
    {
      "constant": false,
      "inputs": [
        {
          "name": "_dataManager",
          "type": "address"
        },
        {
          "name": "_blockchainActionId",
          "type": "bytes32"
        },
        {
          "name": "_tokenName",
          "type": "bytes32"
        },
        {
          "name": "_decimalUnits",
          "type": "uint8"
        },
        {
          "name": "_tokenSymbol",
          "type": "bytes32"
        }
      ],
      "name": "createCurrency",
      "outputs": [],
      "payable": false,
      "stateMutability": "nonpayable",
      "type": "function"
    },
    {
      "constant": false,
      "inputs": [
        {
          "name": "_operator",
          "type": "address"
        },
        {
          "name": "_from",
          "type": "address"
        },
        {
          "name": "_tokenId",
          "type": "uint256"
        },
        {
          "name": "_data",
          "type": "bytes"
        }
      ],
      "name": "onERC721Received",
      "outputs": [
        {
          "name": "",
          "type": "bytes4"
        }
      ],
      "payable": false,
      "stateMutability": "nonpayable",
      "type": "function"
    },
    {
      "constant": true,
      "inputs": [],
      "name": "PXT",
      "outputs": [
        {
          "name": "",
          "type": "address"
        }
      ],
      "payable": false,
      "stateMutability": "view",
      "type": "function"
    },
    {
      "constant": false,
      "inputs": [
        {
          "name": "_dataManager",
          "type": "address"
        },
        {
          "name": "_blockchainActionId",
          "type": "bytes32"
        },
        {
          "name": "pptAddress",
          "type": "address"
        },
        {
          "name": "accountId",
          "type": "bytes32"
        },
        {
          "name": "to",
          "type": "address"
        },
        {
          "name": "amount",
          "type": "uint256"
        },
        {
          "name": "inCollateral",
          "type": "uint256"
        },
        {
          "name": "pptFee",
          "type": "uint256"
        },
        {
          "name": "adminExternalWallet",
          "type": "address"
        }
      ],
      "name": "withdrawERC20",
      "outputs": [],
      "payable": false,
      "stateMutability": "nonpayable",
      "type": "function"
    },
    {
      "constant": false,
      "inputs": [
        {
          "name": "_dataManager",
          "type": "address"
        },
        {
          "name": "_blockchainActionId",
          "type": "bytes32"
        },
        {
          "name": "_xaup",
          "type": "address"
        },
        {
          "name": "eth_amount",
          "type": "uint256"
        },
        {
          "name": "xaup_amount",
          "type": "uint256"
        },
        {
          "name": "_tokenId",
          "type": "uint256"
        },
        {
          "name": "_clientId",
          "type": "bytes32"
        },
        {
          "name": "adminExternalWallet",
          "type": "address"
        }
      ],
      "name": "exchangeXAUP",
      "outputs": [],
      "payable": false,
      "stateMutability": "nonpayable",
      "type": "function"
    },
    {
      "constant": true,
      "inputs": [],
      "name": "PPT",
      "outputs": [
        {
          "name": "",
          "type": "address"
        }
      ],
      "payable": false,
      "stateMutability": "view",
      "type": "function"
    },
    {
      "constant": false,
      "inputs": [
        {
          "name": "_dataManager",
          "type": "address"
        },
        {
          "name": "_blockchainActionId",
          "type": "bytes32"
        },
        {
          "name": "currency",
          "type": "bytes32"
        },
        {
          "name": "amount",
          "type": "uint256"
        },
        {
          "name": "from",
          "type": "address"
        },
        {
          "name": "to",
          "type": "address"
        },
        {
          "name": "accountId",
          "type": "bytes32"
        },
        {
          "name": "inCollateral",
          "type": "uint256"
        },
        {
          "name": "pptAddress",
          "type": "address"
        },
        {
          "name": "pptFee",
          "type": "uint256"
        },
        {
          "name": "adminExternalWallet",
          "type": "address"
        },
        {
          "name": "toBank",
          "type": "bool"
        }
      ],
      "name": "withdrawPoken",
      "outputs": [],
      "payable": false,
      "stateMutability": "nonpayable",
      "type": "function"
    },
    {
      "constant": false,
      "inputs": [
        {
          "name": "_dataManager",
          "type": "address"
        },
        {
          "name": "_blockchainActionId",
          "type": "bytes32"
        },
        {
          "name": "clientId",
          "type": "bytes32"
        }
      ],
      "name": "createAddress",
      "outputs": [],
      "payable": false,
      "stateMutability": "nonpayable",
      "type": "function"
    },
    {
      "constant": false,
      "inputs": [
        {
          "name": "_dataManager",
          "type": "address"
        },
        {
          "name": "_blockchainActionId",
          "type": "bytes32"
        },
        {
          "name": "_providerUserId",
          "type": "bytes32"
        },
        {
          "name": "_invoiceCountryCode",
          "type": "bytes2"
        },
        {
          "name": "_invoiceCompanyNumber",
          "type": "bytes32"
        },
        {
          "name": "_invoiceCompanyName",
          "type": "bytes32"
        },
        {
          "name": "_invoiceNumber",
          "type": "bytes32"
        }
      ],
      "name": "addInvoice",
      "outputs": [],
      "payable": false,
      "stateMutability": "nonpayable",
      "type": "function"
    },
    {
      "constant": false,
      "inputs": [
        {
          "name": "_dataManager",
          "type": "address"
        },
        {
          "name": "_blockchainActionId",
          "type": "bytes32"
        },
        {
          "name": "_userId",
          "type": "bytes32"
        },
        {
          "name": "_companyNumber",
          "type": "bytes32"
        },
        {
          "name": "_companyName",
          "type": "bytes32"
        },
        {
          "name": "_countryCode",
          "type": "bytes2"
        }
      ],
      "name": "addProvider",
      "outputs": [],
      "payable": false,
      "stateMutability": "nonpayable",
      "type": "function"
    },
    {
      "constant": false,
      "inputs": [
        {
          "name": "_operator",
          "type": "address"
        },
        {
          "name": "_from",
          "type": "address"
        },
        {
          "name": "_id",
          "type": "uint256"
        },
        {
          "name": "_value",
          "type": "uint256"
        },
        {
          "name": "_data",
          "type": "bytes"
        }
      ],
      "name": "onERC1155Received",
      "outputs": [
        {
          "name": "",
          "type": "bytes4"
        }
      ],
      "payable": false,
      "stateMutability": "nonpayable",
      "type": "function"
    },
    {
      "constant": true,
      "inputs": [],
      "name": "AM",
      "outputs": [
        {
          "name": "",
          "type": "address"
        }
      ],
      "payable": false,
      "stateMutability": "view",
      "type": "function"
    },
    {
      "inputs": [
        {
          "name": "_accessManager",
          "type": "address"
        }
      ],
      "payable": false,
      "stateMutability": "nonpayable",
      "type": "constructor"
    },
    {
      "anonymous": false,
      "inputs": [
        {
          "indexed": false,
          "name": "_blockchainActionId",
          "type": "bytes32"
        },
        {
          "indexed": false,
          "name": "_xaup",
          "type": "address"
        },
        {
          "indexed": false,
          "name": "eth_amount",
          "type": "uint256"
        },
        {
          "indexed": false,
          "name": "xaup_amount",
          "type": "uint256"
        },
        {
          "indexed": false,
          "name": "_tokenId",
          "type": "uint256"
        },
        {
          "indexed": false,
          "name": "_clientId",
          "type": "bytes32"
        },
        {
          "indexed": false,
          "name": "_from",
          "type": "address"
        }
      ],
      "name": "EventExchangeXAUp",
      "type": "event"
    },
    {
      "anonymous": false,
      "inputs": [
        {
          "indexed": false,
          "name": "oldDepositContract",
          "type": "address"
        },
        {
          "indexed": false,
          "name": "newDepositContract",
          "type": "address"
        },
        {
          "indexed": false,
          "name": "clientId",
          "type": "bytes32"
        },
        {
          "indexed": false,
          "name": "version",
          "type": "uint256"
        }
      ],
      "name": "EventDepositAddressUpgrade",
      "type": "event"
    },
    {
      "anonymous": false,
      "inputs": [
        {
          "indexed": false,
          "name": "blockchainActionId",
          "type": "bytes32"
        },
        {
          "indexed": false,
          "name": "accountId",
          "type": "bytes32"
        },
        {
          "indexed": false,
          "name": "depositContract",
          "type": "address"
        },
        {
          "indexed": false,
          "name": "to",
          "type": "address"
        },
        {
          "indexed": false,
          "name": "amount",
          "type": "uint256"
        }
      ],
      "name": "EventWithdrawPPT",
      "type": "event"
    },
    {
      "anonymous": false,
      "inputs": [
        {
          "indexed": false,
          "name": "_blockchainActionId",
          "type": "bytes32"
        },
        {
          "indexed": false,
          "name": "accountId",
          "type": "bytes32"
        },
        {
          "indexed": false,
          "name": "currency",
          "type": "bytes32"
        },
        {
          "indexed": false,
          "name": "amount",
          "type": "uint256"
        },
        {
          "indexed": false,
          "name": "toBank",
          "type": "bool"
        }
      ],
      "name": "EventWithdrawPoken",
      "type": "event"
    },
    {
      "anonymous": false,
      "inputs": [
        {
          "indexed": false,
          "name": "blockchainActionId",
          "type": "bytes32"
        },
        {
          "indexed": false,
          "name": "tokenName",
          "type": "bytes32"
        },
        {
          "indexed": false,
          "name": "decimalUnits",
          "type": "uint8"
        },
        {
          "indexed": false,
          "name": "tokenSymbol",
          "type": "bytes32"
        },
        {
          "indexed": false,
          "name": "addr",
          "type": "address"
        }
      ],
      "name": "EventNewCurrency",
      "type": "event"
    },
    {
      "anonymous": false,
      "inputs": [
        {
          "indexed": false,
          "name": "blockchainActionId",
          "type": "bytes32"
        },
        {
          "indexed": false,
          "name": "tokenName",
          "type": "bytes32"
        },
        {
          "indexed": false,
          "name": "decimalUnits",
          "type": "uint8"
        },
        {
          "indexed": false,
          "name": "tokenSymbol",
          "type": "bytes32"
        },
        {
          "indexed": false,
          "name": "addr",
          "type": "address"
        },
        {
          "indexed": false,
          "name": "version",
          "type": "uint256"
        }
      ],
      "name": "EventUpgradeCurrency",
      "type": "event"
    },
    {
      "anonymous": false,
      "inputs": [
        {
          "indexed": false,
          "name": "blockchainActionId",
          "type": "bytes32"
        },
        {
          "indexed": false,
          "name": "clientId",
          "type": "bytes32"
        },
        {
          "indexed": false,
          "name": "depositContractAddress",
          "type": "address"
        },
        {
          "indexed": false,
          "name": "version",
          "type": "uint256"
        }
      ],
      "name": "EventNewDepositContract",
      "type": "event"
    },
    {
      "anonymous": false,
      "inputs": [
        {
          "indexed": false,
          "name": "blockchainActionId",
          "type": "bytes32"
        },
        {
          "indexed": false,
          "name": "clientId",
          "type": "bytes32"
        },
        {
          "indexed": false,
          "name": "depositContractAddress",
          "type": "address"
        },
        {
          "indexed": false,
          "name": "version",
          "type": "uint256"
        }
      ],
      "name": "EventUpgradeDepositContract",
      "type": "event"
    },
    {
      "anonymous": false,
      "inputs": [
        {
          "indexed": false,
          "name": "_blockchainActionId",
          "type": "bytes32"
        },
        {
          "indexed": false,
          "name": "_userId",
          "type": "bytes32"
        },
        {
          "indexed": false,
          "name": "_companyName",
          "type": "bytes32"
        },
        {
          "indexed": false,
          "name": "_companyNumber",
          "type": "bytes32"
        },
        {
          "indexed": false,
          "name": "countryCode",
          "type": "bytes2"
        }
      ],
      "name": "EventNewProvider",
      "type": "event"
    },
    {
      "anonymous": false,
      "inputs": [
        {
          "indexed": false,
          "name": "_blockchainActionId",
          "type": "bytes32"
        },
        {
          "indexed": false,
          "name": "_providerUserId",
          "type": "bytes32"
        },
        {
          "indexed": false,
          "name": "invoiceCountryCode",
          "type": "bytes2"
        },
        {
          "indexed": false,
          "name": "invoiceCompanyNumber",
          "type": "bytes32"
        },
        {
          "indexed": false,
          "name": "invoiceCompanyName",
          "type": "bytes32"
        },
        {
          "indexed": false,
          "name": "invoiceNumber",
          "type": "bytes32"
        }
      ],
      "name": "EventNewInvoice",
      "type": "event"
    },
    {
      "anonymous": false,
      "inputs": [
        {
          "indexed": false,
          "name": "_blockchainActionId",
          "type": "bytes32"
        },
        {
          "indexed": false,
          "name": "_userId",
          "type": "bytes32"
        },
        {
          "indexed": false,
          "name": "_countryCode",
          "type": "bytes2"
        },
        {
          "indexed": false,
          "name": "_companyNumber",
          "type": "bytes32"
        }
      ],
      "name": "EventProviderEnabled",
      "type": "event"
    },
    {
      "anonymous": false,
      "inputs": [
        {
          "indexed": false,
          "name": "_blockchainActionId",
          "type": "bytes32"
        },
        {
          "indexed": false,
          "name": "_userId",
          "type": "bytes32"
        },
        {
          "indexed": false,
          "name": "_countryCode",
          "type": "bytes2"
        },
        {
          "indexed": false,
          "name": "_companyNumber",
          "type": "bytes32"
        }
      ],
      "name": "EventProviderDisabled",
      "type": "event"
    }
  ],
  "bytecode": "0x606060405260018054600160a060020a031990811673d8a7c588f8dc19f49dafd8ecf08eec58e64d4cc91790915560028054909116730ff72e24af7c09a647865820d4477f98fcb72a2c179055341561005757600080fd5b6040516020806149548339810160405280805160008054600160a060020a03909216600160a060020a031990921691909117905550506148b88061009c6000396000f300606060405236156100a95763ffffffff60e060020a60003504166302ab72c481146100ae5780630b180e08146100cf578063150b7a02146100fd57806338cb3dd11461019e5780633da4138c146101cd5780635904243e14610213578063678b201214610252578063a6d1fe4914610265578063a78caf19146102bd578063aa1b6fc6146102e2578063dcaa41971461031d578063f23a6e6114610355578063f7f01b4b146103c6575b600080fd5b34156100b957600080fd5b6100cd600160a060020a03600435166103d9565b005b34156100da57600080fd5b6100cd600160a060020a036004351660243560443560ff6064351660843561048c565b341561010857600080fd5b610169600160a060020a036004803582169160248035909116916044359160849060643590810190830135806020601f820181900481020160405190810160405281815292919060208401838380828437509496506107e695505050505050565b6040517fffffffff00000000000000000000000000000000000000000000000000000000909116815260200160405180910390f35b34156101a957600080fd5b6101b161080f565b604051600160a060020a03909116815260200160405180910390f35b34156101d857600080fd5b6100cd600160a060020a03600435811690602435906044358116906064359060843581169060a4359060c4359060e43590610104351661081e565b341561021e57600080fd5b6100cd600160a060020a0360043581169060243590604435811690606435906084359060a4359060c4359060e43516610de1565b341561025d57600080fd5b6101b161139e565b341561027057600080fd5b6100cd600160a060020a0360043581169060243590604435906064359060843581169060a43581169060c4359060e4359061010435811690610124359061014435166101643515156113ad565b34156102c857600080fd5b6100cd600160a060020a0360043516602435604435611ec7565b34156102ed57600080fd5b6100cd600160a060020a0360043516602435604435600160f060020a03196064351660843560a43560c435612908565b341561032857600080fd5b6100cd600160a060020a0360043516602435604435606435608435600160f060020a031960a43516612c1b565b341561036057600080fd5b610169600160a060020a0360048035821691602480359091169160443591606435919060a49060843590810190830135806020601f82018190048102016040519081016040528181529291906020840183838082843750949650612e6395505050505050565b34156103d157600080fd5b6101b1612e8d565b60008054600160a060020a03169063fda089589033906040516020015260405160e060020a63ffffffff8416028152600160a060020a039091166004820152602401602060405180830381600087803b151561043457600080fd5b6102c65a03f1151561044557600080fd5b50505060405180511515600114905061045d57600080fd5b6000805473ffffffffffffffffffffffffffffffffffffffff1916600160a060020a0392909216919091179055565b60008054600160a060020a031663fda0895833836040516020015260405160e060020a63ffffffff8416028152600160a060020a039091166004820152602401602060405180830381600087803b15156104e557600080fd5b6102c65a03f115156104f657600080fd5b50505060405180511515600114905061050e57600080fd5b600160a060020a038616151561052357600080fd5b506000548590600160a060020a038083169163c7062df391889116878787610549612ed2565b600160a060020a039094168452602084019290925260ff16604080840191909152606083019190915260809091019051809103906000f080151561058c57600080fd5b8560006040516020015260405160e060020a63ffffffff86160281526004810193909352600160a060020a0390911660248301526044820152606401602060405180830381600087803b15156105e157600080fd5b6102c65a03f115156105f257600080fd5b50505060405180511515600114905061060a57600080fd5b600160a060020a0381166392c4b86786846000808563d383b80d84836040516020015260405160e060020a63ffffffff84160281526004810191909152602401602060405180830381600087803b151561066357600080fd5b6102c65a03f1151561067457600080fd5b505050604051805190506000806040516020015260405160e060020a63ffffffff89160281526004810196909652602486019490945260448501929092526064840152600160a060020a0316608483015260a482015260c401602060405180830381600087803b15156106e657600080fd5b6102c65a03f115156106f757600080fd5b50505060405180511515600114905061070f57600080fd5b7f6f9a94a4b659b99ce71e6f2eaa4b609443bd0350f9e1f7b2d566815cb90f0e968585858585600160a060020a031663d383b80d8860006040516020015260405160e060020a63ffffffff84160281526004810191909152602401602060405180830381600087803b151561078357600080fd5b6102c65a03f1151561079457600080fd5b50505060405180519050604051948552602085019390935260ff9091166040808501919091526060840191909152600160a060020a03909116608083015260a0909101905180910390a1505050505050565b7f150b7a0200000000000000000000000000000000000000000000000000000000949350505050565b600154600160a060020a031681565b6000805481908190600160a060020a031663fda0895833836040516020015260405160e060020a63ffffffff8416028152600160a060020a039091166004820152602401602060405180830381600087803b151561087b57600080fd5b6102c65a03f1151561088c57600080fd5b5050506040518051151560011490506108a457600080fd5b600160a060020a038c1615156108b957600080fd5b8b600160a060020a031663bea0897c8c60006040516020015260405160e060020a63ffffffff84160281526004810191909152602401602060405180830381600087803b151561090857600080fd5b6102c65a03f1151561091957600080fd5b505050604051805115905080156109a157508b600160a060020a0316632a01a4518a60006040516020015260405160e060020a63ffffffff84160281526004810191909152602401602060405180830381600087803b151561097a57600080fd5b6102c65a03f1151561098b57600080fd5b5050506040518051600160a060020a0316151590505b15156109ac57600080fd5b600160a060020a038416158015906109c45750600085115b80156109d05750600087115b15156109db57600080fd5b8b600160a060020a0316632a01a4518a60006040516020015260405160e060020a63ffffffff84160281526004810191909152602401602060405180830381600087803b1515610a2a57600080fd5b6102c65a03f11515610a3b57600080fd5b505050604051805190509250610ac283600160a060020a03166370a082318c60006040516020015260405160e060020a63ffffffff8416028152600160a060020a039091166004820152602401602060405180830381600087803b1515610aa157600080fd5b6102c65a03f11515610ab257600080fd5b5050506040518051905087612e9c565b9150610ace8786612eae565b821015610ada57600080fd5b82600160a060020a031663beabacc88b8a8a60006040516020015260405160e060020a63ffffffff8616028152600160a060020a0393841660048201529190921660248201526044810191909152606401602060405180830381600087803b1515610b4457600080fd5b6102c65a03f11515610b5557600080fd5b505050604051805115156001149050610b6d57600080fd5b82600160a060020a031663beabacc88b868860006040516020015260405160e060020a63ffffffff8616028152600160a060020a0393841660048201529190921660248201526044810191909152606401602060405180830381600087803b1515610bd757600080fd5b6102c65a03f11515610be857600080fd5b505050604051805115156001149050610c0057600080fd5b89600160a060020a03166395d89b416000604051602001526040518163ffffffff1660e060020a028152600401602060405180830381600087803b1515610c4657600080fd5b6102c65a03f11515610c5757600080fd5b5050506040518051915050600160a060020a038c166392c4b8678c838a8d8d8b60006040516020015260405160e060020a63ffffffff89160281526004810196909652602486019490945260448501929092526064840152600160a060020a0316608483015260a482015260c401602060405180830381600087803b1515610cde57600080fd5b6102c65a03f11515610cef57600080fd5b505050604051805115156001149050610d0757600080fd5b7fb34e83f654f4c047e331cea47cc1783dd0511abde3cac240a47bfbdefd6812e88b8a8e600160a060020a0316632a01a4518d60006040516020015260405160e060020a63ffffffff84160281526004810191909152602401602060405180830381600087803b1515610d7957600080fd5b6102c65a03f11515610d8a57600080fd5b505050604051805190508b8b6040519485526020850193909352600160a060020a0391821660408086019190915291166060840152608083019190915260a0909101905180910390a1505050505050505050505050565b6000805481908190600160a060020a031663fda0895833836040516020015260405160e060020a63ffffffff8416028152600160a060020a039091166004820152602401602060405180830381600087803b1515610e3e57600080fd5b6102c65a03f11515610e4f57600080fd5b505050604051805115156001149050610e6757600080fd5b8a925082600160a060020a0316632a01a4518660006040516020015260405160e060020a63ffffffff84160281526004810191909152602401602060405180830381600087803b1515610eb957600080fd5b6102c65a03f11515610eca57600080fd5b5050506040518051925050600160a060020a038b1615801590610ef55750600160a060020a03821615155b8015610f095750600160a060020a03891615155b1515610f1457600080fd5b82600160a060020a031663bea0897c8b60006040516020015260405160e060020a63ffffffff84160281526004810191909152602401602060405180830381600087803b1515610f6357600080fd5b6102c65a03f11515610f7457600080fd5b50505060405180511590508015610ffc575082600160a060020a0316632a01a4518660006040516020015260405160e060020a63ffffffff84160281526004810191909152602401602060405180830381600087803b1515610fd557600080fd5b6102c65a03f11515610fe657600080fd5b5050506040518051600160a060020a0316151590505b151561100757600080fd5b600283600160a060020a0316632a01a4518760006040516020015260405160e060020a63ffffffff84160281526004810191909152602401602060405180830381600087803b151561105857600080fd5b6102c65a03f1151561106957600080fd5b50505060405180519050600160a060020a0316630d8e6e2c6000604051602001526040518163ffffffff1660e060020a028152600401602060405180830381600087803b15156110b857600080fd5b6102c65a03f115156110c957600080fd5b50505060405180519050101515156110e057600080fd5b508786600160a060020a038216633656eec2883060006040516020015260405160e060020a63ffffffff85160281526004810192909252600160a060020a03166024820152604401602060405180830381600087803b151561114157600080fd5b6102c65a03f1151561115257600080fd5b505050604051805190501015151561116957600080fd5b81600160a060020a03166305b1137b858a60006040516020015260405160e060020a63ffffffff8516028152600160a060020a0390921660048301526024820152604401602060405180830381600087803b15156111c657600080fd5b6102c65a03f115156111d757600080fd5b5050506040518051151560011490506111ef57600080fd5b80600160a060020a031663f242432a3084898b60405160e060020a63ffffffff8716028152600160a060020a0394851660048201529290931660248301526044820152606481019190915260a06084820152600060a4820181905260e49091019060405180830381600087803b151561126757600080fd5b6102c65a03f1151561127857600080fd5b50505082600160a060020a03166392c4b8678b60008b89876000806040516020015260405160e060020a63ffffffff89160281526004810196909652602486019490945260448501929092526064840152600160a060020a0316608483015260a482015260c401602060405180830381600087803b15156112f857600080fd5b6102c65a03f1151561130957600080fd5b50505060405180511515600114905061132157600080fd5b7f3a0f94ac6dfce4f3ae7bdb44dc7ca27dfc76d4747283fbbea8cc33c59cc35afe8a8a8a8a8a8a88604051968752600160a060020a0395861660208801526040808801959095526060870193909352608086019190915260a085015290911660c083015260e0909101905180910390a15050505050505050505050565b600254600160a060020a031681565b60008054600160a060020a031663fda0895833836040516020015260405160e060020a63ffffffff8416028152600160a060020a039091166004820152602401602060405180830381600087803b151561140657600080fd5b6102c65a03f1151561141757600080fd5b50505060405180511515600114905061142f57600080fd5b600160a060020a038d16151561144457600080fd5b8c600160a060020a031663bea0897c8d60006040516020015260405160e060020a63ffffffff84160281526004810191909152602401602060405180830381600087803b151561149357600080fd5b6102c65a03f115156114a457600080fd5b5050506040518051159050801561152c57508c600160a060020a0316632a01a4518860006040516020015260405160e060020a63ffffffff84160281526004810191909152602401602060405180830381600087803b151561150557600080fd5b6102c65a03f1151561151657600080fd5b5050506040518051600160a060020a0316151590505b151561153757600080fd5b600160a060020a0383161580159061154f5750600084115b151561155a57600080fd5b60008a1180156115db57508c600160a060020a031663d383b80d8c60006040516020015260405160e060020a63ffffffff84160281526004810191909152602401602060405180830381600087803b15156115b457600080fd5b6102c65a03f115156115c557600080fd5b5050506040518051600160a060020a0316151590505b15156115e657600080fd5b8c600160a060020a0316632a01a4518860006040516020015260405160e060020a63ffffffff84160281526004810191909152602401602060405180830381600087803b151561163557600080fd5b6102c65a03f1151561164657600080fd5b505050604051805190509050836116ce82600160a060020a03166370a082318860006040516020015260405160e060020a63ffffffff8416028152600160a060020a039091166004820152602401602060405180830381600087803b15156116ad57600080fd5b6102c65a03f115156116be57600080fd5b5050506040518051905088612e9c565b10156116d957600080fd5b80600160a060020a031663beabacc886858760006040516020015260405160e060020a63ffffffff8616028152600160a060020a0393841660048201529190921660248201526044810191909152606401602060405180830381600087803b151561174357600080fd5b6102c65a03f1151561175457600080fd5b50505060405180511515600114905061176c57600080fd5b8c600160a060020a031663d383b80d8c60006040516020015260405160e060020a63ffffffff84160281526004810191909152602401602060405180830381600087803b15156117bb57600080fd5b6102c65a03f115156117cc57600080fd5b50505060405180519050600160a060020a03166370a082318a60006040516020015260405160e060020a63ffffffff8416028152600160a060020a039091166004820152602401602060405180830381600087803b151561182c57600080fd5b6102c65a03f1151561183d57600080fd5b505050604051805190508a1115611a1d578c600160a060020a031663d383b80d8c60006040516020015260405160e060020a63ffffffff84160281526004810191909152602401602060405180830381600087803b151561189d57600080fd5b6102c65a03f115156118ae57600080fd5b50505060405180519050600160a060020a0316630156b3238e600160a060020a031663d383b80d8e60006040516020015260405160e060020a63ffffffff84160281526004810191909152602401602060405180830381600087803b151561191557600080fd5b6102c65a03f1151561192657600080fd5b50505060405180519050600160a060020a03166370a082318c60006040516020015260405160e060020a63ffffffff8416028152600160a060020a039091166004820152602401602060405180830381600087803b151561198657600080fd5b6102c65a03f1151561199757600080fd5b505050604051805190508b60006040516020015260405160e060020a63ffffffff85160281526004810192909252600160a060020a03166024820152604401602060405180830381600087803b15156119ef57600080fd5b6102c65a03f11515611a0057600080fd5b505050604051805115156001149050611a1857600080fd5b611b0d565b8c600160a060020a031663d383b80d8c60006040516020015260405160e060020a63ffffffff84160281526004810191909152602401602060405180830381600087803b1515611a6c57600080fd5b6102c65a03f11515611a7d57600080fd5b50505060405180519050600160a060020a0316630156b3238b8b60006040516020015260405160e060020a63ffffffff85160281526004810192909252600160a060020a03166024820152604401602060405180830381600087803b1515611ae457600080fd5b6102c65a03f11515611af557600080fd5b505050604051805115156001149050611b0d57600080fd5b60018215151415611c18578c600160a060020a03166392c4b8678d8d8d8b8e8a60006040516020015260405160e060020a63ffffffff89160281526004810196909652602486019490945260448501929092526064840152600160a060020a0316608483015260a482015260c401602060405180830381600087803b1515611b9457600080fd5b6102c65a03f11515611ba557600080fd5b505050604051805115156001149050611bbd57600080fd5b7f471ca94ad77c519a81da4f8dc0fe508299cb64c10c988cc641abbaede6c075ff8c888d8d8660405194855260208501939093526040808501929092526060840152901515608083015260a0909101905180910390a1611eb8565b8c600160a060020a031663d383b80d8c60006040516020015260405160e060020a63ffffffff84160281526004810191909152602401602060405180830381600087803b1515611c6757600080fd5b6102c65a03f11515611c7857600080fd5b50505060405180519050600160a060020a03166397304ced8b60405160e060020a63ffffffff84160281526004810191909152602401600060405180830381600087803b1515611cc757600080fd5b6102c65a03f11515611cd857600080fd5b5050508c600160a060020a031663d383b80d8c60006040516020015260405160e060020a63ffffffff84160281526004810191909152602401602060405180830381600087803b1515611d2a57600080fd5b6102c65a03f11515611d3b57600080fd5b50505060405180519050600160a060020a031663a9059cbb898c60006040516020015260405160e060020a63ffffffff8516028152600160a060020a0390921660048301526024820152604401602060405180830381600087803b1515611da157600080fd5b6102c65a03f11515611db257600080fd5b50505060405180515050600160a060020a038d166392c4b8678d8d8d8b8d8a60006040516020015260405160e060020a63ffffffff89160281526004810196909652602486019490945260448501929092526064840152600160a060020a0316608483015260a482015260c401602060405180830381600087803b1515611e3857600080fd5b6102c65a03f11515611e4957600080fd5b505050604051805115156001149050611e6157600080fd5b7f471ca94ad77c519a81da4f8dc0fe508299cb64c10c988cc641abbaede6c075ff8c888d8d8660405194855260208501939093526040808501929092526060840152901515608083015260a0909101905180910390a15b50505050505050505050505050565b6000805481908190600160a060020a031663fda0895833836040516020015260405160e060020a63ffffffff8416028152600160a060020a039091166004820152602401602060405180830381600087803b1515611f2457600080fd5b6102c65a03f11515611f3557600080fd5b505050604051805115156001149050611f4d57600080fd5b600160a060020a0386161515611f6257600080fd5b6000548693508490600160a060020a0316611f7b612ee2565b918252600160a060020a0316602082015260409081019051809103906000f0801515611fa657600080fd5b915082600160a060020a0316632a01a4518560006040516020015260405160e060020a63ffffffff84160281526004810191909152602401602060405180830381600087803b1515611ff757600080fd5b6102c65a03f1151561200857600080fd5b5050506040518051600160a060020a03161590506125ce5782600160a060020a0316632a01a4518560006040516020015260405160e060020a63ffffffff84160281526004810191909152602401602060405180830381600087803b151561206f57600080fd5b6102c65a03f1151561208057600080fd5b5050506040518051915050600160a060020a0381166040517f67657456657273696f6e282900000000000000000000000000000000000000008152600c01604051809103902060e060020a90046040518163ffffffff1660e060020a02815260040160006040518083038160008761646e5a03f115925061210391505057600080fd5b600154600090600160a060020a03808416916370a082319116836040516020015260405160e060020a63ffffffff8416028152600160a060020a039091166004820152602401602060405180830381600087803b151561216257600080fd5b6102c65a03f1151561217357600080fd5b50505060405180519050111561228457600154600160a060020a038083169163beabacc8911684836370a082318360006040516020015260405160e060020a63ffffffff8416028152600160a060020a039091166004820152602401602060405180830381600087803b15156121e857600080fd5b6102c65a03f115156121f957600080fd5b5050506040518051905060006040516020015260405160e060020a63ffffffff8616028152600160a060020a0393841660048201529190921660248201526044810191909152606401602060405180830381600087803b151561225b57600080fd5b6102c65a03f1151561226c57600080fd5b50505060405180511515600114905061228457600080fd5b600254600090600160a060020a03808416916370a082319116836040516020015260405160e060020a63ffffffff8416028152600160a060020a039091166004820152602401602060405180830381600087803b15156122e357600080fd5b6102c65a03f115156122f457600080fd5b50505060405180519050111561240557600254600160a060020a038083169163beabacc8911684836370a082318360006040516020015260405160e060020a63ffffffff8416028152600160a060020a039091166004820152602401602060405180830381600087803b151561236957600080fd5b6102c65a03f1151561237a57600080fd5b5050506040518051905060006040516020015260405160e060020a63ffffffff8616028152600160a060020a0393841660048201529190921660248201526044810191909152606401602060405180830381600087803b15156123dc57600080fd5b6102c65a03f115156123ed57600080fd5b50505060405180511515600114905061240557600080fd5b82600160a060020a031663c9939d0e86868560006040516020015260405160e060020a63ffffffff861602815260048101939093526024830191909152600160a060020a03166044820152606401602060405180830381600087803b151561246c57600080fd5b6102c65a03f1151561247d57600080fd5b50505060405180511515600114905061249557600080fd5b82600160a060020a0316632a01a4518560006040516020015260405160e060020a63ffffffff84160281526004810191909152602401602060405180830381600087803b15156124e457600080fd5b6102c65a03f115156124f557600080fd5b5050506040518051600160a060020a03161515905061251057fe5b7f4568876840560e8a968cc94ce0902913d79bea2e19366023630c82b9f17ebc2781838685600160a060020a0316630d8e6e2c6000604051602001526040518163ffffffff1660e060020a028152600401602060405180830381600087803b151561257a57600080fd5b6102c65a03f1151561258b57600080fd5b50505060405180519050604051600160a060020a0394851681529290931660208301526040808301919091526060820192909252608001905180910390a1612900565b82600160a060020a0316630e8ba16786848760006040516020015260405160e060020a63ffffffff86160281526004810193909352600160a060020a0390911660248301526044820152606401602060405180830381600087803b151561263457600080fd5b6102c65a03f1151561264557600080fd5b50505060405180511515600114905061265d57600080fd5b82600160a060020a0316632a01a4518560006040516020015260405160e060020a63ffffffff84160281526004810191909152602401602060405180830381600087803b15156126ac57600080fd5b6102c65a03f115156126bd57600080fd5b5050506040518051600160a060020a0316151590506126d857fe5b600160a060020a0383166392c4b867866000808885632a01a45182846040516020015260405160e060020a63ffffffff84160281526004810191909152602401602060405180830381600087803b151561273157600080fd5b6102c65a03f1151561274257600080fd5b505050604051805190506000806040516020015260405160e060020a63ffffffff89160281526004810196909652602486019490945260448501929092526064840152600160a060020a0316608483015260a482015260c401602060405180830381600087803b15156127b457600080fd5b6102c65a03f115156127c557600080fd5b5050506040518051151560011490506127dd57600080fd5b7f0fb3e865b3e3996382296fd8ddd17b0bb8ae5d9866b08a51945a2e58cac30730858585600160a060020a0316632a01a4518860006040516020015260405160e060020a63ffffffff84160281526004810191909152602401602060405180830381600087803b151561284f57600080fd5b6102c65a03f1151561286057600080fd5b5050506040518051905085600160a060020a0316630d8e6e2c6000604051602001526040518163ffffffff1660e060020a028152600401602060405180830381600087803b15156128b057600080fd5b6102c65a03f115156128c157600080fd5b505050604051805190506040519384526020840192909252600160a060020a031660408084019190915260608301919091526080909101905180910390a15b505050505050565b60008054819081908190600160a060020a031663fda0895833836040516020015260405160e060020a63ffffffff8416028152600160a060020a039091166004820152602401602060405180830381600087803b151561296757600080fd5b6102c65a03f1151561297857600080fd5b50505060405180511515600114905061299057600080fd5b600160a060020a038b1615156129a557600080fd5b8a935083600160a060020a0316631529905c8a60006040516060015260405160e060020a63ffffffff84160281526004810191909152602401606060405180830381600087803b15156129f757600080fd5b6102c65a03f11515612a0857600080fd5b505050604051805190602001805190602001805192955090935090915050600160f060020a0319831615801590612a3e57508115155b8015612a4957508015155b1515612a5457600080fd5b83600160a060020a031663880a8e548b8b8b8b8b8b60006040516020015260405160e060020a63ffffffff891602815260048101969096526024860194909452600160f060020a031990921660448501526064840152608483015260a482015260c401602060405180830381600087803b1515612ad057600080fd5b6102c65a03f11515612ae157600080fd5b505050604051805115156001149050612af957600080fd5b83600160a060020a03166392c4b8678b6000808d60008060006040516020015260405160e060020a63ffffffff89160281526004810196909652602486019490945260448501929092526064840152600160a060020a0316608483015260a482015260c401602060405180830381600087803b1515612b7757600080fd5b6102c65a03f11515612b8857600080fd5b505050604051805115156001149050612ba057600080fd5b7f53c9402948bb1a0f1c1ff853af7d9843a08489c0e79a7066f4d6ac7a7ac7876a8a8a8a8a8a8a6040519586526020860194909452600160f060020a03199092166040808601919091526060850191909152608084019190915260a083019190915260c0909101905180910390a15050505050505050505050565b60008054600160a060020a031663fda0895833836040516020015260405160e060020a63ffffffff8416028152600160a060020a039091166004820152602401602060405180830381600087803b1515612c7457600080fd5b6102c65a03f11515612c8557600080fd5b505050604051805115156001149050612c9d57600080fd5b600160a060020a0387161515612cb257600080fd5b5085600160a060020a03811663a5c51a00878787878760006040516020015260405160e060020a63ffffffff88160281526004810195909552602485019390935260448401919091526064830152600160f060020a031916608482015260a401602060405180830381600087803b1515612d2b57600080fd5b6102c65a03f11515612d3c57600080fd5b505050604051805115156001149050612d5457600080fd5b80600160a060020a03166392c4b867876000808960008060006040516020015260405160e060020a63ffffffff89160281526004810196909652602486019490945260448501929092526064840152600160a060020a0316608483015260a482015260c401602060405180830381600087803b1515612dd257600080fd5b6102c65a03f11515612de357600080fd5b505050604051805115156001149050612dfb57600080fd5b7f715169d37d48828f31a81b71e5da2d5934b107791a77894e3bce33b5d59e0fd6868685878660405194855260208501939093526040808501929092526060840152600160f060020a0319909116608083015260a0909101905180910390a150505050505050565b7ff23a6e610000000000000000000000000000000000000000000000000000000095945050505050565b600054600160a060020a031681565b600082821115612ea857fe5b50900390565b6000828201838110801590612ec35750828110155b1515612ecb57fe5b9392505050565b604051610c5a80612ef383390190565b604051610d4080613b4d833901905600606060405260008055341561001357600080fd5b604051608080610c5a8339810160405280805191906020018051919060200180519190602001805160068054600160a060020a031916600160a060020a03979097169690961790955550506001919091556002805460ff191660ff909216919091179055600355610bd1806100896000396000f300606060405236156100ca5763ffffffff60e060020a6000350416630156b32381146100cf57806302ab72c41461010557806306fdde0314610126578063095ea7b31461014b57806318160ddd1461016d57806323b872dd1461018057806327e235e3146101a8578063313ce567146101c75780635c658165146101f057806367fbd2891461021557806370a082311461022b57806395d89b411461024a57806397304ced1461025d578063a9059cbb14610273578063dd62ed3e14610295578063f7f01b4b146102ba575b600080fd5b34156100da57600080fd5b6100f1600435600160a060020a03602435166102e9565b604051901515815260200160405180910390f35b341561011057600080fd5b610124600160a060020a03600435166103ed565b005b341561013157600080fd5b61013961049e565b60405190815260200160405180910390f35b341561015657600080fd5b6100f1600160a060020a03600435166024356104a4565b341561017857600080fd5b610139610510565b341561018b57600080fd5b6100f1600160a060020a0360043581169060243516604435610516565b34156101b357600080fd5b610139600160a060020a036004351661061c565b34156101d257600080fd5b6101da61062e565b60405160ff909116815260200160405180910390f35b34156101fb57600080fd5b610139600160a060020a0360043581169060243516610637565b341561022057600080fd5b6100f1600435610654565b341561023657600080fd5b610139600160a060020a0360043516610898565b341561025557600080fd5b6101396108b3565b341561026857600080fd5b6101246004356108b9565b341561027e57600080fd5b6100f1600160a060020a0360043516602435610aa1565b34156102a057600080fd5b610139600160a060020a0360043581169060243516610b35565b34156102c557600080fd5b6102cd610b60565b604051600160a060020a03909116815260200160405180910390f35b600654600090600160a060020a03166305fd22d033836040516020015260405160e060020a63ffffffff8416028152600160a060020a039091166004820152602401602060405180830381600087803b151561034457600080fd5b6102c65a03f1151561035557600080fd5b50505060405180511515600114905061036d57600080fd5b600160a060020a03821660009081526004602052604090205483901015610396575060006103e7565b600160a060020a0382166000908152600460205260409020546103b99084610b6f565b600160a060020a038316600090815260046020526040812091909155546103e09084610b6f565b6000555060015b92915050565b600654600160a060020a031663fda089583360006040516020015260405160e060020a63ffffffff8416028152600160a060020a039091166004820152602401602060405180830381600087803b151561044657600080fd5b6102c65a03f1151561045757600080fd5b50505060405180511515600114905061046f57600080fd5b6006805473ffffffffffffffffffffffffffffffffffffffff1916600160a060020a0392909216919091179055565b60015481565b600160a060020a03338116600081815260056020908152604080832094871680845294909152808220859055909291907f8c5be1e5ebec7d5bd14f71427d1e84f3dd0314c0f7b2291e5b200ac8c7c3b9259085905190815260200160405180910390a350600192915050565b60005481565b600160a060020a03808416600081815260056020908152604080832033909516835293815283822054928252600490529182205483901080159061055a5750828110155b151561056557600080fd5b600160a060020a03808516600090815260046020526040808220805487019055918716815220805484900390556000198110156105ca57600160a060020a03808616600090815260056020908152604080832033909416835292905220805484900390555b83600160a060020a031685600160a060020a03167fddf252ad1be2c89b69c2b068fc378daa952ba7f163c4a11628f55a4df523b3ef8560405190815260200160405180910390a3506001949350505050565b60046020526000908152604090205481565b60025460ff1681565b600560209081526000928352604080842090915290825290205481565b600654600090600160a060020a03166305fd22d033836040516020015260405160e060020a63ffffffff8416028152600160a060020a039091166004820152602401602060405180830381600087803b15156106af57600080fd5b6102c65a03f115156106c057600080fd5b5050506040518051151560011490506106d857600080fd5b6006548290600490600090600160a060020a03166394a3760f82604051602001526040518163ffffffff1660e060020a028152600401602060405180830381600087803b151561072757600080fd5b6102c65a03f1151561073857600080fd5b5050506040518051600160a060020a0316825250602081019190915260400160002054101561076957506000610893565b6006546107f490600490600090600160a060020a03166394a3760f82604051602001526040518163ffffffff1660e060020a028152600401602060405180830381600087803b15156107ba57600080fd5b6102c65a03f115156107cb57600080fd5b5050506040518051600160a060020a031682525060208101919091526040016000205483610b6f565b600654600490600090600160a060020a03166394a3760f82604051602001526040518163ffffffff1660e060020a028152600401602060405180830381600087803b151561084157600080fd5b6102c65a03f1151561085257600080fd5b50505060405180519050600160a060020a0316600160a060020a031681526020019081526020016000208190555061088c60005483610b6f565b6000555060015b919050565b600160a060020a031660009081526004602052604090205490565b60035481565b600654600160a060020a03166305fd22d03360006040516020015260405160e060020a63ffffffff8416028152600160a060020a039091166004820152602401602060405180830381600087803b151561091257600080fd5b6102c65a03f1151561092357600080fd5b50505060405180511515600114905061093b57600080fd5b6006546109c690600490600090600160a060020a03166394a3760f82604051602001526040518163ffffffff1660e060020a028152600401602060405180830381600087803b151561098c57600080fd5b6102c65a03f1151561099d57600080fd5b5050506040518051600160a060020a031682525060208101919091526040016000205482610b81565b600654600490600090600160a060020a03166394a3760f82604051602001526040518163ffffffff1660e060020a028152600401602060405180830381600087803b1515610a1357600080fd5b6102c65a03f11515610a2457600080fd5b50505060405180519050600160a060020a0316600160a060020a0316815260200190815260200160002081905550610a5e60005482610b81565b6000556003547fb83a9cb495aa43a9871c87805ab90712a5f703de6d66d16b96d7afcc91bb3299908260405191825260208201526040908101905180910390a150565b600160a060020a03331660009081526004602052604081205482901015610ac757600080fd5b600160a060020a033381166000818152600460205260408082208054879003905592861680825290839020805486019055917fddf252ad1be2c89b69c2b068fc378daa952ba7f163c4a11628f55a4df523b3ef9085905190815260200160405180910390a350600192915050565b600160a060020a03918216600090815260056020908152604080832093909416825291909152205490565b600654600160a060020a031681565b600082821115610b7b57fe5b50900390565b6000828201838110801590610b965750828110155b1515610b9e57fe5b93925050505600a165627a7a72305820b32c7e80703c5c8642c1958efabfef8fd63761da726c5cd3a31a8ca41d9d10c20029606060405260028055341561001357600080fd5b604051604080610d40833981016040528080519190602001805160008054600160a060020a03909216600160a060020a03199092169190911790555050600155610cde806100626000396000f300606060405236156100bf5763ffffffff60e060020a60003504166302ab72c481146100c457806305b1137b146100e55780630d8e6e2c1461011b578063150b7a02146101405780631aca6376146101e1578063418ae2691461020957806345b866991461022b578063468f262214610256578063527fe4131461027557806354fd4d50146102885780636bb3471a1461029b57806370a08231146102ae578063beabacc8146102cd578063f23a6e61146102f5578063f7f01b4b14610366575b600080fd5b34156100cf57600080fd5b6100e3600160a060020a0360043516610395565b005b34156100f057600080fd5b610107600160a060020a0360043516602435610448565b604051901515815260200160405180910390f35b341561012657600080fd5b61012e6105e8565b60405190815260200160405180910390f35b341561014b57600080fd5b6101ac600160a060020a036004803582169160248035909116916044359160849060643590810190830135806020601f820181900481020160405190810160405281815292919060208401838380828437509496506105ee95505050505050565b6040517fffffffff00000000000000000000000000000000000000000000000000000000909116815260200160405180910390f35b34156101ec57600080fd5b610107600160a060020a0360043581169060243516604435610617565b341561021457600080fd5b61012e600160a060020a03600435166024356107ad565b341561023657600080fd5b610107600160a060020a036004358116906024351660443560643561082e565b341561026157600080fd5b61012e600160a060020a03600435166109cb565b341561028057600080fd5b61012e610a46565b341561029357600080fd5b61012e610a4c565b34156102a657600080fd5b61012e610a52565b34156102b957600080fd5b61012e600160a060020a0360043516610a58565b34156102d857600080fd5b610107600160a060020a0360043581169060243516604435610af4565b341561030057600080fd5b6101ac600160a060020a0360048035821691602480359091169160443591606435919060a49060843590810190830135806020601f82018190048102016040519081016040528181529291906020840183838082843750949650610c7995505050505050565b341561037157600080fd5b610379610ca3565b604051600160a060020a03909116815260200160405180910390f35b60008054600160a060020a03169063fda089589033906040516020015260405160e060020a63ffffffff8416028152600160a060020a039091166004820152602401602060405180830381600087803b15156103f057600080fd5b6102c65a03f1151561040157600080fd5b50505060405180511515600114905061041957600080fd5b6000805473ffffffffffffffffffffffffffffffffffffffff1916600160a060020a0392909216919091179055565b60008054600160a060020a031663fda0895833836040516020015260405160e060020a63ffffffff8416028152600160a060020a039091166004820152602401602060405180830381600087803b15156104a157600080fd5b6102c65a03f115156104b257600080fd5b50505060405180511515600114905080610543575060008054600160a060020a0316906305fd22d09033906040516020015260405160e060020a63ffffffff8416028152600160a060020a039091166004820152602401602060405180830381600087803b151561052257600080fd5b6102c65a03f1151561053357600080fd5b5050506040518051151560011490505b151561054e57600080fd5b600160a060020a033016318290101561056657600080fd5b600160a060020a03831682156108fc0283604051600060405180830381858888f11515600114935061059b9250505057600080fd5b7f1853ca9dc0208799379313b2b43364e45db022f073c72648fbc206dc0bacbcdc8383604051600160a060020a03909216825260208201526040908101905180910390a150600192915050565b60025490565b7f150b7a0200000000000000000000000000000000000000000000000000000000949350505050565b60008054600160a060020a031663fda0895833836040516020015260405160e060020a63ffffffff8416028152600160a060020a039091166004820152602401602060405180830381600087803b151561067057600080fd5b6102c65a03f1151561068157600080fd5b50505060405180511515600114905080610712575060008054600160a060020a0316906305fd22d09033906040516020015260405160e060020a63ffffffff8416028152600160a060020a039091166004820152602401602060405180830381600087803b15156106f157600080fd5b6102c65a03f1151561070257600080fd5b5050506040518051151560011490505b151561071d57600080fd5b83600160a060020a031663b88d4fde30858560405160e060020a63ffffffff8616028152600160a060020a03938416600482015291909216602482015260448101919091526080606482015260006084820181905260c49091019060405180830381600087803b151561078f57600080fd5b6102c65a03f115156107a057600080fd5b5060019695505050505050565b600082600160a060020a0316633656eec2833060006040516020015260405160e060020a63ffffffff85160281526004810192909252600160a060020a03166024820152604401602060405180830381600087803b151561080d57600080fd5b6102c65a03f1151561081e57600080fd5b5050506040518051949350505050565b60008054600160a060020a031663fda0895833836040516020015260405160e060020a63ffffffff8416028152600160a060020a039091166004820152602401602060405180830381600087803b151561088757600080fd5b6102c65a03f1151561089857600080fd5b50505060405180511515600114905080610929575060008054600160a060020a0316906305fd22d09033906040516020015260405160e060020a63ffffffff8416028152600160a060020a039091166004820152602401602060405180830381600087803b151561090857600080fd5b6102c65a03f1151561091957600080fd5b5050506040518051151560011490505b151561093457600080fd5b84600160a060020a031663f242432a3086868660405160e060020a63ffffffff8716028152600160a060020a0394851660048201529290931660248301526044820152606481019190915260a06084820152600060a4820181905260e49091019060405180830381600087803b15156109ac57600080fd5b6102c65a03f115156109bd57600080fd5b506001979650505050505050565b600081600160a060020a03166370a082313060006040516020015260405160e060020a63ffffffff8416028152600160a060020a039091166004820152602401602060405180830381600087803b1515610a2457600080fd5b6102c65a03f11515610a3557600080fd5b50505060405180519150505b919050565b60015490565b60025481565b60015481565b6000600160a060020a0382161515610a7b5750600160a060020a03301631610a41565b81600160a060020a03166370a082313060006040516020015260405160e060020a63ffffffff8416028152600160a060020a039091166004820152602401602060405180830381600087803b1515610ad257600080fd5b6102c65a03f11515610ae357600080fd5b505050604051805190509050610a41565b60008054600160a060020a031663fda0895833836040516020015260405160e060020a63ffffffff8416028152600160a060020a039091166004820152602401602060405180830381600087803b1515610b4d57600080fd5b6102c65a03f11515610b5e57600080fd5b50505060405180511515600114905080610bef575060008054600160a060020a0316906305fd22d09033906040516020015260405160e060020a63ffffffff8416028152600160a060020a039091166004820152602401602060405180830381600087803b1515610bce57600080fd5b6102c65a03f11515610bdf57600080fd5b5050506040518051151560011490505b1515610bfa57600080fd5b83600160a060020a031663a9059cbb848460006040516020015260405160e060020a63ffffffff8516028152600160a060020a0390921660048301526024820152604401602060405180830381600087803b1515610c5757600080fd5b6102c65a03f11515610c6857600080fd5b505050604051805195945050505050565b7ff23a6e610000000000000000000000000000000000000000000000000000000095945050505050565b600054600160a060020a0316815600a165627a7a7230582036f6c461de0f94aa5a9d86e021df89f2eccf98ab6e3a25894f70bd16c50bb0750029a165627a7a723058200c69291007461cd8717211c0061c0685259820e9a221f5360de5aba1ba55b6190029",
  "source": "pragma solidity ^0.4.17;\n\n/**\nThis is the core module of the system. Currently it holds the code of\nthe Bank and crowdsale modules to avoid external calls and higher gas costs.\nIt might be a good idea in the future to split the code, separate Bank\nand crowdsale modules into external files and have the core interact with them\nwith addresses and interfaces. \n*/\n\nimport \"./iERC20Token.sol\";\nimport \"./CurrencyToken.sol\";\nimport \"./DepositContract.sol\";\nimport \"./SafeMath.sol\";\nimport \"./DataManager.sol\";\nimport \"./ERC1155.sol\";\nimport \"./ERC721Basic.sol\";\n\n/// @title Populous contract\ncontract Populous is withAccessManager {\n\n    \n    // EVENTS\n    // Bank events\n    event EventExchangeXAUp (bytes32 _blockchainActionId, address _xaup, uint256 eth_amount, uint256 xaup_amount, uint256 _tokenId, bytes32 _clientId, address _from);\n    event EventDepositAddressUpgrade(address oldDepositContract, address newDepositContract, bytes32 clientId, uint256 version);\n\n    event EventWithdrawPPT(bytes32 blockchainActionId, bytes32 accountId, address depositContract, address to, uint amount);\n    event EventWithdrawPoken(bytes32 _blockchainActionId, bytes32 accountId, bytes32 currency, uint amount, bool toBank);\n    \n    event EventNewCurrency(bytes32 blockchainActionId, bytes32 tokenName, uint8 decimalUnits, bytes32 tokenSymbol, address addr);\n    event EventUpgradeCurrency(bytes32 blockchainActionId, bytes32 tokenName, uint8 decimalUnits, bytes32 tokenSymbol, address addr, uint256 version);\n    \n    event EventNewDepositContract(bytes32 blockchainActionId, bytes32 clientId, address depositContractAddress, uint256 version);\n    event EventUpgradeDepositContract(bytes32 blockchainActionId, bytes32 clientId, address depositContractAddress, uint256 version);\n    \n    event EventNewProvider(bytes32 _blockchainActionId, bytes32 _userId, bytes32 _companyName, bytes32 _companyNumber, bytes2 countryCode);\n    event EventNewInvoice(bytes32 _blockchainActionId, bytes32 _providerUserId, bytes2 invoiceCountryCode, bytes32 invoiceCompanyNumber, bytes32 invoiceCompanyName, bytes32 invoiceNumber);\n    event EventProviderEnabled(bytes32 _blockchainActionId, bytes32 _userId, bytes2 _countryCode, bytes32 _companyNumber);\n    event EventProviderDisabled(bytes32 _blockchainActionId, bytes32 _userId, bytes2 _countryCode, bytes32 _companyNumber);\n    \n    // FIELDS\n\n    // livenet\n    //address public PXT = 0xc14830E53aA344E8c14603A91229A0b925b0B262;\n    //address public PPT = 0xd4fa1460F537bb9085d22C7bcCB5DD450Ef28e3a;\n    // ropsten\n    address public PXT = 0xD8A7C588f8DC19f49dAFd8ecf08eec58e64d4cC9;\n    address public PPT = 0x0ff72e24AF7c09A647865820D4477F98fcB72a2c;\n\n    // NON-CONSTANT METHODS\n    // Constructor method called when contract instance is \n    // deployed with 'withAccessManager' modifier.\n    function Populous(address _accessManager) public withAccessManager(_accessManager) {}\n    /**\n    BANK MODULE\n    */\n\n\n    // NON-CONSTANT METHODS\n     \n    /// Ether to XAUP exchange between deposit contract and Populous.sol\n    function exchangeXAUP(\n        address _dataManager, bytes32 _blockchainActionId, \n        address _xaup, uint eth_amount, uint xaup_amount, \n        uint _tokenId, bytes32 _clientId, address adminExternalWallet) \n        public \n        onlyServer\n    {    \n        DataManager dm = DataManager(_dataManager);\n        // client deposit smart contract address\n        address _from = dm.getDepositAddress(_clientId);\n        require(_dataManager != 0x0 && _from != 0x0 && _xaup != 0x0);\n        // check action id, deposit address is valid and deposit contract address version is >= version 2\n        require(dm.getActionStatus(_blockchainActionId) == false && dm.getDepositAddress(_clientId) != 0x0);\n        require(DepositContract(dm.getDepositAddress(_clientId)).getVersion() >= 2);\n        // check populous erc1155 balance\n        ERC1155 xa = ERC1155(_xaup);\n        require(xa.balanceOf(_tokenId, this) >= xaup_amount);\n        // transfer ether balance from clients deposit contract to server\n        require(DepositContract(_from).transferEther(adminExternalWallet, eth_amount) == true);\n        // transfer xaup tokens to clients deposit address\n        xa.safeTransferFrom(this, _from, _tokenId, xaup_amount, \"\");\n        require(dm.setBlockchainActionData(_blockchainActionId, 0x0, eth_amount, _clientId, _from, 0) == true);\n         // emit event \n        EventExchangeXAUp(_blockchainActionId, _xaup, eth_amount, xaup_amount, _tokenId, _clientId, _from);\n    }\n\n    /// @notice Handle the receipt of an ERC1155 type\n    /// @dev The smart contract calls this function on the recipient\n    ///  after a `safeTransfer`. This function MAY throw to revert and reject the\n    ///  transfer. Return of other than the magic value MUST result in the\n    ///  transaction being reverted.\n    ///  Note: the contract address is always the message sender.\n    /// @param _operator The address which called `safeTransferFrom` function\n    /// @param _from The address which previously owned the token\n    /// @param _id The identifier of the item being transferred\n    /// @param _value The amount of the item being transferred\n    /// @param _data Additional data with no specified format\n    /// @return `bytes4(keccak256(\"onERC1155Received(address,address,uint256,uint256,bytes)\"))`\n    ///  unless throwing\n    function onERC1155Received(address _operator, address _from, uint256 _id, uint256 _value, bytes _data) public returns(bytes4) {\n        return 0xf23a6e61;\n    }\n\n    /**\n    * @notice Handle the receipt of an NFT\n    * @dev The ERC721 smart contract calls this function on the recipient\n    * after a `safetransfer` if the recipient is a smart contract. This function MAY throw to revert and reject the\n    * transfer. Return of other than the magic value (0x150b7a02) MUST result in the\n    * transaction being reverted.\n    * Note: the contract address is always the message sender.\n    * @param _operator The address which called `safeTransferFrom` function\n    * @param _from The address which previously owned the token\n    * @param _tokenId The NFT identifier which is being transferred\n    * @param _data Additional data with no specified format\n    * @return `bytes4(keccak256(\"onERC721Received(address,address,uint256,bytes)\"))`\n    */\n    function onERC721Received(address _operator, address _from, uint256 _tokenId, bytes _data) public returns(bytes4) {\n        return 0x150b7a02; \n    }\n\n    /** @dev Creates a new 'depositAddress' gotten from deploying a deposit contract linked to a client ID\n      * @param clientId The bytes32 client ID\n      * @return address The address of the deployed deposit contract instance.\n      */\n    function createAddress(address _dataManager, bytes32 _blockchainActionId, bytes32 clientId) public\n        onlyServer\n    {   \n        require(_dataManager != 0x0);\n        DataManager dm = DataManager(_dataManager);\n        DepositContract newDepositContract = new DepositContract(clientId, AM);\n\n        DepositContract dc;\n        if (dm.getDepositAddress(clientId) != 0x0) {\n            dc = DepositContract(dm.getDepositAddress(clientId));\n            require(!dc.call(bytes4(keccak256(\"getVersion()\"))));\n            if(dc.balanceOf(PXT) > 0){\n                require(dc.transfer(PXT, newDepositContract, dc.balanceOf(PXT)) == true);\n            }\n            if(dc.balanceOf(PPT) > 0) {\n                require(dc.transfer(PPT, newDepositContract, dc.balanceOf(PPT)) == true);\n            }\n            require(dm._setDepositAddress(_blockchainActionId, clientId, newDepositContract) == true);\n            assert(dm.getDepositAddress(clientId) != 0x0);\n            //require(dm.setBlockchainActionData(_blockchainActionId, 0x0, 0, clientId, dm.getDepositAddress(clientId), 0) == true);\n            // old deposit contract, new deposit contract, client id, deposit contract/wallet version\n            EventDepositAddressUpgrade(dc, newDepositContract, clientId, newDepositContract.getVersion());\n        } else { \n            require(dm.setDepositAddress(_blockchainActionId, newDepositContract, clientId) == true);\n            assert(dm.getDepositAddress(clientId) != 0x0);\n            require(dm.setBlockchainActionData(_blockchainActionId, 0x0, 0, clientId, dm.getDepositAddress(clientId), 0) == true);\n            EventNewDepositContract(_blockchainActionId, clientId, dm.getDepositAddress(clientId), newDepositContract.getVersion());\n        }\n    }\n\n    /** @dev Creates a new token/currency.\n      * @param _tokenName  The name of the currency.\n      * @param _decimalUnits The number of decimals the currency has.\n      * @param _tokenSymbol The currency symbol, e.g., GBP\n      */\n    function createCurrency(\n        address _dataManager, bytes32 _blockchainActionId, \n        bytes32 _tokenName, uint8 _decimalUnits, bytes32 _tokenSymbol)\n        public\n        onlyServer\n    {   \n        require(_dataManager != 0x0);\n        DataManager dm = DataManager(_dataManager);\n        // Check if currency already exists\n        //require(currencies[_tokenSymbol] == 0x0);\n        require(dm.setCurrency(_blockchainActionId, new CurrencyToken(address(AM), _tokenName, _decimalUnits, _tokenSymbol), _tokenSymbol) == true);\n        require(dm.setBlockchainActionData(_blockchainActionId, _tokenSymbol, 0, 0x0, dm.getCurrency(_tokenSymbol), 0) == true);\n        EventNewCurrency(_blockchainActionId, _tokenName, _decimalUnits, _tokenSymbol, dm.getCurrency(_tokenSymbol));\n    }\n\n\n    /** @dev Add a new invoice provider to the platform  \n      * @param _blockchainActionId the blockchain action id\n      * @param _userId the user id of the provider\n      * @param _companyNumber the providers company number\n      * @param _companyName the providers company name\n      * @param _countryCode the providers country code\n      */\n    function addProvider(\n        address _dataManager, bytes32 _blockchainActionId, \n        bytes32 _userId, bytes32 _companyNumber, \n        bytes32 _companyName, bytes2 _countryCode) \n        public \n        onlyServer\n    {   \n        require(_dataManager != 0x0);\n        DataManager dm = DataManager(_dataManager);\n        require(dm.setProvider(_blockchainActionId, _userId, _companyNumber, _companyName, _countryCode) == true);\n        require(dm.setBlockchainActionData(_blockchainActionId, 0x0, 0, _userId, 0x0, 0) == true);\n        EventNewProvider(_blockchainActionId, _userId, _companyName, _companyNumber, _countryCode);\n    }\n\n    /** @dev Add a new crowdsale invoice from an invoice provider to the platform  \n      * @param _blockchainActionId the blockchain action id\n      * @param _providerUserId the user id of the provider\n      * @param _invoiceCompanyNumber the providers company number\n      * @param _invoiceCompanyName the providers company name\n      * @param _invoiceCountryCode the providers country code\n      * @param _invoiceNumber the invoice identification number\n      */\n    function addInvoice(\n        address _dataManager, bytes32 _blockchainActionId, \n        bytes32 _providerUserId, bytes2 _invoiceCountryCode, \n        bytes32 _invoiceCompanyNumber, bytes32 _invoiceCompanyName, bytes32 _invoiceNumber)\n        public\n        onlyServer\n    {\n        require(_dataManager != 0x0);\n        DataManager dm = DataManager(_dataManager);\n        bytes2 countryCode; \n        bytes32 companyName; \n        bytes32 companyNumber;\n        (countryCode, companyName, companyNumber) = dm.getProviderByUserId(_providerUserId);\n        //require(dm.getProviderStatus(_providerUserId) == true);\n        require(countryCode != 0x0 && companyName != 0x0 && companyNumber != 0x0);\n        require(dm.setInvoice(_blockchainActionId, _providerUserId, _invoiceCountryCode, _invoiceCompanyNumber, _invoiceCompanyName, _invoiceNumber) == true);\n        require(dm.setBlockchainActionData(_blockchainActionId, 0x0, 0, _providerUserId, 0x0, 0) == true);\n        EventNewInvoice(_blockchainActionId, _providerUserId, _invoiceCountryCode, _invoiceCompanyNumber, _invoiceCompanyName, _invoiceNumber);\n    }\n\n    /** @dev Import an amount of pokens of a particular currency from an ethereum wallet/address to bank\n      * @param _blockchainActionId the blockchain action id\n      * @param accountId the account id of the client\n      * @param from the blockchain address to import pokens from\n      * @param currency the poken currency\n      */\n\n    function withdrawPoken(\n        address _dataManager, bytes32 _blockchainActionId, \n        bytes32 currency, uint256 amount,\n        address from, address to, bytes32 accountId, uint256 inCollateral,\n        address pptAddress, uint256 pptFee, address adminExternalWallet, bool toBank) \n        public \n        onlyServer \n    {\n        require(_dataManager != 0x0);\n        //DataManager dm = DataManager(_dataManager);\n        require(DataManager(_dataManager).getActionStatus(_blockchainActionId) == false && DataManager(_dataManager).getDepositAddress(accountId) != 0x0);\n        require(adminExternalWallet != 0x0 && pptFee > 0);\n        require(amount > 0 && DataManager(_dataManager).getCurrency(currency) != 0x0);\n        DepositContract o = DepositContract(DataManager(_dataManager).getDepositAddress(accountId));\n        // check if pptbalance minus collateral held is more than pptFee then transfer pptFee from users ppt deposit to adminWallet\n        require(SafeMath.safeSub(o.balanceOf(pptAddress), inCollateral) >= pptFee);\n        require(o.transfer(pptAddress, adminExternalWallet, pptFee) == true);\n       \n        // WITHDRAW PART / DEBIT\n        if(amount > CurrencyToken(DataManager(_dataManager).getCurrency(currency)).balanceOf(from)) {\n                // destroying total balance\n            require(CurrencyToken(DataManager(_dataManager).getCurrency(currency)).destroyTokensFrom(CurrencyToken(DataManager(_dataManager).getCurrency(currency)).balanceOf(from), from) == true);\n            //remaining ledger balance. deposit address is 0\n        } else {\n                // destroy amount from balance\n            require(CurrencyToken(DataManager(_dataManager).getCurrency(currency)).destroyTokensFrom(amount, from) == true);\n            //left over deposit address balance.\n        }\n\n        // TRANSFER PART / CREDIT\n        if(toBank == true) {\n            require(DataManager(_dataManager).setBlockchainActionData(_blockchainActionId, currency, amount, accountId, from, pptFee) == true); \n            //emit event: Imported currency to system\n            EventWithdrawPoken(_blockchainActionId, accountId, currency, amount, toBank);\n        } else {\n            CurrencyToken(DataManager(_dataManager).getCurrency(currency)).mintTokens(amount);\n            //credit account\n            CurrencyToken(DataManager(_dataManager).getCurrency(currency)).transfer(to, amount);\n            require(DataManager(_dataManager).setBlockchainActionData(_blockchainActionId, currency, amount, accountId, to, pptFee) == true); \n            EventWithdrawPoken(_blockchainActionId, accountId, currency, amount, toBank);\n        }    \n    }\n\n    /** @dev Withdraw an amount of PPT Populous tokens to a blockchain address \n      * @param _blockchainActionId the blockchain action id\n      * @param pptAddress the address of the PPT smart contract\n      * @param accountId the account id of the client\n      * @param pptFee the amount of fees to pay in PPT tokens\n      * @param adminExternalWallet the platform admin wallet address to pay the fees to \n      * @param to the blockchain address to withdraw and transfer the pokens to\n      * @param inCollateral the amount of pokens withheld by the platform\n      */    \n    function withdrawERC20(\n        address _dataManager, bytes32 _blockchainActionId, \n        address pptAddress, bytes32 accountId, \n        address to, uint256 amount, uint256 inCollateral, uint256 pptFee, address adminExternalWallet) \n        public \n        onlyServer \n    {   \n        require(_dataManager != 0x0);\n        //DataManager dm = DataManager(_dataManager);\n        require(DataManager(_dataManager).getActionStatus(_blockchainActionId) == false && DataManager(_dataManager).getDepositAddress(accountId) != 0x0);\n        require(adminExternalWallet != 0x0 && pptFee > 0 && amount > 0);\n        address depositContract = DataManager(_dataManager).getDepositAddress(accountId);\n        uint pptBalance = SafeMath.safeSub(DepositContract(depositContract).balanceOf(pptAddress), inCollateral);\n        require(pptBalance >= SafeMath.safeAdd(amount, pptFee));\n        require(DepositContract(depositContract).transfer(pptAddress, to, amount) == true);\n        require(DepositContract(depositContract).transfer(pptAddress, adminExternalWallet, pptFee) == true); \n        bytes32 tokenSymbol = iERC20Token(pptAddress).symbol();    \n        require(DataManager(_dataManager).setBlockchainActionData(_blockchainActionId, tokenSymbol, amount, accountId, to, pptFee) == true);\n        EventWithdrawPPT(_blockchainActionId, accountId, DataManager(_dataManager).getDepositAddress(accountId), to, amount);\n    }\n\n    // CONSTANT METHODS\n}",
  "sourcePath": "/Users/najienka/Desktop/populous-smartcontracts/contracts/Populous.sol",
  "schemaVersion": "1.0.0",
  "updatedAt": "2018-10-30T14:37:43.029Z"
}