{
  "contractName": "Populous",
  "abi": [
    {
      "constant": false,
      "inputs": [
        {
          "name": "_accessManager",
          "type": "address"
        }
      ],
      "name": "updateAccessManager",
      "outputs": [],
      "payable": false,
      "stateMutability": "nonpayable",
      "type": "function"
    },
    {
      "constant": false,
      "inputs": [
        {
          "name": "_dataManager",
          "type": "address"
        },
        {
          "name": "_blockchainActionId",
          "type": "bytes32"
        },
        {
          "name": "_tokenName",
          "type": "bytes32"
        },
        {
          "name": "_decimalUnits",
          "type": "uint8"
        },
        {
          "name": "_tokenSymbol",
          "type": "bytes32"
        }
      ],
      "name": "createCurrency",
      "outputs": [],
      "payable": false,
      "stateMutability": "nonpayable",
      "type": "function"
    },
    {
      "constant": true,
      "inputs": [],
      "name": "PXT",
      "outputs": [
        {
          "name": "",
          "type": "address"
        }
      ],
      "payable": false,
      "stateMutability": "view",
      "type": "function"
    },
    {
      "constant": false,
      "inputs": [
        {
          "name": "_dataManager",
          "type": "address"
        },
        {
          "name": "_blockchainActionId",
          "type": "bytes32"
        },
        {
          "name": "pptAddress",
          "type": "address"
        },
        {
          "name": "accountId",
          "type": "bytes32"
        },
        {
          "name": "to",
          "type": "address"
        },
        {
          "name": "amount",
          "type": "uint256"
        },
        {
          "name": "inCollateral",
          "type": "uint256"
        },
        {
          "name": "pptFee",
          "type": "uint256"
        },
        {
          "name": "adminExternalWallet",
          "type": "address"
        }
      ],
      "name": "withdrawERC20",
      "outputs": [],
      "payable": false,
      "stateMutability": "nonpayable",
      "type": "function"
    },
    {
      "constant": true,
      "inputs": [],
      "name": "PPT",
      "outputs": [
        {
          "name": "",
          "type": "address"
        }
      ],
      "payable": false,
      "stateMutability": "view",
      "type": "function"
    },
    {
      "constant": false,
      "inputs": [
        {
          "name": "_dataManager",
          "type": "address"
        },
        {
          "name": "_blockchainActionId",
          "type": "bytes32"
        },
        {
          "name": "currency",
          "type": "bytes32"
        },
        {
          "name": "amount",
          "type": "uint256"
        },
        {
          "name": "from",
          "type": "address"
        },
        {
          "name": "to",
          "type": "address"
        },
        {
          "name": "accountId",
          "type": "bytes32"
        },
        {
          "name": "inCollateral",
          "type": "uint256"
        },
        {
          "name": "pptAddress",
          "type": "address"
        },
        {
          "name": "pptFee",
          "type": "uint256"
        },
        {
          "name": "adminExternalWallet",
          "type": "address"
        },
        {
          "name": "toBank",
          "type": "bool"
        }
      ],
      "name": "withdrawPoken",
      "outputs": [],
      "payable": false,
      "stateMutability": "nonpayable",
      "type": "function"
    },
    {
      "constant": false,
      "inputs": [
        {
          "name": "_dataManager",
          "type": "address"
        },
        {
          "name": "_blockchainActionId",
          "type": "bytes32"
        },
        {
          "name": "clientId",
          "type": "bytes32"
        }
      ],
      "name": "createAddress",
      "outputs": [],
      "payable": false,
      "stateMutability": "nonpayable",
      "type": "function"
    },
    {
      "constant": false,
      "inputs": [
        {
          "name": "_dataManager",
          "type": "address"
        },
        {
          "name": "_blockchainActionId",
          "type": "bytes32"
        },
        {
          "name": "_providerUserId",
          "type": "bytes32"
        },
        {
          "name": "_invoiceCountryCode",
          "type": "bytes2"
        },
        {
          "name": "_invoiceCompanyNumber",
          "type": "bytes32"
        },
        {
          "name": "_invoiceCompanyName",
          "type": "bytes32"
        },
        {
          "name": "_invoiceNumber",
          "type": "bytes32"
        }
      ],
      "name": "addInvoice",
      "outputs": [],
      "payable": false,
      "stateMutability": "nonpayable",
      "type": "function"
    },
    {
      "constant": false,
      "inputs": [
        {
          "name": "_dataManager",
          "type": "address"
        },
        {
          "name": "_blockchainActionId",
          "type": "bytes32"
        },
        {
          "name": "_userId",
          "type": "bytes32"
        },
        {
          "name": "_companyNumber",
          "type": "bytes32"
        },
        {
          "name": "_companyName",
          "type": "bytes32"
        },
        {
          "name": "_countryCode",
          "type": "bytes2"
        }
      ],
      "name": "addProvider",
      "outputs": [],
      "payable": false,
      "stateMutability": "nonpayable",
      "type": "function"
    },
    {
      "constant": true,
      "inputs": [],
      "name": "AM",
      "outputs": [
        {
          "name": "",
          "type": "address"
        }
      ],
      "payable": false,
      "stateMutability": "view",
      "type": "function"
    },
    {
      "inputs": [
        {
          "name": "_accessManager",
          "type": "address"
        }
      ],
      "payable": false,
      "stateMutability": "nonpayable",
      "type": "constructor"
    },
    {
      "anonymous": false,
      "inputs": [
        {
          "indexed": false,
          "name": "oldDepositContract",
          "type": "address"
        },
        {
          "indexed": false,
          "name": "newDepositContract",
          "type": "address"
        },
        {
          "indexed": false,
          "name": "clientId",
          "type": "bytes32"
        },
        {
          "indexed": false,
          "name": "version",
          "type": "uint256"
        }
      ],
      "name": "DepositAddressUpgrade",
      "type": "event"
    },
    {
      "anonymous": false,
      "inputs": [
        {
          "indexed": false,
          "name": "blockchainActionId",
          "type": "bytes32"
        },
        {
          "indexed": false,
          "name": "accountId",
          "type": "bytes32"
        },
        {
          "indexed": false,
          "name": "depositContract",
          "type": "address"
        },
        {
          "indexed": false,
          "name": "to",
          "type": "address"
        },
        {
          "indexed": false,
          "name": "amount",
          "type": "uint256"
        }
      ],
      "name": "EventWithdrawPPT",
      "type": "event"
    },
    {
      "anonymous": false,
      "inputs": [
        {
          "indexed": false,
          "name": "_blockchainActionId",
          "type": "bytes32"
        },
        {
          "indexed": false,
          "name": "accountId",
          "type": "bytes32"
        },
        {
          "indexed": false,
          "name": "currency",
          "type": "bytes32"
        },
        {
          "indexed": false,
          "name": "amount",
          "type": "uint256"
        },
        {
          "indexed": false,
          "name": "toBank",
          "type": "bool"
        }
      ],
      "name": "EventWithdrawPoken",
      "type": "event"
    },
    {
      "anonymous": false,
      "inputs": [
        {
          "indexed": false,
          "name": "blockchainActionId",
          "type": "bytes32"
        },
        {
          "indexed": false,
          "name": "tokenName",
          "type": "bytes32"
        },
        {
          "indexed": false,
          "name": "decimalUnits",
          "type": "uint8"
        },
        {
          "indexed": false,
          "name": "tokenSymbol",
          "type": "bytes32"
        },
        {
          "indexed": false,
          "name": "addr",
          "type": "address"
        }
      ],
      "name": "EventNewCurrency",
      "type": "event"
    },
    {
      "anonymous": false,
      "inputs": [
        {
          "indexed": false,
          "name": "blockchainActionId",
          "type": "bytes32"
        },
        {
          "indexed": false,
          "name": "tokenName",
          "type": "bytes32"
        },
        {
          "indexed": false,
          "name": "decimalUnits",
          "type": "uint8"
        },
        {
          "indexed": false,
          "name": "tokenSymbol",
          "type": "bytes32"
        },
        {
          "indexed": false,
          "name": "addr",
          "type": "address"
        },
        {
          "indexed": false,
          "name": "version",
          "type": "uint256"
        }
      ],
      "name": "EventUpgradeCurrency",
      "type": "event"
    },
    {
      "anonymous": false,
      "inputs": [
        {
          "indexed": false,
          "name": "blockchainActionId",
          "type": "bytes32"
        },
        {
          "indexed": false,
          "name": "clientId",
          "type": "bytes32"
        },
        {
          "indexed": false,
          "name": "depositContractAddress",
          "type": "address"
        },
        {
          "indexed": false,
          "name": "version",
          "type": "uint256"
        }
      ],
      "name": "EventNewDepositContract",
      "type": "event"
    },
    {
      "anonymous": false,
      "inputs": [
        {
          "indexed": false,
          "name": "blockchainActionId",
          "type": "bytes32"
        },
        {
          "indexed": false,
          "name": "clientId",
          "type": "bytes32"
        },
        {
          "indexed": false,
          "name": "depositContractAddress",
          "type": "address"
        },
        {
          "indexed": false,
          "name": "version",
          "type": "uint256"
        }
      ],
      "name": "EventUpgradeDepositContract",
      "type": "event"
    },
    {
      "anonymous": false,
      "inputs": [
        {
          "indexed": false,
          "name": "_blockchainActionId",
          "type": "bytes32"
        },
        {
          "indexed": false,
          "name": "_userId",
          "type": "bytes32"
        },
        {
          "indexed": false,
          "name": "_companyName",
          "type": "bytes32"
        },
        {
          "indexed": false,
          "name": "_companyNumber",
          "type": "bytes32"
        },
        {
          "indexed": false,
          "name": "countryCode",
          "type": "bytes2"
        }
      ],
      "name": "EventNewProvider",
      "type": "event"
    },
    {
      "anonymous": false,
      "inputs": [
        {
          "indexed": false,
          "name": "_blockchainActionId",
          "type": "bytes32"
        },
        {
          "indexed": false,
          "name": "_providerUserId",
          "type": "bytes32"
        },
        {
          "indexed": false,
          "name": "invoiceCountryCode",
          "type": "bytes2"
        },
        {
          "indexed": false,
          "name": "invoiceCompanyNumber",
          "type": "bytes32"
        },
        {
          "indexed": false,
          "name": "invoiceCompanyName",
          "type": "bytes32"
        },
        {
          "indexed": false,
          "name": "invoiceNumber",
          "type": "bytes32"
        }
      ],
      "name": "EventNewInvoice",
      "type": "event"
    },
    {
      "anonymous": false,
      "inputs": [
        {
          "indexed": false,
          "name": "_blockchainActionId",
          "type": "bytes32"
        },
        {
          "indexed": false,
          "name": "_userId",
          "type": "bytes32"
        },
        {
          "indexed": false,
          "name": "_countryCode",
          "type": "bytes2"
        },
        {
          "indexed": false,
          "name": "_companyNumber",
          "type": "bytes32"
        }
      ],
      "name": "EventProviderEnabled",
      "type": "event"
    },
    {
      "anonymous": false,
      "inputs": [
        {
          "indexed": false,
          "name": "_blockchainActionId",
          "type": "bytes32"
        },
        {
          "indexed": false,
          "name": "_userId",
          "type": "bytes32"
        },
        {
          "indexed": false,
          "name": "_countryCode",
          "type": "bytes2"
        },
        {
          "indexed": false,
          "name": "_companyNumber",
          "type": "bytes32"
        }
      ],
      "name": "EventProviderDisabled",
      "type": "event"
    }
  ],
  "bytecode": "0x606060405260018054600160a060020a031990811673d8a7c588f8dc19f49dafd8ecf08eec58e64d4cc91790915560028054909116730ff72e24af7c09a647865820d4477f98fcb72a2c179055341561005757600080fd5b604051602080613d9d8339810160405280805160008054600160a060020a03909216600160a060020a03199092169190911790555050613d018061009c6000396000f300606060405236156100885763ffffffff60e060020a60003504166302ab72c4811461008d5780630b180e08146100ae57806338cb3dd1146100dc5780633da4138c1461010b578063678b201214610151578063a6d1fe4914610164578063a78caf19146101bc578063aa1b6fc6146101e1578063dcaa41971461021c578063f7f01b4b14610254575b600080fd5b341561009857600080fd5b6100ac600160a060020a0360043516610267565b005b34156100b957600080fd5b6100ac600160a060020a036004351660243560443560ff6064351660843561031a565b34156100e757600080fd5b6100ef610674565b604051600160a060020a03909116815260200160405180910390f35b341561011657600080fd5b6100ac600160a060020a03600435811690602435906044358116906064359060843581169060a4359060c4359060e435906101043516610683565b341561015c57600080fd5b6100ef610c46565b341561016f57600080fd5b6100ac600160a060020a0360043581169060243590604435906064359060843581169060a43581169060c4359060e435906101043581169061012435906101443516610164351515610c55565b34156101c757600080fd5b6100ac600160a060020a036004351660243560443561176f565b34156101ec57600080fd5b6100ac600160a060020a0360043516602435604435600160f060020a03196064351660843560a43560c43561222d565b341561022757600080fd5b6100ac600160a060020a0360043516602435604435606435608435600160f060020a031960a43516612540565b341561025f57600080fd5b6100ef612788565b60008054600160a060020a03169063fda089589033906040516020015260405160e060020a63ffffffff8416028152600160a060020a039091166004820152602401602060405180830381600087803b15156102c257600080fd5b6102c65a03f115156102d357600080fd5b5050506040518051151560011490506102eb57600080fd5b6000805473ffffffffffffffffffffffffffffffffffffffff1916600160a060020a0392909216919091179055565b60008054600160a060020a031663fda0895833836040516020015260405160e060020a63ffffffff8416028152600160a060020a039091166004820152602401602060405180830381600087803b151561037357600080fd5b6102c65a03f1151561038457600080fd5b50505060405180511515600114905061039c57600080fd5b600160a060020a03861615156103b157600080fd5b506000548590600160a060020a038083169163c7062df3918891168787876103d76127cd565b600160a060020a039094168452602084019290925260ff16604080840191909152606083019190915260809091019051809103906000f080151561041a57600080fd5b8560006040516020015260405160e060020a63ffffffff86160281526004810193909352600160a060020a0390911660248301526044820152606401602060405180830381600087803b151561046f57600080fd5b6102c65a03f1151561048057600080fd5b50505060405180511515600114905061049857600080fd5b600160a060020a0381166392c4b86786846000808563d383b80d84836040516020015260405160e060020a63ffffffff84160281526004810191909152602401602060405180830381600087803b15156104f157600080fd5b6102c65a03f1151561050257600080fd5b505050604051805190506000806040516020015260405160e060020a63ffffffff89160281526004810196909652602486019490945260448501929092526064840152600160a060020a0316608483015260a482015260c401602060405180830381600087803b151561057457600080fd5b6102c65a03f1151561058557600080fd5b50505060405180511515600114905061059d57600080fd5b7f6f9a94a4b659b99ce71e6f2eaa4b609443bd0350f9e1f7b2d566815cb90f0e968585858585600160a060020a031663d383b80d8860006040516020015260405160e060020a63ffffffff84160281526004810191909152602401602060405180830381600087803b151561061157600080fd5b6102c65a03f1151561062257600080fd5b50505060405180519050604051948552602085019390935260ff9091166040808501919091526060840191909152600160a060020a03909116608083015260a0909101905180910390a1505050505050565b600154600160a060020a031681565b6000805481908190600160a060020a031663fda0895833836040516020015260405160e060020a63ffffffff8416028152600160a060020a039091166004820152602401602060405180830381600087803b15156106e057600080fd5b6102c65a03f115156106f157600080fd5b50505060405180511515600114905061070957600080fd5b600160a060020a038c16151561071e57600080fd5b8b600160a060020a031663bea0897c8c60006040516020015260405160e060020a63ffffffff84160281526004810191909152602401602060405180830381600087803b151561076d57600080fd5b6102c65a03f1151561077e57600080fd5b5050506040518051159050801561080657508b600160a060020a0316632a01a4518a60006040516020015260405160e060020a63ffffffff84160281526004810191909152602401602060405180830381600087803b15156107df57600080fd5b6102c65a03f115156107f057600080fd5b5050506040518051600160a060020a0316151590505b151561081157600080fd5b600160a060020a038416158015906108295750600085115b80156108355750600087115b151561084057600080fd5b8b600160a060020a0316632a01a4518a60006040516020015260405160e060020a63ffffffff84160281526004810191909152602401602060405180830381600087803b151561088f57600080fd5b6102c65a03f115156108a057600080fd5b50505060405180519050925061092783600160a060020a03166370a082318c60006040516020015260405160e060020a63ffffffff8416028152600160a060020a039091166004820152602401602060405180830381600087803b151561090657600080fd5b6102c65a03f1151561091757600080fd5b5050506040518051905087612797565b915061093387866127a9565b82101561093f57600080fd5b82600160a060020a031663beabacc88b8a8a60006040516020015260405160e060020a63ffffffff8616028152600160a060020a0393841660048201529190921660248201526044810191909152606401602060405180830381600087803b15156109a957600080fd5b6102c65a03f115156109ba57600080fd5b5050506040518051151560011490506109d257600080fd5b82600160a060020a031663beabacc88b868860006040516020015260405160e060020a63ffffffff8616028152600160a060020a0393841660048201529190921660248201526044810191909152606401602060405180830381600087803b1515610a3c57600080fd5b6102c65a03f11515610a4d57600080fd5b505050604051805115156001149050610a6557600080fd5b89600160a060020a03166395d89b416000604051602001526040518163ffffffff1660e060020a028152600401602060405180830381600087803b1515610aab57600080fd5b6102c65a03f11515610abc57600080fd5b5050506040518051915050600160a060020a038c166392c4b8678c838a8d8d8b60006040516020015260405160e060020a63ffffffff89160281526004810196909652602486019490945260448501929092526064840152600160a060020a0316608483015260a482015260c401602060405180830381600087803b1515610b4357600080fd5b6102c65a03f11515610b5457600080fd5b505050604051805115156001149050610b6c57600080fd5b7fb34e83f654f4c047e331cea47cc1783dd0511abde3cac240a47bfbdefd6812e88b8a8e600160a060020a0316632a01a4518d60006040516020015260405160e060020a63ffffffff84160281526004810191909152602401602060405180830381600087803b1515610bde57600080fd5b6102c65a03f11515610bef57600080fd5b505050604051805190508b8b6040519485526020850193909352600160a060020a0391821660408086019190915291166060840152608083019190915260a0909101905180910390a1505050505050505050505050565b600254600160a060020a031681565b60008054600160a060020a031663fda0895833836040516020015260405160e060020a63ffffffff8416028152600160a060020a039091166004820152602401602060405180830381600087803b1515610cae57600080fd5b6102c65a03f11515610cbf57600080fd5b505050604051805115156001149050610cd757600080fd5b600160a060020a038d161515610cec57600080fd5b8c600160a060020a031663bea0897c8d60006040516020015260405160e060020a63ffffffff84160281526004810191909152602401602060405180830381600087803b1515610d3b57600080fd5b6102c65a03f11515610d4c57600080fd5b50505060405180511590508015610dd457508c600160a060020a0316632a01a4518860006040516020015260405160e060020a63ffffffff84160281526004810191909152602401602060405180830381600087803b1515610dad57600080fd5b6102c65a03f11515610dbe57600080fd5b5050506040518051600160a060020a0316151590505b1515610ddf57600080fd5b600160a060020a03831615801590610df75750600084115b1515610e0257600080fd5b60008a118015610e8357508c600160a060020a031663d383b80d8c60006040516020015260405160e060020a63ffffffff84160281526004810191909152602401602060405180830381600087803b1515610e5c57600080fd5b6102c65a03f11515610e6d57600080fd5b5050506040518051600160a060020a0316151590505b1515610e8e57600080fd5b8c600160a060020a0316632a01a4518860006040516020015260405160e060020a63ffffffff84160281526004810191909152602401602060405180830381600087803b1515610edd57600080fd5b6102c65a03f11515610eee57600080fd5b50505060405180519050905083610f7682600160a060020a03166370a082318860006040516020015260405160e060020a63ffffffff8416028152600160a060020a039091166004820152602401602060405180830381600087803b1515610f5557600080fd5b6102c65a03f11515610f6657600080fd5b5050506040518051905088612797565b1015610f8157600080fd5b80600160a060020a031663beabacc886858760006040516020015260405160e060020a63ffffffff8616028152600160a060020a0393841660048201529190921660248201526044810191909152606401602060405180830381600087803b1515610feb57600080fd5b6102c65a03f11515610ffc57600080fd5b50505060405180511515600114905061101457600080fd5b8c600160a060020a031663d383b80d8c60006040516020015260405160e060020a63ffffffff84160281526004810191909152602401602060405180830381600087803b151561106357600080fd5b6102c65a03f1151561107457600080fd5b50505060405180519050600160a060020a03166370a082318a60006040516020015260405160e060020a63ffffffff8416028152600160a060020a039091166004820152602401602060405180830381600087803b15156110d457600080fd5b6102c65a03f115156110e557600080fd5b505050604051805190508a11156112c5578c600160a060020a031663d383b80d8c60006040516020015260405160e060020a63ffffffff84160281526004810191909152602401602060405180830381600087803b151561114557600080fd5b6102c65a03f1151561115657600080fd5b50505060405180519050600160a060020a0316630156b3238e600160a060020a031663d383b80d8e60006040516020015260405160e060020a63ffffffff84160281526004810191909152602401602060405180830381600087803b15156111bd57600080fd5b6102c65a03f115156111ce57600080fd5b50505060405180519050600160a060020a03166370a082318c60006040516020015260405160e060020a63ffffffff8416028152600160a060020a039091166004820152602401602060405180830381600087803b151561122e57600080fd5b6102c65a03f1151561123f57600080fd5b505050604051805190508b60006040516020015260405160e060020a63ffffffff85160281526004810192909252600160a060020a03166024820152604401602060405180830381600087803b151561129757600080fd5b6102c65a03f115156112a857600080fd5b5050506040518051151560011490506112c057600080fd5b6113b5565b8c600160a060020a031663d383b80d8c60006040516020015260405160e060020a63ffffffff84160281526004810191909152602401602060405180830381600087803b151561131457600080fd5b6102c65a03f1151561132557600080fd5b50505060405180519050600160a060020a0316630156b3238b8b60006040516020015260405160e060020a63ffffffff85160281526004810192909252600160a060020a03166024820152604401602060405180830381600087803b151561138c57600080fd5b6102c65a03f1151561139d57600080fd5b5050506040518051151560011490506113b557600080fd5b600182151514156114c0578c600160a060020a03166392c4b8678d8d8d8b8e8a60006040516020015260405160e060020a63ffffffff89160281526004810196909652602486019490945260448501929092526064840152600160a060020a0316608483015260a482015260c401602060405180830381600087803b151561143c57600080fd5b6102c65a03f1151561144d57600080fd5b50505060405180511515600114905061146557600080fd5b7f471ca94ad77c519a81da4f8dc0fe508299cb64c10c988cc641abbaede6c075ff8c888d8d8660405194855260208501939093526040808501929092526060840152901515608083015260a0909101905180910390a1611760565b8c600160a060020a031663d383b80d8c60006040516020015260405160e060020a63ffffffff84160281526004810191909152602401602060405180830381600087803b151561150f57600080fd5b6102c65a03f1151561152057600080fd5b50505060405180519050600160a060020a03166397304ced8b60405160e060020a63ffffffff84160281526004810191909152602401600060405180830381600087803b151561156f57600080fd5b6102c65a03f1151561158057600080fd5b5050508c600160a060020a031663d383b80d8c60006040516020015260405160e060020a63ffffffff84160281526004810191909152602401602060405180830381600087803b15156115d257600080fd5b6102c65a03f115156115e357600080fd5b50505060405180519050600160a060020a031663a9059cbb898c60006040516020015260405160e060020a63ffffffff8516028152600160a060020a0390921660048301526024820152604401602060405180830381600087803b151561164957600080fd5b6102c65a03f1151561165a57600080fd5b50505060405180515050600160a060020a038d166392c4b8678d8d8d8b8d8a60006040516020015260405160e060020a63ffffffff89160281526004810196909652602486019490945260448501929092526064840152600160a060020a0316608483015260a482015260c401602060405180830381600087803b15156116e057600080fd5b6102c65a03f115156116f157600080fd5b50505060405180511515600114905061170957600080fd5b7f471ca94ad77c519a81da4f8dc0fe508299cb64c10c988cc641abbaede6c075ff8c888d8d8660405194855260208501939093526040808501929092526060840152901515608083015260a0909101905180910390a15b50505050505050505050505050565b6000805481908190600160a060020a031663fda0895833836040516020015260405160e060020a63ffffffff8416028152600160a060020a039091166004820152602401602060405180830381600087803b15156117cc57600080fd5b6102c65a03f115156117dd57600080fd5b5050506040518051151560011490506117f557600080fd5b600160a060020a038616151561180a57600080fd5b85925082600160a060020a0316632a01a4518560006040516020015260405160e060020a63ffffffff84160281526004810191909152602401602060405180830381600087803b151561185c57600080fd5b6102c65a03f1151561186d57600080fd5b5050506040518051600054909350859150600160a060020a031661188f6127dd565b918252600160a060020a0316602082015260409081019051809103906000f08015156118ba57600080fd5b905081600160a060020a0316630d8e6e2c6000604051602001526040518163ffffffff1660e060020a028152600401602060405180830381600087803b151561190257600080fd5b6102c65a03f1151561191357600080fd5b50505060405180516002149050611ef357600154600090600160a060020a03808516916370a082319116836040516020015260405160e060020a63ffffffff8416028152600160a060020a039091166004820152602401602060405180830381600087803b151561198357600080fd5b6102c65a03f1151561199457600080fd5b505050604051805190501115611aa557600154600160a060020a038084169163beabacc8911683836370a082318360006040516020015260405160e060020a63ffffffff8416028152600160a060020a039091166004820152602401602060405180830381600087803b1515611a0957600080fd5b6102c65a03f11515611a1a57600080fd5b5050506040518051905060006040516020015260405160e060020a63ffffffff8616028152600160a060020a0393841660048201529190921660248201526044810191909152606401602060405180830381600087803b1515611a7c57600080fd5b6102c65a03f11515611a8d57600080fd5b505050604051805115156001149050611aa557600080fd5b600254600090600160a060020a03808416916370a082319116836040516020015260405160e060020a63ffffffff8416028152600160a060020a039091166004820152602401602060405180830381600087803b1515611b0457600080fd5b6102c65a03f11515611b1557600080fd5b505050604051805190501115611c2657600254600160a060020a038084169163beabacc8911683836370a082318360006040516020015260405160e060020a63ffffffff8416028152600160a060020a039091166004820152602401602060405180830381600087803b1515611b8a57600080fd5b6102c65a03f11515611b9b57600080fd5b5050506040518051905060006040516020015260405160e060020a63ffffffff8616028152600160a060020a0393841660048201529190921660248201526044810191909152606401602060405180830381600087803b1515611bfd57600080fd5b6102c65a03f11515611c0e57600080fd5b505050604051805115156001149050611c2657600080fd5b82600160a060020a0316630e8ba16786838760006040516020015260405160e060020a63ffffffff86160281526004810193909352600160a060020a0390911660248301526044820152606401602060405180830381600087803b1515611c8c57600080fd5b6102c65a03f11515611c9d57600080fd5b505050604051805115156001149050611cb557600080fd5b82600160a060020a0316632a01a4518560006040516020015260405160e060020a63ffffffff84160281526004810191909152602401602060405180830381600087803b1515611d0457600080fd5b6102c65a03f11515611d1557600080fd5b5050506040518051600160a060020a031615159050611d3057fe5b600160a060020a0383166392c4b867866000808885632a01a45182846040516020015260405160e060020a63ffffffff84160281526004810191909152602401602060405180830381600087803b1515611d8957600080fd5b6102c65a03f11515611d9a57600080fd5b505050604051805190506000806040516020015260405160e060020a63ffffffff89160281526004810196909652602486019490945260448501929092526064840152600160a060020a0316608483015260a482015260c401602060405180830381600087803b1515611e0c57600080fd5b6102c65a03f11515611e1d57600080fd5b505050604051805115156001149050611e3557600080fd5b7f31ab037b7773a8861b44e154e00de956ab01a5321e63f18c0e133b93649c846982828685600160a060020a0316630d8e6e2c6000604051602001526040518163ffffffff1660e060020a028152600401602060405180830381600087803b1515611e9f57600080fd5b6102c65a03f11515611eb057600080fd5b50505060405180519050604051600160a060020a0394851681529290931660208301526040808301919091526060820192909252608001905180910390a1612225565b82600160a060020a0316630e8ba16786838760006040516020015260405160e060020a63ffffffff86160281526004810193909352600160a060020a0390911660248301526044820152606401602060405180830381600087803b1515611f5957600080fd5b6102c65a03f11515611f6a57600080fd5b505050604051805115156001149050611f8257600080fd5b82600160a060020a0316632a01a4518560006040516020015260405160e060020a63ffffffff84160281526004810191909152602401602060405180830381600087803b1515611fd157600080fd5b6102c65a03f11515611fe257600080fd5b5050506040518051600160a060020a031615159050611ffd57fe5b600160a060020a0383166392c4b867866000808885632a01a45182846040516020015260405160e060020a63ffffffff84160281526004810191909152602401602060405180830381600087803b151561205657600080fd5b6102c65a03f1151561206757600080fd5b505050604051805190506000806040516020015260405160e060020a63ffffffff89160281526004810196909652602486019490945260448501929092526064840152600160a060020a0316608483015260a482015260c401602060405180830381600087803b15156120d957600080fd5b6102c65a03f115156120ea57600080fd5b50505060405180511515600114905061210257600080fd5b7f0fb3e865b3e3996382296fd8ddd17b0bb8ae5d9866b08a51945a2e58cac30730858585600160a060020a0316632a01a4518860006040516020015260405160e060020a63ffffffff84160281526004810191909152602401602060405180830381600087803b151561217457600080fd5b6102c65a03f1151561218557600080fd5b5050506040518051905085600160a060020a0316630d8e6e2c6000604051602001526040518163ffffffff1660e060020a028152600401602060405180830381600087803b15156121d557600080fd5b6102c65a03f115156121e657600080fd5b505050604051805190506040519384526020840192909252600160a060020a031660408084019190915260608301919091526080909101905180910390a15b505050505050565b60008054819081908190600160a060020a031663fda0895833836040516020015260405160e060020a63ffffffff8416028152600160a060020a039091166004820152602401602060405180830381600087803b151561228c57600080fd5b6102c65a03f1151561229d57600080fd5b5050506040518051151560011490506122b557600080fd5b600160a060020a038b1615156122ca57600080fd5b8a935083600160a060020a0316631529905c8a60006040516060015260405160e060020a63ffffffff84160281526004810191909152602401606060405180830381600087803b151561231c57600080fd5b6102c65a03f1151561232d57600080fd5b505050604051805190602001805190602001805192955090935090915050600160f060020a031983161580159061236357508115155b801561236e57508015155b151561237957600080fd5b83600160a060020a031663880a8e548b8b8b8b8b8b60006040516020015260405160e060020a63ffffffff891602815260048101969096526024860194909452600160f060020a031990921660448501526064840152608483015260a482015260c401602060405180830381600087803b15156123f557600080fd5b6102c65a03f1151561240657600080fd5b50505060405180511515600114905061241e57600080fd5b83600160a060020a03166392c4b8678b6000808d60008060006040516020015260405160e060020a63ffffffff89160281526004810196909652602486019490945260448501929092526064840152600160a060020a0316608483015260a482015260c401602060405180830381600087803b151561249c57600080fd5b6102c65a03f115156124ad57600080fd5b5050506040518051151560011490506124c557600080fd5b7f53c9402948bb1a0f1c1ff853af7d9843a08489c0e79a7066f4d6ac7a7ac7876a8a8a8a8a8a8a6040519586526020860194909452600160f060020a03199092166040808601919091526060850191909152608084019190915260a083019190915260c0909101905180910390a15050505050505050505050565b60008054600160a060020a031663fda0895833836040516020015260405160e060020a63ffffffff8416028152600160a060020a039091166004820152602401602060405180830381600087803b151561259957600080fd5b6102c65a03f115156125aa57600080fd5b5050506040518051151560011490506125c257600080fd5b600160a060020a03871615156125d757600080fd5b5085600160a060020a03811663a5c51a00878787878760006040516020015260405160e060020a63ffffffff88160281526004810195909552602485019390935260448401919091526064830152600160f060020a031916608482015260a401602060405180830381600087803b151561265057600080fd5b6102c65a03f1151561266157600080fd5b50505060405180511515600114905061267957600080fd5b80600160a060020a03166392c4b867876000808960008060006040516020015260405160e060020a63ffffffff89160281526004810196909652602486019490945260448501929092526064840152600160a060020a0316608483015260a482015260c401602060405180830381600087803b15156126f757600080fd5b6102c65a03f1151561270857600080fd5b50505060405180511515600114905061272057600080fd5b7f715169d37d48828f31a81b71e5da2d5934b107791a77894e3bce33b5d59e0fd6868685878660405194855260208501939093526040808501929092526060840152600160f060020a0319909116608083015260a0909101905180910390a150505050505050565b600054600160a060020a031681565b6000828211156127a357fe5b50900390565b60008282018381108015906127be5750828110155b15156127c657fe5b9392505050565b604051610c5a806127ee83390190565b60405161088e80613448833901905600606060405260008055341561001357600080fd5b604051608080610c5a8339810160405280805191906020018051919060200180519190602001805160068054600160a060020a031916600160a060020a03979097169690961790955550506001919091556002805460ff191660ff909216919091179055600355610bd1806100896000396000f300606060405236156100ca5763ffffffff60e060020a6000350416630156b32381146100cf57806302ab72c41461010557806306fdde0314610126578063095ea7b31461014b57806318160ddd1461016d57806323b872dd1461018057806327e235e3146101a8578063313ce567146101c75780635c658165146101f057806367fbd2891461021557806370a082311461022b57806395d89b411461024a57806397304ced1461025d578063a9059cbb14610273578063dd62ed3e14610295578063f7f01b4b146102ba575b600080fd5b34156100da57600080fd5b6100f1600435600160a060020a03602435166102e9565b604051901515815260200160405180910390f35b341561011057600080fd5b610124600160a060020a03600435166103ed565b005b341561013157600080fd5b61013961049e565b60405190815260200160405180910390f35b341561015657600080fd5b6100f1600160a060020a03600435166024356104a4565b341561017857600080fd5b610139610510565b341561018b57600080fd5b6100f1600160a060020a0360043581169060243516604435610516565b34156101b357600080fd5b610139600160a060020a036004351661061c565b34156101d257600080fd5b6101da61062e565b60405160ff909116815260200160405180910390f35b34156101fb57600080fd5b610139600160a060020a0360043581169060243516610637565b341561022057600080fd5b6100f1600435610654565b341561023657600080fd5b610139600160a060020a0360043516610898565b341561025557600080fd5b6101396108b3565b341561026857600080fd5b6101246004356108b9565b341561027e57600080fd5b6100f1600160a060020a0360043516602435610aa1565b34156102a057600080fd5b610139600160a060020a0360043581169060243516610b35565b34156102c557600080fd5b6102cd610b60565b604051600160a060020a03909116815260200160405180910390f35b600654600090600160a060020a03166305fd22d033836040516020015260405160e060020a63ffffffff8416028152600160a060020a039091166004820152602401602060405180830381600087803b151561034457600080fd5b6102c65a03f1151561035557600080fd5b50505060405180511515600114905061036d57600080fd5b600160a060020a03821660009081526004602052604090205483901015610396575060006103e7565b600160a060020a0382166000908152600460205260409020546103b99084610b6f565b600160a060020a038316600090815260046020526040812091909155546103e09084610b6f565b6000555060015b92915050565b600654600160a060020a031663fda089583360006040516020015260405160e060020a63ffffffff8416028152600160a060020a039091166004820152602401602060405180830381600087803b151561044657600080fd5b6102c65a03f1151561045757600080fd5b50505060405180511515600114905061046f57600080fd5b6006805473ffffffffffffffffffffffffffffffffffffffff1916600160a060020a0392909216919091179055565b60015481565b600160a060020a03338116600081815260056020908152604080832094871680845294909152808220859055909291907f8c5be1e5ebec7d5bd14f71427d1e84f3dd0314c0f7b2291e5b200ac8c7c3b9259085905190815260200160405180910390a350600192915050565b60005481565b600160a060020a03808416600081815260056020908152604080832033909516835293815283822054928252600490529182205483901080159061055a5750828110155b151561056557600080fd5b600160a060020a03808516600090815260046020526040808220805487019055918716815220805484900390556000198110156105ca57600160a060020a03808616600090815260056020908152604080832033909416835292905220805484900390555b83600160a060020a031685600160a060020a03167fddf252ad1be2c89b69c2b068fc378daa952ba7f163c4a11628f55a4df523b3ef8560405190815260200160405180910390a3506001949350505050565b60046020526000908152604090205481565b60025460ff1681565b600560209081526000928352604080842090915290825290205481565b600654600090600160a060020a03166305fd22d033836040516020015260405160e060020a63ffffffff8416028152600160a060020a039091166004820152602401602060405180830381600087803b15156106af57600080fd5b6102c65a03f115156106c057600080fd5b5050506040518051151560011490506106d857600080fd5b6006548290600490600090600160a060020a03166394a3760f82604051602001526040518163ffffffff1660e060020a028152600401602060405180830381600087803b151561072757600080fd5b6102c65a03f1151561073857600080fd5b5050506040518051600160a060020a0316825250602081019190915260400160002054101561076957506000610893565b6006546107f490600490600090600160a060020a03166394a3760f82604051602001526040518163ffffffff1660e060020a028152600401602060405180830381600087803b15156107ba57600080fd5b6102c65a03f115156107cb57600080fd5b5050506040518051600160a060020a031682525060208101919091526040016000205483610b6f565b600654600490600090600160a060020a03166394a3760f82604051602001526040518163ffffffff1660e060020a028152600401602060405180830381600087803b151561084157600080fd5b6102c65a03f1151561085257600080fd5b50505060405180519050600160a060020a0316600160a060020a031681526020019081526020016000208190555061088c60005483610b6f565b6000555060015b919050565b600160a060020a031660009081526004602052604090205490565b60035481565b600654600160a060020a03166305fd22d03360006040516020015260405160e060020a63ffffffff8416028152600160a060020a039091166004820152602401602060405180830381600087803b151561091257600080fd5b6102c65a03f1151561092357600080fd5b50505060405180511515600114905061093b57600080fd5b6006546109c690600490600090600160a060020a03166394a3760f82604051602001526040518163ffffffff1660e060020a028152600401602060405180830381600087803b151561098c57600080fd5b6102c65a03f1151561099d57600080fd5b5050506040518051600160a060020a031682525060208101919091526040016000205482610b81565b600654600490600090600160a060020a03166394a3760f82604051602001526040518163ffffffff1660e060020a028152600401602060405180830381600087803b1515610a1357600080fd5b6102c65a03f11515610a2457600080fd5b50505060405180519050600160a060020a0316600160a060020a0316815260200190815260200160002081905550610a5e60005482610b81565b6000556003547fb83a9cb495aa43a9871c87805ab90712a5f703de6d66d16b96d7afcc91bb3299908260405191825260208201526040908101905180910390a150565b600160a060020a03331660009081526004602052604081205482901015610ac757600080fd5b600160a060020a033381166000818152600460205260408082208054879003905592861680825290839020805486019055917fddf252ad1be2c89b69c2b068fc378daa952ba7f163c4a11628f55a4df523b3ef9085905190815260200160405180910390a350600192915050565b600160a060020a03918216600090815260056020908152604080832093909416825291909152205490565b600654600160a060020a031681565b600082821115610b7b57fe5b50900390565b6000828201838110801590610b965750828110155b1515610b9e57fe5b93925050505600a165627a7a723058202237cfb7ac8c93169a402ca3677b246413256261806d19229a03ba8844b7ca8a0029606060405260028055341561001357600080fd5b60405160408061088e833981016040528080519190602001805160008054600160a060020a03909216600160a060020a0319909216919091179055505060015561082c806100626000396000f300606060405236156100885763ffffffff60e060020a60003504166302ab72c4811461008d57806305b1137b146100ae5780630d8e6e2c146100e457806345b8669914610109578063527fe4131461013457806354fd4d50146101475780636bb3471a1461015a57806370a082311461016d578063beabacc81461018c578063f7f01b4b146101b4575b600080fd5b341561009857600080fd5b6100ac600160a060020a03600435166101e3565b005b34156100b957600080fd5b6100d0600160a060020a0360043516602435610296565b604051901515815260200160405180910390f35b34156100ef57600080fd5b6100f7610436565b60405190815260200160405180910390f35b341561011457600080fd5b6100d0600160a060020a036004358116906024351660443560643561043c565b341561013f57600080fd5b6100f76105be565b341561015257600080fd5b6100f76105c4565b341561016557600080fd5b6100f76105ca565b341561017857600080fd5b6100f7600160a060020a03600435166105d0565b341561019757600080fd5b6100d0600160a060020a036004358116906024351660443561066c565b34156101bf57600080fd5b6101c76107f1565b604051600160a060020a03909116815260200160405180910390f35b60008054600160a060020a03169063fda089589033906040516020015260405160e060020a63ffffffff8416028152600160a060020a039091166004820152602401602060405180830381600087803b151561023e57600080fd5b6102c65a03f1151561024f57600080fd5b50505060405180511515600114905061026757600080fd5b6000805473ffffffffffffffffffffffffffffffffffffffff1916600160a060020a0392909216919091179055565b60008054600160a060020a031663fda0895833836040516020015260405160e060020a63ffffffff8416028152600160a060020a039091166004820152602401602060405180830381600087803b15156102ef57600080fd5b6102c65a03f1151561030057600080fd5b50505060405180511515600114905080610391575060008054600160a060020a0316906305fd22d09033906040516020015260405160e060020a63ffffffff8416028152600160a060020a039091166004820152602401602060405180830381600087803b151561037057600080fd5b6102c65a03f1151561038157600080fd5b5050506040518051151560011490505b151561039c57600080fd5b600160a060020a03301631829010156103b457600080fd5b600160a060020a03831682156108fc0283604051600060405180830381858888f1151560011493506103e99250505057600080fd5b7f1853ca9dc0208799379313b2b43364e45db022f073c72648fbc206dc0bacbcdc8383604051600160a060020a03909216825260208201526040908101905180910390a150600192915050565b60025490565b60008054600160a060020a031663fda0895833836040516020015260405160e060020a63ffffffff8416028152600160a060020a039091166004820152602401602060405180830381600087803b151561049557600080fd5b6102c65a03f115156104a657600080fd5b50505060405180511515600114905080610537575060008054600160a060020a0316906305fd22d09033906040516020015260405160e060020a63ffffffff8416028152600160a060020a039091166004820152602401602060405180830381600087803b151561051657600080fd5b6102c65a03f1151561052757600080fd5b5050506040518051151560011490505b151561054257600080fd5b84600160a060020a031663095bcdb685858560405160e060020a63ffffffff8616028152600160a060020a03909316600484015260248301919091526044820152606401600060405180830381600087803b151561059f57600080fd5b6102c65a03f115156105b057600080fd5b506001979650505050505050565b60015490565b60025481565b60015481565b6000600160a060020a03821615156105f35750600160a060020a03301631610667565b81600160a060020a03166370a082313060006040516020015260405160e060020a63ffffffff8416028152600160a060020a039091166004820152602401602060405180830381600087803b151561064a57600080fd5b6102c65a03f1151561065b57600080fd5b50505060405180519150505b919050565b60008054600160a060020a031663fda0895833836040516020015260405160e060020a63ffffffff8416028152600160a060020a039091166004820152602401602060405180830381600087803b15156106c557600080fd5b6102c65a03f115156106d657600080fd5b50505060405180511515600114905080610767575060008054600160a060020a0316906305fd22d09033906040516020015260405160e060020a63ffffffff8416028152600160a060020a039091166004820152602401602060405180830381600087803b151561074657600080fd5b6102c65a03f1151561075757600080fd5b5050506040518051151560011490505b151561077257600080fd5b83600160a060020a031663a9059cbb848460006040516020015260405160e060020a63ffffffff8516028152600160a060020a0390921660048301526024820152604401602060405180830381600087803b15156107cf57600080fd5b6102c65a03f115156107e057600080fd5b505050604051805195945050505050565b600054600160a060020a0316815600a165627a7a72305820ec4d4e0ac8badf050d0fe188ef02d1da8d9690dc0fbfe93d6b7e52709f0cf44f0029a165627a7a72305820ce17baa1fd1aaa38487b26ff8243cfedf0e9c2d43b7ad47c2cb21549d81850550029",
  "source": "pragma solidity ^0.4.17;\n\n/**\nThis is the core module of the system. Currently it holds the code of\nthe Bank and crowdsale modules to avoid external calls and higher gas costs.\nIt might be a good idea in the future to split the code, separate Bank\nand crowdsale modules into external files and have the core interact with them\nwith addresses and interfaces. \n*/\n\nimport \"./iERC20Token.sol\";\nimport \"./CurrencyToken.sol\";\nimport \"./DepositContract.sol\";\nimport \"./SafeMath.sol\";\nimport \"./DataManager.sol\";\n\n/// @title Populous contract\ncontract Populous is withAccessManager {\n\n    \n    // EVENTS\n    // Bank events\n    event DepositAddressUpgrade(address oldDepositContract, address newDepositContract, bytes32 clientId, uint256 version);\n\n    event EventWithdrawPPT(bytes32 blockchainActionId, bytes32 accountId, address depositContract, address to, uint amount);\n    event EventWithdrawPoken(bytes32 _blockchainActionId, bytes32 accountId, bytes32 currency, uint amount, bool toBank);\n    \n    event EventNewCurrency(bytes32 blockchainActionId, bytes32 tokenName, uint8 decimalUnits, bytes32 tokenSymbol, address addr);\n    event EventUpgradeCurrency(bytes32 blockchainActionId, bytes32 tokenName, uint8 decimalUnits, bytes32 tokenSymbol, address addr, uint256 version);\n    \n    event EventNewDepositContract(bytes32 blockchainActionId, bytes32 clientId, address depositContractAddress, uint256 version);\n    event EventUpgradeDepositContract(bytes32 blockchainActionId, bytes32 clientId, address depositContractAddress, uint256 version);\n    \n    event EventNewProvider(bytes32 _blockchainActionId, bytes32 _userId, bytes32 _companyName, bytes32 _companyNumber, bytes2 countryCode);\n    event EventNewInvoice(bytes32 _blockchainActionId, bytes32 _providerUserId, bytes2 invoiceCountryCode, bytes32 invoiceCompanyNumber, bytes32 invoiceCompanyName, bytes32 invoiceNumber);\n    event EventProviderEnabled(bytes32 _blockchainActionId, bytes32 _userId, bytes2 _countryCode, bytes32 _companyNumber);\n    event EventProviderDisabled(bytes32 _blockchainActionId, bytes32 _userId, bytes2 _countryCode, bytes32 _companyNumber);\n    \n    // FIELDS\n    //address public PXT = 0xc14830E53aA344E8c14603A91229A0b925b0B262;\n    //address public PPT = 0xd4fa1460F537bb9085d22C7bcCB5DD450Ef28e3a;\n    // ropsten\n    address public PXT = 0xD8A7C588f8DC19f49dAFd8ecf08eec58e64d4cC9;\n    address public PPT = 0x0ff72e24AF7c09A647865820D4477F98fcB72a2c;\n\n    // NON-CONSTANT METHODS\n    // Constructor method called when contract instance is \n    // deployed with 'withAccessManager' modifier.\n    function Populous(address _accessManager) public withAccessManager(_accessManager) {}\n    /**\n    BANK MODULE\n    */\n\n\n    // NON-CONSTANT METHODS\n    \n    /** @dev Creates a new 'depositAddress' gotten from deploying a deposit contract linked to a client ID\n      * @param clientId The bytes32 client ID\n      * @return address The address of the deployed deposit contract instance.\n      */\n    function createAddress(address _dataManager, bytes32 _blockchainActionId, bytes32 clientId) public\n        onlyServer\n    {   \n        require(_dataManager != 0x0);\n        DataManager dm = DataManager(_dataManager);\n        DepositContract dc = DepositContract(dm.getDepositAddress(clientId));\n        DepositContract newDepositContract = new DepositContract(clientId, AM);\n\n        if (dc.getVersion() != 2) {\n            if(DepositContract(dc).balanceOf(PXT) > 0){\n                require(DepositContract(dc).transfer(PXT, newDepositContract, DepositContract(dc).balanceOf(PXT)) == true);\n            }\n            if(DepositContract(newDepositContract).balanceOf(PPT) > 0) {\n                require(DepositContract(dc).transfer(PPT, newDepositContract, DepositContract(dc).balanceOf(PPT)) == true);\n            }\n            require(dm.setDepositAddress(_blockchainActionId, newDepositContract, clientId) == true);\n            assert(dm.getDepositAddress(clientId) != 0x0);\n            require(dm.setBlockchainActionData(_blockchainActionId, 0x0, 0, clientId, dm.getDepositAddress(clientId), 0) == true);\n            // old deposit contract, new deposit contract, client id, deposit contract/wallet version\n            DepositAddressUpgrade(dc, newDepositContract, clientId, dc.getVersion());\n        } else {\n            require(dm.setDepositAddress(_blockchainActionId, newDepositContract, clientId) == true);\n            assert(dm.getDepositAddress(clientId) != 0x0);\n            require(dm.setBlockchainActionData(_blockchainActionId, 0x0, 0, clientId, dm.getDepositAddress(clientId), 0) == true);\n            EventNewDepositContract(_blockchainActionId, clientId, dm.getDepositAddress(clientId), dc.getVersion());\n        }\n    }\n\n    /** @dev Creates a new token/currency.\n      * @param _tokenName  The name of the currency.\n      * @param _decimalUnits The number of decimals the currency has.\n      * @param _tokenSymbol The currency symbol, e.g., GBP\n      */\n    function createCurrency(\n        address _dataManager, bytes32 _blockchainActionId, \n        bytes32 _tokenName, uint8 _decimalUnits, bytes32 _tokenSymbol)\n        public\n        onlyServer\n    {   \n        require(_dataManager != 0x0);\n        DataManager dm = DataManager(_dataManager);\n        // Check if currency already exists\n        //require(currencies[_tokenSymbol] == 0x0);\n        require(dm.setCurrency(_blockchainActionId, new CurrencyToken(address(AM), _tokenName, _decimalUnits, _tokenSymbol), _tokenSymbol) == true);\n        require(dm.setBlockchainActionData(_blockchainActionId, _tokenSymbol, 0, 0x0, dm.getCurrency(_tokenSymbol), 0) == true);\n        EventNewCurrency(_blockchainActionId, _tokenName, _decimalUnits, _tokenSymbol, dm.getCurrency(_tokenSymbol));\n    }\n\n\n    /** @dev Add a new invoice provider to the platform  \n      * @param _blockchainActionId the blockchain action id\n      * @param _userId the user id of the provider\n      * @param _companyNumber the providers company number\n      * @param _companyName the providers company name\n      * @param _countryCode the providers country code\n      */\n    function addProvider(\n        address _dataManager, bytes32 _blockchainActionId, \n        bytes32 _userId, bytes32 _companyNumber, \n        bytes32 _companyName, bytes2 _countryCode) \n        public \n        onlyServer\n    {   \n        require(_dataManager != 0x0);\n        DataManager dm = DataManager(_dataManager);\n        require(dm.setProvider(_blockchainActionId, _userId, _companyNumber, _companyName, _countryCode) == true);\n        require(dm.setBlockchainActionData(_blockchainActionId, 0x0, 0, _userId, 0x0, 0) == true);\n        EventNewProvider(_blockchainActionId, _userId, _companyName, _companyNumber, _countryCode);\n    }\n\n    /** @dev Add a new crowdsale invoice from an invoice provider to the platform  \n      * @param _blockchainActionId the blockchain action id\n      * @param _providerUserId the user id of the provider\n      * @param _invoiceCompanyNumber the providers company number\n      * @param _invoiceCompanyName the providers company name\n      * @param _invoiceCountryCode the providers country code\n      * @param _invoiceNumber the invoice identification number\n      */\n    function addInvoice(\n        address _dataManager, bytes32 _blockchainActionId, \n        bytes32 _providerUserId, bytes2 _invoiceCountryCode, \n        bytes32 _invoiceCompanyNumber, bytes32 _invoiceCompanyName, bytes32 _invoiceNumber)\n        public\n        onlyServer\n    {\n        require(_dataManager != 0x0);\n        DataManager dm = DataManager(_dataManager);\n        bytes2 countryCode; \n        bytes32 companyName; \n        bytes32 companyNumber;\n        (countryCode, companyName, companyNumber) = dm.getProviderByUserId(_providerUserId);\n        //require(dm.getProviderStatus(_providerUserId) == true);\n        require(countryCode != 0x0 && companyName != 0x0 && companyNumber != 0x0);\n        require(dm.setInvoice(_blockchainActionId, _providerUserId, _invoiceCountryCode, _invoiceCompanyNumber, _invoiceCompanyName, _invoiceNumber) == true);\n        require(dm.setBlockchainActionData(_blockchainActionId, 0x0, 0, _providerUserId, 0x0, 0) == true);\n        EventNewInvoice(_blockchainActionId, _providerUserId, _invoiceCountryCode, _invoiceCompanyNumber, _invoiceCompanyName, _invoiceNumber);\n    }\n\n    /** @dev Import an amount of pokens of a particular currency from an ethereum wallet/address to bank\n      * @param _blockchainActionId the blockchain action id\n      * @param accountId the account id of the client\n      * @param from the blockchain address to import pokens from\n      * @param currency the poken currency\n      */\n\n    function withdrawPoken(\n        address _dataManager, bytes32 _blockchainActionId, \n        bytes32 currency, uint256 amount,\n        address from, address to, bytes32 accountId, uint256 inCollateral,\n        address pptAddress, uint256 pptFee, address adminExternalWallet, bool toBank) \n        public \n        onlyServer \n    {\n        require(_dataManager != 0x0);\n        //DataManager dm = DataManager(_dataManager);\n        require(DataManager(_dataManager).getActionStatus(_blockchainActionId) == false && DataManager(_dataManager).getDepositAddress(accountId) != 0x0);\n        require(adminExternalWallet != 0x0 && pptFee > 0);\n        require(amount > 0 && DataManager(_dataManager).getCurrency(currency) != 0x0);\n        DepositContract o = DepositContract(DataManager(_dataManager).getDepositAddress(accountId));\n        // check if pptbalance minus collateral held is more than pptFee then transfer pptFee from users ppt deposit to adminWallet\n        require(SafeMath.safeSub(o.balanceOf(pptAddress), inCollateral) >= pptFee);\n        require(o.transfer(pptAddress, adminExternalWallet, pptFee) == true);\n       \n        // WITHDRAW PART / DEBIT\n        if(amount > CurrencyToken(DataManager(_dataManager).getCurrency(currency)).balanceOf(from)) {\n                // destroying total balance\n            require(CurrencyToken(DataManager(_dataManager).getCurrency(currency)).destroyTokensFrom(CurrencyToken(DataManager(_dataManager).getCurrency(currency)).balanceOf(from), from) == true);\n            //remaining ledger balance. deposit address is 0\n        } else {\n                // destroy amount from balance\n            require(CurrencyToken(DataManager(_dataManager).getCurrency(currency)).destroyTokensFrom(amount, from) == true);\n            //left over deposit address balance.\n        }\n\n        // TRANSFER PART / CREDIT\n        if(toBank == true) {\n            require(DataManager(_dataManager).setBlockchainActionData(_blockchainActionId, currency, amount, accountId, from, pptFee) == true); \n            //emit event: Imported currency to system\n            EventWithdrawPoken(_blockchainActionId, accountId, currency, amount, toBank);\n        } else {\n            CurrencyToken(DataManager(_dataManager).getCurrency(currency)).mintTokens(amount);\n            //credit account\n            CurrencyToken(DataManager(_dataManager).getCurrency(currency)).transfer(to, amount);\n            require(DataManager(_dataManager).setBlockchainActionData(_blockchainActionId, currency, amount, accountId, to, pptFee) == true); \n            EventWithdrawPoken(_blockchainActionId, accountId, currency, amount, toBank);\n        }    \n    }\n\n    /** @dev Withdraw an amount of PPT Populous tokens to a blockchain address \n      * @param _blockchainActionId the blockchain action id\n      * @param pptAddress the address of the PPT smart contract\n      * @param accountId the account id of the client\n      * @param pptFee the amount of fees to pay in PPT tokens\n      * @param adminExternalWallet the platform admin wallet address to pay the fees to \n      * @param to the blockchain address to withdraw and transfer the pokens to\n      * @param inCollateral the amount of pokens withheld by the platform\n      */    \n    function withdrawERC20(\n        address _dataManager, bytes32 _blockchainActionId, \n        address pptAddress, bytes32 accountId, \n        address to, uint256 amount, uint256 inCollateral, uint256 pptFee, address adminExternalWallet) \n        public \n        onlyServer \n    {   \n        require(_dataManager != 0x0);\n        //DataManager dm = DataManager(_dataManager);\n        require(DataManager(_dataManager).getActionStatus(_blockchainActionId) == false && DataManager(_dataManager).getDepositAddress(accountId) != 0x0);\n        require(adminExternalWallet != 0x0 && pptFee > 0 && amount > 0);\n        address depositContract = DataManager(_dataManager).getDepositAddress(accountId);\n        uint pptBalance = SafeMath.safeSub(DepositContract(depositContract).balanceOf(pptAddress), inCollateral);\n        require(pptBalance >= SafeMath.safeAdd(amount, pptFee));\n        require(DepositContract(depositContract).transfer(pptAddress, to, amount) == true);\n        require(DepositContract(depositContract).transfer(pptAddress, adminExternalWallet, pptFee) == true); \n        bytes32 tokenSymbol = iERC20Token(pptAddress).symbol();    \n        require(DataManager(_dataManager).setBlockchainActionData(_blockchainActionId, tokenSymbol, amount, accountId, to, pptFee) == true);\n        EventWithdrawPPT(_blockchainActionId, accountId, DataManager(_dataManager).getDepositAddress(accountId), to, amount);\n    }\n\n    // CONSTANT METHODS\n\n    \n    \n}",
  "sourcePath": "/Users/najienka/Desktop/test/populous-smartcontracts/contracts/Populous.sol",
  "schemaVersion": "1.0.0",
  "updatedAt": "2018-10-24T16:34:26.782Z"
}