{
  "contractName": "Populous",
  "abi": [
    {
      "constant": false,
      "inputs": [
        {
          "name": "_accessManager",
          "type": "address"
        }
      ],
      "name": "updateAccessManager",
      "outputs": [],
      "payable": false,
      "stateMutability": "nonpayable",
      "type": "function"
    },
    {
      "constant": false,
      "inputs": [
        {
          "name": "clientId",
          "type": "bytes32"
        }
      ],
      "name": "createAddress",
      "outputs": [],
      "payable": false,
      "stateMutability": "nonpayable",
      "type": "function"
    },
    {
      "constant": false,
      "inputs": [
        {
          "name": "currency",
          "type": "bytes32"
        },
        {
          "name": "from",
          "type": "address"
        },
        {
          "name": "accountId",
          "type": "bytes32"
        }
      ],
      "name": "importPokens",
      "outputs": [],
      "payable": false,
      "stateMutability": "nonpayable",
      "type": "function"
    },
    {
      "constant": true,
      "inputs": [
        {
          "name": "clientId",
          "type": "bytes32"
        }
      ],
      "name": "getDepositAddress",
      "outputs": [
        {
          "name": "",
          "type": "address"
        }
      ],
      "payable": false,
      "stateMutability": "view",
      "type": "function"
    },
    {
      "constant": false,
      "inputs": [
        {
          "name": "pptAddress",
          "type": "address"
        },
        {
          "name": "accountId",
          "type": "bytes32"
        },
        {
          "name": "depositContract",
          "type": "address"
        },
        {
          "name": "to",
          "type": "address"
        },
        {
          "name": "amount",
          "type": "uint256"
        }
      ],
      "name": "withdrawPPT",
      "outputs": [],
      "payable": false,
      "stateMutability": "nonpayable",
      "type": "function"
    },
    {
      "constant": true,
      "inputs": [
        {
          "name": "_crowdsaleId",
          "type": "bytes32"
        }
      ],
      "name": "getRecordDocumentIndexes",
      "outputs": [
        {
          "name": "",
          "type": "uint256"
        }
      ],
      "payable": false,
      "stateMutability": "view",
      "type": "function"
    },
    {
      "constant": true,
      "inputs": [
        {
          "name": "currency",
          "type": "address"
        }
      ],
      "name": "getCurrencySymbol",
      "outputs": [
        {
          "name": "",
          "type": "bytes32"
        }
      ],
      "payable": false,
      "stateMutability": "view",
      "type": "function"
    },
    {
      "constant": false,
      "inputs": [
        {
          "name": "_tokenName",
          "type": "bytes32"
        },
        {
          "name": "_decimalUnits",
          "type": "uint8"
        },
        {
          "name": "_tokenSymbol",
          "type": "bytes32"
        }
      ],
      "name": "createCurrency",
      "outputs": [],
      "payable": false,
      "stateMutability": "nonpayable",
      "type": "function"
    },
    {
      "constant": false,
      "inputs": [
        {
          "name": "_crowdsaleId",
          "type": "bytes32"
        },
        {
          "name": "_invoiceId",
          "type": "bytes32"
        },
        {
          "name": "_ipfsHash1",
          "type": "bytes"
        },
        {
          "name": "_ipfsHash2",
          "type": "bytes"
        },
        {
          "name": "_awsHash1",
          "type": "bytes"
        },
        {
          "name": "_awsHash2",
          "type": "bytes"
        },
        {
          "name": "_dataType",
          "type": "bytes32"
        }
      ],
      "name": "insertBlock",
      "outputs": [],
      "payable": false,
      "stateMutability": "nonpayable",
      "type": "function"
    },
    {
      "constant": true,
      "inputs": [
        {
          "name": "currency",
          "type": "bytes32"
        }
      ],
      "name": "getCurrency",
      "outputs": [
        {
          "name": "",
          "type": "address"
        }
      ],
      "payable": false,
      "stateMutability": "view",
      "type": "function"
    },
    {
      "constant": false,
      "inputs": [
        {
          "name": "_crowdsaleId",
          "type": "bytes32"
        },
        {
          "name": "_dataHash1",
          "type": "bytes"
        },
        {
          "name": "_dataHash2",
          "type": "bytes"
        },
        {
          "name": "_dataSource",
          "type": "bytes32"
        },
        {
          "name": "_dataType",
          "type": "bytes32"
        }
      ],
      "name": "insertSource",
      "outputs": [],
      "payable": false,
      "stateMutability": "nonpayable",
      "type": "function"
    },
    {
      "constant": true,
      "inputs": [
        {
          "name": "_crowdsaleId",
          "type": "bytes32"
        },
        {
          "name": "documentIndex",
          "type": "uint256"
        }
      ],
      "name": "getRecord",
      "outputs": [
        {
          "name": "",
          "type": "bytes32"
        },
        {
          "name": "",
          "type": "bytes"
        },
        {
          "name": "",
          "type": "bytes"
        },
        {
          "name": "",
          "type": "bytes32"
        },
        {
          "name": "",
          "type": "bytes32"
        }
      ],
      "payable": false,
      "stateMutability": "view",
      "type": "function"
    },
    {
      "constant": false,
      "inputs": [
        {
          "name": "accountId",
          "type": "bytes32"
        },
        {
          "name": "to",
          "type": "address"
        },
        {
          "name": "amount",
          "type": "uint256"
        },
        {
          "name": "currency",
          "type": "bytes32"
        }
      ],
      "name": "withdrawPoken",
      "outputs": [],
      "payable": false,
      "stateMutability": "nonpayable",
      "type": "function"
    },
    {
      "constant": true,
      "inputs": [],
      "name": "AM",
      "outputs": [
        {
          "name": "",
          "type": "address"
        }
      ],
      "payable": false,
      "stateMutability": "view",
      "type": "function"
    },
    {
      "inputs": [
        {
          "name": "_accessManager",
          "type": "address"
        }
      ],
      "payable": false,
      "stateMutability": "nonpayable",
      "type": "constructor"
    },
    {
      "anonymous": false,
      "inputs": [
        {
          "indexed": false,
          "name": "crowdsaleId",
          "type": "bytes32"
        },
        {
          "indexed": false,
          "name": "invoiceId",
          "type": "bytes32"
        },
        {
          "indexed": false,
          "name": "sourceLength",
          "type": "uint256"
        }
      ],
      "name": "EventNewCrowdsaleBlock",
      "type": "event"
    },
    {
      "anonymous": false,
      "inputs": [
        {
          "indexed": false,
          "name": "crowdsaleId",
          "type": "bytes32"
        },
        {
          "indexed": false,
          "name": "invoiceId",
          "type": "bytes32"
        },
        {
          "indexed": false,
          "name": "sourceLength",
          "type": "uint256"
        }
      ],
      "name": "EventNewCrowdsaleSource",
      "type": "event"
    },
    {
      "anonymous": false,
      "inputs": [
        {
          "indexed": false,
          "name": "accountId",
          "type": "bytes32"
        },
        {
          "indexed": false,
          "name": "depositContract",
          "type": "address"
        },
        {
          "indexed": false,
          "name": "to",
          "type": "address"
        },
        {
          "indexed": false,
          "name": "amount",
          "type": "uint256"
        }
      ],
      "name": "EventWithdrawPPT",
      "type": "event"
    },
    {
      "anonymous": false,
      "inputs": [
        {
          "indexed": false,
          "name": "accountId",
          "type": "bytes32"
        },
        {
          "indexed": false,
          "name": "to",
          "type": "address"
        },
        {
          "indexed": false,
          "name": "amount",
          "type": "uint256"
        },
        {
          "indexed": false,
          "name": "currency",
          "type": "bytes32"
        }
      ],
      "name": "EventWithdrawPokens",
      "type": "event"
    },
    {
      "anonymous": false,
      "inputs": [
        {
          "indexed": false,
          "name": "from",
          "type": "address"
        },
        {
          "indexed": false,
          "name": "accountId",
          "type": "bytes32"
        },
        {
          "indexed": false,
          "name": "currency",
          "type": "bytes32"
        },
        {
          "indexed": false,
          "name": "balance",
          "type": "uint256"
        }
      ],
      "name": "EventImportPokens",
      "type": "event"
    },
    {
      "anonymous": false,
      "inputs": [
        {
          "indexed": false,
          "name": "tokenName",
          "type": "bytes32"
        },
        {
          "indexed": false,
          "name": "decimalUnits",
          "type": "uint8"
        },
        {
          "indexed": false,
          "name": "tokenSymbol",
          "type": "bytes32"
        },
        {
          "indexed": false,
          "name": "addr",
          "type": "address"
        }
      ],
      "name": "EventNewCurrency",
      "type": "event"
    },
    {
      "anonymous": false,
      "inputs": [
        {
          "indexed": false,
          "name": "clientId",
          "type": "bytes32"
        },
        {
          "indexed": false,
          "name": "depositContractAddress",
          "type": "address"
        }
      ],
      "name": "EventNewDepositContract",
      "type": "event"
    }
  ],
  "bytecode": "0x6060604052341561000f57600080fd5b6040516020806127cc8339810160405280805160008054600160a060020a03909216600160a060020a03199092169190911790555050612778806100546000396000f300606060405236156100b45763ffffffff60e060020a60003504166302ab72c481146100b95780630be2f236146100da578063236b91e8146100f05780632a01a451146101155780632c88e65b1461014757806335d1950814610179578063554c9b6a146101a157806382cce80f146101c05780639bd1e2fb146101df578063d383b80d14610303578063e4351d0b14610319578063f24d954e146103b8578063f36c11c1146104c9578063f7f01b4b146104f1575b600080fd5b34156100c457600080fd5b6100d8600160a060020a0360043516610504565b005b34156100e557600080fd5b6100d86004356105b7565b34156100fb57600080fd5b6100d8600435600160a060020a036024351660443561071c565b341561012057600080fd5b61012b60043561098d565b604051600160a060020a03909116815260200160405180910390f35b341561015257600080fd5b6100d8600160a060020a0360043581169060243590604435811690606435166084356109a8565b341561018457600080fd5b61018f600435610b21565b60405190815260200160405180910390f35b34156101ac57600080fd5b61018f600160a060020a0360043516610b36565b34156101cb57600080fd5b6100d860043560ff60243516604435610b51565b34156101ea57600080fd5b6100d8600480359060248035919060649060443590810190830135806020601f8201819004810201604051908101604052818152929190602084018383808284378201915050505050509190803590602001908201803590602001908080601f01602080910402602001604051908101604052818152929190602084018383808284378201915050505050509190803590602001908201803590602001908080601f01602080910402602001604051908101604052818152929190602084018383808284378201915050505050509190803590602001908201803590602001908080601f0160208091040260200160405190810160405281815292919060208401838380828437509496505093359350610d2792505050565b341561030e57600080fd5b61012b600435610fbf565b341561032457600080fd5b6100d8600480359060446024803590810190830135806020601f8201819004810201604051908101604052818152929190602084018383808284378201915050505050509190803590602001908201803590602001908080601f01602080910402602001604051908101604052818152929190602084018383808284375094965050843594602001359350610fda92505050565b34156103c357600080fd5b6103d1600435602435611101565b604051858152606081018390526080810182905260a060208201818152906040830190830187818151815260200191508051906020019080838360005b8381101561042657808201518382015260200161040e565b50505050905090810190601f1680156104535780820380516001836020036101000a031916815260200191505b50838103825286818151815260200191508051906020019080838360005b83811015610489578082015183820152602001610471565b50505050905090810190601f1680156104b65780820380516001836020036101000a031916815260200191505b5097505050505050505060405180910390f35b34156104d457600080fd5b6100d8600435600160a060020a0360243516604435606435611329565b34156104fc57600080fd5b61012b611514565b60008054600160a060020a03169063fda089589033906040516020015260405160e060020a63ffffffff8416028152600160a060020a039091166004820152602401602060405180830381600087803b151561055f57600080fd5b6102c65a03f1151561057057600080fd5b50505060405180511515600114905061058857600080fd5b6000805473ffffffffffffffffffffffffffffffffffffffff1916600160a060020a0392909216919091179055565b60008054600160a060020a03169063fda089589033906040516020015260405160e060020a63ffffffff8416028152600160a060020a039091166004820152602401602060405180830381600087803b151561061257600080fd5b6102c65a03f1151561062357600080fd5b50505060405180511515600114905061063b57600080fd5b6000548190600160a060020a0316610651611523565b918252600160a060020a0316602082015260409081019051809103906000f080151561067c57600080fd5b6000828152600360205260409020805473ffffffffffffffffffffffffffffffffffffffff1916600160a060020a0392831617908190551615156106bc57fe5b60008181526003602052604090819020547f331e8d7fbf36512cd5eb514f38db31465c8f937497c179aa3eda3250125028fc918391600160a060020a03169051918252600160a060020a031660208201526040908101905180910390a150565b600080548190600160a060020a031663fda0895833836040516020015260405160e060020a63ffffffff8416028152600160a060020a039091166004820152602401602060405180830381600087803b151561077757600080fd5b6102c65a03f1151561078857600080fd5b5050506040518051151560011490506107a057600080fd5b60008581526001602052604080822054600160a060020a0316935083916370a0823191879190516020015260405160e060020a63ffffffff8416028152600160a060020a039091166004820152602401602060405180830381600087803b151561080957600080fd5b6102c65a03f1151561081a57600080fd5b505050604051805190509050600082600160a060020a03166370a082318660006040516020015260405160e060020a63ffffffff8416028152600160a060020a039091166004820152602401602060405180830381600087803b151561087f57600080fd5b6102c65a03f1151561089057600080fd5b50505060405180519050118015610921575081600160a060020a0316630156b323828660006040516020015260405160e060020a63ffffffff85160281526004810192909252600160a060020a03166024820152604401602060405180830381600087803b151561090057600080fd5b6102c65a03f1151561091157600080fd5b5050506040518051151560011490505b151561092c57600080fd5b7fc3be7ccdca9657a9d82c0f86bbabdba35fec64fa8dfffcd69a6e26d08a5db12884848784604051600160a060020a039094168452602084019290925260408084019190915260608301919091526080909101905180910390a15050505050565b600090815260036020526040902054600160a060020a031690565b60008054600160a060020a031663fda0895833836040516020015260405160e060020a63ffffffff8416028152600160a060020a039091166004820152602401602060405180830381600087803b1515610a0157600080fd5b6102c65a03f11515610a1257600080fd5b505050604051805115156001149050610a2a57600080fd5b5082600160a060020a03811663beabacc887858560006040516020015260405160e060020a63ffffffff8616028152600160a060020a0393841660048201529190921660248201526044810191909152606401602060405180830381600087803b1515610a9657600080fd5b6102c65a03f11515610aa757600080fd5b505050604051805115156001149050610abf57600080fd5b7fcb097381ce67a8284a48d132fa97c7b98849e6967a4bd898dbce4a95bbb089a285858585604051938452600160a060020a039283166020850152911660408084019190915260608301919091526080909101905180910390a1505050505050565b60009081526004602052604090206002015490565b600160a060020a031660009081526002602052604090205490565b60008054600160a060020a03169063fda089589033906040516020015260405160e060020a63ffffffff8416028152600160a060020a039091166004820152602401602060405180830381600087803b1515610bac57600080fd5b6102c65a03f11515610bbd57600080fd5b505050604051805115156001149050610bd557600080fd5b600081815260016020526040902054600160a060020a031615610bf757600080fd5b600054600160a060020a0316838383610c0e611533565b600160a060020a039094168452602084019290925260ff16604080840191909152606083019190915260809091019051809103906000f0801515610c5157600080fd5b6000828152600160205260409020805473ffffffffffffffffffffffffffffffffffffffff1916600160a060020a039283161790819055161515610c9157fe5b60008181526001602081815260408084208054600160a060020a03908116865260028452828620879055948690529290915290547f49ed04561088f8c4d4b6cf512cfd6e87722fae11971dad08e91c480f46ef0a909286928692869216905193845260ff9092166020840152604080840191909152600160a060020a0390911660608301526080909101905180910390a1505050565b60008054600160a060020a03169063fda089589033906040516020015260405160e060020a63ffffffff8416028152600160a060020a039091166004820152602401602060405180830381600087803b1515610d8257600080fd5b6102c65a03f11515610d9357600080fd5b505050604051805115156001149050610dab57600080fd5b60008781526004602052604090206001015460ff1615610dca57600080fd5b6000878152600460205260409020600201805460018101610deb8382611543565b9160005260206000209060040201600060806040519081016040908152898252602082018990527f69706673000000000000000000000000000000000000000000000000000000009082015260608101859052919050815181908051610e55929160200190611574565b50602082015181600101908051610e70929160200190611574565b5060408201516002820155606082015160039091015550506000878152600460205260409020868155600201805460018101610eac8382611543565b9160005260206000209060040201600060806040519081016040908152878252602082018790527f61777300000000000000000000000000000000000000000000000000000000009082015260608101859052919050815181908051610f16929160200190611574565b50602082015181600101908051610f31929160200190611574565b50604082015160028201556060820151600390910155505060008781526004602052604090206001908101805460ff191690911790557faeccf764a9954c687874cba18109f23b9d0750dcc0010ce121ac237364e507108787610f9382610b21565b60405192835260208301919091526040808301919091526060909101905180910390a150505050505050565b600090815260016020526040902054600160a060020a031690565b600085815260046020526040902060019081015460ff16151514610ffd57600080fd5b600085815260046020526040902060020180546001810161101e8382611543565b916000526020600020906004020160006080604051908101604090815288825260208201889052810186905260608101859052919050815181908051611068929160200190611574565b50602082015181600101908051611083929160200190611574565b5060408201516002820155606082015160039091015550506000858152600460205260409020547f783fdcfeee4bb68b398a590b294c6cc7a0eefc8b2d7bf812da7eb74121d15c0f9086906110d782610b21565b60405192835260208301919091526040808301919091526060909101905180910390a15050505050565b600061110b6115f2565b6111136115f2565b6000858152600460205260408120805460029091018054839291908890811061113857fe5b600091825260208083208b84526004918290526040909320600201805491909202909201918990811061116757fe5b600091825260208083208c8452600491829052604090932060020180546001929093029093010191908a90811061119a57fe5b600091825260208083206004928302016002908101548e855292909152604090922090910180548b9081106111cb57fe5b906000526020600020906004020160030154838054600181600116156101000203166002900480601f0160208091040260200160405190810160405280929190818152602001828054600181600116156101000203166002900480156112725780601f1061124757610100808354040283529160200191611272565b820191906000526020600020905b81548152906001019060200180831161125557829003601f168201915b50505050509350828054600181600116156101000203166002900480601f01602080910402602001604051908101604052809291908181526020018280546001816001161561010002031660029004801561130e5780601f106112e35761010080835404028352916020019161130e565b820191906000526020600020905b8154815290600101906020018083116112f157829003601f168201915b50505050509250945094509450945094509295509295909350565b60008054600160a060020a031663fda0895833836040516020015260405160e060020a63ffffffff8416028152600160a060020a039091166004820152602401602060405180830381600087803b151561138257600080fd5b6102c65a03f1151561139357600080fd5b5050506040518051151560011490506113ab57600080fd5b600082815260016020526040902054600160a060020a031615156113ce57600080fd5b506000818152600160205260409081902054600160a060020a03169081906397304ced9085905160e060020a63ffffffff84160281526004810191909152602401600060405180830381600087803b151561142857600080fd5b6102c65a03f1151561143957600080fd5b50505080600160a060020a031663a9059cbb858560006040516020015260405160e060020a63ffffffff8516028152600160a060020a0390921660048301526024820152604401602060405180830381600087803b151561149957600080fd5b6102c65a03f115156114aa57600080fd5b50505060405180519050507fc7b1efc05fbad0dfc1e1b12644442191dc988a598f4e1dce8913a7616d4e1e6285858585604051938452600160a060020a03909216602084015260408084019190915260608301919091526080909101905180910390a15050505050565b600054600160a060020a031681565b60405161044b806116a883390190565b604051610c5a80611af383390190565b81548183558181151161156f5760040281600402836000526020600020918201910161156f9190611604565b505050565b828054600181600116156101000203166002900490600052602060002090601f016020900481019282601f106115b557805160ff19168380011785556115e2565b828001600101855582156115e2579182015b828111156115e25782518255916020019190600101906115c7565b506115ee929150611646565b5090565b60206040519081016040526000815290565b61164391905b808211156115ee57600061161e8282611660565b61162c600183016000611660565b50600060028201819055600382015560040161160a565b90565b61164391905b808211156115ee576000815560010161164c565b50805460018160011615610100020316600290046000825580601f1061168657506116a4565b601f0160209004906000526020600020908101906116a49190611646565b5056006060604052341561000f57600080fd5b60405160408061044b833981016040528080519190602001805160008054600160a060020a03909216600160a060020a031990921691909117905550506001556103ed8061005e6000396000f300606060405263ffffffff60e060020a60003504166302ab72c4811461004457806370a0823114610065578063beabacc814610096578063f7f01b4b146100d257600080fd5b341561004f57600080fd5b610063600160a060020a0360043516610101565b005b341561007057600080fd5b610084600160a060020a03600435166101b4565b60405190815260200160405180910390f35b34156100a157600080fd5b6100be600160a060020a036004358116906024351660443561022d565b604051901515815260200160405180910390f35b34156100dd57600080fd5b6100e56103b2565b604051600160a060020a03909116815260200160405180910390f35b60008054600160a060020a03169063fda089589033906040516020015260405160e060020a63ffffffff8416028152600160a060020a039091166004820152602401602060405180830381600087803b151561015c57600080fd5b6102c65a03f1151561016d57600080fd5b50505060405180511515600114905061018557600080fd5b6000805473ffffffffffffffffffffffffffffffffffffffff1916600160a060020a0392909216919091179055565b600081600160a060020a03166370a082313060006040516020015260405160e060020a63ffffffff8416028152600160a060020a039091166004820152602401602060405180830381600087803b151561020d57600080fd5b6102c65a03f1151561021e57600080fd5b50505060405180519392505050565b60008054600160a060020a031663fda0895833836040516020015260405160e060020a63ffffffff8416028152600160a060020a039091166004820152602401602060405180830381600087803b151561028657600080fd5b6102c65a03f1151561029757600080fd5b50505060405180511515600114905080610328575060008054600160a060020a0316906305fd22d09033906040516020015260405160e060020a63ffffffff8416028152600160a060020a039091166004820152602401602060405180830381600087803b151561030757600080fd5b6102c65a03f1151561031857600080fd5b5050506040518051151560011490505b151561033357600080fd5b83600160a060020a031663a9059cbb848460006040516020015260405160e060020a63ffffffff8516028152600160a060020a0390921660048301526024820152604401602060405180830381600087803b151561039057600080fd5b6102c65a03f115156103a157600080fd5b505050604051805195945050505050565b600054600160a060020a0316815600a165627a7a72305820b28ae946bd7f47c79eceb20ac61e27ccf578e7ffcd91b626100e00aa991ce5760029606060405260008055341561001357600080fd5b604051608080610c5a8339810160405280805191906020018051919060200180519190602001805160068054600160a060020a031916600160a060020a03979097169690961790955550506001919091556002805460ff191660ff909216919091179055600355610bd1806100896000396000f300606060405236156100ca5763ffffffff60e060020a6000350416630156b32381146100cf57806302ab72c41461010557806306fdde0314610126578063095ea7b31461014b57806318160ddd1461016d57806323b872dd1461018057806327e235e3146101a8578063313ce567146101c75780635c658165146101f057806367fbd2891461021557806370a082311461022b57806395d89b411461024a57806397304ced1461025d578063a9059cbb14610273578063dd62ed3e14610295578063f7f01b4b146102ba575b600080fd5b34156100da57600080fd5b6100f1600435600160a060020a03602435166102e9565b604051901515815260200160405180910390f35b341561011057600080fd5b610124600160a060020a03600435166103ed565b005b341561013157600080fd5b61013961049e565b60405190815260200160405180910390f35b341561015657600080fd5b6100f1600160a060020a03600435166024356104a4565b341561017857600080fd5b610139610510565b341561018b57600080fd5b6100f1600160a060020a0360043581169060243516604435610516565b34156101b357600080fd5b610139600160a060020a036004351661061c565b34156101d257600080fd5b6101da61062e565b60405160ff909116815260200160405180910390f35b34156101fb57600080fd5b610139600160a060020a0360043581169060243516610637565b341561022057600080fd5b6100f1600435610654565b341561023657600080fd5b610139600160a060020a0360043516610898565b341561025557600080fd5b6101396108b3565b341561026857600080fd5b6101246004356108b9565b341561027e57600080fd5b6100f1600160a060020a0360043516602435610aa1565b34156102a057600080fd5b610139600160a060020a0360043581169060243516610b35565b34156102c557600080fd5b6102cd610b60565b604051600160a060020a03909116815260200160405180910390f35b600654600090600160a060020a03166305fd22d033836040516020015260405160e060020a63ffffffff8416028152600160a060020a039091166004820152602401602060405180830381600087803b151561034457600080fd5b6102c65a03f1151561035557600080fd5b50505060405180511515600114905061036d57600080fd5b600160a060020a03821660009081526004602052604090205483901015610396575060006103e7565b600160a060020a0382166000908152600460205260409020546103b99084610b6f565b600160a060020a038316600090815260046020526040812091909155546103e09084610b6f565b6000555060015b92915050565b600654600160a060020a031663fda089583360006040516020015260405160e060020a63ffffffff8416028152600160a060020a039091166004820152602401602060405180830381600087803b151561044657600080fd5b6102c65a03f1151561045757600080fd5b50505060405180511515600114905061046f57600080fd5b6006805473ffffffffffffffffffffffffffffffffffffffff1916600160a060020a0392909216919091179055565b60015481565b600160a060020a03338116600081815260056020908152604080832094871680845294909152808220859055909291907f8c5be1e5ebec7d5bd14f71427d1e84f3dd0314c0f7b2291e5b200ac8c7c3b9259085905190815260200160405180910390a350600192915050565b60005481565b600160a060020a03808416600081815260056020908152604080832033909516835293815283822054928252600490529182205483901080159061055a5750828110155b151561056557600080fd5b600160a060020a03808516600090815260046020526040808220805487019055918716815220805484900390556000198110156105ca57600160a060020a03808616600090815260056020908152604080832033909416835292905220805484900390555b83600160a060020a031685600160a060020a03167fddf252ad1be2c89b69c2b068fc378daa952ba7f163c4a11628f55a4df523b3ef8560405190815260200160405180910390a3506001949350505050565b60046020526000908152604090205481565b60025460ff1681565b600560209081526000928352604080842090915290825290205481565b600654600090600160a060020a03166305fd22d033836040516020015260405160e060020a63ffffffff8416028152600160a060020a039091166004820152602401602060405180830381600087803b15156106af57600080fd5b6102c65a03f115156106c057600080fd5b5050506040518051151560011490506106d857600080fd5b6006548290600490600090600160a060020a03166394a3760f82604051602001526040518163ffffffff1660e060020a028152600401602060405180830381600087803b151561072757600080fd5b6102c65a03f1151561073857600080fd5b5050506040518051600160a060020a0316825250602081019190915260400160002054101561076957506000610893565b6006546107f490600490600090600160a060020a03166394a3760f82604051602001526040518163ffffffff1660e060020a028152600401602060405180830381600087803b15156107ba57600080fd5b6102c65a03f115156107cb57600080fd5b5050506040518051600160a060020a031682525060208101919091526040016000205483610b6f565b600654600490600090600160a060020a03166394a3760f82604051602001526040518163ffffffff1660e060020a028152600401602060405180830381600087803b151561084157600080fd5b6102c65a03f1151561085257600080fd5b50505060405180519050600160a060020a0316600160a060020a031681526020019081526020016000208190555061088c60005483610b6f565b6000555060015b919050565b600160a060020a031660009081526004602052604090205490565b60035481565b600654600160a060020a03166305fd22d03360006040516020015260405160e060020a63ffffffff8416028152600160a060020a039091166004820152602401602060405180830381600087803b151561091257600080fd5b6102c65a03f1151561092357600080fd5b50505060405180511515600114905061093b57600080fd5b6006546109c690600490600090600160a060020a03166394a3760f82604051602001526040518163ffffffff1660e060020a028152600401602060405180830381600087803b151561098c57600080fd5b6102c65a03f1151561099d57600080fd5b5050506040518051600160a060020a031682525060208101919091526040016000205482610b81565b600654600490600090600160a060020a03166394a3760f82604051602001526040518163ffffffff1660e060020a028152600401602060405180830381600087803b1515610a1357600080fd5b6102c65a03f11515610a2457600080fd5b50505060405180519050600160a060020a0316600160a060020a0316815260200190815260200160002081905550610a5e60005482610b81565b6000556003547fb83a9cb495aa43a9871c87805ab90712a5f703de6d66d16b96d7afcc91bb3299908260405191825260208201526040908101905180910390a150565b600160a060020a03331660009081526004602052604081205482901015610ac757600080fd5b600160a060020a033381166000818152600460205260408082208054879003905592861680825290839020805486019055917fddf252ad1be2c89b69c2b068fc378daa952ba7f163c4a11628f55a4df523b3ef9085905190815260200160405180910390a350600192915050565b600160a060020a03918216600090815260056020908152604080832093909416825291909152205490565b600654600160a060020a031681565b600082821115610b7b57fe5b50900390565b6000828201838110801590610b965750828110155b1515610b9e57fe5b93925050505600a165627a7a72305820bd459408d4c3dd56ed750d32d736dd71c159808400333216f09a0a5fdf6282630029a165627a7a72305820c9bc8747b01d35b44536cf12028c6b34d44782b7bf2514d35f31b9eee52b53a40029",
  "source": "/**\nThis is the core module of the system. Currently it holds the code of\nthe Bank and crowdsale modules to avoid external calls and higher gas costs.\nIt might be a good idea in the future to split the code, separate Bank\nand crowdsale modules into external files and have the core interact with them\nwith addresses and interfaces. \n*/\npragma solidity ^0.4.17;\n\nimport \"./iERC20Token.sol\";\nimport \"./CurrencyToken.sol\";\nimport \"./DepositContract.sol\";\n\n\n/// @title Populous contract\ncontract Populous is withAccessManager {\n\n    // EVENTS\n    event EventNewCrowdsaleBlock(bytes32 crowdsaleId, bytes32 invoiceId, uint sourceLength);\n    event EventNewCrowdsaleSource(bytes32 crowdsaleId, bytes32 invoiceId, uint sourceLength);\n    // Bank events\n    event EventWithdrawPPT(bytes32 accountId, address depositContract, address to, uint amount);\n    event EventWithdrawPokens(bytes32 accountId, address to, uint amount, bytes32 currency);\n    event EventImportPokens(address from, bytes32 accountId, bytes32 currency, uint balance);\n    event EventNewCurrency(bytes32 tokenName, uint8 decimalUnits, bytes32 tokenSymbol, address addr);\n    event EventNewDepositContract(bytes32 clientId, address depositContractAddress);\n\n    // FIELDS\n    mapping(bytes32 => address) currencies;\n    mapping(address => bytes32) currenciesSymbols;\n\n\n    // This variable will be used to keep track of client IDs and\n    // their deposit addresses\n    // clientId => depositAddress\n    mapping (bytes32 => address) depositAddress;\n\n    struct storageSource {\n        bytes dataHash1;\n        bytes dataHash2;\n        bytes32 dataSource; // upload provider: ipfs / aws (uploaded to our aws server) / ... who provides the storage for this information.\n        bytes32 dataType; // crowdsale (creators, bids) + addresses /exchange_date/deposit_history (latest)/ -- for external auditing.\n    }\n\n    struct record {\n       bytes32 invoiceId;\n       bool isSet;\n       storageSource[] documents; //source[0] = [\"0x23222324\"]\n    }\n\n    //crowdsaleId => (invoiceId, documents [\"crowdsale_log\",\"exchange_history\",\"deposit_history\"])\n    mapping(bytes32 => record) Blocks;\n\n\n    // NON-CONSTANT METHODS\n    // Constructor method called when contract instance is \n    // deployed with 'withAccessManager' modifier.\n    function Populous(address _accessManager) public withAccessManager(_accessManager) { }\n    /**\n    BANK MODULE\n    */\n\n\n    // NON-CONSTANT METHODS\n    function insertBlock(bytes32 _crowdsaleId, bytes32 _invoiceId, \n        bytes _ipfsHash1,\n        bytes _ipfsHash2,\n        bytes _awsHash1,\n        bytes _awsHash2,\n        bytes32 _dataType) \n    public\n    onlyServer\n    {\n        require(Blocks[_crowdsaleId].isSet == false);\n        Blocks[_crowdsaleId].documents.push(storageSource(\n           _ipfsHash1,\n           _ipfsHash2,\n           \"ipfs\",\n           _dataType)\n        );\n\n        // record the history of a crowdsale on the ledger, with internal and external logs, and interal address too so it can be easily audited using etherscan\n        Blocks[_crowdsaleId].invoiceId = _invoiceId;\n        Blocks[_crowdsaleId].documents.push(storageSource(\n           _awsHash1,\n           _awsHash2,\n           \"aws\",\n           _dataType)\n        );\n\n        Blocks[_crowdsaleId].isSet = true;\n        EventNewCrowdsaleBlock(_crowdsaleId, _invoiceId, getRecordDocumentIndexes(_crowdsaleId));\n\n    }\n\n    function insertSource(bytes32 _crowdsaleId, bytes _dataHash1, bytes _dataHash2, bytes32 _dataSource, bytes32 _dataType) public {\n        require(Blocks[_crowdsaleId].isSet == true);\n\n        Blocks[_crowdsaleId].documents.push(storageSource(\n           _dataHash1,\n           _dataHash2,\n           _dataSource,\n           _dataType)\n        );\n        EventNewCrowdsaleSource(_crowdsaleId, Blocks[_crowdsaleId].invoiceId, getRecordDocumentIndexes(_crowdsaleId));\n    }\n       /** @dev Creates a new 'depositAddress' gotten from deploying a deposit contract linked to a client ID\n      * @param clientId The bytes32 client ID\n      * @return address The address of the deployed deposit contract instance.\n      */\n    function createAddress(bytes32 clientId) public\n        onlyServer\n    {\n        depositAddress[clientId] = new DepositContract(clientId, AM);\n        assert(depositAddress[clientId] != 0x0);\n\n        EventNewDepositContract(clientId, depositAddress[clientId]);\n    }\n\n    /** @dev Creates a new token/currency.\n      * @param _tokenName  The name of the currency.\n      * @param _decimalUnits The number of decimals the currency has.\n      * @param _tokenSymbol The cyrrency symbol, e.g., GBP\n      */\n    function createCurrency(bytes32 _tokenName, uint8 _decimalUnits, bytes32 _tokenSymbol)\n        public\n        onlyServer\n    {\n        // Check if currency already exists\n        require(currencies[_tokenSymbol] == 0x0);\n\n        currencies[_tokenSymbol] = new CurrencyToken(address(AM), _tokenName, _decimalUnits, _tokenSymbol);\n        \n        assert(currencies[_tokenSymbol] != 0x0);\n\n        currenciesSymbols[currencies[_tokenSymbol]] = _tokenSymbol;\n\n        EventNewCurrency(_tokenName, _decimalUnits, _tokenSymbol, currencies[_tokenSymbol]);\n    }\n\n    \n    function withdrawPPT(address pptAddress, bytes32 accountId, address depositContract, address to, uint amount) public onlyServer {\n        DepositContract o = DepositContract(depositContract);\n        require(o.transfer(pptAddress, to, amount) == true);\n        EventWithdrawPPT(accountId, depositContract, to, amount);\n    }\n    \n    function importPokens(bytes32 currency, address from, bytes32 accountId) public onlyServer {\n        CurrencyToken CT = CurrencyToken(currencies[currency]);\n        \n        //check balance.\n        uint256 balance = CT.balanceOf(from);\n        //balance is more than 0, and balance has been destroyed.\n        require(CT.balanceOf(from) > 0 && CT.destroyTokensFrom(balance, from) == true);\n        //emit event: Imported currency to system\n        EventImportPokens(from, accountId,currency,balance);\n    }\n\n\n    function withdrawPoken(bytes32 accountId, address to, uint amount, bytes32 currency) public onlyServer {\n        require(currencies[currency] != 0x0);\n\n        CurrencyToken cT = CurrencyToken(currencies[currency]);\n        \n        //credit ledger\n        cT.mintTokens(amount);\n        //credit account\n        cT.transfer(to, amount);\n\n        //emit event: Imported currency to system\n        EventWithdrawPokens(accountId, to, amount, currency);\n    }\n\n    // CONSTANT METHODS\n\n\n    /** @dev Gets the address of a currency.\n      * @param currency The currency.\n      * @return address The currency address.\n      */\n    function getCurrency(bytes32 currency) public view returns (address) {\n        return currencies[currency];\n    }\n\n    /** @dev Gets the currency symbol of a currency.\n      * @param currency The currency.\n      * @return bytes32 The currency sybmol, e.g., GBP.\n      */\n    function getCurrencySymbol(address currency) public view returns (bytes32) {\n        return currenciesSymbols[currency];\n    }\n    /** @dev Gets the deposit address linked to a given client ID.\n      * @param clientId The client ID.\n      * @return address The deposit address.\n      */\n    function getDepositAddress(bytes32 clientId) public view returns (address) {\n        return depositAddress[clientId];\n    }\n    function getRecord(bytes32 _crowdsaleId, uint documentIndex) public view \n    returns(bytes32, bytes, bytes, bytes32, bytes32) \n    {\n        return (Blocks[_crowdsaleId].invoiceId,\n                Blocks[_crowdsaleId].documents[documentIndex].dataHash1,\n                Blocks[_crowdsaleId].documents[documentIndex].dataHash2,\n                Blocks[_crowdsaleId].documents[documentIndex].dataSource,\n                Blocks[_crowdsaleId].documents[documentIndex].dataType\n                );\n\n    }\n\n    function getRecordDocumentIndexes(bytes32 _crowdsaleId) public view\n    returns(uint)\n    {\n        return Blocks[_crowdsaleId].documents.length;\n    }\n}",
  "sourcePath": "/Users/najienka/Desktop/populous-smartcontracts/contracts/Populous.sol",
  "schemaVersion": "1.0.0",
  "updatedAt": "2018-02-18T10:27:05.249Z"
}