{
  "contractName": "Populous",
  "abi": [
    {
      "constant": false,
      "inputs": [
        {
          "name": "_accessManager",
          "type": "address"
        }
      ],
      "name": "updateAccessManager",
      "outputs": [],
      "payable": false,
      "stateMutability": "nonpayable",
      "type": "function"
    },
    {
      "constant": true,
      "inputs": [
        {
          "name": "_blockchainActionId",
          "type": "bytes32"
        }
      ],
      "name": "getBlockchainActionIdData",
      "outputs": [
        {
          "name": "_currency",
          "type": "bytes32"
        },
        {
          "name": "_amount",
          "type": "uint256"
        },
        {
          "name": "_accountId",
          "type": "bytes32"
        },
        {
          "name": "_to",
          "type": "address"
        }
      ],
      "payable": false,
      "stateMutability": "view",
      "type": "function"
    },
    {
      "constant": false,
      "inputs": [
        {
          "name": "_blockchainActionId",
          "type": "bytes32"
        },
        {
          "name": "_providerUserId",
          "type": "bytes32"
        },
        {
          "name": "_invoiceCountryCode",
          "type": "bytes2"
        },
        {
          "name": "_invoiceCompanyNumber",
          "type": "bytes32"
        },
        {
          "name": "_invoiceCompanyName",
          "type": "bytes32"
        },
        {
          "name": "_invoiceNumber",
          "type": "bytes32"
        }
      ],
      "name": "addInvoice",
      "outputs": [],
      "payable": false,
      "stateMutability": "nonpayable",
      "type": "function"
    },
    {
      "constant": true,
      "inputs": [
        {
          "name": "_providerUserId",
          "type": "bytes32"
        }
      ],
      "name": "getProviderByUserId",
      "outputs": [
        {
          "name": "countryCode",
          "type": "bytes2"
        },
        {
          "name": "companyName",
          "type": "bytes32"
        },
        {
          "name": "companyNumber",
          "type": "bytes32"
        },
        {
          "name": "isEnabled",
          "type": "bool"
        }
      ],
      "payable": false,
      "stateMutability": "view",
      "type": "function"
    },
    {
      "constant": true,
      "inputs": [
        {
          "name": "clientId",
          "type": "bytes32"
        }
      ],
      "name": "getDepositAddress",
      "outputs": [
        {
          "name": "_depositAddress",
          "type": "address"
        }
      ],
      "payable": false,
      "stateMutability": "view",
      "type": "function"
    },
    {
      "constant": false,
      "inputs": [
        {
          "name": "_blockchainActionId",
          "type": "bytes32"
        },
        {
          "name": "clientId",
          "type": "bytes32"
        }
      ],
      "name": "createAddress",
      "outputs": [],
      "payable": false,
      "stateMutability": "nonpayable",
      "type": "function"
    },
    {
      "constant": true,
      "inputs": [
        {
          "name": "currency",
          "type": "address"
        }
      ],
      "name": "getCurrencySymbol",
      "outputs": [
        {
          "name": "currencySymbol",
          "type": "bytes32"
        }
      ],
      "payable": false,
      "stateMutability": "view",
      "type": "function"
    },
    {
      "constant": true,
      "inputs": [
        {
          "name": "_invoiceCountryCode",
          "type": "bytes2"
        },
        {
          "name": "_invoiceCompanyNumber",
          "type": "bytes32"
        },
        {
          "name": "_invoiceNumber",
          "type": "bytes32"
        }
      ],
      "name": "getInvoice",
      "outputs": [
        {
          "name": "providerUserId",
          "type": "bytes32"
        },
        {
          "name": "invoiceCompanyName",
          "type": "bytes32"
        }
      ],
      "payable": false,
      "stateMutability": "view",
      "type": "function"
    },
    {
      "constant": false,
      "inputs": [
        {
          "name": "_blockchainActionId",
          "type": "bytes32"
        },
        {
          "name": "_userId",
          "type": "bytes32"
        }
      ],
      "name": "enableProvider",
      "outputs": [],
      "payable": false,
      "stateMutability": "nonpayable",
      "type": "function"
    },
    {
      "constant": false,
      "inputs": [
        {
          "name": "_blockchainActionId",
          "type": "bytes32"
        },
        {
          "name": "_userId",
          "type": "bytes32"
        },
        {
          "name": "_companyNumber",
          "type": "bytes32"
        },
        {
          "name": "_companyName",
          "type": "bytes32"
        },
        {
          "name": "_countryCode",
          "type": "bytes2"
        }
      ],
      "name": "addProvider",
      "outputs": [],
      "payable": false,
      "stateMutability": "nonpayable",
      "type": "function"
    },
    {
      "constant": false,
      "inputs": [
        {
          "name": "_blockchainActionId",
          "type": "bytes32"
        },
        {
          "name": "_userId",
          "type": "bytes32"
        }
      ],
      "name": "disableProvider",
      "outputs": [],
      "payable": false,
      "stateMutability": "nonpayable",
      "type": "function"
    },
    {
      "constant": false,
      "inputs": [
        {
          "name": "_blockchainActionId",
          "type": "bytes32"
        },
        {
          "name": "currency",
          "type": "bytes32"
        },
        {
          "name": "amount",
          "type": "uint256"
        },
        {
          "name": "from",
          "type": "address"
        },
        {
          "name": "to",
          "type": "address"
        },
        {
          "name": "accountId",
          "type": "bytes32"
        },
        {
          "name": "inCollateral",
          "type": "uint256"
        },
        {
          "name": "pptAddress",
          "type": "address"
        },
        {
          "name": "pptFee",
          "type": "uint256"
        },
        {
          "name": "adminExternalWallet",
          "type": "address"
        },
        {
          "name": "toBank",
          "type": "bool"
        }
      ],
      "name": "withdrawPoken",
      "outputs": [],
      "payable": false,
      "stateMutability": "nonpayable",
      "type": "function"
    },
    {
      "constant": true,
      "inputs": [
        {
          "name": "_blockchainActionId",
          "type": "bytes32"
        }
      ],
      "name": "getActionStatus",
      "outputs": [
        {
          "name": "_blockchainActionStatus",
          "type": "bool"
        }
      ],
      "payable": false,
      "stateMutability": "view",
      "type": "function"
    },
    {
      "constant": true,
      "inputs": [
        {
          "name": "_providerCountryCode",
          "type": "bytes2"
        },
        {
          "name": "_providerCompanyNumber",
          "type": "bytes32"
        }
      ],
      "name": "getProviderByCountryCodeCompanyNumber",
      "outputs": [
        {
          "name": "providerId",
          "type": "bytes32"
        },
        {
          "name": "companyName",
          "type": "bytes32"
        },
        {
          "name": "isEnabled",
          "type": "bool"
        }
      ],
      "payable": false,
      "stateMutability": "view",
      "type": "function"
    },
    {
      "constant": true,
      "inputs": [
        {
          "name": "_userId",
          "type": "bytes32"
        }
      ],
      "name": "getProviderStatus",
      "outputs": [
        {
          "name": "isEnabled",
          "type": "bool"
        }
      ],
      "payable": false,
      "stateMutability": "view",
      "type": "function"
    },
    {
      "constant": false,
      "inputs": [
        {
          "name": "_blockchainActionId",
          "type": "bytes32"
        },
        {
          "name": "_tokenName",
          "type": "bytes32"
        },
        {
          "name": "_decimalUnits",
          "type": "uint8"
        },
        {
          "name": "_tokenSymbol",
          "type": "bytes32"
        }
      ],
      "name": "createCurrency",
      "outputs": [],
      "payable": false,
      "stateMutability": "nonpayable",
      "type": "function"
    },
    {
      "constant": true,
      "inputs": [
        {
          "name": "currency",
          "type": "bytes32"
        }
      ],
      "name": "getCurrency",
      "outputs": [
        {
          "name": "_currencyAddress",
          "type": "address"
        }
      ],
      "payable": false,
      "stateMutability": "view",
      "type": "function"
    },
    {
      "constant": false,
      "inputs": [
        {
          "name": "_blockchainActionId",
          "type": "bytes32"
        },
        {
          "name": "pptAddress",
          "type": "address"
        },
        {
          "name": "accountId",
          "type": "bytes32"
        },
        {
          "name": "to",
          "type": "address"
        },
        {
          "name": "amount",
          "type": "uint256"
        },
        {
          "name": "inCollateral",
          "type": "uint256"
        },
        {
          "name": "pptFee",
          "type": "uint256"
        },
        {
          "name": "adminExternalWallet",
          "type": "address"
        }
      ],
      "name": "withdrawERC20",
      "outputs": [],
      "payable": false,
      "stateMutability": "nonpayable",
      "type": "function"
    },
    {
      "constant": true,
      "inputs": [],
      "name": "AM",
      "outputs": [
        {
          "name": "",
          "type": "address"
        }
      ],
      "payable": false,
      "stateMutability": "view",
      "type": "function"
    },
    {
      "inputs": [
        {
          "name": "_accessManager",
          "type": "address"
        }
      ],
      "payable": false,
      "stateMutability": "nonpayable",
      "type": "constructor"
    },
    {
      "anonymous": false,
      "inputs": [
        {
          "indexed": false,
          "name": "blockchainActionId",
          "type": "bytes32"
        },
        {
          "indexed": false,
          "name": "invoiceId",
          "type": "bytes32"
        },
        {
          "indexed": false,
          "name": "sourceLength",
          "type": "uint256"
        }
      ],
      "name": "EventNewCrowdsaleBlock",
      "type": "event"
    },
    {
      "anonymous": false,
      "inputs": [
        {
          "indexed": false,
          "name": "invoiceId",
          "type": "bytes32"
        },
        {
          "indexed": false,
          "name": "sourceLength",
          "type": "uint256"
        }
      ],
      "name": "EventNewCrowdsaleSource",
      "type": "event"
    },
    {
      "anonymous": false,
      "inputs": [
        {
          "indexed": false,
          "name": "blockchainActionId",
          "type": "bytes32"
        },
        {
          "indexed": false,
          "name": "accountId",
          "type": "bytes32"
        },
        {
          "indexed": false,
          "name": "depositContract",
          "type": "address"
        },
        {
          "indexed": false,
          "name": "to",
          "type": "address"
        },
        {
          "indexed": false,
          "name": "amount",
          "type": "uint256"
        }
      ],
      "name": "EventWithdrawPPT",
      "type": "event"
    },
    {
      "anonymous": false,
      "inputs": [
        {
          "indexed": false,
          "name": "_blockchainActionId",
          "type": "bytes32"
        },
        {
          "indexed": false,
          "name": "accountId",
          "type": "bytes32"
        },
        {
          "indexed": false,
          "name": "currency",
          "type": "bytes32"
        },
        {
          "indexed": false,
          "name": "amount",
          "type": "uint256"
        },
        {
          "indexed": false,
          "name": "toBank",
          "type": "bool"
        }
      ],
      "name": "EventWithdrawPoken",
      "type": "event"
    },
    {
      "anonymous": false,
      "inputs": [
        {
          "indexed": false,
          "name": "blockchainActionId",
          "type": "bytes32"
        },
        {
          "indexed": false,
          "name": "tokenName",
          "type": "bytes32"
        },
        {
          "indexed": false,
          "name": "decimalUnits",
          "type": "uint8"
        },
        {
          "indexed": false,
          "name": "tokenSymbol",
          "type": "bytes32"
        },
        {
          "indexed": false,
          "name": "addr",
          "type": "address"
        }
      ],
      "name": "EventNewCurrency",
      "type": "event"
    },
    {
      "anonymous": false,
      "inputs": [
        {
          "indexed": false,
          "name": "blockchainActionId",
          "type": "bytes32"
        },
        {
          "indexed": false,
          "name": "clientId",
          "type": "bytes32"
        },
        {
          "indexed": false,
          "name": "depositContractAddress",
          "type": "address"
        }
      ],
      "name": "EventNewDepositContract",
      "type": "event"
    },
    {
      "anonymous": false,
      "inputs": [
        {
          "indexed": false,
          "name": "_blockchainActionId",
          "type": "bytes32"
        },
        {
          "indexed": false,
          "name": "_userId",
          "type": "bytes32"
        },
        {
          "indexed": false,
          "name": "_companyName",
          "type": "bytes32"
        },
        {
          "indexed": false,
          "name": "_companyNumber",
          "type": "bytes32"
        },
        {
          "indexed": false,
          "name": "countryCode",
          "type": "bytes2"
        }
      ],
      "name": "EventNewProvider",
      "type": "event"
    },
    {
      "anonymous": false,
      "inputs": [
        {
          "indexed": false,
          "name": "_blockchainActionId",
          "type": "bytes32"
        },
        {
          "indexed": false,
          "name": "_providerUserId",
          "type": "bytes32"
        },
        {
          "indexed": false,
          "name": "invoiceCountryCode",
          "type": "bytes2"
        },
        {
          "indexed": false,
          "name": "invoiceCompanyNumber",
          "type": "bytes32"
        },
        {
          "indexed": false,
          "name": "invoiceCompanyName",
          "type": "bytes32"
        },
        {
          "indexed": false,
          "name": "invoiceNumber",
          "type": "bytes32"
        }
      ],
      "name": "EventNewInvoice",
      "type": "event"
    },
    {
      "anonymous": false,
      "inputs": [
        {
          "indexed": false,
          "name": "_blockchainActionId",
          "type": "bytes32"
        },
        {
          "indexed": false,
          "name": "_userId",
          "type": "bytes32"
        },
        {
          "indexed": false,
          "name": "_countryCode",
          "type": "bytes2"
        },
        {
          "indexed": false,
          "name": "_companyNumber",
          "type": "bytes32"
        }
      ],
      "name": "EventProviderEnabled",
      "type": "event"
    },
    {
      "anonymous": false,
      "inputs": [
        {
          "indexed": false,
          "name": "_blockchainActionId",
          "type": "bytes32"
        },
        {
          "indexed": false,
          "name": "_userId",
          "type": "bytes32"
        },
        {
          "indexed": false,
          "name": "_countryCode",
          "type": "bytes2"
        },
        {
          "indexed": false,
          "name": "_companyNumber",
          "type": "bytes32"
        }
      ],
      "name": "EventProviderDisabled",
      "type": "event"
    }
  ],
  "bytecode": "0x6060604052341561000f57600080fd5b604051602080612b188339810160405280805160008054600160a060020a03909216600160a060020a03199092169190911790555050612ac4806100546000396000f300606060405236156100eb5763ffffffff60e060020a60003504166302ab72c481146100f0578063120ab58c14610111578063150b1c6e1461015b5780631529905c1461018a5780632a01a451146101d75780633b6d638714610209578063554c9b6a1461022257806355a6db82146102535780637cfd3a8214610291578063859d129f146102aa578063a37aa1fc146102d6578063baea3306146102ef578063bea0897c1461033d578063beae439d14610367578063c01f1722146103b0578063c80e7ee8146103c6578063d383b80d146103e8578063e388c344146103fe578063f7f01b4b1461043c575b600080fd5b34156100fb57600080fd5b61010f600160a060020a036004351661044f565b005b341561011c57600080fd5b6101276004356104f5565b6040519384526020840192909252604080840191909152600160a060020a0390911660608301526080909101905180910390f35b341561016657600080fd5b61010f600435602435600160f060020a03196044351660643560843560a435610550565b341561019557600080fd5b6101a0600435610694565b604051600160f060020a03199094168452602084019290925260408084019190915290151560608301526080909101905180910390f35b34156101e257600080fd5b6101ed6004356106c5565b604051600160a060020a03909116815260200160405180910390f35b341561021457600080fd5b61010f6004356024356106e0565b341561022d57600080fd5b610241600160a060020a03600435166108a2565b60405190815260200160405180910390f35b341561025e57600080fd5b610279600160f060020a0319600435166024356044356108bd565b60405191825260208201526040908101905180910390f35b341561029c57600080fd5b61010f600435602435610919565b34156102b557600080fd5b61010f600435602435604435606435600160f060020a031960843516610a98565b34156102e157600080fd5b61010f600435602435610c3d565b34156102fa57600080fd5b61010f600435602435604435600160a060020a0360643581169060843581169060a4359060c4359060e43581169061010435906101243516610144351515610dbd565b341561034857600080fd5b6103536004356112e1565b604051901515815260200160405180910390f35b341561037257600080fd5b61038a600160f060020a0319600435166024356112f6565b604051928352602083019190915215156040808301919091526060909101905180910390f35b34156103bb57600080fd5b610353600435611337565b34156103d157600080fd5b61010f60043560243560ff6044351660643561134c565b34156103f357600080fd5b6101ed600435611578565b341561040957600080fd5b61010f600435600160a060020a03602435811690604435906064358116906084359060a4359060c4359060e43516611593565b341561044757600080fd5b6101ed611924565b60008054600160a060020a03169063fda089589033906040516020015260405160e060020a63ffffffff8416028152600160a060020a039091166004820152602401602060405180830381600087803b15156104aa57600080fd5b6102c65a03f115156104bb57600080fd5b5050506040518051151560011490506104d357600080fd5b60008054600160a060020a031916600160a060020a0392909216919091179055565b60008181526003602052604081205481908190819060ff16151560011461051b57600080fd5b5050506000918252506004602052604090208054600182015460028301546003909301549193909291600160a060020a031690565b60008681526003602052604090205460ff161561056c57600080fd5b60008581526008602052604090205460ff16151560011461058c57600080fd5b600160f060020a0319841660009081526009602090815260408083208684528252808320848452909152902054156105c357600080fd5b600160f060020a03198416600090815260096020908152604080832086845282528083208484528252808320888155600190810186905589845260039092528220805460ff1916909117905561061e90879080888180611933565b7f53c9402948bb1a0f1c1ff853af7d9843a08489c0e79a7066f4d6ac7a7ac7876a8686868686866040519586526020860194909452600160f060020a03199092166040808601919091526060850191909152608084019190915260a083019190915260c0909101905180910390a1505050505050565b6000908152600860205260409020600381015460028201546001830154925460f060020a9092029390929160ff1690565b600090815260056020526040902054600160a060020a031690565b60008054600160a060020a03169063fda089589033906040516020015260405160e060020a63ffffffff8416028152600160a060020a039091166004820152602401602060405180830381600087803b151561073b57600080fd5b6102c65a03f1151561074c57600080fd5b50505060405180511515600114905061076457600080fd5b60008281526003602052604090205460ff161561078057600080fd5b6000548190600160a060020a03166107966119d3565b918252600160a060020a0316602082015260409081019051809103906000f08015156107c157600080fd5b60008281526005602052604090208054600160a060020a031916600160a060020a0392831617908190551615156107f457fe5b6000828152600360208181526040808420805460ff1916600117905560048252808420600281018690558585526005909252928390208054919092018054600160a060020a031916600160a060020a0392831617905590547fb6e4c061023577b7e47ffdc4a06fbdb30a157c488fdd58e1735c32b6d8b33cb292859285921690519283526020830191909152600160a060020a03166040808301919091526060909101905180910390a15050565b600160a060020a031660009081526002602052604090205490565b600160f060020a031983166000908152600960209081526040808320858452825280832084845290915281208054600190910154829190811580159061090257508015155b151561090d57600080fd5b90969095509350505050565b60008054600160a060020a03169063fda089589033906040516020015260405160e060020a63ffffffff8416028152600160a060020a039091166004820152602401602060405180830381600087803b151561097457600080fd5b6102c65a03f1151561098557600080fd5b50505060405180511515600114905061099d57600080fd5b60008281526003602052604090205460ff16156109b957600080fd5b60008181526008602052604090205460ff16156109d557600080fd5b60008181526008602090815260408083208054600160ff19918216811790925586855260039093529083208054909216179055610a1790839080848180611933565b6000818152600860205260409081902060038101546001909101547f1e0f9d76258cb974c18639e20ca4793b016db643898a3c0a4730c9f28b4ab9cd928592859260f060020a90910291519384526020840192909252600160f060020a03191660408084019190915260608301919091526080909101905180910390a15050565b60008054600160a060020a03169063fda089589033906040516020015260405160e060020a63ffffffff8416028152600160a060020a039091166004820152602401602060405180830381600087803b1515610af357600080fd5b6102c65a03f11515610b0457600080fd5b505050604051805115156001149050610b1c57600080fd5b60008581526003602052604090205460ff1615610b3857600080fd5b60008481526008602052604090206001015415610b5457600080fd5b60008481526008602090815260408083206003808201805461ffff191660f060020a8804179055600282018790556001808301899055825460ff199081168217909355600160f060020a0319871686526007855283862089875285528386208a90558a8652935290832080549091169091179055610bd790869080878180611933565b7f715169d37d48828f31a81b71e5da2d5934b107791a77894e3bce33b5d59e0fd6858584868560405194855260208501939093526040808501929092526060840152600160f060020a0319909116608083015260a0909101905180910390a15050505050565b60008054600160a060020a03169063fda089589033906040516020015260405160e060020a63ffffffff8416028152600160a060020a039091166004820152602401602060405180830381600087803b1515610c9857600080fd5b6102c65a03f11515610ca957600080fd5b505050604051805115156001149050610cc157600080fd5b60008281526003602052604090205460ff1615610cdd57600080fd5b60008181526008602052604090205460ff161515600114610cfd57600080fd5b6000818152600860209081526040808320805460ff199081169091558584526003909252822080549091166001179055610d3c90839080848180611933565b6000818152600860205260409081902060038101546001909101547f9ec0f1400b2cd758180963835f6ee3ee54255e76316bd539120a66903bd60948928592859260f060020a90910291519384526020840192909252600160f060020a03191660408084019190915260608301919091526080909101905180910390a15050565b600080548190600160a060020a031663fda0895833836040516020015260405160e060020a63ffffffff8416028152600160a060020a039091166004820152602401602060405180830381600087803b1515610e1857600080fd5b6102c65a03f11515610e2957600080fd5b505050604051805115156001149050610e4157600080fd5b60008d81526003602052604090205460ff1615610e5d57600080fd5b600160a060020a03841615801590610e755750600085115b8015610e81575060008b115b8015610ea3575060008c815260016020526040902054600160a060020a031615155b1515610eae57600080fd5b610eb7886106c5565b915084610f3583600160a060020a03166370a082318960006040516020015260405160e060020a63ffffffff8416028152600160a060020a039091166004820152602401602060405180830381600087803b1515610f1457600080fd5b6102c65a03f11515610f2557600080fd5b505050604051805190508961199d565b10158015610fc9575081600160a060020a031663beabacc887868860006040516020015260405160e060020a63ffffffff8616028152600160a060020a0393841660048201529190921660248201526044810191909152606401602060405180830381600087803b1515610fa857600080fd5b6102c65a03f11515610fb957600080fd5b5050506040518051151560011490505b1515610fd457600080fd5b5060008b815260016020819052604090912054600160a060020a0316908315151415611182578a81600160a060020a03166370a082318c60006040516020015260405160e060020a63ffffffff8416028152600160a060020a039091166004820152602401602060405180830381600087803b151561105257600080fd5b6102c65a03f1151561106357600080fd5b50505060405180519050101580156110f5575080600160a060020a0316630156b3238c8c60006040516020015260405160e060020a63ffffffff85160281526004810192909252600160a060020a03166024820152604401602060405180830381600087803b15156110d457600080fd5b6102c65a03f115156110e557600080fd5b5050506040518051151560011490505b151561110057600080fd5b60008d8152600360205260409020805460ff191660011790556111278d8d8d8b8e8a611933565b7f471ca94ad77c519a81da4f8dc0fe508299cb64c10c988cc641abbaede6c075ff8d898e8e8760405194855260208501939093526040808501929092526060840152901515608083015260a0909101905180910390a16112d2565b80600160a060020a03166397304ced8c60405160e060020a63ffffffff84160281526004810191909152602401600060405180830381600087803b15156111c857600080fd5b6102c65a03f115156111d957600080fd5b50505080600160a060020a031663a9059cbb8a8d60006040516020015260405160e060020a63ffffffff8516028152600160a060020a0390921660048301526024820152604401602060405180830381600087803b151561123957600080fd5b6102c65a03f1151561124a57600080fd5b5050506040518051505060008d8152600360205260409020805460ff1916600117905561127b8d8d8d8b8d8a611933565b7f471ca94ad77c519a81da4f8dc0fe508299cb64c10c988cc641abbaede6c075ff8d898e8e8760405194855260208501939093526040808501929092526060840152901515608083015260a0909101905180910390a15b50505050505050505050505050565b60009081526003602052604090205460ff1690565b600160f060020a03198216600090815260076020908152604080832084845282528083205480845260089092529091206002810154905460ff169250925092565b60009081526008602052604090205460ff1690565b60008054600160a060020a03169063fda089589033906040516020015260405160e060020a63ffffffff8416028152600160a060020a039091166004820152602401602060405180830381600087803b15156113a757600080fd5b6102c65a03f115156113b857600080fd5b5050506040518051151560011490506113d057600080fd5b60008481526003602052604090205460ff16156113ec57600080fd5b600081815260016020526040902054600160a060020a03161561140e57600080fd5b600054600160a060020a03168383836114256119e3565b600160a060020a039094168452602084019290925260ff16604080840191909152606083019190915260809091019051809103906000f080151561146857600080fd5b60008281526001602052604090208054600160a060020a031916600160a060020a03928316179081905516151561149b57fe5b60008181526001602081815260408084208054600160a060020a039081168652600284528286208790558986526003808552838720805460ff19168717905560048552838720888155835491018054600160a060020a031916918316919091179055948690529290915290547f6f9a94a4b659b99ce71e6f2eaa4b609443bd0350f9e1f7b2d566815cb90f0e9692879287928792879291169051948552602085019390935260ff9091166040808501919091526060840191909152600160a060020a03909116608083015260a0909101905180910390a150505050565b600090815260016020526040902054600160a060020a031690565b6000805481908190600160a060020a031663fda0895833836040516020015260405160e060020a63ffffffff8416028152600160a060020a039091166004820152602401602060405180830381600087803b15156115f057600080fd5b6102c65a03f1151561160157600080fd5b50505060405180511515600114905061161957600080fd5b60008b81526003602052604090205460ff161561163557600080fd5b600160a060020a0384161580159061164d5750600085115b80156116595750600087115b151561166457600080fd5b61166d896106c5565b92506116ea83600160a060020a03166370a082318c60006040516020015260405160e060020a63ffffffff8416028152600160a060020a039091166004820152602401602060405180830381600087803b15156116c957600080fd5b6102c65a03f115156116da57600080fd5b505050604051805190508761199d565b91506116f687866119af565b821015801561178b575082600160a060020a031663beabacc88b8a8a60006040516020015260405160e060020a63ffffffff8616028152600160a060020a0393841660048201529190921660248201526044810191909152606401602060405180830381600087803b151561176a57600080fd5b6102c65a03f1151561177b57600080fd5b5050506040518051151560011490505b801561181d575082600160a060020a031663beabacc88b868860006040516020015260405160e060020a63ffffffff8616028152600160a060020a0393841660048201529190921660248201526044810191909152606401602060405180830381600087803b15156117fc57600080fd5b6102c65a03f1151561180d57600080fd5b5050506040518051151560011490505b151561182857600080fd5b5060008a815260036020526040808220805460ff191660011790558a916118b4918d91600160a060020a038516916395d89b41919051602001526040518163ffffffff1660e060020a028152600401602060405180830381600087803b151561189057600080fd5b6102c65a03f115156118a157600080fd5b50505060405180519050898c8c8a611933565b7fb34e83f654f4c047e331cea47cc1783dd0511abde3cac240a47bfbdefd6812e88b8a858b8b6040519485526020850193909352600160a060020a0391821660408086019190915291166060840152608083019190915260a0909101905180910390a15050505050505050505050565b600054600160a060020a031681565b60008681526003602052604090205460ff16151560011461195357600080fd5b600095865260046020819052604090962094855560018501939093556002840191909155600383018054600160a060020a031916600160a060020a03909216919091179055910155565b6000828211156119a957fe5b50900390565b60008282018381108015906119c45750828110155b15156119cc57fe5b9392505050565b60405161044b806119f483390190565b604051610c5a80611e3f8339019056006060604052341561000f57600080fd5b60405160408061044b833981016040528080519190602001805160008054600160a060020a03909216600160a060020a031990921691909117905550506001556103ed8061005e6000396000f300606060405263ffffffff60e060020a60003504166302ab72c4811461004457806370a0823114610065578063beabacc814610096578063f7f01b4b146100d257600080fd5b341561004f57600080fd5b610063600160a060020a0360043516610101565b005b341561007057600080fd5b610084600160a060020a03600435166101b4565b60405190815260200160405180910390f35b34156100a157600080fd5b6100be600160a060020a036004358116906024351660443561022d565b604051901515815260200160405180910390f35b34156100dd57600080fd5b6100e56103b2565b604051600160a060020a03909116815260200160405180910390f35b60008054600160a060020a03169063fda089589033906040516020015260405160e060020a63ffffffff8416028152600160a060020a039091166004820152602401602060405180830381600087803b151561015c57600080fd5b6102c65a03f1151561016d57600080fd5b50505060405180511515600114905061018557600080fd5b6000805473ffffffffffffffffffffffffffffffffffffffff1916600160a060020a0392909216919091179055565b600081600160a060020a03166370a082313060006040516020015260405160e060020a63ffffffff8416028152600160a060020a039091166004820152602401602060405180830381600087803b151561020d57600080fd5b6102c65a03f1151561021e57600080fd5b50505060405180519392505050565b60008054600160a060020a031663fda0895833836040516020015260405160e060020a63ffffffff8416028152600160a060020a039091166004820152602401602060405180830381600087803b151561028657600080fd5b6102c65a03f1151561029757600080fd5b50505060405180511515600114905080610328575060008054600160a060020a0316906305fd22d09033906040516020015260405160e060020a63ffffffff8416028152600160a060020a039091166004820152602401602060405180830381600087803b151561030757600080fd5b6102c65a03f1151561031857600080fd5b5050506040518051151560011490505b151561033357600080fd5b83600160a060020a031663a9059cbb848460006040516020015260405160e060020a63ffffffff8516028152600160a060020a0390921660048301526024820152604401602060405180830381600087803b151561039057600080fd5b6102c65a03f115156103a157600080fd5b505050604051805195945050505050565b600054600160a060020a0316815600a165627a7a72305820aa6b00f4bb58e86009b6b26aa3b35733ea3d9e8b343423b70006bf2958ef9a310029606060405260008055341561001357600080fd5b604051608080610c5a8339810160405280805191906020018051919060200180519190602001805160068054600160a060020a031916600160a060020a03979097169690961790955550506001919091556002805460ff191660ff909216919091179055600355610bd1806100896000396000f300606060405236156100ca5763ffffffff60e060020a6000350416630156b32381146100cf57806302ab72c41461010557806306fdde0314610126578063095ea7b31461014b57806318160ddd1461016d57806323b872dd1461018057806327e235e3146101a8578063313ce567146101c75780635c658165146101f057806367fbd2891461021557806370a082311461022b57806395d89b411461024a57806397304ced1461025d578063a9059cbb14610273578063dd62ed3e14610295578063f7f01b4b146102ba575b600080fd5b34156100da57600080fd5b6100f1600435600160a060020a03602435166102e9565b604051901515815260200160405180910390f35b341561011057600080fd5b610124600160a060020a03600435166103ed565b005b341561013157600080fd5b61013961049e565b60405190815260200160405180910390f35b341561015657600080fd5b6100f1600160a060020a03600435166024356104a4565b341561017857600080fd5b610139610510565b341561018b57600080fd5b6100f1600160a060020a0360043581169060243516604435610516565b34156101b357600080fd5b610139600160a060020a036004351661061c565b34156101d257600080fd5b6101da61062e565b60405160ff909116815260200160405180910390f35b34156101fb57600080fd5b610139600160a060020a0360043581169060243516610637565b341561022057600080fd5b6100f1600435610654565b341561023657600080fd5b610139600160a060020a0360043516610898565b341561025557600080fd5b6101396108b3565b341561026857600080fd5b6101246004356108b9565b341561027e57600080fd5b6100f1600160a060020a0360043516602435610aa1565b34156102a057600080fd5b610139600160a060020a0360043581169060243516610b35565b34156102c557600080fd5b6102cd610b60565b604051600160a060020a03909116815260200160405180910390f35b600654600090600160a060020a03166305fd22d033836040516020015260405160e060020a63ffffffff8416028152600160a060020a039091166004820152602401602060405180830381600087803b151561034457600080fd5b6102c65a03f1151561035557600080fd5b50505060405180511515600114905061036d57600080fd5b600160a060020a03821660009081526004602052604090205483901015610396575060006103e7565b600160a060020a0382166000908152600460205260409020546103b99084610b6f565b600160a060020a038316600090815260046020526040812091909155546103e09084610b6f565b6000555060015b92915050565b600654600160a060020a031663fda089583360006040516020015260405160e060020a63ffffffff8416028152600160a060020a039091166004820152602401602060405180830381600087803b151561044657600080fd5b6102c65a03f1151561045757600080fd5b50505060405180511515600114905061046f57600080fd5b6006805473ffffffffffffffffffffffffffffffffffffffff1916600160a060020a0392909216919091179055565b60015481565b600160a060020a03338116600081815260056020908152604080832094871680845294909152808220859055909291907f8c5be1e5ebec7d5bd14f71427d1e84f3dd0314c0f7b2291e5b200ac8c7c3b9259085905190815260200160405180910390a350600192915050565b60005481565b600160a060020a03808416600081815260056020908152604080832033909516835293815283822054928252600490529182205483901080159061055a5750828110155b151561056557600080fd5b600160a060020a03808516600090815260046020526040808220805487019055918716815220805484900390556000198110156105ca57600160a060020a03808616600090815260056020908152604080832033909416835292905220805484900390555b83600160a060020a031685600160a060020a03167fddf252ad1be2c89b69c2b068fc378daa952ba7f163c4a11628f55a4df523b3ef8560405190815260200160405180910390a3506001949350505050565b60046020526000908152604090205481565b60025460ff1681565b600560209081526000928352604080842090915290825290205481565b600654600090600160a060020a03166305fd22d033836040516020015260405160e060020a63ffffffff8416028152600160a060020a039091166004820152602401602060405180830381600087803b15156106af57600080fd5b6102c65a03f115156106c057600080fd5b5050506040518051151560011490506106d857600080fd5b6006548290600490600090600160a060020a03166394a3760f82604051602001526040518163ffffffff1660e060020a028152600401602060405180830381600087803b151561072757600080fd5b6102c65a03f1151561073857600080fd5b5050506040518051600160a060020a0316825250602081019190915260400160002054101561076957506000610893565b6006546107f490600490600090600160a060020a03166394a3760f82604051602001526040518163ffffffff1660e060020a028152600401602060405180830381600087803b15156107ba57600080fd5b6102c65a03f115156107cb57600080fd5b5050506040518051600160a060020a031682525060208101919091526040016000205483610b6f565b600654600490600090600160a060020a03166394a3760f82604051602001526040518163ffffffff1660e060020a028152600401602060405180830381600087803b151561084157600080fd5b6102c65a03f1151561085257600080fd5b50505060405180519050600160a060020a0316600160a060020a031681526020019081526020016000208190555061088c60005483610b6f565b6000555060015b919050565b600160a060020a031660009081526004602052604090205490565b60035481565b600654600160a060020a03166305fd22d03360006040516020015260405160e060020a63ffffffff8416028152600160a060020a039091166004820152602401602060405180830381600087803b151561091257600080fd5b6102c65a03f1151561092357600080fd5b50505060405180511515600114905061093b57600080fd5b6006546109c690600490600090600160a060020a03166394a3760f82604051602001526040518163ffffffff1660e060020a028152600401602060405180830381600087803b151561098c57600080fd5b6102c65a03f1151561099d57600080fd5b5050506040518051600160a060020a031682525060208101919091526040016000205482610b81565b600654600490600090600160a060020a03166394a3760f82604051602001526040518163ffffffff1660e060020a028152600401602060405180830381600087803b1515610a1357600080fd5b6102c65a03f11515610a2457600080fd5b50505060405180519050600160a060020a0316600160a060020a0316815260200190815260200160002081905550610a5e60005482610b81565b6000556003547fb83a9cb495aa43a9871c87805ab90712a5f703de6d66d16b96d7afcc91bb3299908260405191825260208201526040908101905180910390a150565b600160a060020a03331660009081526004602052604081205482901015610ac757600080fd5b600160a060020a033381166000818152600460205260408082208054879003905592861680825290839020805486019055917fddf252ad1be2c89b69c2b068fc378daa952ba7f163c4a11628f55a4df523b3ef9085905190815260200160405180910390a350600192915050565b600160a060020a03918216600090815260056020908152604080832093909416825291909152205490565b600654600160a060020a031681565b600082821115610b7b57fe5b50900390565b6000828201838110801590610b965750828110155b1515610b9e57fe5b93925050505600a165627a7a72305820b32c7e80703c5c8642c1958efabfef8fd63761da726c5cd3a31a8ca41d9d10c20029a165627a7a72305820f851765fb5e808f43be3c51d439828dc4acd4beaa9b4816424fcec5718adf8670029",
  "source": "pragma solidity ^0.4.17;\n\n/**\nThis is the core module of the system. Currently it holds the code of\nthe Bank and crowdsale modules to avoid external calls and higher gas costs.\nIt might be a good idea in the future to split the code, separate Bank\nand crowdsale modules into external files and have the core interact with them\nwith addresses and interfaces. \n*/\n\nimport \"./iERC20Token.sol\";\nimport \"./CurrencyToken.sol\";\nimport \"./DepositContract.sol\";\nimport \"./SafeMath.sol\";\n//import \"./Utils.sol\";\n\n/// @title Populous contract\ncontract Populous is withAccessManager {\n\n    // EVENTS\n    event EventNewCrowdsaleBlock(bytes32 blockchainActionId, bytes32 invoiceId, uint sourceLength);\n    event EventNewCrowdsaleSource(bytes32 invoiceId, uint sourceLength);\n    // Bank events\n    //event EventWithdrawPoken(bytes32 _blockchainActionId, address from, address to, bytes32 accountId, bytes32 currency, uint amount, uint pptFee, bool toBank);\n    event EventWithdrawPPT(bytes32 blockchainActionId, bytes32 accountId, address depositContract, address to, uint amount);\n    event EventWithdrawPoken(bytes32 _blockchainActionId, bytes32 accountId, bytes32 currency, uint amount, bool toBank);\n    //event EventWithdrawPokens(bytes32 blockchainActionId, bytes32 accountId, address to, uint amount, bytes32 currency);\n    //event EventWithdrawBank(bytes32 blockchainActionId, address from, bytes32 accountId, bytes32 currency, uint balance);\n    event EventNewCurrency(bytes32 blockchainActionId, bytes32 tokenName, uint8 decimalUnits, bytes32 tokenSymbol, address addr);\n    event EventNewDepositContract(bytes32 blockchainActionId, bytes32 clientId, address depositContractAddress);\n    event EventNewProvider(bytes32 _blockchainActionId, bytes32 _userId, bytes32 _companyName, bytes32 _companyNumber, bytes2 countryCode);\n    event EventNewInvoice(bytes32 _blockchainActionId, bytes32 _providerUserId, bytes2 invoiceCountryCode, bytes32 invoiceCompanyNumber, bytes32 invoiceCompanyName, bytes32 invoiceNumber);\n    event EventProviderEnabled(bytes32 _blockchainActionId, bytes32 _userId, bytes2 _countryCode, bytes32 _companyNumber);\n    event EventProviderDisabled(bytes32 _blockchainActionId, bytes32 _userId, bytes2 _countryCode, bytes32 _companyNumber);\n    \n    // FIELDS\n    // currency symbol => currency erc20 contract address\n    mapping(bytes32 => address) currencies;\n    // currency address => currency symbol\n    mapping(address => bytes32) currenciesSymbols;\n    // blockchainActionId => boolean \n    mapping(bytes32 => bool) actionStatus;\n    // blockchainActionData\n    struct actionData {\n        bytes32 currency;\n        uint amount;\n        bytes32 accountId;\n        address to;\n        uint pptFee;\n    }\n    // blockchainActionId => actionData\n    mapping(bytes32 => actionData) blockchainActionIdData;\n\n    // This variable will be used to keep track of client IDs and\n    // their deposit addresses\n    // clientId => depositAddress\n    mapping(bytes32 => address) depositAddress;\n\n    //actionId => invoiceId\n    mapping(bytes32 => bytes32) actionIdToInvoiceId;\n    // invoice provider company data\n    struct providerCompany {\n        bool isEnabled;\n        bytes32 companyNumber;\n        bytes32 companyName;\n        bytes2 countryCode;\n    }\n    // companyCode => companyNumber => providerId\n    mapping(bytes2 => mapping(bytes32 => bytes32)) providerData;\n    // providedId => providerCompany\n    mapping(bytes32 => providerCompany) providerCompanyData;\n    // crowdsale invoiceDetails\n    struct _invoiceDetails {\n        bytes2 invoiceCountryCode;\n        bytes32 invoiceCompanyNumber;\n        bytes32 invoiceCompanyName;\n        bytes32 invoiceNumber;\n    }\n    // crowdsale invoiceData\n    struct invoiceData {\n        bytes32 providerUserId;\n        bytes32 invoiceCompanyName;\n    }\n\n    // country code => company number => invoice number => invoice data\n    mapping(bytes2 => mapping(bytes32 => mapping(bytes32 => invoiceData))) invoices;\n\n    // NON-CONSTANT METHODS\n    // Constructor method called when contract instance is \n    // deployed with 'withAccessManager' modifier.\n    function Populous(address _accessManager) public withAccessManager(_accessManager) { }\n    /**\n    BANK MODULE\n    */\n\n\n    // NON-CONSTANT METHODS\n    \n    /** @dev Creates a new 'depositAddress' gotten from deploying a deposit contract linked to a client ID\n      * @param clientId The bytes32 client ID\n      * @return address The address of the deployed deposit contract instance.\n      */\n    function createAddress(bytes32 _blockchainActionId, bytes32 clientId) public\n        onlyServer\n    {\n        require(actionStatus[_blockchainActionId] == false);\n        depositAddress[clientId] = new DepositContract(clientId, AM);\n        assert(depositAddress[clientId] != 0x0);\n        actionStatus[_blockchainActionId] = true;\n        blockchainActionIdData[_blockchainActionId].accountId = clientId;\n        blockchainActionIdData[_blockchainActionId].to = depositAddress[clientId];\n        EventNewDepositContract(_blockchainActionId, clientId, depositAddress[clientId]);\n    }\n\n    /** @dev Creates a new token/currency.\n      * @param _tokenName  The name of the currency.\n      * @param _decimalUnits The number of decimals the currency has.\n      * @param _tokenSymbol The cyrrency symbol, e.g., GBP\n      */\n    function createCurrency(\n        bytes32 _blockchainActionId, bytes32 _tokenName, uint8 _decimalUnits, \n        bytes32 _tokenSymbol)\n        public\n        onlyServer\n    {   \n        require(actionStatus[_blockchainActionId] == false);\n        // Check if currency already exists\n        require(currencies[_tokenSymbol] == 0x0);\n        currencies[_tokenSymbol] = new CurrencyToken(address(AM), _tokenName, _decimalUnits, _tokenSymbol);\n        assert(currencies[_tokenSymbol] != 0x0);\n        currenciesSymbols[currencies[_tokenSymbol]] = _tokenSymbol;\n        actionStatus[_blockchainActionId] = true;\n        blockchainActionIdData[_blockchainActionId].currency = _tokenSymbol;\n        blockchainActionIdData[_blockchainActionId].to = currencies[_tokenSymbol];\n\n        EventNewCurrency(_blockchainActionId, _tokenName, _decimalUnits, _tokenSymbol, currencies[_tokenSymbol]);\n    }\n\n    /** @dev Enable a previously added invoice provider with access to add an invoice to the blockchain\n      * @param _blockchainActionId the blockchain action id\n      * @param _userId the user id of the invoiceProvider\n      */\n    function enableProvider(bytes32 _blockchainActionId, bytes32 _userId)\n        public\n        onlyServer\n    {\n        require(actionStatus[_blockchainActionId] == false);\n        require(providerCompanyData[_userId].isEnabled == false);\n        providerCompanyData[_userId].isEnabled = true;\n        actionStatus[_blockchainActionId] = true;\n        setBlockchainActionData(_blockchainActionId, 0x0, 0, _userId, 0x0, 0);\n        EventProviderEnabled(_blockchainActionId, _userId, providerCompanyData[_userId].countryCode, providerCompanyData[_userId].companyNumber);\n    }\n\n    /** @dev Disable access granted to a previously added invoice provider\n      * @param _blockchainActionId the blockchain action id\n      * @param _userId the user id of the invoiceProvider\n      */\n    function disableProvider(bytes32 _blockchainActionId, bytes32 _userId)\n        public\n        onlyServer\n    {\n        require(actionStatus[_blockchainActionId] == false);\n        require(providerCompanyData[_userId].isEnabled == true);  \n        providerCompanyData[_userId].isEnabled = false;\n        actionStatus[_blockchainActionId] = true;\n        setBlockchainActionData(_blockchainActionId, 0x0, 0, _userId, 0x0, 0);\n        EventProviderDisabled(_blockchainActionId, _userId, providerCompanyData[_userId].countryCode, providerCompanyData[_userId].companyNumber);\n    }\n\n    /** @dev Add a new invoice provider to the platform  \n      * @param _blockchainActionId the blockchain action id\n      * @param _userId the user id of the provider\n      * @param _companyNumber the providers company number\n      * @param _companyName the providers company name\n      * @param _countryCode the providers country code\n      */\n    function addProvider(\n        bytes32 _blockchainActionId, bytes32 _userId, bytes32 _companyNumber, \n        bytes32 _companyName, bytes2 _countryCode) \n        public \n        onlyServer\n    {   \n        require(actionStatus[_blockchainActionId] == false);\n        require(providerCompanyData[_userId].companyNumber == 0x0);\n        providerCompanyData[_userId].countryCode = _countryCode;\n        providerCompanyData[_userId].companyName = _companyName;\n        providerCompanyData[_userId].companyNumber = _companyNumber;\n        providerCompanyData[_userId].isEnabled = true;\n\n        providerData[_countryCode][_companyNumber] = _userId;\n        \n        actionStatus[_blockchainActionId] = true;\n        setBlockchainActionData(_blockchainActionId, 0x0, 0, _userId, 0x0, 0);\n        EventNewProvider(_blockchainActionId, _userId, _companyName, _companyNumber, _countryCode);\n    }\n\n    /** @dev Add a new crowdsale invoice from an invoice provider to the platform  \n      * @param _blockchainActionId the blockchain action id\n      * @param _providerUserId the user id of the provider\n      * @param _invoiceCompanyNumber the providers company number\n      * @param _invoiceCompanyName the providers company name\n      * @param _invoiceCountryCode the providers country code\n      * @param _invoiceNumber the invoice identification number\n      */\n    function addInvoice(\n        bytes32 _blockchainActionId, bytes32 _providerUserId, bytes2 _invoiceCountryCode, \n        bytes32 _invoiceCompanyNumber, bytes32 _invoiceCompanyName, bytes32 _invoiceNumber)\n        public\n    {\n        require(actionStatus[_blockchainActionId] == false);\n        require(providerCompanyData[_providerUserId].isEnabled == true);\n        \n        require(invoices[_invoiceCountryCode][_invoiceCompanyNumber][_invoiceNumber].providerUserId == 0x0);\n        // country code => company number => invoice number => invoice data\n        invoices[_invoiceCountryCode][_invoiceCompanyNumber][_invoiceNumber].providerUserId = _providerUserId;\n        invoices[_invoiceCountryCode][_invoiceCompanyNumber][_invoiceNumber].invoiceCompanyName = _invoiceCompanyName;\n        actionStatus[_blockchainActionId] = true;\n        setBlockchainActionData(_blockchainActionId, 0x0, 0, _providerUserId, 0x0, 0);\n        EventNewInvoice(_blockchainActionId, _providerUserId, _invoiceCountryCode, _invoiceCompanyNumber, _invoiceCompanyName, _invoiceNumber);\n    }\n\n    /** @dev Import an amount of pokens of a particular currency from an ethereum wallet/address to bank\n      * @param _blockchainActionId the blockchain action id\n      * @param accountId the account id of the client\n      * @param from the blockchain address to import pokens from\n      * @param currency the poken currency\n      */\n\n    function withdrawPoken(\n        bytes32 _blockchainActionId, bytes32 currency, uint amount,\n        address from, address to, bytes32 accountId, uint inCollateral,\n        address pptAddress, uint pptFee, address adminExternalWallet, bool toBank) \n        public \n        onlyServer \n    {\n        require(actionStatus[_blockchainActionId] == false);\n        require(adminExternalWallet != 0x0 && pptFee > 0 && amount > 0 && currencies[currency] != 0x0);\n        DepositContract o = DepositContract(getDepositAddress(accountId));\n        // check if pptbalance minus collateral held is more than pptFee then transfer pptFee from users ppt deposit to adminWallet\n        require((SafeMath.safeSub(o.balanceOf(pptAddress), inCollateral) >= pptFee) && (o.transfer(pptAddress, adminExternalWallet, pptFee) == true));\n        CurrencyToken cT = CurrencyToken(currencies[currency]);\n        if (toBank == true) {\n            //WITHDRAW BANK\n\n            // transfer pokens in specified amount and destroy\n            require((cT.balanceOf(from) >= amount) && (cT.destroyTokensFrom(amount, from) == true));\n            \n            actionStatus[_blockchainActionId] = true;\n            setBlockchainActionData(_blockchainActionId, currency, amount, accountId, from, pptFee); \n            //emit event: Imported currency to system\n            EventWithdrawPoken(_blockchainActionId, accountId, currency, amount, toBank);\n        } else {\n            // WITHDRAW POKEN        \n        \n            //credit ledger\n            cT.mintTokens(amount);\n            //credit account\n            cT.transfer(to, amount);\n\n            actionStatus[_blockchainActionId] = true;            \n            setBlockchainActionData(_blockchainActionId, currency, amount, accountId, to, pptFee); \n            //emit event: Exported currency to wallet\n            EventWithdrawPoken(_blockchainActionId, accountId, currency, amount, toBank);\n        }   \n    }\n\n    /** @dev Withdraw an amount of PPT Populous tokens to a blockchain address \n      * @param _blockchainActionId the blockchain action id\n      * @param pptAddress the address of the PPT smart contract\n      * @param accountId the account id of the client\n      * @param pptFee the amount of fees to pay in PPT tokens\n      * @param adminExternalWallet the platform admin wallet address to pay the fees to \n      * @param to the blockchain address to withdraw and transfer the pokens to\n      * @param inCollateral the amount of pokens withheld by the platform\n      */    \n    function withdrawERC20(\n        bytes32 _blockchainActionId, address pptAddress, bytes32 accountId, \n        address to, uint amount, uint inCollateral, uint pptFee, address adminExternalWallet) \n        public \n        onlyServer \n    {\n        require(actionStatus[_blockchainActionId] == false);\n        require(adminExternalWallet != 0x0 && pptFee > 0 && amount > 0);\n        DepositContract o = DepositContract(getDepositAddress(accountId));\n        uint pptBalance = SafeMath.safeSub(o.balanceOf(pptAddress), inCollateral);\n        require(pptBalance >= (SafeMath.safeAdd(amount, pptFee)) && (o.transfer(pptAddress, to, amount) == true) && (o.transfer(pptAddress, adminExternalWallet, pptFee) == true));        \n        actionStatus[_blockchainActionId] = true;\n        \n        iERC20Token token = iERC20Token(pptAddress);\n        setBlockchainActionData(_blockchainActionId, token.symbol(), amount, accountId, to, pptFee);\n        EventWithdrawPPT(_blockchainActionId, accountId, o, to, amount);\n    }\n\n\n    /** @dev set blockchain action data in struct \n      * @param _blockchainActionId the blockchain action id\n      * @param currency the token currency symbol\n      * @param accountId the clientId\n      * @param to the blockchain address or smart contract address used in the transaction\n      * @param amount the amount of tokens in the transaction\n      */\n    function setBlockchainActionData(\n        bytes32 _blockchainActionId, bytes32 currency, \n        uint amount, bytes32 accountId, address to, uint pptFee) \n        private \n    {\n        require(actionStatus[_blockchainActionId] == true);\n        blockchainActionIdData[_blockchainActionId].currency = currency;\n        blockchainActionIdData[_blockchainActionId].amount = amount;\n        blockchainActionIdData[_blockchainActionId].accountId = accountId;\n        blockchainActionIdData[_blockchainActionId].to = to;\n        blockchainActionIdData[_blockchainActionId].pptFee = pptFee;\n    }\n\n    // CONSTANT METHODS\n\n    /** @dev Get the blockchain action Id Data for a blockchain Action id\n      * @param _blockchainActionId the blockchain action id\n      * @return bytes32 currency\n      * @return uint amount\n      * @return bytes32 accountId\n      * @return address to\n      */\n    function getBlockchainActionIdData(bytes32 _blockchainActionId) public view \n    returns (bytes32 _currency, uint _amount, bytes32 _accountId, address _to) \n    {\n        require(actionStatus[_blockchainActionId] == true);\n\n        return (blockchainActionIdData[_blockchainActionId].currency, \n        blockchainActionIdData[_blockchainActionId].amount,\n        blockchainActionIdData[_blockchainActionId].accountId,\n        blockchainActionIdData[_blockchainActionId].to);\n    }\n\n    /** @dev Get the bool status of a blockchain Action id\n      * @param _blockchainActionId the blockchain action id\n      * @return bool actionStatus\n      */\n    function getActionStatus(bytes32 _blockchainActionId) public view returns (bool _blockchainActionStatus) {\n        return actionStatus[_blockchainActionId];\n    }\n\n    /** @dev Gets the address of a currency.\n      * @param currency The currency.\n      * @return address The currency address.\n      */\n    function getCurrency(bytes32 currency) public view returns (address _currencyAddress) {\n        return currencies[currency];\n    }\n\n    /** @dev Gets the currency symbol of a currency.\n      * @param currency The currency.\n      * @return bytes32 The currency sybmol, e.g., GBP.\n      */\n    function getCurrencySymbol(address currency) public view returns (bytes32 currencySymbol) {\n        return currenciesSymbols[currency];\n    }\n\n    /** @dev Gets the deposit address linked to a given client ID.\n      * @param clientId The client ID.\n      * @return address The deposit address.\n      */\n    function getDepositAddress(bytes32 clientId) public view returns (address _depositAddress) {\n        return depositAddress[clientId];\n    }\n\n    /** @dev Gets the details of an invoice with the country code, company number and invocie number.\n      * @param _invoiceCountryCode The country code.\n      * @param _invoiceCompanyNumber The company number.\n      * @param _invoiceNumber The invoice number\n      * @return providerUserId The invoice provider user Id\n      * @return invoiceCompanyName the invoice company name\n      */\n    function getInvoice(bytes2 _invoiceCountryCode, bytes32 _invoiceCompanyNumber, bytes32 _invoiceNumber) \n        public \n        view \n        returns (bytes32 providerUserId, bytes32 invoiceCompanyName) \n    {   \n        bytes32 _providerUserId = invoices[_invoiceCountryCode][_invoiceCompanyNumber][_invoiceNumber].providerUserId;\n        bytes32 _invoiceCompanyName = invoices[_invoiceCountryCode][_invoiceCompanyNumber][_invoiceNumber].invoiceCompanyName;\n        require(_providerUserId != 0x0 && _invoiceCompanyName != 0x0);\n\n        return (_providerUserId, _invoiceCompanyName);\n    }\n\n    /** @dev Gets the details of an invoice provider with the country code and company number.\n      * @param _providerCountryCode The country code.\n      * @param _providerCompanyNumber The company number.\n      * @return isEnabled The boolean value true/false indicating whether invoice provider is enabled or not\n      * @return providerId The invoice provider user Id\n      * @return companyName the invoice company name\n      */\n    function getProviderByCountryCodeCompanyNumber(bytes2 _providerCountryCode, bytes32 _providerCompanyNumber) \n        public \n        view \n        returns (bytes32 providerId, bytes32 companyName, bool isEnabled) \n    {\n        bytes32 providerUserId = providerData[_providerCountryCode][_providerCompanyNumber];\n\n        return (providerUserId, \n        providerCompanyData[providerUserId].companyName, \n        providerCompanyData[providerUserId].isEnabled);\n    }\n\n    /** @dev Gets the details of an invoice provider with the providers user Id.\n      * @param _providerUserId The provider user Id.\n      * @return isEnabled The boolean value true/false indicating whether invoice provider is enabled or not\n      * @return countryCode The invoice provider country code\n      * @return companyName the invoice company name\n      */\n    function getProviderByUserId(bytes32 _providerUserId) public view \n        returns (bytes2 countryCode, bytes32 companyName, bytes32 companyNumber, bool isEnabled) \n    {\n        return (providerCompanyData[_providerUserId].countryCode,\n        providerCompanyData[_providerUserId].companyName,\n        providerCompanyData[_providerUserId].companyNumber,\n        providerCompanyData[_providerUserId].isEnabled);\n    }\n    \n    /** @dev Gets the enabled status of an invoice provider with the providers user Id.\n      * @param _userId The provider user Id.\n      * @return isEnabled The boolean value true/false indicating whether invoice provider is enabled or not\n      */\n    function getProviderStatus(bytes32 _userId) public view returns (bool isEnabled) {\n        return providerCompanyData[_userId].isEnabled;\n    }\n    \n}",
  "sourcePath": "/Users/najienka/Desktop/populous-smartcontracts/contracts/Populous.sol",
  "schemaVersion": "1.0.0",
  "updatedAt": "2018-06-07T10:23:13.127Z"
}