{
  "contractName": "Populous",
  "abi": [
    {
      "constant": false,
      "inputs": [
        {
          "name": "_accessManager",
          "type": "address"
        }
      ],
      "name": "updateAccessManager",
      "outputs": [],
      "payable": false,
      "stateMutability": "nonpayable",
      "type": "function"
    },
    {
      "constant": true,
      "inputs": [],
      "name": "PXT",
      "outputs": [
        {
          "name": "",
          "type": "address"
        }
      ],
      "payable": false,
      "stateMutability": "view",
      "type": "function"
    },
    {
      "constant": true,
      "inputs": [],
      "name": "PPT",
      "outputs": [
        {
          "name": "",
          "type": "address"
        }
      ],
      "payable": false,
      "stateMutability": "view",
      "type": "function"
    },
    {
      "constant": true,
      "inputs": [],
      "name": "AM",
      "outputs": [
        {
          "name": "",
          "type": "address"
        }
      ],
      "payable": false,
      "stateMutability": "view",
      "type": "function"
    },
    {
      "inputs": [
        {
          "name": "_accessManager",
          "type": "address"
        }
      ],
      "payable": false,
      "stateMutability": "nonpayable",
      "type": "constructor"
    },
    {
      "anonymous": false,
      "inputs": [
        {
          "indexed": false,
          "name": "blockchainActionId",
          "type": "bytes32"
        },
        {
          "indexed": false,
          "name": "accountId",
          "type": "bytes32"
        },
        {
          "indexed": false,
          "name": "depositContract",
          "type": "address"
        },
        {
          "indexed": false,
          "name": "to",
          "type": "address"
        },
        {
          "indexed": false,
          "name": "amount",
          "type": "uint256"
        }
      ],
      "name": "EventWithdrawPPT",
      "type": "event"
    },
    {
      "anonymous": false,
      "inputs": [
        {
          "indexed": false,
          "name": "_blockchainActionId",
          "type": "bytes32"
        },
        {
          "indexed": false,
          "name": "accountId",
          "type": "bytes32"
        },
        {
          "indexed": false,
          "name": "currency",
          "type": "bytes32"
        },
        {
          "indexed": false,
          "name": "amount",
          "type": "uint256"
        },
        {
          "indexed": false,
          "name": "toBank",
          "type": "bool"
        }
      ],
      "name": "EventWithdrawPoken",
      "type": "event"
    },
    {
      "anonymous": false,
      "inputs": [
        {
          "indexed": false,
          "name": "blockchainActionId",
          "type": "bytes32"
        },
        {
          "indexed": false,
          "name": "tokenName",
          "type": "bytes32"
        },
        {
          "indexed": false,
          "name": "decimalUnits",
          "type": "uint8"
        },
        {
          "indexed": false,
          "name": "tokenSymbol",
          "type": "bytes32"
        },
        {
          "indexed": false,
          "name": "addr",
          "type": "address"
        }
      ],
      "name": "EventNewCurrency",
      "type": "event"
    },
    {
      "anonymous": false,
      "inputs": [
        {
          "indexed": false,
          "name": "blockchainActionId",
          "type": "bytes32"
        },
        {
          "indexed": false,
          "name": "clientId",
          "type": "bytes32"
        },
        {
          "indexed": false,
          "name": "depositContractAddress",
          "type": "address"
        }
      ],
      "name": "EventNewDepositContract",
      "type": "event"
    },
    {
      "anonymous": false,
      "inputs": [
        {
          "indexed": false,
          "name": "_blockchainActionId",
          "type": "bytes32"
        },
        {
          "indexed": false,
          "name": "_userId",
          "type": "bytes32"
        },
        {
          "indexed": false,
          "name": "_companyName",
          "type": "bytes32"
        },
        {
          "indexed": false,
          "name": "_companyNumber",
          "type": "bytes32"
        },
        {
          "indexed": false,
          "name": "countryCode",
          "type": "bytes2"
        }
      ],
      "name": "EventNewProvider",
      "type": "event"
    },
    {
      "anonymous": false,
      "inputs": [
        {
          "indexed": false,
          "name": "_blockchainActionId",
          "type": "bytes32"
        },
        {
          "indexed": false,
          "name": "_providerUserId",
          "type": "bytes32"
        },
        {
          "indexed": false,
          "name": "invoiceCountryCode",
          "type": "bytes2"
        },
        {
          "indexed": false,
          "name": "invoiceCompanyNumber",
          "type": "bytes32"
        },
        {
          "indexed": false,
          "name": "invoiceCompanyName",
          "type": "bytes32"
        },
        {
          "indexed": false,
          "name": "invoiceNumber",
          "type": "bytes32"
        }
      ],
      "name": "EventNewInvoice",
      "type": "event"
    },
    {
      "anonymous": false,
      "inputs": [
        {
          "indexed": false,
          "name": "_blockchainActionId",
          "type": "bytes32"
        },
        {
          "indexed": false,
          "name": "_userId",
          "type": "bytes32"
        },
        {
          "indexed": false,
          "name": "_countryCode",
          "type": "bytes2"
        },
        {
          "indexed": false,
          "name": "_companyNumber",
          "type": "bytes32"
        }
      ],
      "name": "EventProviderEnabled",
      "type": "event"
    },
    {
      "anonymous": false,
      "inputs": [
        {
          "indexed": false,
          "name": "_blockchainActionId",
          "type": "bytes32"
        },
        {
          "indexed": false,
          "name": "_userId",
          "type": "bytes32"
        },
        {
          "indexed": false,
          "name": "_countryCode",
          "type": "bytes2"
        },
        {
          "indexed": false,
          "name": "_companyNumber",
          "type": "bytes32"
        }
      ],
      "name": "EventProviderDisabled",
      "type": "event"
    },
    {
      "anonymous": false,
      "inputs": [
        {
          "indexed": false,
          "name": "_depositAddress",
          "type": "address"
        },
        {
          "indexed": false,
          "name": "clientId",
          "type": "bytes32"
        },
        {
          "indexed": false,
          "name": "version",
          "type": "uint256"
        }
      ],
      "name": "DepositAddressUpgrade",
      "type": "event"
    },
    {
      "constant": false,
      "inputs": [
        {
          "name": "_dataManager",
          "type": "address"
        },
        {
          "name": "_blockchainActionId",
          "type": "bytes32"
        },
        {
          "name": "clientId",
          "type": "bytes32"
        }
      ],
      "name": "createAddress",
      "outputs": [],
      "payable": false,
      "stateMutability": "nonpayable",
      "type": "function"
    },
    {
      "constant": false,
      "inputs": [
        {
          "name": "_dataManager",
          "type": "address"
        },
        {
          "name": "_blockchainActionId",
          "type": "bytes32"
        },
        {
          "name": "_tokenName",
          "type": "bytes32"
        },
        {
          "name": "_decimalUnits",
          "type": "uint8"
        },
        {
          "name": "_tokenSymbol",
          "type": "bytes32"
        }
      ],
      "name": "createCurrency",
      "outputs": [],
      "payable": false,
      "stateMutability": "nonpayable",
      "type": "function"
    },
    {
      "constant": false,
      "inputs": [
        {
          "name": "_dataManager",
          "type": "address"
        },
        {
          "name": "_blockchainActionId",
          "type": "bytes32"
        },
        {
          "name": "_userId",
          "type": "bytes32"
        },
        {
          "name": "_companyNumber",
          "type": "bytes32"
        },
        {
          "name": "_companyName",
          "type": "bytes32"
        },
        {
          "name": "_countryCode",
          "type": "bytes2"
        }
      ],
      "name": "addProvider",
      "outputs": [],
      "payable": false,
      "stateMutability": "nonpayable",
      "type": "function"
    },
    {
      "constant": false,
      "inputs": [
        {
          "name": "_dataManager",
          "type": "address"
        },
        {
          "name": "_blockchainActionId",
          "type": "bytes32"
        },
        {
          "name": "_providerUserId",
          "type": "bytes32"
        },
        {
          "name": "_invoiceCountryCode",
          "type": "bytes2"
        },
        {
          "name": "_invoiceCompanyNumber",
          "type": "bytes32"
        },
        {
          "name": "_invoiceCompanyName",
          "type": "bytes32"
        },
        {
          "name": "_invoiceNumber",
          "type": "bytes32"
        }
      ],
      "name": "addInvoice",
      "outputs": [],
      "payable": false,
      "stateMutability": "nonpayable",
      "type": "function"
    },
    {
      "constant": false,
      "inputs": [
        {
          "name": "_dataManager",
          "type": "address"
        },
        {
          "name": "_blockchainActionId",
          "type": "bytes32"
        },
        {
          "name": "currency",
          "type": "bytes32"
        },
        {
          "name": "amount",
          "type": "uint256"
        },
        {
          "name": "from",
          "type": "address"
        },
        {
          "name": "to",
          "type": "address"
        },
        {
          "name": "accountId",
          "type": "bytes32"
        },
        {
          "name": "inCollateral",
          "type": "uint256"
        },
        {
          "name": "pptAddress",
          "type": "address"
        },
        {
          "name": "pptFee",
          "type": "uint256"
        },
        {
          "name": "adminExternalWallet",
          "type": "address"
        },
        {
          "name": "toBank",
          "type": "bool"
        }
      ],
      "name": "withdrawPoken",
      "outputs": [],
      "payable": false,
      "stateMutability": "nonpayable",
      "type": "function"
    },
    {
      "constant": false,
      "inputs": [
        {
          "name": "_dataManager",
          "type": "address"
        },
        {
          "name": "_blockchainActionId",
          "type": "bytes32"
        },
        {
          "name": "pptAddress",
          "type": "address"
        },
        {
          "name": "accountId",
          "type": "bytes32"
        },
        {
          "name": "to",
          "type": "address"
        },
        {
          "name": "amount",
          "type": "uint256"
        },
        {
          "name": "inCollateral",
          "type": "uint256"
        },
        {
          "name": "pptFee",
          "type": "uint256"
        },
        {
          "name": "adminExternalWallet",
          "type": "address"
        }
      ],
      "name": "withdrawERC20",
      "outputs": [],
      "payable": false,
      "stateMutability": "nonpayable",
      "type": "function"
    }
  ],
  "bytecode": "0x608060405273d8a7c588f8dc19f49dafd8ecf08eec58e64d4cc9600160006101000a81548173ffffffffffffffffffffffffffffffffffffffff021916908373ffffffffffffffffffffffffffffffffffffffff160217905550730ff72e24af7c09a647865820d4477f98fcb72a2c600260006101000a81548173ffffffffffffffffffffffffffffffffffffffff021916908373ffffffffffffffffffffffffffffffffffffffff1602179055503480156100ba57600080fd5b50604051602080616dbb8339810180604052810190808051906020019092919050505080806000806101000a81548173ffffffffffffffffffffffffffffffffffffffff021916908373ffffffffffffffffffffffffffffffffffffffff1602179055505050616c8c8061012f6000396000f3006080604052600436106100a4576000357c0100000000000000000000000000000000000000000000000000000000900463ffffffff16806302ab72c4146100a95780630b180e08146100ec57806338cb3dd1146101665780633da4138c146101bd578063678b20121461029a578063a6d1fe49146102f1578063a78caf1914610408578063aa1b6fc614610467578063dcaa41971461051b578063f7f01b4b146105c1575b600080fd5b3480156100b557600080fd5b506100ea600480360381019080803573ffffffffffffffffffffffffffffffffffffffff169060200190929190505050610618565b005b3480156100f857600080fd5b50610164600480360381019080803573ffffffffffffffffffffffffffffffffffffffff16906020019092919080356000191690602001909291908035600019169060200190929190803560ff1690602001909291908035600019169060200190929190505050610764565b005b34801561017257600080fd5b5061017b610d7e565b604051808273ffffffffffffffffffffffffffffffffffffffff1673ffffffffffffffffffffffffffffffffffffffff16815260200191505060405180910390f35b3480156101c957600080fd5b50610298600480360381019080803573ffffffffffffffffffffffffffffffffffffffff1690602001909291908035600019169060200190929190803573ffffffffffffffffffffffffffffffffffffffff1690602001909291908035600019169060200190929190803573ffffffffffffffffffffffffffffffffffffffff169060200190929190803590602001909291908035906020019092919080359060200190929190803573ffffffffffffffffffffffffffffffffffffffff169060200190929190505050610da4565b005b3480156102a657600080fd5b506102af612297565b604051808273ffffffffffffffffffffffffffffffffffffffff1673ffffffffffffffffffffffffffffffffffffffff16815260200191505060405180910390f35b3480156102fd57600080fd5b50610406600480360381019080803573ffffffffffffffffffffffffffffffffffffffff1690602001909291908035600019169060200190929190803560001916906020019092919080359060200190929190803573ffffffffffffffffffffffffffffffffffffffff169060200190929190803573ffffffffffffffffffffffffffffffffffffffff169060200190929190803560001916906020019092919080359060200190929190803573ffffffffffffffffffffffffffffffffffffffff16906020019092919080359060200190929190803573ffffffffffffffffffffffffffffffffffffffff1690602001909291908035151590602001909291905050506122bd565b005b34801561041457600080fd5b50610465600480360381019080803573ffffffffffffffffffffffffffffffffffffffff169060200190929190803560001916906020019092919080356000191690602001909291905050506135dc565b005b34801561047357600080fd5b50610519600480360381019080803573ffffffffffffffffffffffffffffffffffffffff1690602001909291908035600019169060200190929190803560001916906020019092919080357dffffffffffffffffffffffffffffffffffffffffffffffffffffffffffff19169060200190929190803560001916906020019092919080356000191690602001909291908035600019169060200190929190505050613c8c565b005b34801561052757600080fd5b506105bf600480360381019080803573ffffffffffffffffffffffffffffffffffffffff169060200190929190803560001916906020019092919080356000191690602001909291908035600019169060200190929190803560001916906020019092919080357dffffffffffffffffffffffffffffffffffffffffffffffffffffffffffff19169060200190929190505050614247565b005b3480156105cd57600080fd5b506105d661468e565b604051808273ffffffffffffffffffffffffffffffffffffffff1673ffffffffffffffffffffffffffffffffffffffff16815260200191505060405180910390f35b600115156000809054906101000a900473ffffffffffffffffffffffffffffffffffffffff1673ffffffffffffffffffffffffffffffffffffffff1663fda08958336040518263ffffffff167c0100000000000000000000000000000000000000000000000000000000028152600401808273ffffffffffffffffffffffffffffffffffffffff1673ffffffffffffffffffffffffffffffffffffffff168152602001915050602060405180830381600087803b1580156106d857600080fd5b505af11580156106ec573d6000803e3d6000fd5b505050506040513d602081101561070257600080fd5b8101908080519060200190929190505050151514151561072157600080fd5b806000806101000a81548173ffffffffffffffffffffffffffffffffffffffff021916908373ffffffffffffffffffffffffffffffffffffffff16021790555050565b6000600115156000809054906101000a900473ffffffffffffffffffffffffffffffffffffffff1673ffffffffffffffffffffffffffffffffffffffff1663fda08958336040518263ffffffff167c0100000000000000000000000000000000000000000000000000000000028152600401808273ffffffffffffffffffffffffffffffffffffffff1673ffffffffffffffffffffffffffffffffffffffff168152602001915050602060405180830381600087803b15801561082657600080fd5b505af115801561083a573d6000803e3d6000fd5b505050506040513d602081101561085057600080fd5b8101908080519060200190929190505050151514151561086f57600080fd5b60008673ffffffffffffffffffffffffffffffffffffffff161415151561089557600080fd5b859050600115158173ffffffffffffffffffffffffffffffffffffffff1663c7062df3876000809054906101000a900473ffffffffffffffffffffffffffffffffffffffff168888886108e66146f6565b808573ffffffffffffffffffffffffffffffffffffffff1673ffffffffffffffffffffffffffffffffffffffff16815260200184600019166000191681526020018360ff1660ff1681526020018260001916600019168152602001945050505050604051809103906000f080158015610963573d6000803e3d6000fd5b50866040518463ffffffff167c01000000000000000000000000000000000000000000000000000000000281526004018084600019166000191681526020018373ffffffffffffffffffffffffffffffffffffffff1673ffffffffffffffffffffffffffffffffffffffff16815260200182600019166000191681526020019350505050602060405180830381600087803b158015610a0157600080fd5b505af1158015610a15573d6000803e3d6000fd5b505050506040513d6020811015610a2b57600080fd5b81019080805190602001909291905050501515141515610a4a57600080fd5b600115158173ffffffffffffffffffffffffffffffffffffffff166392c4b86787856000808773ffffffffffffffffffffffffffffffffffffffff1663d383b80d8a6040518263ffffffff167c0100000000000000000000000000000000000000000000000000000000028152600401808260001916600019168152602001915050602060405180830381600087803b158015610ae657600080fd5b505af1158015610afa573d6000803e3d6000fd5b505050506040513d6020811015610b1057600080fd5b810190808051906020019092919050505060006040518763ffffffff167c01000000000000000000000000000000000000000000000000000000000281526004018087600019166000191681526020018660001916600019168152602001858152602001846001026000191681526020018373ffffffffffffffffffffffffffffffffffffffff1673ffffffffffffffffffffffffffffffffffffffff1681526020018281526020019650505050505050602060405180830381600087803b158015610bdb57600080fd5b505af1158015610bef573d6000803e3d6000fd5b505050506040513d6020811015610c0557600080fd5b81019080805190602001909291905050501515141515610c2457600080fd5b7f6f9a94a4b659b99ce71e6f2eaa4b609443bd0350f9e1f7b2d566815cb90f0e96858585858573ffffffffffffffffffffffffffffffffffffffff1663d383b80d886040518263ffffffff167c0100000000000000000000000000000000000000000000000000000000028152600401808260001916600019168152602001915050602060405180830381600087803b158015610cc057600080fd5b505af1158015610cd4573d6000803e3d6000fd5b505050506040513d6020811015610cea57600080fd5b810190808051906020019092919050505060405180866000191660001916815260200185600019166000191681526020018460ff1660ff16815260200183600019166000191681526020018273ffffffffffffffffffffffffffffffffffffffff1673ffffffffffffffffffffffffffffffffffffffff1681526020019550505050505060405180910390a1505050505050565b600160009054906101000a900473ffffffffffffffffffffffffffffffffffffffff1681565b600080600080600115156000809054906101000a900473ffffffffffffffffffffffffffffffffffffffff1673ffffffffffffffffffffffffffffffffffffffff1663fda08958336040518263ffffffff167c0100000000000000000000000000000000000000000000000000000000028152600401808273ffffffffffffffffffffffffffffffffffffffff1673ffffffffffffffffffffffffffffffffffffffff168152602001915050602060405180830381600087803b158015610e6a57600080fd5b505af1158015610e7e573d6000803e3d6000fd5b505050506040513d6020811015610e9457600080fd5b81019080805190602001909291905050501515141515610eb357600080fd5b60008d73ffffffffffffffffffffffffffffffffffffffff1614151515610ed957600080fd5b600015158d73ffffffffffffffffffffffffffffffffffffffff1663bea0897c8e6040518263ffffffff167c0100000000000000000000000000000000000000000000000000000000028152600401808260001916600019168152602001915050602060405180830381600087803b158015610f5457600080fd5b505af1158015610f68573d6000803e3d6000fd5b505050506040513d6020811015610f7e57600080fd5b81019080805190602001909291905050501515148015611066575060008d73ffffffffffffffffffffffffffffffffffffffff16632a01a4518c6040518263ffffffff167c0100000000000000000000000000000000000000000000000000000000028152600401808260001916600019168152602001915050602060405180830381600087803b15801561101257600080fd5b505af1158015611026573d6000803e3d6000fd5b505050506040513d602081101561103c57600080fd5b810190808051906020019092919050505073ffffffffffffffffffffffffffffffffffffffff1614155b151561107157600080fd5b60008573ffffffffffffffffffffffffffffffffffffffff16141580156110985750600086115b80156110a45750600088115b15156110af57600080fd5b8c73ffffffffffffffffffffffffffffffffffffffff16632a01a4518b6040518263ffffffff167c0100000000000000000000000000000000000000000000000000000000028152600401808260001916600019168152602001915050602060405180830381600087803b15801561112657600080fd5b505af115801561113a573d6000803e3d6000fd5b505050506040513d602081101561115057600080fd5b810190808051906020019092919050505093506112428473ffffffffffffffffffffffffffffffffffffffff166370a082318d6040518263ffffffff167c0100000000000000000000000000000000000000000000000000000000028152600401808273ffffffffffffffffffffffffffffffffffffffff1673ffffffffffffffffffffffffffffffffffffffff168152602001915050602060405180830381600087803b15801561120157600080fd5b505af1158015611215573d6000803e3d6000fd5b505050506040513d602081101561122b57600080fd5b8101908080519060200190929190505050886146b3565b925061124e88876146cc565b831015151561125c57600080fd5b600115158473ffffffffffffffffffffffffffffffffffffffff1663beabacc88d8c8c6040518463ffffffff167c0100000000000000000000000000000000000000000000000000000000028152600401808473ffffffffffffffffffffffffffffffffffffffff1673ffffffffffffffffffffffffffffffffffffffff1681526020018373ffffffffffffffffffffffffffffffffffffffff1673ffffffffffffffffffffffffffffffffffffffff1681526020018281526020019350505050602060405180830381600087803b15801561133757600080fd5b505af115801561134b573d6000803e3d6000fd5b505050506040513d602081101561136157600080fd5b8101908080519060200190929190505050151514151561138057600080fd5b600115158473ffffffffffffffffffffffffffffffffffffffff1663beabacc88d888a6040518463ffffffff167c0100000000000000000000000000000000000000000000000000000000028152600401808473ffffffffffffffffffffffffffffffffffffffff1673ffffffffffffffffffffffffffffffffffffffff1681526020018373ffffffffffffffffffffffffffffffffffffffff1673ffffffffffffffffffffffffffffffffffffffff1681526020018281526020019350505050602060405180830381600087803b15801561145b57600080fd5b505af115801561146f573d6000803e3d6000fd5b505050506040513d602081101561148557600080fd5b810190808051906020019092919050505015151415156114a457600080fd5b8a73ffffffffffffffffffffffffffffffffffffffff166395d89b416040518163ffffffff167c0100000000000000000000000000000000000000000000000000000000028152600401602060405180830381600087803b15801561150857600080fd5b505af115801561151c573d6000803e3d6000fd5b505050506040513d602081101561153257600080fd5b8101908080519060200190929190505050915060028473ffffffffffffffffffffffffffffffffffffffff16630d8e6e2c6040518163ffffffff167c0100000000000000000000000000000000000000000000000000000000028152600401602060405180830381600087803b1580156115ab57600080fd5b505af11580156115bf573d6000803e3d6000fd5b505050506040513d60208110156115d557600080fd5b81019080805190602001909291905050501415611ff057600115158d73ffffffffffffffffffffffffffffffffffffffff16630e8ba1678e8d6000809054906101000a900473ffffffffffffffffffffffffffffffffffffffff16611638614706565b8083600019166000191681526020018273ffffffffffffffffffffffffffffffffffffffff1673ffffffffffffffffffffffffffffffffffffffff16815260200192505050604051809103906000f080158015611699573d6000803e3d6000fd5b508e6040518463ffffffff167c01000000000000000000000000000000000000000000000000000000000281526004018084600019166000191681526020018373ffffffffffffffffffffffffffffffffffffffff1673ffffffffffffffffffffffffffffffffffffffff16815260200182600019166000191681526020019350505050602060405180830381600087803b15801561173757600080fd5b505af115801561174b573d6000803e3d6000fd5b505050506040513d602081101561176157600080fd5b8101908080519060200190929190505050151514151561178057600080fd5b8c73ffffffffffffffffffffffffffffffffffffffff16632a01a4518b6040518263ffffffff167c0100000000000000000000000000000000000000000000000000000000028152600401808260001916600019168152602001915050602060405180830381600087803b1580156117f757600080fd5b505af115801561180b573d6000803e3d6000fd5b505050506040513d602081101561182157600080fd5b8101908080519060200190929190505050905060008173ffffffffffffffffffffffffffffffffffffffff161415151561185a57600080fd5b60008473ffffffffffffffffffffffffffffffffffffffff166370a08231600160009054906101000a900473ffffffffffffffffffffffffffffffffffffffff166040518263ffffffff167c0100000000000000000000000000000000000000000000000000000000028152600401808273ffffffffffffffffffffffffffffffffffffffff1673ffffffffffffffffffffffffffffffffffffffff168152602001915050602060405180830381600087803b15801561191957600080fd5b505af115801561192d573d6000803e3d6000fd5b505050506040513d602081101561194357600080fd5b81019080805190602001909291905050501115611b9857600115158473ffffffffffffffffffffffffffffffffffffffff1663beabacc8600160009054906101000a900473ffffffffffffffffffffffffffffffffffffffff16848873ffffffffffffffffffffffffffffffffffffffff166370a08231600160009054906101000a900473ffffffffffffffffffffffffffffffffffffffff166040518263ffffffff167c0100000000000000000000000000000000000000000000000000000000028152600401808273ffffffffffffffffffffffffffffffffffffffff1673ffffffffffffffffffffffffffffffffffffffff168152602001915050602060405180830381600087803b158015611a5b57600080fd5b505af1158015611a6f573d6000803e3d6000fd5b505050506040513d6020811015611a8557600080fd5b81019080805190602001909291905050506040518463ffffffff167c0100000000000000000000000000000000000000000000000000000000028152600401808473ffffffffffffffffffffffffffffffffffffffff1673ffffffffffffffffffffffffffffffffffffffff1681526020018373ffffffffffffffffffffffffffffffffffffffff1673ffffffffffffffffffffffffffffffffffffffff1681526020018281526020019350505050602060405180830381600087803b158015611b4e57600080fd5b505af1158015611b62573d6000803e3d6000fd5b505050506040513d6020811015611b7857600080fd5b81019080805190602001909291905050501515141515611b9757600080fd5b5b60008473ffffffffffffffffffffffffffffffffffffffff166370a08231600260009054906101000a900473ffffffffffffffffffffffffffffffffffffffff166040518263ffffffff167c0100000000000000000000000000000000000000000000000000000000028152600401808273ffffffffffffffffffffffffffffffffffffffff1673ffffffffffffffffffffffffffffffffffffffff168152602001915050602060405180830381600087803b158015611c5757600080fd5b505af1158015611c6b573d6000803e3d6000fd5b505050506040513d6020811015611c8157600080fd5b81019080805190602001909291905050501115611ed657600115158473ffffffffffffffffffffffffffffffffffffffff1663beabacc8600260009054906101000a900473ffffffffffffffffffffffffffffffffffffffff16848873ffffffffffffffffffffffffffffffffffffffff166370a08231600260009054906101000a900473ffffffffffffffffffffffffffffffffffffffff166040518263ffffffff167c0100000000000000000000000000000000000000000000000000000000028152600401808273ffffffffffffffffffffffffffffffffffffffff1673ffffffffffffffffffffffffffffffffffffffff168152602001915050602060405180830381600087803b158015611d9957600080fd5b505af1158015611dad573d6000803e3d6000fd5b505050506040513d6020811015611dc357600080fd5b81019080805190602001909291905050506040518463ffffffff167c0100000000000000000000000000000000000000000000000000000000028152600401808473ffffffffffffffffffffffffffffffffffffffff1673ffffffffffffffffffffffffffffffffffffffff1681526020018373ffffffffffffffffffffffffffffffffffffffff1673ffffffffffffffffffffffffffffffffffffffff1681526020018281526020019350505050602060405180830381600087803b158015611e8c57600080fd5b505af1158015611ea0573d6000803e3d6000fd5b505050506040513d6020811015611eb657600080fd5b81019080805190602001909291905050501515141515611ed557600080fd5b5b7f9223ffda937c6fbb4c07517d028046165b9eebd5f0edfd7573257887497caafa818b8373ffffffffffffffffffffffffffffffffffffffff16630d8e6e2c6040518163ffffffff167c0100000000000000000000000000000000000000000000000000000000028152600401602060405180830381600087803b158015611f5d57600080fd5b505af1158015611f71573d6000803e3d6000fd5b505050506040513d6020811015611f8757600080fd5b8101908080519060200190929190505050604051808473ffffffffffffffffffffffffffffffffffffffff1673ffffffffffffffffffffffffffffffffffffffff1681526020018360001916600019168152602001828152602001935050505060405180910390a15b600115158d73ffffffffffffffffffffffffffffffffffffffff166392c4b8678e858c8f8f8d6040518763ffffffff167c0100000000000000000000000000000000000000000000000000000000028152600401808760001916600019168152602001866000191660001916815260200185815260200184600019166000191681526020018373ffffffffffffffffffffffffffffffffffffffff1673ffffffffffffffffffffffffffffffffffffffff1681526020018281526020019650505050505050602060405180830381600087803b1580156120cf57600080fd5b505af11580156120e3573d6000803e3d6000fd5b505050506040513d60208110156120f957600080fd5b8101908080519060200190929190505050151514151561211857600080fd5b7fb34e83f654f4c047e331cea47cc1783dd0511abde3cac240a47bfbdefd6812e88c8b8f73ffffffffffffffffffffffffffffffffffffffff16632a01a4518e6040518263ffffffff167c0100000000000000000000000000000000000000000000000000000000028152600401808260001916600019168152602001915050602060405180830381600087803b1580156121b257600080fd5b505af11580156121c6573d6000803e3d6000fd5b505050506040513d60208110156121dc57600080fd5b81019080805190602001909291905050508c8c60405180866000191660001916815260200185600019166000191681526020018473ffffffffffffffffffffffffffffffffffffffff1673ffffffffffffffffffffffffffffffffffffffff1681526020018373ffffffffffffffffffffffffffffffffffffffff1673ffffffffffffffffffffffffffffffffffffffff1681526020018281526020019550505050505060405180910390a150505050505050505050505050565b600260009054906101000a900473ffffffffffffffffffffffffffffffffffffffff1681565b6000600115156000809054906101000a900473ffffffffffffffffffffffffffffffffffffffff1673ffffffffffffffffffffffffffffffffffffffff1663fda08958336040518263ffffffff167c0100000000000000000000000000000000000000000000000000000000028152600401808273ffffffffffffffffffffffffffffffffffffffff1673ffffffffffffffffffffffffffffffffffffffff168152602001915050602060405180830381600087803b15801561237f57600080fd5b505af1158015612393573d6000803e3d6000fd5b505050506040513d60208110156123a957600080fd5b810190808051906020019092919050505015151415156123c857600080fd5b60008d73ffffffffffffffffffffffffffffffffffffffff16141515156123ee57600080fd5b600015158d73ffffffffffffffffffffffffffffffffffffffff1663bea0897c8e6040518263ffffffff167c0100000000000000000000000000000000000000000000000000000000028152600401808260001916600019168152602001915050602060405180830381600087803b15801561246957600080fd5b505af115801561247d573d6000803e3d6000fd5b505050506040513d602081101561249357600080fd5b8101908080519060200190929190505050151514801561257b575060008d73ffffffffffffffffffffffffffffffffffffffff16632a01a451896040518263ffffffff167c0100000000000000000000000000000000000000000000000000000000028152600401808260001916600019168152602001915050602060405180830381600087803b15801561252757600080fd5b505af115801561253b573d6000803e3d6000fd5b505050506040513d602081101561255157600080fd5b810190808051906020019092919050505073ffffffffffffffffffffffffffffffffffffffff1614155b151561258657600080fd5b60008373ffffffffffffffffffffffffffffffffffffffff16141580156125ad5750600084115b15156125b857600080fd5b60008a118015612690575060008d73ffffffffffffffffffffffffffffffffffffffff1663d383b80d8d6040518263ffffffff167c0100000000000000000000000000000000000000000000000000000000028152600401808260001916600019168152602001915050602060405180830381600087803b15801561263c57600080fd5b505af1158015612650573d6000803e3d6000fd5b505050506040513d602081101561266657600080fd5b810190808051906020019092919050505073ffffffffffffffffffffffffffffffffffffffff1614155b151561269b57600080fd5b8c73ffffffffffffffffffffffffffffffffffffffff16632a01a451886040518263ffffffff167c0100000000000000000000000000000000000000000000000000000000028152600401808260001916600019168152602001915050602060405180830381600087803b15801561271257600080fd5b505af1158015612726573d6000803e3d6000fd5b505050506040513d602081101561273c57600080fd5b810190808051906020019092919050505090508361282f8273ffffffffffffffffffffffffffffffffffffffff166370a08231886040518263ffffffff167c0100000000000000000000000000000000000000000000000000000000028152600401808273ffffffffffffffffffffffffffffffffffffffff1673ffffffffffffffffffffffffffffffffffffffff168152602001915050602060405180830381600087803b1580156127ee57600080fd5b505af1158015612802573d6000803e3d6000fd5b505050506040513d602081101561281857600080fd5b8101908080519060200190929190505050886146b3565b1015151561283c57600080fd5b600115158173ffffffffffffffffffffffffffffffffffffffff1663beabacc88786886040518463ffffffff167c0100000000000000000000000000000000000000000000000000000000028152600401808473ffffffffffffffffffffffffffffffffffffffff1673ffffffffffffffffffffffffffffffffffffffff1681526020018373ffffffffffffffffffffffffffffffffffffffff1673ffffffffffffffffffffffffffffffffffffffff1681526020018281526020019350505050602060405180830381600087803b15801561291757600080fd5b505af115801561292b573d6000803e3d6000fd5b505050506040513d602081101561294157600080fd5b8101908080519060200190929190505050151514151561296057600080fd5b8c73ffffffffffffffffffffffffffffffffffffffff1663d383b80d8c6040518263ffffffff167c0100000000000000000000000000000000000000000000000000000000028152600401808260001916600019168152602001915050602060405180830381600087803b1580156129d757600080fd5b505af11580156129eb573d6000803e3d6000fd5b505050506040513d6020811015612a0157600080fd5b810190808051906020019092919050505073ffffffffffffffffffffffffffffffffffffffff166370a082318a6040518263ffffffff167c0100000000000000000000000000000000000000000000000000000000028152600401808273ffffffffffffffffffffffffffffffffffffffff1673ffffffffffffffffffffffffffffffffffffffff168152602001915050602060405180830381600087803b158015612aac57600080fd5b505af1158015612ac0573d6000803e3d6000fd5b505050506040513d6020811015612ad657600080fd5b81019080805190602001909291905050508a1115612e1a57600115158d73ffffffffffffffffffffffffffffffffffffffff1663d383b80d8d6040518263ffffffff167c0100000000000000000000000000000000000000000000000000000000028152600401808260001916600019168152602001915050602060405180830381600087803b158015612b6957600080fd5b505af1158015612b7d573d6000803e3d6000fd5b505050506040513d6020811015612b9357600080fd5b810190808051906020019092919050505073ffffffffffffffffffffffffffffffffffffffff16630156b3238f73ffffffffffffffffffffffffffffffffffffffff1663d383b80d8f6040518263ffffffff167c0100000000000000000000000000000000000000000000000000000000028152600401808260001916600019168152602001915050602060405180830381600087803b158015612c3657600080fd5b505af1158015612c4a573d6000803e3d6000fd5b505050506040513d6020811015612c6057600080fd5b810190808051906020019092919050505073ffffffffffffffffffffffffffffffffffffffff166370a082318d6040518263ffffffff167c0100000000000000000000000000000000000000000000000000000000028152600401808273ffffffffffffffffffffffffffffffffffffffff1673ffffffffffffffffffffffffffffffffffffffff168152602001915050602060405180830381600087803b158015612d0b57600080fd5b505af1158015612d1f573d6000803e3d6000fd5b505050506040513d6020811015612d3557600080fd5b81019080805190602001909291905050508c6040518363ffffffff167c0100000000000000000000000000000000000000000000000000000000028152600401808381526020018273ffffffffffffffffffffffffffffffffffffffff1673ffffffffffffffffffffffffffffffffffffffff16815260200192505050602060405180830381600087803b158015612dcc57600080fd5b505af1158015612de0573d6000803e3d6000fd5b505050506040513d6020811015612df657600080fd5b81019080805190602001909291905050501515141515612e1557600080fd5b612fbc565b600115158d73ffffffffffffffffffffffffffffffffffffffff1663d383b80d8d6040518263ffffffff167c0100000000000000000000000000000000000000000000000000000000028152600401808260001916600019168152602001915050602060405180830381600087803b158015612e9557600080fd5b505af1158015612ea9573d6000803e3d6000fd5b505050506040513d6020811015612ebf57600080fd5b810190808051906020019092919050505073ffffffffffffffffffffffffffffffffffffffff16630156b3238c8c6040518363ffffffff167c0100000000000000000000000000000000000000000000000000000000028152600401808381526020018273ffffffffffffffffffffffffffffffffffffffff1673ffffffffffffffffffffffffffffffffffffffff16815260200192505050602060405180830381600087803b158015612f7257600080fd5b505af1158015612f86573d6000803e3d6000fd5b505050506040513d6020811015612f9c57600080fd5b81019080805190602001909291905050501515141515612fbb57600080fd5b5b60011515821515141561316957600115158d73ffffffffffffffffffffffffffffffffffffffff166392c4b8678e8e8e8c8f8b6040518763ffffffff167c0100000000000000000000000000000000000000000000000000000000028152600401808760001916600019168152602001866000191660001916815260200185815260200184600019166000191681526020018373ffffffffffffffffffffffffffffffffffffffff1673ffffffffffffffffffffffffffffffffffffffff1681526020018281526020019650505050505050602060405180830381600087803b1580156130a857600080fd5b505af11580156130bc573d6000803e3d6000fd5b505050506040513d60208110156130d257600080fd5b810190808051906020019092919050505015151415156130f157600080fd5b7f471ca94ad77c519a81da4f8dc0fe508299cb64c10c988cc641abbaede6c075ff8c888d8d8660405180866000191660001916815260200185600019166000191681526020018460001916600019168152602001838152602001821515151581526020019550505050505060405180910390a16135cd565b8c73ffffffffffffffffffffffffffffffffffffffff1663d383b80d8c6040518263ffffffff167c0100000000000000000000000000000000000000000000000000000000028152600401808260001916600019168152602001915050602060405180830381600087803b1580156131e057600080fd5b505af11580156131f4573d6000803e3d6000fd5b505050506040513d602081101561320a57600080fd5b810190808051906020019092919050505073ffffffffffffffffffffffffffffffffffffffff166397304ced8b6040518263ffffffff167c010000000000000000000000000000000000000000000000000000000002815260040180828152602001915050600060405180830381600087803b15801561328957600080fd5b505af115801561329d573d6000803e3d6000fd5b505050508c73ffffffffffffffffffffffffffffffffffffffff1663d383b80d8c6040518263ffffffff167c0100000000000000000000000000000000000000000000000000000000028152600401808260001916600019168152602001915050602060405180830381600087803b15801561331857600080fd5b505af115801561332c573d6000803e3d6000fd5b505050506040513d602081101561334257600080fd5b810190808051906020019092919050505073ffffffffffffffffffffffffffffffffffffffff1663a9059cbb898c6040518363ffffffff167c0100000000000000000000000000000000000000000000000000000000028152600401808373ffffffffffffffffffffffffffffffffffffffff1673ffffffffffffffffffffffffffffffffffffffff16815260200182815260200192505050602060405180830381600087803b1580156133f557600080fd5b505af1158015613409573d6000803e3d6000fd5b505050506040513d602081101561341f57600080fd5b810190808051906020019092919050505050600115158d73ffffffffffffffffffffffffffffffffffffffff166392c4b8678e8e8e8c8e8b6040518763ffffffff167c0100000000000000000000000000000000000000000000000000000000028152600401808760001916600019168152602001866000191660001916815260200185815260200184600019166000191681526020018373ffffffffffffffffffffffffffffffffffffffff1673ffffffffffffffffffffffffffffffffffffffff1681526020018281526020019650505050505050602060405180830381600087803b15801561351057600080fd5b505af1158015613524573d6000803e3d6000fd5b505050506040513d602081101561353a57600080fd5b8101908080519060200190929190505050151514151561355957600080fd5b7f471ca94ad77c519a81da4f8dc0fe508299cb64c10c988cc641abbaede6c075ff8c888d8d8660405180866000191660001916815260200185600019166000191681526020018460001916600019168152602001838152602001821515151581526020019550505050505060405180910390a15b50505050505050505050505050565b6000600115156000809054906101000a900473ffffffffffffffffffffffffffffffffffffffff1673ffffffffffffffffffffffffffffffffffffffff1663fda08958336040518263ffffffff167c0100000000000000000000000000000000000000000000000000000000028152600401808273ffffffffffffffffffffffffffffffffffffffff1673ffffffffffffffffffffffffffffffffffffffff168152602001915050602060405180830381600087803b15801561369e57600080fd5b505af11580156136b2573d6000803e3d6000fd5b505050506040513d60208110156136c857600080fd5b810190808051906020019092919050505015151415156136e757600080fd5b60008473ffffffffffffffffffffffffffffffffffffffff161415151561370d57600080fd5b839050600115158173ffffffffffffffffffffffffffffffffffffffff16630e8ba16785856000809054906101000a900473ffffffffffffffffffffffffffffffffffffffff1661375c614706565b8083600019166000191681526020018273ffffffffffffffffffffffffffffffffffffffff1673ffffffffffffffffffffffffffffffffffffffff16815260200192505050604051809103906000f0801580156137bd573d6000803e3d6000fd5b50866040518463ffffffff167c01000000000000000000000000000000000000000000000000000000000281526004018084600019166000191681526020018373ffffffffffffffffffffffffffffffffffffffff1673ffffffffffffffffffffffffffffffffffffffff16815260200182600019166000191681526020019350505050602060405180830381600087803b15801561385b57600080fd5b505af115801561386f573d6000803e3d6000fd5b505050506040513d602081101561388557600080fd5b810190808051906020019092919050505015151415156138a457600080fd5b60008173ffffffffffffffffffffffffffffffffffffffff16632a01a451846040518263ffffffff167c0100000000000000000000000000000000000000000000000000000000028152600401808260001916600019168152602001915050602060405180830381600087803b15801561391d57600080fd5b505af1158015613931573d6000803e3d6000fd5b505050506040513d602081101561394757600080fd5b810190808051906020019092919050505073ffffffffffffffffffffffffffffffffffffffff161415151561397857fe5b600115158173ffffffffffffffffffffffffffffffffffffffff166392c4b86785600080878773ffffffffffffffffffffffffffffffffffffffff16632a01a4518a6040518263ffffffff167c0100000000000000000000000000000000000000000000000000000000028152600401808260001916600019168152602001915050602060405180830381600087803b158015613a1457600080fd5b505af1158015613a28573d6000803e3d6000fd5b505050506040513d6020811015613a3e57600080fd5b810190808051906020019092919050505060006040518763ffffffff167c01000000000000000000000000000000000000000000000000000000000281526004018087600019166000191681526020018660010260001916815260200185815260200184600019166000191681526020018373ffffffffffffffffffffffffffffffffffffffff1673ffffffffffffffffffffffffffffffffffffffff1681526020018281526020019650505050505050602060405180830381600087803b158015613b0957600080fd5b505af1158015613b1d573d6000803e3d6000fd5b505050506040513d6020811015613b3357600080fd5b81019080805190602001909291905050501515141515613b5257600080fd5b7fb6e4c061023577b7e47ffdc4a06fbdb30a157c488fdd58e1735c32b6d8b33cb283838373ffffffffffffffffffffffffffffffffffffffff16632a01a451866040518263ffffffff167c0100000000000000000000000000000000000000000000000000000000028152600401808260001916600019168152602001915050602060405180830381600087803b158015613bec57600080fd5b505af1158015613c00573d6000803e3d6000fd5b505050506040513d6020811015613c1657600080fd5b810190808051906020019092919050505060405180846000191660001916815260200183600019166000191681526020018273ffffffffffffffffffffffffffffffffffffffff1673ffffffffffffffffffffffffffffffffffffffff168152602001935050505060405180910390a150505050565b600080600080600115156000809054906101000a900473ffffffffffffffffffffffffffffffffffffffff1673ffffffffffffffffffffffffffffffffffffffff1663fda08958336040518263ffffffff167c0100000000000000000000000000000000000000000000000000000000028152600401808273ffffffffffffffffffffffffffffffffffffffff1673ffffffffffffffffffffffffffffffffffffffff168152602001915050602060405180830381600087803b158015613d5257600080fd5b505af1158015613d66573d6000803e3d6000fd5b505050506040513d6020811015613d7c57600080fd5b81019080805190602001909291905050501515141515613d9b57600080fd5b60008b73ffffffffffffffffffffffffffffffffffffffff1614151515613dc157600080fd5b8a93508373ffffffffffffffffffffffffffffffffffffffff16631529905c8a6040518263ffffffff167c0100000000000000000000000000000000000000000000000000000000028152600401808260001916600019168152602001915050606060405180830381600087803b158015613e3b57600080fd5b505af1158015613e4f573d6000803e3d6000fd5b505050506040513d6060811015613e6557600080fd5b8101908080519060200190929190805190602001909291908051906020019092919050505080935081945082955050505060007e0100000000000000000000000000000000000000000000000000000000000002837dffffffffffffffffffffffffffffffffffffffffffffffffffffffffffff191614158015613ef157506000600102826000191614155b8015613f0557506000600102816000191614155b1515613f1057600080fd5b600115158473ffffffffffffffffffffffffffffffffffffffff1663880a8e548c8c8c8c8c8c6040518763ffffffff167c01000000000000000000000000000000000000000000000000000000000281526004018087600019166000191681526020018660001916600019168152602001857dffffffffffffffffffffffffffffffffffffffffffffffffffffffffffff19167dffffffffffffffffffffffffffffffffffffffffffffffffffffffffffff191681526020018460001916600019168152602001836000191660001916815260200182600019166000191681526020019650505050505050602060405180830381600087803b15801561401557600080fd5b505af1158015614029573d6000803e3d6000fd5b505050506040513d602081101561403f57600080fd5b8101908080519060200190929190505050151514151561405e57600080fd5b600115158473ffffffffffffffffffffffffffffffffffffffff166392c4b8678c6000808e6000806040518763ffffffff167c01000000000000000000000000000000000000000000000000000000000281526004018087600019166000191681526020018660010260001916815260200185815260200184600019166000191681526020018373ffffffffffffffffffffffffffffffffffffffff1681526020018281526020019650505050505050602060405180830381600087803b15801561412857600080fd5b505af115801561413c573d6000803e3d6000fd5b505050506040513d602081101561415257600080fd5b8101908080519060200190929190505050151514151561417157600080fd5b7f53c9402948bb1a0f1c1ff853af7d9843a08489c0e79a7066f4d6ac7a7ac7876a8a8a8a8a8a8a6040518087600019166000191681526020018660001916600019168152602001857dffffffffffffffffffffffffffffffffffffffffffffffffffffffffffff19167dffffffffffffffffffffffffffffffffffffffffffffffffffffffffffff19168152602001846000191660001916815260200183600019166000191681526020018260001916600019168152602001965050505050505060405180910390a15050505050505050505050565b6000600115156000809054906101000a900473ffffffffffffffffffffffffffffffffffffffff1673ffffffffffffffffffffffffffffffffffffffff1663fda08958336040518263ffffffff167c0100000000000000000000000000000000000000000000000000000000028152600401808273ffffffffffffffffffffffffffffffffffffffff1673ffffffffffffffffffffffffffffffffffffffff168152602001915050602060405180830381600087803b15801561430957600080fd5b505af115801561431d573d6000803e3d6000fd5b505050506040513d602081101561433357600080fd5b8101908080519060200190929190505050151514151561435257600080fd5b60008773ffffffffffffffffffffffffffffffffffffffff161415151561437857600080fd5b869050600115158173ffffffffffffffffffffffffffffffffffffffff1663a5c51a0088888888886040518663ffffffff167c0100000000000000000000000000000000000000000000000000000000028152600401808660001916600019168152602001856000191660001916815260200184600019166000191681526020018360001916600019168152602001827dffffffffffffffffffffffffffffffffffffffffffffffffffffffffffff19167dffffffffffffffffffffffffffffffffffffffffffffffffffffffffffff1916815260200195505050505050602060405180830381600087803b15801561447057600080fd5b505af1158015614484573d6000803e3d6000fd5b505050506040513d602081101561449a57600080fd5b810190808051906020019092919050505015151415156144b957600080fd5b600115158173ffffffffffffffffffffffffffffffffffffffff166392c4b867886000808a6000806040518763ffffffff167c01000000000000000000000000000000000000000000000000000000000281526004018087600019166000191681526020018660010260001916815260200185815260200184600019166000191681526020018373ffffffffffffffffffffffffffffffffffffffff1681526020018281526020019650505050505050602060405180830381600087803b15801561458357600080fd5b505af1158015614597573d6000803e3d6000fd5b505050506040513d60208110156145ad57600080fd5b810190808051906020019092919050505015151415156145cc57600080fd5b7f715169d37d48828f31a81b71e5da2d5934b107791a77894e3bce33b5d59e0fd68686858786604051808660001916600019168152602001856000191660001916815260200184600019166000191681526020018360001916600019168152602001827dffffffffffffffffffffffffffffffffffffffffffffffffffffffffffff19167dffffffffffffffffffffffffffffffffffffffffffffffffffffffffffff191681526020019550505050505060405180910390a150505050505050565b6000809054906101000a900473ffffffffffffffffffffffffffffffffffffffff1681565b60008282111515156146c157fe5b818303905092915050565b60008082840190508381101580156146e45750828110155b15156146ec57fe5b8091505092915050565b60405161189c8061471783390190565b604051610cae80615fb383390190560060806040526000805534801561001457600080fd5b5060405160808061189c833981018060405281019080805190602001909291908051906020019092919080519060200190929190805190602001909291905050508380600660006101000a81548173ffffffffffffffffffffffffffffffffffffffff021916908373ffffffffffffffffffffffffffffffffffffffff16021790555050826001816000191690555081600260006101000a81548160ff021916908360ff1602179055508060038160001916905550505050506117c0806100dc6000396000f3006080604052600436106100e6576000357c0100000000000000000000000000000000000000000000000000000000900463ffffffff1680630156b323146100eb57806302ab72c41461015057806306fdde0314610193578063095ea7b3146101c657806318160ddd1461022b57806323b872dd1461025657806327e235e3146102db578063313ce567146103325780635c6581651461036357806367fbd289146103da57806370a082311461041f57806395d89b411461047657806397304ced146104a9578063a9059cbb146104d6578063dd62ed3e1461053b578063f7f01b4b146105b2575b600080fd5b3480156100f757600080fd5b5061013660048036038101908080359060200190929190803573ffffffffffffffffffffffffffffffffffffffff169060200190929190505050610609565b604051808215151515815260200191505060405180910390f35b34801561015c57600080fd5b50610191600480360381019080803573ffffffffffffffffffffffffffffffffffffffff16906020019092919050505061080e565b005b34801561019f57600080fd5b506101a861095c565b60405180826000191660001916815260200191505060405180910390f35b3480156101d257600080fd5b50610211600480360381019080803573ffffffffffffffffffffffffffffffffffffffff16906020019092919080359060200190929190505050610962565b604051808215151515815260200191505060405180910390f35b34801561023757600080fd5b50610240610a54565b6040518082815260200191505060405180910390f35b34801561026257600080fd5b506102c1600480360381019080803573ffffffffffffffffffffffffffffffffffffffff169060200190929190803573ffffffffffffffffffffffffffffffffffffffff16906020019092919080359060200190929190505050610a5a565b604051808215151515815260200191505060405180910390f35b3480156102e757600080fd5b5061031c600480360381019080803573ffffffffffffffffffffffffffffffffffffffff169060200190929190505050610cf4565b6040518082815260200191505060405180910390f35b34801561033e57600080fd5b50610347610d0c565b604051808260ff1660ff16815260200191505060405180910390f35b34801561036f57600080fd5b506103c4600480360381019080803573ffffffffffffffffffffffffffffffffffffffff169060200190929190803573ffffffffffffffffffffffffffffffffffffffff169060200190929190505050610d1f565b6040518082815260200191505060405180910390f35b3480156103e657600080fd5b5061040560048036038101908080359060200190929190505050610d44565b604051808215151515815260200191505060405180910390f35b34801561042b57600080fd5b50610460600480360381019080803573ffffffffffffffffffffffffffffffffffffffff169060200190929190505050611188565b6040518082815260200191505060405180910390f35b34801561048257600080fd5b5061048b6111d1565b60405180826000191660001916815260200191505060405180910390f35b3480156104b557600080fd5b506104d4600480360381019080803590602001909291905050506111d7565b005b3480156104e257600080fd5b50610521600480360381019080803573ffffffffffffffffffffffffffffffffffffffff1690602001909291908035906020019092919050505061154b565b604051808215151515815260200191505060405180910390f35b34801561054757600080fd5b5061059c600480360381019080803573ffffffffffffffffffffffffffffffffffffffff169060200190929190803573ffffffffffffffffffffffffffffffffffffffff1690602001909291905050506116a4565b6040518082815260200191505060405180910390f35b3480156105be57600080fd5b506105c761172b565b604051808273ffffffffffffffffffffffffffffffffffffffff1673ffffffffffffffffffffffffffffffffffffffff16815260200191505060405180910390f35b600060011515600660009054906101000a900473ffffffffffffffffffffffffffffffffffffffff1673ffffffffffffffffffffffffffffffffffffffff166305fd22d0336040518263ffffffff167c0100000000000000000000000000000000000000000000000000000000028152600401808273ffffffffffffffffffffffffffffffffffffffff1673ffffffffffffffffffffffffffffffffffffffff168152602001915050602060405180830381600087803b1580156106cc57600080fd5b505af11580156106e0573d6000803e3d6000fd5b505050506040513d60208110156106f657600080fd5b8101908080519060200190929190505050151514151561071557600080fd5b82600460008473ffffffffffffffffffffffffffffffffffffffff1673ffffffffffffffffffffffffffffffffffffffff1681526020019081526020016000205410156107655760009050610808565b6107ae600460008473ffffffffffffffffffffffffffffffffffffffff1673ffffffffffffffffffffffffffffffffffffffff1681526020019081526020016000205484611751565b600460008473ffffffffffffffffffffffffffffffffffffffff1673ffffffffffffffffffffffffffffffffffffffff168152602001908152602001600020819055506107fd60005484611751565b600081905550600190505b92915050565b60011515600660009054906101000a900473ffffffffffffffffffffffffffffffffffffffff1673ffffffffffffffffffffffffffffffffffffffff1663fda08958336040518263ffffffff167c0100000000000000000000000000000000000000000000000000000000028152600401808273ffffffffffffffffffffffffffffffffffffffff1673ffffffffffffffffffffffffffffffffffffffff168152602001915050602060405180830381600087803b1580156108cf57600080fd5b505af11580156108e3573d6000803e3d6000fd5b505050506040513d60208110156108f957600080fd5b8101908080519060200190929190505050151514151561091857600080fd5b80600660006101000a81548173ffffffffffffffffffffffffffffffffffffffff021916908373ffffffffffffffffffffffffffffffffffffffff16021790555050565b60015481565b600081600560003373ffffffffffffffffffffffffffffffffffffffff1673ffffffffffffffffffffffffffffffffffffffff16815260200190815260200160002060008573ffffffffffffffffffffffffffffffffffffffff1673ffffffffffffffffffffffffffffffffffffffff168152602001908152602001600020819055508273ffffffffffffffffffffffffffffffffffffffff163373ffffffffffffffffffffffffffffffffffffffff167f8c5be1e5ebec7d5bd14f71427d1e84f3dd0314c0f7b2291e5b200ac8c7c3b925846040518082815260200191505060405180910390a36001905092915050565b60005481565b600080600560008673ffffffffffffffffffffffffffffffffffffffff1673ffffffffffffffffffffffffffffffffffffffff16815260200190815260200160002060003373ffffffffffffffffffffffffffffffffffffffff1673ffffffffffffffffffffffffffffffffffffffff16815260200190815260200160002054905082600460008773ffffffffffffffffffffffffffffffffffffffff1673ffffffffffffffffffffffffffffffffffffffff1681526020019081526020016000205410158015610b2b5750828110155b1515610b3657600080fd5b82600460008673ffffffffffffffffffffffffffffffffffffffff1673ffffffffffffffffffffffffffffffffffffffff1681526020019081526020016000206000828254019250508190555082600460008773ffffffffffffffffffffffffffffffffffffffff1673ffffffffffffffffffffffffffffffffffffffff168152602001908152602001600020600082825403925050819055507fffffffffffffffffffffffffffffffffffffffffffffffffffffffffffffffff811015610c835782600560008773ffffffffffffffffffffffffffffffffffffffff1673ffffffffffffffffffffffffffffffffffffffff16815260200190815260200160002060003373ffffffffffffffffffffffffffffffffffffffff1673ffffffffffffffffffffffffffffffffffffffff168152602001908152602001600020600082825403925050819055505b8373ffffffffffffffffffffffffffffffffffffffff168573ffffffffffffffffffffffffffffffffffffffff167fddf252ad1be2c89b69c2b068fc378daa952ba7f163c4a11628f55a4df523b3ef856040518082815260200191505060405180910390a360019150509392505050565b60046020528060005260406000206000915090505481565b600260009054906101000a900460ff1681565b6005602052816000526040600020602052806000526040600020600091509150505481565b600060011515600660009054906101000a900473ffffffffffffffffffffffffffffffffffffffff1673ffffffffffffffffffffffffffffffffffffffff166305fd22d0336040518263ffffffff167c0100000000000000000000000000000000000000000000000000000000028152600401808273ffffffffffffffffffffffffffffffffffffffff1673ffffffffffffffffffffffffffffffffffffffff168152602001915050602060405180830381600087803b158015610e0757600080fd5b505af1158015610e1b573d6000803e3d6000fd5b505050506040513d6020811015610e3157600080fd5b81019080805190602001909291905050501515141515610e5057600080fd5b8160046000600660009054906101000a900473ffffffffffffffffffffffffffffffffffffffff1673ffffffffffffffffffffffffffffffffffffffff166394a3760f6040518163ffffffff167c0100000000000000000000000000000000000000000000000000000000028152600401602060405180830381600087803b158015610edb57600080fd5b505af1158015610eef573d6000803e3d6000fd5b505050506040513d6020811015610f0557600080fd5b810190808051906020019092919050505073ffffffffffffffffffffffffffffffffffffffff1673ffffffffffffffffffffffffffffffffffffffff168152602001908152602001600020541015610f605760009050611183565b61106960046000600660009054906101000a900473ffffffffffffffffffffffffffffffffffffffff1673ffffffffffffffffffffffffffffffffffffffff166394a3760f6040518163ffffffff167c0100000000000000000000000000000000000000000000000000000000028152600401602060405180830381600087803b158015610fed57600080fd5b505af1158015611001573d6000803e3d6000fd5b505050506040513d602081101561101757600080fd5b810190808051906020019092919050505073ffffffffffffffffffffffffffffffffffffffff1673ffffffffffffffffffffffffffffffffffffffff1681526020019081526020016000205483611751565b60046000600660009054906101000a900473ffffffffffffffffffffffffffffffffffffffff1673ffffffffffffffffffffffffffffffffffffffff166394a3760f6040518163ffffffff167c0100000000000000000000000000000000000000000000000000000000028152600401602060405180830381600087803b1580156110f357600080fd5b505af1158015611107573d6000803e3d6000fd5b505050506040513d602081101561111d57600080fd5b810190808051906020019092919050505073ffffffffffffffffffffffffffffffffffffffff1673ffffffffffffffffffffffffffffffffffffffff1681526020019081526020016000208190555061117860005483611751565b600081905550600190505b919050565b6000600460008373ffffffffffffffffffffffffffffffffffffffff1673ffffffffffffffffffffffffffffffffffffffff168152602001908152602001600020549050919050565b60035481565b60011515600660009054906101000a900473ffffffffffffffffffffffffffffffffffffffff1673ffffffffffffffffffffffffffffffffffffffff166305fd22d0336040518263ffffffff167c0100000000000000000000000000000000000000000000000000000000028152600401808273ffffffffffffffffffffffffffffffffffffffff1673ffffffffffffffffffffffffffffffffffffffff168152602001915050602060405180830381600087803b15801561129857600080fd5b505af11580156112ac573d6000803e3d6000fd5b505050506040513d60208110156112c257600080fd5b810190808051906020019092919050505015151415156112e157600080fd5b6113ea60046000600660009054906101000a900473ffffffffffffffffffffffffffffffffffffffff1673ffffffffffffffffffffffffffffffffffffffff166394a3760f6040518163ffffffff167c0100000000000000000000000000000000000000000000000000000000028152600401602060405180830381600087803b15801561136e57600080fd5b505af1158015611382573d6000803e3d6000fd5b505050506040513d602081101561139857600080fd5b810190808051906020019092919050505073ffffffffffffffffffffffffffffffffffffffff1673ffffffffffffffffffffffffffffffffffffffff168152602001908152602001600020548261176a565b60046000600660009054906101000a900473ffffffffffffffffffffffffffffffffffffffff1673ffffffffffffffffffffffffffffffffffffffff166394a3760f6040518163ffffffff167c0100000000000000000000000000000000000000000000000000000000028152600401602060405180830381600087803b15801561147457600080fd5b505af1158015611488573d6000803e3d6000fd5b505050506040513d602081101561149e57600080fd5b810190808051906020019092919050505073ffffffffffffffffffffffffffffffffffffffff1673ffffffffffffffffffffffffffffffffffffffff168152602001908152602001600020819055506114f96000548261176a565b6000819055507fb83a9cb495aa43a9871c87805ab90712a5f703de6d66d16b96d7afcc91bb3299600354826040518083600019166000191681526020018281526020019250505060405180910390a150565b600081600460003373ffffffffffffffffffffffffffffffffffffffff1673ffffffffffffffffffffffffffffffffffffffff168152602001908152602001600020541015151561159b57600080fd5b81600460003373ffffffffffffffffffffffffffffffffffffffff1673ffffffffffffffffffffffffffffffffffffffff1681526020019081526020016000206000828254039250508190555081600460008573ffffffffffffffffffffffffffffffffffffffff1673ffffffffffffffffffffffffffffffffffffffff168152602001908152602001600020600082825401925050819055508273ffffffffffffffffffffffffffffffffffffffff163373ffffffffffffffffffffffffffffffffffffffff167fddf252ad1be2c89b69c2b068fc378daa952ba7f163c4a11628f55a4df523b3ef846040518082815260200191505060405180910390a36001905092915050565b6000600560008473ffffffffffffffffffffffffffffffffffffffff1673ffffffffffffffffffffffffffffffffffffffff16815260200190815260200160002060008373ffffffffffffffffffffffffffffffffffffffff1673ffffffffffffffffffffffffffffffffffffffff16815260200190815260200160002054905092915050565b600660009054906101000a900473ffffffffffffffffffffffffffffffffffffffff1681565b600082821115151561175f57fe5b818303905092915050565b60008082840190508381101580156117825750828110155b151561178a57fe5b80915050929150505600a165627a7a723058202ec05a612e29099ff63ae59700d9290631b6920663eded3cbd5a9bb0faa8d930002960806040526002805534801561001457600080fd5b50604051604080610cae833981018060405281019080805190602001909291908051906020019092919050505080806000806101000a81548173ffffffffffffffffffffffffffffffffffffffff021916908373ffffffffffffffffffffffffffffffffffffffff1602179055505081600181600019169055505050610c0f8061009f6000396000f3006080604052600436106100a4576000357c0100000000000000000000000000000000000000000000000000000000900463ffffffff16806302ab72c4146100a957806305b1137b146100ec5780630d8e6e2c14610151578063527fe4131461017c57806354fd4d50146101af5780636bb3471a146101da57806370a082311461020d578063beabacc814610264578063ea46193e146102e9578063f7f01b4b14610314575b600080fd5b3480156100b557600080fd5b506100ea600480360381019080803573ffffffffffffffffffffffffffffffffffffffff16906020019092919050505061036b565b005b3480156100f857600080fd5b50610137600480360381019080803573ffffffffffffffffffffffffffffffffffffffff169060200190929190803590602001909291905050506104b7565b604051808215151515815260200191505060405180910390f35b34801561015d57600080fd5b506101666107a9565b6040518082815260200191505060405180910390f35b34801561018857600080fd5b506101916107b3565b60405180826000191660001916815260200191505060405180910390f35b3480156101bb57600080fd5b506101c46107bd565b6040518082815260200191505060405180910390f35b3480156101e657600080fd5b506101ef6107c3565b60405180826000191660001916815260200191505060405180910390f35b34801561021957600080fd5b5061024e600480360381019080803573ffffffffffffffffffffffffffffffffffffffff1690602001909291905050506107c9565b6040518082815260200191505060405180910390f35b34801561027057600080fd5b506102cf600480360381019080803573ffffffffffffffffffffffffffffffffffffffff169060200190929190803573ffffffffffffffffffffffffffffffffffffffff169060200190929190803590602001909291905050506108a8565b604051808215151515815260200191505060405180910390f35b3480156102f557600080fd5b506102fe610b9f565b6040518082815260200191505060405180910390f35b34801561032057600080fd5b50610329610bbe565b604051808273ffffffffffffffffffffffffffffffffffffffff1673ffffffffffffffffffffffffffffffffffffffff16815260200191505060405180910390f35b600115156000809054906101000a900473ffffffffffffffffffffffffffffffffffffffff1673ffffffffffffffffffffffffffffffffffffffff1663fda08958336040518263ffffffff167c0100000000000000000000000000000000000000000000000000000000028152600401808273ffffffffffffffffffffffffffffffffffffffff1673ffffffffffffffffffffffffffffffffffffffff168152602001915050602060405180830381600087803b15801561042b57600080fd5b505af115801561043f573d6000803e3d6000fd5b505050506040513d602081101561045557600080fd5b8101908080519060200190929190505050151514151561047457600080fd5b806000806101000a81548173ffffffffffffffffffffffffffffffffffffffff021916908373ffffffffffffffffffffffffffffffffffffffff16021790555050565b6000600115156000809054906101000a900473ffffffffffffffffffffffffffffffffffffffff1673ffffffffffffffffffffffffffffffffffffffff1663fda08958336040518263ffffffff167c0100000000000000000000000000000000000000000000000000000000028152600401808273ffffffffffffffffffffffffffffffffffffffff1673ffffffffffffffffffffffffffffffffffffffff168152602001915050602060405180830381600087803b15801561057957600080fd5b505af115801561058d573d6000803e3d6000fd5b505050506040513d60208110156105a357600080fd5b8101908080519060200190929190505050151514806106bc5750600115156000809054906101000a900473ffffffffffffffffffffffffffffffffffffffff1673ffffffffffffffffffffffffffffffffffffffff166305fd22d0336040518263ffffffff167c0100000000000000000000000000000000000000000000000000000000028152600401808273ffffffffffffffffffffffffffffffffffffffff1673ffffffffffffffffffffffffffffffffffffffff168152602001915050602060405180830381600087803b15801561067d57600080fd5b505af1158015610691573d6000803e3d6000fd5b505050506040513d60208110156106a757600080fd5b81019080805190602001909291905050501515145b15156106c757600080fd5b813073ffffffffffffffffffffffffffffffffffffffff1631101515156106ed57600080fd5b8273ffffffffffffffffffffffffffffffffffffffff166108fc839081150290604051600060405180830381858888f19350505050158015610733573d6000803e3d6000fd5b507f1853ca9dc0208799379313b2b43364e45db022f073c72648fbc206dc0bacbcdc8383604051808373ffffffffffffffffffffffffffffffffffffffff1673ffffffffffffffffffffffffffffffffffffffff1681526020018281526020019250505060405180910390a16001905092915050565b6000600254905090565b6000600154905090565b60025481565b60015481565b60008173ffffffffffffffffffffffffffffffffffffffff166370a08231306040518263ffffffff167c0100000000000000000000000000000000000000000000000000000000028152600401808273ffffffffffffffffffffffffffffffffffffffff1673ffffffffffffffffffffffffffffffffffffffff168152602001915050602060405180830381600087803b15801561086657600080fd5b505af115801561087a573d6000803e3d6000fd5b505050506040513d602081101561089057600080fd5b81019080805190602001909291905050509050919050565b6000600115156000809054906101000a900473ffffffffffffffffffffffffffffffffffffffff1673ffffffffffffffffffffffffffffffffffffffff1663fda08958336040518263ffffffff167c0100000000000000000000000000000000000000000000000000000000028152600401808273ffffffffffffffffffffffffffffffffffffffff1673ffffffffffffffffffffffffffffffffffffffff168152602001915050602060405180830381600087803b15801561096a57600080fd5b505af115801561097e573d6000803e3d6000fd5b505050506040513d602081101561099457600080fd5b810190808051906020019092919050505015151480610aad5750600115156000809054906101000a900473ffffffffffffffffffffffffffffffffffffffff1673ffffffffffffffffffffffffffffffffffffffff166305fd22d0336040518263ffffffff167c0100000000000000000000000000000000000000000000000000000000028152600401808273ffffffffffffffffffffffffffffffffffffffff1673ffffffffffffffffffffffffffffffffffffffff168152602001915050602060405180830381600087803b158015610a6e57600080fd5b505af1158015610a82573d6000803e3d6000fd5b505050506040513d6020811015610a9857600080fd5b81019080805190602001909291905050501515145b1515610ab857600080fd5b8373ffffffffffffffffffffffffffffffffffffffff1663a9059cbb84846040518363ffffffff167c0100000000000000000000000000000000000000000000000000000000028152600401808373ffffffffffffffffffffffffffffffffffffffff1673ffffffffffffffffffffffffffffffffffffffff16815260200182815260200192505050602060405180830381600087803b158015610b5b57600080fd5b505af1158015610b6f573d6000803e3d6000fd5b505050506040513d6020811015610b8557600080fd5b810190808051906020019092919050505090509392505050565b60003073ffffffffffffffffffffffffffffffffffffffff1631905090565b6000809054906101000a900473ffffffffffffffffffffffffffffffffffffffff16815600a165627a7a7230582029327c44cbb992b6158c6186dbcf971fdd5d96bd7a26801523f278c4af1157460029a165627a7a72305820930bbddd0cf0eeb42f7429e569f0b0d3d610d1449823090c2db5782455d4cf360029",
  "source": "pragma solidity ^0.4.17;\n\n/**\nThis is the core module of the system. Currently it holds the code of\nthe Bank and crowdsale modules to avoid external calls and higher gas costs.\nIt might be a good idea in the future to split the code, separate Bank\nand crowdsale modules into external files and have the core interact with them\nwith addresses and interfaces. \n*/\n\nimport \"./iERC20Token.sol\";\nimport \"./CurrencyToken.sol\";\nimport \"./DepositContract.sol\";\nimport \"./SafeMath.sol\";\nimport \"./DataManager.sol\";\n\n/// @title Populous contract\ncontract Populous is withAccessManager {\n\n    \n    // EVENTS\n    // Bank events\n    event EventWithdrawPPT(bytes32 blockchainActionId, bytes32 accountId, address depositContract, address to, uint amount);\n    event EventWithdrawPoken(bytes32 _blockchainActionId, bytes32 accountId, bytes32 currency, uint amount, bool toBank);\n    event EventNewCurrency(bytes32 blockchainActionId, bytes32 tokenName, uint8 decimalUnits, bytes32 tokenSymbol, address addr);\n    event EventNewDepositContract(bytes32 blockchainActionId, bytes32 clientId, address depositContractAddress);\n    event EventNewProvider(bytes32 _blockchainActionId, bytes32 _userId, bytes32 _companyName, bytes32 _companyNumber, bytes2 countryCode);\n    event EventNewInvoice(bytes32 _blockchainActionId, bytes32 _providerUserId, bytes2 invoiceCountryCode, bytes32 invoiceCompanyNumber, bytes32 invoiceCompanyName, bytes32 invoiceNumber);\n    event EventProviderEnabled(bytes32 _blockchainActionId, bytes32 _userId, bytes2 _countryCode, bytes32 _companyNumber);\n    event EventProviderDisabled(bytes32 _blockchainActionId, bytes32 _userId, bytes2 _countryCode, bytes32 _companyNumber);\n    event DepositAddressUpgrade(address _depositAddress, bytes32 clientId, uint256 version);\n\n    // FIELDS\n\n    //address public PXT = 0xc14830e53aa344e8c14603a91229a0b925b0b262;\n    //address public PPT = 0xd4fa1460f537bb9085d22c7bccb5dd450ef28e3a;\n    address public PXT = 0xd8a7c588f8dc19f49dafd8ecf08eec58e64d4cc9;\n    address public PPT = 0x0ff72e24af7c09a647865820d4477f98fcb72a2c;\n\n    // NON-CONSTANT METHODS\n    // Constructor method called when contract instance is \n    // deployed with 'withAccessManager' modifier.\n    function Populous(address _accessManager) public withAccessManager(_accessManager) {}\n    /**\n    BANK MODULE\n    */\n\n    // NON-CONSTANT METHODS\n    \n    /** @dev Creates a new 'depositAddress' gotten from deploying a deposit contract linked to a client ID\n      * @param clientId The bytes32 client ID\n      * @return address The address of the deployed deposit contract instance.\n      */\n    function createAddress(address _dataManager, bytes32 _blockchainActionId, bytes32 clientId) public\n        onlyServer\n    {   \n        require(_dataManager != 0x0);\n        DataManager dm = DataManager(_dataManager);\n        require(dm.setDepositAddress(_blockchainActionId, new DepositContract(clientId, AM), clientId) == true);\n        assert(dm.getDepositAddress(clientId) != 0x0);\n        require(dm.setBlockchainActionData(_blockchainActionId, 0x0, 0, clientId, dm.getDepositAddress(clientId), 0) == true);\n        EventNewDepositContract(_blockchainActionId, clientId, dm.getDepositAddress(clientId));\n    }\n\n    /** @dev Creates a new token/currency.\n      * @param _tokenName  The name of the currency.\n      * @param _decimalUnits The number of decimals the currency has.\n      * @param _tokenSymbol The currency symbol, e.g., GBP\n      */\n    function createCurrency(\n        address _dataManager, bytes32 _blockchainActionId, \n        bytes32 _tokenName, uint8 _decimalUnits, bytes32 _tokenSymbol)\n        public\n        onlyServer\n    {   \n        require(_dataManager != 0x0);\n        DataManager dm = DataManager(_dataManager);\n        // Check if currency already exists\n        //require(currencies[_tokenSymbol] == 0x0);\n        require(dm.setCurrency(_blockchainActionId, new CurrencyToken(address(AM), _tokenName, _decimalUnits, _tokenSymbol), _tokenSymbol) == true);\n        require(dm.setBlockchainActionData(_blockchainActionId, _tokenSymbol, 0, 0x0, dm.getCurrency(_tokenSymbol), 0) == true);\n        EventNewCurrency(_blockchainActionId, _tokenName, _decimalUnits, _tokenSymbol, dm.getCurrency(_tokenSymbol));\n    }\n\n    /** @dev Add a new invoice provider to the platform  \n      * @param _blockchainActionId the blockchain action id\n      * @param _userId the user id of the provider\n      * @param _companyNumber the providers company number\n      * @param _companyName the providers company name\n      * @param _countryCode the providers country code\n      */\n    function addProvider(\n        address _dataManager, bytes32 _blockchainActionId, \n        bytes32 _userId, bytes32 _companyNumber, \n        bytes32 _companyName, bytes2 _countryCode) \n        public \n        onlyServer\n    {   \n        require(_dataManager != 0x0);\n        DataManager dm = DataManager(_dataManager);\n        require(dm.setProvider(_blockchainActionId, _userId, _companyNumber, _companyName, _countryCode) == true);\n        require(dm.setBlockchainActionData(_blockchainActionId, 0x0, 0, _userId, 0x0, 0) == true);\n        EventNewProvider(_blockchainActionId, _userId, _companyName, _companyNumber, _countryCode);\n    }\n\n    /** @dev Add a new crowdsale invoice from an invoice provider to the platform  \n      * @param _blockchainActionId the blockchain action id\n      * @param _providerUserId the user id of the provider\n      * @param _invoiceCompanyNumber the providers company number\n      * @param _invoiceCompanyName the providers company name\n      * @param _invoiceCountryCode the providers country code\n      * @param _invoiceNumber the invoice identification number\n      */\n    function addInvoice(\n        address _dataManager, bytes32 _blockchainActionId, \n        bytes32 _providerUserId, bytes2 _invoiceCountryCode, \n        bytes32 _invoiceCompanyNumber, bytes32 _invoiceCompanyName, bytes32 _invoiceNumber)\n        public\n        onlyServer\n    {\n        require(_dataManager != 0x0);\n        DataManager dm = DataManager(_dataManager);\n        bytes2 countryCode; \n        bytes32 companyName; \n        bytes32 companyNumber;\n        (countryCode, companyName, companyNumber) = dm.getProviderByUserId(_providerUserId);\n        //require(dm.getProviderStatus(_providerUserId) == true);\n        require(countryCode != 0x0 && companyName != 0x0 && companyNumber != 0x0);\n        require(dm.setInvoice(_blockchainActionId, _providerUserId, _invoiceCountryCode, _invoiceCompanyNumber, _invoiceCompanyName, _invoiceNumber) == true);\n        require(dm.setBlockchainActionData(_blockchainActionId, 0x0, 0, _providerUserId, 0x0, 0) == true);\n        EventNewInvoice(_blockchainActionId, _providerUserId, _invoiceCountryCode, _invoiceCompanyNumber, _invoiceCompanyName, _invoiceNumber);\n    }\n\n    /** @dev Import an amount of pokens of a particular currency from an ethereum wallet/address to bank\n      * @param _blockchainActionId the blockchain action id\n      * @param accountId the account id of the client\n      * @param from the blockchain address to import pokens from\n      * @param currency the poken currency\n      */\n\n    function withdrawPoken(\n        address _dataManager, bytes32 _blockchainActionId, \n        bytes32 currency, uint256 amount,\n        address from, address to, bytes32 accountId, uint256 inCollateral,\n        address pptAddress, uint256 pptFee, address adminExternalWallet, bool toBank) \n        public \n        onlyServer \n    {\n        require(_dataManager != 0x0);\n        //DataManager dm = DataManager(_dataManager);\n        require(DataManager(_dataManager).getActionStatus(_blockchainActionId) == false && DataManager(_dataManager).getDepositAddress(accountId) != 0x0);\n        require(adminExternalWallet != 0x0 && pptFee > 0);\n        require(amount > 0 && DataManager(_dataManager).getCurrency(currency) != 0x0);\n        DepositContract o = DepositContract(DataManager(_dataManager).getDepositAddress(accountId));\n        // check if pptbalance minus collateral held is more than pptFee then transfer pptFee from users ppt deposit to adminWallet\n        require(SafeMath.safeSub(o.balanceOf(pptAddress), inCollateral) >= pptFee);\n        require(o.transfer(pptAddress, adminExternalWallet, pptFee) == true);\n       \n        // WITHDRAW PART / DEBIT\n        if(amount > CurrencyToken(DataManager(_dataManager).getCurrency(currency)).balanceOf(from)) {\n                // destroying total balance\n            require(CurrencyToken(DataManager(_dataManager).getCurrency(currency)).destroyTokensFrom(CurrencyToken(DataManager(_dataManager).getCurrency(currency)).balanceOf(from), from) == true);\n            //remaining ledger balance. deposit address is 0\n        } else {\n                // destroy amount from balance\n            require(CurrencyToken(DataManager(_dataManager).getCurrency(currency)).destroyTokensFrom(amount, from) == true);\n            //left over deposit address balance.\n        }\n\n        // TRANSFER PART / CREDIT\n        if(toBank == true) {\n            require(DataManager(_dataManager).setBlockchainActionData(_blockchainActionId, currency, amount, accountId, from, pptFee) == true); \n            //emit event: Imported currency to system\n            EventWithdrawPoken(_blockchainActionId, accountId, currency, amount, toBank);\n        } else {\n            CurrencyToken(DataManager(_dataManager).getCurrency(currency)).mintTokens(amount);\n            //credit account\n            CurrencyToken(DataManager(_dataManager).getCurrency(currency)).transfer(to, amount);\n            require(DataManager(_dataManager).setBlockchainActionData(_blockchainActionId, currency, amount, accountId, to, pptFee) == true); \n            EventWithdrawPoken(_blockchainActionId, accountId, currency, amount, toBank);\n        }   \n    }\n\n\n    /** @dev Withdraw an amount of PPT Populous tokens to a blockchain address \n      * @param _blockchainActionId the blockchain action id\n      * @param pptAddress the address of the PPT smart contract\n      * @param accountId the account id of the client\n      * @param pptFee the amount of fees to pay in PPT tokens\n      * @param adminExternalWallet the platform admin wallet address to pay the fees to \n      * @param to the blockchain address to withdraw and transfer the pokens to\n      * @param inCollateral the amount of pokens withheld by the platform\n      */    \n    function withdrawERC20(\n        address _dataManager, bytes32 _blockchainActionId, \n        address pptAddress, bytes32 accountId, \n        address to, uint256 amount, uint256 inCollateral, uint256 pptFee, address adminExternalWallet) \n        public \n        onlyServer \n    {   \n        require(_dataManager != 0x0);\n        //DataManager dm = DataManager(_dataManager);\n        require(DataManager(_dataManager).getActionStatus(_blockchainActionId) == false && DataManager(_dataManager).getDepositAddress(accountId) != 0x0);\n        require(adminExternalWallet != 0x0 && pptFee > 0 && amount > 0);\n        address depositContract = DataManager(_dataManager).getDepositAddress(accountId);\n        //DepositContract dep = DepositContract(depositContract);\n        uint pptBalance = SafeMath.safeSub(DepositContract(depositContract).balanceOf(pptAddress), inCollateral);\n        require(pptBalance >= SafeMath.safeAdd(amount, pptFee));\n        require(DepositContract(depositContract).transfer(pptAddress, to, amount) == true);\n        require(DepositContract(depositContract).transfer(pptAddress, adminExternalWallet, pptFee) == true); \n        \n        bytes32 tokenSymbol = iERC20Token(pptAddress).symbol();    \n        \n        // deposit address upgrade if version != 2\n        if (DepositContract(depositContract).getVersion() == 2) {\n            // create new deposit contract\n            // transfer pxt and ppt to new contract\n            // store new contract in data manager\n            require(DataManager(_dataManager).setDepositAddress(_blockchainActionId, new DepositContract(accountId, AM), accountId) == true);\n            address newDepositAddress = DataManager(_dataManager).getDepositAddress(accountId);\n            require(newDepositAddress != 0x0);\n            if(DepositContract(depositContract).balanceOf(PXT) > 0){\n                require(DepositContract(depositContract).transfer(PXT, newDepositAddress, DepositContract(depositContract).balanceOf(PXT)) == true);\n            }\n            if(DepositContract(depositContract).balanceOf(PPT) > 0) {\n                require(DepositContract(depositContract).transfer(PPT, newDepositAddress, DepositContract(depositContract).balanceOf(PPT)) == true);\n            }\n            // event DepositAddressUpgrade with deposit address, user id, version number\n            DepositAddressUpgrade(newDepositAddress, accountId, DepositContract(newDepositAddress).getVersion());\n        }\n        require(DataManager(_dataManager).setBlockchainActionData(_blockchainActionId, tokenSymbol, amount, accountId, to, pptFee) == true);\n        EventWithdrawPPT(_blockchainActionId, accountId, DataManager(_dataManager).getDepositAddress(accountId), to, amount);\n    }\n    \n    // CONSTANT METHODS\n    // removed get version for deposit contract\n    // removed upgrade currency and upgrade address\n    \n}",
  "sourcePath": "/Users/najienka/Desktop/populous-smartcontracts/contracts/Populous.sol",
  "compiler": {
    "name": "solc",
    "version": "0.4.24+commit.e67f0147.Emscripten.clang"
  },
  "schemaVersion": "2.0.1",
  "updatedAt": "2018-10-24T14:01:49.278Z"
}