{
  "contractName": "PopulousToken",
  "abi": [
    {
      "constant": true,
      "inputs": [],
      "name": "name",
      "outputs": [
        {
          "name": "",
          "type": "bytes32"
        }
      ],
      "payable": false,
      "stateMutability": "view",
      "type": "function"
    },
    {
      "constant": false,
      "inputs": [
        {
          "name": "_spender",
          "type": "address"
        },
        {
          "name": "_value",
          "type": "uint256"
        }
      ],
      "name": "approve",
      "outputs": [
        {
          "name": "success",
          "type": "bool"
        }
      ],
      "payable": false,
      "stateMutability": "nonpayable",
      "type": "function"
    },
    {
      "constant": true,
      "inputs": [],
      "name": "totalSupply",
      "outputs": [
        {
          "name": "",
          "type": "uint256"
        }
      ],
      "payable": false,
      "stateMutability": "view",
      "type": "function"
    },
    {
      "constant": false,
      "inputs": [
        {
          "name": "_from",
          "type": "address"
        },
        {
          "name": "_to",
          "type": "address"
        },
        {
          "name": "_value",
          "type": "uint256"
        }
      ],
      "name": "transferFrom",
      "outputs": [
        {
          "name": "success",
          "type": "bool"
        }
      ],
      "payable": false,
      "stateMutability": "nonpayable",
      "type": "function"
    },
    {
      "constant": true,
      "inputs": [
        {
          "name": "",
          "type": "address"
        }
      ],
      "name": "balances",
      "outputs": [
        {
          "name": "",
          "type": "uint256"
        }
      ],
      "payable": false,
      "stateMutability": "view",
      "type": "function"
    },
    {
      "constant": true,
      "inputs": [],
      "name": "decimals",
      "outputs": [
        {
          "name": "",
          "type": "uint8"
        }
      ],
      "payable": false,
      "stateMutability": "view",
      "type": "function"
    },
    {
      "constant": false,
      "inputs": [
        {
          "name": "amount",
          "type": "uint256"
        }
      ],
      "name": "faucet",
      "outputs": [],
      "payable": false,
      "stateMutability": "nonpayable",
      "type": "function"
    },
    {
      "constant": true,
      "inputs": [
        {
          "name": "",
          "type": "address"
        },
        {
          "name": "",
          "type": "address"
        }
      ],
      "name": "allowed",
      "outputs": [
        {
          "name": "",
          "type": "uint256"
        }
      ],
      "payable": false,
      "stateMutability": "view",
      "type": "function"
    },
    {
      "constant": true,
      "inputs": [
        {
          "name": "_owner",
          "type": "address"
        }
      ],
      "name": "balanceOf",
      "outputs": [
        {
          "name": "balance",
          "type": "uint256"
        }
      ],
      "payable": false,
      "stateMutability": "view",
      "type": "function"
    },
    {
      "constant": true,
      "inputs": [],
      "name": "symbol",
      "outputs": [
        {
          "name": "",
          "type": "bytes32"
        }
      ],
      "payable": false,
      "stateMutability": "view",
      "type": "function"
    },
    {
      "constant": false,
      "inputs": [
        {
          "name": "_to",
          "type": "address"
        },
        {
          "name": "_value",
          "type": "uint256"
        }
      ],
      "name": "transfer",
      "outputs": [
        {
          "name": "success",
          "type": "bool"
        }
      ],
      "payable": false,
      "stateMutability": "nonpayable",
      "type": "function"
    },
    {
      "constant": true,
      "inputs": [
        {
          "name": "_owner",
          "type": "address"
        },
        {
          "name": "_spender",
          "type": "address"
        }
      ],
      "name": "allowance",
      "outputs": [
        {
          "name": "remaining",
          "type": "uint256"
        }
      ],
      "payable": false,
      "stateMutability": "view",
      "type": "function"
    },
    {
      "inputs": [],
      "payable": false,
      "stateMutability": "nonpayable",
      "type": "constructor"
    },
    {
      "anonymous": false,
      "inputs": [
        {
          "indexed": true,
          "name": "_from",
          "type": "address"
        },
        {
          "indexed": true,
          "name": "_to",
          "type": "address"
        },
        {
          "indexed": false,
          "name": "_value",
          "type": "uint256"
        }
      ],
      "name": "Transfer",
      "type": "event"
    },
    {
      "anonymous": false,
      "inputs": [
        {
          "indexed": true,
          "name": "_owner",
          "type": "address"
        },
        {
          "indexed": true,
          "name": "_spender",
          "type": "address"
        },
        {
          "indexed": false,
          "name": "_value",
          "type": "uint256"
        }
      ],
      "name": "Approval",
      "type": "event"
    }
  ],
  "bytecode": "0x606060405260008055341561001357600080fd5b7f506f70756c6f757320506c6174666f726d0000000000000000000000000000006006556007805460ff191660089081179091557f50505400000000000000000000000000000000000000000000000000000000009055610586806100796000396000f300606060405236156100b75763ffffffff7c010000000000000000000000000000000000000000000000000000000060003504166306fdde0381146100bc578063095ea7b3146100e157806318160ddd1461011757806323b872dd1461012a57806327e235e314610152578063313ce56714610171578063579158971461019a5780635c658165146101b257806370a08231146101d757806395d89b41146101f6578063a9059cbb14610209578063dd62ed3e1461022b575b600080fd5b34156100c757600080fd5b6100cf610250565b60405190815260200160405180910390f35b34156100ec57600080fd5b610103600160a060020a0360043516602435610256565b604051901515815260200160405180910390f35b341561012257600080fd5b6100cf6102c2565b341561013557600080fd5b610103600160a060020a03600435811690602435166044356102c8565b341561015d57600080fd5b6100cf600160a060020a03600435166103ce565b341561017c57600080fd5b6101846103e0565b60405160ff909116815260200160405180910390f35b34156101a557600080fd5b6101b06004356103e9565b005b34156101bd57600080fd5b6100cf600160a060020a0360043581169060243516610439565b34156101e257600080fd5b6100cf600160a060020a0360043516610456565b341561020157600080fd5b6100cf610471565b341561021457600080fd5b610103600160a060020a0360043516602435610477565b341561023657600080fd5b6100cf600160a060020a036004358116906024351661050b565b60065481565b600160a060020a03338116600081815260056020908152604080832094871680845294909152808220859055909291907f8c5be1e5ebec7d5bd14f71427d1e84f3dd0314c0f7b2291e5b200ac8c7c3b9259085905190815260200160405180910390a350600192915050565b60005481565b600160a060020a03808416600081815260056020908152604080832033909516835293815283822054928252600490529182205483901080159061030c5750828110155b151561031757600080fd5b600160a060020a038085166000908152600460205260408082208054870190559187168152208054849003905560001981101561037c57600160a060020a03808616600090815260056020908152604080832033909416835292905220805484900390555b83600160a060020a031685600160a060020a03167fddf252ad1be2c89b69c2b068fc378daa952ba7f163c4a11628f55a4df523b3ef8560405190815260200160405180910390a3506001949350505050565b60046020526000908152604090205481565b60075460ff1681565b600160a060020a03331660009081526004602052604090205461040c9082610536565b600160a060020a033316600090815260046020526040812091909155546104339082610536565b60005550565b600560209081526000928352604080842090915290825290205481565b600160a060020a031660009081526004602052604090205490565b60085481565b600160a060020a0333166000908152600460205260408120548290101561049d57600080fd5b600160a060020a033381166000818152600460205260408082208054879003905592861680825290839020805486019055917fddf252ad1be2c89b69c2b068fc378daa952ba7f163c4a11628f55a4df523b3ef9085905190815260200160405180910390a350600192915050565b600160a060020a03918216600090815260056020908152604080832093909416825291909152205490565b600082820183811080159061054b5750828110155b151561055357fe5b93925050505600a165627a7a723058203b715b4499643887ad2355b82801ea75d1fc8257ec299ea8d6696714d701e14d0029",
  "source": "pragma solidity ^0.4.17;\n\nimport \"./ERC20Token.sol\";\nimport \"./SafeMath.sol\";\n\n\n/// @title PopulousToken contract\ncontract PopulousToken is ERC20Token {\n\n    // FIELDS\n\n    // Non-constant token specific fields\n    bytes32 public name;\n    uint8 public decimals;\n    bytes32 public symbol;\n\n    // NON-CONSTANT METHODS\n    \n    function PopulousToken () public {\n        name = \"Populous Platform\";\n        decimals = 8;\n        symbol = \"PPT\";\n    }\n\n    function faucet(uint amount) public {\n        balances[msg.sender] = SafeMath.safeAdd(balances[msg.sender], amount);\n        totalSupply = SafeMath.safeAdd(totalSupply, amount);\n    }\n}",
  "sourcePath": "/Users/najienka/Desktop/populous-smartcontracts/contracts/mintToken.sol",
  "schemaVersion": "1.0.0",
  "updatedAt": "2018-06-05T11:00:10.663Z"
}