{
  "contractName": "Populous",
  "abi": [
    {
      "constant": false,
      "inputs": [
        {
          "name": "_accessManager",
          "type": "address"
        }
      ],
      "name": "updateAccessManager",
      "outputs": [],
      "payable": false,
      "stateMutability": "nonpayable",
      "type": "function"
    },
    {
      "constant": false,
      "inputs": [
        {
          "name": "clientId",
          "type": "bytes32"
        }
      ],
      "name": "createAddress",
      "outputs": [],
      "payable": false,
      "stateMutability": "nonpayable",
      "type": "function"
    },
    {
      "constant": false,
      "inputs": [
        {
          "name": "_crowdsaleId",
          "type": "bytes32"
        },
        {
          "name": "_invoiceId",
          "type": "bytes32"
        },
        {
          "name": "_ipfsHash1",
          "type": "bytes32"
        },
        {
          "name": "_ipfsHash2",
          "type": "bytes32"
        },
        {
          "name": "_awsHash1",
          "type": "bytes32"
        },
        {
          "name": "_awsHash2",
          "type": "bytes32"
        },
        {
          "name": "_dataType",
          "type": "bytes32"
        }
      ],
      "name": "insertBlock",
      "outputs": [],
      "payable": false,
      "stateMutability": "nonpayable",
      "type": "function"
    },
    {
      "constant": true,
      "inputs": [
        {
          "name": "clientId",
          "type": "bytes32"
        }
      ],
      "name": "getDepositAddress",
      "outputs": [
        {
          "name": "",
          "type": "address"
        }
      ],
      "payable": false,
      "stateMutability": "view",
      "type": "function"
    },
    {
      "constant": false,
      "inputs": [
        {
          "name": "pptAddress",
          "type": "address"
        },
        {
          "name": "accountId",
          "type": "bytes32"
        },
        {
          "name": "depositContract",
          "type": "address"
        },
        {
          "name": "to",
          "type": "address"
        },
        {
          "name": "amount",
          "type": "uint256"
        }
      ],
      "name": "withdrawPPT",
      "outputs": [],
      "payable": false,
      "stateMutability": "nonpayable",
      "type": "function"
    },
    {
      "constant": true,
      "inputs": [
        {
          "name": "_crowdsaleId",
          "type": "bytes32"
        }
      ],
      "name": "getRecordDocumentIndexes",
      "outputs": [
        {
          "name": "",
          "type": "uint256"
        }
      ],
      "payable": false,
      "stateMutability": "view",
      "type": "function"
    },
    {
      "constant": true,
      "inputs": [
        {
          "name": "currency",
          "type": "address"
        }
      ],
      "name": "getCurrencySymbol",
      "outputs": [
        {
          "name": "",
          "type": "bytes32"
        }
      ],
      "payable": false,
      "stateMutability": "view",
      "type": "function"
    },
    {
      "constant": false,
      "inputs": [
        {
          "name": "accountId",
          "type": "bytes32"
        },
        {
          "name": "to",
          "type": "address"
        },
        {
          "name": "amount",
          "type": "uint256"
        },
        {
          "name": "ledgerBalance",
          "type": "uint256"
        },
        {
          "name": "currency",
          "type": "bytes32"
        }
      ],
      "name": "withdrawPoken",
      "outputs": [],
      "payable": false,
      "stateMutability": "nonpayable",
      "type": "function"
    },
    {
      "constant": false,
      "inputs": [
        {
          "name": "_crowdsaleId",
          "type": "bytes32"
        },
        {
          "name": "_dataHash1",
          "type": "bytes32"
        },
        {
          "name": "_dataHash2",
          "type": "bytes32"
        },
        {
          "name": "_dataSource",
          "type": "bytes32"
        },
        {
          "name": "_dataType",
          "type": "bytes32"
        }
      ],
      "name": "insertSource",
      "outputs": [],
      "payable": false,
      "stateMutability": "nonpayable",
      "type": "function"
    },
    {
      "constant": false,
      "inputs": [
        {
          "name": "_tokenName",
          "type": "bytes32"
        },
        {
          "name": "_decimalUnits",
          "type": "uint8"
        },
        {
          "name": "_tokenSymbol",
          "type": "bytes32"
        }
      ],
      "name": "createCurrency",
      "outputs": [],
      "payable": false,
      "stateMutability": "nonpayable",
      "type": "function"
    },
    {
      "constant": true,
      "inputs": [
        {
          "name": "currency",
          "type": "bytes32"
        }
      ],
      "name": "getCurrency",
      "outputs": [
        {
          "name": "",
          "type": "address"
        }
      ],
      "payable": false,
      "stateMutability": "view",
      "type": "function"
    },
    {
      "constant": true,
      "inputs": [
        {
          "name": "_crowdsaleId",
          "type": "bytes32"
        },
        {
          "name": "documentIndex",
          "type": "uint256"
        }
      ],
      "name": "getRecord",
      "outputs": [
        {
          "name": "",
          "type": "bytes32"
        },
        {
          "name": "",
          "type": "bytes32"
        },
        {
          "name": "",
          "type": "bytes32"
        },
        {
          "name": "",
          "type": "bytes32"
        },
        {
          "name": "",
          "type": "bytes32"
        }
      ],
      "payable": false,
      "stateMutability": "view",
      "type": "function"
    },
    {
      "constant": true,
      "inputs": [],
      "name": "AM",
      "outputs": [
        {
          "name": "",
          "type": "address"
        }
      ],
      "payable": false,
      "stateMutability": "view",
      "type": "function"
    },
    {
      "inputs": [
        {
          "name": "_accessManager",
          "type": "address"
        }
      ],
      "payable": false,
      "stateMutability": "nonpayable",
      "type": "constructor"
    },
    {
      "anonymous": false,
      "inputs": [
        {
          "indexed": false,
          "name": "crowdsaleId",
          "type": "bytes32"
        },
        {
          "indexed": false,
          "name": "invoiceId",
          "type": "bytes"
        },
        {
          "indexed": false,
          "name": "sourceLength",
          "type": "uint256"
        }
      ],
      "name": "EventNewCrowdsaleBlock",
      "type": "event"
    },
    {
      "anonymous": false,
      "inputs": [
        {
          "indexed": false,
          "name": "accountId",
          "type": "bytes32"
        },
        {
          "indexed": false,
          "name": "depositContract",
          "type": "address"
        },
        {
          "indexed": false,
          "name": "to",
          "type": "address"
        },
        {
          "indexed": false,
          "name": "amount",
          "type": "uint256"
        }
      ],
      "name": "EventWithdrawPPT",
      "type": "event"
    },
    {
      "anonymous": false,
      "inputs": [
        {
          "indexed": false,
          "name": "accountId",
          "type": "bytes32"
        },
        {
          "indexed": false,
          "name": "to",
          "type": "address"
        },
        {
          "indexed": false,
          "name": "amount",
          "type": "uint256"
        },
        {
          "indexed": false,
          "name": "ledgerBalance",
          "type": "uint256"
        },
        {
          "indexed": false,
          "name": "currency",
          "type": "bytes32"
        }
      ],
      "name": "EventWithdrawPokens",
      "type": "event"
    },
    {
      "anonymous": false,
      "inputs": [
        {
          "indexed": false,
          "name": "tokenName",
          "type": "bytes32"
        },
        {
          "indexed": false,
          "name": "decimalUnits",
          "type": "uint8"
        },
        {
          "indexed": false,
          "name": "tokenSymbol",
          "type": "bytes32"
        },
        {
          "indexed": false,
          "name": "addr",
          "type": "address"
        }
      ],
      "name": "EventNewCurrency",
      "type": "event"
    },
    {
      "anonymous": false,
      "inputs": [
        {
          "indexed": false,
          "name": "clientId",
          "type": "bytes32"
        },
        {
          "indexed": false,
          "name": "depositContractAddress",
          "type": "address"
        }
      ],
      "name": "EventNewDepositContract",
      "type": "event"
    }
  ],
  "bytecode": "0x6060604052341561000f57600080fd5b604051602080611f8f8339810160405280805160008054600160a060020a03909216600160a060020a03199092169190911790555050611f3b806100546000396000f300606060405236156100a95763ffffffff60e060020a60003504166302ab72c481146100ae5780630be2f236146100cf5780630f38eda1146100e55780632a01a4511461010d5780632c88e65b1461013f57806335d1950814610171578063554c9b6a1461019957806356b8d1db146101b85780635e8b24be146101e357806382cce80f14610205578063d383b80d14610224578063f24d954e1461023a578063f7f01b4b14610284575b600080fd5b34156100b957600080fd5b6100cd600160a060020a0360043516610297565b005b34156100da57600080fd5b6100cd60043561034a565b34156100f057600080fd5b6100cd60043560243560443560643560843560a43560c4356104af565b341561011857600080fd5b610123600435610696565b604051600160a060020a03909116815260200160405180910390f35b341561014a57600080fd5b6100cd600160a060020a0360043581169060243590604435811690606435166084356106b1565b341561017c57600080fd5b61018760043561082a565b60405190815260200160405180910390f35b34156101a457600080fd5b610187600160a060020a0360043516610843565b34156101c357600080fd5b6100cd600435600160a060020a036024351660443560643560843561085e565b34156101ee57600080fd5b6100cd600435602435604435606435608435610a63565b341561021057600080fd5b6100cd60043560ff60243516604435610b09565b341561022f57600080fd5b610123600435610cdf565b341561024557600080fd5b610253600435602435610cfa565b60405194855260208501939093526040808501929092526060840152608083019190915260a0909101905180910390f35b341561028f57600080fd5b610123610dd5565b60008054600160a060020a03169063fda089589033906040516020015260405160e060020a63ffffffff8416028152600160a060020a039091166004820152602401602060405180830381600087803b15156102f257600080fd5b6102c65a03f1151561030357600080fd5b50505060405180511515600114905061031b57600080fd5b6000805473ffffffffffffffffffffffffffffffffffffffff1916600160a060020a0392909216919091179055565b60008054600160a060020a03169063fda089589033906040516020015260405160e060020a63ffffffff8416028152600160a060020a039091166004820152602401602060405180830381600087803b15156103a557600080fd5b6102c65a03f115156103b657600080fd5b5050506040518051151560011490506103ce57600080fd5b6000548190600160a060020a03166103e4610de4565b918252600160a060020a0316602082015260409081019051809103906000f080151561040f57600080fd5b6000828152600360205260409020805473ffffffffffffffffffffffffffffffffffffffff1916600160a060020a03928316179081905516151561044f57fe5b60008181526003602052604090819020547f331e8d7fbf36512cd5eb514f38db31465c8f937497c179aa3eda3250125028fc918391600160a060020a03169051918252600160a060020a031660208201526040908101905180910390a150565b60008054600160a060020a03169063fda089589033906040516020015260405160e060020a63ffffffff8416028152600160a060020a039091166004820152602401602060405180830381600087803b151561050a57600080fd5b6102c65a03f1151561051b57600080fd5b50505060405180511515600114905061053357600080fd5b60008781526004602052604090206001015460ff161561055257600080fd5b60008781526004602052604090206002018054600181016105738382610df4565b9160005260206000209060040201600060806040519081016040908152898252602082018990527f697066730000000000000000000000000000000000000000000000000000000090820152606081018590529190508151815560208201516001820155604082015160028201556060820151600390910155505060008781526004602052604090208681556002018054600181016106128382610df4565b9160005260206000209060040201600060806040519081016040908152878252602082018790527f617773000000000000000000000000000000000000000000000000000000000090820152606081018590529190508151815560208201516001820155604082015160028201556060820151600390910155505050505050505050565b600090815260036020526040902054600160a060020a031690565b60008054600160a060020a031663fda0895833836040516020015260405160e060020a63ffffffff8416028152600160a060020a039091166004820152602401602060405180830381600087803b151561070a57600080fd5b6102c65a03f1151561071b57600080fd5b50505060405180511515600114905061073357600080fd5b5082600160a060020a03811663beabacc887858560006040516020015260405160e060020a63ffffffff8616028152600160a060020a0393841660048201529190921660248201526044810191909152606401602060405180830381600087803b151561079f57600080fd5b6102c65a03f115156107b057600080fd5b5050506040518051151560011490506107c857600080fd5b7fcb097381ce67a8284a48d132fa97c7b98849e6967a4bd898dbce4a95bbb089a285858585604051938452600160a060020a039283166020850152911660408084019190915260608301919091526080909101905180910390a1505050505050565b6000908152600460205260409020600201546000190190565b600160a060020a031660009081526002602052604090205490565b60008054600160a060020a031663fda0895833836040516020015260405160e060020a63ffffffff8416028152600160a060020a039091166004820152602401602060405180830381600087803b15156108b757600080fd5b6102c65a03f115156108c857600080fd5b5050506040518051151560011490506108e057600080fd5b50600081815260016020526040902054600160a060020a031683831080159061091f5750600082815260016020526040902054600160a060020a031615155b151561092a57600080fd5b80600160a060020a03166397304ced8560405160e060020a63ffffffff84160281526004810191909152602401600060405180830381600087803b151561097057600080fd5b6102c65a03f1151561098157600080fd5b50505080600160a060020a031663a9059cbb868660006040516020015260405160e060020a63ffffffff8516028152600160a060020a0390921660048301526024820152604401602060405180830381600087803b15156109e157600080fd5b6102c65a03f115156109f257600080fd5b50505060405180519050507f1333febac90ed30aca731f4c35d8ce00d3e44f1054a81a1dc003fbdd0da394d48686868686604051948552600160a060020a0390931660208501526040808501929092526060840152608083019190915260a0909101905180910390a1505050505050565b600085815260046020526040902060019081015460ff16151514610a8657600080fd5b6000858152600460205260409020600201805460018101610aa78382610df4565b916000526020600020906004020160006080604051908101604090815288825260208201889052810186905260608101859052919050815181556020820151600182015560408201516002820155606082015160039091015550505050505050565b60008054600160a060020a03169063fda089589033906040516020015260405160e060020a63ffffffff8416028152600160a060020a039091166004820152602401602060405180830381600087803b1515610b6457600080fd5b6102c65a03f11515610b7557600080fd5b505050604051805115156001149050610b8d57600080fd5b600081815260016020526040902054600160a060020a031615610baf57600080fd5b600054600160a060020a0316838383610bc6610e25565b600160a060020a039094168452602084019290925260ff16604080840191909152606083019190915260809091019051809103906000f0801515610c0957600080fd5b6000828152600160205260409020805473ffffffffffffffffffffffffffffffffffffffff1916600160a060020a039283161790819055161515610c4957fe5b60008181526001602081815260408084208054600160a060020a03908116865260028452828620879055948690529290915290547f49ed04561088f8c4d4b6cf512cfd6e87722fae11971dad08e91c480f46ef0a909286928692869216905193845260ff9092166020840152604080840191909152600160a060020a0390911660608301526080909101905180910390a1505050565b600090815260016020526040902054600160a060020a031690565b60008281526004602052604081208054600290910180548392839283928392919088908110610d2557fe5b60009182526020808320600492830201548b84529190526040909120600201805489908110610d5057fe5b60009182526020808320600492830201600101548c8452919052604090912060020180548a908110610d7e57fe5b600091825260208083206004928302016002908101548e855292909152604090922090910180548b908110610daf57fe5b906000526020600020906004020160030154945094509450945094509295509295909350565b600054600160a060020a031681565b60405161044b80610e6b83390190565b815481835581811511610e2057600402816004028360005260206000209182019101610e209190610e35565b505050565b604051610c5a806112b683390190565b610e6791905b80821115610e6357600080825560018201819055600282018190556003820155600401610e3b565b5090565b9056006060604052341561000f57600080fd5b60405160408061044b833981016040528080519190602001805160008054600160a060020a03909216600160a060020a031990921691909117905550506001556103ed8061005e6000396000f300606060405263ffffffff60e060020a60003504166302ab72c4811461004457806370a0823114610065578063beabacc814610096578063f7f01b4b146100d257600080fd5b341561004f57600080fd5b610063600160a060020a0360043516610101565b005b341561007057600080fd5b610084600160a060020a03600435166101b4565b60405190815260200160405180910390f35b34156100a157600080fd5b6100be600160a060020a036004358116906024351660443561022d565b604051901515815260200160405180910390f35b34156100dd57600080fd5b6100e56103b2565b604051600160a060020a03909116815260200160405180910390f35b60008054600160a060020a03169063fda089589033906040516020015260405160e060020a63ffffffff8416028152600160a060020a039091166004820152602401602060405180830381600087803b151561015c57600080fd5b6102c65a03f1151561016d57600080fd5b50505060405180511515600114905061018557600080fd5b6000805473ffffffffffffffffffffffffffffffffffffffff1916600160a060020a0392909216919091179055565b600081600160a060020a03166370a082313060006040516020015260405160e060020a63ffffffff8416028152600160a060020a039091166004820152602401602060405180830381600087803b151561020d57600080fd5b6102c65a03f1151561021e57600080fd5b50505060405180519392505050565b60008054600160a060020a031663fda0895833836040516020015260405160e060020a63ffffffff8416028152600160a060020a039091166004820152602401602060405180830381600087803b151561028657600080fd5b6102c65a03f1151561029757600080fd5b50505060405180511515600114905080610328575060008054600160a060020a03169063a6d286939033906040516020015260405160e060020a63ffffffff8416028152600160a060020a039091166004820152602401602060405180830381600087803b151561030757600080fd5b6102c65a03f1151561031857600080fd5b5050506040518051151560011490505b151561033357600080fd5b83600160a060020a031663a9059cbb848460006040516020015260405160e060020a63ffffffff8516028152600160a060020a0390921660048301526024820152604401602060405180830381600087803b151561039057600080fd5b6102c65a03f115156103a157600080fd5b505050604051805195945050505050565b600054600160a060020a0316815600a165627a7a7230582045edea2f886a7db073011201e2ddfdec3ba18912d03ccefdfd72d07f8e96a9660029606060405260008055341561001357600080fd5b604051608080610c5a8339810160405280805191906020018051919060200180519190602001805160068054600160a060020a031916600160a060020a03979097169690961790955550506001919091556002805460ff191660ff909216919091179055600355610bd1806100896000396000f300606060405236156100ca5763ffffffff60e060020a6000350416630156b32381146100cf57806302ab72c41461010557806306fdde0314610126578063095ea7b31461014b57806318160ddd1461016d57806323b872dd1461018057806327e235e3146101a8578063313ce567146101c75780635c658165146101f057806367fbd2891461021557806370a082311461022b57806395d89b411461024a57806397304ced1461025d578063a9059cbb14610273578063dd62ed3e14610295578063f7f01b4b146102ba575b600080fd5b34156100da57600080fd5b6100f1600435600160a060020a03602435166102e9565b604051901515815260200160405180910390f35b341561011057600080fd5b610124600160a060020a03600435166103ed565b005b341561013157600080fd5b61013961049e565b60405190815260200160405180910390f35b341561015657600080fd5b6100f1600160a060020a03600435166024356104a4565b341561017857600080fd5b610139610510565b341561018b57600080fd5b6100f1600160a060020a0360043581169060243516604435610516565b34156101b357600080fd5b610139600160a060020a036004351661061c565b34156101d257600080fd5b6101da61062e565b60405160ff909116815260200160405180910390f35b34156101fb57600080fd5b610139600160a060020a0360043581169060243516610637565b341561022057600080fd5b6100f1600435610654565b341561023657600080fd5b610139600160a060020a0360043516610898565b341561025557600080fd5b6101396108b3565b341561026857600080fd5b6101246004356108b9565b341561027e57600080fd5b6100f1600160a060020a0360043516602435610aa1565b34156102a057600080fd5b610139600160a060020a0360043581169060243516610b35565b34156102c557600080fd5b6102cd610b60565b604051600160a060020a03909116815260200160405180910390f35b600654600090600160a060020a03166305fd22d033836040516020015260405160e060020a63ffffffff8416028152600160a060020a039091166004820152602401602060405180830381600087803b151561034457600080fd5b6102c65a03f1151561035557600080fd5b50505060405180511515600114905061036d57600080fd5b600160a060020a03821660009081526004602052604090205483901015610396575060006103e7565b600160a060020a0382166000908152600460205260409020546103b99084610b6f565b600160a060020a038316600090815260046020526040812091909155546103e09084610b6f565b6000555060015b92915050565b600654600160a060020a031663fda089583360006040516020015260405160e060020a63ffffffff8416028152600160a060020a039091166004820152602401602060405180830381600087803b151561044657600080fd5b6102c65a03f1151561045757600080fd5b50505060405180511515600114905061046f57600080fd5b6006805473ffffffffffffffffffffffffffffffffffffffff1916600160a060020a0392909216919091179055565b60015481565b600160a060020a03338116600081815260056020908152604080832094871680845294909152808220859055909291907f8c5be1e5ebec7d5bd14f71427d1e84f3dd0314c0f7b2291e5b200ac8c7c3b9259085905190815260200160405180910390a350600192915050565b60005481565b600160a060020a03808416600081815260056020908152604080832033909516835293815283822054928252600490529182205483901080159061055a5750828110155b151561056557600080fd5b600160a060020a03808516600090815260046020526040808220805487019055918716815220805484900390556000198110156105ca57600160a060020a03808616600090815260056020908152604080832033909416835292905220805484900390555b83600160a060020a031685600160a060020a03167fddf252ad1be2c89b69c2b068fc378daa952ba7f163c4a11628f55a4df523b3ef8560405190815260200160405180910390a3506001949350505050565b60046020526000908152604090205481565b60025460ff1681565b600560209081526000928352604080842090915290825290205481565b600654600090600160a060020a03166305fd22d033836040516020015260405160e060020a63ffffffff8416028152600160a060020a039091166004820152602401602060405180830381600087803b15156106af57600080fd5b6102c65a03f115156106c057600080fd5b5050506040518051151560011490506106d857600080fd5b6006548290600490600090600160a060020a03166394a3760f82604051602001526040518163ffffffff1660e060020a028152600401602060405180830381600087803b151561072757600080fd5b6102c65a03f1151561073857600080fd5b5050506040518051600160a060020a0316825250602081019190915260400160002054101561076957506000610893565b6006546107f490600490600090600160a060020a03166394a3760f82604051602001526040518163ffffffff1660e060020a028152600401602060405180830381600087803b15156107ba57600080fd5b6102c65a03f115156107cb57600080fd5b5050506040518051600160a060020a031682525060208101919091526040016000205483610b6f565b600654600490600090600160a060020a03166394a3760f82604051602001526040518163ffffffff1660e060020a028152600401602060405180830381600087803b151561084157600080fd5b6102c65a03f1151561085257600080fd5b50505060405180519050600160a060020a0316600160a060020a031681526020019081526020016000208190555061088c60005483610b6f565b6000555060015b919050565b600160a060020a031660009081526004602052604090205490565b60035481565b600654600160a060020a031663fda089583360006040516020015260405160e060020a63ffffffff8416028152600160a060020a039091166004820152602401602060405180830381600087803b151561091257600080fd5b6102c65a03f1151561092357600080fd5b50505060405180511515600114905061093b57600080fd5b6006546109c690600490600090600160a060020a031663fd922a4282604051602001526040518163ffffffff1660e060020a028152600401602060405180830381600087803b151561098c57600080fd5b6102c65a03f1151561099d57600080fd5b5050506040518051600160a060020a031682525060208101919091526040016000205482610b81565b600654600490600090600160a060020a031663fd922a4282604051602001526040518163ffffffff1660e060020a028152600401602060405180830381600087803b1515610a1357600080fd5b6102c65a03f11515610a2457600080fd5b50505060405180519050600160a060020a0316600160a060020a0316815260200190815260200160002081905550610a5e60005482610b81565b6000556003547fb83a9cb495aa43a9871c87805ab90712a5f703de6d66d16b96d7afcc91bb3299908260405191825260208201526040908101905180910390a150565b600160a060020a03331660009081526004602052604081205482901015610ac757600080fd5b600160a060020a033381166000818152600460205260408082208054879003905592861680825290839020805486019055917fddf252ad1be2c89b69c2b068fc378daa952ba7f163c4a11628f55a4df523b3ef9085905190815260200160405180910390a350600192915050565b600160a060020a03918216600090815260056020908152604080832093909416825291909152205490565b600654600160a060020a031681565b600082821115610b7b57fe5b50900390565b6000828201838110801590610b965750828110155b1515610b9e57fe5b93925050505600a165627a7a723058203feba0673d1dc3be221c7c616f489c7613f1e3b647e7d121341c06a120d389560029a165627a7a723058207703c20c8bc98984bb1aa9c6bb585bfc36d4533e054aa87b7fab3ea5e7ac4d780029",
  "source": "/**\nThis is the core module of the system. Currently it holds the code of\nthe Bank and crowdsale modules to avoid external calls and higher gas costs.\nIt might be a good idea in the future to split the code, separate Bank\nand crowdsale modules into external files and have the core interact with them\nwith addresses and interfaces. \n*/\npragma solidity ^0.4.17;\n\nimport \"./iERC20Token.sol\";\nimport \"./CurrencyToken.sol\";\nimport \"./DepositContract.sol\";\n\n\n/// @title Populous contract\ncontract Populous is withAccessManager {\n\n    // EVENTS\n    event EventNewCrowdsaleBlock(bytes32 crowdsaleId, bytes invoiceId, uint sourceLength);\n    // Bank events\n    event EventWithdrawPPT(bytes32 accountId, address depositContract, address to, uint amount);\n    event EventWithdrawPokens(bytes32 accountId, address to, uint amount, uint ledgerBalance, bytes32 currency);\n    event EventNewCurrency(bytes32 tokenName, uint8 decimalUnits, bytes32 tokenSymbol, address addr);\n    event EventNewDepositContract(bytes32 clientId, address depositContractAddress);\n\n    // FIELDS\n    mapping(bytes32 => address) currencies;\n    mapping(address => bytes32) currenciesSymbols;\n    // This variable will be used to keep track of client IDs and\n    // their deposit addresses\n    // clientId => depositAddress\n    mapping (bytes32 => address) depositAddress;\n\n    struct storageSource {\n        bytes32 dataHash1;\n        bytes32 dataHash2;\n        bytes32 dataSource; // upload provider: ipfs / aws (uploaded to our aws server) / ... who provides the storage for this information.\n        bytes32 dataType; // crowdsale (creators, bids) + addresses /exchange_date/deposit_history (latest)/ -- for external auditing.\n    }\n\n    struct record {\n       bytes32 invoiceId;\n       bool isSet;\n       storageSource[] documents; //source[0] = [\"0x23222324\"]\n    }\n\n    //crowdsaleId => (invoiceId, documents [\"crowdsale_log\",\"exchange_history\",\"deposit_history\"])\n    mapping(bytes32 => record) Blocks;\n\n\n    // NON-CONSTANT METHODS\n    // Constructor method called when contract instance is \n    // deployed with 'withAccessManager' modifier.\n    function Populous(address _accessManager) public withAccessManager(_accessManager) { }\n    /**\n    BANK MODULE\n    */\n\n\n    // NON-CONSTANT METHODS\n    function insertBlock(bytes32 _crowdsaleId, bytes32 _invoiceId, \n        bytes32 _ipfsHash1,\n        bytes32 _ipfsHash2,\n        bytes32 _awsHash1,\n        bytes32 _awsHash2,\n        bytes32 _dataType) \n    public\n    onlyServer\n    {\n        require(Blocks[_crowdsaleId].isSet == false);\n        Blocks[_crowdsaleId].documents.push(storageSource(\n           _ipfsHash1,\n           _ipfsHash2,\n           \"ipfs\",\n           _dataType)\n        );\n\n        // record the history of a crowdsale on the ledger, with internal and external logs, and interal address to so it can be easily audited using etherscan\n        Blocks[_crowdsaleId].invoiceId = _invoiceId;\n        Blocks[_crowdsaleId].documents.push(storageSource(\n           _awsHash1,\n           _awsHash2,\n           \"aws\",\n           _dataType)\n        );\n\n    }\n\n    function insertSource(bytes32 _crowdsaleId, bytes32 _dataHash1, bytes32 _dataHash2, bytes32 _dataSource, bytes32 _dataType) public {\n        require(Blocks[_crowdsaleId].isSet == true);\n\n        Blocks[_crowdsaleId].documents.push(storageSource(\n           _dataHash1,\n           _dataHash2,\n           _dataSource,\n           _dataType)\n        );\n    }\n       /** @dev Creates a new 'depositAddress' gotten from deploying a deposit contract linked to a client ID\n      * @param clientId The bytes32 client ID\n      * @return address The address of the deployed deposit contract instance.\n      */\n    function createAddress(bytes32 clientId) public\n        onlyServer\n    {\n        depositAddress[clientId] = new DepositContract(clientId, AM);\n        assert(depositAddress[clientId] != 0x0);\n\n        EventNewDepositContract(clientId, depositAddress[clientId]);\n    }\n\n    /** @dev Creates a new token/currency.\n      * @param _tokenName  The name of the currency.\n      * @param _decimalUnits The number of decimals the currency has.\n      * @param _tokenSymbol The cyrrency symbol, e.g., GBP\n      */\n    function createCurrency(bytes32 _tokenName, uint8 _decimalUnits, bytes32 _tokenSymbol)\n        public\n        onlyServer\n    {\n        // Check if currency already exists\n        require(currencies[_tokenSymbol] == 0x0);\n\n        currencies[_tokenSymbol] = new CurrencyToken(address(AM), _tokenName, _decimalUnits, _tokenSymbol);\n        \n        assert(currencies[_tokenSymbol] != 0x0);\n\n        currenciesSymbols[currencies[_tokenSymbol]] = _tokenSymbol;\n\n        EventNewCurrency(_tokenName, _decimalUnits, _tokenSymbol, currencies[_tokenSymbol]);\n    }\n\n    \n    function withdrawPPT(address pptAddress, bytes32 accountId, address depositContract, address to, uint amount) public onlyServer {\n        DepositContract o = DepositContract(depositContract);\n        require(o.transfer(pptAddress, to, amount) == true);\n        EventWithdrawPPT(accountId, depositContract, to, amount);\n    }\n    \n\n    function withdrawPoken(bytes32 accountId, address to, uint amount, uint ledgerBalance, bytes32 currency) public onlyServer {\n        CurrencyToken cT = CurrencyToken(currencies[currency]);\n        \n        require(ledgerBalance >= amount && currencies[currency] != 0x0);\n        //credit ledger\n        cT.mintTokens(amount);\n        //credit account\n        cT.transfer(to, amount);\n        //emit event: Imported currency to system\n        EventWithdrawPokens(accountId, to, amount, ledgerBalance, currency);\n    }\n\n    /** @dev Gets the address of a currency.\n      * @param currency The currency.\n      * @return address The currency address.\n      */\n    function getCurrency(bytes32 currency) public view returns (address) {\n        return currencies[currency];\n    }\n\n    /** @dev Gets the currency symbol of a currency.\n      * @param currency The currency.\n      * @return bytes32 The currency sybmol, e.g., GBP.\n      */\n    function getCurrencySymbol(address currency) public view returns (bytes32) {\n        return currenciesSymbols[currency];\n    }\n    /** @dev Gets the deposit address linked to a given client ID.\n      * @param clientId The client ID.\n      * @return address The deposit address.\n      */\n    function getDepositAddress(bytes32 clientId) public view returns (address) {\n        return depositAddress[clientId];\n    }\n    function getRecord(bytes32 _crowdsaleId, uint documentIndex) public view \n    returns(bytes32, bytes32, bytes32, bytes32, bytes32) \n    {\n        return (Blocks[_crowdsaleId].invoiceId,\n                Blocks[_crowdsaleId].documents[documentIndex].dataHash1,\n                Blocks[_crowdsaleId].documents[documentIndex].dataHash2,\n                Blocks[_crowdsaleId].documents[documentIndex].dataSource,\n                Blocks[_crowdsaleId].documents[documentIndex].dataType\n                );\n\n    }\n\n    function getRecordDocumentIndexes(bytes32 _crowdsaleId) public view\n    returns(uint)\n    {\n        return Blocks[_crowdsaleId].documents.length - 1;\n    }\n}",
  "sourcePath": "/Users/najienka/Desktop/populous-smartcontracts/contracts/Populous.sol",
  "schemaVersion": "1.0.0",
  "updatedAt": "2018-02-14T11:38:14.179Z"
}