{
  "contractName": "Populous",
  "abi": [
    {
      "constant": false,
      "inputs": [
        {
          "name": "_accessManager",
          "type": "address"
        }
      ],
      "name": "updateAccessManager",
      "outputs": [],
      "payable": false,
      "stateMutability": "nonpayable",
      "type": "function"
    },
    {
      "constant": false,
      "inputs": [
        {
          "name": "_operator",
          "type": "address"
        },
        {
          "name": "_from",
          "type": "address"
        },
        {
          "name": "_tokenId",
          "type": "uint256"
        },
        {
          "name": "_data",
          "type": "bytes"
        }
      ],
      "name": "onERC721Received",
      "outputs": [
        {
          "name": "",
          "type": "bytes4"
        }
      ],
      "payable": false,
      "stateMutability": "nonpayable",
      "type": "function"
    },
    {
      "constant": false,
      "inputs": [
        {
          "name": "_dataManager",
          "type": "address"
        },
        {
          "name": "_blockchainActionId",
          "type": "bytes32"
        },
        {
          "name": "currency",
          "type": "bytes32"
        },
        {
          "name": "amount",
          "type": "uint256"
        },
        {
          "name": "from",
          "type": "address"
        },
        {
          "name": "to",
          "type": "address"
        },
        {
          "name": "accountId",
          "type": "bytes32"
        },
        {
          "name": "inCollateral",
          "type": "uint256"
        },
        {
          "name": "pptFee",
          "type": "uint256"
        },
        {
          "name": "adminExternalWallet",
          "type": "address"
        }
      ],
      "name": "withdrawPoken",
      "outputs": [],
      "payable": false,
      "stateMutability": "nonpayable",
      "type": "function"
    },
    {
      "constant": false,
      "inputs": [
        {
          "name": "_dataManager",
          "type": "address"
        },
        {
          "name": "_blockchainActionId",
          "type": "bytes32"
        },
        {
          "name": "pptAddress",
          "type": "address"
        },
        {
          "name": "accountId",
          "type": "bytes32"
        },
        {
          "name": "to",
          "type": "address"
        },
        {
          "name": "amount",
          "type": "uint256"
        },
        {
          "name": "inCollateral",
          "type": "uint256"
        },
        {
          "name": "pptFee",
          "type": "uint256"
        },
        {
          "name": "adminExternalWallet",
          "type": "address"
        }
      ],
      "name": "withdrawERC20",
      "outputs": [],
      "payable": false,
      "stateMutability": "nonpayable",
      "type": "function"
    },
    {
      "constant": false,
      "inputs": [
        {
          "name": "_dataManager",
          "type": "address"
        },
        {
          "name": "_blockchainActionId",
          "type": "bytes32"
        },
        {
          "name": "erc20_tokenAddress",
          "type": "address"
        },
        {
          "name": "erc20_amount",
          "type": "uint256"
        },
        {
          "name": "xaup_amount",
          "type": "uint256"
        },
        {
          "name": "_tokenId",
          "type": "uint256"
        },
        {
          "name": "_clientId",
          "type": "bytes32"
        },
        {
          "name": "adminExternalWallet",
          "type": "address"
        }
      ],
      "name": "exchangeXAUP",
      "outputs": [],
      "payable": false,
      "stateMutability": "nonpayable",
      "type": "function"
    },
    {
      "constant": true,
      "inputs": [
        {
          "name": "",
          "type": "bytes8"
        }
      ],
      "name": "tokenDetails",
      "outputs": [
        {
          "name": "_token",
          "type": "address"
        },
        {
          "name": "_precision",
          "type": "uint256"
        }
      ],
      "payable": false,
      "stateMutability": "view",
      "type": "function"
    },
    {
      "constant": false,
      "inputs": [
        {
          "name": "_dataManager",
          "type": "address"
        },
        {
          "name": "_blockchainActionId",
          "type": "bytes32"
        },
        {
          "name": "clientId",
          "type": "bytes32"
        }
      ],
      "name": "createAddress",
      "outputs": [],
      "payable": false,
      "stateMutability": "nonpayable",
      "type": "function"
    },
    {
      "constant": false,
      "inputs": [
        {
          "name": "_dataManager",
          "type": "address"
        },
        {
          "name": "_blockchainActionId",
          "type": "bytes32"
        },
        {
          "name": "_providerUserId",
          "type": "bytes32"
        },
        {
          "name": "_invoiceCountryCode",
          "type": "bytes2"
        },
        {
          "name": "_invoiceCompanyNumber",
          "type": "bytes32"
        },
        {
          "name": "_invoiceCompanyName",
          "type": "bytes32"
        },
        {
          "name": "_invoiceNumber",
          "type": "bytes32"
        }
      ],
      "name": "addInvoice",
      "outputs": [],
      "payable": false,
      "stateMutability": "nonpayable",
      "type": "function"
    },
    {
      "constant": false,
      "inputs": [
        {
          "name": "_operator",
          "type": "address"
        },
        {
          "name": "_from",
          "type": "address"
        },
        {
          "name": "_id",
          "type": "uint256"
        },
        {
          "name": "_value",
          "type": "uint256"
        },
        {
          "name": "_data",
          "type": "bytes"
        }
      ],
      "name": "onERC1155Received",
      "outputs": [
        {
          "name": "",
          "type": "bytes4"
        }
      ],
      "payable": false,
      "stateMutability": "nonpayable",
      "type": "function"
    },
    {
      "constant": true,
      "inputs": [],
      "name": "AM",
      "outputs": [
        {
          "name": "",
          "type": "address"
        }
      ],
      "payable": false,
      "stateMutability": "view",
      "type": "function"
    },
    {
      "inputs": [
        {
          "name": "_accessManager",
          "type": "address"
        }
      ],
      "payable": false,
      "stateMutability": "nonpayable",
      "type": "constructor"
    },
    {
      "anonymous": false,
      "inputs": [
        {
          "indexed": false,
          "name": "_blockchainActionId",
          "type": "bytes32"
        },
        {
          "indexed": false,
          "name": "erc20_tokenAddress",
          "type": "address"
        },
        {
          "indexed": false,
          "name": "erc20_amount",
          "type": "uint256"
        },
        {
          "indexed": false,
          "name": "xaup_amount",
          "type": "uint256"
        },
        {
          "indexed": false,
          "name": "_tokenId",
          "type": "uint256"
        },
        {
          "indexed": false,
          "name": "_clientId",
          "type": "bytes32"
        },
        {
          "indexed": false,
          "name": "_from",
          "type": "address"
        }
      ],
      "name": "EventExchangeXAUp",
      "type": "event"
    },
    {
      "anonymous": false,
      "inputs": [
        {
          "indexed": false,
          "name": "blockchainActionId",
          "type": "bytes32"
        },
        {
          "indexed": false,
          "name": "oldDepositContract",
          "type": "address"
        },
        {
          "indexed": false,
          "name": "newDepositContract",
          "type": "address"
        },
        {
          "indexed": false,
          "name": "clientId",
          "type": "bytes32"
        },
        {
          "indexed": false,
          "name": "version",
          "type": "uint256"
        }
      ],
      "name": "EventDepositAddressUpgrade",
      "type": "event"
    },
    {
      "anonymous": false,
      "inputs": [
        {
          "indexed": false,
          "name": "blockchainActionId",
          "type": "bytes32"
        },
        {
          "indexed": false,
          "name": "accountId",
          "type": "bytes32"
        },
        {
          "indexed": false,
          "name": "depositContract",
          "type": "address"
        },
        {
          "indexed": false,
          "name": "to",
          "type": "address"
        },
        {
          "indexed": false,
          "name": "amount",
          "type": "uint256"
        }
      ],
      "name": "EventWithdrawPPT",
      "type": "event"
    },
    {
      "anonymous": false,
      "inputs": [
        {
          "indexed": false,
          "name": "_blockchainActionId",
          "type": "bytes32"
        },
        {
          "indexed": false,
          "name": "accountId",
          "type": "bytes32"
        },
        {
          "indexed": false,
          "name": "currency",
          "type": "bytes32"
        },
        {
          "indexed": false,
          "name": "amount",
          "type": "uint256"
        }
      ],
      "name": "EventWithdrawPoken",
      "type": "event"
    },
    {
      "anonymous": false,
      "inputs": [
        {
          "indexed": false,
          "name": "blockchainActionId",
          "type": "bytes32"
        },
        {
          "indexed": false,
          "name": "clientId",
          "type": "bytes32"
        },
        {
          "indexed": false,
          "name": "depositContractAddress",
          "type": "address"
        },
        {
          "indexed": false,
          "name": "version",
          "type": "uint256"
        }
      ],
      "name": "EventNewDepositContract",
      "type": "event"
    },
    {
      "anonymous": false,
      "inputs": [
        {
          "indexed": false,
          "name": "_blockchainActionId",
          "type": "bytes32"
        },
        {
          "indexed": false,
          "name": "_providerUserId",
          "type": "bytes32"
        },
        {
          "indexed": false,
          "name": "invoiceCountryCode",
          "type": "bytes2"
        },
        {
          "indexed": false,
          "name": "invoiceCompanyNumber",
          "type": "bytes32"
        },
        {
          "indexed": false,
          "name": "invoiceCompanyName",
          "type": "bytes32"
        },
        {
          "indexed": false,
          "name": "invoiceNumber",
          "type": "bytes32"
        }
      ],
      "name": "EventNewInvoice",
      "type": "event"
    }
  ],
  "bytecode": "0x6060604052341561000f57600080fd5b60405160208061389d8339810160405280805160008054600160a060020a03909216600160a060020a031992831617815560016020527fc1ee47c52a7b34bb9e05588a03eb18c9c810d5a67689e63a421233cda146257f8054831673c14830e53aa344e8c14603a91229a0b925b0b26217905560087fc1ee47c52a7b34bb9e05588a03eb18c9c810d5a67689e63a421233cda14625808190557f6b23dc0faa4de07f90ea4463993058b021d1258056c8b07ad6aee4384b79096e8054841673a0b86991c6218b36c1d19d4a2e9eb0ce3606eb4817905560067f6b23dc0faa4de07f90ea4463993058b021d1258056c8b07ad6aee4384b79096f557f909c1d54b5c4da165add65d90313e17e0de74aa10a8a0a327e254faae697194480548416738dd5fbce2f6a956c3022ba3663759011dd51e73e17905560127f909c1d54b5c4da165add65d90313e17e0de74aa10a8a0a327e254faae6971945557f2c6379ca2c83a957e0e33b79bf5f499e3437bdc022951391661524f3e473ebfd8054841673d4fa1460f537bb9085d22c7bccb5dd450ef28e3a1790557f2c6379ca2c83a957e0e33b79bf5f499e3437bdc022951391661524f3e473ebfe557a58415500000000000000000000000000000000000000000000000081527f5b61a34fc175c19d1a4e74ce629a51a3a9a6de769c03f11be4bb3c488642d88a80549092167373a3b7dffe9af119621f8467d8609771ab4bc33f179091557f5b61a34fc175c19d1a4e74ce629a51a3a9a6de769c03f11be4bb3c488642d88b555050613644806102596000396000f300606060405236156100885763ffffffff60e060020a60003504166302ab72c4811461008d578063150b7a02146100ae57806319041ee21461014f5780633da4138c1461019a5780635904243e146101e0578063878f666b1461021f578063a78caf1914610272578063aa1b6fc614610297578063f23a6e61146102d2578063f7f01b4b14610343575b600080fd5b341561009857600080fd5b6100ac600160a060020a0360043516610372565b005b34156100b957600080fd5b61011a600160a060020a036004803582169160248035909116916044359160849060643590810190830135806020601f8201819004810201604051908101604052818152929190602084018383808284375094965061042595505050505050565b6040517fffffffff00000000000000000000000000000000000000000000000000000000909116815260200160405180910390f35b341561015a57600080fd5b6100ac600160a060020a0360043581169060243590604435906064359060843581169060a43581169060c4359060e435906101043590610124351661044e565b34156101a557600080fd5b6100ac600160a060020a03600435811690602435906044358116906064359060843581169060a4359060c4359060e435906101043516610e38565b34156101eb57600080fd5b6100ac600160a060020a0360043581169060243590604435811690606435906084359060a4359060c4359060e435166113fb565b341561022a57600080fd5b61025077ffffffffffffffffffffffffffffffffffffffffffffffff1960043516611922565b604051600160a060020a03909216825260208201526040908101905180910390f35b341561027d57600080fd5b6100ac600160a060020a0360043516602435604435611947565b34156102a257600080fd5b6100ac600160a060020a0360043516602435604435600160f060020a03196064351660843560a43560c435612415565b34156102dd57600080fd5b61011a600160a060020a0360048035821691602480359091169160443591606435919060a49060843590810190830135806020601f8201819004810201604051908101604052818152929190602084018383808284375094965061272895505050505050565b341561034e57600080fd5b610356612752565b604051600160a060020a03909116815260200160405180910390f35b60008054600160a060020a03169063fda089589033906040516020015260405160e060020a63ffffffff8416028152600160a060020a039091166004820152602401602060405180830381600087803b15156103cd57600080fd5b6102c65a03f115156103de57600080fd5b5050506040518051151560011490506103f657600080fd5b6000805473ffffffffffffffffffffffffffffffffffffffff1916600160a060020a0392909216919091179055565b7f150b7a0200000000000000000000000000000000000000000000000000000000949350505050565b60008054600160a060020a031663fda0895833836040516020015260405160e060020a63ffffffff8416028152600160a060020a039091166004820152602401602060405180830381600087803b15156104a757600080fd5b6102c65a03f115156104b857600080fd5b5050506040518051151560011490506104d057600080fd5b600160a060020a038b1615156104e557600080fd5b8a600160a060020a031663bea0897c8b60006040516020015260405160e060020a63ffffffff84160281526004810191909152602401602060405180830381600087803b151561053457600080fd5b6102c65a03f1151561054557600080fd5b505050604051805115905080156105cd57508a600160a060020a0316632a01a4518660006040516020015260405160e060020a63ffffffff84160281526004810191909152602401602060405180830381600087803b15156105a657600080fd5b6102c65a03f115156105b757600080fd5b5050506040518051600160a060020a0316151590505b15156105d857600080fd5b600160a060020a038216158015906105f05750600083115b80156105fc5750600088115b151561060757600080fd5b8a600160a060020a031663d383b80d8a60006040516020015260405160e060020a63ffffffff84160281526004810191909152602401602060405180830381600087803b151561065657600080fd5b6102c65a03f1151561066757600080fd5b5050506040518051600160a060020a03161515905061068557600080fd5b8a600160a060020a0316632a01a4518660006040516020015260405160e060020a63ffffffff84160281526004810191909152602401602060405180830381600087803b15156106d457600080fd5b6102c65a03f115156106e557600080fd5b50505060405180517a505054000000000000000000000000000000000000000000000000600090815260016020527f2c6379ca2c83a957e0e33b79bf5f499e3437bdc022951391661524f3e473ebfd549193508592506107bb91600160a060020a03808616926370a0823192909116906040516020015260405160e060020a63ffffffff8416028152600160a060020a039091166004820152602401602060405180830381600087803b151561079a57600080fd5b6102c65a03f115156107ab57600080fd5b5050506040518051905086612761565b10156107c657600080fd5b7a505054000000000000000000000000000000000000000000000000600090815260016020527f2c6379ca2c83a957e0e33b79bf5f499e3437bdc022951391661524f3e473ebfd54600160a060020a038084169263beabacc89290911690859087906040516020015260405160e060020a63ffffffff8616028152600160a060020a0393841660048201529190921660248201526044810191909152606401602060405180830381600087803b151561087e57600080fd5b6102c65a03f1151561088f57600080fd5b5050506040518051151560011490506108a757600080fd5b8a600160a060020a031663d383b80d8a60006040516020015260405160e060020a63ffffffff84160281526004810191909152602401602060405180830381600087803b15156108f657600080fd5b6102c65a03f1151561090757600080fd5b50505060405180519050600160a060020a03166370a082318860006040516020015260405160e060020a63ffffffff8416028152600160a060020a039091166004820152602401602060405180830381600087803b151561096757600080fd5b6102c65a03f1151561097857600080fd5b50505060405180519050881115610b58578a600160a060020a031663d383b80d8a60006040516020015260405160e060020a63ffffffff84160281526004810191909152602401602060405180830381600087803b15156109d857600080fd5b6102c65a03f115156109e957600080fd5b50505060405180519050600160a060020a0316630156b3238c600160a060020a031663d383b80d8c60006040516020015260405160e060020a63ffffffff84160281526004810191909152602401602060405180830381600087803b1515610a5057600080fd5b6102c65a03f11515610a6157600080fd5b50505060405180519050600160a060020a03166370a082318a60006040516020015260405160e060020a63ffffffff8416028152600160a060020a039091166004820152602401602060405180830381600087803b1515610ac157600080fd5b6102c65a03f11515610ad257600080fd5b505050604051805190508960006040516020015260405160e060020a63ffffffff85160281526004810192909252600160a060020a03166024820152604401602060405180830381600087803b1515610b2a57600080fd5b6102c65a03f11515610b3b57600080fd5b505050604051805115156001149050610b5357600080fd5b610c48565b8a600160a060020a031663d383b80d8a60006040516020015260405160e060020a63ffffffff84160281526004810191909152602401602060405180830381600087803b1515610ba757600080fd5b6102c65a03f11515610bb857600080fd5b50505060405180519050600160a060020a0316630156b323898960006040516020015260405160e060020a63ffffffff85160281526004810192909252600160a060020a03166024820152604401602060405180830381600087803b1515610c1f57600080fd5b6102c65a03f11515610c3057600080fd5b505050604051805115156001149050610c4857600080fd5b8a600160a060020a031663d383b80d8a60006040516020015260405160e060020a63ffffffff84160281526004810191909152602401602060405180830381600087803b1515610c9757600080fd5b6102c65a03f11515610ca857600080fd5b50505060405180519050600160a060020a03166323b872dd33888b60006040516020015260405160e060020a63ffffffff8616028152600160a060020a0393841660048201529190921660248201526044810191909152606401602060405180830381600087803b1515610d1b57600080fd5b6102c65a03f11515610d2c57600080fd5b50505060405180515050600160a060020a038b166392c4b8678b8b8b898b8960006040516020015260405160e060020a63ffffffff89160281526004810196909652602486019490945260448501929092526064840152600160a060020a0316608483015260a482015260c401602060405180830381600087803b1515610db257600080fd5b6102c65a03f11515610dc357600080fd5b505050604051805115156001149050610ddb57600080fd5b7f7ad4d17a5e7c561e98e5c4a65c9108011dda4b022882de21c25c530df0054a6c8a868b8b604051938452602084019290925260408084019190915260608301919091526080909101905180910390a15050505050505050505050565b6000805481908190600160a060020a031663fda0895833836040516020015260405160e060020a63ffffffff8416028152600160a060020a039091166004820152602401602060405180830381600087803b1515610e9557600080fd5b6102c65a03f11515610ea657600080fd5b505050604051805115156001149050610ebe57600080fd5b600160a060020a038c161515610ed357600080fd5b8b600160a060020a031663bea0897c8c60006040516020015260405160e060020a63ffffffff84160281526004810191909152602401602060405180830381600087803b1515610f2257600080fd5b6102c65a03f11515610f3357600080fd5b50505060405180511590508015610fbb57508b600160a060020a0316632a01a4518a60006040516020015260405160e060020a63ffffffff84160281526004810191909152602401602060405180830381600087803b1515610f9457600080fd5b6102c65a03f11515610fa557600080fd5b5050506040518051600160a060020a0316151590505b1515610fc657600080fd5b600160a060020a03841615801590610fde5750600085115b8015610fea5750600087115b1515610ff557600080fd5b8b600160a060020a0316632a01a4518a60006040516020015260405160e060020a63ffffffff84160281526004810191909152602401602060405180830381600087803b151561104457600080fd5b6102c65a03f1151561105557600080fd5b5050506040518051905092506110dc83600160a060020a03166370a082318c60006040516020015260405160e060020a63ffffffff8416028152600160a060020a039091166004820152602401602060405180830381600087803b15156110bb57600080fd5b6102c65a03f115156110cc57600080fd5b5050506040518051905087612761565b91506110e88786612773565b8210156110f457600080fd5b82600160a060020a031663beabacc88b8a8a60006040516020015260405160e060020a63ffffffff8616028152600160a060020a0393841660048201529190921660248201526044810191909152606401602060405180830381600087803b151561115e57600080fd5b6102c65a03f1151561116f57600080fd5b50505060405180511515600114905061118757600080fd5b82600160a060020a031663beabacc88b868860006040516020015260405160e060020a63ffffffff8616028152600160a060020a0393841660048201529190921660248201526044810191909152606401602060405180830381600087803b15156111f157600080fd5b6102c65a03f1151561120257600080fd5b50505060405180511515600114905061121a57600080fd5b89600160a060020a03166395d89b416000604051602001526040518163ffffffff1660e060020a028152600401602060405180830381600087803b151561126057600080fd5b6102c65a03f1151561127157600080fd5b5050506040518051915050600160a060020a038c166392c4b8678c838a8d8d8b60006040516020015260405160e060020a63ffffffff89160281526004810196909652602486019490945260448501929092526064840152600160a060020a0316608483015260a482015260c401602060405180830381600087803b15156112f857600080fd5b6102c65a03f1151561130957600080fd5b50505060405180511515600114905061132157600080fd5b7fb34e83f654f4c047e331cea47cc1783dd0511abde3cac240a47bfbdefd6812e88b8a8e600160a060020a0316632a01a4518d60006040516020015260405160e060020a63ffffffff84160281526004810191909152602401602060405180830381600087803b151561139357600080fd5b6102c65a03f115156113a457600080fd5b505050604051805190508b8b6040519485526020850193909352600160a060020a0391821660408086019190915291166060840152608083019190915260a0909101905180910390a1505050505050505050505050565b6000805481908190600160a060020a031663fda0895833836040516020015260405160e060020a63ffffffff8416028152600160a060020a039091166004820152602401602060405180830381600087803b151561145857600080fd5b6102c65a03f1151561146957600080fd5b50505060405180511515600114905061148157600080fd5b7a584155000000000000000000000000000000000000000000000000600090815260016020527f5b61a34fc175c19d1a4e74ce629a51a3a9a6de769c03f11be4bb3c488642d88a548c9450600160a060020a039081169350841690632a01a4519087906040516020015260405160e060020a63ffffffff84160281526004810191909152602401602060405180830381600087803b151561152157600080fd5b6102c65a03f1151561153257600080fd5b5050506040518051915050600160a060020a038b161580159061155d5750600160a060020a03811615155b80156115715750600160a060020a03891615155b80156115e4575082600160a060020a031663bea0897c8b60006040516020015260405160e060020a63ffffffff84160281526004810191909152602401602060405180830381600087803b15156115c757600080fd5b6102c65a03f115156115d857600080fd5b50505060405180511590505b80156116515750600281600160a060020a0316630d8e6e2c6000604051602001526040518163ffffffff1660e060020a028152600401602060405180830381600087803b151561163357600080fd5b6102c65a03f1151561164457600080fd5b5050506040518051905010155b80156116d557508682600160a060020a0316633656eec2883360006040516020015260405160e060020a63ffffffff85160281526004810192909252600160a060020a03166024820152604401602060405180830381600087803b15156116b757600080fd5b6102c65a03f115156116c857600080fd5b5050506040518051905010155b15156116e057600080fd5b80600160a060020a031663beabacc88a868b60006040516020015260405160e060020a63ffffffff8616028152600160a060020a0393841660048201529190921660248201526044810191909152606401602060405180830381600087803b151561174a57600080fd5b6102c65a03f1151561175b57600080fd5b50505060405180511515600114905061177357600080fd5b81600160a060020a031663f242432a3383898b60405160e060020a63ffffffff8716028152600160a060020a0394851660048201529290931660248301526044820152606481019190915260a06084820152600060a4820181905260e49091019060405180830381600087803b15156117eb57600080fd5b6102c65a03f115156117fc57600080fd5b50505082600160a060020a03166392c4b8678b60008b89866000806040516020015260405160e060020a63ffffffff89160281526004810196909652602486019490945260448501929092526064840152600160a060020a0316608483015260a482015260c401602060405180830381600087803b151561187c57600080fd5b6102c65a03f1151561188d57600080fd5b5050506040518051151560011490506118a557600080fd5b7f3a0f94ac6dfce4f3ae7bdb44dc7ca27dfc76d4747283fbbea8cc33c59cc35afe8a8a8a8a8a8a87604051968752600160a060020a0395861660208801526040808801959095526060870193909352608086019190915260a085015290911660c083015260e0909101905180910390a15050505050505050505050565b60016020819052600091825260409091208054910154600160a060020a039091169082565b600080548190819081908190600160a060020a031663fda0895833836040516020015260405160e060020a63ffffffff8416028152600160a060020a039091166004820152602401602060405180830381600087803b15156119a857600080fd5b6102c65a03f115156119b957600080fd5b5050506040518051151560011490506119d157600080fd5b600160a060020a03881615156119e657600080fd5b87945084600160a060020a0316632a01a4518760006040516020015260405160e060020a63ffffffff84160281526004810191909152602401602060405180830381600087803b1515611a3857600080fd5b6102c65a03f11515611a4957600080fd5b5050506040518051600160a060020a03161590506121115784600160a060020a0316632a01a4518760006040516020015260405160e060020a63ffffffff84160281526004810191909152602401602060405180830381600087803b1515611ab057600080fd5b6102c65a03f11515611ac157600080fd5b5050506040518051600054909450879150600160a060020a0316611ae3612797565b918252600160a060020a0316602082015260409081019051809103906000f0801515611b0e57600080fd5b935082600160a060020a03166040517f67657456657273696f6e282900000000000000000000000000000000000000008152600c01604051809103902060e060020a90046040518163ffffffff1660e060020a02815260040160006040518083038160008761646e5a03f1925050501580611bea5750600283600160a060020a0316630d8e6e2c6000604051602001526040518163ffffffff1660e060020a028152600401602060405180830381600087803b1515611bcc57600080fd5b6102c65a03f11515611bdd57600080fd5b5050506040518051905011155b1515611bf557600080fd5b505060016020527fc1ee47c52a7b34bb9e05588a03eb18c9c810d5a67689e63a421233cda146257f547a50505400000000000000000000000000000000000000000000000060009081527f2c6379ca2c83a957e0e33b79bf5f499e3437bdc022951391661524f3e473ebfd54600160a060020a0392831692908116919084166370a0823184836040516020015260405160e060020a63ffffffff8416028152600160a060020a039091166004820152602401602060405180830381600087803b1515611cc057600080fd5b6102c65a03f11515611cd157600080fd5b505050604051805190501115611ddc57600160a060020a03831663beabacc88386836370a082318360006040516020015260405160e060020a63ffffffff8416028152600160a060020a039091166004820152602401602060405180830381600087803b1515611d4057600080fd5b6102c65a03f11515611d5157600080fd5b5050506040518051905060006040516020015260405160e060020a63ffffffff8616028152600160a060020a0393841660048201529190921660248201526044810191909152606401602060405180830381600087803b1515611db357600080fd5b6102c65a03f11515611dc457600080fd5b505050604051805115156001149050611ddc57600080fd5b600083600160a060020a03166370a082318360006040516020015260405160e060020a63ffffffff8416028152600160a060020a039091166004820152602401602060405180830381600087803b1515611e3557600080fd5b6102c65a03f11515611e4657600080fd5b505050604051805190501115611f5157600160a060020a03831663beabacc88286836370a082318360006040516020015260405160e060020a63ffffffff8416028152600160a060020a039091166004820152602401602060405180830381600087803b1515611eb557600080fd5b6102c65a03f11515611ec657600080fd5b5050506040518051905060006040516020015260405160e060020a63ffffffff8616028152600160a060020a0393841660048201529190921660248201526044810191909152606401602060405180830381600087803b1515611f2857600080fd5b6102c65a03f11515611f3957600080fd5b505050604051805115156001149050611f5157600080fd5b84600160a060020a031663c9939d0e88888760006040516020015260405160e060020a63ffffffff861602815260048101939093526024830191909152600160a060020a03166044820152606401602060405180830381600087803b1515611fb857600080fd5b6102c65a03f11515611fc957600080fd5b505050604051805115156001149050611fe157600080fd5b7f0456067687d27fcf6d3db141acb08cedd0fa786fdc7d672a7ed802514669b2e0878487600160a060020a0316632a01a4518a60006040516020015260405160e060020a63ffffffff84160281526004810191909152602401602060405180830381600087803b151561205357600080fd5b6102c65a03f1151561206457600080fd5b505050604051805190508988600160a060020a0316630d8e6e2c6000604051602001526040518163ffffffff1660e060020a028152600401602060405180830381600087803b15156120b557600080fd5b6102c65a03f115156120c657600080fd5b50505060405180519050604051948552600160a060020a039384166020860152919092166040808501919091526060840192909252608083015260a0909101905180910390a161240b565b6000548690600160a060020a0316612127612797565b918252600160a060020a0316602082015260409081019051809103906000f080151561215257600080fd5b935084600160a060020a0316630e8ba16788868960006040516020015260405160e060020a63ffffffff86160281526004810193909352600160a060020a0390911660248301526044820152606401602060405180830381600087803b15156121ba57600080fd5b6102c65a03f115156121cb57600080fd5b5050506040518051151560011490506121e357600080fd5b600160a060020a0385166392c4b867886000808a85632a01a45182846040516020015260405160e060020a63ffffffff84160281526004810191909152602401602060405180830381600087803b151561223c57600080fd5b6102c65a03f1151561224d57600080fd5b505050604051805190506000806040516020015260405160e060020a63ffffffff89160281526004810196909652602486019490945260448501929092526064840152600160a060020a0316608483015260a482015260c401602060405180830381600087803b15156122bf57600080fd5b6102c65a03f115156122d057600080fd5b5050506040518051151560011490506122e857600080fd5b7f0fb3e865b3e3996382296fd8ddd17b0bb8ae5d9866b08a51945a2e58cac30730878787600160a060020a0316632a01a4518a60006040516020015260405160e060020a63ffffffff84160281526004810191909152602401602060405180830381600087803b151561235a57600080fd5b6102c65a03f1151561236b57600080fd5b5050506040518051905087600160a060020a0316630d8e6e2c6000604051602001526040518163ffffffff1660e060020a028152600401602060405180830381600087803b15156123bb57600080fd5b6102c65a03f115156123cc57600080fd5b505050604051805190506040519384526020840192909252600160a060020a031660408084019190915260608301919091526080909101905180910390a15b5050505050505050565b60008054819081908190600160a060020a031663fda0895833836040516020015260405160e060020a63ffffffff8416028152600160a060020a039091166004820152602401602060405180830381600087803b151561247457600080fd5b6102c65a03f1151561248557600080fd5b50505060405180511515600114905061249d57600080fd5b600160a060020a038b1615156124b257600080fd5b8a935083600160a060020a0316631529905c8a60006040516060015260405160e060020a63ffffffff84160281526004810191909152602401606060405180830381600087803b151561250457600080fd5b6102c65a03f1151561251557600080fd5b505050604051805190602001805190602001805192955090935090915050600160f060020a031983161580159061254b57508115155b801561255657508015155b151561256157600080fd5b83600160a060020a031663880a8e548b8b8b8b8b8b60006040516020015260405160e060020a63ffffffff891602815260048101969096526024860194909452600160f060020a031990921660448501526064840152608483015260a482015260c401602060405180830381600087803b15156125dd57600080fd5b6102c65a03f115156125ee57600080fd5b50505060405180511515600114905061260657600080fd5b83600160a060020a03166392c4b8678b6000808d60008060006040516020015260405160e060020a63ffffffff89160281526004810196909652602486019490945260448501929092526064840152600160a060020a0316608483015260a482015260c401602060405180830381600087803b151561268457600080fd5b6102c65a03f1151561269557600080fd5b5050506040518051151560011490506126ad57600080fd5b7f53c9402948bb1a0f1c1ff853af7d9843a08489c0e79a7066f4d6ac7a7ac7876a8a8a8a8a8a8a6040519586526020860194909452600160f060020a03199092166040808601919091526060850191909152608084019190915260a083019190915260c0909101905180910390a15050505050505050505050565b7ff23a6e610000000000000000000000000000000000000000000000000000000095945050505050565b600054600160a060020a031681565b60008282111561276d57fe5b50900390565b60008282018381108015906127885750828110155b151561279057fe5b9392505050565b604051610e71806127a883390190560060606040526003600255341561001457600080fd5b604051604080610e71833981016040528080519190602001805160008054600160a060020a03909216600160a060020a03199092169190911790555050600155610e0e806100636000396000f300606060405236156100bf5763ffffffff60e060020a60003504166302ab72c481146100c15780630a7e880c146100e05780630d8e6e2c1461011f578063150b7a02146101445780631aca6376146101e5578063418ae2691461020d578063468f26221461022f578063527fe4131461024e57806354fd4d50146102615780636bb3471a1461027457806370a082311461028757806382a4fe69146102a6578063beabacc8146102dd578063f23a6e6114610305578063f7f01b4b14610376575b005b34156100cc57600080fd5b6100bf600160a060020a03600435166103a5565b34156100eb57600080fd5b61010b600160a060020a0360043581169060243516604435606435610458565b604051901515815260200160405180910390f35b341561012a57600080fd5b6101326105eb565b60405190815260200160405180910390f35b341561014f57600080fd5b6101b0600160a060020a036004803582169160248035909116916044359160849060643590810190830135806020601f820181900481020160405190810160405281815292919060208401838380828437509496506105f195505050505050565b6040517fffffffff00000000000000000000000000000000000000000000000000000000909116815260200160405180910390f35b34156101f057600080fd5b61010b600160a060020a036004358116906024351660443561061a565b341561021857600080fd5b610132600160a060020a03600435166024356107b0565b341561023a57600080fd5b610132600160a060020a0360043516610831565b341561025957600080fd5b6101326108ac565b341561026c57600080fd5b6101326108b2565b341561027f57600080fd5b6101326108b8565b341561029257600080fd5b610132600160a060020a03600435166108be565b34156102b157600080fd5b6100bf600160a060020a0360043581169060243590604435906064359060843581169060a4351661095a565b34156102e857600080fd5b61010b600160a060020a0360043581169060243516604435610c24565b341561031057600080fd5b6101b0600160a060020a0360048035821691602480359091169160443591606435919060a49060843590810190830135806020601f82018190048102016040519081016040528181529291906020840183838082843750949650610da995505050505050565b341561038157600080fd5b610389610dd3565b604051600160a060020a03909116815260200160405180910390f35b60008054600160a060020a03169063fda089589033906040516020015260405160e060020a63ffffffff8416028152600160a060020a039091166004820152602401602060405180830381600087803b151561040057600080fd5b6102c65a03f1151561041157600080fd5b50505060405180511515600114905061042957600080fd5b6000805473ffffffffffffffffffffffffffffffffffffffff1916600160a060020a0392909216919091179055565b60008054600160a060020a031663fda0895833836040516020015260405160e060020a63ffffffff8416028152600160a060020a039091166004820152602401602060405180830381600087803b15156104b157600080fd5b6102c65a03f115156104c257600080fd5b50505060405180511515600114905080610553575060008054600160a060020a0316906305fd22d09033906040516020015260405160e060020a63ffffffff8416028152600160a060020a039091166004820152602401602060405180830381600087803b151561053257600080fd5b6102c65a03f1151561054357600080fd5b5050506040518051151560011490505b151561055e57600080fd5b84600160a060020a031663ae28b68c85858560405160e060020a63ffffffff8616028152600160a060020a039093166004840152602483019190915260448201526080606482015260006084820181905260c49091019060405180830381600087803b15156105cc57600080fd5b6102c65a03f115156105dd57600080fd5b506001979650505050505050565b60025490565b7f150b7a0200000000000000000000000000000000000000000000000000000000949350505050565b60008054600160a060020a031663fda0895833836040516020015260405160e060020a63ffffffff8416028152600160a060020a039091166004820152602401602060405180830381600087803b151561067357600080fd5b6102c65a03f1151561068457600080fd5b50505060405180511515600114905080610715575060008054600160a060020a0316906305fd22d09033906040516020015260405160e060020a63ffffffff8416028152600160a060020a039091166004820152602401602060405180830381600087803b15156106f457600080fd5b6102c65a03f1151561070557600080fd5b5050506040518051151560011490505b151561072057600080fd5b83600160a060020a031663b88d4fde30858560405160e060020a63ffffffff8616028152600160a060020a03938416600482015291909216602482015260448101919091526080606482015260006084820181905260c49091019060405180830381600087803b151561079257600080fd5b6102c65a03f115156107a357600080fd5b5060019695505050505050565b600082600160a060020a0316633656eec2833060006040516020015260405160e060020a63ffffffff85160281526004810192909252600160a060020a03166024820152604401602060405180830381600087803b151561081057600080fd5b6102c65a03f1151561082157600080fd5b5050506040518051949350505050565b600081600160a060020a03166370a082313060006040516020015260405160e060020a63ffffffff8416028152600160a060020a039091166004820152602401602060405180830381600087803b151561088a57600080fd5b6102c65a03f1151561089b57600080fd5b50505060405180519150505b919050565b60015490565b60025481565b60015481565b6000600160a060020a03821615156108e15750600160a060020a033016316108a7565b81600160a060020a03166370a082313060006040516020015260405160e060020a63ffffffff8416028152600160a060020a039091166004820152602401602060405180830381600087803b151561093857600080fd5b6102c65a03f1151561094957600080fd5b5050506040518051905090506108a7565b60008054600160a060020a031663fda0895833836040516020015260405160e060020a63ffffffff8416028152600160a060020a039091166004820152602401602060405180830381600087803b15156109b357600080fd5b6102c65a03f115156109c457600080fd5b50505060405180511515600114905080610a55575060008054600160a060020a0316906305fd22d09033906040516020015260405160e060020a63ffffffff8416028152600160a060020a039091166004820152602401602060405180830381600087803b1515610a3457600080fd5b6102c65a03f11515610a4557600080fd5b5050506040518051151560011490505b1515610a6057600080fd5b600160a060020a0330163186901015610a7857600080fd5b600160a060020a03871686156108fc0287604051600060405180830381858888f115156001149350610aad9250505057600080fd5b81600160a060020a03166370a082313060006040516020015260405160e060020a63ffffffff8416028152600160a060020a039091166004820152602401602060405180830381600087803b1515610b0457600080fd5b6102c65a03f11515610b1557600080fd5b505050604051805191505080851115610b2d57600080fd5b84810384901015610b3d57600080fd5b81600160a060020a031663a9059cbb848660006040516020015260405160e060020a63ffffffff8516028152600160a060020a0390921660048301526024820152604401602060405180830381600087803b1515610b9a57600080fd5b6102c65a03f11515610bab57600080fd5b505050604051805115156001149050610bc357600080fd5b7fa8f744480abd19068d60b6e904ee9adad171e023b0e0351fff99e6266ba674cc87878686604051600160a060020a03948516815260208101939093526040808401929092529092166060820152608001905180910390a150505050505050565b60008054600160a060020a031663fda0895833836040516020015260405160e060020a63ffffffff8416028152600160a060020a039091166004820152602401602060405180830381600087803b1515610c7d57600080fd5b6102c65a03f11515610c8e57600080fd5b50505060405180511515600114905080610d1f575060008054600160a060020a0316906305fd22d09033906040516020015260405160e060020a63ffffffff8416028152600160a060020a039091166004820152602401602060405180830381600087803b1515610cfe57600080fd5b6102c65a03f11515610d0f57600080fd5b5050506040518051151560011490505b1515610d2a57600080fd5b83600160a060020a031663a9059cbb848460006040516020015260405160e060020a63ffffffff8516028152600160a060020a0390921660048301526024820152604401602060405180830381600087803b1515610d8757600080fd5b6102c65a03f11515610d9857600080fd5b505050604051805195945050505050565b7ff23a6e610000000000000000000000000000000000000000000000000000000095945050505050565b600054600160a060020a0316815600a165627a7a72305820edb35ba23a3b768abd6bf74d43220a7de2744b4e281483feba9dc1d884e316750029a165627a7a72305820e06f91d6d74799a9e22190f563c630d40648c3acc689c6a7c4492e482a2501520029",
  "source": "pragma solidity ^0.4.17;\n/**\nThis is the core module of the system. Currently it holds the code of\nthe Bank and crowdsale modules to avoid external calls and higher gas costs.\nIt might be a good idea in the future to split the code, separate Bank\nand crowdsale modules into external files and have the core interact with them\nwith addresses and interfaces. \n*/\nimport \"./iERC20Token.sol\";\nimport \"./CurrencyToken.sol\";\nimport \"./DepositContract.sol\";\nimport \"./SafeMath.sol\";\nimport \"./DataManager.sol\";\nimport \"./ERC1155.sol\";\nimport \"./withAccessManager.sol\";\n\n/// @title Populous contract\ncontract Populous is withAccessManager {\n    // EVENTS\n    // Bank events\n    event EventExchangeXAUp (bytes32 _blockchainActionId, address erc20_tokenAddress, uint256 erc20_amount, uint256 xaup_amount, uint256 _tokenId, bytes32 _clientId, address _from);\n    event EventDepositAddressUpgrade(bytes32 blockchainActionId, address oldDepositContract, address newDepositContract, bytes32 clientId, uint256 version);\n    event EventWithdrawPPT(bytes32 blockchainActionId, bytes32 accountId, address depositContract, address to, uint amount);\n    event EventWithdrawPoken(bytes32 _blockchainActionId, bytes32 accountId, bytes32 currency, uint amount);\n    event EventNewDepositContract(bytes32 blockchainActionId, bytes32 clientId, address depositContractAddress, uint256 version);\n    event EventNewInvoice(bytes32 _blockchainActionId, bytes32 _providerUserId, bytes2 invoiceCountryCode, bytes32 invoiceCompanyNumber, bytes32 invoiceCompanyName, bytes32 invoiceNumber);\n\n    // FIELDS\n    struct tokens {   \n        address _token;\n        uint256 _precision;\n    }\n    mapping(bytes8 => tokens) public tokenDetails;\n\n    // NON-CONSTANT METHODS\n    // Constructor method called when contract instance is \n    // deployed with 'withAccessManager' modifier.\n    function Populous(address _accessManager) public withAccessManager(_accessManager) {\n        //pxt\n        tokenDetails[0x505854]._token = 0xc14830E53aA344E8c14603A91229A0b925b0B262;\n        tokenDetails[0x505854]._precision = 8;\n        //usdc\n        tokenDetails[0x55534443]._token = 0xA0b86991c6218b36c1d19D4a2e9Eb0cE3606eB48;\n        tokenDetails[0x55534443]._precision = 6;\n        //tusd\n        tokenDetails[0x54555344]._token = 0x8dd5fbCe2F6a956C3022bA3663759011Dd51e73E;\n        tokenDetails[0x54555344]._precision = 18;\n        //ppt\n        tokenDetails[0x505054]._token = 0xd4fa1460F537bb9085d22C7bcCB5DD450Ef28e3a;        \n        tokenDetails[0x505054]._precision = 8;\n        //xau\n        tokenDetails[0x584155]._token = 0x73a3b7DFFE9af119621f8467D8609771AB4BC33f;\n        tokenDetails[0x584155]._precision = 0;\n    }\n\n        /** @dev Add a new crowdsale invoice from an invoice provider to the platform  \n      * @param _blockchainActionId the blockchain action id\n      * @param _providerUserId the user id of the provider\n      * @param _invoiceCompanyNumber the providers company number\n      * @param _invoiceCompanyName the providers company name\n      * @param _invoiceCountryCode the providers country code\n      * @param _invoiceNumber the invoice identification number\n      */\n    function addInvoice(\n        address _dataManager, bytes32 _blockchainActionId, \n        bytes32 _providerUserId, bytes2 _invoiceCountryCode, \n        bytes32 _invoiceCompanyNumber, bytes32 _invoiceCompanyName, bytes32 _invoiceNumber)\n        public\n        onlyServer\n    {\n        require(_dataManager != 0x0);\n        DataManager dm = DataManager(_dataManager);\n        bytes2 countryCode;\n        bytes32 companyName;\n        bytes32 companyNumber;\n        (countryCode, companyName, companyNumber) = dm.getProviderByUserId(_providerUserId);\n        require(countryCode != 0x0 && companyName != 0x0 && companyNumber != 0x0);\n        require(dm.setInvoice(_blockchainActionId, _providerUserId, _invoiceCountryCode, _invoiceCompanyNumber, _invoiceCompanyName, _invoiceNumber) == true);\n        require(dm.setBlockchainActionData(_blockchainActionId, 0x0, 0, _providerUserId, 0x0, 0) == true);\n        EventNewInvoice(_blockchainActionId, _providerUserId, _invoiceCountryCode, _invoiceCompanyNumber, _invoiceCompanyName, _invoiceNumber);\n    }\n\n    /**\n    BANK MODULE\n    */\n    // NON-CONSTANT METHODS\n    /// Ether to XAUP exchange between deposit contract and Populous.sol\n    function exchangeXAUP(\n        address _dataManager, bytes32 _blockchainActionId, \n        address erc20_tokenAddress, uint erc20_amount, uint xaup_amount, \n        uint _tokenId, bytes32 _clientId, address adminExternalWallet) \n        public \n        onlyServer\n    {    \n        DataManager dm = DataManager(_dataManager);\n        ERC1155 xa = ERC1155(tokenDetails[0x584155]._token);\n        // client deposit smart contract address\n        address _depositAddress = dm.getDepositAddress(_clientId);\n        require(\n            // check dataManager contract is valid\n            _dataManager != 0x0 &&\n            // check deposit address of client\n            _depositAddress != 0x0 && \n            // check xaup token address\n            // tokenDetails[0x584155]._token != 0x0 && \n            erc20_tokenAddress != 0x0 &&\n            // check action id is unused\n            dm.getActionStatus(_blockchainActionId) == false &&\n            // deposit contract version >= 2\n            DepositContract(_depositAddress).getVersion() >= 2 &&\n            // populous server xaup balance\n            xa.balanceOf(_tokenId, msg.sender) >= xaup_amount\n        );\n        // transfer erc20 token balance from clients deposit contract to server/admin\n        require(DepositContract(_depositAddress).transfer(erc20_tokenAddress, adminExternalWallet, erc20_amount) == true);\n        // transfer xaup tokens to clients deposit address from populous server allowance\n        xa.safeTransferFrom(msg.sender, _depositAddress, _tokenId, xaup_amount, \"\");\n        // set action status in dataManager\n        require(dm.setBlockchainActionData(_blockchainActionId, 0x0, erc20_amount, _clientId, _depositAddress, 0) == true);\n        // emit event \n        EventExchangeXAUp(_blockchainActionId, erc20_tokenAddress, erc20_amount, xaup_amount, _tokenId, _clientId, _depositAddress);\n    }\n\n    /// @notice Handle the receipt of an ERC1155 type\n    function onERC1155Received(address _operator, address _from, uint256 _id, uint256 _value, bytes _data) public returns(bytes4) {\n        return 0xf23a6e61;\n    }\n\n    /// @notice Handle the receipt of an ERC721 type\n    function onERC721Received(address _operator, address _from, uint256 _tokenId, bytes _data) public returns(bytes4) {\n        return 0x150b7a02; \n    }\n\n    // Creates a new 'depositAddress' gotten from deploying a deposit contract linked to a client ID\n    function createAddress(address _dataManager, bytes32 _blockchainActionId, bytes32 clientId) \n        public\n        onlyServer\n    {   \n        require(_dataManager != 0x0);\n        DataManager dm = DataManager(_dataManager);\n        DepositContract newDepositContract;\n        DepositContract dc;\n        if (dm.getDepositAddress(clientId) != 0x0) {\n            dc = DepositContract(dm.getDepositAddress(clientId));\n            newDepositContract = new DepositContract(clientId, AM);\n            require(!dc.call(bytes4(keccak256(\"getVersion()\"))) || dc.getVersion() <= 2);\n            //require(dc.getVersion() < 2);\n            address PXT = tokenDetails[0x505854]._token;\n            address PPT = tokenDetails[0x505054]._token;\n            \n            if(dc.balanceOf(PXT) > 0){\n                require(dc.transfer(PXT, newDepositContract, dc.balanceOf(PXT)) == true);\n            }\n            if(dc.balanceOf(PPT) > 0) {\n                require(dc.transfer(PPT, newDepositContract, dc.balanceOf(PPT)) == true);\n            }\n            require(dm._setDepositAddress(_blockchainActionId, clientId, newDepositContract) == true);\n            EventDepositAddressUpgrade(_blockchainActionId, address(dc), dm.getDepositAddress(clientId), clientId, newDepositContract.getVersion());\n        } else { \n            newDepositContract = new DepositContract(clientId, AM);\n            require(dm.setDepositAddress(_blockchainActionId, newDepositContract, clientId) == true);\n            require(dm.setBlockchainActionData(_blockchainActionId, 0x0, 0, clientId, dm.getDepositAddress(clientId), 0) == true);\n            EventNewDepositContract(_blockchainActionId, clientId, dm.getDepositAddress(clientId), newDepositContract.getVersion());\n        }\n    }\n\n    /** dev Import an amount of pokens of a particular currency from an ethereum wallet/address to bank\n      * param _blockchainActionId the blockchain action id\n      * param accountId the account id of the client\n      * param from the blockchain address to import pokens from\n      * param currency the poken currency\n      */\n    function withdrawPoken(\n        address _dataManager, bytes32 _blockchainActionId, \n        bytes32 currency, uint256 amount,\n        address from, address to, bytes32 accountId, \n        uint256 inCollateral,\n        uint256 pptFee, address adminExternalWallet) \n        public \n        onlyServer \n    {\n        require(_dataManager != 0x0);\n        //DataManager dm = DataManager(_dataManager);\n        require(DataManager(_dataManager).getActionStatus(_blockchainActionId) == false && DataManager(_dataManager).getDepositAddress(accountId) != 0x0);\n        require(adminExternalWallet != 0x0 && pptFee > 0 && amount > 0);\n        require(DataManager(_dataManager).getCurrency(currency) != 0x0);\n        DepositContract o = DepositContract(DataManager(_dataManager).getDepositAddress(accountId));\n        // check if pptbalance minus collateral held is more than pptFee then transfer pptFee from users ppt deposit to adminWallet\n        require(SafeMath.safeSub(o.balanceOf(tokenDetails[0x505054]._token), inCollateral) >= pptFee);\n        require(o.transfer(tokenDetails[0x505054]._token, adminExternalWallet, pptFee) == true);\n        // WITHDRAW PART / DEBIT\n        if(amount > CurrencyToken(DataManager(_dataManager).getCurrency(currency)).balanceOf(from)) {\n                // destroying total balance\n            require(CurrencyToken(DataManager(_dataManager).getCurrency(currency)).destroyTokensFrom(CurrencyToken(DataManager(_dataManager).getCurrency(currency)).balanceOf(from), from) == true);\n            //remaining ledger balance. deposit address is 0\n        } else {\n                // destroy amount from balance\n            require(CurrencyToken(DataManager(_dataManager).getCurrency(currency)).destroyTokensFrom(amount, from) == true);\n            //left over deposit address balance.\n        }\n        // TRANSFER PART / CREDIT\n        // approve currency amount for populous for the next require to pass\n        CurrencyToken(DataManager(_dataManager).getCurrency(currency)).transferFrom(msg.sender, to, amount);\n        require(DataManager(_dataManager).setBlockchainActionData(_blockchainActionId, currency, amount, accountId, to, pptFee) == true); \n        EventWithdrawPoken(_blockchainActionId, accountId, currency, amount);\n    }\n\n    /** @dev Withdraw an amount of PPT Populous tokens to a blockchain address \n      * @param _blockchainActionId the blockchain action id\n      * @param pptAddress the address of the PPT smart contract\n      * @param accountId the account id of the client\n      * @param pptFee the amount of fees to pay in PPT tokens\n      * @param adminExternalWallet the platform admin wallet address to pay the fees to \n      * @param to the blockchain address to withdraw and transfer the pokens to\n      * @param inCollateral the amount of pokens withheld by the platform\n      */    \n    function withdrawERC20(\n        address _dataManager, bytes32 _blockchainActionId, \n        address pptAddress, bytes32 accountId, \n        address to, uint256 amount, uint256 inCollateral, uint256 pptFee, address adminExternalWallet) \n        public \n        onlyServer \n    {   \n        require(_dataManager != 0x0);\n        //DataManager dm = DataManager(_dataManager);\n        require(DataManager(_dataManager).getActionStatus(_blockchainActionId) == false && DataManager(_dataManager).getDepositAddress(accountId) != 0x0);\n        require(adminExternalWallet != 0x0 && pptFee > 0 && amount > 0);\n        address depositContract = DataManager(_dataManager).getDepositAddress(accountId);\n        uint pptBalance = SafeMath.safeSub(DepositContract(depositContract).balanceOf(pptAddress), inCollateral);\n        require(pptBalance >= SafeMath.safeAdd(amount, pptFee));\n        require(DepositContract(depositContract).transfer(pptAddress, to, amount) == true);\n        require(DepositContract(depositContract).transfer(pptAddress, adminExternalWallet, pptFee) == true); \n        bytes32 tokenSymbol = iERC20Token(pptAddress).symbol();    \n        require(DataManager(_dataManager).setBlockchainActionData(_blockchainActionId, tokenSymbol, amount, accountId, to, pptFee) == true);\n        EventWithdrawPPT(_blockchainActionId, accountId, DataManager(_dataManager).getDepositAddress(accountId), to, amount);\n    }\n}",
  "sourcePath": "/Users/najienka/Desktop/populous-smartcontracts/contracts/Populous.sol",
  "schemaVersion": "1.0.0",
  "updatedAt": "2018-12-05T17:59:09.733Z"
}