{
  "contractName": "Populous",
  "abi": [
    {
      "constant": false,
      "inputs": [
        {
          "name": "_accessManager",
          "type": "address"
        }
      ],
      "name": "updateAccessManager",
      "outputs": [],
      "payable": false,
      "stateMutability": "nonpayable",
      "type": "function"
    },
    {
      "constant": true,
      "inputs": [
        {
          "name": "",
          "type": "bytes8"
        }
      ],
      "name": "tokenDetails",
      "outputs": [
        {
          "name": "_token",
          "type": "address"
        },
        {
          "name": "_precision",
          "type": "uint256"
        }
      ],
      "payable": false,
      "stateMutability": "view",
      "type": "function"
    },
    {
      "constant": true,
      "inputs": [],
      "name": "AM",
      "outputs": [
        {
          "name": "",
          "type": "address"
        }
      ],
      "payable": false,
      "stateMutability": "view",
      "type": "function"
    },
    {
      "inputs": [
        {
          "name": "_accessManager",
          "type": "address"
        }
      ],
      "payable": false,
      "stateMutability": "nonpayable",
      "type": "constructor"
    },
    {
      "anonymous": false,
      "inputs": [
        {
          "indexed": false,
          "name": "_blockchainActionId",
          "type": "bytes32"
        },
        {
          "indexed": false,
          "name": "erc20_tokenAddress",
          "type": "address"
        },
        {
          "indexed": false,
          "name": "erc20_amount",
          "type": "uint256"
        },
        {
          "indexed": false,
          "name": "xaup_amount",
          "type": "uint256"
        },
        {
          "indexed": false,
          "name": "_tokenId",
          "type": "uint256"
        },
        {
          "indexed": false,
          "name": "_clientId",
          "type": "bytes32"
        },
        {
          "indexed": false,
          "name": "_from",
          "type": "address"
        }
      ],
      "name": "EventExchangeXAUp",
      "type": "event"
    },
    {
      "anonymous": false,
      "inputs": [
        {
          "indexed": false,
          "name": "blockchainActionId",
          "type": "bytes32"
        },
        {
          "indexed": false,
          "name": "oldDepositContract",
          "type": "address"
        },
        {
          "indexed": false,
          "name": "newDepositContract",
          "type": "address"
        },
        {
          "indexed": false,
          "name": "clientId",
          "type": "bytes32"
        },
        {
          "indexed": false,
          "name": "version",
          "type": "uint256"
        }
      ],
      "name": "EventDepositAddressUpgrade",
      "type": "event"
    },
    {
      "anonymous": false,
      "inputs": [
        {
          "indexed": false,
          "name": "blockchainActionId",
          "type": "bytes32"
        },
        {
          "indexed": false,
          "name": "accountId",
          "type": "bytes32"
        },
        {
          "indexed": false,
          "name": "depositContract",
          "type": "address"
        },
        {
          "indexed": false,
          "name": "to",
          "type": "address"
        },
        {
          "indexed": false,
          "name": "amount",
          "type": "uint256"
        }
      ],
      "name": "EventWithdrawPPT",
      "type": "event"
    },
    {
      "anonymous": false,
      "inputs": [
        {
          "indexed": false,
          "name": "_blockchainActionId",
          "type": "bytes32"
        },
        {
          "indexed": false,
          "name": "accountId",
          "type": "bytes32"
        },
        {
          "indexed": false,
          "name": "currency",
          "type": "bytes32"
        },
        {
          "indexed": false,
          "name": "amount",
          "type": "uint256"
        }
      ],
      "name": "EventWithdrawPoken",
      "type": "event"
    },
    {
      "anonymous": false,
      "inputs": [
        {
          "indexed": false,
          "name": "blockchainActionId",
          "type": "bytes32"
        },
        {
          "indexed": false,
          "name": "clientId",
          "type": "bytes32"
        },
        {
          "indexed": false,
          "name": "depositContractAddress",
          "type": "address"
        },
        {
          "indexed": false,
          "name": "version",
          "type": "uint256"
        }
      ],
      "name": "EventNewDepositContract",
      "type": "event"
    },
    {
      "constant": false,
      "inputs": [
        {
          "name": "_dataManager",
          "type": "address"
        },
        {
          "name": "_blockchainActionId",
          "type": "bytes32"
        },
        {
          "name": "erc20_tokenAddress",
          "type": "address"
        },
        {
          "name": "erc20_amount",
          "type": "uint256"
        },
        {
          "name": "xaup_amount",
          "type": "uint256"
        },
        {
          "name": "_tokenId",
          "type": "uint256"
        },
        {
          "name": "_clientId",
          "type": "bytes32"
        },
        {
          "name": "adminExternalWallet",
          "type": "address"
        }
      ],
      "name": "exchangeXAUP",
      "outputs": [],
      "payable": false,
      "stateMutability": "nonpayable",
      "type": "function"
    },
    {
      "constant": false,
      "inputs": [
        {
          "name": "_operator",
          "type": "address"
        },
        {
          "name": "_from",
          "type": "address"
        },
        {
          "name": "_id",
          "type": "uint256"
        },
        {
          "name": "_value",
          "type": "uint256"
        },
        {
          "name": "_data",
          "type": "bytes"
        }
      ],
      "name": "onERC1155Received",
      "outputs": [
        {
          "name": "",
          "type": "bytes4"
        }
      ],
      "payable": false,
      "stateMutability": "nonpayable",
      "type": "function"
    },
    {
      "constant": false,
      "inputs": [
        {
          "name": "_operator",
          "type": "address"
        },
        {
          "name": "_from",
          "type": "address"
        },
        {
          "name": "_tokenId",
          "type": "uint256"
        },
        {
          "name": "_data",
          "type": "bytes"
        }
      ],
      "name": "onERC721Received",
      "outputs": [
        {
          "name": "",
          "type": "bytes4"
        }
      ],
      "payable": false,
      "stateMutability": "nonpayable",
      "type": "function"
    },
    {
      "constant": false,
      "inputs": [
        {
          "name": "_dataManager",
          "type": "address"
        },
        {
          "name": "_blockchainActionId",
          "type": "bytes32"
        },
        {
          "name": "clientId",
          "type": "bytes32"
        }
      ],
      "name": "createAddress",
      "outputs": [],
      "payable": false,
      "stateMutability": "nonpayable",
      "type": "function"
    },
    {
      "constant": false,
      "inputs": [
        {
          "name": "_dataManager",
          "type": "address"
        },
        {
          "name": "_blockchainActionId",
          "type": "bytes32"
        },
        {
          "name": "currency",
          "type": "bytes32"
        },
        {
          "name": "amount",
          "type": "uint256"
        },
        {
          "name": "from",
          "type": "address"
        },
        {
          "name": "to",
          "type": "address"
        },
        {
          "name": "accountId",
          "type": "bytes32"
        },
        {
          "name": "inCollateral",
          "type": "uint256"
        },
        {
          "name": "pptFee",
          "type": "uint256"
        },
        {
          "name": "adminExternalWallet",
          "type": "address"
        }
      ],
      "name": "withdrawPoken",
      "outputs": [],
      "payable": false,
      "stateMutability": "nonpayable",
      "type": "function"
    },
    {
      "constant": false,
      "inputs": [
        {
          "name": "_dataManager",
          "type": "address"
        },
        {
          "name": "_blockchainActionId",
          "type": "bytes32"
        },
        {
          "name": "pptAddress",
          "type": "address"
        },
        {
          "name": "accountId",
          "type": "bytes32"
        },
        {
          "name": "to",
          "type": "address"
        },
        {
          "name": "amount",
          "type": "uint256"
        },
        {
          "name": "inCollateral",
          "type": "uint256"
        },
        {
          "name": "pptFee",
          "type": "uint256"
        },
        {
          "name": "adminExternalWallet",
          "type": "address"
        }
      ],
      "name": "withdrawERC20",
      "outputs": [],
      "payable": false,
      "stateMutability": "nonpayable",
      "type": "function"
    },
    {
      "constant": false,
      "inputs": [
        {
          "name": "tokenName",
          "type": "bytes8"
        },
        {
          "name": "token",
          "type": "address"
        },
        {
          "name": "precision",
          "type": "uint256"
        }
      ],
      "name": "setTokenDetails",
      "outputs": [
        {
          "name": "success",
          "type": "bool"
        }
      ],
      "payable": false,
      "stateMutability": "nonpayable",
      "type": "function"
    },
    {
      "constant": true,
      "inputs": [
        {
          "name": "tokenName",
          "type": "bytes8"
        }
      ],
      "name": "getTokenDetails",
      "outputs": [
        {
          "name": "token",
          "type": "address"
        },
        {
          "name": "precision",
          "type": "uint256"
        }
      ],
      "payable": false,
      "stateMutability": "view",
      "type": "function"
    }
  ],
  "bytecode": "0x608060405234801561001057600080fd5b50604051602080615f128339810180604052810190808051906020019092919050505080806000806101000a81548173ffffffffffffffffffffffffffffffffffffffff021916908373ffffffffffffffffffffffffffffffffffffffff1602179055505050615e8d806100856000396000f3006080604052600436106100af576000357c0100000000000000000000000000000000000000000000000000000000900463ffffffff16806302ab72c4146100b4578063150b7a02146100f757806315e9a2aa146101fc57806319041ee2146102865780633c9c912e146103715780633da4138c146104005780635904243e146104dd578063878f666b1461059a578063a78caf1914610629578063f23a6e6114610688578063f7f01b4b14610797575b600080fd5b3480156100c057600080fd5b506100f5600480360381019080803573ffffffffffffffffffffffffffffffffffffffff1690602001909291905050506107ee565b005b34801561010357600080fd5b506101a8600480360381019080803573ffffffffffffffffffffffffffffffffffffffff169060200190929190803573ffffffffffffffffffffffffffffffffffffffff16906020019092919080359060200190929190803590602001908201803590602001908080601f016020809104026020016040519081016040528093929190818152602001838380828437820191505050505050919291929050505061093a565b60405180827bffffffffffffffffffffffffffffffffffffffffffffffffffffffff19167bffffffffffffffffffffffffffffffffffffffffffffffffffffffff1916815260200191505060405180910390f35b34801561020857600080fd5b5061026c600480360381019080803577ffffffffffffffffffffffffffffffffffffffffffffffff19169060200190929190803573ffffffffffffffffffffffffffffffffffffffff1690602001909291908035906020019092919050505061096a565b604051808215151515815260200191505060405180910390f35b34801561029257600080fd5b5061036f600480360381019080803573ffffffffffffffffffffffffffffffffffffffff1690602001909291908035600019169060200190929190803560001916906020019092919080359060200190929190803573ffffffffffffffffffffffffffffffffffffffff169060200190929190803573ffffffffffffffffffffffffffffffffffffffff16906020019092919080356000191690602001909291908035906020019092919080359060200190929190803573ffffffffffffffffffffffffffffffffffffffff169060200190929190505050610beb565b005b34801561037d57600080fd5b506103b7600480360381019080803577ffffffffffffffffffffffffffffffffffffffffffffffff19169060200190929190505050611d28565b604051808373ffffffffffffffffffffffffffffffffffffffff1673ffffffffffffffffffffffffffffffffffffffff1681526020018281526020019250505060405180910390f35b34801561040c57600080fd5b506104db600480360381019080803573ffffffffffffffffffffffffffffffffffffffff1690602001909291908035600019169060200190929190803573ffffffffffffffffffffffffffffffffffffffff1690602001909291908035600019169060200190929190803573ffffffffffffffffffffffffffffffffffffffff169060200190929190803590602001909291908035906020019092919080359060200190929190803573ffffffffffffffffffffffffffffffffffffffff169060200190929190505050611dee565b005b3480156104e957600080fd5b50610598600480360381019080803573ffffffffffffffffffffffffffffffffffffffff1690602001909291908035600019169060200190929190803573ffffffffffffffffffffffffffffffffffffffff1690602001909291908035906020019092919080359060200190929190803590602001909291908035600019169060200190929190803573ffffffffffffffffffffffffffffffffffffffff169060200190929190505050612834565b005b3480156105a657600080fd5b506105e0600480360381019080803577ffffffffffffffffffffffffffffffffffffffffffffffff19169060200190929190505050613160565b604051808373ffffffffffffffffffffffffffffffffffffffff1673ffffffffffffffffffffffffffffffffffffffff1681526020018281526020019250505060405180910390f35b34801561063557600080fd5b50610686600480360381019080803573ffffffffffffffffffffffffffffffffffffffff169060200190929190803560001916906020019092919080356000191690602001909291905050506131a4565b005b34801561069457600080fd5b50610743600480360381019080803573ffffffffffffffffffffffffffffffffffffffff169060200190929190803573ffffffffffffffffffffffffffffffffffffffff1690602001909291908035906020019092919080359060200190929190803590602001908201803590602001908080601f01602080910402602001604051908101604052809392919081815260200183838082843782019150505050505091929192905050506144b0565b60405180827bffffffffffffffffffffffffffffffffffffffffffffffffffffffff19167bffffffffffffffffffffffffffffffffffffffffffffffffffffffff1916815260200191505060405180910390f35b3480156107a357600080fd5b506107ac6144e1565b604051808273ffffffffffffffffffffffffffffffffffffffff1673ffffffffffffffffffffffffffffffffffffffff16815260200191505060405180910390f35b600115156000809054906101000a900473ffffffffffffffffffffffffffffffffffffffff1673ffffffffffffffffffffffffffffffffffffffff1663fda08958336040518263ffffffff167c0100000000000000000000000000000000000000000000000000000000028152600401808273ffffffffffffffffffffffffffffffffffffffff1673ffffffffffffffffffffffffffffffffffffffff168152602001915050602060405180830381600087803b1580156108ae57600080fd5b505af11580156108c2573d6000803e3d6000fd5b505050506040513d60208110156108d857600080fd5b810190808051906020019092919050505015151415156108f757600080fd5b806000806101000a81548173ffffffffffffffffffffffffffffffffffffffff021916908373ffffffffffffffffffffffffffffffffffffffff16021790555050565b600063150b7a027c0100000000000000000000000000000000000000000000000000000000029050949350505050565b6000600115156000809054906101000a900473ffffffffffffffffffffffffffffffffffffffff1673ffffffffffffffffffffffffffffffffffffffff1663fda08958336040518263ffffffff167c0100000000000000000000000000000000000000000000000000000000028152600401808273ffffffffffffffffffffffffffffffffffffffff1673ffffffffffffffffffffffffffffffffffffffff168152602001915050602060405180830381600087803b158015610a2c57600080fd5b505af1158015610a40573d6000803e3d6000fd5b505050506040513d6020811015610a5657600080fd5b81019080805190602001909291905050501515141515610a7557600080fd5b82600160008677ffffffffffffffffffffffffffffffffffffffffffffffff191677ffffffffffffffffffffffffffffffffffffffffffffffff1916815260200190815260200160002060000160006101000a81548173ffffffffffffffffffffffffffffffffffffffff021916908373ffffffffffffffffffffffffffffffffffffffff16021790555081600160008677ffffffffffffffffffffffffffffffffffffffffffffffff191677ffffffffffffffffffffffffffffffffffffffffffffffff19168152602001908152602001600020600101819055506000600160008677ffffffffffffffffffffffffffffffffffffffffffffffff191677ffffffffffffffffffffffffffffffffffffffffffffffff1916815260200190815260200160002060000160009054906101000a900473ffffffffffffffffffffffffffffffffffffffff1673ffffffffffffffffffffffffffffffffffffffff1614151515610be057fe5b600190509392505050565b6000600115156000809054906101000a900473ffffffffffffffffffffffffffffffffffffffff1673ffffffffffffffffffffffffffffffffffffffff1663fda08958336040518263ffffffff167c0100000000000000000000000000000000000000000000000000000000028152600401808273ffffffffffffffffffffffffffffffffffffffff1673ffffffffffffffffffffffffffffffffffffffff168152602001915050602060405180830381600087803b158015610cad57600080fd5b505af1158015610cc1573d6000803e3d6000fd5b505050506040513d6020811015610cd757600080fd5b81019080805190602001909291905050501515141515610cf657600080fd5b60008b73ffffffffffffffffffffffffffffffffffffffff1614151515610d1c57600080fd5b600015158b73ffffffffffffffffffffffffffffffffffffffff1663bea0897c8c6040518263ffffffff167c0100000000000000000000000000000000000000000000000000000000028152600401808260001916600019168152602001915050602060405180830381600087803b158015610d9757600080fd5b505af1158015610dab573d6000803e3d6000fd5b505050506040513d6020811015610dc157600080fd5b81019080805190602001909291905050501515148015610ea9575060008b73ffffffffffffffffffffffffffffffffffffffff16632a01a451876040518263ffffffff167c0100000000000000000000000000000000000000000000000000000000028152600401808260001916600019168152602001915050602060405180830381600087803b158015610e5557600080fd5b505af1158015610e69573d6000803e3d6000fd5b505050506040513d6020811015610e7f57600080fd5b810190808051906020019092919050505073ffffffffffffffffffffffffffffffffffffffff1614155b1515610eb457600080fd5b60008273ffffffffffffffffffffffffffffffffffffffff1614158015610edb5750600083115b8015610ee75750600088115b1515610ef257600080fd5b60008b73ffffffffffffffffffffffffffffffffffffffff1663d383b80d8b6040518263ffffffff167c0100000000000000000000000000000000000000000000000000000000028152600401808260001916600019168152602001915050602060405180830381600087803b158015610f6b57600080fd5b505af1158015610f7f573d6000803e3d6000fd5b505050506040513d6020811015610f9557600080fd5b810190808051906020019092919050505073ffffffffffffffffffffffffffffffffffffffff1614151515610fc957600080fd5b8a73ffffffffffffffffffffffffffffffffffffffff16632a01a451866040518263ffffffff167c0100000000000000000000000000000000000000000000000000000000028152600401808260001916600019168152602001915050602060405180830381600087803b15801561104057600080fd5b505af1158015611054573d6000803e3d6000fd5b505050506040513d602081101561106a57600080fd5b81019080805190602001909291905050509050826111cc8273ffffffffffffffffffffffffffffffffffffffff166370a08231600160006250505478010000000000000000000000000000000000000000000000000277ffffffffffffffffffffffffffffffffffffffffffffffff1916815260200190815260200160002060000160009054906101000a900473ffffffffffffffffffffffffffffffffffffffff166040518263ffffffff167c0100000000000000000000000000000000000000000000000000000000028152600401808273ffffffffffffffffffffffffffffffffffffffff1673ffffffffffffffffffffffffffffffffffffffff168152602001915050602060405180830381600087803b15801561118b57600080fd5b505af115801561119f573d6000803e3d6000fd5b505050506040513d60208110156111b557600080fd5b810190808051906020019092919050505086614506565b101515156111d957600080fd5b600115158173ffffffffffffffffffffffffffffffffffffffff1663beabacc8600160006250505478010000000000000000000000000000000000000000000000000277ffffffffffffffffffffffffffffffffffffffffffffffff1916815260200190815260200160002060000160009054906101000a900473ffffffffffffffffffffffffffffffffffffffff1685876040518463ffffffff167c0100000000000000000000000000000000000000000000000000000000028152600401808473ffffffffffffffffffffffffffffffffffffffff1673ffffffffffffffffffffffffffffffffffffffff1681526020018373ffffffffffffffffffffffffffffffffffffffff1673ffffffffffffffffffffffffffffffffffffffff1681526020018281526020019350505050602060405180830381600087803b15801561132357600080fd5b505af1158015611337573d6000803e3d6000fd5b505050506040513d602081101561134d57600080fd5b8101908080519060200190929190505050151514151561136c57600080fd5b8a73ffffffffffffffffffffffffffffffffffffffff1663d383b80d8a6040518263ffffffff167c0100000000000000000000000000000000000000000000000000000000028152600401808260001916600019168152602001915050602060405180830381600087803b1580156113e357600080fd5b505af11580156113f7573d6000803e3d6000fd5b505050506040513d602081101561140d57600080fd5b810190808051906020019092919050505073ffffffffffffffffffffffffffffffffffffffff166370a08231886040518263ffffffff167c0100000000000000000000000000000000000000000000000000000000028152600401808273ffffffffffffffffffffffffffffffffffffffff1673ffffffffffffffffffffffffffffffffffffffff168152602001915050602060405180830381600087803b1580156114b857600080fd5b505af11580156114cc573d6000803e3d6000fd5b505050506040513d60208110156114e257600080fd5b810190808051906020019092919050505088111561182657600115158b73ffffffffffffffffffffffffffffffffffffffff1663d383b80d8b6040518263ffffffff167c0100000000000000000000000000000000000000000000000000000000028152600401808260001916600019168152602001915050602060405180830381600087803b15801561157557600080fd5b505af1158015611589573d6000803e3d6000fd5b505050506040513d602081101561159f57600080fd5b810190808051906020019092919050505073ffffffffffffffffffffffffffffffffffffffff16630156b3238d73ffffffffffffffffffffffffffffffffffffffff1663d383b80d8d6040518263ffffffff167c0100000000000000000000000000000000000000000000000000000000028152600401808260001916600019168152602001915050602060405180830381600087803b15801561164257600080fd5b505af1158015611656573d6000803e3d6000fd5b505050506040513d602081101561166c57600080fd5b810190808051906020019092919050505073ffffffffffffffffffffffffffffffffffffffff166370a082318b6040518263ffffffff167c0100000000000000000000000000000000000000000000000000000000028152600401808273ffffffffffffffffffffffffffffffffffffffff1673ffffffffffffffffffffffffffffffffffffffff168152602001915050602060405180830381600087803b15801561171757600080fd5b505af115801561172b573d6000803e3d6000fd5b505050506040513d602081101561174157600080fd5b81019080805190602001909291905050508a6040518363ffffffff167c0100000000000000000000000000000000000000000000000000000000028152600401808381526020018273ffffffffffffffffffffffffffffffffffffffff1673ffffffffffffffffffffffffffffffffffffffff16815260200192505050602060405180830381600087803b1580156117d857600080fd5b505af11580156117ec573d6000803e3d6000fd5b505050506040513d602081101561180257600080fd5b8101908080519060200190929190505050151514151561182157600080fd5b6119c8565b600115158b73ffffffffffffffffffffffffffffffffffffffff1663d383b80d8b6040518263ffffffff167c0100000000000000000000000000000000000000000000000000000000028152600401808260001916600019168152602001915050602060405180830381600087803b1580156118a157600080fd5b505af11580156118b5573d6000803e3d6000fd5b505050506040513d60208110156118cb57600080fd5b810190808051906020019092919050505073ffffffffffffffffffffffffffffffffffffffff16630156b3238a8a6040518363ffffffff167c0100000000000000000000000000000000000000000000000000000000028152600401808381526020018273ffffffffffffffffffffffffffffffffffffffff1673ffffffffffffffffffffffffffffffffffffffff16815260200192505050602060405180830381600087803b15801561197e57600080fd5b505af1158015611992573d6000803e3d6000fd5b505050506040513d60208110156119a857600080fd5b810190808051906020019092919050505015151415156119c757600080fd5b5b8a73ffffffffffffffffffffffffffffffffffffffff1663d383b80d8a6040518263ffffffff167c0100000000000000000000000000000000000000000000000000000000028152600401808260001916600019168152602001915050602060405180830381600087803b158015611a3f57600080fd5b505af1158015611a53573d6000803e3d6000fd5b505050506040513d6020811015611a6957600080fd5b810190808051906020019092919050505073ffffffffffffffffffffffffffffffffffffffff166323b872dd33888b6040518463ffffffff167c0100000000000000000000000000000000000000000000000000000000028152600401808473ffffffffffffffffffffffffffffffffffffffff1673ffffffffffffffffffffffffffffffffffffffff1681526020018373ffffffffffffffffffffffffffffffffffffffff1673ffffffffffffffffffffffffffffffffffffffff1681526020018281526020019350505050602060405180830381600087803b158015611b5057600080fd5b505af1158015611b64573d6000803e3d6000fd5b505050506040513d6020811015611b7a57600080fd5b810190808051906020019092919050505050600115158b73ffffffffffffffffffffffffffffffffffffffff166392c4b8678c8c8c8a8c8a6040518763ffffffff167c0100000000000000000000000000000000000000000000000000000000028152600401808760001916600019168152602001866000191660001916815260200185815260200184600019166000191681526020018373ffffffffffffffffffffffffffffffffffffffff1673ffffffffffffffffffffffffffffffffffffffff1681526020018281526020019650505050505050602060405180830381600087803b158015611c6b57600080fd5b505af1158015611c7f573d6000803e3d6000fd5b505050506040513d6020811015611c9557600080fd5b81019080805190602001909291905050501515141515611cb457600080fd5b7f7ad4d17a5e7c561e98e5c4a65c9108011dda4b022882de21c25c530df0054a6c8a868b8b6040518085600019166000191681526020018460001916600019168152602001836000191660001916815260200182815260200194505050505060405180910390a15050505050505050505050565b600080600160008477ffffffffffffffffffffffffffffffffffffffffffffffff191677ffffffffffffffffffffffffffffffffffffffffffffffff1916815260200190815260200160002060000160009054906101000a900473ffffffffffffffffffffffffffffffffffffffff16600160008577ffffffffffffffffffffffffffffffffffffffffffffffff191677ffffffffffffffffffffffffffffffffffffffffffffffff191681526020019081526020016000206001015491509150915091565b6000806000600115156000809054906101000a900473ffffffffffffffffffffffffffffffffffffffff1673ffffffffffffffffffffffffffffffffffffffff1663fda08958336040518263ffffffff167c0100000000000000000000000000000000000000000000000000000000028152600401808273ffffffffffffffffffffffffffffffffffffffff1673ffffffffffffffffffffffffffffffffffffffff168152602001915050602060405180830381600087803b158015611eb357600080fd5b505af1158015611ec7573d6000803e3d6000fd5b505050506040513d6020811015611edd57600080fd5b81019080805190602001909291905050501515141515611efc57600080fd5b60008c73ffffffffffffffffffffffffffffffffffffffff1614151515611f2257600080fd5b600015158c73ffffffffffffffffffffffffffffffffffffffff1663bea0897c8d6040518263ffffffff167c0100000000000000000000000000000000000000000000000000000000028152600401808260001916600019168152602001915050602060405180830381600087803b158015611f9d57600080fd5b505af1158015611fb1573d6000803e3d6000fd5b505050506040513d6020811015611fc757600080fd5b810190808051906020019092919050505015151480156120af575060008c73ffffffffffffffffffffffffffffffffffffffff16632a01a4518b6040518263ffffffff167c0100000000000000000000000000000000000000000000000000000000028152600401808260001916600019168152602001915050602060405180830381600087803b15801561205b57600080fd5b505af115801561206f573d6000803e3d6000fd5b505050506040513d602081101561208557600080fd5b810190808051906020019092919050505073ffffffffffffffffffffffffffffffffffffffff1614155b15156120ba57600080fd5b60008473ffffffffffffffffffffffffffffffffffffffff16141580156120e15750600085115b80156120ed5750600087115b15156120f857600080fd5b8b73ffffffffffffffffffffffffffffffffffffffff16632a01a4518a6040518263ffffffff167c0100000000000000000000000000000000000000000000000000000000028152600401808260001916600019168152602001915050602060405180830381600087803b15801561216f57600080fd5b505af1158015612183573d6000803e3d6000fd5b505050506040513d602081101561219957600080fd5b8101908080519060200190929190505050925061228b8373ffffffffffffffffffffffffffffffffffffffff166370a082318c6040518263ffffffff167c0100000000000000000000000000000000000000000000000000000000028152600401808273ffffffffffffffffffffffffffffffffffffffff1673ffffffffffffffffffffffffffffffffffffffff168152602001915050602060405180830381600087803b15801561224a57600080fd5b505af115801561225e573d6000803e3d6000fd5b505050506040513d602081101561227457600080fd5b810190808051906020019092919050505087614506565b9150612297878661451f565b82101515156122a557600080fd5b600115158373ffffffffffffffffffffffffffffffffffffffff1663beabacc88c8b8b6040518463ffffffff167c0100000000000000000000000000000000000000000000000000000000028152600401808473ffffffffffffffffffffffffffffffffffffffff1673ffffffffffffffffffffffffffffffffffffffff1681526020018373ffffffffffffffffffffffffffffffffffffffff1673ffffffffffffffffffffffffffffffffffffffff1681526020018281526020019350505050602060405180830381600087803b15801561238057600080fd5b505af1158015612394573d6000803e3d6000fd5b505050506040513d60208110156123aa57600080fd5b810190808051906020019092919050505015151415156123c957600080fd5b600115158373ffffffffffffffffffffffffffffffffffffffff1663beabacc88c87896040518463ffffffff167c0100000000000000000000000000000000000000000000000000000000028152600401808473ffffffffffffffffffffffffffffffffffffffff1673ffffffffffffffffffffffffffffffffffffffff1681526020018373ffffffffffffffffffffffffffffffffffffffff1673ffffffffffffffffffffffffffffffffffffffff1681526020018281526020019350505050602060405180830381600087803b1580156124a457600080fd5b505af11580156124b8573d6000803e3d6000fd5b505050506040513d60208110156124ce57600080fd5b810190808051906020019092919050505015151415156124ed57600080fd5b8973ffffffffffffffffffffffffffffffffffffffff166395d89b416040518163ffffffff167c0100000000000000000000000000000000000000000000000000000000028152600401602060405180830381600087803b15801561255157600080fd5b505af1158015612565573d6000803e3d6000fd5b505050506040513d602081101561257b57600080fd5b81019080805190602001909291905050509050600115158c73ffffffffffffffffffffffffffffffffffffffff166392c4b8678d848b8e8e8c6040518763ffffffff167c0100000000000000000000000000000000000000000000000000000000028152600401808760001916600019168152602001866000191660001916815260200185815260200184600019166000191681526020018373ffffffffffffffffffffffffffffffffffffffff1673ffffffffffffffffffffffffffffffffffffffff1681526020018281526020019650505050505050602060405180830381600087803b15801561266d57600080fd5b505af1158015612681573d6000803e3d6000fd5b505050506040513d602081101561269757600080fd5b810190808051906020019092919050505015151415156126b657600080fd5b7fb34e83f654f4c047e331cea47cc1783dd0511abde3cac240a47bfbdefd6812e88b8a8e73ffffffffffffffffffffffffffffffffffffffff16632a01a4518d6040518263ffffffff167c0100000000000000000000000000000000000000000000000000000000028152600401808260001916600019168152602001915050602060405180830381600087803b15801561275057600080fd5b505af1158015612764573d6000803e3d6000fd5b505050506040513d602081101561277a57600080fd5b81019080805190602001909291905050508b8b60405180866000191660001916815260200185600019166000191681526020018473ffffffffffffffffffffffffffffffffffffffff1673ffffffffffffffffffffffffffffffffffffffff1681526020018373ffffffffffffffffffffffffffffffffffffffff1673ffffffffffffffffffffffffffffffffffffffff1681526020018281526020019550505050505060405180910390a1505050505050505050505050565b6000806000600115156000809054906101000a900473ffffffffffffffffffffffffffffffffffffffff1673ffffffffffffffffffffffffffffffffffffffff1663fda08958336040518263ffffffff167c0100000000000000000000000000000000000000000000000000000000028152600401808273ffffffffffffffffffffffffffffffffffffffff1673ffffffffffffffffffffffffffffffffffffffff168152602001915050602060405180830381600087803b1580156128f957600080fd5b505af115801561290d573d6000803e3d6000fd5b505050506040513d602081101561292357600080fd5b8101908080519060200190929190505050151514151561294257600080fd5b8a9250600160006258415578010000000000000000000000000000000000000000000000000277ffffffffffffffffffffffffffffffffffffffffffffffff1916815260200190815260200160002060000160009054906101000a900473ffffffffffffffffffffffffffffffffffffffff1691508273ffffffffffffffffffffffffffffffffffffffff16632a01a451866040518263ffffffff167c0100000000000000000000000000000000000000000000000000000000028152600401808260001916600019168152602001915050602060405180830381600087803b158015612a2e57600080fd5b505af1158015612a42573d6000803e3d6000fd5b505050506040513d6020811015612a5857600080fd5b8101908080519060200190929190505050905060008b73ffffffffffffffffffffffffffffffffffffffff1614158015612aa9575060008173ffffffffffffffffffffffffffffffffffffffff1614155b8015612acc575060008973ffffffffffffffffffffffffffffffffffffffff1614155b8015612b8d5750600015158373ffffffffffffffffffffffffffffffffffffffff1663bea0897c8c6040518263ffffffff167c0100000000000000000000000000000000000000000000000000000000028152600401808260001916600019168152602001915050602060405180830381600087803b158015612b4e57600080fd5b505af1158015612b62573d6000803e3d6000fd5b505050506040513d6020811015612b7857600080fd5b81019080805190602001909291905050501515145b8015612c38575060028173ffffffffffffffffffffffffffffffffffffffff16630d8e6e2c6040518163ffffffff167c0100000000000000000000000000000000000000000000000000000000028152600401602060405180830381600087803b158015612bfa57600080fd5b505af1158015612c0e573d6000803e3d6000fd5b505050506040513d6020811015612c2457600080fd5b810190808051906020019092919050505010155b8015612d215750868273ffffffffffffffffffffffffffffffffffffffff16633656eec288336040518363ffffffff167c0100000000000000000000000000000000000000000000000000000000028152600401808381526020018273ffffffffffffffffffffffffffffffffffffffff1673ffffffffffffffffffffffffffffffffffffffff16815260200192505050602060405180830381600087803b158015612ce357600080fd5b505af1158015612cf7573d6000803e3d6000fd5b505050506040513d6020811015612d0d57600080fd5b810190808051906020019092919050505010155b1515612d2c57600080fd5b600115158173ffffffffffffffffffffffffffffffffffffffff1663beabacc88b878c6040518463ffffffff167c0100000000000000000000000000000000000000000000000000000000028152600401808473ffffffffffffffffffffffffffffffffffffffff1673ffffffffffffffffffffffffffffffffffffffff1681526020018373ffffffffffffffffffffffffffffffffffffffff1673ffffffffffffffffffffffffffffffffffffffff1681526020018281526020019350505050602060405180830381600087803b158015612e0757600080fd5b505af1158015612e1b573d6000803e3d6000fd5b505050506040513d6020811015612e3157600080fd5b81019080805190602001909291905050501515141515612e5057600080fd5b8173ffffffffffffffffffffffffffffffffffffffff1663f242432a3383898b6040518563ffffffff167c0100000000000000000000000000000000000000000000000000000000028152600401808573ffffffffffffffffffffffffffffffffffffffff1673ffffffffffffffffffffffffffffffffffffffff1681526020018473ffffffffffffffffffffffffffffffffffffffff1673ffffffffffffffffffffffffffffffffffffffff1681526020018381526020018281526020018060200182810382526000815260200160200195505050505050600060405180830381600087803b158015612f4357600080fd5b505af1158015612f57573d6000803e3d6000fd5b50505050600115158373ffffffffffffffffffffffffffffffffffffffff166392c4b8678c60008c8a8760006040518763ffffffff167c01000000000000000000000000000000000000000000000000000000000281526004018087600019166000191681526020018660010260001916815260200185815260200184600019166000191681526020018373ffffffffffffffffffffffffffffffffffffffff1673ffffffffffffffffffffffffffffffffffffffff1681526020018281526020019650505050505050602060405180830381600087803b15801561303b57600080fd5b505af115801561304f573d6000803e3d6000fd5b505050506040513d602081101561306557600080fd5b8101908080519060200190929190505050151514151561308457600080fd5b7f3a0f94ac6dfce4f3ae7bdb44dc7ca27dfc76d4747283fbbea8cc33c59cc35afe8a8a8a8a8a8a876040518088600019166000191681526020018773ffffffffffffffffffffffffffffffffffffffff1673ffffffffffffffffffffffffffffffffffffffff16815260200186815260200185815260200184815260200183600019166000191681526020018273ffffffffffffffffffffffffffffffffffffffff1673ffffffffffffffffffffffffffffffffffffffff16815260200197505050505050505060405180910390a15050505050505050505050565b60016020528060005260406000206000915090508060000160009054906101000a900473ffffffffffffffffffffffffffffffffffffffff16908060010154905082565b6000806000806000600115156000809054906101000a900473ffffffffffffffffffffffffffffffffffffffff1673ffffffffffffffffffffffffffffffffffffffff1663fda08958336040518263ffffffff167c0100000000000000000000000000000000000000000000000000000000028152600401808273ffffffffffffffffffffffffffffffffffffffff1673ffffffffffffffffffffffffffffffffffffffff168152602001915050602060405180830381600087803b15801561326c57600080fd5b505af1158015613280573d6000803e3d6000fd5b505050506040513d602081101561329657600080fd5b810190808051906020019092919050505015151415156132b557600080fd5b60008873ffffffffffffffffffffffffffffffffffffffff16141515156132db57600080fd5b87945060008573ffffffffffffffffffffffffffffffffffffffff16632a01a451886040518263ffffffff167c0100000000000000000000000000000000000000000000000000000000028152600401808260001916600019168152602001915050602060405180830381600087803b15801561335757600080fd5b505af115801561336b573d6000803e3d6000fd5b505050506040513d602081101561338157600080fd5b810190808051906020019092919050505073ffffffffffffffffffffffffffffffffffffffff16141515613f5a578473ffffffffffffffffffffffffffffffffffffffff16632a01a451876040518263ffffffff167c0100000000000000000000000000000000000000000000000000000000028152600401808260001916600019168152602001915050602060405180830381600087803b15801561342657600080fd5b505af115801561343a573d6000803e3d6000fd5b505050506040513d602081101561345057600080fd5b81019080805190602001909291905050509250856000809054906101000a900473ffffffffffffffffffffffffffffffffffffffff1661348e614549565b8083600019166000191681526020018273ffffffffffffffffffffffffffffffffffffffff1673ffffffffffffffffffffffffffffffffffffffff16815260200192505050604051809103906000f0801580156134ef573d6000803e3d6000fd5b5093508273ffffffffffffffffffffffffffffffffffffffff1660405180807f67657456657273696f6e28290000000000000000000000000000000000000000815250600c01905060405180910390207c010000000000000000000000000000000000000000000000000000000090046040518163ffffffff167c01000000000000000000000000000000000000000000000000000000000281526004016000604051808303816000875af1925050501515156135ab57600080fd5b600160006250585478010000000000000000000000000000000000000000000000000277ffffffffffffffffffffffffffffffffffffffffffffffff1916815260200190815260200160002060000160009054906101000a900473ffffffffffffffffffffffffffffffffffffffff169150600160006250505478010000000000000000000000000000000000000000000000000277ffffffffffffffffffffffffffffffffffffffffffffffff1916815260200190815260200160002060000160009054906101000a900473ffffffffffffffffffffffffffffffffffffffff16905060008373ffffffffffffffffffffffffffffffffffffffff166370a08231846040518263ffffffff167c0100000000000000000000000000000000000000000000000000000000028152600401808273ffffffffffffffffffffffffffffffffffffffff1673ffffffffffffffffffffffffffffffffffffffff168152602001915050602060405180830381600087803b15801561372c57600080fd5b505af1158015613740573d6000803e3d6000fd5b505050506040513d602081101561375657600080fd5b8101908080519060200190929190505050111561396757600115158373ffffffffffffffffffffffffffffffffffffffff1663beabacc884878773ffffffffffffffffffffffffffffffffffffffff166370a08231886040518263ffffffff167c0100000000000000000000000000000000000000000000000000000000028152600401808273ffffffffffffffffffffffffffffffffffffffff1673ffffffffffffffffffffffffffffffffffffffff168152602001915050602060405180830381600087803b15801561382a57600080fd5b505af115801561383e573d6000803e3d6000fd5b505050506040513d602081101561385457600080fd5b81019080805190602001909291905050506040518463ffffffff167c0100000000000000000000000000000000000000000000000000000000028152600401808473ffffffffffffffffffffffffffffffffffffffff1673ffffffffffffffffffffffffffffffffffffffff1681526020018373ffffffffffffffffffffffffffffffffffffffff1673ffffffffffffffffffffffffffffffffffffffff1681526020018281526020019350505050602060405180830381600087803b15801561391d57600080fd5b505af1158015613931573d6000803e3d6000fd5b505050506040513d602081101561394757600080fd5b8101908080519060200190929190505050151514151561396657600080fd5b5b60008373ffffffffffffffffffffffffffffffffffffffff166370a08231836040518263ffffffff167c0100000000000000000000000000000000000000000000000000000000028152600401808273ffffffffffffffffffffffffffffffffffffffff1673ffffffffffffffffffffffffffffffffffffffff168152602001915050602060405180830381600087803b158015613a0457600080fd5b505af1158015613a18573d6000803e3d6000fd5b505050506040513d6020811015613a2e57600080fd5b81019080805190602001909291905050501115613c3f57600115158373ffffffffffffffffffffffffffffffffffffffff1663beabacc883878773ffffffffffffffffffffffffffffffffffffffff166370a08231876040518263ffffffff167c0100000000000000000000000000000000000000000000000000000000028152600401808273ffffffffffffffffffffffffffffffffffffffff1673ffffffffffffffffffffffffffffffffffffffff168152602001915050602060405180830381600087803b158015613b0257600080fd5b505af1158015613b16573d6000803e3d6000fd5b505050506040513d6020811015613b2c57600080fd5b81019080805190602001909291905050506040518463ffffffff167c0100000000000000000000000000000000000000000000000000000000028152600401808473ffffffffffffffffffffffffffffffffffffffff1673ffffffffffffffffffffffffffffffffffffffff1681526020018373ffffffffffffffffffffffffffffffffffffffff1673ffffffffffffffffffffffffffffffffffffffff1681526020018281526020019350505050602060405180830381600087803b158015613bf557600080fd5b505af1158015613c09573d6000803e3d6000fd5b505050506040513d6020811015613c1f57600080fd5b81019080805190602001909291905050501515141515613c3e57600080fd5b5b600115158573ffffffffffffffffffffffffffffffffffffffff1663c9939d0e8989886040518463ffffffff167c010000000000000000000000000000000000000000000000000000000002815260040180846000191660001916815260200183600019166000191681526020018273ffffffffffffffffffffffffffffffffffffffff1673ffffffffffffffffffffffffffffffffffffffff1681526020019350505050602060405180830381600087803b158015613cfe57600080fd5b505af1158015613d12573d6000803e3d6000fd5b505050506040513d6020811015613d2857600080fd5b81019080805190602001909291905050501515141515613d4757600080fd5b7f0456067687d27fcf6d3db141acb08cedd0fa786fdc7d672a7ed802514669b2e087848773ffffffffffffffffffffffffffffffffffffffff16632a01a4518a6040518263ffffffff167c0100000000000000000000000000000000000000000000000000000000028152600401808260001916600019168152602001915050602060405180830381600087803b158015613de157600080fd5b505af1158015613df5573d6000803e3d6000fd5b505050506040513d6020811015613e0b57600080fd5b8101908080519060200190929190505050898873ffffffffffffffffffffffffffffffffffffffff16630d8e6e2c6040518163ffffffff167c0100000000000000000000000000000000000000000000000000000000028152600401602060405180830381600087803b158015613e8157600080fd5b505af1158015613e95573d6000803e3d6000fd5b505050506040513d6020811015613eab57600080fd5b81019080805190602001909291905050506040518086600019166000191681526020018573ffffffffffffffffffffffffffffffffffffffff1673ffffffffffffffffffffffffffffffffffffffff1681526020018473ffffffffffffffffffffffffffffffffffffffff1673ffffffffffffffffffffffffffffffffffffffff16815260200183600019166000191681526020018281526020019550505050505060405180910390a16144a6565b856000809054906101000a900473ffffffffffffffffffffffffffffffffffffffff16613f85614549565b8083600019166000191681526020018273ffffffffffffffffffffffffffffffffffffffff1673ffffffffffffffffffffffffffffffffffffffff16815260200192505050604051809103906000f080158015613fe6573d6000803e3d6000fd5b509350600115158573ffffffffffffffffffffffffffffffffffffffff16630e8ba16789878a6040518463ffffffff167c01000000000000000000000000000000000000000000000000000000000281526004018084600019166000191681526020018373ffffffffffffffffffffffffffffffffffffffff1673ffffffffffffffffffffffffffffffffffffffff16815260200182600019166000191681526020019350505050602060405180830381600087803b1580156140a857600080fd5b505af11580156140bc573d6000803e3d6000fd5b505050506040513d60208110156140d257600080fd5b810190808051906020019092919050505015151415156140f157600080fd5b600115158573ffffffffffffffffffffffffffffffffffffffff166392c4b867896000808b8b73ffffffffffffffffffffffffffffffffffffffff16632a01a4518e6040518263ffffffff167c0100000000000000000000000000000000000000000000000000000000028152600401808260001916600019168152602001915050602060405180830381600087803b15801561418d57600080fd5b505af11580156141a1573d6000803e3d6000fd5b505050506040513d60208110156141b757600080fd5b810190808051906020019092919050505060006040518763ffffffff167c01000000000000000000000000000000000000000000000000000000000281526004018087600019166000191681526020018660010260001916815260200185815260200184600019166000191681526020018373ffffffffffffffffffffffffffffffffffffffff1673ffffffffffffffffffffffffffffffffffffffff1681526020018281526020019650505050505050602060405180830381600087803b15801561428257600080fd5b505af1158015614296573d6000803e3d6000fd5b505050506040513d60208110156142ac57600080fd5b810190808051906020019092919050505015151415156142cb57600080fd5b7f0fb3e865b3e3996382296fd8ddd17b0bb8ae5d9866b08a51945a2e58cac3073087878773ffffffffffffffffffffffffffffffffffffffff16632a01a4518a6040518263ffffffff167c0100000000000000000000000000000000000000000000000000000000028152600401808260001916600019168152602001915050602060405180830381600087803b15801561436557600080fd5b505af1158015614379573d6000803e3d6000fd5b505050506040513d602081101561438f57600080fd5b81019080805190602001909291905050508773ffffffffffffffffffffffffffffffffffffffff16630d8e6e2c6040518163ffffffff167c0100000000000000000000000000000000000000000000000000000000028152600401602060405180830381600087803b15801561440457600080fd5b505af1158015614418573d6000803e3d6000fd5b505050506040513d602081101561442e57600080fd5b810190808051906020019092919050505060405180856000191660001916815260200184600019166000191681526020018373ffffffffffffffffffffffffffffffffffffffff1673ffffffffffffffffffffffffffffffffffffffff16815260200182815260200194505050505060405180910390a15b5050505050505050565b600063f23a6e617c010000000000000000000000000000000000000000000000000000000002905095945050505050565b6000809054906101000a900473ffffffffffffffffffffffffffffffffffffffff1681565b600082821115151561451457fe5b818303905092915050565b60008082840190508381101580156145375750828110155b151561453f57fe5b8091505092915050565b6040516119088061455a83390190560060806040526002805534801561001457600080fd5b50604051604080611908833981018060405281019080805190602001909291908051906020019092919050505080806000806101000a81548173ffffffffffffffffffffffffffffffffffffffff021916908373ffffffffffffffffffffffffffffffffffffffff16021790555050816001816000191690555050506118698061009f6000396000f3006080604052600436106100db576000357c0100000000000000000000000000000000000000000000000000000000900463ffffffff16806302ab72c4146100e057806305b1137b146101235780630a7e880c146101885780630d8e6e2c14610217578063150b7a02146102425780631aca637614610347578063418ae269146103cc578063468f26221461042d578063527fe4131461048457806354fd4d50146104b75780636bb3471a146104e257806370a0823114610515578063beabacc81461056c578063f23a6e61146105f1578063f7f01b4b14610700575b600080fd5b3480156100ec57600080fd5b50610121600480360381019080803573ffffffffffffffffffffffffffffffffffffffff169060200190929190505050610757565b005b34801561012f57600080fd5b5061016e600480360381019080803573ffffffffffffffffffffffffffffffffffffffff169060200190929190803590602001909291905050506108a3565b604051808215151515815260200191505060405180910390f35b34801561019457600080fd5b506101fd600480360381019080803573ffffffffffffffffffffffffffffffffffffffff169060200190929190803573ffffffffffffffffffffffffffffffffffffffff1690602001909291908035906020019092919080359060200190929190505050610b95565b604051808215151515815260200191505060405180910390f35b34801561022357600080fd5b5061022c610e88565b6040518082815260200191505060405180910390f35b34801561024e57600080fd5b506102f3600480360381019080803573ffffffffffffffffffffffffffffffffffffffff169060200190929190803573ffffffffffffffffffffffffffffffffffffffff16906020019092919080359060200190929190803590602001908201803590602001908080601f0160208091040260200160405190810160405280939291908181526020018383808284378201915050505050509192919290505050610e92565b60405180827bffffffffffffffffffffffffffffffffffffffffffffffffffffffff19167bffffffffffffffffffffffffffffffffffffffffffffffffffffffff1916815260200191505060405180910390f35b34801561035357600080fd5b506103b2600480360381019080803573ffffffffffffffffffffffffffffffffffffffff169060200190929190803573ffffffffffffffffffffffffffffffffffffffff16906020019092919080359060200190929190505050610ec2565b604051808215151515815260200191505060405180910390f35b3480156103d857600080fd5b50610417600480360381019080803573ffffffffffffffffffffffffffffffffffffffff169060200190929190803590602001909291905050506111e0565b6040518082815260200191505060405180910390f35b34801561043957600080fd5b5061046e600480360381019080803573ffffffffffffffffffffffffffffffffffffffff1690602001909291905050506112c8565b6040518082815260200191505060405180910390f35b34801561049057600080fd5b506104996113a7565b60405180826000191660001916815260200191505060405180910390f35b3480156104c357600080fd5b506104cc6113b1565b6040518082815260200191505060405180910390f35b3480156104ee57600080fd5b506104f76113b7565b60405180826000191660001916815260200191505060405180910390f35b34801561052157600080fd5b50610556600480360381019080803573ffffffffffffffffffffffffffffffffffffffff1690602001909291905050506113bd565b6040518082815260200191505060405180910390f35b34801561057857600080fd5b506105d7600480360381019080803573ffffffffffffffffffffffffffffffffffffffff169060200190929190803573ffffffffffffffffffffffffffffffffffffffff169060200190929190803590602001909291905050506114f0565b604051808215151515815260200191505060405180910390f35b3480156105fd57600080fd5b506106ac600480360381019080803573ffffffffffffffffffffffffffffffffffffffff169060200190929190803573ffffffffffffffffffffffffffffffffffffffff1690602001909291908035906020019092919080359060200190929190803590602001908201803590602001908080601f01602080910402602001604051908101604052809392919081815260200183838082843782019150505050505091929192905050506117e7565b60405180827bffffffffffffffffffffffffffffffffffffffffffffffffffffffff19167bffffffffffffffffffffffffffffffffffffffffffffffffffffffff1916815260200191505060405180910390f35b34801561070c57600080fd5b50610715611818565b604051808273ffffffffffffffffffffffffffffffffffffffff1673ffffffffffffffffffffffffffffffffffffffff16815260200191505060405180910390f35b600115156000809054906101000a900473ffffffffffffffffffffffffffffffffffffffff1673ffffffffffffffffffffffffffffffffffffffff1663fda08958336040518263ffffffff167c0100000000000000000000000000000000000000000000000000000000028152600401808273ffffffffffffffffffffffffffffffffffffffff1673ffffffffffffffffffffffffffffffffffffffff168152602001915050602060405180830381600087803b15801561081757600080fd5b505af115801561082b573d6000803e3d6000fd5b505050506040513d602081101561084157600080fd5b8101908080519060200190929190505050151514151561086057600080fd5b806000806101000a81548173ffffffffffffffffffffffffffffffffffffffff021916908373ffffffffffffffffffffffffffffffffffffffff16021790555050565b6000600115156000809054906101000a900473ffffffffffffffffffffffffffffffffffffffff1673ffffffffffffffffffffffffffffffffffffffff1663fda08958336040518263ffffffff167c0100000000000000000000000000000000000000000000000000000000028152600401808273ffffffffffffffffffffffffffffffffffffffff1673ffffffffffffffffffffffffffffffffffffffff168152602001915050602060405180830381600087803b15801561096557600080fd5b505af1158015610979573d6000803e3d6000fd5b505050506040513d602081101561098f57600080fd5b810190808051906020019092919050505015151480610aa85750600115156000809054906101000a900473ffffffffffffffffffffffffffffffffffffffff1673ffffffffffffffffffffffffffffffffffffffff166305fd22d0336040518263ffffffff167c0100000000000000000000000000000000000000000000000000000000028152600401808273ffffffffffffffffffffffffffffffffffffffff1673ffffffffffffffffffffffffffffffffffffffff168152602001915050602060405180830381600087803b158015610a6957600080fd5b505af1158015610a7d573d6000803e3d6000fd5b505050506040513d6020811015610a9357600080fd5b81019080805190602001909291905050501515145b1515610ab357600080fd5b813073ffffffffffffffffffffffffffffffffffffffff163110151515610ad957600080fd5b600115158373ffffffffffffffffffffffffffffffffffffffff166108fc849081150290604051600060405180830381858888f193505050501515141515610b2057600080fd5b7f1853ca9dc0208799379313b2b43364e45db022f073c72648fbc206dc0bacbcdc8383604051808373ffffffffffffffffffffffffffffffffffffffff1673ffffffffffffffffffffffffffffffffffffffff1681526020018281526020019250505060405180910390a16001905092915050565b6000600115156000809054906101000a900473ffffffffffffffffffffffffffffffffffffffff1673ffffffffffffffffffffffffffffffffffffffff1663fda08958336040518263ffffffff167c0100000000000000000000000000000000000000000000000000000000028152600401808273ffffffffffffffffffffffffffffffffffffffff1673ffffffffffffffffffffffffffffffffffffffff168152602001915050602060405180830381600087803b158015610c5757600080fd5b505af1158015610c6b573d6000803e3d6000fd5b505050506040513d6020811015610c8157600080fd5b810190808051906020019092919050505015151480610d9a5750600115156000809054906101000a900473ffffffffffffffffffffffffffffffffffffffff1673ffffffffffffffffffffffffffffffffffffffff166305fd22d0336040518263ffffffff167c0100000000000000000000000000000000000000000000000000000000028152600401808273ffffffffffffffffffffffffffffffffffffffff1673ffffffffffffffffffffffffffffffffffffffff168152602001915050602060405180830381600087803b158015610d5b57600080fd5b505af1158015610d6f573d6000803e3d6000fd5b505050506040513d6020811015610d8557600080fd5b81019080805190602001909291905050501515145b1515610da557600080fd5b8473ffffffffffffffffffffffffffffffffffffffff1663ae28b68c8585856040518463ffffffff167c0100000000000000000000000000000000000000000000000000000000028152600401808473ffffffffffffffffffffffffffffffffffffffff1673ffffffffffffffffffffffffffffffffffffffff16815260200183815260200182815260200180602001828103825260008152602001602001945050505050600060405180830381600087803b158015610e6457600080fd5b505af1158015610e78573d6000803e3d6000fd5b5050505060019050949350505050565b6000600254905090565b600063150b7a027c0100000000000000000000000000000000000000000000000000000000029050949350505050565b6000600115156000809054906101000a900473ffffffffffffffffffffffffffffffffffffffff1673ffffffffffffffffffffffffffffffffffffffff1663fda08958336040518263ffffffff167c0100000000000000000000000000000000000000000000000000000000028152600401808273ffffffffffffffffffffffffffffffffffffffff1673ffffffffffffffffffffffffffffffffffffffff168152602001915050602060405180830381600087803b158015610f8457600080fd5b505af1158015610f98573d6000803e3d6000fd5b505050506040513d6020811015610fae57600080fd5b8101908080519060200190929190505050151514806110c75750600115156000809054906101000a900473ffffffffffffffffffffffffffffffffffffffff1673ffffffffffffffffffffffffffffffffffffffff166305fd22d0336040518263ffffffff167c0100000000000000000000000000000000000000000000000000000000028152600401808273ffffffffffffffffffffffffffffffffffffffff1673ffffffffffffffffffffffffffffffffffffffff168152602001915050602060405180830381600087803b15801561108857600080fd5b505af115801561109c573d6000803e3d6000fd5b505050506040513d60208110156110b257600080fd5b81019080805190602001909291905050501515145b15156110d257600080fd5b8373ffffffffffffffffffffffffffffffffffffffff1663b88d4fde3085856040518463ffffffff167c0100000000000000000000000000000000000000000000000000000000028152600401808473ffffffffffffffffffffffffffffffffffffffff1673ffffffffffffffffffffffffffffffffffffffff1681526020018373ffffffffffffffffffffffffffffffffffffffff1673ffffffffffffffffffffffffffffffffffffffff16815260200182815260200180602001828103825260008152602001602001945050505050600060405180830381600087803b1580156111bd57600080fd5b505af11580156111d1573d6000803e3d6000fd5b50505050600190509392505050565b60008273ffffffffffffffffffffffffffffffffffffffff16633656eec283306040518363ffffffff167c0100000000000000000000000000000000000000000000000000000000028152600401808381526020018273ffffffffffffffffffffffffffffffffffffffff1673ffffffffffffffffffffffffffffffffffffffff16815260200192505050602060405180830381600087803b15801561128557600080fd5b505af1158015611299573d6000803e3d6000fd5b505050506040513d60208110156112af57600080fd5b8101908080519060200190929190505050905092915050565b60008173ffffffffffffffffffffffffffffffffffffffff166370a08231306040518263ffffffff167c0100000000000000000000000000000000000000000000000000000000028152600401808273ffffffffffffffffffffffffffffffffffffffff1673ffffffffffffffffffffffffffffffffffffffff168152602001915050602060405180830381600087803b15801561136557600080fd5b505af1158015611379573d6000803e3d6000fd5b505050506040513d602081101561138f57600080fd5b81019080805190602001909291905050509050919050565b6000600154905090565b60025481565b60015481565b60008073ffffffffffffffffffffffffffffffffffffffff168273ffffffffffffffffffffffffffffffffffffffff161415611412573073ffffffffffffffffffffffffffffffffffffffff163190506114eb565b8173ffffffffffffffffffffffffffffffffffffffff166370a08231306040518263ffffffff167c0100000000000000000000000000000000000000000000000000000000028152600401808273ffffffffffffffffffffffffffffffffffffffff1673ffffffffffffffffffffffffffffffffffffffff168152602001915050602060405180830381600087803b1580156114ad57600080fd5b505af11580156114c1573d6000803e3d6000fd5b505050506040513d60208110156114d757600080fd5b810190808051906020019092919050505090505b919050565b6000600115156000809054906101000a900473ffffffffffffffffffffffffffffffffffffffff1673ffffffffffffffffffffffffffffffffffffffff1663fda08958336040518263ffffffff167c0100000000000000000000000000000000000000000000000000000000028152600401808273ffffffffffffffffffffffffffffffffffffffff1673ffffffffffffffffffffffffffffffffffffffff168152602001915050602060405180830381600087803b1580156115b257600080fd5b505af11580156115c6573d6000803e3d6000fd5b505050506040513d60208110156115dc57600080fd5b8101908080519060200190929190505050151514806116f55750600115156000809054906101000a900473ffffffffffffffffffffffffffffffffffffffff1673ffffffffffffffffffffffffffffffffffffffff166305fd22d0336040518263ffffffff167c0100000000000000000000000000000000000000000000000000000000028152600401808273ffffffffffffffffffffffffffffffffffffffff1673ffffffffffffffffffffffffffffffffffffffff168152602001915050602060405180830381600087803b1580156116b657600080fd5b505af11580156116ca573d6000803e3d6000fd5b505050506040513d60208110156116e057600080fd5b81019080805190602001909291905050501515145b151561170057600080fd5b8373ffffffffffffffffffffffffffffffffffffffff1663a9059cbb84846040518363ffffffff167c0100000000000000000000000000000000000000000000000000000000028152600401808373ffffffffffffffffffffffffffffffffffffffff1673ffffffffffffffffffffffffffffffffffffffff16815260200182815260200192505050602060405180830381600087803b1580156117a357600080fd5b505af11580156117b7573d6000803e3d6000fd5b505050506040513d60208110156117cd57600080fd5b810190808051906020019092919050505090509392505050565b600063f23a6e617c010000000000000000000000000000000000000000000000000000000002905095945050505050565b6000809054906101000a900473ffffffffffffffffffffffffffffffffffffffff16815600a165627a7a72305820a55adf4ed3e842779a65f50501da35eb07d9a2030c804e6de05e37fad93efaea0029a165627a7a723058205bf09cc01acf4ae28cc6b15ed849ce0bdb3bc3a13177ec607dcbf52a38e8be900029",
  "source": "pragma solidity ^0.4.17;\n/**\nThis is the core module of the system. Currently it holds the code of\nthe Bank and crowdsale modules to avoid external calls and higher gas costs.\nIt might be a good idea in the future to split the code, separate Bank\nand crowdsale modules into external files and have the core interact with them\nwith addresses and interfaces. \n*/\nimport \"./iERC20Token.sol\";\nimport \"./CurrencyToken.sol\";\nimport \"./DepositContract.sol\";\nimport \"./SafeMath.sol\";\nimport \"./DataManager.sol\";\nimport \"./ERC1155.sol\";\nimport \"./withAccessManager.sol\";\n\n/// @title Populous contract\ncontract Populous is withAccessManager {\n    // EVENTS\n    // Bank events\n    event EventExchangeXAUp (bytes32 _blockchainActionId, address erc20_tokenAddress, uint256 erc20_amount, uint256 xaup_amount, uint256 _tokenId, bytes32 _clientId, address _from);\n    event EventDepositAddressUpgrade(bytes32 blockchainActionId, address oldDepositContract, address newDepositContract, bytes32 clientId, uint256 version);\n    event EventWithdrawPPT(bytes32 blockchainActionId, bytes32 accountId, address depositContract, address to, uint amount);\n    event EventWithdrawPoken(bytes32 _blockchainActionId, bytes32 accountId, bytes32 currency, uint amount);\n    event EventNewDepositContract(bytes32 blockchainActionId, bytes32 clientId, address depositContractAddress, uint256 version);\n    // FIELDS\n    struct tokens {   \n        address _token;\n        uint256 _precision;\n    }\n    mapping(bytes8 => tokens) public tokenDetails;\n\n    // NON-CONSTANT METHODS\n    // Constructor method called when contract instance is \n    // deployed with 'withAccessManager' modifier.\n    function Populous(address _accessManager) public withAccessManager(_accessManager) {\n\n    }\n    /**\n    BANK MODULE\n    */\n    // NON-CONSTANT METHODS\n    /// Ether to XAUP exchange between deposit contract and Populous.sol\n    function exchangeXAUP(\n        address _dataManager, bytes32 _blockchainActionId, \n        address erc20_tokenAddress, uint erc20_amount, uint xaup_amount, \n        uint _tokenId, bytes32 _clientId, address adminExternalWallet) \n        public \n        onlyServer\n    {    \n        DataManager dm = DataManager(_dataManager);\n        ERC1155 xa = ERC1155(tokenDetails[0x584155]._token);\n        // client deposit smart contract address\n        address _depositAddress = dm.getDepositAddress(_clientId);\n        require(\n            // check dataManager contract is valid\n            _dataManager != 0x0 &&\n            // check deposit address of client\n            _depositAddress != 0x0 && \n            // check xaup token address\n            // tokenDetails[0x584155]._token != 0x0 && \n            erc20_tokenAddress != 0x0 &&\n            // check action id is unused\n            dm.getActionStatus(_blockchainActionId) == false &&\n            // deposit contract version >= 2\n            DepositContract(_depositAddress).getVersion() >= 2 &&\n            // populous server xaup balance\n            xa.balanceOf(_tokenId, msg.sender) >= xaup_amount\n        );\n        // transfer erc20 token balance from clients deposit contract to server/admin\n        require(DepositContract(_depositAddress).transfer(erc20_tokenAddress, adminExternalWallet, erc20_amount) == true);\n        // transfer xaup tokens to clients deposit address from populous server allowance\n        xa.safeTransferFrom(msg.sender, _depositAddress, _tokenId, xaup_amount, \"\");\n        // set action status in dataManager\n        require(dm.setBlockchainActionData(_blockchainActionId, 0x0, erc20_amount, _clientId, _depositAddress, 0) == true);\n        // emit event \n        EventExchangeXAUp(_blockchainActionId, erc20_tokenAddress, erc20_amount, xaup_amount, _tokenId, _clientId, _depositAddress);\n    }\n\n    /// @notice Handle the receipt of an ERC1155 type\n    function onERC1155Received(address _operator, address _from, uint256 _id, uint256 _value, bytes _data) public returns(bytes4) {\n        return 0xf23a6e61;\n    }\n\n    /// @notice Handle the receipt of an ERC721 type\n    function onERC721Received(address _operator, address _from, uint256 _tokenId, bytes _data) public returns(bytes4) {\n        return 0x150b7a02; \n    }\n\n    // Creates a new 'depositAddress' gotten from deploying a deposit contract linked to a client ID\n    function createAddress(address _dataManager, bytes32 _blockchainActionId, bytes32 clientId) \n        public\n        onlyServer\n    {   \n        require(_dataManager != 0x0);\n        DataManager dm = DataManager(_dataManager);\n        DepositContract newDepositContract;\n        DepositContract dc;\n        if (dm.getDepositAddress(clientId) != 0x0) {\n            dc = DepositContract(dm.getDepositAddress(clientId));\n            newDepositContract = new DepositContract(clientId, AM);\n            require(!dc.call(bytes4(keccak256(\"getVersion()\"))));\n            //require(dc.getVersion() < 2);\n            address PXT = tokenDetails[0x505854]._token;\n            address PPT = tokenDetails[0x505054]._token;\n            if(dc.balanceOf(PXT) > 0){\n                require(dc.transfer(PXT, newDepositContract, dc.balanceOf(PXT)) == true);\n            }\n            if(dc.balanceOf(PPT) > 0) {\n                require(dc.transfer(PPT, newDepositContract, dc.balanceOf(PPT)) == true);\n            }\n            require(dm._setDepositAddress(_blockchainActionId, clientId, newDepositContract) == true);\n            EventDepositAddressUpgrade(_blockchainActionId, address(dc), dm.getDepositAddress(clientId), clientId, newDepositContract.getVersion());\n        } else { \n            newDepositContract = new DepositContract(clientId, AM);\n            require(dm.setDepositAddress(_blockchainActionId, newDepositContract, clientId) == true);\n            require(dm.setBlockchainActionData(_blockchainActionId, 0x0, 0, clientId, dm.getDepositAddress(clientId), 0) == true);\n            EventNewDepositContract(_blockchainActionId, clientId, dm.getDepositAddress(clientId), newDepositContract.getVersion());\n        }\n    }\n\n    /** dev Import an amount of pokens of a particular currency from an ethereum wallet/address to bank\n      * param _blockchainActionId the blockchain action id\n      * param accountId the account id of the client\n      * param from the blockchain address to import pokens from\n      * param currency the poken currency\n      */\n    function withdrawPoken(\n        address _dataManager, bytes32 _blockchainActionId, \n        bytes32 currency, uint256 amount,\n        address from, address to, bytes32 accountId, \n        uint256 inCollateral,\n        uint256 pptFee, address adminExternalWallet) \n        public \n        onlyServer \n    {\n        require(_dataManager != 0x0);\n        //DataManager dm = DataManager(_dataManager);\n        require(DataManager(_dataManager).getActionStatus(_blockchainActionId) == false && DataManager(_dataManager).getDepositAddress(accountId) != 0x0);\n        require(adminExternalWallet != 0x0 && pptFee > 0 && amount > 0);\n        require(DataManager(_dataManager).getCurrency(currency) != 0x0);\n        DepositContract o = DepositContract(DataManager(_dataManager).getDepositAddress(accountId));\n        // check if pptbalance minus collateral held is more than pptFee then transfer pptFee from users ppt deposit to adminWallet\n        require(SafeMath.safeSub(o.balanceOf(tokenDetails[0x505054]._token), inCollateral) >= pptFee);\n        require(o.transfer(tokenDetails[0x505054]._token, adminExternalWallet, pptFee) == true);\n        // WITHDRAW PART / DEBIT\n        if(amount > CurrencyToken(DataManager(_dataManager).getCurrency(currency)).balanceOf(from)) {\n                // destroying total balance\n            require(CurrencyToken(DataManager(_dataManager).getCurrency(currency)).destroyTokensFrom(CurrencyToken(DataManager(_dataManager).getCurrency(currency)).balanceOf(from), from) == true);\n            //remaining ledger balance. deposit address is 0\n        } else {\n                // destroy amount from balance\n            require(CurrencyToken(DataManager(_dataManager).getCurrency(currency)).destroyTokensFrom(amount, from) == true);\n            //left over deposit address balance.\n        }\n        // TRANSFER PART / CREDIT\n        // approve currency amount for populous for the next require to pass\n        CurrencyToken(DataManager(_dataManager).getCurrency(currency)).transferFrom(msg.sender, to, amount);\n        require(DataManager(_dataManager).setBlockchainActionData(_blockchainActionId, currency, amount, accountId, to, pptFee) == true); \n        EventWithdrawPoken(_blockchainActionId, accountId, currency, amount);\n    }\n\n    /** @dev Withdraw an amount of PPT Populous tokens to a blockchain address \n      * @param _blockchainActionId the blockchain action id\n      * @param pptAddress the address of the PPT smart contract\n      * @param accountId the account id of the client\n      * @param pptFee the amount of fees to pay in PPT tokens\n      * @param adminExternalWallet the platform admin wallet address to pay the fees to \n      * @param to the blockchain address to withdraw and transfer the pokens to\n      * @param inCollateral the amount of pokens withheld by the platform\n      */    \n    function withdrawERC20(\n        address _dataManager, bytes32 _blockchainActionId, \n        address pptAddress, bytes32 accountId, \n        address to, uint256 amount, uint256 inCollateral, uint256 pptFee, address adminExternalWallet) \n        public \n        onlyServer \n    {   \n        require(_dataManager != 0x0);\n        //DataManager dm = DataManager(_dataManager);\n        require(DataManager(_dataManager).getActionStatus(_blockchainActionId) == false && DataManager(_dataManager).getDepositAddress(accountId) != 0x0);\n        require(adminExternalWallet != 0x0 && pptFee > 0 && amount > 0);\n        address depositContract = DataManager(_dataManager).getDepositAddress(accountId);\n        uint pptBalance = SafeMath.safeSub(DepositContract(depositContract).balanceOf(pptAddress), inCollateral);\n        require(pptBalance >= SafeMath.safeAdd(amount, pptFee));\n        require(DepositContract(depositContract).transfer(pptAddress, to, amount) == true);\n        require(DepositContract(depositContract).transfer(pptAddress, adminExternalWallet, pptFee) == true); \n        bytes32 tokenSymbol = iERC20Token(pptAddress).symbol();    \n        require(DataManager(_dataManager).setBlockchainActionData(_blockchainActionId, tokenSymbol, amount, accountId, to, pptFee) == true);\n        EventWithdrawPPT(_blockchainActionId, accountId, DataManager(_dataManager).getDepositAddress(accountId), to, amount);\n    }\n    \n    // Set/Update token address and precision\n    function setTokenDetails(bytes8 tokenName, address token, uint256 precision) \n        public \n        onlyServer \n        returns(bool success) \n    {\n        tokenDetails[tokenName]._token = token;\n        tokenDetails[tokenName]._precision = precision;\n        assert(tokenDetails[tokenName]._token != 0x0);\n        return true;\n    }\n\n    // CONSTANT METHODS\n    function getTokenDetails(bytes8 tokenName) public view returns (address token, uint256 precision) {\n        return (tokenDetails[tokenName]._token, tokenDetails[tokenName]._precision);\n    }\n}",
  "sourcePath": "/Users/wisdom/Documents/GitHub/populous-smartcontracts/contracts/Populous.sol",
  "schemaVersion": "1.0.0",
  "updatedAt": "2018-11-16T15:32:21.138Z"
}