{
  "contractName": "Populous",
  "abi": [
    {
      "constant": false,
      "inputs": [
        {
          "name": "_accessManager",
          "type": "address"
        }
      ],
      "name": "updateAccessManager",
      "outputs": [],
      "payable": false,
      "stateMutability": "nonpayable",
      "type": "function"
    },
    {
      "constant": true,
      "inputs": [],
      "name": "AM",
      "outputs": [
        {
          "name": "",
          "type": "address"
        }
      ],
      "payable": false,
      "stateMutability": "view",
      "type": "function"
    },
    {
      "inputs": [
        {
          "name": "_accessManager",
          "type": "address"
        }
      ],
      "payable": false,
      "stateMutability": "nonpayable",
      "type": "constructor"
    },
    {
      "anonymous": false,
      "inputs": [
        {
          "indexed": false,
          "name": "crowdsaleId",
          "type": "bytes32"
        },
        {
          "indexed": false,
          "name": "invoiceId",
          "type": "bytes32"
        },
        {
          "indexed": false,
          "name": "sourceLength",
          "type": "uint256"
        }
      ],
      "name": "EventNewCrowdsaleBlock",
      "type": "event"
    },
    {
      "anonymous": false,
      "inputs": [
        {
          "indexed": false,
          "name": "crowdsaleId",
          "type": "bytes32"
        },
        {
          "indexed": false,
          "name": "invoiceId",
          "type": "bytes32"
        },
        {
          "indexed": false,
          "name": "sourceLength",
          "type": "uint256"
        }
      ],
      "name": "EventNewCrowdsaleSource",
      "type": "event"
    },
    {
      "anonymous": false,
      "inputs": [
        {
          "indexed": false,
          "name": "accountId",
          "type": "bytes32"
        },
        {
          "indexed": false,
          "name": "depositContract",
          "type": "address"
        },
        {
          "indexed": false,
          "name": "to",
          "type": "address"
        },
        {
          "indexed": false,
          "name": "amount",
          "type": "uint256"
        }
      ],
      "name": "EventWithdrawPPT",
      "type": "event"
    },
    {
      "anonymous": false,
      "inputs": [
        {
          "indexed": false,
          "name": "accountId",
          "type": "bytes32"
        },
        {
          "indexed": false,
          "name": "to",
          "type": "address"
        },
        {
          "indexed": false,
          "name": "amount",
          "type": "uint256"
        },
        {
          "indexed": false,
          "name": "currency",
          "type": "bytes32"
        }
      ],
      "name": "EventWithdrawPokens",
      "type": "event"
    },
    {
      "anonymous": false,
      "inputs": [
        {
          "indexed": false,
          "name": "from",
          "type": "address"
        },
        {
          "indexed": false,
          "name": "accountId",
          "type": "bytes32"
        },
        {
          "indexed": false,
          "name": "currency",
          "type": "bytes32"
        },
        {
          "indexed": false,
          "name": "balance",
          "type": "uint256"
        }
      ],
      "name": "EventImportPokens",
      "type": "event"
    },
    {
      "anonymous": false,
      "inputs": [
        {
          "indexed": false,
          "name": "tokenName",
          "type": "bytes32"
        },
        {
          "indexed": false,
          "name": "decimalUnits",
          "type": "uint8"
        },
        {
          "indexed": false,
          "name": "tokenSymbol",
          "type": "bytes32"
        },
        {
          "indexed": false,
          "name": "addr",
          "type": "address"
        }
      ],
      "name": "EventNewCurrency",
      "type": "event"
    },
    {
      "anonymous": false,
      "inputs": [
        {
          "indexed": false,
          "name": "clientId",
          "type": "bytes32"
        },
        {
          "indexed": false,
          "name": "depositContractAddress",
          "type": "address"
        }
      ],
      "name": "EventNewDepositContract",
      "type": "event"
    },
    {
      "constant": false,
      "inputs": [
        {
          "name": "_crowdsaleId",
          "type": "bytes32"
        },
        {
          "name": "_invoiceId",
          "type": "bytes32"
        },
        {
          "name": "_ipfsHash",
          "type": "bytes"
        },
        {
          "name": "_dataType",
          "type": "bytes32"
        }
      ],
      "name": "insertBlock",
      "outputs": [],
      "payable": false,
      "stateMutability": "nonpayable",
      "type": "function"
    },
    {
      "constant": false,
      "inputs": [
        {
          "name": "_crowdsaleId",
          "type": "bytes32"
        },
        {
          "name": "_dataHash",
          "type": "bytes"
        },
        {
          "name": "_dataSource",
          "type": "bytes32"
        },
        {
          "name": "_dataType",
          "type": "bytes32"
        }
      ],
      "name": "insertSource",
      "outputs": [],
      "payable": false,
      "stateMutability": "nonpayable",
      "type": "function"
    },
    {
      "constant": false,
      "inputs": [
        {
          "name": "clientId",
          "type": "bytes32"
        }
      ],
      "name": "createAddress",
      "outputs": [],
      "payable": false,
      "stateMutability": "nonpayable",
      "type": "function"
    },
    {
      "constant": false,
      "inputs": [
        {
          "name": "_tokenName",
          "type": "bytes32"
        },
        {
          "name": "_decimalUnits",
          "type": "uint8"
        },
        {
          "name": "_tokenSymbol",
          "type": "bytes32"
        }
      ],
      "name": "createCurrency",
      "outputs": [],
      "payable": false,
      "stateMutability": "nonpayable",
      "type": "function"
    },
    {
      "constant": false,
      "inputs": [
        {
          "name": "pptAddress",
          "type": "address"
        },
        {
          "name": "accountId",
          "type": "bytes32"
        },
        {
          "name": "depositContract",
          "type": "address"
        },
        {
          "name": "to",
          "type": "address"
        },
        {
          "name": "amount",
          "type": "uint256"
        },
        {
          "name": "inCollateral",
          "type": "uint256"
        }
      ],
      "name": "withdrawPPT",
      "outputs": [],
      "payable": false,
      "stateMutability": "nonpayable",
      "type": "function"
    },
    {
      "constant": false,
      "inputs": [
        {
          "name": "currency",
          "type": "bytes32"
        },
        {
          "name": "from",
          "type": "address"
        },
        {
          "name": "accountId",
          "type": "bytes32"
        }
      ],
      "name": "importPokens",
      "outputs": [],
      "payable": false,
      "stateMutability": "nonpayable",
      "type": "function"
    },
    {
      "constant": false,
      "inputs": [
        {
          "name": "accountId",
          "type": "bytes32"
        },
        {
          "name": "to",
          "type": "address"
        },
        {
          "name": "amount",
          "type": "uint256"
        },
        {
          "name": "currency",
          "type": "bytes32"
        }
      ],
      "name": "withdrawPoken",
      "outputs": [],
      "payable": false,
      "stateMutability": "nonpayable",
      "type": "function"
    },
    {
      "constant": true,
      "inputs": [
        {
          "name": "currency",
          "type": "bytes32"
        }
      ],
      "name": "getCurrency",
      "outputs": [
        {
          "name": "",
          "type": "address"
        }
      ],
      "payable": false,
      "stateMutability": "view",
      "type": "function"
    },
    {
      "constant": true,
      "inputs": [
        {
          "name": "currency",
          "type": "address"
        }
      ],
      "name": "getCurrencySymbol",
      "outputs": [
        {
          "name": "",
          "type": "bytes32"
        }
      ],
      "payable": false,
      "stateMutability": "view",
      "type": "function"
    },
    {
      "constant": true,
      "inputs": [
        {
          "name": "clientId",
          "type": "bytes32"
        }
      ],
      "name": "getDepositAddress",
      "outputs": [
        {
          "name": "",
          "type": "address"
        }
      ],
      "payable": false,
      "stateMutability": "view",
      "type": "function"
    },
    {
      "constant": true,
      "inputs": [
        {
          "name": "_crowdsaleId",
          "type": "bytes32"
        },
        {
          "name": "documentIndex",
          "type": "uint256"
        }
      ],
      "name": "getRecord",
      "outputs": [
        {
          "name": "",
          "type": "bytes32"
        },
        {
          "name": "",
          "type": "bytes"
        },
        {
          "name": "",
          "type": "bytes32"
        },
        {
          "name": "",
          "type": "bytes32"
        }
      ],
      "payable": false,
      "stateMutability": "view",
      "type": "function"
    },
    {
      "constant": true,
      "inputs": [
        {
          "name": "_crowdsaleId",
          "type": "bytes32"
        }
      ],
      "name": "getRecordDocumentIndexes",
      "outputs": [
        {
          "name": "",
          "type": "uint256"
        }
      ],
      "payable": false,
      "stateMutability": "view",
      "type": "function"
    }
  ],
  "bytecode": "0x6060604052341561000f57600080fd5b60405160208061412e8339810160405280805190602001909190505080806000806101000a81548173ffffffffffffffffffffffffffffffffffffffff021916908373ffffffffffffffffffffffffffffffffffffffff16021790555050506140b18061007d6000396000f3006060604052600436106100d0576000357c0100000000000000000000000000000000000000000000000000000000900463ffffffff16806302ab72c4146100d55780630be2f2361461010e578063236b91e8146101355780632a01a4511461018857806335d19508146101ef57806351e933451461022a578063554c9b6a146102ae57806382cce80f14610303578063cb21ea7c14610343578063d383b80d146103c7578063f24d954e1461042e578063f36c11c114610504578063f3fd222814610560578063f7f01b4b146105f6575b600080fd5b34156100e057600080fd5b61010c600480803573ffffffffffffffffffffffffffffffffffffffff1690602001909190505061064b565b005b341561011957600080fd5b61013360048080356000191690602001909190505061077f565b005b341561014057600080fd5b61018660048080356000191690602001909190803573ffffffffffffffffffffffffffffffffffffffff1690602001909190803560001916906020019091905050610a5e565b005b341561019357600080fd5b6101ad600480803560001916906020019091905050610e83565b604051808273ffffffffffffffffffffffffffffffffffffffff1673ffffffffffffffffffffffffffffffffffffffff16815260200191505060405180910390f35b34156101fa57600080fd5b610214600480803560001916906020019091905050610ec8565b6040518082815260200191505060405180910390f35b341561023557600080fd5b6102ac60048080356000191690602001909190803590602001908201803590602001908080601f016020809104026020016040519081016040528093929190818152602001838380828437820191505050505050919080356000191690602001909190803560001916906020019091905050610ef3565b005b34156102b957600080fd5b6102e5600480803573ffffffffffffffffffffffffffffffffffffffff1690602001909190505061105d565b60405180826000191660001916815260200191505060405180910390f35b341561030e57600080fd5b61034160048080356000191690602001909190803560ff16906020019091908035600019169060200190919050506110a6565b005b341561034e57600080fd5b6103c56004808035600019169060200190919080356000191690602001909190803590602001908201803590602001908080601f01602080910402602001604051908101604052809392919081815260200183838082843782019150505050505091908035600019169060200190919050506114a6565b005b34156103d257600080fd5b6103ec600480803560001916906020019091905050611761565b604051808273ffffffffffffffffffffffffffffffffffffffff1673ffffffffffffffffffffffffffffffffffffffff16815260200191505060405180910390f35b341561043957600080fd5b61045c6004808035600019169060200190919080359060200190919050506117a6565b6040518085600019166000191681526020018060200184600019166000191681526020018360001916600019168152602001828103825285818151815260200191508051906020019080838360005b838110156104c65780820151818401526020810190506104ab565b50505050905090810190601f1680156104f35780820380516001836020036101000a031916815260200191505b509550505050505060405180910390f35b341561050f57600080fd5b61055e60048080356000191690602001909190803573ffffffffffffffffffffffffffffffffffffffff1690602001909190803590602001909190803560001916906020019091905050611935565b005b341561056b57600080fd5b6105f4600480803573ffffffffffffffffffffffffffffffffffffffff169060200190919080356000191690602001909190803573ffffffffffffffffffffffffffffffffffffffff1690602001909190803573ffffffffffffffffffffffffffffffffffffffff16906020019091908035906020019091908035906020019091905050611ca2565b005b341561060157600080fd5b610609612033565b604051808273ffffffffffffffffffffffffffffffffffffffff1673ffffffffffffffffffffffffffffffffffffffff16815260200191505060405180910390f35b600115156000809054906101000a900473ffffffffffffffffffffffffffffffffffffffff1673ffffffffffffffffffffffffffffffffffffffff1663fda08958336000604051602001526040518263ffffffff167c0100000000000000000000000000000000000000000000000000000000028152600401808273ffffffffffffffffffffffffffffffffffffffff1673ffffffffffffffffffffffffffffffffffffffff168152602001915050602060405180830381600087803b151561071357600080fd5b6102c65a03f1151561072457600080fd5b50505060405180519050151514151561073c57600080fd5b806000806101000a81548173ffffffffffffffffffffffffffffffffffffffff021916908373ffffffffffffffffffffffffffffffffffffffff16021790555050565b600115156000809054906101000a900473ffffffffffffffffffffffffffffffffffffffff1673ffffffffffffffffffffffffffffffffffffffff1663fda08958336000604051602001526040518263ffffffff167c0100000000000000000000000000000000000000000000000000000000028152600401808273ffffffffffffffffffffffffffffffffffffffff1673ffffffffffffffffffffffffffffffffffffffff168152602001915050602060405180830381600087803b151561084757600080fd5b6102c65a03f1151561085857600080fd5b50505060405180519050151514151561087057600080fd5b806000809054906101000a900473ffffffffffffffffffffffffffffffffffffffff1661089b612071565b8083600019166000191681526020018273ffffffffffffffffffffffffffffffffffffffff1673ffffffffffffffffffffffffffffffffffffffff16815260200192505050604051809103906000f08015156108f657600080fd5b60036000836000191660001916815260200190815260200160002060006101000a81548173ffffffffffffffffffffffffffffffffffffffff021916908373ffffffffffffffffffffffffffffffffffffffff160217905550600060036000836000191660001916815260200190815260200160002060009054906101000a900473ffffffffffffffffffffffffffffffffffffffff1673ffffffffffffffffffffffffffffffffffffffff16141515156109ad57fe5b7f331e8d7fbf36512cd5eb514f38db31465c8f937497c179aa3eda3250125028fc8160036000846000191660001916815260200190815260200160002060009054906101000a900473ffffffffffffffffffffffffffffffffffffffff166040518083600019166000191681526020018273ffffffffffffffffffffffffffffffffffffffff1673ffffffffffffffffffffffffffffffffffffffff1681526020019250505060405180910390a150565b600080600115156000809054906101000a900473ffffffffffffffffffffffffffffffffffffffff1673ffffffffffffffffffffffffffffffffffffffff1663fda08958336000604051602001526040518263ffffffff167c0100000000000000000000000000000000000000000000000000000000028152600401808273ffffffffffffffffffffffffffffffffffffffff1673ffffffffffffffffffffffffffffffffffffffff168152602001915050602060405180830381600087803b1515610b2957600080fd5b6102c65a03f11515610b3a57600080fd5b505050604051805190501515141515610b5257600080fd5b60016000866000191660001916815260200190815260200160002060009054906101000a900473ffffffffffffffffffffffffffffffffffffffff1691508173ffffffffffffffffffffffffffffffffffffffff166370a08231856000604051602001526040518263ffffffff167c0100000000000000000000000000000000000000000000000000000000028152600401808273ffffffffffffffffffffffffffffffffffffffff1673ffffffffffffffffffffffffffffffffffffffff168152602001915050602060405180830381600087803b1515610c3357600080fd5b6102c65a03f11515610c4457600080fd5b50505060405180519050905060008273ffffffffffffffffffffffffffffffffffffffff166370a08231866000604051602001526040518263ffffffff167c0100000000000000000000000000000000000000000000000000000000028152600401808273ffffffffffffffffffffffffffffffffffffffff1673ffffffffffffffffffffffffffffffffffffffff168152602001915050602060405180830381600087803b1515610cf557600080fd5b6102c65a03f11515610d0657600080fd5b50505060405180519050118015610de65750600115158273ffffffffffffffffffffffffffffffffffffffff16630156b32383876000604051602001526040518363ffffffff167c0100000000000000000000000000000000000000000000000000000000028152600401808381526020018273ffffffffffffffffffffffffffffffffffffffff1673ffffffffffffffffffffffffffffffffffffffff16815260200192505050602060405180830381600087803b1515610dc757600080fd5b6102c65a03f11515610dd857600080fd5b505050604051805190501515145b1515610df157600080fd5b7fc3be7ccdca9657a9d82c0f86bbabdba35fec64fa8dfffcd69a6e26d08a5db12884848784604051808573ffffffffffffffffffffffffffffffffffffffff1673ffffffffffffffffffffffffffffffffffffffff1681526020018460001916600019168152602001836000191660001916815260200182815260200194505050505060405180910390a15050505050565b600060036000836000191660001916815260200190815260200160002060009054906101000a900473ffffffffffffffffffffffffffffffffffffffff169050919050565b6000600460008360001916600019168152602001908152602001600020600201805490509050919050565b6001151560046000866000191660001916815260200190815260200160002060010160009054906101000a900460ff161515141515610f3157600080fd5b6004600085600019166000191681526020019081526020016000206002018054806001018281610f619190612081565b9160005260206000209060030201600060606040519081016040528087815260200186600019168152602001856000191681525090919091506000820151816000019080519060200190610fb69291906120b3565b5060208201518160010190600019169055604082015181600201906000191690555050507f783fdcfeee4bb68b398a590b294c6cc7a0eefc8b2d7bf812da7eb74121d15c0f846004600087600019166000191681526020019081526020016000206000015461102487610ec8565b6040518084600019166000191681526020018360001916600019168152602001828152602001935050505060405180910390a150505050565b6000600260008373ffffffffffffffffffffffffffffffffffffffff1673ffffffffffffffffffffffffffffffffffffffff168152602001908152602001600020549050919050565b600115156000809054906101000a900473ffffffffffffffffffffffffffffffffffffffff1673ffffffffffffffffffffffffffffffffffffffff1663fda08958336000604051602001526040518263ffffffff167c0100000000000000000000000000000000000000000000000000000000028152600401808273ffffffffffffffffffffffffffffffffffffffff1673ffffffffffffffffffffffffffffffffffffffff168152602001915050602060405180830381600087803b151561116e57600080fd5b6102c65a03f1151561117f57600080fd5b50505060405180519050151514151561119757600080fd5b600060016000836000191660001916815260200190815260200160002060009054906101000a900473ffffffffffffffffffffffffffffffffffffffff1673ffffffffffffffffffffffffffffffffffffffff161415156111f757600080fd5b6000809054906101000a900473ffffffffffffffffffffffffffffffffffffffff16838383611224612133565b808573ffffffffffffffffffffffffffffffffffffffff1673ffffffffffffffffffffffffffffffffffffffff16815260200184600019166000191681526020018360ff1660ff1681526020018260001916600019168152602001945050505050604051809103906000f080151561129b57600080fd5b60016000836000191660001916815260200190815260200160002060006101000a81548173ffffffffffffffffffffffffffffffffffffffff021916908373ffffffffffffffffffffffffffffffffffffffff160217905550600060016000836000191660001916815260200190815260200160002060009054906101000a900473ffffffffffffffffffffffffffffffffffffffff1673ffffffffffffffffffffffffffffffffffffffff161415151561135257fe5b806002600060016000856000191660001916815260200190815260200160002060009054906101000a900473ffffffffffffffffffffffffffffffffffffffff1673ffffffffffffffffffffffffffffffffffffffff1673ffffffffffffffffffffffffffffffffffffffff16815260200190815260200160002081600019169055507f49ed04561088f8c4d4b6cf512cfd6e87722fae11971dad08e91c480f46ef0a9083838360016000866000191660001916815260200190815260200160002060009054906101000a900473ffffffffffffffffffffffffffffffffffffffff166040518085600019166000191681526020018460ff1660ff16815260200183600019166000191681526020018273ffffffffffffffffffffffffffffffffffffffff1673ffffffffffffffffffffffffffffffffffffffff16815260200194505050505060405180910390a1505050565b600115156000809054906101000a900473ffffffffffffffffffffffffffffffffffffffff1673ffffffffffffffffffffffffffffffffffffffff1663fda08958336000604051602001526040518263ffffffff167c0100000000000000000000000000000000000000000000000000000000028152600401808273ffffffffffffffffffffffffffffffffffffffff1673ffffffffffffffffffffffffffffffffffffffff168152602001915050602060405180830381600087803b151561156e57600080fd5b6102c65a03f1151561157f57600080fd5b50505060405180519050151514151561159757600080fd5b6000151560046000866000191660001916815260200190815260200160002060010160009054906101000a900460ff1615151415156115d557600080fd5b60046000856000191660001916815260200190815260200160002060020180548060010182816116059190612081565b916000526020600020906003020160006060604051908101604052808681526020017f697066730000000000000000000000000000000000000000000000000000000060001916815260200185600019168152509091909150600082015181600001908051906020019061167a9291906120b3565b506020820151816001019060001916905560408201518160020190600019169055505050826004600086600019166000191681526020019081526020016000206000018160001916905550600160046000866000191660001916815260200190815260200160002060010160006101000a81548160ff0219169083151502179055507faeccf764a9954c687874cba18109f23b9d0750dcc0010ce121ac237364e50710848461172887610ec8565b6040518084600019166000191681526020018360001916600019168152602001828152602001935050505060405180910390a150505050565b600060016000836000191660001916815260200190815260200160002060009054906101000a900473ffffffffffffffffffffffffffffffffffffffff169050919050565b60006117b0612143565b60008060046000876000191660001916815260200190815260200160002060000154600460008860001916600019168152602001908152602001600020600201868154811015156117fd57fe5b90600052602060002090600302016000016004600089600019166000191681526020019081526020016000206002018781548110151561183957fe5b906000526020600020906003020160010154600460008a600019166000191681526020019081526020016000206002018881548110151561187657fe5b906000526020600020906003020160020154828054600181600116156101000203166002900480601f01602080910402602001604051908101604052809291908181526020018280546001816001161561010002031660029004801561191d5780601f106118f25761010080835404028352916020019161191d565b820191906000526020600020905b81548152906001019060200180831161190057829003601f168201915b50505050509250935093509350935092959194509250565b6000600115156000809054906101000a900473ffffffffffffffffffffffffffffffffffffffff1673ffffffffffffffffffffffffffffffffffffffff1663fda08958336000604051602001526040518263ffffffff167c0100000000000000000000000000000000000000000000000000000000028152600401808273ffffffffffffffffffffffffffffffffffffffff1673ffffffffffffffffffffffffffffffffffffffff168152602001915050602060405180830381600087803b15156119ff57600080fd5b6102c65a03f11515611a1057600080fd5b505050604051805190501515141515611a2857600080fd5b600060016000846000191660001916815260200190815260200160002060009054906101000a900473ffffffffffffffffffffffffffffffffffffffff1673ffffffffffffffffffffffffffffffffffffffff1614151515611a8957600080fd5b60016000836000191660001916815260200190815260200160002060009054906101000a900473ffffffffffffffffffffffffffffffffffffffff1690508073ffffffffffffffffffffffffffffffffffffffff166397304ced846040518263ffffffff167c010000000000000000000000000000000000000000000000000000000002815260040180828152602001915050600060405180830381600087803b1515611b3557600080fd5b6102c65a03f11515611b4657600080fd5b5050508073ffffffffffffffffffffffffffffffffffffffff1663a9059cbb85856000604051602001526040518363ffffffff167c0100000000000000000000000000000000000000000000000000000000028152600401808373ffffffffffffffffffffffffffffffffffffffff1673ffffffffffffffffffffffffffffffffffffffff16815260200182815260200192505050602060405180830381600087803b1515611bf457600080fd5b6102c65a03f11515611c0557600080fd5b50505060405180519050507fc7b1efc05fbad0dfc1e1b12644442191dc988a598f4e1dce8913a7616d4e1e62858585856040518085600019166000191681526020018473ffffffffffffffffffffffffffffffffffffffff1673ffffffffffffffffffffffffffffffffffffffff168152602001838152602001826000191660001916815260200194505050505060405180910390a15050505050565b600080600115156000809054906101000a900473ffffffffffffffffffffffffffffffffffffffff1673ffffffffffffffffffffffffffffffffffffffff1663fda08958336000604051602001526040518263ffffffff167c0100000000000000000000000000000000000000000000000000000000028152600401808273ffffffffffffffffffffffffffffffffffffffff1673ffffffffffffffffffffffffffffffffffffffff168152602001915050602060405180830381600087803b1515611d6d57600080fd5b6102c65a03f11515611d7e57600080fd5b505050604051805190501515141515611d9657600080fd5b859150611e608273ffffffffffffffffffffffffffffffffffffffff166370a082318a6000604051602001526040518263ffffffff167c0100000000000000000000000000000000000000000000000000000000028152600401808273ffffffffffffffffffffffffffffffffffffffff1673ffffffffffffffffffffffffffffffffffffffff168152602001915050602060405180830381600087803b1515611e3f57600080fd5b6102c65a03f11515611e5057600080fd5b5050506040518051905084612058565b9050838110158015611f6f5750600115158273ffffffffffffffffffffffffffffffffffffffff1663beabacc88a88886000604051602001526040518463ffffffff167c0100000000000000000000000000000000000000000000000000000000028152600401808473ffffffffffffffffffffffffffffffffffffffff1673ffffffffffffffffffffffffffffffffffffffff1681526020018373ffffffffffffffffffffffffffffffffffffffff1673ffffffffffffffffffffffffffffffffffffffff1681526020018281526020019350505050602060405180830381600087803b1515611f5057600080fd5b6102c65a03f11515611f6157600080fd5b505050604051805190501515145b1515611f7a57600080fd5b7fcb097381ce67a8284a48d132fa97c7b98849e6967a4bd898dbce4a95bbb089a2878787876040518085600019166000191681526020018473ffffffffffffffffffffffffffffffffffffffff1673ffffffffffffffffffffffffffffffffffffffff1681526020018373ffffffffffffffffffffffffffffffffffffffff1673ffffffffffffffffffffffffffffffffffffffff16815260200182815260200194505050505060405180910390a15050505050505050565b6000809054906101000a900473ffffffffffffffffffffffffffffffffffffffff1681565b600082821115151561206657fe5b818303905092915050565b6040516107488061220483390190565b8154818355818115116120ae576003028160030283600052602060002091820191016120ad9190612157565b5b505050565b828054600181600116156101000203166002900490600052602060002090601f016020900481019282601f106120f457805160ff1916838001178555612122565b82800160010185558215612122579182015b82811115612121578251825591602001919060010190612106565b5b50905061212f9190612196565b5090565b60405161173a8061294c83390190565b602060405190810160405280600081525090565b61219391905b8082111561218f576000808201600061217691906121bb565b600182016000905560028201600090555060030161215d565b5090565b90565b6121b891905b808211156121b457600081600090555060010161219c565b5090565b90565b50805460018160011615610100020316600290046000825580601f106121e15750612200565b601f0160209004906000526020600020908101906121ff9190612196565b5b5056006060604052341561000f57600080fd5b6040516040806107488339810160405280805190602001909190805190602001909190505080806000806101000a81548173ffffffffffffffffffffffffffffffffffffffff021916908373ffffffffffffffffffffffffffffffffffffffff16021790555050816001816000191690555050506106b6806100926000396000f300606060405260043610610062576000357c0100000000000000000000000000000000000000000000000000000000900463ffffffff16806302ab72c41461006757806370a08231146100a0578063beabacc8146100ed578063f7f01b4b14610166575b600080fd5b341561007257600080fd5b61009e600480803573ffffffffffffffffffffffffffffffffffffffff169060200190919050506101bb565b005b34156100ab57600080fd5b6100d7600480803573ffffffffffffffffffffffffffffffffffffffff169060200190919050506102ef565b6040518082815260200191505060405180910390f35b34156100f857600080fd5b61014c600480803573ffffffffffffffffffffffffffffffffffffffff1690602001909190803573ffffffffffffffffffffffffffffffffffffffff169060200190919080359060200190919050506103b6565b604051808215151515815260200191505060405180910390f35b341561017157600080fd5b610179610665565b604051808273ffffffffffffffffffffffffffffffffffffffff1673ffffffffffffffffffffffffffffffffffffffff16815260200191505060405180910390f35b600115156000809054906101000a900473ffffffffffffffffffffffffffffffffffffffff1673ffffffffffffffffffffffffffffffffffffffff1663fda08958336000604051602001526040518263ffffffff167c0100000000000000000000000000000000000000000000000000000000028152600401808273ffffffffffffffffffffffffffffffffffffffff1673ffffffffffffffffffffffffffffffffffffffff168152602001915050602060405180830381600087803b151561028357600080fd5b6102c65a03f1151561029457600080fd5b5050506040518051905015151415156102ac57600080fd5b806000806101000a81548173ffffffffffffffffffffffffffffffffffffffff021916908373ffffffffffffffffffffffffffffffffffffffff16021790555050565b60008173ffffffffffffffffffffffffffffffffffffffff166370a08231306000604051602001526040518263ffffffff167c0100000000000000000000000000000000000000000000000000000000028152600401808273ffffffffffffffffffffffffffffffffffffffff1673ffffffffffffffffffffffffffffffffffffffff168152602001915050602060405180830381600087803b151561039457600080fd5b6102c65a03f115156103a557600080fd5b505050604051805190509050919050565b6000600115156000809054906101000a900473ffffffffffffffffffffffffffffffffffffffff1673ffffffffffffffffffffffffffffffffffffffff1663fda08958336000604051602001526040518263ffffffff167c0100000000000000000000000000000000000000000000000000000000028152600401808273ffffffffffffffffffffffffffffffffffffffff1673ffffffffffffffffffffffffffffffffffffffff168152602001915050602060405180830381600087803b151561048057600080fd5b6102c65a03f1151561049157600080fd5b505050604051805190501515148061058b5750600115156000809054906101000a900473ffffffffffffffffffffffffffffffffffffffff1673ffffffffffffffffffffffffffffffffffffffff166305fd22d0336000604051602001526040518263ffffffff167c0100000000000000000000000000000000000000000000000000000000028152600401808273ffffffffffffffffffffffffffffffffffffffff1673ffffffffffffffffffffffffffffffffffffffff168152602001915050602060405180830381600087803b151561056c57600080fd5b6102c65a03f1151561057d57600080fd5b505050604051805190501515145b151561059657600080fd5b8373ffffffffffffffffffffffffffffffffffffffff1663a9059cbb84846000604051602001526040518363ffffffff167c0100000000000000000000000000000000000000000000000000000000028152600401808373ffffffffffffffffffffffffffffffffffffffff1673ffffffffffffffffffffffffffffffffffffffff16815260200182815260200192505050602060405180830381600087803b151561064157600080fd5b6102c65a03f1151561065257600080fd5b5050506040518051905090509392505050565b6000809054906101000a900473ffffffffffffffffffffffffffffffffffffffff16815600a165627a7a723058204635851710006f43618e0551da4e11cf5e6b9ce265b91807c0267c4e60ae8d210029606060405260008055341561001357600080fd5b60405160808061173a833981016040528080519060200190919080519060200190919080519060200190919080519060200190919050508380600660006101000a81548173ffffffffffffffffffffffffffffffffffffffff021916908373ffffffffffffffffffffffffffffffffffffffff16021790555050826001816000191690555081600260006101000a81548160ff021916908360ff160217905550806003816000191690555050505050611669806100d16000396000f3006060604052600436106100e6576000357c0100000000000000000000000000000000000000000000000000000000900463ffffffff1680630156b323146100eb57806302ab72c41461014557806306fdde031461017e578063095ea7b3146101af57806318160ddd1461020957806323b872dd1461023257806327e235e3146102ab578063313ce567146102f85780635c6581651461032757806367fbd2891461039357806370a08231146103ce57806395d89b411461041b57806397304ced1461044c578063a9059cbb1461046f578063dd62ed3e146104c9578063f7f01b4b14610535575b600080fd5b34156100f657600080fd5b61012b600480803590602001909190803573ffffffffffffffffffffffffffffffffffffffff1690602001909190505061058a565b604051808215151515815260200191505060405180910390f35b341561015057600080fd5b61017c600480803573ffffffffffffffffffffffffffffffffffffffff16906020019091905050610777565b005b341561018957600080fd5b6101916108ad565b60405180826000191660001916815260200191505060405180910390f35b34156101ba57600080fd5b6101ef600480803573ffffffffffffffffffffffffffffffffffffffff169060200190919080359060200190919050506108b3565b604051808215151515815260200191505060405180910390f35b341561021457600080fd5b61021c6109a5565b6040518082815260200191505060405180910390f35b341561023d57600080fd5b610291600480803573ffffffffffffffffffffffffffffffffffffffff1690602001909190803573ffffffffffffffffffffffffffffffffffffffff169060200190919080359060200190919050506109ab565b604051808215151515815260200191505060405180910390f35b34156102b657600080fd5b6102e2600480803573ffffffffffffffffffffffffffffffffffffffff16906020019091905050610c45565b6040518082815260200191505060405180910390f35b341561030357600080fd5b61030b610c5d565b604051808260ff1660ff16815260200191505060405180910390f35b341561033257600080fd5b61037d600480803573ffffffffffffffffffffffffffffffffffffffff1690602001909190803573ffffffffffffffffffffffffffffffffffffffff16906020019091905050610c70565b6040518082815260200191505060405180910390f35b341561039e57600080fd5b6103b46004808035906020019091905050610c95565b604051808215151515815260200191505060405180910390f35b34156103d957600080fd5b610405600480803573ffffffffffffffffffffffffffffffffffffffff16906020019091905050611079565b6040518082815260200191505060405180910390f35b341561042657600080fd5b61042e6110c2565b60405180826000191660001916815260200191505060405180910390f35b341561045757600080fd5b61046d60048080359060200190919050506110c8565b005b341561047a57600080fd5b6104af600480803573ffffffffffffffffffffffffffffffffffffffff169060200190919080359060200190919050506113f4565b604051808215151515815260200191505060405180910390f35b34156104d457600080fd5b61051f600480803573ffffffffffffffffffffffffffffffffffffffff1690602001909190803573ffffffffffffffffffffffffffffffffffffffff1690602001909190505061154d565b6040518082815260200191505060405180910390f35b341561054057600080fd5b6105486115d4565b604051808273ffffffffffffffffffffffffffffffffffffffff1673ffffffffffffffffffffffffffffffffffffffff16815260200191505060405180910390f35b600060011515600660009054906101000a900473ffffffffffffffffffffffffffffffffffffffff1673ffffffffffffffffffffffffffffffffffffffff166305fd22d0336000604051602001526040518263ffffffff167c0100000000000000000000000000000000000000000000000000000000028152600401808273ffffffffffffffffffffffffffffffffffffffff1673ffffffffffffffffffffffffffffffffffffffff168152602001915050602060405180830381600087803b151561065557600080fd5b6102c65a03f1151561066657600080fd5b50505060405180519050151514151561067e57600080fd5b82600460008473ffffffffffffffffffffffffffffffffffffffff1673ffffffffffffffffffffffffffffffffffffffff1681526020019081526020016000205410156106ce5760009050610771565b610717600460008473ffffffffffffffffffffffffffffffffffffffff1673ffffffffffffffffffffffffffffffffffffffff16815260200190815260200160002054846115fa565b600460008473ffffffffffffffffffffffffffffffffffffffff1673ffffffffffffffffffffffffffffffffffffffff16815260200190815260200160002081905550610766600054846115fa565b600081905550600190505b92915050565b60011515600660009054906101000a900473ffffffffffffffffffffffffffffffffffffffff1673ffffffffffffffffffffffffffffffffffffffff1663fda08958336000604051602001526040518263ffffffff167c0100000000000000000000000000000000000000000000000000000000028152600401808273ffffffffffffffffffffffffffffffffffffffff1673ffffffffffffffffffffffffffffffffffffffff168152602001915050602060405180830381600087803b151561084057600080fd5b6102c65a03f1151561085157600080fd5b50505060405180519050151514151561086957600080fd5b80600660006101000a81548173ffffffffffffffffffffffffffffffffffffffff021916908373ffffffffffffffffffffffffffffffffffffffff16021790555050565b60015481565b600081600560003373ffffffffffffffffffffffffffffffffffffffff1673ffffffffffffffffffffffffffffffffffffffff16815260200190815260200160002060008573ffffffffffffffffffffffffffffffffffffffff1673ffffffffffffffffffffffffffffffffffffffff168152602001908152602001600020819055508273ffffffffffffffffffffffffffffffffffffffff163373ffffffffffffffffffffffffffffffffffffffff167f8c5be1e5ebec7d5bd14f71427d1e84f3dd0314c0f7b2291e5b200ac8c7c3b925846040518082815260200191505060405180910390a36001905092915050565b60005481565b600080600560008673ffffffffffffffffffffffffffffffffffffffff1673ffffffffffffffffffffffffffffffffffffffff16815260200190815260200160002060003373ffffffffffffffffffffffffffffffffffffffff1673ffffffffffffffffffffffffffffffffffffffff16815260200190815260200160002054905082600460008773ffffffffffffffffffffffffffffffffffffffff1673ffffffffffffffffffffffffffffffffffffffff1681526020019081526020016000205410158015610a7c5750828110155b1515610a8757600080fd5b82600460008673ffffffffffffffffffffffffffffffffffffffff1673ffffffffffffffffffffffffffffffffffffffff1681526020019081526020016000206000828254019250508190555082600460008773ffffffffffffffffffffffffffffffffffffffff1673ffffffffffffffffffffffffffffffffffffffff168152602001908152602001600020600082825403925050819055507fffffffffffffffffffffffffffffffffffffffffffffffffffffffffffffffff811015610bd45782600560008773ffffffffffffffffffffffffffffffffffffffff1673ffffffffffffffffffffffffffffffffffffffff16815260200190815260200160002060003373ffffffffffffffffffffffffffffffffffffffff1673ffffffffffffffffffffffffffffffffffffffff168152602001908152602001600020600082825403925050819055505b8373ffffffffffffffffffffffffffffffffffffffff168573ffffffffffffffffffffffffffffffffffffffff167fddf252ad1be2c89b69c2b068fc378daa952ba7f163c4a11628f55a4df523b3ef856040518082815260200191505060405180910390a360019150509392505050565b60046020528060005260406000206000915090505481565b600260009054906101000a900460ff1681565b6005602052816000526040600020602052806000526040600020600091509150505481565b600060011515600660009054906101000a900473ffffffffffffffffffffffffffffffffffffffff1673ffffffffffffffffffffffffffffffffffffffff166305fd22d0336000604051602001526040518263ffffffff167c0100000000000000000000000000000000000000000000000000000000028152600401808273ffffffffffffffffffffffffffffffffffffffff1673ffffffffffffffffffffffffffffffffffffffff168152602001915050602060405180830381600087803b1515610d6057600080fd5b6102c65a03f11515610d7157600080fd5b505050604051805190501515141515610d8957600080fd5b8160046000600660009054906101000a900473ffffffffffffffffffffffffffffffffffffffff1673ffffffffffffffffffffffffffffffffffffffff166394a3760f6000604051602001526040518163ffffffff167c0100000000000000000000000000000000000000000000000000000000028152600401602060405180830381600087803b1515610e1c57600080fd5b6102c65a03f11515610e2d57600080fd5b5050506040518051905073ffffffffffffffffffffffffffffffffffffffff1673ffffffffffffffffffffffffffffffffffffffff168152602001908152602001600020541015610e815760009050611074565b610f7260046000600660009054906101000a900473ffffffffffffffffffffffffffffffffffffffff1673ffffffffffffffffffffffffffffffffffffffff166394a3760f6000604051602001526040518163ffffffff167c0100000000000000000000000000000000000000000000000000000000028152600401602060405180830381600087803b1515610f1657600080fd5b6102c65a03f11515610f2757600080fd5b5050506040518051905073ffffffffffffffffffffffffffffffffffffffff1673ffffffffffffffffffffffffffffffffffffffff16815260200190815260200160002054836115fa565b60046000600660009054906101000a900473ffffffffffffffffffffffffffffffffffffffff1673ffffffffffffffffffffffffffffffffffffffff166394a3760f6000604051602001526040518163ffffffff167c0100000000000000000000000000000000000000000000000000000000028152600401602060405180830381600087803b151561100457600080fd5b6102c65a03f1151561101557600080fd5b5050506040518051905073ffffffffffffffffffffffffffffffffffffffff1673ffffffffffffffffffffffffffffffffffffffff16815260200190815260200160002081905550611069600054836115fa565b600081905550600190505b919050565b6000600460008373ffffffffffffffffffffffffffffffffffffffff1673ffffffffffffffffffffffffffffffffffffffff168152602001908152602001600020549050919050565b60035481565b60011515600660009054906101000a900473ffffffffffffffffffffffffffffffffffffffff1673ffffffffffffffffffffffffffffffffffffffff166305fd22d0336000604051602001526040518263ffffffff167c0100000000000000000000000000000000000000000000000000000000028152600401808273ffffffffffffffffffffffffffffffffffffffff1673ffffffffffffffffffffffffffffffffffffffff168152602001915050602060405180830381600087803b151561119157600080fd5b6102c65a03f115156111a257600080fd5b5050506040518051905015151415156111ba57600080fd5b6112ab60046000600660009054906101000a900473ffffffffffffffffffffffffffffffffffffffff1673ffffffffffffffffffffffffffffffffffffffff166394a3760f6000604051602001526040518163ffffffff167c0100000000000000000000000000000000000000000000000000000000028152600401602060405180830381600087803b151561124f57600080fd5b6102c65a03f1151561126057600080fd5b5050506040518051905073ffffffffffffffffffffffffffffffffffffffff1673ffffffffffffffffffffffffffffffffffffffff1681526020019081526020016000205482611613565b60046000600660009054906101000a900473ffffffffffffffffffffffffffffffffffffffff1673ffffffffffffffffffffffffffffffffffffffff166394a3760f6000604051602001526040518163ffffffff167c0100000000000000000000000000000000000000000000000000000000028152600401602060405180830381600087803b151561133d57600080fd5b6102c65a03f1151561134e57600080fd5b5050506040518051905073ffffffffffffffffffffffffffffffffffffffff1673ffffffffffffffffffffffffffffffffffffffff168152602001908152602001600020819055506113a260005482611613565b6000819055507fb83a9cb495aa43a9871c87805ab90712a5f703de6d66d16b96d7afcc91bb3299600354826040518083600019166000191681526020018281526020019250505060405180910390a150565b600081600460003373ffffffffffffffffffffffffffffffffffffffff1673ffffffffffffffffffffffffffffffffffffffff168152602001908152602001600020541015151561144457600080fd5b81600460003373ffffffffffffffffffffffffffffffffffffffff1673ffffffffffffffffffffffffffffffffffffffff1681526020019081526020016000206000828254039250508190555081600460008573ffffffffffffffffffffffffffffffffffffffff1673ffffffffffffffffffffffffffffffffffffffff168152602001908152602001600020600082825401925050819055508273ffffffffffffffffffffffffffffffffffffffff163373ffffffffffffffffffffffffffffffffffffffff167fddf252ad1be2c89b69c2b068fc378daa952ba7f163c4a11628f55a4df523b3ef846040518082815260200191505060405180910390a36001905092915050565b6000600560008473ffffffffffffffffffffffffffffffffffffffff1673ffffffffffffffffffffffffffffffffffffffff16815260200190815260200160002060008373ffffffffffffffffffffffffffffffffffffffff1673ffffffffffffffffffffffffffffffffffffffff16815260200190815260200160002054905092915050565b600660009054906101000a900473ffffffffffffffffffffffffffffffffffffffff1681565b600082821115151561160857fe5b818303905092915050565b600080828401905083811015801561162b5750828110155b151561163357fe5b80915050929150505600a165627a7a723058209cd33c0575b9390fbad01224db8be1563e8ff94641dfb51ea605f4b7886a7cb80029a165627a7a7230582062f539e93ff3e51a25390d7a382ff35a2170839b1daf2f941d5768ad44ce6fd20029",
  "source": "/**\nThis is the core module of the system. Currently it holds the code of\nthe Bank and crowdsale modules to avoid external calls and higher gas costs.\nIt might be a good idea in the future to split the code, separate Bank\nand crowdsale modules into external files and have the core interact with them\nwith addresses and interfaces. \n*/\npragma solidity ^0.4.17;\n\nimport \"./iERC20Token.sol\";\nimport \"./CurrencyToken.sol\";\nimport \"./DepositContract.sol\";\nimport \"./SafeMath.sol\";\n\n/// @title Populous contract\ncontract Populous is withAccessManager {\n\n    // EVENTS\n    event EventNewCrowdsaleBlock(bytes32 crowdsaleId, bytes32 invoiceId, uint sourceLength);\n    event EventNewCrowdsaleSource(bytes32 crowdsaleId, bytes32 invoiceId, uint sourceLength);\n    // Bank events\n    event EventWithdrawPPT(bytes32 accountId, address depositContract, address to, uint amount);\n    event EventWithdrawPokens(bytes32 accountId, address to, uint amount, bytes32 currency);\n    event EventImportPokens(address from, bytes32 accountId, bytes32 currency, uint balance);\n    event EventNewCurrency(bytes32 tokenName, uint8 decimalUnits, bytes32 tokenSymbol, address addr);\n    event EventNewDepositContract(bytes32 clientId, address depositContractAddress);\n\n    // FIELDS\n    mapping(bytes32 => address) currencies;\n    mapping(address => bytes32) currenciesSymbols;\n\n\n    // This variable will be used to keep track of client IDs and\n    // their deposit addresses\n    // clientId => depositAddress\n    mapping (bytes32 => address) depositAddress;\n\n    struct storageSource {\n        bytes dataHash;\n        bytes32 dataSource; // upload provider: ipfs / aws (uploaded to our aws server) / ... who provides the storage for this information.\n        bytes32 dataType; // crowdsale (creators, bids) + addresses /exchange_date/deposit_history (latest)/ -- for external auditing.\n    }\n\n    struct record {\n       bytes32 invoiceId;\n       bool isSet;\n       storageSource[] documents; //source[0] = [\"0x23222324\"]\n    }\n\n    //crowdsaleId => (invoiceId, documents [\"crowdsale_log\",\"exchange_history\",\"deposit_history\"])\n    mapping(bytes32 => record) Blocks;\n\n\n    // NON-CONSTANT METHODS\n    // Constructor method called when contract instance is \n    // deployed with 'withAccessManager' modifier.\n    function Populous(address _accessManager) public withAccessManager(_accessManager) { }\n    /**\n    BANK MODULE\n    */\n\n\n    // NON-CONSTANT METHODS\n    function insertBlock(bytes32 _crowdsaleId, bytes32 _invoiceId, \n        bytes _ipfsHash, bytes32 _dataType) \n    public\n    onlyServer\n    {\n        require(Blocks[_crowdsaleId].isSet == false);\n        Blocks[_crowdsaleId].documents.push(storageSource(\n           _ipfsHash,\n           \"ipfs\",\n           _dataType)\n        );\n\n        // record the history of a crowdsale on the ledger, with internal and external logs, and interal address too so it can be easily audited using etherscan\n        Blocks[_crowdsaleId].invoiceId = _invoiceId;\n\n        Blocks[_crowdsaleId].isSet = true;\n        EventNewCrowdsaleBlock(_crowdsaleId, _invoiceId, getRecordDocumentIndexes(_crowdsaleId));\n\n    }\n\n    function insertSource(bytes32 _crowdsaleId, bytes _dataHash, bytes32 _dataSource, bytes32 _dataType) public {\n        require(Blocks[_crowdsaleId].isSet == true);\n\n        Blocks[_crowdsaleId].documents.push(storageSource(\n           _dataHash,\n           _dataSource,\n           _dataType)\n        );\n        EventNewCrowdsaleSource(_crowdsaleId, Blocks[_crowdsaleId].invoiceId, getRecordDocumentIndexes(_crowdsaleId));\n    }\n    /** @dev Creates a new 'depositAddress' gotten from deploying a deposit contract linked to a client ID\n      * @param clientId The bytes32 client ID\n      * @return address The address of the deployed deposit contract instance.\n      */\n    function createAddress(bytes32 clientId) public\n        onlyServer\n    {\n        depositAddress[clientId] = new DepositContract(clientId, AM);\n        assert(depositAddress[clientId] != 0x0);\n\n        EventNewDepositContract(clientId, depositAddress[clientId]);\n    }\n\n    /** @dev Creates a new token/currency.\n      * @param _tokenName  The name of the currency.\n      * @param _decimalUnits The number of decimals the currency has.\n      * @param _tokenSymbol The cyrrency symbol, e.g., GBP\n      */\n    function createCurrency(bytes32 _tokenName, uint8 _decimalUnits, bytes32 _tokenSymbol)\n        public\n        onlyServer\n    {\n        // Check if currency already exists\n        require(currencies[_tokenSymbol] == 0x0);\n\n        currencies[_tokenSymbol] = new CurrencyToken(address(AM), _tokenName, _decimalUnits, _tokenSymbol);\n        \n        assert(currencies[_tokenSymbol] != 0x0);\n\n        currenciesSymbols[currencies[_tokenSymbol]] = _tokenSymbol;\n\n        EventNewCurrency(_tokenName, _decimalUnits, _tokenSymbol, currencies[_tokenSymbol]);\n    }\n\n    \n    function withdrawPPT(address pptAddress, bytes32 accountId, address depositContract, address to, uint amount, uint inCollateral) public onlyServer {\n        DepositContract o = DepositContract(depositContract);\n        uint PPT_balance = SafeMath.safeSub(o.balanceOf(pptAddress), inCollateral);\n        require((PPT_balance >= amount) && (o.transfer(pptAddress, to, amount) == true));\n        EventWithdrawPPT(accountId, depositContract, to, amount);\n    }\n    \n    function importPokens(bytes32 currency, address from, bytes32 accountId) public onlyServer {\n        CurrencyToken CT = CurrencyToken(currencies[currency]);\n        \n        //check balance.\n        uint256 balance = CT.balanceOf(from);\n        //balance is more than 0, and balance has been destroyed.\n        require(CT.balanceOf(from) > 0 && CT.destroyTokensFrom(balance, from) == true);\n        //emit event: Imported currency to system\n        EventImportPokens(from, accountId,currency,balance);\n    }\n\n\n    function withdrawPoken(bytes32 accountId, address to, uint amount, bytes32 currency) public onlyServer {\n        require(currencies[currency] != 0x0);\n\n        CurrencyToken cT = CurrencyToken(currencies[currency]);\n        \n        //credit ledger\n        cT.mintTokens(amount);\n        //credit account\n        cT.transfer(to, amount);\n\n        //emit event: Imported currency to system\n        EventWithdrawPokens(accountId, to, amount, currency);\n    }\n\n    // CONSTANT METHODS\n\n\n    /** @dev Gets the address of a currency.\n      * @param currency The currency.\n      * @return address The currency address.\n      */\n    function getCurrency(bytes32 currency) public view returns (address) {\n        return currencies[currency];\n    }\n\n    /** @dev Gets the currency symbol of a currency.\n      * @param currency The currency.\n      * @return bytes32 The currency sybmol, e.g., GBP.\n      */\n    function getCurrencySymbol(address currency) public view returns (bytes32) {\n        return currenciesSymbols[currency];\n    }\n    /** @dev Gets the deposit address linked to a given client ID.\n      * @param clientId The client ID.\n      * @return address The deposit address.\n      */\n    function getDepositAddress(bytes32 clientId) public view returns (address) {\n        return depositAddress[clientId];\n    }\n    function getRecord(bytes32 _crowdsaleId, uint documentIndex) public view \n    returns(bytes32, bytes, bytes32, bytes32) \n    {\n        return (Blocks[_crowdsaleId].invoiceId,\n                Blocks[_crowdsaleId].documents[documentIndex].dataHash,\n                Blocks[_crowdsaleId].documents[documentIndex].dataSource,\n                Blocks[_crowdsaleId].documents[documentIndex].dataType\n                );\n    }\n\n    function getRecordDocumentIndexes(bytes32 _crowdsaleId) public view\n    returns(uint)\n    {\n        return Blocks[_crowdsaleId].documents.length;\n    }\n}",
  "sourcePath": "/Users/wisdom/Documents/GitHub/populous-smartcontracts/contracts/Populous.sol",
  "compiler": {
    "name": "solc",
    "version": "0.4.19+commit.c4cbbb05.Emscripten.clang"
  },
  "schemaVersion": "2.0.0",
  "updatedAt": "2018-03-05T08:16:22.771Z"
}