{
  "contractName": "Populous",
  "abi": [
    {
      "constant": false,
      "inputs": [
        {
          "name": "_accessManager",
          "type": "address"
        }
      ],
      "name": "updateAccessManager",
      "outputs": [],
      "payable": false,
      "stateMutability": "nonpayable",
      "type": "function"
    },
    {
      "constant": false,
      "inputs": [
        {
          "name": "_operator",
          "type": "address"
        },
        {
          "name": "_from",
          "type": "address"
        },
        {
          "name": "_tokenId",
          "type": "uint256"
        },
        {
          "name": "_data",
          "type": "bytes"
        }
      ],
      "name": "onERC721Received",
      "outputs": [
        {
          "name": "",
          "type": "bytes4"
        }
      ],
      "payable": false,
      "stateMutability": "nonpayable",
      "type": "function"
    },
    {
      "constant": false,
      "inputs": [
        {
          "name": "_dataManager",
          "type": "address"
        },
        {
          "name": "_blockchainActionId",
          "type": "bytes32"
        },
        {
          "name": "currency",
          "type": "bytes32"
        },
        {
          "name": "amount",
          "type": "uint256"
        },
        {
          "name": "from",
          "type": "address"
        },
        {
          "name": "to",
          "type": "address"
        },
        {
          "name": "accountId",
          "type": "bytes32"
        },
        {
          "name": "inCollateral",
          "type": "uint256"
        },
        {
          "name": "pptFee",
          "type": "uint256"
        },
        {
          "name": "adminExternalWallet",
          "type": "address"
        }
      ],
      "name": "withdrawPoken",
      "outputs": [],
      "payable": false,
      "stateMutability": "nonpayable",
      "type": "function"
    },
    {
      "constant": false,
      "inputs": [
        {
          "name": "_dataManager",
          "type": "address"
        },
        {
          "name": "_blockchainActionId",
          "type": "bytes32"
        },
        {
          "name": "pptAddress",
          "type": "address"
        },
        {
          "name": "accountId",
          "type": "bytes32"
        },
        {
          "name": "to",
          "type": "address"
        },
        {
          "name": "amount",
          "type": "uint256"
        },
        {
          "name": "inCollateral",
          "type": "uint256"
        },
        {
          "name": "pptFee",
          "type": "uint256"
        },
        {
          "name": "adminExternalWallet",
          "type": "address"
        }
      ],
      "name": "withdrawERC20",
      "outputs": [],
      "payable": false,
      "stateMutability": "nonpayable",
      "type": "function"
    },
    {
      "constant": false,
      "inputs": [
        {
          "name": "_dataManager",
          "type": "address"
        },
        {
          "name": "_blockchainActionId",
          "type": "bytes32"
        },
        {
          "name": "erc20_tokenAddress",
          "type": "address"
        },
        {
          "name": "erc20_amount",
          "type": "uint256"
        },
        {
          "name": "xaup_amount",
          "type": "uint256"
        },
        {
          "name": "_tokenId",
          "type": "uint256"
        },
        {
          "name": "_clientId",
          "type": "bytes32"
        },
        {
          "name": "adminExternalWallet",
          "type": "address"
        }
      ],
      "name": "exchangeXAUP",
      "outputs": [],
      "payable": false,
      "stateMutability": "nonpayable",
      "type": "function"
    },
    {
      "constant": true,
      "inputs": [
        {
          "name": "",
          "type": "bytes8"
        }
      ],
      "name": "tokenDetails",
      "outputs": [
        {
          "name": "_token",
          "type": "address"
        },
        {
          "name": "_precision",
          "type": "uint256"
        }
      ],
      "payable": false,
      "stateMutability": "view",
      "type": "function"
    },
    {
      "constant": true,
      "inputs": [
        {
          "name": "tokenName",
          "type": "bytes8"
        }
      ],
      "name": "getTokenAddress",
      "outputs": [
        {
          "name": "token",
          "type": "address"
        }
      ],
      "payable": false,
      "stateMutability": "view",
      "type": "function"
    },
    {
      "constant": false,
      "inputs": [
        {
          "name": "_dataManager",
          "type": "address"
        },
        {
          "name": "_blockchainActionId",
          "type": "bytes32"
        },
        {
          "name": "clientId",
          "type": "bytes32"
        }
      ],
      "name": "createAddress",
      "outputs": [],
      "payable": false,
      "stateMutability": "nonpayable",
      "type": "function"
    },
    {
      "constant": false,
      "inputs": [
        {
          "name": "_dataManager",
          "type": "address"
        },
        {
          "name": "_blockchainActionId",
          "type": "bytes32"
        },
        {
          "name": "_providerUserId",
          "type": "bytes32"
        },
        {
          "name": "_invoiceCountryCode",
          "type": "bytes2"
        },
        {
          "name": "_invoiceCompanyNumber",
          "type": "bytes32"
        },
        {
          "name": "_invoiceCompanyName",
          "type": "bytes32"
        },
        {
          "name": "_invoiceNumber",
          "type": "bytes32"
        }
      ],
      "name": "addInvoice",
      "outputs": [],
      "payable": false,
      "stateMutability": "nonpayable",
      "type": "function"
    },
    {
      "constant": true,
      "inputs": [
        {
          "name": "tokenName",
          "type": "bytes8"
        }
      ],
      "name": "getTokenPrecision",
      "outputs": [
        {
          "name": "precision",
          "type": "uint256"
        }
      ],
      "payable": false,
      "stateMutability": "view",
      "type": "function"
    },
    {
      "constant": false,
      "inputs": [
        {
          "name": "_operator",
          "type": "address"
        },
        {
          "name": "_from",
          "type": "address"
        },
        {
          "name": "_id",
          "type": "uint256"
        },
        {
          "name": "_value",
          "type": "uint256"
        },
        {
          "name": "_data",
          "type": "bytes"
        }
      ],
      "name": "onERC1155Received",
      "outputs": [
        {
          "name": "",
          "type": "bytes4"
        }
      ],
      "payable": false,
      "stateMutability": "nonpayable",
      "type": "function"
    },
    {
      "constant": true,
      "inputs": [],
      "name": "AM",
      "outputs": [
        {
          "name": "",
          "type": "address"
        }
      ],
      "payable": false,
      "stateMutability": "view",
      "type": "function"
    },
    {
      "inputs": [
        {
          "name": "_accessManager",
          "type": "address"
        }
      ],
      "payable": false,
      "stateMutability": "nonpayable",
      "type": "constructor"
    },
    {
      "anonymous": false,
      "inputs": [
        {
          "indexed": false,
          "name": "_blockchainActionId",
          "type": "bytes32"
        },
        {
          "indexed": false,
          "name": "erc20_tokenAddress",
          "type": "address"
        },
        {
          "indexed": false,
          "name": "erc20_amount",
          "type": "uint256"
        },
        {
          "indexed": false,
          "name": "xaup_amount",
          "type": "uint256"
        },
        {
          "indexed": false,
          "name": "_tokenId",
          "type": "uint256"
        },
        {
          "indexed": false,
          "name": "_clientId",
          "type": "bytes32"
        },
        {
          "indexed": false,
          "name": "_from",
          "type": "address"
        }
      ],
      "name": "EventExchangeXAUp",
      "type": "event"
    },
    {
      "anonymous": false,
      "inputs": [
        {
          "indexed": false,
          "name": "blockchainActionId",
          "type": "bytes32"
        },
        {
          "indexed": false,
          "name": "oldDepositContract",
          "type": "address"
        },
        {
          "indexed": false,
          "name": "newDepositContract",
          "type": "address"
        },
        {
          "indexed": false,
          "name": "clientId",
          "type": "bytes32"
        },
        {
          "indexed": false,
          "name": "version",
          "type": "uint256"
        }
      ],
      "name": "EventDepositAddressUpgrade",
      "type": "event"
    },
    {
      "anonymous": false,
      "inputs": [
        {
          "indexed": false,
          "name": "blockchainActionId",
          "type": "bytes32"
        },
        {
          "indexed": false,
          "name": "accountId",
          "type": "bytes32"
        },
        {
          "indexed": false,
          "name": "depositContract",
          "type": "address"
        },
        {
          "indexed": false,
          "name": "to",
          "type": "address"
        },
        {
          "indexed": false,
          "name": "amount",
          "type": "uint256"
        }
      ],
      "name": "EventWithdrawPPT",
      "type": "event"
    },
    {
      "anonymous": false,
      "inputs": [
        {
          "indexed": false,
          "name": "_blockchainActionId",
          "type": "bytes32"
        },
        {
          "indexed": false,
          "name": "accountId",
          "type": "bytes32"
        },
        {
          "indexed": false,
          "name": "currency",
          "type": "bytes32"
        },
        {
          "indexed": false,
          "name": "amount",
          "type": "uint256"
        }
      ],
      "name": "EventWithdrawPoken",
      "type": "event"
    },
    {
      "anonymous": false,
      "inputs": [
        {
          "indexed": false,
          "name": "blockchainActionId",
          "type": "bytes32"
        },
        {
          "indexed": false,
          "name": "tokenName",
          "type": "bytes32"
        },
        {
          "indexed": false,
          "name": "decimalUnits",
          "type": "uint8"
        },
        {
          "indexed": false,
          "name": "tokenSymbol",
          "type": "bytes32"
        },
        {
          "indexed": false,
          "name": "addr",
          "type": "address"
        }
      ],
      "name": "EventNewCurrency",
      "type": "event"
    },
    {
      "anonymous": false,
      "inputs": [
        {
          "indexed": false,
          "name": "blockchainActionId",
          "type": "bytes32"
        },
        {
          "indexed": false,
          "name": "clientId",
          "type": "bytes32"
        },
        {
          "indexed": false,
          "name": "depositContractAddress",
          "type": "address"
        },
        {
          "indexed": false,
          "name": "version",
          "type": "uint256"
        }
      ],
      "name": "EventNewDepositContract",
      "type": "event"
    },
    {
      "anonymous": false,
      "inputs": [
        {
          "indexed": false,
          "name": "_blockchainActionId",
          "type": "bytes32"
        },
        {
          "indexed": false,
          "name": "_providerUserId",
          "type": "bytes32"
        },
        {
          "indexed": false,
          "name": "invoiceCountryCode",
          "type": "bytes2"
        },
        {
          "indexed": false,
          "name": "invoiceCompanyNumber",
          "type": "bytes32"
        },
        {
          "indexed": false,
          "name": "invoiceCompanyName",
          "type": "bytes32"
        },
        {
          "indexed": false,
          "name": "invoiceNumber",
          "type": "bytes32"
        }
      ],
      "name": "EventNewInvoice",
      "type": "event"
    },
    {
      "anonymous": false,
      "inputs": [
        {
          "indexed": false,
          "name": "_blockchainActionId",
          "type": "bytes32"
        },
        {
          "indexed": false,
          "name": "_userId",
          "type": "bytes32"
        },
        {
          "indexed": false,
          "name": "_companyName",
          "type": "bytes32"
        },
        {
          "indexed": false,
          "name": "_companyNumber",
          "type": "bytes32"
        },
        {
          "indexed": false,
          "name": "countryCode",
          "type": "bytes2"
        }
      ],
      "name": "EventNewProvider",
      "type": "event"
    }
  ],
  "bytecode": "0x6060604052341561000f57600080fd5b6040516020806137918339810160405280805160008054600160a060020a03909216600160a060020a031992831617815560016020527fc1ee47c52a7b34bb9e05588a03eb18c9c810d5a67689e63a421233cda146257f8054831673d8a7c588f8dc19f49dafd8ecf08eec58e64d4cc917905560087fc1ee47c52a7b34bb9e05588a03eb18c9c810d5a67689e63a421233cda14625808190557f6b23dc0faa4de07f90ea4463993058b021d1258056c8b07ad6aee4384b79096e8054841673f930f2c7bc02f89d05468112520553ffc6d2480117905560067f6b23dc0faa4de07f90ea4463993058b021d1258056c8b07ad6aee4384b79096f557f909c1d54b5c4da165add65d90313e17e0de74aa10a8a0a327e254faae6971944805484167378e7bee398d66660bdf820dbdb415a33d011cd4817905560127f909c1d54b5c4da165add65d90313e17e0de74aa10a8a0a327e254faae6971945557f2c6379ca2c83a957e0e33b79bf5f499e3437bdc022951391661524f3e473ebfd80548416730ff72e24af7c09a647865820d4477f98fcb72a2c1790557f2c6379ca2c83a957e0e33b79bf5f499e3437bdc022951391661524f3e473ebfe557a58415500000000000000000000000000000000000000000000000081527f5b61a34fc175c19d1a4e74ce629a51a3a9a6de769c03f11be4bb3c488642d88a8054909216734974d66e391bf05270384364d14c306246d075fd179091557f5b61a34fc175c19d1a4e74ce629a51a3a9a6de769c03f11be4bb3c488642d88b555050613538806102596000396000f3006060604052361561009e5763ffffffff60e060020a60003504166302ab72c481146100a3578063150b7a02146100c457806319041ee2146101655780633da4138c146101b05780635904243e146101f6578063878f666b146102355780638fde520414610277578063a78caf19146102b3578063aa1b6fc6146102d8578063aa79fc1214610313578063f23a6e6114610345578063f7f01b4b146103b6575b600080fd5b34156100ae57600080fd5b6100c2600160a060020a03600435166103c9565b005b34156100cf57600080fd5b610130600160a060020a036004803582169160248035909116916044359160849060643590810190830135806020601f8201819004810201604051908101604052818152929190602084018383808284375094965061047c95505050505050565b6040517fffffffff00000000000000000000000000000000000000000000000000000000909116815260200160405180910390f35b341561017057600080fd5b6100c2600160a060020a0360043581169060243590604435906064359060843581169060a43581169060c4359060e43590610104359061012435166104a5565b34156101bb57600080fd5b6100c2600160a060020a03600435811690602435906044358116906064359060843581169060a4359060c4359060e435906101043516610e8f565b341561020157600080fd5b6100c2600160a060020a0360043581169060243590604435811690606435906084359060a4359060c4359060e43516611452565b341561024057600080fd5b610255600160c060020a031960043516611979565b604051600160a060020a03909216825260208201526040908101905180910390f35b341561028257600080fd5b610297600160c060020a03196004351661199e565b604051600160a060020a03909116815260200160405180910390f35b34156102be57600080fd5b6100c2600160a060020a03600435166024356044356119c3565b34156102e357600080fd5b6100c2600160a060020a0360043516602435604435600160f060020a03196064351660843560a43560c435612424565b341561031e57600080fd5b610333600160c060020a031960043516612737565b60405190815260200160405180910390f35b341561035057600080fd5b610130600160a060020a0360048035821691602480359091169160443591606435919060a49060843590810190830135806020601f8201819004810201604051908101604052818152929190602084018383808284375094965061275795505050505050565b34156103c157600080fd5b610297612781565b60008054600160a060020a03169063fda089589033906040516020015260405160e060020a63ffffffff8416028152600160a060020a039091166004820152602401602060405180830381600087803b151561042457600080fd5b6102c65a03f1151561043557600080fd5b50505060405180511515600114905061044d57600080fd5b6000805473ffffffffffffffffffffffffffffffffffffffff1916600160a060020a0392909216919091179055565b7f150b7a0200000000000000000000000000000000000000000000000000000000949350505050565b60008054600160a060020a031663fda0895833836040516020015260405160e060020a63ffffffff8416028152600160a060020a039091166004820152602401602060405180830381600087803b15156104fe57600080fd5b6102c65a03f1151561050f57600080fd5b50505060405180511515600114905061052757600080fd5b600160a060020a038b16151561053c57600080fd5b8a600160a060020a031663bea0897c8b60006040516020015260405160e060020a63ffffffff84160281526004810191909152602401602060405180830381600087803b151561058b57600080fd5b6102c65a03f1151561059c57600080fd5b5050506040518051159050801561062457508a600160a060020a0316632a01a4518660006040516020015260405160e060020a63ffffffff84160281526004810191909152602401602060405180830381600087803b15156105fd57600080fd5b6102c65a03f1151561060e57600080fd5b5050506040518051600160a060020a0316151590505b151561062f57600080fd5b600160a060020a038216158015906106475750600083115b80156106535750600088115b151561065e57600080fd5b8a600160a060020a031663d383b80d8a60006040516020015260405160e060020a63ffffffff84160281526004810191909152602401602060405180830381600087803b15156106ad57600080fd5b6102c65a03f115156106be57600080fd5b5050506040518051600160a060020a0316151590506106dc57600080fd5b8a600160a060020a0316632a01a4518660006040516020015260405160e060020a63ffffffff84160281526004810191909152602401602060405180830381600087803b151561072b57600080fd5b6102c65a03f1151561073c57600080fd5b50505060405180517a505054000000000000000000000000000000000000000000000000600090815260016020527f2c6379ca2c83a957e0e33b79bf5f499e3437bdc022951391661524f3e473ebfd5491935085925061081291600160a060020a03808616926370a0823192909116906040516020015260405160e060020a63ffffffff8416028152600160a060020a039091166004820152602401602060405180830381600087803b15156107f157600080fd5b6102c65a03f1151561080257600080fd5b5050506040518051905086612790565b101561081d57600080fd5b7a505054000000000000000000000000000000000000000000000000600090815260016020527f2c6379ca2c83a957e0e33b79bf5f499e3437bdc022951391661524f3e473ebfd54600160a060020a038084169263beabacc89290911690859087906040516020015260405160e060020a63ffffffff8616028152600160a060020a0393841660048201529190921660248201526044810191909152606401602060405180830381600087803b15156108d557600080fd5b6102c65a03f115156108e657600080fd5b5050506040518051151560011490506108fe57600080fd5b8a600160a060020a031663d383b80d8a60006040516020015260405160e060020a63ffffffff84160281526004810191909152602401602060405180830381600087803b151561094d57600080fd5b6102c65a03f1151561095e57600080fd5b50505060405180519050600160a060020a03166370a082318860006040516020015260405160e060020a63ffffffff8416028152600160a060020a039091166004820152602401602060405180830381600087803b15156109be57600080fd5b6102c65a03f115156109cf57600080fd5b50505060405180519050881115610baf578a600160a060020a031663d383b80d8a60006040516020015260405160e060020a63ffffffff84160281526004810191909152602401602060405180830381600087803b1515610a2f57600080fd5b6102c65a03f11515610a4057600080fd5b50505060405180519050600160a060020a0316630156b3238c600160a060020a031663d383b80d8c60006040516020015260405160e060020a63ffffffff84160281526004810191909152602401602060405180830381600087803b1515610aa757600080fd5b6102c65a03f11515610ab857600080fd5b50505060405180519050600160a060020a03166370a082318a60006040516020015260405160e060020a63ffffffff8416028152600160a060020a039091166004820152602401602060405180830381600087803b1515610b1857600080fd5b6102c65a03f11515610b2957600080fd5b505050604051805190508960006040516020015260405160e060020a63ffffffff85160281526004810192909252600160a060020a03166024820152604401602060405180830381600087803b1515610b8157600080fd5b6102c65a03f11515610b9257600080fd5b505050604051805115156001149050610baa57600080fd5b610c9f565b8a600160a060020a031663d383b80d8a60006040516020015260405160e060020a63ffffffff84160281526004810191909152602401602060405180830381600087803b1515610bfe57600080fd5b6102c65a03f11515610c0f57600080fd5b50505060405180519050600160a060020a0316630156b323898960006040516020015260405160e060020a63ffffffff85160281526004810192909252600160a060020a03166024820152604401602060405180830381600087803b1515610c7657600080fd5b6102c65a03f11515610c8757600080fd5b505050604051805115156001149050610c9f57600080fd5b8a600160a060020a031663d383b80d8a60006040516020015260405160e060020a63ffffffff84160281526004810191909152602401602060405180830381600087803b1515610cee57600080fd5b6102c65a03f11515610cff57600080fd5b50505060405180519050600160a060020a03166323b872dd33888b60006040516020015260405160e060020a63ffffffff8616028152600160a060020a0393841660048201529190921660248201526044810191909152606401602060405180830381600087803b1515610d7257600080fd5b6102c65a03f11515610d8357600080fd5b50505060405180515050600160a060020a038b166392c4b8678b8b8b898b8960006040516020015260405160e060020a63ffffffff89160281526004810196909652602486019490945260448501929092526064840152600160a060020a0316608483015260a482015260c401602060405180830381600087803b1515610e0957600080fd5b6102c65a03f11515610e1a57600080fd5b505050604051805115156001149050610e3257600080fd5b7f7ad4d17a5e7c561e98e5c4a65c9108011dda4b022882de21c25c530df0054a6c8a868b8b604051938452602084019290925260408084019190915260608301919091526080909101905180910390a15050505050505050505050565b6000805481908190600160a060020a031663fda0895833836040516020015260405160e060020a63ffffffff8416028152600160a060020a039091166004820152602401602060405180830381600087803b1515610eec57600080fd5b6102c65a03f11515610efd57600080fd5b505050604051805115156001149050610f1557600080fd5b600160a060020a038c161515610f2a57600080fd5b8b600160a060020a031663bea0897c8c60006040516020015260405160e060020a63ffffffff84160281526004810191909152602401602060405180830381600087803b1515610f7957600080fd5b6102c65a03f11515610f8a57600080fd5b5050506040518051159050801561101257508b600160a060020a0316632a01a4518a60006040516020015260405160e060020a63ffffffff84160281526004810191909152602401602060405180830381600087803b1515610feb57600080fd5b6102c65a03f11515610ffc57600080fd5b5050506040518051600160a060020a0316151590505b151561101d57600080fd5b600160a060020a038416158015906110355750600085115b80156110415750600087115b151561104c57600080fd5b8b600160a060020a0316632a01a4518a60006040516020015260405160e060020a63ffffffff84160281526004810191909152602401602060405180830381600087803b151561109b57600080fd5b6102c65a03f115156110ac57600080fd5b50505060405180519050925061113383600160a060020a03166370a082318c60006040516020015260405160e060020a63ffffffff8416028152600160a060020a039091166004820152602401602060405180830381600087803b151561111257600080fd5b6102c65a03f1151561112357600080fd5b5050506040518051905087612790565b915061113f87866127a2565b82101561114b57600080fd5b82600160a060020a031663beabacc88b8a8a60006040516020015260405160e060020a63ffffffff8616028152600160a060020a0393841660048201529190921660248201526044810191909152606401602060405180830381600087803b15156111b557600080fd5b6102c65a03f115156111c657600080fd5b5050506040518051151560011490506111de57600080fd5b82600160a060020a031663beabacc88b868860006040516020015260405160e060020a63ffffffff8616028152600160a060020a0393841660048201529190921660248201526044810191909152606401602060405180830381600087803b151561124857600080fd5b6102c65a03f1151561125957600080fd5b50505060405180511515600114905061127157600080fd5b89600160a060020a03166395d89b416000604051602001526040518163ffffffff1660e060020a028152600401602060405180830381600087803b15156112b757600080fd5b6102c65a03f115156112c857600080fd5b5050506040518051915050600160a060020a038c166392c4b8678c838a8d8d8b60006040516020015260405160e060020a63ffffffff89160281526004810196909652602486019490945260448501929092526064840152600160a060020a0316608483015260a482015260c401602060405180830381600087803b151561134f57600080fd5b6102c65a03f1151561136057600080fd5b50505060405180511515600114905061137857600080fd5b7fb34e83f654f4c047e331cea47cc1783dd0511abde3cac240a47bfbdefd6812e88b8a8e600160a060020a0316632a01a4518d60006040516020015260405160e060020a63ffffffff84160281526004810191909152602401602060405180830381600087803b15156113ea57600080fd5b6102c65a03f115156113fb57600080fd5b505050604051805190508b8b6040519485526020850193909352600160a060020a0391821660408086019190915291166060840152608083019190915260a0909101905180910390a1505050505050505050505050565b6000805481908190600160a060020a031663fda0895833836040516020015260405160e060020a63ffffffff8416028152600160a060020a039091166004820152602401602060405180830381600087803b15156114af57600080fd5b6102c65a03f115156114c057600080fd5b5050506040518051151560011490506114d857600080fd5b7a584155000000000000000000000000000000000000000000000000600090815260016020527f5b61a34fc175c19d1a4e74ce629a51a3a9a6de769c03f11be4bb3c488642d88a548c9450600160a060020a039081169350841690632a01a4519087906040516020015260405160e060020a63ffffffff84160281526004810191909152602401602060405180830381600087803b151561157857600080fd5b6102c65a03f1151561158957600080fd5b5050506040518051915050600160a060020a038b16158015906115b45750600160a060020a03811615155b80156115c85750600160a060020a03891615155b801561163b575082600160a060020a031663bea0897c8b60006040516020015260405160e060020a63ffffffff84160281526004810191909152602401602060405180830381600087803b151561161e57600080fd5b6102c65a03f1151561162f57600080fd5b50505060405180511590505b80156116a85750600281600160a060020a0316630d8e6e2c6000604051602001526040518163ffffffff1660e060020a028152600401602060405180830381600087803b151561168a57600080fd5b6102c65a03f1151561169b57600080fd5b5050506040518051905010155b801561172c57508682600160a060020a0316633656eec2883360006040516020015260405160e060020a63ffffffff85160281526004810192909252600160a060020a03166024820152604401602060405180830381600087803b151561170e57600080fd5b6102c65a03f1151561171f57600080fd5b5050506040518051905010155b151561173757600080fd5b80600160a060020a031663beabacc88a868b60006040516020015260405160e060020a63ffffffff8616028152600160a060020a0393841660048201529190921660248201526044810191909152606401602060405180830381600087803b15156117a157600080fd5b6102c65a03f115156117b257600080fd5b5050506040518051151560011490506117ca57600080fd5b81600160a060020a031663f242432a3383898b60405160e060020a63ffffffff8716028152600160a060020a0394851660048201529290931660248301526044820152606481019190915260a06084820152600060a4820181905260e49091019060405180830381600087803b151561184257600080fd5b6102c65a03f1151561185357600080fd5b50505082600160a060020a03166392c4b8678b60008b89866000806040516020015260405160e060020a63ffffffff89160281526004810196909652602486019490945260448501929092526064840152600160a060020a0316608483015260a482015260c401602060405180830381600087803b15156118d357600080fd5b6102c65a03f115156118e457600080fd5b5050506040518051151560011490506118fc57600080fd5b7f3a0f94ac6dfce4f3ae7bdb44dc7ca27dfc76d4747283fbbea8cc33c59cc35afe8a8a8a8a8a8a87604051968752600160a060020a0395861660208801526040808801959095526060870193909352608086019190915260a085015290911660c083015260e0909101905180910390a15050505050505050505050565b60016020819052600091825260409091208054910154600160a060020a039091169082565b600160c060020a031916600090815260016020526040902054600160a060020a031690565b600080548190819081908190600160a060020a031663fda0895833836040516020015260405160e060020a63ffffffff8416028152600160a060020a039091166004820152602401602060405180830381600087803b1515611a2457600080fd5b6102c65a03f11515611a3557600080fd5b505050604051805115156001149050611a4d57600080fd5b600160a060020a0388161515611a6257600080fd5b87945084600160a060020a0316632a01a4518760006040516020015260405160e060020a63ffffffff84160281526004810191909152602401602060405180830381600087803b1515611ab457600080fd5b6102c65a03f11515611ac557600080fd5b5050506040518051600160a060020a03161590506121205784600160a060020a0316632a01a4518760006040516020015260405160e060020a63ffffffff84160281526004810191909152602401602060405180830381600087803b1515611b2c57600080fd5b6102c65a03f11515611b3d57600080fd5b5050506040518051600054909450879150600160a060020a0316611b5f6127c6565b918252600160a060020a0316602082015260409081019051809103906000f0801515611b8a57600080fd5b935082600160a060020a03166040517f67657456657273696f6e282900000000000000000000000000000000000000008152600c01604051809103902060e060020a90046040518163ffffffff1660e060020a02815260040160006040518083038160008761646e5a03f1159250611c0491505057600080fd5b505060016020527fc1ee47c52a7b34bb9e05588a03eb18c9c810d5a67689e63a421233cda146257f547a50505400000000000000000000000000000000000000000000000060009081527f2c6379ca2c83a957e0e33b79bf5f499e3437bdc022951391661524f3e473ebfd54600160a060020a0392831692908116919084166370a0823184836040516020015260405160e060020a63ffffffff8416028152600160a060020a039091166004820152602401602060405180830381600087803b1515611ccf57600080fd5b6102c65a03f11515611ce057600080fd5b505050604051805190501115611deb57600160a060020a03831663beabacc88386836370a082318360006040516020015260405160e060020a63ffffffff8416028152600160a060020a039091166004820152602401602060405180830381600087803b1515611d4f57600080fd5b6102c65a03f11515611d6057600080fd5b5050506040518051905060006040516020015260405160e060020a63ffffffff8616028152600160a060020a0393841660048201529190921660248201526044810191909152606401602060405180830381600087803b1515611dc257600080fd5b6102c65a03f11515611dd357600080fd5b505050604051805115156001149050611deb57600080fd5b600083600160a060020a03166370a082318360006040516020015260405160e060020a63ffffffff8416028152600160a060020a039091166004820152602401602060405180830381600087803b1515611e4457600080fd5b6102c65a03f11515611e5557600080fd5b505050604051805190501115611f6057600160a060020a03831663beabacc88286836370a082318360006040516020015260405160e060020a63ffffffff8416028152600160a060020a039091166004820152602401602060405180830381600087803b1515611ec457600080fd5b6102c65a03f11515611ed557600080fd5b5050506040518051905060006040516020015260405160e060020a63ffffffff8616028152600160a060020a0393841660048201529190921660248201526044810191909152606401602060405180830381600087803b1515611f3757600080fd5b6102c65a03f11515611f4857600080fd5b505050604051805115156001149050611f6057600080fd5b84600160a060020a031663c9939d0e88888760006040516020015260405160e060020a63ffffffff861602815260048101939093526024830191909152600160a060020a03166044820152606401602060405180830381600087803b1515611fc757600080fd5b6102c65a03f11515611fd857600080fd5b505050604051805115156001149050611ff057600080fd5b7f0456067687d27fcf6d3db141acb08cedd0fa786fdc7d672a7ed802514669b2e0878487600160a060020a0316632a01a4518a60006040516020015260405160e060020a63ffffffff84160281526004810191909152602401602060405180830381600087803b151561206257600080fd5b6102c65a03f1151561207357600080fd5b505050604051805190508988600160a060020a0316630d8e6e2c6000604051602001526040518163ffffffff1660e060020a028152600401602060405180830381600087803b15156120c457600080fd5b6102c65a03f115156120d557600080fd5b50505060405180519050604051948552600160a060020a039384166020860152919092166040808501919091526060840192909252608083015260a0909101905180910390a161241a565b6000548690600160a060020a03166121366127c6565b918252600160a060020a0316602082015260409081019051809103906000f080151561216157600080fd5b935084600160a060020a0316630e8ba16788868960006040516020015260405160e060020a63ffffffff86160281526004810193909352600160a060020a0390911660248301526044820152606401602060405180830381600087803b15156121c957600080fd5b6102c65a03f115156121da57600080fd5b5050506040518051151560011490506121f257600080fd5b600160a060020a0385166392c4b867886000808a85632a01a45182846040516020015260405160e060020a63ffffffff84160281526004810191909152602401602060405180830381600087803b151561224b57600080fd5b6102c65a03f1151561225c57600080fd5b505050604051805190506000806040516020015260405160e060020a63ffffffff89160281526004810196909652602486019490945260448501929092526064840152600160a060020a0316608483015260a482015260c401602060405180830381600087803b15156122ce57600080fd5b6102c65a03f115156122df57600080fd5b5050506040518051151560011490506122f757600080fd5b7f0fb3e865b3e3996382296fd8ddd17b0bb8ae5d9866b08a51945a2e58cac30730878787600160a060020a0316632a01a4518a60006040516020015260405160e060020a63ffffffff84160281526004810191909152602401602060405180830381600087803b151561236957600080fd5b6102c65a03f1151561237a57600080fd5b5050506040518051905087600160a060020a0316630d8e6e2c6000604051602001526040518163ffffffff1660e060020a028152600401602060405180830381600087803b15156123ca57600080fd5b6102c65a03f115156123db57600080fd5b505050604051805190506040519384526020840192909252600160a060020a031660408084019190915260608301919091526080909101905180910390a15b5050505050505050565b60008054819081908190600160a060020a031663fda0895833836040516020015260405160e060020a63ffffffff8416028152600160a060020a039091166004820152602401602060405180830381600087803b151561248357600080fd5b6102c65a03f1151561249457600080fd5b5050506040518051151560011490506124ac57600080fd5b600160a060020a038b1615156124c157600080fd5b8a935083600160a060020a0316631529905c8a60006040516060015260405160e060020a63ffffffff84160281526004810191909152602401606060405180830381600087803b151561251357600080fd5b6102c65a03f1151561252457600080fd5b505050604051805190602001805190602001805192955090935090915050600160f060020a031983161580159061255a57508115155b801561256557508015155b151561257057600080fd5b83600160a060020a031663880a8e548b8b8b8b8b8b60006040516020015260405160e060020a63ffffffff891602815260048101969096526024860194909452600160f060020a031990921660448501526064840152608483015260a482015260c401602060405180830381600087803b15156125ec57600080fd5b6102c65a03f115156125fd57600080fd5b50505060405180511515600114905061261557600080fd5b83600160a060020a03166392c4b8678b6000808d60008060006040516020015260405160e060020a63ffffffff89160281526004810196909652602486019490945260448501929092526064840152600160a060020a0316608483015260a482015260c401602060405180830381600087803b151561269357600080fd5b6102c65a03f115156126a457600080fd5b5050506040518051151560011490506126bc57600080fd5b7f53c9402948bb1a0f1c1ff853af7d9843a08489c0e79a7066f4d6ac7a7ac7876a8a8a8a8a8a8a6040519586526020860194909452600160f060020a03199092166040808601919091526060850191909152608084019190915260a083019190915260c0909101905180910390a15050505050505050505050565b600160c060020a0319166000908152600160208190526040909120015490565b7ff23a6e610000000000000000000000000000000000000000000000000000000095945050505050565b600054600160a060020a031681565b60008282111561279c57fe5b50900390565b60008282018381108015906127b75750828110155b15156127bf57fe5b9392505050565b604051610d36806127d7833901905600606060405260028055341561001357600080fd5b604051604080610d36833981016040528080519190602001805160008054600160a060020a03909216600160a060020a03199092169190911790555050600155610cd4806100626000396000f300606060405236156100bf5763ffffffff60e060020a60003504166302ab72c481146100c457806305b1137b146100e55780630a7e880c1461011b5780630d8e6e2c14610146578063150b7a021461016b5780631aca63761461020c578063418ae26914610234578063468f262214610256578063527fe4131461027557806354fd4d50146102885780636bb3471a1461029b57806370a08231146102ae578063beabacc8146102cd578063f23a6e61146102f5578063f7f01b4b14610366575b600080fd5b34156100cf57600080fd5b6100e3600160a060020a0360043516610395565b005b34156100f057600080fd5b610107600160a060020a0360043516602435610448565b604051901515815260200160405180910390f35b341561012657600080fd5b610107600160a060020a03600435811690602435166044356064356105e8565b341561015157600080fd5b61015961077b565b60405190815260200160405180910390f35b341561017657600080fd5b6101d7600160a060020a036004803582169160248035909116916044359160849060643590810190830135806020601f8201819004810201604051908101604052818152929190602084018383808284375094965061078195505050505050565b6040517fffffffff00000000000000000000000000000000000000000000000000000000909116815260200160405180910390f35b341561021757600080fd5b610107600160a060020a03600435811690602435166044356107aa565b341561023f57600080fd5b610159600160a060020a0360043516602435610940565b341561026157600080fd5b610159600160a060020a03600435166109c1565b341561028057600080fd5b610159610a3c565b341561029357600080fd5b610159610a42565b34156102a657600080fd5b610159610a48565b34156102b957600080fd5b610159600160a060020a0360043516610a4e565b34156102d857600080fd5b610107600160a060020a0360043581169060243516604435610aea565b341561030057600080fd5b6101d7600160a060020a0360048035821691602480359091169160443591606435919060a49060843590810190830135806020601f82018190048102016040519081016040528181529291906020840183838082843750949650610c6f95505050505050565b341561037157600080fd5b610379610c99565b604051600160a060020a03909116815260200160405180910390f35b60008054600160a060020a03169063fda089589033906040516020015260405160e060020a63ffffffff8416028152600160a060020a039091166004820152602401602060405180830381600087803b15156103f057600080fd5b6102c65a03f1151561040157600080fd5b50505060405180511515600114905061041957600080fd5b6000805473ffffffffffffffffffffffffffffffffffffffff1916600160a060020a0392909216919091179055565b60008054600160a060020a031663fda0895833836040516020015260405160e060020a63ffffffff8416028152600160a060020a039091166004820152602401602060405180830381600087803b15156104a157600080fd5b6102c65a03f115156104b257600080fd5b50505060405180511515600114905080610543575060008054600160a060020a0316906305fd22d09033906040516020015260405160e060020a63ffffffff8416028152600160a060020a039091166004820152602401602060405180830381600087803b151561052257600080fd5b6102c65a03f1151561053357600080fd5b5050506040518051151560011490505b151561054e57600080fd5b600160a060020a033016318290101561056657600080fd5b600160a060020a03831682156108fc0283604051600060405180830381858888f11515600114935061059b9250505057600080fd5b7f1853ca9dc0208799379313b2b43364e45db022f073c72648fbc206dc0bacbcdc8383604051600160a060020a03909216825260208201526040908101905180910390a150600192915050565b60008054600160a060020a031663fda0895833836040516020015260405160e060020a63ffffffff8416028152600160a060020a039091166004820152602401602060405180830381600087803b151561064157600080fd5b6102c65a03f1151561065257600080fd5b505050604051805115156001149050806106e3575060008054600160a060020a0316906305fd22d09033906040516020015260405160e060020a63ffffffff8416028152600160a060020a039091166004820152602401602060405180830381600087803b15156106c257600080fd5b6102c65a03f115156106d357600080fd5b5050506040518051151560011490505b15156106ee57600080fd5b84600160a060020a031663ae28b68c85858560405160e060020a63ffffffff8616028152600160a060020a039093166004840152602483019190915260448201526080606482015260006084820181905260c49091019060405180830381600087803b151561075c57600080fd5b6102c65a03f1151561076d57600080fd5b506001979650505050505050565b60025490565b7f150b7a0200000000000000000000000000000000000000000000000000000000949350505050565b60008054600160a060020a031663fda0895833836040516020015260405160e060020a63ffffffff8416028152600160a060020a039091166004820152602401602060405180830381600087803b151561080357600080fd5b6102c65a03f1151561081457600080fd5b505050604051805115156001149050806108a5575060008054600160a060020a0316906305fd22d09033906040516020015260405160e060020a63ffffffff8416028152600160a060020a039091166004820152602401602060405180830381600087803b151561088457600080fd5b6102c65a03f1151561089557600080fd5b5050506040518051151560011490505b15156108b057600080fd5b83600160a060020a031663b88d4fde30858560405160e060020a63ffffffff8616028152600160a060020a03938416600482015291909216602482015260448101919091526080606482015260006084820181905260c49091019060405180830381600087803b151561092257600080fd5b6102c65a03f1151561093357600080fd5b5060019695505050505050565b600082600160a060020a0316633656eec2833060006040516020015260405160e060020a63ffffffff85160281526004810192909252600160a060020a03166024820152604401602060405180830381600087803b15156109a057600080fd5b6102c65a03f115156109b157600080fd5b5050506040518051949350505050565b600081600160a060020a03166370a082313060006040516020015260405160e060020a63ffffffff8416028152600160a060020a039091166004820152602401602060405180830381600087803b1515610a1a57600080fd5b6102c65a03f11515610a2b57600080fd5b50505060405180519150505b919050565b60015490565b60025481565b60015481565b6000600160a060020a0382161515610a715750600160a060020a03301631610a37565b81600160a060020a03166370a082313060006040516020015260405160e060020a63ffffffff8416028152600160a060020a039091166004820152602401602060405180830381600087803b1515610ac857600080fd5b6102c65a03f11515610ad957600080fd5b505050604051805190509050610a37565b60008054600160a060020a031663fda0895833836040516020015260405160e060020a63ffffffff8416028152600160a060020a039091166004820152602401602060405180830381600087803b1515610b4357600080fd5b6102c65a03f11515610b5457600080fd5b50505060405180511515600114905080610be5575060008054600160a060020a0316906305fd22d09033906040516020015260405160e060020a63ffffffff8416028152600160a060020a039091166004820152602401602060405180830381600087803b1515610bc457600080fd5b6102c65a03f11515610bd557600080fd5b5050506040518051151560011490505b1515610bf057600080fd5b83600160a060020a031663a9059cbb848460006040516020015260405160e060020a63ffffffff8516028152600160a060020a0390921660048301526024820152604401602060405180830381600087803b1515610c4d57600080fd5b6102c65a03f11515610c5e57600080fd5b505050604051805195945050505050565b7ff23a6e610000000000000000000000000000000000000000000000000000000095945050505050565b600054600160a060020a0316815600a165627a7a72305820699083e75a443648c131832683bf631e93c5daaabde2d5e663159a8a63a07e3d0029a165627a7a723058204b5b931552a32fc0720421b6609b32c045e34c1a608ef67db726a88db7a78cfe0029",
  "source": "pragma solidity ^0.4.17;\n/**\nThis is the core module of the system. Currently it holds the code of\nthe Bank and crowdsale modules to avoid external calls and higher gas costs.\nIt might be a good idea in the future to split the code, separate Bank\nand crowdsale modules into external files and have the core interact with them\nwith addresses and interfaces. \n*/\nimport \"./iERC20Token.sol\";\nimport \"./CurrencyToken.sol\";\nimport \"./DepositContract.sol\";\nimport \"./SafeMath.sol\";\nimport \"./DataManager.sol\";\nimport \"./ERC1155.sol\";\nimport \"./ERC721Basic.sol\";\n\n/// @title Populous contract\ncontract Populous is withAccessManager {\n    // EVENTS\n    // Bank events\n    event EventExchangeXAUp (bytes32 _blockchainActionId, address erc20_tokenAddress, uint256 erc20_amount, uint256 xaup_amount, uint256 _tokenId, bytes32 _clientId, address _from);\n    event EventDepositAddressUpgrade(bytes32 blockchainActionId, address oldDepositContract, address newDepositContract, bytes32 clientId, uint256 version);\n    event EventWithdrawPPT(bytes32 blockchainActionId, bytes32 accountId, address depositContract, address to, uint amount);\n    event EventWithdrawPoken(bytes32 _blockchainActionId, bytes32 accountId, bytes32 currency, uint amount);\n    event EventNewCurrency(bytes32 blockchainActionId, bytes32 tokenName, uint8 decimalUnits, bytes32 tokenSymbol, address addr);\n    event EventNewDepositContract(bytes32 blockchainActionId, bytes32 clientId, address depositContractAddress, uint256 version);\n    event EventNewInvoice(bytes32 _blockchainActionId, bytes32 _providerUserId, bytes2 invoiceCountryCode, bytes32 invoiceCompanyNumber, bytes32 invoiceCompanyName, bytes32 invoiceNumber);    \n    event EventNewProvider(bytes32 _blockchainActionId, bytes32 _userId, bytes32 _companyName, bytes32 _companyNumber, bytes2 countryCode);\n    // FIELDS\n\n    // livenet\n    //address public PXT = 0xc14830E53aA344E8c14603A91229A0b925b0B262;\n    //address public PPT = 0xd4fa1460F537bb9085d22C7bcCB5DD450Ef28e3a;\n    // ropsten\n    //address public PXT = 0xD8A7C588f8DC19f49dAFd8ecf08eec58e64d4cC9;\n    //address public PPT = 0x0ff72e24AF7c09A647865820D4477F98fcB72a2c;\n\n    struct tokens {   \n        address _token;\n        uint256 _precision;\n    }\n\n    mapping(bytes8 => tokens) public tokenDetails;\n\n    // NON-CONSTANT METHODS\n    // Constructor method called when contract instance is \n    // deployed with 'withAccessManager' modifier.\n    function Populous(address _accessManager) public withAccessManager(_accessManager) \n    {   \n        //pxt\n        tokenDetails[0x505854]._token = 0xD8A7C588f8DC19f49dAFd8ecf08eec58e64d4cC9;\n        tokenDetails[0x505854]._precision = 8;\n        //usdc\n        tokenDetails[0x55534443]._token = 0xF930f2C7Bc02F89D05468112520553FFc6D24801;\n        tokenDetails[0x55534443]._precision = 6;\n        //tusd\n        tokenDetails[0x54555344]._token = 0x78e7BEE398D66660bDF820DbDB415A33d011cD48;\n        tokenDetails[0x54555344]._precision = 18;\n        //ppt\n        tokenDetails[0x505054]._token = 0x0ff72e24AF7c09A647865820D4477F98fcB72a2c;        \n        tokenDetails[0x505054]._precision = 8;\n        //xau\n        tokenDetails[0x584155]._token = 0x4974d66E391Bf05270384364D14C306246D075FD;\n        tokenDetails[0x584155]._precision = 0;\n    }\n\n    /**\n    BANK MODULE\n    */\n    // NON-CONSTANT METHODS\n     \n    /// Ether to XAUP exchange between deposit contract and Populous.sol\n    function exchangeXAUP(\n        address _dataManager, bytes32 _blockchainActionId, \n        address erc20_tokenAddress, uint erc20_amount, uint xaup_amount, \n        uint _tokenId, bytes32 _clientId, address adminExternalWallet) \n        public \n        onlyServer\n    {    \n        DataManager dm = DataManager(_dataManager);\n        ERC1155 xa = ERC1155(tokenDetails[0x584155]._token);\n        // client deposit smart contract address\n        address _depositAddress = dm.getDepositAddress(_clientId);\n        require(\n            // check dataManager contract is valid\n            _dataManager != 0x0 &&\n            // check deposit address of client\n            _depositAddress != 0x0 && \n            // check xaup token address\n            // tokenDetails[0x584155]._token != 0x0 && \n            erc20_tokenAddress != 0x0 &&\n            // check action id is unused\n            dm.getActionStatus(_blockchainActionId) == false &&\n            // deposit contract version >= 2\n            DepositContract(_depositAddress).getVersion() >= 2 &&\n            // populous server xaup balance\n            xa.balanceOf(_tokenId, msg.sender) >= xaup_amount\n        );\n        // transfer erc20 token balance from clients deposit contract to server/admin\n        require(DepositContract(_depositAddress).transfer(erc20_tokenAddress, adminExternalWallet, erc20_amount) == true);\n        // transfer xaup tokens to clients deposit address from populous server allowance\n        xa.safeTransferFrom(msg.sender, _depositAddress, _tokenId, xaup_amount, \"\");\n        // set action status in dataManager\n        require(dm.setBlockchainActionData(_blockchainActionId, 0x0, erc20_amount, _clientId, _depositAddress, 0) == true);\n        // emit event \n        EventExchangeXAUp(_blockchainActionId, erc20_tokenAddress, erc20_amount, xaup_amount, _tokenId, _clientId, _depositAddress);\n    }\n\n    /// @notice Handle the receipt of an ERC1155 type\n    function onERC1155Received(address _operator, address _from, uint256 _id, uint256 _value, bytes _data) public returns(bytes4) {\n        return 0xf23a6e61;\n    }\n\n    /// @notice Handle the receipt of an ERC721 type\n    function onERC721Received(address _operator, address _from, uint256 _tokenId, bytes _data) public returns(bytes4) {\n        return 0x150b7a02; \n    }\n\n    // Creates a new 'depositAddress' gotten from deploying a deposit contract linked to a client ID\n    function createAddress(address _dataManager, bytes32 _blockchainActionId, bytes32 clientId) \n        public\n        onlyServer\n    {   \n        require(_dataManager != 0x0);\n        DataManager dm = DataManager(_dataManager);\n        DepositContract newDepositContract;\n        DepositContract dc;\n        if (dm.getDepositAddress(clientId) != 0x0) {\n            dc = DepositContract(dm.getDepositAddress(clientId));\n            newDepositContract = new DepositContract(clientId, AM);\n            require(!dc.call(bytes4(keccak256(\"getVersion()\"))));\n            //require(dc.getVersion() < 2);\n            address PXT = tokenDetails[0x505854]._token;\n            address PPT = tokenDetails[0x505054]._token;\n            if(dc.balanceOf(PXT) > 0){\n                require(dc.transfer(PXT, newDepositContract, dc.balanceOf(PXT)) == true);\n            }\n            if(dc.balanceOf(PPT) > 0) {\n                require(dc.transfer(PPT, newDepositContract, dc.balanceOf(PPT)) == true);\n            }\n            require(dm._setDepositAddress(_blockchainActionId, clientId, newDepositContract) == true);\n            EventDepositAddressUpgrade(_blockchainActionId, address(dc), dm.getDepositAddress(clientId), clientId, newDepositContract.getVersion());\n        } else { \n            newDepositContract = new DepositContract(clientId, AM);\n            require(dm.setDepositAddress(_blockchainActionId, newDepositContract, clientId) == true);\n            require(dm.setBlockchainActionData(_blockchainActionId, 0x0, 0, clientId, dm.getDepositAddress(clientId), 0) == true);\n            EventNewDepositContract(_blockchainActionId, clientId, dm.getDepositAddress(clientId), newDepositContract.getVersion());\n        }\n    }\n\n    /** dev Creates a new token/currency.\n      * param _tokenName  The name of the currency.\n      * param _decimalUnits The number of decimals the currency has.\n      * param _tokenSymbol The currency symbol, e.g., GBP\n      */\n    /* function createCurrency(\n        address _dataManager, bytes32 _blockchainActionId, \n        bytes32 _tokenName, uint8 _decimalUnits, bytes32 _tokenSymbol)\n        public\n        onlyServer\n    {   \n        require(_dataManager != 0x0);\n        DataManager dm = DataManager(_dataManager);\n        require(dm.setCurrency(_blockchainActionId, new CurrencyToken(address(AM), _tokenName, _decimalUnits, _tokenSymbol), _tokenSymbol) == true);\n        require(dm.setBlockchainActionData(_blockchainActionId, _tokenSymbol, 0, 0x0, dm.getCurrency(_tokenSymbol), 0) == true);\n        EventNewCurrency(_blockchainActionId, _tokenName, _decimalUnits, _tokenSymbol, dm.getCurrency(_tokenSymbol));\n    } */\n\n    /** dev Add a new invoice provider to the platform  \n      * param _blockchainActionId the blockchain action id\n      * param _userId the user id of the provider\n      * param _companyNumber the providers company number\n      * param _companyName the providers company name\n      * param _countryCode the providers country code\n      /\n    function addProvider(\n        address _dataManager, bytes32 _blockchainActionId, \n        bytes32 _userId, bytes32 _companyNumber, \n        bytes32 _companyName, bytes2 _countryCode) \n        public \n        onlyServer\n    {   \n        require(_dataManager != 0x0);\n        DataManager dm = DataManager(_dataManager);\n        require(dm.setProvider(_blockchainActionId, _userId, _companyNumber, _companyName, _countryCode) == true);\n        require(dm.setBlockchainActionData(_blockchainActionId, 0x0, 0, _userId, 0x0, 0) == true);\n        EventNewProvider(_blockchainActionId, _userId, _companyName, _companyNumber, _countryCode);\n    }\n    */\n\n    /** @dev Add a new crowdsale invoice from an invoice provider to the platform  \n      * @param _blockchainActionId the blockchain action id\n      * @param _providerUserId the user id of the provider\n      * @param _invoiceCompanyNumber the providers company number\n      * @param _invoiceCompanyName the providers company name\n      * @param _invoiceCountryCode the providers country code\n      * @param _invoiceNumber the invoice identification number\n      */\n    function addInvoice(\n        address _dataManager, bytes32 _blockchainActionId, \n        bytes32 _providerUserId, bytes2 _invoiceCountryCode, \n        bytes32 _invoiceCompanyNumber, bytes32 _invoiceCompanyName, bytes32 _invoiceNumber)\n        public\n        onlyServer\n    {\n        require(_dataManager != 0x0);\n        DataManager dm = DataManager(_dataManager);\n        bytes2 countryCode;\n        bytes32 companyName;\n        bytes32 companyNumber;\n        (countryCode, companyName, companyNumber) = dm.getProviderByUserId(_providerUserId);\n        require(countryCode != 0x0 && companyName != 0x0 && companyNumber != 0x0);\n        require(dm.setInvoice(_blockchainActionId, _providerUserId, _invoiceCountryCode, _invoiceCompanyNumber, _invoiceCompanyName, _invoiceNumber) == true);\n        require(dm.setBlockchainActionData(_blockchainActionId, 0x0, 0, _providerUserId, 0x0, 0) == true);\n        EventNewInvoice(_blockchainActionId, _providerUserId, _invoiceCountryCode, _invoiceCompanyNumber, _invoiceCompanyName, _invoiceNumber);\n    }\n\n    /** dev Import an amount of pokens of a particular currency from an ethereum wallet/address to bank\n      * param _blockchainActionId the blockchain action id\n      * param accountId the account id of the client\n      * param from the blockchain address to import pokens from\n      * param currency the poken currency\n      */\n    function withdrawPoken(\n        address _dataManager, bytes32 _blockchainActionId, \n        bytes32 currency, uint256 amount,\n        address from, address to, bytes32 accountId, \n        uint256 inCollateral,\n        uint256 pptFee, address adminExternalWallet) \n        public \n        onlyServer \n    {\n        require(_dataManager != 0x0);\n        //DataManager dm = DataManager(_dataManager);\n        require(DataManager(_dataManager).getActionStatus(_blockchainActionId) == false && DataManager(_dataManager).getDepositAddress(accountId) != 0x0);\n        require(adminExternalWallet != 0x0 && pptFee > 0 && amount > 0);\n        require(DataManager(_dataManager).getCurrency(currency) != 0x0);\n        DepositContract o = DepositContract(DataManager(_dataManager).getDepositAddress(accountId));\n        // check if pptbalance minus collateral held is more than pptFee then transfer pptFee from users ppt deposit to adminWallet\n        require(SafeMath.safeSub(o.balanceOf(tokenDetails[0x505054]._token), inCollateral) >= pptFee);\n        require(o.transfer(tokenDetails[0x505054]._token, adminExternalWallet, pptFee) == true);\n        // WITHDRAW PART / DEBIT\n        if(amount > CurrencyToken(DataManager(_dataManager).getCurrency(currency)).balanceOf(from)) {\n                // destroying total balance\n            require(CurrencyToken(DataManager(_dataManager).getCurrency(currency)).destroyTokensFrom(CurrencyToken(DataManager(_dataManager).getCurrency(currency)).balanceOf(from), from) == true);\n            //remaining ledger balance. deposit address is 0\n        } else {\n                // destroy amount from balance\n            require(CurrencyToken(DataManager(_dataManager).getCurrency(currency)).destroyTokensFrom(amount, from) == true);\n            //left over deposit address balance.\n        }\n        // TRANSFER PART / CREDIT\n\n        // approve currency amount for populous for the next require to pass\n        CurrencyToken(DataManager(_dataManager).getCurrency(currency)).transferFrom(msg.sender, to, amount);\n        require(DataManager(_dataManager).setBlockchainActionData(_blockchainActionId, currency, amount, accountId, to, pptFee) == true); \n        EventWithdrawPoken(_blockchainActionId, accountId, currency, amount);\n    }\n\n    /** @dev Withdraw an amount of PPT Populous tokens to a blockchain address \n      * @param _blockchainActionId the blockchain action id\n      * @param pptAddress the address of the PPT smart contract\n      * @param accountId the account id of the client\n      * @param pptFee the amount of fees to pay in PPT tokens\n      * @param adminExternalWallet the platform admin wallet address to pay the fees to \n      * @param to the blockchain address to withdraw and transfer the pokens to\n      * @param inCollateral the amount of pokens withheld by the platform\n      */    \n    function withdrawERC20(\n        address _dataManager, bytes32 _blockchainActionId, \n        address pptAddress, bytes32 accountId, \n        address to, uint256 amount, uint256 inCollateral, uint256 pptFee, address adminExternalWallet) \n        public \n        onlyServer \n    {   \n        require(_dataManager != 0x0);\n        //DataManager dm = DataManager(_dataManager);\n        require(DataManager(_dataManager).getActionStatus(_blockchainActionId) == false && DataManager(_dataManager).getDepositAddress(accountId) != 0x0);\n        require(adminExternalWallet != 0x0 && pptFee > 0 && amount > 0);\n        address depositContract = DataManager(_dataManager).getDepositAddress(accountId);\n        uint pptBalance = SafeMath.safeSub(DepositContract(depositContract).balanceOf(pptAddress), inCollateral);\n        require(pptBalance >= SafeMath.safeAdd(amount, pptFee));\n        require(DepositContract(depositContract).transfer(pptAddress, to, amount) == true);\n        require(DepositContract(depositContract).transfer(pptAddress, adminExternalWallet, pptFee) == true); \n        bytes32 tokenSymbol = iERC20Token(pptAddress).symbol();    \n        require(DataManager(_dataManager).setBlockchainActionData(_blockchainActionId, tokenSymbol, amount, accountId, to, pptFee) == true);\n        EventWithdrawPPT(_blockchainActionId, accountId, DataManager(_dataManager).getDepositAddress(accountId), to, amount);\n    }\n    \n    // CONSTANT METHODS\n\n    function getTokenAddress(bytes8 tokenName) public view returns (address token) {\n        return tokenDetails[tokenName]._token;\n    }\n\n    function getTokenPrecision(bytes8 tokenName) public view returns (uint256 precision) {\n        return tokenDetails[tokenName]._precision;\n    }\n}",
  "sourcePath": "/Users/najienka/Desktop/populous-smartcontracts/contracts/Populous.sol",
  "schemaVersion": "1.0.0",
  "updatedAt": "2018-11-12T17:46:24.226Z"
}