{
  "contractName": "Populous",
  "abi": [
    {
      "constant": false,
      "inputs": [
        {
          "name": "crowdsaleAddr",
          "type": "address"
        }
      ],
      "name": "fundBeneficiary",
      "outputs": [],
      "payable": false,
      "stateMutability": "nonpayable",
      "type": "function"
    },
    {
      "constant": false,
      "inputs": [
        {
          "name": "_accessManager",
          "type": "address"
        }
      ],
      "name": "updateAccessManager",
      "outputs": [],
      "payable": false,
      "stateMutability": "nonpayable",
      "type": "function"
    },
    {
      "constant": false,
      "inputs": [
        {
          "name": "crowdsaleAddr",
          "type": "address"
        }
      ],
      "name": "fundWinnerGroup",
      "outputs": [],
      "payable": false,
      "stateMutability": "nonpayable",
      "type": "function"
    },
    {
      "constant": true,
      "inputs": [],
      "name": "DCM",
      "outputs": [
        {
          "name": "",
          "type": "address"
        }
      ],
      "payable": false,
      "stateMutability": "view",
      "type": "function"
    },
    {
      "constant": false,
      "inputs": [
        {
          "name": "_depositContractsManager",
          "type": "address"
        }
      ],
      "name": "setDCM",
      "outputs": [],
      "payable": false,
      "stateMutability": "nonpayable",
      "type": "function"
    },
    {
      "constant": false,
      "inputs": [
        {
          "name": "crowdsaleAddr",
          "type": "address"
        },
        {
          "name": "bidderIndex",
          "type": "uint256"
        }
      ],
      "name": "fundWinnerGroupBidder",
      "outputs": [],
      "payable": false,
      "stateMutability": "nonpayable",
      "type": "function"
    },
    {
      "constant": false,
      "inputs": [
        {
          "name": "crowdsaleAddr",
          "type": "address"
        },
        {
          "name": "groupName",
          "type": "string"
        },
        {
          "name": "goal",
          "type": "uint256"
        },
        {
          "name": "bidderId",
          "type": "bytes32"
        },
        {
          "name": "name",
          "type": "string"
        },
        {
          "name": "value",
          "type": "uint256"
        }
      ],
      "name": "initialBid",
      "outputs": [
        {
          "name": "success",
          "type": "bool"
        }
      ],
      "payable": false,
      "stateMutability": "nonpayable",
      "type": "function"
    },
    {
      "constant": false,
      "inputs": [
        {
          "name": "crowdsaleAddr",
          "type": "address"
        }
      ],
      "name": "refundLosingGroups",
      "outputs": [],
      "payable": false,
      "stateMutability": "nonpayable",
      "type": "function"
    },
    {
      "constant": false,
      "inputs": [
        {
          "name": "_currencySymbol",
          "type": "bytes32"
        },
        {
          "name": "_borrowerId",
          "type": "bytes32"
        },
        {
          "name": "_invoiceId",
          "type": "bytes32"
        },
        {
          "name": "_invoiceNumber",
          "type": "string"
        },
        {
          "name": "_invoiceAmount",
          "type": "uint256"
        },
        {
          "name": "_fundingGoal",
          "type": "uint256"
        },
        {
          "name": "_platformTaxPercent",
          "type": "uint256"
        },
        {
          "name": "_signedDocumentIPFSHash",
          "type": "string"
        },
        {
          "name": "_extraTime",
          "type": "uint256"
        }
      ],
      "name": "createCrowdsale",
      "outputs": [],
      "payable": false,
      "stateMutability": "nonpayable",
      "type": "function"
    },
    {
      "constant": false,
      "inputs": [
        {
          "name": "_crowdsaleManager",
          "type": "address"
        }
      ],
      "name": "setCM",
      "outputs": [],
      "payable": false,
      "stateMutability": "nonpayable",
      "type": "function"
    },
    {
      "constant": true,
      "inputs": [
        {
          "name": "currency",
          "type": "address"
        }
      ],
      "name": "getCurrencySymbol",
      "outputs": [
        {
          "name": "",
          "type": "bytes32"
        }
      ],
      "payable": false,
      "stateMutability": "view",
      "type": "function"
    },
    {
      "constant": false,
      "inputs": [
        {
          "name": "currency",
          "type": "bytes32"
        },
        {
          "name": "from",
          "type": "bytes32"
        },
        {
          "name": "to",
          "type": "bytes32"
        },
        {
          "name": "amount",
          "type": "uint256"
        }
      ],
      "name": "transfer",
      "outputs": [],
      "payable": false,
      "stateMutability": "nonpayable",
      "type": "function"
    },
    {
      "constant": true,
      "inputs": [
        {
          "name": "currency",
          "type": "bytes32"
        },
        {
          "name": "accountId",
          "type": "bytes32"
        }
      ],
      "name": "getLedgerEntry",
      "outputs": [
        {
          "name": "",
          "type": "uint256"
        }
      ],
      "payable": false,
      "stateMutability": "view",
      "type": "function"
    },
    {
      "constant": false,
      "inputs": [
        {
          "name": "_tokenName",
          "type": "bytes32"
        },
        {
          "name": "_decimalUnits",
          "type": "uint8"
        },
        {
          "name": "_tokenSymbol",
          "type": "bytes32"
        }
      ],
      "name": "createCurrency",
      "outputs": [],
      "payable": false,
      "stateMutability": "nonpayable",
      "type": "function"
    },
    {
      "constant": false,
      "inputs": [
        {
          "name": "crowdsaleAddr",
          "type": "address"
        },
        {
          "name": "groupIndex",
          "type": "uint256"
        },
        {
          "name": "bidderIndex",
          "type": "uint256"
        }
      ],
      "name": "refundLosingGroupBidder",
      "outputs": [],
      "payable": false,
      "stateMutability": "nonpayable",
      "type": "function"
    },
    {
      "constant": false,
      "inputs": [
        {
          "name": "clientId",
          "type": "bytes32"
        },
        {
          "name": "tokenContract",
          "type": "address"
        },
        {
          "name": "receiveCurrency",
          "type": "bytes32"
        },
        {
          "name": "depositAmount",
          "type": "uint256"
        },
        {
          "name": "receiveAmount",
          "type": "uint256"
        }
      ],
      "name": "deposit",
      "outputs": [
        {
          "name": "",
          "type": "bool"
        }
      ],
      "payable": false,
      "stateMutability": "nonpayable",
      "type": "function"
    },
    {
      "constant": false,
      "inputs": [
        {
          "name": "clientId",
          "type": "bytes32"
        }
      ],
      "name": "createDepositContract",
      "outputs": [],
      "payable": false,
      "stateMutability": "nonpayable",
      "type": "function"
    },
    {
      "constant": false,
      "inputs": [
        {
          "name": "crowdsaleAddr",
          "type": "address"
        },
        {
          "name": "paidAmount",
          "type": "uint256"
        }
      ],
      "name": "invoicePaymentReceived",
      "outputs": [],
      "payable": false,
      "stateMutability": "nonpayable",
      "type": "function"
    },
    {
      "constant": false,
      "inputs": [
        {
          "name": "currency",
          "type": "bytes32"
        },
        {
          "name": "amount",
          "type": "uint256"
        }
      ],
      "name": "mintTokens",
      "outputs": [
        {
          "name": "success",
          "type": "bool"
        }
      ],
      "payable": false,
      "stateMutability": "nonpayable",
      "type": "function"
    },
    {
      "constant": false,
      "inputs": [
        {
          "name": "from",
          "type": "address"
        },
        {
          "name": "amount",
          "type": "uint256"
        },
        {
          "name": "data",
          "type": "bytes"
        }
      ],
      "name": "tokenFallback",
      "outputs": [],
      "payable": false,
      "stateMutability": "nonpayable",
      "type": "function"
    },
    {
      "constant": true,
      "inputs": [],
      "name": "CM",
      "outputs": [
        {
          "name": "",
          "type": "address"
        }
      ],
      "payable": false,
      "stateMutability": "view",
      "type": "function"
    },
    {
      "constant": false,
      "inputs": [
        {
          "name": "crowdsaleAddr",
          "type": "address"
        },
        {
          "name": "groupIndex",
          "type": "uint256"
        },
        {
          "name": "bidderId",
          "type": "bytes32"
        },
        {
          "name": "name",
          "type": "string"
        },
        {
          "name": "value",
          "type": "uint256"
        }
      ],
      "name": "bid",
      "outputs": [
        {
          "name": "success",
          "type": "bool"
        }
      ],
      "payable": false,
      "stateMutability": "nonpayable",
      "type": "function"
    },
    {
      "constant": false,
      "inputs": [
        {
          "name": "clientId",
          "type": "bytes32"
        },
        {
          "name": "tokenContract",
          "type": "address"
        },
        {
          "name": "releaseCurrency",
          "type": "bytes32"
        },
        {
          "name": "receiver",
          "type": "address"
        },
        {
          "name": "depositIndex",
          "type": "uint256"
        }
      ],
      "name": "releaseDeposit",
      "outputs": [
        {
          "name": "",
          "type": "bool"
        }
      ],
      "payable": false,
      "stateMutability": "nonpayable",
      "type": "function"
    },
    {
      "constant": true,
      "inputs": [
        {
          "name": "currency",
          "type": "bytes32"
        }
      ],
      "name": "getCurrency",
      "outputs": [
        {
          "name": "",
          "type": "address"
        }
      ],
      "payable": false,
      "stateMutability": "view",
      "type": "function"
    },
    {
      "constant": false,
      "inputs": [
        {
          "name": "currency",
          "type": "bytes32"
        },
        {
          "name": "amount",
          "type": "uint256"
        }
      ],
      "name": "destroyTokens",
      "outputs": [
        {
          "name": "success",
          "type": "bool"
        }
      ],
      "payable": false,
      "stateMutability": "nonpayable",
      "type": "function"
    },
    {
      "constant": false,
      "inputs": [
        {
          "name": "clientExternal",
          "type": "address"
        },
        {
          "name": "clientId",
          "type": "bytes32"
        },
        {
          "name": "currency",
          "type": "bytes32"
        },
        {
          "name": "amount",
          "type": "uint256"
        }
      ],
      "name": "withdraw",
      "outputs": [],
      "payable": false,
      "stateMutability": "nonpayable",
      "type": "function"
    },
    {
      "constant": true,
      "inputs": [],
      "name": "AM",
      "outputs": [
        {
          "name": "",
          "type": "address"
        }
      ],
      "payable": false,
      "stateMutability": "view",
      "type": "function"
    },
    {
      "inputs": [
        {
          "name": "_accessManager",
          "type": "address"
        }
      ],
      "payable": false,
      "stateMutability": "nonpayable",
      "type": "constructor"
    },
    {
      "anonymous": false,
      "inputs": [
        {
          "indexed": false,
          "name": "tokenName",
          "type": "bytes32"
        },
        {
          "indexed": false,
          "name": "decimalUnits",
          "type": "uint8"
        },
        {
          "indexed": false,
          "name": "tokenSymbol",
          "type": "bytes32"
        },
        {
          "indexed": false,
          "name": "addr",
          "type": "address"
        }
      ],
      "name": "EventNewCurrency",
      "type": "event"
    },
    {
      "anonymous": false,
      "inputs": [
        {
          "indexed": false,
          "name": "currency",
          "type": "bytes32"
        },
        {
          "indexed": false,
          "name": "amount",
          "type": "uint256"
        }
      ],
      "name": "EventMintTokens",
      "type": "event"
    },
    {
      "anonymous": false,
      "inputs": [
        {
          "indexed": false,
          "name": "currency",
          "type": "bytes32"
        },
        {
          "indexed": false,
          "name": "amount",
          "type": "uint256"
        }
      ],
      "name": "EventDestroyTokens",
      "type": "event"
    },
    {
      "anonymous": false,
      "inputs": [
        {
          "indexed": false,
          "name": "currency",
          "type": "bytes32"
        },
        {
          "indexed": false,
          "name": "fromId",
          "type": "bytes32"
        },
        {
          "indexed": false,
          "name": "toId",
          "type": "bytes32"
        },
        {
          "indexed": false,
          "name": "amount",
          "type": "uint256"
        }
      ],
      "name": "EventInternalTransfer",
      "type": "event"
    },
    {
      "anonymous": false,
      "inputs": [
        {
          "indexed": false,
          "name": "to",
          "type": "address"
        },
        {
          "indexed": false,
          "name": "clientId",
          "type": "bytes32"
        },
        {
          "indexed": false,
          "name": "currency",
          "type": "bytes32"
        },
        {
          "indexed": false,
          "name": "amount",
          "type": "uint256"
        }
      ],
      "name": "EventWithdrawal",
      "type": "event"
    },
    {
      "anonymous": false,
      "inputs": [
        {
          "indexed": false,
          "name": "from",
          "type": "address"
        },
        {
          "indexed": false,
          "name": "clientId",
          "type": "bytes32"
        },
        {
          "indexed": false,
          "name": "currency",
          "type": "bytes32"
        },
        {
          "indexed": false,
          "name": "amount",
          "type": "uint256"
        }
      ],
      "name": "EventDeposit",
      "type": "event"
    },
    {
      "anonymous": false,
      "inputs": [
        {
          "indexed": false,
          "name": "crowdsale",
          "type": "address"
        },
        {
          "indexed": false,
          "name": "_currencySymbol",
          "type": "bytes32"
        },
        {
          "indexed": false,
          "name": "_borrowerId",
          "type": "bytes32"
        },
        {
          "indexed": false,
          "name": "_invoiceId",
          "type": "bytes32"
        },
        {
          "indexed": false,
          "name": "_invoiceNumber",
          "type": "string"
        },
        {
          "indexed": false,
          "name": "_invoiceAmount",
          "type": "uint256"
        },
        {
          "indexed": false,
          "name": "_fundingGoal",
          "type": "uint256"
        },
        {
          "indexed": false,
          "name": "deadline",
          "type": "uint256"
        }
      ],
      "name": "EventNewCrowdsale",
      "type": "event"
    },
    {
      "anonymous": false,
      "inputs": [
        {
          "indexed": false,
          "name": "crowdsaleAddr",
          "type": "address"
        },
        {
          "indexed": false,
          "name": "borrowerId",
          "type": "bytes32"
        },
        {
          "indexed": false,
          "name": "currency",
          "type": "bytes32"
        },
        {
          "indexed": false,
          "name": "amount",
          "type": "uint256"
        }
      ],
      "name": "EventBeneficiaryFunded",
      "type": "event"
    },
    {
      "anonymous": false,
      "inputs": [
        {
          "indexed": false,
          "name": "crowdsaleAddr",
          "type": "address"
        },
        {
          "indexed": false,
          "name": "groupIndex",
          "type": "uint256"
        },
        {
          "indexed": false,
          "name": "bidderId",
          "type": "bytes32"
        },
        {
          "indexed": false,
          "name": "currency",
          "type": "bytes32"
        },
        {
          "indexed": false,
          "name": "amount",
          "type": "uint256"
        }
      ],
      "name": "EventLosingGroupBidderRefunded",
      "type": "event"
    },
    {
      "anonymous": false,
      "inputs": [
        {
          "indexed": false,
          "name": "crowdsaleAddr",
          "type": "address"
        },
        {
          "indexed": false,
          "name": "currency",
          "type": "bytes32"
        },
        {
          "indexed": false,
          "name": "amount",
          "type": "uint256"
        }
      ],
      "name": "EventPaymentReceived",
      "type": "event"
    },
    {
      "anonymous": false,
      "inputs": [
        {
          "indexed": false,
          "name": "crowdsaleAddr",
          "type": "address"
        },
        {
          "indexed": false,
          "name": "groupIndex",
          "type": "uint256"
        },
        {
          "indexed": false,
          "name": "bidderId",
          "type": "bytes32"
        },
        {
          "indexed": false,
          "name": "currency",
          "type": "bytes32"
        },
        {
          "indexed": false,
          "name": "bidAmount",
          "type": "uint256"
        },
        {
          "indexed": false,
          "name": "benefitsAmount",
          "type": "uint256"
        }
      ],
      "name": "EventWinnerGroupBidderFunded",
      "type": "event"
    },
    {
      "anonymous": false,
      "inputs": [
        {
          "indexed": false,
          "name": "clientId",
          "type": "bytes32"
        },
        {
          "indexed": false,
          "name": "depositContractAddress",
          "type": "address"
        }
      ],
      "name": "EventNewDepositContract",
      "type": "event"
    },
    {
      "anonymous": false,
      "inputs": [
        {
          "indexed": false,
          "name": "clientId",
          "type": "bytes32"
        },
        {
          "indexed": false,
          "name": "tokenContract",
          "type": "address"
        },
        {
          "indexed": false,
          "name": "receiveCurrency",
          "type": "bytes32"
        },
        {
          "indexed": false,
          "name": "deposited",
          "type": "uint256"
        },
        {
          "indexed": false,
          "name": "received",
          "type": "uint256"
        },
        {
          "indexed": false,
          "name": "depositIndex",
          "type": "uint256"
        }
      ],
      "name": "EventNewDeposit",
      "type": "event"
    },
    {
      "anonymous": false,
      "inputs": [
        {
          "indexed": false,
          "name": "clientId",
          "type": "bytes32"
        },
        {
          "indexed": false,
          "name": "tokenContract",
          "type": "address"
        },
        {
          "indexed": false,
          "name": "releaseCurrency",
          "type": "bytes32"
        },
        {
          "indexed": false,
          "name": "deposited",
          "type": "uint256"
        },
        {
          "indexed": false,
          "name": "received",
          "type": "uint256"
        },
        {
          "indexed": false,
          "name": "depositIndex",
          "type": "uint256"
        }
      ],
      "name": "EventDepositReleased",
      "type": "event"
    }
  ],
  "bytecode": "0x6060604052341561000f57600080fd5b6040516020806143c38339810160405280805160008054600160a060020a03909216600160a060020a0319909216919091179055505061436f806100546000396000f300606060405236156101425763ffffffff60e060020a600035041662a4e863811461014757806302ab72c414610168578063110d3adc1461018757806317163ad8146101a65780631941f55b146101d55780632a2ef712146101f45780632aba53fc146102165780633c00ab3c146102d657806348f11110146102f55780634be99cd6146103a8578063554c9b6a146103c75780635e63067f146103f85780637f84ceec1461041757806382cce80f1461043057806383588aea1461044f57806390d64f3a14610474578063931011ee1461049f578063a8860b40146104b5578063af8d309e146104d7578063c0ee0b8a146104f0578063c16ac06f14610555578063c284a81d14610568578063ccce317f146105d2578063d383b80d14610601578063db86e0cb14610617578063f3764ffa14610630578063f7f01b4b14610658575b600080fd5b341561015257600080fd5b610166600160a060020a036004351661066b565b005b341561017357600080fd5b610166600160a060020a03600435166108eb565b341561019257600080fd5b610166600160a060020a036004351661099e565b34156101b157600080fd5b6101b9610da9565b604051600160a060020a03909116815260200160405180910390f35b34156101e057600080fd5b610166600160a060020a0360043516610db8565b34156101ff57600080fd5b610166600160a060020a0360043516602435610e6b565b341561022157600080fd5b6102c260048035600160a060020a03169060446024803590810190830135806020601f8201819004810201604051908101604052818152929190602084018383808284375094968635966020808201359750919550606081019450604090810135860180830194503592508291601f830181900481020190519081016040528181529291906020840183838082843750949650509335935061124a92505050565b604051901515815260200160405180910390f35b34156102e157600080fd5b610166600160a060020a03600435166114ec565b341561030057600080fd5b610166600480359060248035916044359160849060643590810190830135806020601f820181900481020160405190810160405281815292919060208401838380828437509496863596602080820135975060408083013597509295506080820194506060909101358501808201935035918291601f83018190048102019051908101604052818152929190602084018383808284375094965050933593506118ec92505050565b34156103b357600080fd5b610166600160a060020a0360043516611c07565b34156103d257600080fd5b6103e6600160a060020a0360043516611cba565b60405190815260200160405180910390f35b341561040357600080fd5b610166600435602435604435606435611cd5565b341561042257600080fd5b6103e6600435602435611d6b565b341561043b57600080fd5b61016660043560ff60243516604435611d8c565b341561045a57600080fd5b610166600160a060020a0360043516602435604435611f62565b341561047f57600080fd5b6102c2600435600160a060020a03602435166044356064356084356122ae565b34156104aa57600080fd5b61016660043561247b565b34156104c057600080fd5b610166600160a060020a03600435166024356125b2565b34156104e257600080fd5b6102c26004356024356128b9565b34156104fb57600080fd5b61016660048035600160a060020a03169060248035919060649060443590810190830135806020601f8201819004810201604051908101604052818152929190602084018383808284375094965061294c95505050505050565b341561056057600080fd5b6101b9612a89565b341561057357600080fd5b6102c260048035600160a060020a03169060248035916044359160849060643590810190830135806020601f820181900481020160405190810160405281815292919060208401838380828437509496505093359350612a9892505050565b34156105dd57600080fd5b6102c2600435600160a060020a036024358116906044359060643516608435612c9c565b341561060c57600080fd5b6101b9600435612e79565b341561062257600080fd5b6102c2600435602435612e94565b341561063b57600080fd5b610166600160a060020a0360043516602435604435606435612f20565b341561066357600080fd5b6101b961318a565b806000808080600160a060020a038516630cd87cff82604051602001526040518163ffffffff1660e060020a028152600401602060405180830381600087803b15156106b657600080fd5b6102c65a03f115156106c757600080fd5b5050506040518051151560011490506106df57600080fd5b84600160a060020a031663f52eb3856000604051604001526040518163ffffffff1660e060020a0281526004016040805180830381600087803b151561072457600080fd5b6102c65a03f1151561073557600080fd5b50505060405180519060200180519195509093505060ff841615610758576108e3565b84600160a060020a0316636fbefedf6000604051602001526040518163ffffffff1660e060020a028152600401602060405180830381600087803b151561079e57600080fd5b6102c65a03f115156107af57600080fd5b5050506040518051925050600160a060020a03851663968c42096000604051602001526040518163ffffffff1660e060020a028152600401602060405180830381600087803b151561080057600080fd5b6102c65a03f1151561081157600080fd5b5050506040518051905090506108378160c060020a67506f70756c6f7573028486613199565b84600160a060020a0316638942e19d6040518163ffffffff1660e060020a028152600401600060405180830381600087803b151561087457600080fd5b6102c65a03f1151561088557600080fd5b5050507fd7dbae4b95599bb84a231f200f7e659db0829ec0875002a565180e9e9d32c00a86838386604051600160a060020a039094168452602084019290925260408084019190915260608301919091526080909101905180910390a15b505050505050565b60008054600160a060020a031690630c68ba219033906040516020015260405160e060020a63ffffffff8416028152600160a060020a039091166004820152602401602060405180830381600087803b151561094657600080fd5b6102c65a03f1151561095757600080fd5b50505060405180511515600114905061096f57600080fd5b6000805473ffffffffffffffffffffffffffffffffffffffff1916600160a060020a0392909216919091179055565b8060008080808080808080808060048c600160a060020a0316634e69d5606000604051602001526040518163ffffffff1660e060020a028152600401602060405180830381600087803b15156109f357600080fd5b6102c65a03f11515610a0457600080fd5b5050506040518051905060ff166005811115610a1c57fe5b6005811115610a2757fe5b14610a3157610d9a565b8b600160a060020a0316635cfa4d606000604051602001526040518163ffffffff1660e060020a028152600401602060405180830381600087803b1515610a7757600080fd5b6102c65a03f11515610a8857600080fd5b50505060405180519b5050600160a060020a038c1663ceb606548c600060405160a0015260405160e060020a63ffffffff8416028152600481019190915260240160a060405180830381600087803b1515610ae257600080fd5b6102c65a03f11515610af357600080fd5b5050506040518051906020018051906020018051906020018051906020018051929e50909c50909a5050505087151560011415610b2f57610d9a565b8b600160a060020a031663968c42096000604051602001526040518163ffffffff1660e060020a028152600401602060405180830381600087803b1515610b7557600080fd5b6102c65a03f11515610b8657600080fd5b5050506040518051975050600160a060020a038c166312fa769f6000604051602001526040518163ffffffff1660e060020a028152600401602060405180830381600087803b1515610bd757600080fd5b6102c65a03f11515610be857600080fd5b5050506040518051965060009550505b89851015610d9a578b600160a060020a031663dee50b248c8760006040516080015260405160e060020a63ffffffff851602815260048101929092526024820152604401608060405180830381600087803b1515610c5557600080fd5b6102c65a03f11515610c6657600080fd5b5050506040518051906020018051906020018051906020018051939750909550919350505060018215151415610c9b57610d8f565b88868402811515610ca857fe5b049050610cc58760c060020a67506f70756c6f7573028684613199565b8b600160a060020a03166319a0e16d8c8760405160e060020a63ffffffff851602815260048101929092526024820152604401600060405180830381600087803b1515610d1157600080fd5b6102c65a03f11515610d2257600080fd5b5050507ff88bb82be4a8c818d4a2024bb04d7d9503631b2177d9ef6abec545446528f4a68d8c868a8786604051600160a060020a03909616865260208601949094526040808601939093526060850191909152608084015260a083019190915260c0909101905180910390a15b600190940193610bf8565b50505050505050505050505050565b600254600160a060020a031681565b60008054600160a060020a03169063fda089589033906040516020015260405160e060020a63ffffffff8416028152600160a060020a039091166004820152602401602060405180830381600087803b1515610e1357600080fd5b6102c65a03f11515610e2457600080fd5b505050604051805115156001149050610e3c57600080fd5b6002805473ffffffffffffffffffffffffffffffffffffffff1916600160a060020a0392909216919091179055565b81600080808080808080600489600160a060020a0316634e69d5606000604051602001526040518163ffffffff1660e060020a028152600401602060405180830381600087803b1515610ebd57600080fd5b6102c65a03f11515610ece57600080fd5b5050506040518051905060ff166005811115610ee657fe5b6005811115610ef157fe5b14610efb5761123d565b88600160a060020a0316635cfa4d606000604051602001526040518163ffffffff1660e060020a028152600401602060405180830381600087803b1515610f4157600080fd5b6102c65a03f11515610f5257600080fd5b5050506040518051985050600160a060020a03891663dee50b24898c60006040516080015260405160e060020a63ffffffff851602815260048101929092526024820152604401608060405180830381600087803b1515610fb257600080fd5b6102c65a03f11515610fc357600080fd5b5050506040518051906020018051906020018051906020018051939a5090985091965050851590508015610ff5575060015b1561123d5788600160a060020a031663ceb6065489600060405160a0015260405160e060020a63ffffffff8416028152600481019190915260240160a060405180830381600087803b151561104957600080fd5b6102c65a03f1151561105a57600080fd5b5050506040518051906020018051906020018051906020018051906020018051509097505050600160a060020a038b16915063968c420990506000604051602001526040518163ffffffff1660e060020a028152600401602060405180830381600087803b15156110ca57600080fd5b6102c65a03f115156110db57600080fd5b5050506040518051935050600160a060020a0389166312fa769f6000604051602001526040518163ffffffff1660e060020a028152600401602060405180830381600087803b151561112c57600080fd5b6102c65a03f1151561113d57600080fd5b5050506040518051905091508382870281151561115657fe5b0490506111738360c060020a67506f70756c6f7573028984613199565b88600160a060020a03166319a0e16d898c60405160e060020a63ffffffff851602815260048101929092526024820152604401600060405180830381600087803b15156111bf57600080fd5b6102c65a03f115156111d057600080fd5b5050507ff88bb82be4a8c818d4a2024bb04d7d9503631b2177d9ef6abec545446528f4a68b8989868a86604051600160a060020a03909616865260208601949094526040808601939093526060850191909152608084015260a083019190915260c0909101905180910390a15b5050505050505050505050565b6000805481908190819081908190600160a060020a031663fda0895833836040516020015260405160e060020a63ffffffff8416028152600160a060020a039091166004820152602401602060405180830381600087803b15156112ad57600080fd5b6102c65a03f115156112be57600080fd5b5050506040518051151560011490506112d657600080fd5b8b945084600160a060020a031663b503d8298c8c8c8c8c60006040516080015260405160e060020a63ffffffff881602815260248101859052604481018490526084810182905260a060048201908152908190606481019060a40188818151815260200191508051906020019080838360005b83811015611361578082015183820152602001611349565b50505050905090810190601f16801561138e5780820380516001836020036101000a031916815260200191505b50838103825285818151815260200191508051906020019080838360005b838110156113c45780820151838201526020016113ac565b50505050905090810190601f1680156113f15780820380516001836020036101000a031916815260200191505b50975050505050505050608060405180830381600087803b151561141457600080fd5b6102c65a03f1151561142557600080fd5b505050604051805190602001805190602001805190602001805193975091955093509091505060ff841615156114d8576114cf85600160a060020a031663968c42096000604051602001526040518163ffffffff1660e060020a028152600401602060405180830381600087803b151561149e57600080fd5b6102c65a03f115156114af57600080fd5b505050604051805190508a60c060020a67506f70756c6f75730286613199565b600195506114dd565b600095505b50505050509695505050505050565b80600080808080808080808060028b600160a060020a0316634e69d5606000604051602001526040518163ffffffff1660e060020a028152600401602060405180830381600087803b151561154057600080fd5b6102c65a03f1151561155157600080fd5b5050506040518051905060ff16600581111561156957fe5b600581111561157457fe5b1461157e576118de565b8a600160a060020a031663968c42096000604051602001526040518163ffffffff1660e060020a028152600401602060405180830381600087803b15156115c457600080fd5b6102c65a03f115156115d557600080fd5b50505060405180519a5050600160a060020a038b1663b84afbb46000604051602001526040518163ffffffff1660e060020a028152600401602060405180830381600087803b151561162657600080fd5b6102c65a03f1151561163757600080fd5b5050506040518051995050600160a060020a038b16635cfa4d606000604051602001526040518163ffffffff1660e060020a028152600401602060405180830381600087803b151561168857600080fd5b6102c65a03f1151561169957600080fd5b5050506040518051985060009750505b888710156118de578a600160a060020a031663ceb6065488600060405160a0015260405160e060020a63ffffffff8416028152600481019190915260240160a060405180830381600087803b151561170057600080fd5b6102c65a03f1151561171157600080fd5b5050506040518051906020018051906020018051906020018051906020018051929a5091985050505087891480159150611749575084155b156118d357600093505b858410156118d3578a600160a060020a031663dee50b24888660006040516080015260405160e060020a63ffffffff851602815260048101929092526024820152604401608060405180830381600087803b15156117b057600080fd5b6102c65a03f115156117c157600080fd5b505050604051805190602001805190602001805190602001805193965090945091925050508015156118c8576118078a60c060020a67506f70756c6f7573028585613199565b8a600160a060020a03166319a0e16d888660405160e060020a63ffffffff851602815260048101929092526024820152604401600060405180830381600087803b151561185357600080fd5b6102c65a03f1151561186457600080fd5b5050507f508227ac703f8d9b80797fa399730693ceddc3527e5f74a7a48b1d55cca4883b8c88858d86604051600160a060020a03909516855260208501939093526040808501929092526060840152608083019190915260a0909101905180910390a15b600190930192611753565b6001909601956116a9565b505050505050505050505050565b600080548190600160a060020a031663fda0895833836040516020015260405160e060020a63ffffffff8416028152600160a060020a039091166004820152602401602060405180830381600087803b151561194757600080fd5b6102c65a03f1151561195857600080fd5b50505060405180511515600114905061197057600080fd5b60008b815260046020526040902054600160a060020a0316151561199357600080fd5b600154600160a060020a03166348f111108c8c8c8c8c8c8c8c8c60006040516020015260405160e060020a63ffffffff8c16028152600481018a8152602482018a9052604482018990526084820187905260a4820186905260c48201859052610104820183905261012060648301908152909160e48101906101240189818151815260200191508051906020019080838360005b83811015611a3f578082015183820152602001611a27565b50505050905090810190601f168015611a6c5780820380516001836020036101000a031916815260200191505b50838103825285818151815260200191508051906020019080838360005b83811015611aa2578082015183820152602001611a8a565b50505050905090810190601f168015611acf5780820380516001836020036101000a031916815260200191505b509b505050505050505050505050602060405180830381600087803b1515611af657600080fd5b6102c65a03f11515611b0757600080fd5b505050604051805192505062015180420190507f20976887bda660e24a42e3399ed5ef459dabc2175074098882ce8ebe199bc8df828c8c8c8c8c8c88604051600160a060020a038916815260208101889052604081018790526060810186905260a0810184905260c0810183905260e081018290526101006080820181815290820186818151815260200191508051906020019080838360005b83811015611bb9578082015183820152602001611ba1565b50505050905090810190601f168015611be65780820380516001836020036101000a031916815260200191505b50995050505050505050505060405180910390a15050505050505050505050565b60008054600160a060020a03169063fda089589033906040516020015260405160e060020a63ffffffff8416028152600160a060020a039091166004820152602401602060405180830381600087803b1515611c6257600080fd5b6102c65a03f11515611c7357600080fd5b505050604051805115156001149050611c8b57600080fd5b6001805473ffffffffffffffffffffffffffffffffffffffff1916600160a060020a0392909216919091179055565b600160a060020a031660009081526005602052604090205490565b60008054600160a060020a03169063fda089589033906040516020015260405160e060020a63ffffffff8416028152600160a060020a039091166004820152602401602060405180830381600087803b1515611d3057600080fd5b6102c65a03f11515611d4157600080fd5b505050604051805115156001149050611d5957600080fd5b611d6584848484613199565b50505050565b60008281526003602090815260408083208484529091529020545b92915050565b60008054600160a060020a031690630c68ba219033906040516020015260405160e060020a63ffffffff8416028152600160a060020a039091166004820152602401602060405180830381600087803b1515611de757600080fd5b6102c65a03f11515611df857600080fd5b505050604051805115156001149050611e1057600080fd5b600081815260046020526040902054600160a060020a031615611e3257600080fd5b600054600160a060020a0316838383611e4961344a565b600160a060020a039094168452602084019290925260ff16604080840191909152606083019190915260809091019051809103906000f0801515611e8c57600080fd5b6000828152600460205260409020805473ffffffffffffffffffffffffffffffffffffffff1916600160a060020a039283161790819055161515611ecc57fe5b60008181526004602081815260408084208054600160a060020a03908116865260058452828620879055948690529290915290547f49ed04561088f8c4d4b6cf512cfd6e87722fae11971dad08e91c480f46ef0a909286928692869216905193845260ff9092166020840152604080840191909152600160a060020a0390911660608301526080909101905180910390a1505050565b826000808080600285600160a060020a0316634e69d5606000604051602001526040518163ffffffff1660e060020a028152600401602060405180830381600087803b1515611fb057600080fd5b6102c65a03f11515611fc157600080fd5b5050506040518051905060ff166005811115611fd957fe5b6005811115611fe457fe5b14611fee576122a4565b8685600160a060020a0316635cfa4d606000604051602001526040518163ffffffff1660e060020a028152600401602060405180830381600087803b151561203557600080fd5b6102c65a03f1151561204657600080fd5b505050604051805190501480156120bf575084600160a060020a0316630cd87cff6000604051602001526040518163ffffffff1660e060020a028152600401602060405180830381600087803b151561209e57600080fd5b6102c65a03f115156120af57600080fd5b5050506040518051151560011490505b156120c9576122a4565b84600160a060020a031663dee50b24888860006040516080015260405160e060020a63ffffffff851602815260048101929092526024820152604401608060405180830381600087803b151561211e57600080fd5b6102c65a03f1151561212f57600080fd5b505050604051805190602001805190602001805190602001805193975090955091935050821590508015612161575060015b156122a45784600160a060020a031663968c42096000604051602001526040518163ffffffff1660e060020a028152600401602060405180830381600087803b15156121ac57600080fd5b6102c65a03f115156121bd57600080fd5b5050506040518051905090506121e38160c060020a67506f70756c6f7573028686613199565b84600160a060020a03166319a0e16d888860405160e060020a63ffffffff851602815260048101929092526024820152604401600060405180830381600087803b151561222f57600080fd5b6102c65a03f1151561224057600080fd5b5050507f508227ac703f8d9b80797fa399730693ceddc3527e5f74a7a48b1d55cca4883b8888868487604051600160a060020a03909516855260208501939093526040808501929092526060840152608083019190915260a0909101905180910390a15b5050505050505050565b6000805481908190600160a060020a031663fda0895833836040516020015260405160e060020a63ffffffff8416028152600160a060020a039091166004820152602401602060405180830381600087803b151561230b57600080fd5b6102c65a03f1151561231c57600080fd5b50505060405180511515600114905061233457600080fd5b600254600160a060020a03166390d64f3a898989898960006040516040015260405160e060020a63ffffffff88160281526004810195909552600160a060020a03909316602485015260448401919091526064830152608482015260a4016040805180830381600087803b15156123aa57600080fd5b6102c65a03f115156123bb57600080fd5b505050604051805190602001805191935090915050811561246b576123e08685613295565b506123fb8660c060020a67506f70756c6f7573028a87613199565b7ff120c283702a0153dde599235e898e3273954cc6f34256add8928e4b51c8b639888888888886604051958652600160a060020a0390941660208601526040808601939093526060850191909152608084015260a083019190915260c0909101905180910390a160019250612470565b600092505b505095945050505050565b60008054600160a060020a031663fda0895833836040516020015260405160e060020a63ffffffff8416028152600160a060020a039091166004820152602401602060405180830381600087803b15156124d457600080fd5b6102c65a03f115156124e557600080fd5b5050506040518051151560011490506124fd57600080fd5b600254600160a060020a0316637368a8ce8360006040516020015260405160e060020a63ffffffff84160281526004810191909152602401602060405180830381600087803b151561254e57600080fd5b6102c65a03f1151561255f57600080fd5b5050506040518051905090507f331e8d7fbf36512cd5eb514f38db31465c8f937497c179aa3eda3250125028fc8282604051918252600160a060020a031660208201526040908101905180910390a15050565b600080548190600160a060020a031663fda0895833836040516020015260405160e060020a63ffffffff8416028152600160a060020a039091166004820152602401602060405180830381600087803b151561260d57600080fd5b6102c65a03f1151561261e57600080fd5b50505060405180511515600114905061263657600080fd5b839150600382600160a060020a0316634e69d5606000604051602001526040518163ffffffff1660e060020a028152600401602060405180830381600087803b151561268157600080fd5b6102c65a03f1151561269257600080fd5b5050506040518051905060ff1660058111156126aa57fe5b60058111156126b557fe5b1480612723575081600160a060020a0316635e054efb6000604051602001526040518163ffffffff1660e060020a028152600401602060405180830381600087803b151561270257600080fd5b6102c65a03f1151561271357600080fd5b5050506040518051151560011490505b151561272b57fe5b8282600160a060020a0316637478901d6000604051602001526040518163ffffffff1660e060020a028152600401602060405180830381600087803b151561277257600080fd5b6102c65a03f1151561278357600080fd5b505050604051805190501115151561279a57600080fd5b81600160a060020a031663968c42096000604051602001526040518163ffffffff1660e060020a028152600401602060405180830381600087803b15156127e057600080fd5b6102c65a03f115156127f157600080fd5b5050506040518051905090506128078184613295565b5081600160a060020a03166385d8ed7d8460405160e060020a63ffffffff84160281526004810191909152602401600060405180830381600087803b151561284e57600080fd5b6102c65a03f1151561285f57600080fd5b5050507f58ceb9549b0424f0618abff77cfb7b958eccca0d2b63317ff25ac1f209dc6cbe848285604051600160a060020a03909316835260208301919091526040808301919091526060909101905180910390a150505050565b60008054600160a060020a0316630c68ba2133836040516020015260405160e060020a63ffffffff8416028152600160a060020a039091166004820152602401602060405180830381600087803b151561291257600080fd5b6102c65a03f1151561292357600080fd5b50505060405180511515600114905061293b57600080fd5b6129458383613295565b9392505050565b600160a060020a033316600090815260056020526040812054906020830151905033600160a060020a03166367fbd2898560006040516020015260405160e060020a63ffffffff84160281526004810191909152602401602060405180830381600087803b15156129bc57600080fd5b6102c65a03f115156129cd57600080fd5b5050506040518051151590506129e257600080fd5b6000828152600360209081526040808320848452909152902054612a06908561335c565b600083815260036020908152604080832085845290915290819020919091557f69e095c0bc91e7b7822a8148750c82d58b30d6530f1fa544fe8496b762b2b8ec90869083908590889051600160a060020a039094168452602084019290925260408084019190915260608301919091526080909101905180910390a15050505050565b600154600160a060020a031681565b6000805481908190819081908190600160a060020a031663fda0895833836040516020015260405160e060020a63ffffffff8416028152600160a060020a039091166004820152602401602060405180830381600087803b1515612afb57600080fd5b6102c65a03f11515612b0c57600080fd5b505050604051805115156001149050612b2457600080fd5b8a945084600160a060020a031663f29c2e8b8b8b8b8b60006040516080015260405160e060020a63ffffffff8716028152600481018581526024820185905260648201839052608060448301908152909160840184818151815260200191508051906020019080838360005b83811015612ba8578082015183820152602001612b90565b50505050905090810190601f168015612bd55780820380516001836020036101000a031916815260200191505b5095505050505050608060405180830381600087803b1515612bf657600080fd5b6102c65a03f11515612c0757600080fd5b505050604051805190602001805190602001805190602001805193975091955093509091505060ff84161515612c8957612c8085600160a060020a031663968c42096000604051602001526040518163ffffffff1660e060020a028152600401602060405180830381600087803b151561149e57600080fd5b60019550612c8e565b600095505b505050505095945050505050565b60008054819081908190600160a060020a031663fda0895833836040516020015260405160e060020a63ffffffff8416028152600160a060020a039091166004820152602401602060405180830381600087803b1515612cfb57600080fd5b6102c65a03f11515612d0c57600080fd5b505050604051805115156001149050612d2457600080fd5b600254600160a060020a031663ccce317f8a8a8a8a8a60006040516060015260405160e060020a63ffffffff88160281526004810195909552600160a060020a03938416602486015260448501929092529091166064830152608482015260a401606060405180830381600087803b1515612d9e57600080fd5b6102c65a03f11515612daf57600080fd5b5050506040518051906020018051906020018051929550909350909150508215612e6857612ded878a60c060020a67506f70756c6f75730284613199565b612df78782613379565b507fbc56f62e82bebdc69f74f6678f58f9e76155da7a0b9fc8c70bb9cf65dbbc772f89898985858a604051958652600160a060020a0390941660208601526040808601939093526060850191909152608084015260a083019190915260c0909101905180910390a160019350612e6d565b600093505b50505095945050505050565b600090815260046020526040902054600160a060020a031690565b60008054600160a060020a0316630c68ba2133836040516020015260405160e060020a63ffffffff8416028152600160a060020a039091166004820152602401602060405180830381600087803b1515612eed57600080fd5b6102c65a03f11515612efe57600080fd5b505050604051805115156001149050612f1657600080fd5b6129458383613379565b60008054600160a060020a031690630c68ba219033906040516020015260405160e060020a63ffffffff8416028152600160a060020a039091166004820152602401602060405180830381600087803b1515612f7b57600080fd5b6102c65a03f11515612f8c57600080fd5b505050604051805115156001149050612fa457600080fd5b600082815260046020526040902054600160a060020a031615801590612fe457506000828152600360209081526040808320868452909152902054819010155b1515612fef57600080fd5b60008281526003602090815260408083208684529091529020546130139082613438565b60008381526003602090815260408083208784528252808320939093558482526004905281902054600160a060020a0316906397304ced9083905160e060020a63ffffffff84160281526004810191909152602401600060405180830381600087803b151561308157600080fd5b6102c65a03f1151561309257600080fd5b50505060008281526004602052604080822054600160a060020a03169163a9059cbb9187918591516020015260405160e060020a63ffffffff8516028152600160a060020a0390921660048301526024820152604401602060405180830381600087803b151561310157600080fd5b6102c65a03f1151561311257600080fd5b50505060405180511515600114905061312a57600080fd5b7fba038c3213aad8d82fb521344ca1128ef9ec8022929ede861afcacd97542405d84848484604051600160a060020a039094168452602084019290925260408084019190915260608301919091526080909101905180910390a150505050565b600054600160a060020a031681565b8015156131a557611d65565b6000848152600360209081526040808320868452909152902054819010156131cc57600080fd5b60008481526003602090815260408083208684529091529020546131f09082613438565b600085815260036020908152604080832087845290915280822092909255838152205461321d908261335c565b600085815260036020908152604080832086845290915290819020919091557f1b6f5dbe1f187f524cf1ec27da6fb055fca9617e83af0d7038fdeb87c50fa0d390859085908590859051938452602084019290925260408084019190915260608301919091526080909101905180910390a150505050565b600082815260046020526040812054600160a060020a03161561335457600083815260036020908152604080832060c060020a67506f70756c6f75730284529091529020546132e4908361335c565b600084815260036020908152604080832060c060020a67506f70756c6f757302845290915290819020919091557fb83a9cb495aa43a9871c87805ab90712a5f703de6d66d16b96d7afcc91bb329990849084905191825260208201526040908101905180910390a1506001611d86565b506000611d86565b60008282018381108015906133715750828110155b151561294557fe5b600082815260046020526040812054600160a060020a03161561335457600083815260036020908152604080832060c060020a67506f70756c6f75730284529091529020546133c89083613438565b600084815260036020908152604080832060c060020a67506f70756c6f757302845290915290819020919091557f855ddfcb23a7313ebf5b93128f0915bcfa763727e34f612276cf06a7e7bf2b1e90849084905191825260208201526040908101905180910390a1506001611d86565b60008282111561344457fe5b50900390565b604051610ee98061345b833901905600606060405260008055341561001357600080fd5b604051608080610ee98339810160405280805191906020018051919060200180519190602001805160038054600160a060020a031916600160a060020a03979097169690961790955550506004919091556005805460ff191660ff909216919091179055600655610e60806100896000396000f300606060405236156100d55763ffffffff60e060020a60003504166302ab72c481146100da57806306fdde03146100fb578063095ea7b314610120578063162790551461015657806318160ddd1461017557806323b872dd14610188578063313ce567146101b05780633f35d033146101d957806367fbd2891461023e57806370a082311461025457806395d89b411461027357806397304ced14610286578063a9059cbb1461029c578063acef6037146102be578063be45fd62146102e0578063dd62ed3e14610345578063f7f01b4b1461036a575b600080fd5b34156100e557600080fd5b6100f9600160a060020a0360043516610399565b005b341561010657600080fd5b61010e61044a565b60405190815260200160405180910390f35b341561012b57600080fd5b610142600160a060020a0360043516602435610450565b604051901515815260200160405180910390f35b341561016157600080fd5b610142600160a060020a03600435166104bd565b341561018057600080fd5b61010e6104dd565b341561019357600080fd5b610142600160a060020a03600435811690602435166044356104e3565b34156101bb57600080fd5b6101c3610600565b60405160ff909116815260200160405180910390f35b34156101e457600080fd5b61014260048035600160a060020a03169060248035919060649060443590810190830135806020601f8201819004810201604051908101604052818152929190602084018383808284375094965061060995505050505050565b341561024957600080fd5b61014260043561087a565b341561025f57600080fd5b61010e600160a060020a0360043516610abe565b341561027e57600080fd5b61010e610ad9565b341561029157600080fd5b6100f9600435610adf565b34156102a757600080fd5b610142600160a060020a0360043516602435610c8a565b34156102c957600080fd5b610142600160a060020a0360043516602435610cc5565b34156102eb57600080fd5b61014260048035600160a060020a03169060248035919060649060443590810190830135806020601f82018190048102016040519081016040528181529291906020840183838082843750949650610d8d95505050505050565b341561035057600080fd5b61010e600160a060020a0360043581169060243516610db9565b341561037557600080fd5b61037d610de4565b604051600160a060020a03909116815260200160405180910390f35b600354600160a060020a0316630c68ba213360006040516020015260405160e060020a63ffffffff8416028152600160a060020a039091166004820152602401602060405180830381600087803b15156103f257600080fd5b6102c65a03f1151561040357600080fd5b50505060405180511515600114905061041b57600080fd5b6003805473ffffffffffffffffffffffffffffffffffffffff1916600160a060020a0392909216919091179055565b60045481565b600160a060020a03338116600081815260026020908152604080832094871680845294909152808220859055909291907f8c5be1e5ebec7d5bd14f71427d1e84f3dd0314c0f7b2291e5b200ac8c7c3b9259085905190815260200160405180910390a35060015b92915050565b6000813b818111156104d257600191506104d7565b600091505b50919050565b60005481565b600160a060020a0383166000908152600160205260408120548290108015906105335750600160a060020a0380851660009081526002602090815260408083203390941683529290522054829010155b801561053f5750600082115b80156105645750600160a060020a038316600090815260016020526040902054828101115b156105f557600160a060020a03808416600081815260016020908152604080832080548801905588851680845281842080548990039055600283528184203390961684529490915290819020805486900390559091907fddf252ad1be2c89b69c2b068fc378daa952ba7f163c4a11628f55a4df523b3ef9085905190815260200160405180910390a35060016105f9565b5060005b9392505050565b60055460ff1681565b600160a060020a03331660009081526001602052604081205481908490108015906106345750600084115b80156106595750600160a060020a038516600090815260016020526040902054848101115b1561086d5750600160a060020a033381811660009081526001602052604080822080548890039055928716808252908390208054870190558692909163c0ee0b8a9187908790518463ffffffff1660e060020a0281526004018084600160a060020a0316600160a060020a0316815260200183815260200180602001828103825283818151815260200191508051906020019080838360005b8381101561070a5780820151838201526020016106f2565b50505050905090810190601f1680156107375780820380516001836020036101000a031916815260200191505b50945050505050600060405180830381600087803b151561075757600080fd5b6102c65a03f1151561076857600080fd5b50505084600160a060020a031633600160a060020a03167fddf252ad1be2c89b69c2b068fc378daa952ba7f163c4a11628f55a4df523b3ef8660405190815260200160405180910390a37fb35b712dc2c80945537903ca9aa7ed83607d14fc206a7e7ef41d5cf8946a3772858585604051600160a060020a03841681526020810183905260606040820181815290820183818151815260200191508051906020019080838360005b83811015610828578082015183820152602001610810565b50505050905090810190601f1680156108555780820380516001836020036101000a031916815260200191505b5094505050505060405180910390a160019150610872565b600091505b509392505050565b600354600090600160a060020a03166305fd22d033836040516020015260405160e060020a63ffffffff8416028152600160a060020a039091166004820152602401602060405180830381600087803b15156108d557600080fd5b6102c65a03f115156108e657600080fd5b5050506040518051151560011490506108fe57600080fd5b6003548290600190600090600160a060020a03166394a3760f82604051602001526040518163ffffffff1660e060020a028152600401602060405180830381600087803b151561094d57600080fd5b6102c65a03f1151561095e57600080fd5b5050506040518051600160a060020a0316825250602081019190915260400160002054101561098f57506000610ab9565b600354610a1a90600190600090600160a060020a03166394a3760f82604051602001526040518163ffffffff1660e060020a028152600401602060405180830381600087803b15156109e057600080fd5b6102c65a03f115156109f157600080fd5b5050506040518051600160a060020a031682525060208101919091526040016000205483610df3565b600354600190600090600160a060020a03166394a3760f82604051602001526040518163ffffffff1660e060020a028152600401602060405180830381600087803b1515610a6757600080fd5b6102c65a03f11515610a7857600080fd5b50505060405180519050600160a060020a0316600160a060020a0316815260200190815260200160002081905550610ab260005483610df3565b6000555060015b919050565b600160a060020a031660009081526001602052604090205490565b60065481565b600354600160a060020a03166305fd22d03360006040516020015260405160e060020a63ffffffff8416028152600160a060020a039091166004820152602401602060405180830381600087803b1515610b3857600080fd5b6102c65a03f11515610b4957600080fd5b505050604051805115156001149050610b6157600080fd5b600354610bec90600190600090600160a060020a03166394a3760f82604051602001526040518163ffffffff1660e060020a028152600401602060405180830381600087803b1515610bb257600080fd5b6102c65a03f11515610bc357600080fd5b5050506040518051600160a060020a031682525060208101919091526040016000205482610e05565b600354600190600090600160a060020a03166394a3760f82604051602001526040518163ffffffff1660e060020a028152600401602060405180830381600087803b1515610c3957600080fd5b6102c65a03f11515610c4a57600080fd5b50505060405180519050600160a060020a0316600160a060020a0316815260200190815260200160002081905550610c8460005482610e05565b60005550565b6000610c94610e22565b610c9d846104bd565b15610cb457610cad848483610609565b9150610cbe565b610cad8484610cc5565b5092915050565b600160a060020a033316600090815260016020526040812054829010801590610cee5750600082115b8015610d135750600160a060020a038316600090815260016020526040902054828101115b15610d8557600160a060020a033381166000818152600160205260408082208054879003905592861680825290839020805486019055917fddf252ad1be2c89b69c2b068fc378daa952ba7f163c4a11628f55a4df523b3ef9085905190815260200160405180910390a35060016104b7565b5060006104b7565b6000610d98846104bd565b15610daf57610da8848484610609565b90506105f9565b610da88484610cc5565b600160a060020a03918216600090815260026020908152604080832093909416825291909152205490565b600354600160a060020a031681565b600082821115610dff57fe5b50900390565b6000828201838110801590610e1a5750828110155b15156105f957fe5b602060405190810160405260008152905600a165627a7a72305820940e15d91a30b5e9242d71f6222444b2be479aec6b12f60d52a1949151c69d610029a165627a7a72305820ca78f6c0aef9a340c1e206c613bc07d62cdff223d5a7eea11bfb71127a1dedff0029",
  "source": "/**\nThis is the core module of the system. Currently it holds the code of\nthe Bank and crowdsale modules to avoid external calls and higher gas costs.\nIt might be a good idea in the future to split the code, separate Bank\nand crowdsale modules into external files and have the core interact with them\nwith addresses and interfaces. \n*/\npragma solidity ^0.4.17;\n\nimport \"./CurrencyToken.sol\";\nimport \"./iCrowdsale.sol\";\nimport \"./iCrowdsaleManager.sol\";\nimport \"./iDepositContractsManager.sol\";\n\n\n/// @title Populous contract\ncontract Populous is withAccessManager {\n\n    // EVENTS\n\n    // Bank events\n    event EventNewCurrency(bytes32 tokenName, uint8 decimalUnits, bytes32 tokenSymbol, address addr);\n    event EventMintTokens(bytes32 currency, uint amount);\n    event EventDestroyTokens(bytes32 currency, uint amount);\n    event EventInternalTransfer(bytes32 currency, bytes32 fromId, bytes32 toId, uint amount);\n    event EventWithdrawal(address to, bytes32 clientId, bytes32 currency, uint amount);\n    event EventDeposit(address from, bytes32 clientId, bytes32 currency, uint amount);\n\n    // crowdsale events\n    event EventNewCrowdsale(address crowdsale, bytes32 _currencySymbol, bytes32 _borrowerId, bytes32 _invoiceId, string _invoiceNumber, uint _invoiceAmount, uint _fundingGoal, uint deadline);\n    event EventBeneficiaryFunded(address crowdsaleAddr, bytes32 borrowerId, bytes32 currency, uint amount);\n    event EventLosingGroupBidderRefunded(address crowdsaleAddr, uint groupIndex, bytes32 bidderId, bytes32 currency, uint amount);\n    event EventPaymentReceived(address crowdsaleAddr, bytes32 currency, uint amount);\n    event EventWinnerGroupBidderFunded(address crowdsaleAddr, uint groupIndex, bytes32 bidderId, bytes32 currency, uint bidAmount, uint benefitsAmount);\n\n    // PPT deposits events\n    event EventNewDepositContract(bytes32 clientId, address depositContractAddress);\n    event EventNewDeposit(bytes32 clientId, address tokenContract, bytes32 receiveCurrency, uint deposited, uint received, uint depositIndex);\n    event EventDepositReleased(bytes32 clientId, address tokenContract, bytes32 releaseCurrency, uint deposited, uint received, uint depositIndex);\n\n\n    // FIELDS\n\n    // Constant fields\n\n    bytes32 constant LEDGER_SYSTEM_ACCOUNT = \"Populous\";\n    // This has to be the same one as in Crowdsale\n    enum States { Pending, Open, Closed, WaitingForInvoicePayment, PaymentReceived, Completed }\n\n    // Fields that can be changed by functions\n\n    // conract type fields\n    iCrowdsaleManager public CM;\n    iDepositContractsManager public DCM;\n\n    // The 'ledger' will hold records of the amount of tokens\n    // an account holds and what currency it is.\n    // This amount will be retrieved using the currency symbol and \n    // account ID as keys.\n    // currencySymbol => (accountId => amount)\n    mapping(bytes32 => mapping(bytes32 => uint)) ledger;\n\n    mapping(bytes32 => address) currencies;\n    mapping(address => bytes32) currenciesSymbols;\n\n    // NON-CONSTANT METHODS\n\n    // Constructor method called when contract instance is \n    // deployed with 'withAccessManager' modifier.\n    function Populous(address _accessManager) public withAccessManager(_accessManager) { }\n\n    // Sets the crowdsale manager address\n    function setCM(address _crowdsaleManager) public onlyServer {\n        CM = iCrowdsaleManager(_crowdsaleManager);\n    }\n\n    // Sets the deposit contracts manager address\n    function setDCM(address _depositContractsManager) public onlyServer {\n        DCM = iDepositContractsManager(_depositContractsManager);\n    }\n\n    /**\n    BANK MODULE\n    */\n\n    // NON-CONSTANT METHODS\n\n    \n    /** @dev Creates a new token/currency.\n      * @param _tokenName  The name of the currency.\n      * @param _decimalUnits The number of decimals the currency has.\n      * @param _tokenSymbol The cyrrency symbol, e.g., GBP\n      */\n    function createCurrency(bytes32 _tokenName, uint8 _decimalUnits, bytes32 _tokenSymbol)\n        public\n        onlyGuardian\n    {\n        // Check if currency already exists\n        require(currencies[_tokenSymbol] == 0x0);\n\n        currencies[_tokenSymbol] = new CurrencyToken(address(AM), _tokenName, _decimalUnits, _tokenSymbol);\n        \n        assert(currencies[_tokenSymbol] != 0x0);\n\n        currenciesSymbols[currencies[_tokenSymbol]] = _tokenSymbol;\n\n        EventNewCurrency(_tokenName, _decimalUnits, _tokenSymbol, currencies[_tokenSymbol]);\n    }\n\n    // Deposit function called by our external ERC23 tokens upon transfer to the contract\n    function tokenFallback(address from, uint amount, bytes data) public {\n        bytes32 currencySymbol = currenciesSymbols[msg.sender];\n\n        require(currencySymbol.length != 0);\n\n        bytes32 clientId;\n        assembly {\n            clientId := mload(add(data, 32))\n        }\n        require(CurrencyToken(msg.sender).destroyTokens(amount) != false);\n        \n        ledger[currencySymbol][clientId] = SafeMath.safeAdd(ledger[currencySymbol][clientId], amount);\n        EventDeposit(from, clientId, currencySymbol, amount);\n    }\n\n    /** @dev Allows a token owner to withdraw from their wallet to another address\n      * @param clientExternal The address to transfer withdrawn amount to.\n      * @param clientId The client ID.\n      * @param currency The cyrrency symbol, e.g., GBP\n      * @param amount The amount.\n      */\n    function withdraw(address clientExternal, bytes32 clientId, bytes32 currency, uint amount) public onlyGuardian {\n        require(currencies[currency] != 0x0 && ledger[currency][clientId] >= amount);\n\n        ledger[currency][clientId] = SafeMath.safeSub(ledger[currency][clientId], amount);\n\n        CurrencyToken(currencies[currency]).mintTokens(amount);\n        require(CurrencyToken(currencies[currency]).transfer(clientExternal, amount) == true);\n\n        EventWithdrawal(clientExternal, clientId, currency, amount);\n    }\n    \n    /** @dev Mints/Generates a specified amount of tokens \n      * @dev The method calls '_mintTokens' and \n      * @dev uses a modifier from withAccessManager contract to only permit populous to use it.\n      * @param amount The amount of tokens to create.\n      * @param currency The related currency to mint.\n      */\n    function mintTokens(bytes32 currency, uint amount)\n        public\n        onlyGuardian\n        returns (bool success)\n    {\n        return _mintTokens(currency, amount);\n    }\n\n    /** @dev Mints/Generates a specified amount of tokens \n      * @dev The method is called by 'mintTokens'.\n      * @dev The method uses SafeMath to carry out safe additions.\n      * @param amount The amount of tokens to create.\n      * @param currency The related currency to mint.\n      */\n    function _mintTokens(bytes32 currency, uint amount)\n        private returns (bool success)\n    {\n        if (currencies[currency] != 0x0) {\n            ledger[currency][LEDGER_SYSTEM_ACCOUNT] = SafeMath.safeAdd(ledger[currency][LEDGER_SYSTEM_ACCOUNT], amount);\n            EventMintTokens(currency, amount);\n            return true;\n        } else {\n            return false;\n        }\n    }\n\n    /** @dev Destroys a specified amount of tokens \n      * @dev The method uses a modifier from withAccessManager contract to only permit token guardian to use it.\n      * @param amount The amount of tokens to create.\n      * @param currency The related currency to mint.\n      */\n    function destroyTokens(bytes32 currency, uint amount)\n        public onlyGuardian returns (bool success)\n    {\n        return _destroyTokens(currency, amount);\n    }\n    \n    /** @dev Destroys a specified amount of tokens \n      * @dev The method uses a modifier from withAccessManager contract to only permit token guardian to use it.\n      * @dev The method uses SafeMath to carry out safe token deductions/subtraction.\n      * @param amount The amount of tokens to create.\n      * @param currency The related currency to mint.\n      */\n    function _destroyTokens(bytes32 currency, uint amount)\n        private returns (bool success)\n    {\n        if (currencies[currency] != 0x0) {\n            ledger[currency][LEDGER_SYSTEM_ACCOUNT] = SafeMath.safeSub(ledger[currency][LEDGER_SYSTEM_ACCOUNT], amount);\n            EventDestroyTokens(currency, amount);\n            return true;\n        } else {\n            return false;\n        }\n    }    \n\n    // Calls the _transfer method to make a transfer on the internal ledger.\n    function transfer(bytes32 currency, bytes32 from, bytes32 to, uint amount) public onlyServer {\n        _transfer(currency, from, to, amount);\n    }\n\n    /** @dev Transfers an amount of a specific currency from 'from' to 'to' on the ledger.\n      * @param currency The currency for the transaction.\n      * @param from The client to debit.\n      * @param to The client to credit\n      * @param amount The amount to transfer.\n      */\n    function _transfer(bytes32 currency, bytes32 from, bytes32 to, uint amount) private {\n        if (amount == 0) {return;}\n        require(ledger[currency][from] >= amount);\n    \n        ledger[currency][from] = SafeMath.safeSub(ledger[currency][from], amount);\n        ledger[currency][to] = SafeMath.safeAdd(ledger[currency][to], amount);\n\n        EventInternalTransfer(currency, from, to, amount);\n    }\n\n    // NON-CONSTANT METHODS\n\n    /** @dev Gets a ledger entry.\n      * @param currency The currency for the transaction.\n      * @param accountId The entry id.\n      * @return uint The currency amount linked to the ledger entry\n      */\n    function getLedgerEntry(bytes32 currency, bytes32 accountId) public view returns (uint) {\n        return ledger[currency][accountId];\n    }\n\n    /** @dev Gets the address of a currency.\n      * @param currency The currency.\n      * @return address The currency address.\n      */\n    function getCurrency(bytes32 currency) public view returns (address) {\n        return currencies[currency];\n    }\n\n    /** @dev Gets the currency symbol of a currency.\n      * @param currency The currency.\n      * @return bytes32 The currency sybmol, e.g., GBP.\n      */\n    function getCurrencySymbol(address currency) public view returns (bytes32) {\n        return currenciesSymbols[currency];\n    }\n\n    /**\n    END OF BANK MODULE\n    */\n\n    /**\n    crowdsale MODULE\n    */\n\n    // NON-CONSTANT METHODS\n\n\n    /** @dev Creates a new Crowdsale contract instance for an invoice crowdsale restricted to server.\n      * @param _currencySymbol The currency symbol, e.g., GBP.\n      * @param _borrowerId The unique borrower ID.\n      * @param _invoiceId The unique invoice ID.\n      * @param _invoiceNumber The unique invoice number.\n      * @param _invoiceAmount The invoice amount.\n      * @param _fundingGoal The funding goal of the borrower.\n      * @param _platformTaxPercent The percentage charged by the platform\n      * @param _signedDocumentIPFSHash The hash of related invoice documentation saved on IPFS.\n      */\n    function createCrowdsale(\n            bytes32 _currencySymbol,\n            bytes32 _borrowerId,\n            bytes32 _invoiceId,\n            string _invoiceNumber,\n            uint _invoiceAmount,\n            uint _fundingGoal,\n            uint _platformTaxPercent,\n            string _signedDocumentIPFSHash,\n            uint _extraTime)\n        public onlyServer\n    {\n        require(currencies[_currencySymbol] != 0x0);\n\n        address crowdsaleAddr = CM.createCrowdsale(\n            _currencySymbol,\n            _borrowerId,\n            _invoiceId,\n            _invoiceNumber,\n            _invoiceAmount,\n            _fundingGoal,\n            _platformTaxPercent,\n            _signedDocumentIPFSHash,\n            _extraTime\n        );\n\n        uint deadline = now + 24 hours;\n\n        EventNewCrowdsale(crowdsaleAddr, _currencySymbol, _borrowerId, _invoiceId, _invoiceNumber, _invoiceAmount, _fundingGoal, deadline);\n\n    }\n\n\n    /** @dev Allows a bidder to place a bid in an invoice crowdsale.\n      * @param groupIndex The index/location of a group in a set of groups.\n      * @param bidderId The bidder id/location in a set of bidders.\n      * @param name The bidder name.\n      * @param value The bid value.\n      * @param crowdsaleAddr The address of the crowdsale contract.\n      * @return success A boolean value indicating whether a bid has been successful.\n      */\n    function bid(address crowdsaleAddr, uint groupIndex, bytes32 bidderId, string name, uint value)\n        public onlyServer returns (bool success)\n    {\n        iCrowdsale CS = iCrowdsale(crowdsaleAddr);\n\n        uint8 err;\n        uint finalValue;\n        uint groupGoal;\n        bool goalReached;\n        (err, finalValue, groupGoal, goalReached) = CS.bid(groupIndex, bidderId, name, value);\n\n        if (err == 0) {\n            _transfer(CS.currencySymbol(), bidderId, LEDGER_SYSTEM_ACCOUNT, finalValue);\n            return true;\n        } else {\n            return false;\n        }\n    }\n\n    /** @dev Allows a first time bidder to create a new group if they do not belong to a group\n      * @dev and place an intial bid.\n      * @dev This function creates a group and calls the bid() function.\n      * @param groupName The name of the new investor group to be created.\n      * @param goal The group funding goal.\n      * @param bidderId The bidder id/location in a set of bidders.\n      * @param name The bidder name.\n      * @param value The bid value.\n      * @param crowdsaleAddr The address of the crowdsale contract.\n      * @return err 0 or 1 implying absence or presence of error.\n      * @return finalValue All bidder's bids value.\n      * @return groupGoal An unsigned integer representing the group's goal.\n      * @return goalReached A boolean value indicating whether the group goal has reached or not.\n      */\n    function initialBid(address crowdsaleAddr, string groupName, uint goal, bytes32 bidderId, string name, uint value)\n        public onlyServer returns (bool success)\n    {\n        iCrowdsale CS = iCrowdsale(crowdsaleAddr);\n\n        uint8 err;\n        uint finalValue;\n        uint groupGoal;\n        bool goalReached;\n        (err, finalValue, groupGoal, goalReached) = CS.initialBid(groupName, goal, bidderId, name, value);\n\n        if (err == 0) {\n            _transfer(CS.currencySymbol(), bidderId, LEDGER_SYSTEM_ACCOUNT, finalValue);\n            return true;\n        } else {\n            return false;\n        }\n    }\n    /** @dev Funds an invoice crowdsale address with tokens\n      * @param crowdsaleAddr The invoice crowdsale address to fund\n      */\n    function fundBeneficiary(address crowdsaleAddr) public {\n        iCrowdsale CS = iCrowdsale(crowdsaleAddr);\n        require(CS.getHasWinnerGroup() == true);// bug fix - there has to be winner group set before beneficiary is funded\n\n        uint8 err;\n        uint amount;\n        (err, amount) = CS.getAmountForBeneficiary();\n        if (err != 0) { return; }\n\n        bytes32 borrowerId = CS.borrowerId();\n        bytes32 currency = CS.currencySymbol();\n        _transfer(currency, LEDGER_SYSTEM_ACCOUNT, borrowerId, amount);\n\n        CS.setSentToBeneficiary();\n        EventBeneficiaryFunded(crowdsaleAddr, borrowerId, currency, amount);\n    }\n\n    /** @dev Transfers refund to loosing groups after crowdsale has closed.\n      * @dev This function has to be split, because it might exceed the gas limit, if the groups and bidders are too many.\n      * @param crowdsaleAddr The invoice crowdsale address.\n      */\n    function refundLosingGroups(address crowdsaleAddr) public {\n        iCrowdsale CS = iCrowdsale(crowdsaleAddr);\n\n        if (States(CS.getStatus()) != States.Closed) { return; }\n\n        bytes32 currency = CS.currencySymbol();\n        uint groupsCount = CS.getGroupsCount();\n        uint winnerGroupIndex = CS.winnerGroupIndex();\n\n        // Loop all bidding groups\n        for (uint groupIndex = 0; groupIndex < groupsCount; groupIndex++) {\n            uint biddersCount;\n            bool hasReceivedTokensBack;\n            ( , , biddersCount, , hasReceivedTokensBack) = CS.getGroup(groupIndex);\n\n            // Check if group is not winner group and has not already been refunded\n            if (groupIndex != winnerGroupIndex && hasReceivedTokensBack == false) {\n                // Loop all bidders\n                for (uint bidderIndex = 0; bidderIndex < biddersCount; bidderIndex++) {\n                    bytes32 bidderId;\n                    uint bidAmount;\n                    bool bidderHasReceivedTokensBack;\n                    (bidderId, , bidAmount, bidderHasReceivedTokensBack) = CS.getGroupBidder(groupIndex, bidderIndex);\n\n                    // Check if bidder has already been refunded\n                    if (bidderHasReceivedTokensBack == false) {\n                        // Refund bidder\n                        _transfer(currency, LEDGER_SYSTEM_ACCOUNT, bidderId, bidAmount);\n                        \n                        // Save bidder refund in Crowdsale contract\n                        CS.setBidderHasReceivedTokensBack(groupIndex, bidderIndex);\n\n                        EventLosingGroupBidderRefunded(crowdsaleAddr, groupIndex, bidderId, currency, bidAmount);\n                    }\n                }\n            }\n        }\n    }\n\n    /** @dev Transfers refund to a bidder after crowdsale has closed.\n      * @param crowdsaleAddr The invoice crowdsale address.\n      * @param groupIndex Group id used to find group among collection of groups.\n      * @param bidderIndex Bidder id used to find bidder among collection of bidders in a group.\n      */\n    function refundLosingGroupBidder(address crowdsaleAddr, uint groupIndex, uint bidderIndex) public {\n        iCrowdsale CS = iCrowdsale(crowdsaleAddr);\n\n        if (States(CS.getStatus()) != States.Closed) { return; }\n\n        if (CS.winnerGroupIndex() == groupIndex && CS.getHasWinnerGroup() == true) {return;} //bug fix - check hasWinnerGroup is set in crowdsale\n\n        bytes32 bidderId;\n        uint bidAmount;\n        bool bidderHasReceivedTokensBack;\n        (bidderId, , bidAmount, bidderHasReceivedTokensBack) = CS.getGroupBidder(groupIndex, bidderIndex);\n\n        if (bidderHasReceivedTokensBack == false && bidderId.length != 0) {\n            bytes32 currency = CS.currencySymbol();\n            _transfer(currency, LEDGER_SYSTEM_ACCOUNT, bidderId, bidAmount);\n            \n            // Save bidder refund in Crowdsale contract\n            CS.setBidderHasReceivedTokensBack(groupIndex, bidderIndex);\n\n            EventLosingGroupBidderRefunded(crowdsaleAddr, groupIndex, bidderId, currency, bidAmount);\n        }\n    }\n\n    /** @dev Transfers payment to invoice crowdsale contract waiting for payment.\n      * @param crowdsaleAddr The invoice crowdsale address.\n      * @param paidAmount The amount to be paid.\n      */\n    function invoicePaymentReceived(address crowdsaleAddr, uint paidAmount) public onlyServer {\n        iCrowdsale CS = iCrowdsale(crowdsaleAddr);\n\n        //if (States(CS.getStatus()) != States.WaitingForInvoicePayment || CS.sentToWinnerGroup() == true) { return; }   \n\n        assert(States(CS.getStatus()) == States.WaitingForInvoicePayment || CS.sentToWinnerGroup() == true);   \n\n        require(CS.invoiceAmount() <= paidAmount);\n\n        bytes32 currency = CS.currencySymbol();\n        _mintTokens(currency, paidAmount);\n\n        CS.setPaidAmount(paidAmount);\n        \n        EventPaymentReceived(crowdsaleAddr, currency, paidAmount);\n    }\n    \n    /** @dev Transfers funds/payment to bidders in winner group based on contributions/total bid.\n      * @param crowdsaleAddr The invoice crowdsale address.\n      */\n    function fundWinnerGroup(address crowdsaleAddr) public {\n        iCrowdsale CS = iCrowdsale(crowdsaleAddr);\n\n        if (States(CS.getStatus()) != States.PaymentReceived) { return; }\n\n        uint winnerGroupIndex = CS.winnerGroupIndex();\n        uint biddersCount;\n        uint amountRaised;\n        bool hasReceivedTokensBack;\n\n        (, , biddersCount, amountRaised, hasReceivedTokensBack) = CS.getGroup(winnerGroupIndex);\n\n        if (hasReceivedTokensBack == true) { return; }\n\n        bytes32 currency = CS.currencySymbol();\n        uint paidAmount = CS.paidAmount();\n\n        for (uint bidderIndex = 0; bidderIndex < biddersCount; bidderIndex++) {\n            bytes32 bidderId;\n            uint bidAmount;\n            bool bidderHasReceivedTokensBack;\n            (bidderId, , bidAmount, bidderHasReceivedTokensBack) = CS.getGroupBidder(winnerGroupIndex, bidderIndex);\n\n            // Check if bidder has already been funded\n            if (bidderHasReceivedTokensBack == true) { continue; }\n\n            // Fund winning bidder based on his contribution\n            uint benefitsAmount = bidAmount * paidAmount / amountRaised;\n\n            _transfer(currency, LEDGER_SYSTEM_ACCOUNT, bidderId, benefitsAmount);\n            \n            // Save bidder refund in Crowdsale contract\n            CS.setBidderHasReceivedTokensBack(winnerGroupIndex, bidderIndex);\n\n            EventWinnerGroupBidderFunded(crowdsaleAddr, winnerGroupIndex, bidderId, currency, bidAmount, benefitsAmount);\n        }\n    }\n\n    /** @dev Transfers funds/payment to a bidder in winner group.\n      * @param crowdsaleAddr The invoice crowdsale address.\n      * @param bidderIndex The ID used to find the bidder among collection of bidders in the winner group  with winnerGroupIndex.\n      */\n    function fundWinnerGroupBidder(address crowdsaleAddr, uint bidderIndex) public {\n        iCrowdsale CS = iCrowdsale(crowdsaleAddr);\n\n        if (States(CS.getStatus()) != States.PaymentReceived) { return; }\n\n        uint winnerGroupIndex = CS.winnerGroupIndex();\n        \n        bytes32 bidderId;\n        uint bidAmount;\n        bool bidderHasReceivedTokensBack;\n        (bidderId, , bidAmount, bidderHasReceivedTokensBack) = CS.getGroupBidder(winnerGroupIndex, bidderIndex);\n\n        if (bidderHasReceivedTokensBack == false && bidderId.length != 0) {\n            uint amountRaised;\n            (, , , amountRaised, ) = CS.getGroup(winnerGroupIndex);\n\n            bytes32 currency = CS.currencySymbol();\n            uint paidAmount = CS.paidAmount();\n            // Fund winning bidder based on his contribution\n            uint benefitsAmount = bidAmount * paidAmount / amountRaised;\n\n            _transfer(currency, LEDGER_SYSTEM_ACCOUNT, bidderId, benefitsAmount);\n            \n            // Save bidder refund in Crowdsale contract\n            CS.setBidderHasReceivedTokensBack(winnerGroupIndex, bidderIndex);\n\n            EventWinnerGroupBidderFunded(crowdsaleAddr, winnerGroupIndex, bidderId, currency, bidAmount, benefitsAmount);\n        }\n    }    \n    /**\n    END OF CROWDSALE MODULE\n    */\n\n    /**\n    START OF PPT DEPOSIT MODULE\n    */\n\n    // NON-CONSTANT METHODS\n\n    function createDepositContract(bytes32 clientId) public onlyServer {\n        // Creates a new deposit contract linked to a client ID\n        address depositContractAddress = iDepositContractsManager(DCM).create(clientId);\n        // Event triggered when deposit contract is created\n        EventNewDepositContract(clientId, depositContractAddress);\n    }\n\n    /** @dev Deposits an amount of tokens linked to a client ID.\n      * @dev client receives the receiveAmount in the receiveCurrency\n      * @dev the amount is sent from populous and linked to clientId \n      * @dev on the ledger in the specified currency\n      * @dev When the actor deposits funds into the platform, \n      * @dev an equivalent amount of tokens is deposited into his account.\n      * @param clientId The client ID.\n      * @param tokenContract The token contract.\n      * @param receiveCurrency The currency symbol.\n      * @param depositAmount The deposit amount.\n      * @param receiveAmount The receive amount.\n      * @return bool boolean value indicating whether or not a deposit transaction has been made with success.\n      */\n    function deposit(\n        bytes32 clientId,\n        address tokenContract,\n        bytes32 receiveCurrency,\n        uint depositAmount,\n        uint receiveAmount\n    )\n        public onlyServer returns (bool)\n    {\n        bool success;\n        uint depositIndex;\n        \n        // success and depositIndex are both returned from the deposit method of\n        // iDepositContractsManager\n        (success, depositIndex) = iDepositContractsManager(DCM).deposit(\n            clientId,\n            tokenContract,\n            receiveCurrency,\n            depositAmount,\n            receiveAmount\n        );\n\n        if (success) {\n            _mintTokens(receiveCurrency, receiveAmount);\n            _transfer(receiveCurrency, LEDGER_SYSTEM_ACCOUNT, clientId, receiveAmount);\n\n            EventNewDeposit(clientId, tokenContract, receiveCurrency, depositAmount, receiveAmount, depositIndex);\n            return true;\n        }\n        return false;\n    }\n\n    /** @dev Releases a deposit to an address/wallet.\n      * @param clientId The client ID.\n      * @param tokenContract The token contract.\n      * @param releaseCurrency The currency symbol.\n      * @param receiver The address/wallet of the receiver.\n      * @param depositIndex The index/location of a specific deposit.\n      * @return bool boolean value indicating whether or not a deposit has been updated with success.\n      */\n    function releaseDeposit(\n        bytes32 clientId, \n        address tokenContract,\n        bytes32 releaseCurrency,\n        address receiver,\n        uint depositIndex\n    )\n        public\n        onlyServer\n        returns (bool)\n    {\n        bool success;\n        uint deposited;\n        uint received;\n\n        (success, deposited, received) = iDepositContractsManager(DCM).releaseDeposit(\n            clientId,\n            tokenContract,\n            releaseCurrency,\n            receiver,\n            depositIndex\n        );\n\n        if (success) {\n            _transfer(releaseCurrency, clientId, LEDGER_SYSTEM_ACCOUNT, received);\n            _destroyTokens(releaseCurrency, received);\n\n            EventDepositReleased(clientId, tokenContract, releaseCurrency, deposited, received, depositIndex);\n            return true;\n        }\n        return false;\n    }\n    /**\n    END OF PPT DEPOSIT MODULE\n    */\n}",
  "sourcePath": "/Users/najienka/Desktop/populous-smartcontracts/contracts/Populous.sol",
  "schemaVersion": "1.0.0",
  "updatedAt": "2018-01-24T11:18:21.139Z"
}