{
  "contractName": "Populous",
  "abi": [
    {
      "constant": false,
      "inputs": [
        {
          "name": "_accessManager",
          "type": "address"
        }
      ],
      "name": "updateAccessManager",
      "outputs": [],
      "payable": false,
      "stateMutability": "nonpayable",
      "type": "function"
    },
    {
      "constant": true,
      "inputs": [
        {
          "name": "_blockchainActionId",
          "type": "bytes32"
        }
      ],
      "name": "getBlockchainActionIdData",
      "outputs": [
        {
          "name": "",
          "type": "bytes32"
        },
        {
          "name": "",
          "type": "uint256"
        },
        {
          "name": "",
          "type": "bytes32"
        },
        {
          "name": "",
          "type": "address"
        }
      ],
      "payable": false,
      "stateMutability": "view",
      "type": "function"
    },
    {
      "constant": true,
      "inputs": [
        {
          "name": "clientId",
          "type": "bytes32"
        }
      ],
      "name": "getDepositAddress",
      "outputs": [
        {
          "name": "",
          "type": "address"
        }
      ],
      "payable": false,
      "stateMutability": "view",
      "type": "function"
    },
    {
      "constant": true,
      "inputs": [
        {
          "name": "_invoiceId",
          "type": "bytes32"
        }
      ],
      "name": "getRecordDocumentIndexes",
      "outputs": [
        {
          "name": "",
          "type": "uint256"
        }
      ],
      "payable": false,
      "stateMutability": "view",
      "type": "function"
    },
    {
      "constant": false,
      "inputs": [
        {
          "name": "_blockchainActionId",
          "type": "bytes32"
        },
        {
          "name": "clientId",
          "type": "bytes32"
        }
      ],
      "name": "createAddress",
      "outputs": [],
      "payable": false,
      "stateMutability": "nonpayable",
      "type": "function"
    },
    {
      "constant": true,
      "inputs": [
        {
          "name": "_blockchainActionId",
          "type": "bytes32"
        }
      ],
      "name": "getBlockInvoiceId",
      "outputs": [
        {
          "name": "",
          "type": "bytes32"
        }
      ],
      "payable": false,
      "stateMutability": "view",
      "type": "function"
    },
    {
      "constant": false,
      "inputs": [
        {
          "name": "_blockchainActionId",
          "type": "bytes32"
        },
        {
          "name": "currency",
          "type": "bytes32"
        },
        {
          "name": "from",
          "type": "address"
        },
        {
          "name": "accountId",
          "type": "bytes32"
        }
      ],
      "name": "importPokens",
      "outputs": [],
      "payable": false,
      "stateMutability": "nonpayable",
      "type": "function"
    },
    {
      "constant": true,
      "inputs": [
        {
          "name": "currency",
          "type": "address"
        }
      ],
      "name": "getCurrencySymbol",
      "outputs": [
        {
          "name": "",
          "type": "bytes32"
        }
      ],
      "payable": false,
      "stateMutability": "view",
      "type": "function"
    },
    {
      "constant": false,
      "inputs": [
        {
          "name": "_blockchainActionId",
          "type": "bytes32"
        },
        {
          "name": "accountId",
          "type": "bytes32"
        },
        {
          "name": "to",
          "type": "address"
        },
        {
          "name": "amount",
          "type": "uint256"
        },
        {
          "name": "currency",
          "type": "bytes32"
        }
      ],
      "name": "withdrawPoken",
      "outputs": [],
      "payable": false,
      "stateMutability": "nonpayable",
      "type": "function"
    },
    {
      "constant": false,
      "inputs": [
        {
          "name": "_blockchainActionId",
          "type": "bytes32"
        },
        {
          "name": "_invoiceId",
          "type": "bytes32"
        },
        {
          "name": "_ipfsHash",
          "type": "bytes"
        }
      ],
      "name": "insertBlock",
      "outputs": [],
      "payable": false,
      "stateMutability": "nonpayable",
      "type": "function"
    },
    {
      "constant": false,
      "inputs": [
        {
          "name": "_invoiceId",
          "type": "bytes32"
        },
        {
          "name": "_dataHash",
          "type": "bytes"
        },
        {
          "name": "_dataType",
          "type": "bytes32"
        }
      ],
      "name": "insertSource",
      "outputs": [],
      "payable": false,
      "stateMutability": "nonpayable",
      "type": "function"
    },
    {
      "constant": true,
      "inputs": [
        {
          "name": "_blockchainActionId",
          "type": "bytes32"
        }
      ],
      "name": "getActionStatus",
      "outputs": [
        {
          "name": "",
          "type": "bool"
        }
      ],
      "payable": false,
      "stateMutability": "view",
      "type": "function"
    },
    {
      "constant": false,
      "inputs": [
        {
          "name": "_blockchainActionId",
          "type": "bytes32"
        },
        {
          "name": "_tokenName",
          "type": "bytes32"
        },
        {
          "name": "_decimalUnits",
          "type": "uint8"
        },
        {
          "name": "_tokenSymbol",
          "type": "bytes32"
        }
      ],
      "name": "createCurrency",
      "outputs": [],
      "payable": false,
      "stateMutability": "nonpayable",
      "type": "function"
    },
    {
      "constant": false,
      "inputs": [
        {
          "name": "_blockchainActionId",
          "type": "bytes32"
        },
        {
          "name": "pptAddress",
          "type": "address"
        },
        {
          "name": "accountId",
          "type": "bytes32"
        },
        {
          "name": "depositContract",
          "type": "address"
        },
        {
          "name": "to",
          "type": "address"
        },
        {
          "name": "amount",
          "type": "uint256"
        },
        {
          "name": "inCollateral",
          "type": "uint256"
        }
      ],
      "name": "withdrawPPT",
      "outputs": [],
      "payable": false,
      "stateMutability": "nonpayable",
      "type": "function"
    },
    {
      "constant": true,
      "inputs": [
        {
          "name": "currency",
          "type": "bytes32"
        }
      ],
      "name": "getCurrency",
      "outputs": [
        {
          "name": "",
          "type": "address"
        }
      ],
      "payable": false,
      "stateMutability": "view",
      "type": "function"
    },
    {
      "constant": true,
      "inputs": [
        {
          "name": "_invoiceId",
          "type": "bytes32"
        },
        {
          "name": "documentIndex",
          "type": "uint256"
        }
      ],
      "name": "getRecord",
      "outputs": [
        {
          "name": "",
          "type": "bytes"
        },
        {
          "name": "",
          "type": "bytes32"
        }
      ],
      "payable": false,
      "stateMutability": "view",
      "type": "function"
    },
    {
      "constant": true,
      "inputs": [],
      "name": "AM",
      "outputs": [
        {
          "name": "",
          "type": "address"
        }
      ],
      "payable": false,
      "stateMutability": "view",
      "type": "function"
    },
    {
      "inputs": [
        {
          "name": "_accessManager",
          "type": "address"
        }
      ],
      "payable": false,
      "stateMutability": "nonpayable",
      "type": "constructor"
    },
    {
      "anonymous": false,
      "inputs": [
        {
          "indexed": false,
          "name": "blockchainActionId",
          "type": "bytes32"
        },
        {
          "indexed": false,
          "name": "invoiceId",
          "type": "bytes32"
        },
        {
          "indexed": false,
          "name": "sourceLength",
          "type": "uint256"
        }
      ],
      "name": "EventNewCrowdsaleBlock",
      "type": "event"
    },
    {
      "anonymous": false,
      "inputs": [
        {
          "indexed": false,
          "name": "invoiceId",
          "type": "bytes32"
        },
        {
          "indexed": false,
          "name": "sourceLength",
          "type": "uint256"
        }
      ],
      "name": "EventNewCrowdsaleSource",
      "type": "event"
    },
    {
      "anonymous": false,
      "inputs": [
        {
          "indexed": false,
          "name": "blockchainActionId",
          "type": "bytes32"
        },
        {
          "indexed": false,
          "name": "accountId",
          "type": "bytes32"
        },
        {
          "indexed": false,
          "name": "depositContract",
          "type": "address"
        },
        {
          "indexed": false,
          "name": "to",
          "type": "address"
        },
        {
          "indexed": false,
          "name": "amount",
          "type": "uint256"
        }
      ],
      "name": "EventWithdrawPPT",
      "type": "event"
    },
    {
      "anonymous": false,
      "inputs": [
        {
          "indexed": false,
          "name": "blockchainActionId",
          "type": "bytes32"
        },
        {
          "indexed": false,
          "name": "accountId",
          "type": "bytes32"
        },
        {
          "indexed": false,
          "name": "to",
          "type": "address"
        },
        {
          "indexed": false,
          "name": "amount",
          "type": "uint256"
        },
        {
          "indexed": false,
          "name": "currency",
          "type": "bytes32"
        }
      ],
      "name": "EventWithdrawPokens",
      "type": "event"
    },
    {
      "anonymous": false,
      "inputs": [
        {
          "indexed": false,
          "name": "blockchainActionId",
          "type": "bytes32"
        },
        {
          "indexed": false,
          "name": "from",
          "type": "address"
        },
        {
          "indexed": false,
          "name": "accountId",
          "type": "bytes32"
        },
        {
          "indexed": false,
          "name": "currency",
          "type": "bytes32"
        },
        {
          "indexed": false,
          "name": "balance",
          "type": "uint256"
        }
      ],
      "name": "EventImportPokens",
      "type": "event"
    },
    {
      "anonymous": false,
      "inputs": [
        {
          "indexed": false,
          "name": "blockchainActionId",
          "type": "bytes32"
        },
        {
          "indexed": false,
          "name": "tokenName",
          "type": "bytes32"
        },
        {
          "indexed": false,
          "name": "decimalUnits",
          "type": "uint8"
        },
        {
          "indexed": false,
          "name": "tokenSymbol",
          "type": "bytes32"
        },
        {
          "indexed": false,
          "name": "addr",
          "type": "address"
        }
      ],
      "name": "EventNewCurrency",
      "type": "event"
    },
    {
      "anonymous": false,
      "inputs": [
        {
          "indexed": false,
          "name": "blockchainActionId",
          "type": "bytes32"
        },
        {
          "indexed": false,
          "name": "clientId",
          "type": "bytes32"
        },
        {
          "indexed": false,
          "name": "depositContractAddress",
          "type": "address"
        }
      ],
      "name": "EventNewDepositContract",
      "type": "event"
    }
  ],
  "bytecode": "0x6060604052341561000f57600080fd5b6040516020806128078339810160405280805160008054600160a060020a03909216600160a060020a031990921691909117905550506127b3806100546000396000f300606060405236156100d55763ffffffff60e060020a60003504166302ab72c481146100da578063120ab58c146100fb5780632a01a4511461014557806335d19508146101775780633b6d63871461019f5780634910784b146101b85780634bb16865146101ce578063554c9b6a146101f65780635e7cad1e146102155780637479290f146102405780637c9ca7451461029c578063bea0897c146102f4578063c80e7ee81461031e578063d1c5113a14610340578063d383b80d14610378578063f24d954e1461038e578063f7f01b4b14610426575b600080fd5b34156100e557600080fd5b6100f9600160a060020a0360043516610439565b005b341561010657600080fd5b6101116004356104df565b6040519384526020840192909252604080840191909152600160a060020a0390911660608301526080909101905180910390f35b341561015057600080fd5b61015b60043561053a565b604051600160a060020a03909116815260200160405180910390f35b341561018257600080fd5b61018d600435610555565b60405190815260200160405180910390f35b34156101aa57600080fd5b6100f960043560243561056a565b34156101c357600080fd5b61018d60043561072c565b34156101d957600080fd5b6100f9600435602435600160a060020a0360443516606435610759565b341561020157600080fd5b61018d600160a060020a0360043516610a11565b341561022057600080fd5b6100f9600435602435600160a060020a0360443516606435608435610a2c565b341561024b57600080fd5b6100f9600480359060248035919060649060443590810190830135806020601f82018190048102016040519081016040528181529291906020840183838082843750949650610c6595505050505050565b34156102a757600080fd5b6100f9600480359060446024803590810190830135806020601f820181900481020160405190810160405281815292919060208401838380828437509496505093359350610e3e92505050565b34156102ff57600080fd5b61030a600435610f12565b604051901515815260200160405180910390f35b341561032957600080fd5b6100f960043560243560ff60443516606435610f27565b341561034b57600080fd5b6100f9600435600160a060020a03602435811690604435906064358116906084351660a43560c435611153565b341561038357600080fd5b61015b6004356113c8565b341561039957600080fd5b6103a76004356024356113e3565b6040516020810182905260408082528190810184818151815260200191508051906020019080838360005b838110156103ea5780820151838201526020016103d2565b50505050905090810190601f1680156104175780820380516001836020036101000a031916815260200191505b50935050505060405180910390f35b341561043157600080fd5b61015b6114f1565b60008054600160a060020a03169063fda089589033906040516020015260405160e060020a63ffffffff8416028152600160a060020a039091166004820152602401602060405180830381600087803b151561049457600080fd5b6102c65a03f115156104a557600080fd5b5050506040518051151560011490506104bd57600080fd5b60008054600160a060020a031916600160a060020a0392909216919091179055565b60008181526003602052604081205481908190819060ff16151560011461050557600080fd5b5050506000918252506004602052604090208054600182015460028301546003909301549193909291600160a060020a031690565b600090815260056020526040902054600160a060020a031690565b60009081526007602052604090206001015490565b60008054600160a060020a03169063fda089589033906040516020015260405160e060020a63ffffffff8416028152600160a060020a039091166004820152602401602060405180830381600087803b15156105c557600080fd5b6102c65a03f115156105d657600080fd5b5050506040518051151560011490506105ee57600080fd5b60008281526003602052604090205460ff161561060a57600080fd5b6000548190600160a060020a0316610620611573565b918252600160a060020a0316602082015260409081019051809103906000f080151561064b57600080fd5b60008281526005602052604090208054600160a060020a031916600160a060020a03928316179081905516151561067e57fe5b6000828152600360208181526040808420805460ff1916600117905560048252808420600281018690558585526005909252928390208054919092018054600160a060020a031916600160a060020a0392831617905590547fb6e4c061023577b7e47ffdc4a06fbdb30a157c488fdd58e1735c32b6d8b33cb292859285921690519283526020830191909152600160a060020a03166040808301919091526060909101905180910390a15050565b600081815260066020526040812054151561074657600080fd5b5060009081526006602052604090205490565b600080548190600160a060020a031663fda0895833836040516020015260405160e060020a63ffffffff8416028152600160a060020a039091166004820152602401602060405180830381600087803b15156107b457600080fd5b6102c65a03f115156107c557600080fd5b5050506040518051151560011490506107dd57600080fd5b60008681526003602052604090205460ff16156107f957600080fd5b60008581526001602052604080822054600160a060020a0316935083916370a0823191879190516020015260405160e060020a63ffffffff8416028152600160a060020a039091166004820152602401602060405180830381600087803b151561086257600080fd5b6102c65a03f1151561087357600080fd5b505050604051805190509050600082600160a060020a03166370a082318660006040516020015260405160e060020a63ffffffff8416028152600160a060020a039091166004820152602401602060405180830381600087803b15156108d857600080fd5b6102c65a03f115156108e957600080fd5b5050506040518051905011801561097a575081600160a060020a0316630156b323828660006040516020015260405160e060020a63ffffffff85160281526004810192909252600160a060020a03166024820152604401602060405180830381600087803b151561095957600080fd5b6102c65a03f1151561096a57600080fd5b5050506040518051151560011490505b151561098557600080fd5b6000868152600360205260409020805460ff191660011790556109ab8686838688611500565b7f90a5d8fd9554c22cfaf50cbedf93c205ff3cb24aef9fb4064add2998aa170e298685858885604051948552600160a060020a0390931660208501526040808501929092526060840152608083019190915260a0909101905180910390a1505050505050565b600160a060020a031660009081526002602052604090205490565b60008054600160a060020a031663fda0895833836040516020015260405160e060020a63ffffffff8416028152600160a060020a039091166004820152602401602060405180830381600087803b1515610a8557600080fd5b6102c65a03f11515610a9657600080fd5b505050604051805115156001149050610aae57600080fd5b60008681526003602052604090205460ff1615610aca57600080fd5b600082815260016020526040902054600160a060020a03161515610aed57600080fd5b506000818152600160205260409081902054600160a060020a03169081906397304ced9085905160e060020a63ffffffff84160281526004810191909152602401600060405180830381600087803b1515610b4757600080fd5b6102c65a03f11515610b5857600080fd5b50505080600160a060020a031663a9059cbb858560006040516020015260405160e060020a63ffffffff8516028152600160a060020a0390921660048301526024820152604401602060405180830381600087803b1515610bb857600080fd5b6102c65a03f11515610bc957600080fd5b505050604051805150506000868152600360205260409020805460ff19166001179055610bf98683858888611500565b7f648ca77b0808ef59be9348821ab5e09b2c80035dc2b94ff8edfdf76ca16be87e86868686866040519485526020850193909352600160a060020a039091166040808501919091526060840191909152608083019190915260a0909101905180910390a1505050505050565b60008054600160a060020a03169063fda089589033906040516020015260405160e060020a63ffffffff8416028152600160a060020a039091166004820152602401602060405180830381600087803b1515610cc057600080fd5b6102c65a03f11515610cd157600080fd5b505050604051805115156001149050610ce957600080fd5b60008281526007602052604090205460ff1615610d0557600080fd5b60008381526003602052604090205460ff1615610d2157600080fd5b60008281526007602052604090206001908101805490918101610d448382611583565b91600052602060002090600202016000604080519081016040528481527f697066735f6861736800000000000000000000000000000000000000000000006020820152919050815181908051610d9e9291602001906115b4565b5060208201516001918201556000858152600760209081526040808320805460ff19908116861790915589845260068352818420899055600390925290912080549091169091179055507faeccf764a9954c687874cba18109f23b9d0750dcc0010ce121ac237364e5071090508383610e1681610555565b60405192835260208301919091526040808301919091526060909101905180910390a1505050565b60008381526007602052604090205460ff161515600114610e5e57600080fd5b60008381526007602052604090206001908101805490918101610e818382611583565b916000526020600020906002020160006040805190810160405285815260208101859052919050815181908051610ebc9291602001906115b4565b506020820151600190910155507f5583d38cfda3dfc295e2d9e0d861ef8b9afc9b8d553938ad5253dd697070e9f8905083610ef681610555565b60405191825260208201526040908101905180910390a1505050565b60009081526003602052604090205460ff1690565b60008054600160a060020a03169063fda089589033906040516020015260405160e060020a63ffffffff8416028152600160a060020a039091166004820152602401602060405180830381600087803b1515610f8257600080fd5b6102c65a03f11515610f9357600080fd5b505050604051805115156001149050610fab57600080fd5b60008481526003602052604090205460ff1615610fc757600080fd5b600081815260016020526040902054600160a060020a031615610fe957600080fd5b600054600160a060020a0316838383611000611632565b600160a060020a039094168452602084019290925260ff16604080840191909152606083019190915260809091019051809103906000f080151561104357600080fd5b60008281526001602052604090208054600160a060020a031916600160a060020a03928316179081905516151561107657fe5b60008181526001602081815260408084208054600160a060020a039081168652600284528286208790558986526003808552838720805460ff19168717905560048552838720888155835491018054600160a060020a031916918316919091179055948690529290915290547f6f9a94a4b659b99ce71e6f2eaa4b609443bd0350f9e1f7b2d566815cb90f0e9692879287928792879291169051948552602085019390935260ff9091166040808501919091526060840191909152600160a060020a03909116608083015260a0909101905180910390a150505050565b600080548190600160a060020a031663fda0895833836040516020015260405160e060020a63ffffffff8416028152600160a060020a039091166004820152602401602060405180830381600087803b15156111ae57600080fd5b6102c65a03f115156111bf57600080fd5b5050506040518051151560011490506111d757600080fd5b60008981526003602052604090205460ff16156111f357600080fd5b85915061127182600160a060020a03166370a082318a60006040516020015260405160e060020a63ffffffff8416028152600160a060020a039091166004820152602401602060405180830381600087803b151561125057600080fd5b6102c65a03f1151561126157600080fd5b5050506040518051905084611561565b9050838110158015611309575081600160a060020a031663beabacc889878760006040516020015260405160e060020a63ffffffff8616028152600160a060020a0393841660048201529190921660248201526044810191909152606401602060405180830381600087803b15156112e857600080fd5b6102c65a03f115156112f957600080fd5b5050506040518051151560011490505b151561131457600080fd5b6000898152600360205260409020805460ff1916600117905561135a897f5050540000000000000000000000000000000000000000000000000000000000868a89611500565b7fb34e83f654f4c047e331cea47cc1783dd0511abde3cac240a47bfbdefd6812e889888888886040519485526020850193909352600160a060020a0391821660408086019190915291166060840152608083019190915260a0909101905180910390a1505050505050505050565b600090815260016020526040902054600160a060020a031690565b6113eb611642565b600083815260076020526040812060010180548490811061140857fe5b60009182526020808320878452600790915260409092206001018054600290920290920191908590811061143857fe5b906000526020600020906002020160010154818054600181600116156101000203166002900480601f0160208091040260200160405190810160405280929190818152602001828054600181600116156101000203166002900480156114df5780601f106114b4576101008083540402835291602001916114df565b820191906000526020600020905b8154815290600101906020018083116114c257829003601f168201915b50505050509150915091509250929050565b600054600160a060020a031681565b60008581526003602052604090205460ff16151560011461152057600080fd5b600094855260046020526040909420928355600183019190915560028201556003018054600160a060020a031916600160a060020a03909216919091179055565b60008282111561156d57fe5b50900390565b60405161044b806116e383390190565b8154818355818115116115af576002028160020283600052602060002091820191016115af9190611654565b505050565b828054600181600116156101000203166002900490600052602060002090601f016020900481019282601f106115f557805160ff1916838001178555611622565b82800160010185558215611622579182015b82811115611622578251825591602001919060010190611607565b5061162e929150611681565b5090565b604051610c5a80611b2e83390190565b60206040519081016040526000815290565b61167e91905b8082111561162e57600061166e828261169b565b506000600182015560020161165a565b90565b61167e91905b8082111561162e5760008155600101611687565b50805460018160011615610100020316600290046000825580601f106116c157506116df565b601f0160209004906000526020600020908101906116df9190611681565b5056006060604052341561000f57600080fd5b60405160408061044b833981016040528080519190602001805160008054600160a060020a03909216600160a060020a031990921691909117905550506001556103ed8061005e6000396000f300606060405263ffffffff60e060020a60003504166302ab72c4811461004457806370a0823114610065578063beabacc814610096578063f7f01b4b146100d257600080fd5b341561004f57600080fd5b610063600160a060020a0360043516610101565b005b341561007057600080fd5b610084600160a060020a03600435166101b4565b60405190815260200160405180910390f35b34156100a157600080fd5b6100be600160a060020a036004358116906024351660443561022d565b604051901515815260200160405180910390f35b34156100dd57600080fd5b6100e56103b2565b604051600160a060020a03909116815260200160405180910390f35b60008054600160a060020a03169063fda089589033906040516020015260405160e060020a63ffffffff8416028152600160a060020a039091166004820152602401602060405180830381600087803b151561015c57600080fd5b6102c65a03f1151561016d57600080fd5b50505060405180511515600114905061018557600080fd5b6000805473ffffffffffffffffffffffffffffffffffffffff1916600160a060020a0392909216919091179055565b600081600160a060020a03166370a082313060006040516020015260405160e060020a63ffffffff8416028152600160a060020a039091166004820152602401602060405180830381600087803b151561020d57600080fd5b6102c65a03f1151561021e57600080fd5b50505060405180519392505050565b60008054600160a060020a031663fda0895833836040516020015260405160e060020a63ffffffff8416028152600160a060020a039091166004820152602401602060405180830381600087803b151561028657600080fd5b6102c65a03f1151561029757600080fd5b50505060405180511515600114905080610328575060008054600160a060020a0316906305fd22d09033906040516020015260405160e060020a63ffffffff8416028152600160a060020a039091166004820152602401602060405180830381600087803b151561030757600080fd5b6102c65a03f1151561031857600080fd5b5050506040518051151560011490505b151561033357600080fd5b83600160a060020a031663a9059cbb848460006040516020015260405160e060020a63ffffffff8516028152600160a060020a0390921660048301526024820152604401602060405180830381600087803b151561039057600080fd5b6102c65a03f115156103a157600080fd5b505050604051805195945050505050565b600054600160a060020a0316815600a165627a7a72305820aa6b00f4bb58e86009b6b26aa3b35733ea3d9e8b343423b70006bf2958ef9a310029606060405260008055341561001357600080fd5b604051608080610c5a8339810160405280805191906020018051919060200180519190602001805160068054600160a060020a031916600160a060020a03979097169690961790955550506001919091556002805460ff191660ff909216919091179055600355610bd1806100896000396000f300606060405236156100ca5763ffffffff60e060020a6000350416630156b32381146100cf57806302ab72c41461010557806306fdde0314610126578063095ea7b31461014b57806318160ddd1461016d57806323b872dd1461018057806327e235e3146101a8578063313ce567146101c75780635c658165146101f057806367fbd2891461021557806370a082311461022b57806395d89b411461024a57806397304ced1461025d578063a9059cbb14610273578063dd62ed3e14610295578063f7f01b4b146102ba575b600080fd5b34156100da57600080fd5b6100f1600435600160a060020a03602435166102e9565b604051901515815260200160405180910390f35b341561011057600080fd5b610124600160a060020a03600435166103ed565b005b341561013157600080fd5b61013961049e565b60405190815260200160405180910390f35b341561015657600080fd5b6100f1600160a060020a03600435166024356104a4565b341561017857600080fd5b610139610510565b341561018b57600080fd5b6100f1600160a060020a0360043581169060243516604435610516565b34156101b357600080fd5b610139600160a060020a036004351661061c565b34156101d257600080fd5b6101da61062e565b60405160ff909116815260200160405180910390f35b34156101fb57600080fd5b610139600160a060020a0360043581169060243516610637565b341561022057600080fd5b6100f1600435610654565b341561023657600080fd5b610139600160a060020a0360043516610898565b341561025557600080fd5b6101396108b3565b341561026857600080fd5b6101246004356108b9565b341561027e57600080fd5b6100f1600160a060020a0360043516602435610aa1565b34156102a057600080fd5b610139600160a060020a0360043581169060243516610b35565b34156102c557600080fd5b6102cd610b60565b604051600160a060020a03909116815260200160405180910390f35b600654600090600160a060020a03166305fd22d033836040516020015260405160e060020a63ffffffff8416028152600160a060020a039091166004820152602401602060405180830381600087803b151561034457600080fd5b6102c65a03f1151561035557600080fd5b50505060405180511515600114905061036d57600080fd5b600160a060020a03821660009081526004602052604090205483901015610396575060006103e7565b600160a060020a0382166000908152600460205260409020546103b99084610b6f565b600160a060020a038316600090815260046020526040812091909155546103e09084610b6f565b6000555060015b92915050565b600654600160a060020a031663fda089583360006040516020015260405160e060020a63ffffffff8416028152600160a060020a039091166004820152602401602060405180830381600087803b151561044657600080fd5b6102c65a03f1151561045757600080fd5b50505060405180511515600114905061046f57600080fd5b6006805473ffffffffffffffffffffffffffffffffffffffff1916600160a060020a0392909216919091179055565b60015481565b600160a060020a03338116600081815260056020908152604080832094871680845294909152808220859055909291907f8c5be1e5ebec7d5bd14f71427d1e84f3dd0314c0f7b2291e5b200ac8c7c3b9259085905190815260200160405180910390a350600192915050565b60005481565b600160a060020a03808416600081815260056020908152604080832033909516835293815283822054928252600490529182205483901080159061055a5750828110155b151561056557600080fd5b600160a060020a03808516600090815260046020526040808220805487019055918716815220805484900390556000198110156105ca57600160a060020a03808616600090815260056020908152604080832033909416835292905220805484900390555b83600160a060020a031685600160a060020a03167fddf252ad1be2c89b69c2b068fc378daa952ba7f163c4a11628f55a4df523b3ef8560405190815260200160405180910390a3506001949350505050565b60046020526000908152604090205481565b60025460ff1681565b600560209081526000928352604080842090915290825290205481565b600654600090600160a060020a03166305fd22d033836040516020015260405160e060020a63ffffffff8416028152600160a060020a039091166004820152602401602060405180830381600087803b15156106af57600080fd5b6102c65a03f115156106c057600080fd5b5050506040518051151560011490506106d857600080fd5b6006548290600490600090600160a060020a03166394a3760f82604051602001526040518163ffffffff1660e060020a028152600401602060405180830381600087803b151561072757600080fd5b6102c65a03f1151561073857600080fd5b5050506040518051600160a060020a0316825250602081019190915260400160002054101561076957506000610893565b6006546107f490600490600090600160a060020a03166394a3760f82604051602001526040518163ffffffff1660e060020a028152600401602060405180830381600087803b15156107ba57600080fd5b6102c65a03f115156107cb57600080fd5b5050506040518051600160a060020a031682525060208101919091526040016000205483610b6f565b600654600490600090600160a060020a03166394a3760f82604051602001526040518163ffffffff1660e060020a028152600401602060405180830381600087803b151561084157600080fd5b6102c65a03f1151561085257600080fd5b50505060405180519050600160a060020a0316600160a060020a031681526020019081526020016000208190555061088c60005483610b6f565b6000555060015b919050565b600160a060020a031660009081526004602052604090205490565b60035481565b600654600160a060020a03166305fd22d03360006040516020015260405160e060020a63ffffffff8416028152600160a060020a039091166004820152602401602060405180830381600087803b151561091257600080fd5b6102c65a03f1151561092357600080fd5b50505060405180511515600114905061093b57600080fd5b6006546109c690600490600090600160a060020a03166394a3760f82604051602001526040518163ffffffff1660e060020a028152600401602060405180830381600087803b151561098c57600080fd5b6102c65a03f1151561099d57600080fd5b5050506040518051600160a060020a031682525060208101919091526040016000205482610b81565b600654600490600090600160a060020a03166394a3760f82604051602001526040518163ffffffff1660e060020a028152600401602060405180830381600087803b1515610a1357600080fd5b6102c65a03f11515610a2457600080fd5b50505060405180519050600160a060020a0316600160a060020a0316815260200190815260200160002081905550610a5e60005482610b81565b6000556003547fb83a9cb495aa43a9871c87805ab90712a5f703de6d66d16b96d7afcc91bb3299908260405191825260208201526040908101905180910390a150565b600160a060020a03331660009081526004602052604081205482901015610ac757600080fd5b600160a060020a033381166000818152600460205260408082208054879003905592861680825290839020805486019055917fddf252ad1be2c89b69c2b068fc378daa952ba7f163c4a11628f55a4df523b3ef9085905190815260200160405180910390a350600192915050565b600160a060020a03918216600090815260056020908152604080832093909416825291909152205490565b600654600160a060020a031681565b600082821115610b7b57fe5b50900390565b6000828201838110801590610b965750828110155b1515610b9e57fe5b93925050505600a165627a7a72305820e1ea077b2b747f054457cdf87652fe476bd655b3ae3d86f141a150193e83ec3e0029a165627a7a72305820fde81066b81fb7d02892e59bf3d8d4c52dabb31caf7b04f8c0b708dcc34497400029",
  "source": "/**\nThis is the core module of the system. Currently it holds the code of\nthe Bank and crowdsale modules to avoid external calls and higher gas costs.\nIt might be a good idea in the future to split the code, separate Bank\nand crowdsale modules into external files and have the core interact with them\nwith addresses and interfaces. \n*/\npragma solidity ^0.4.17;\n\nimport \"./iERC20Token.sol\";\nimport \"./CurrencyToken.sol\";\nimport \"./DepositContract.sol\";\nimport \"./SafeMath.sol\";\n\n/// @title Populous contract\ncontract Populous is withAccessManager {\n\n    // EVENTS\n    event EventNewCrowdsaleBlock(bytes32 blockchainActionId, bytes32 invoiceId, uint sourceLength);\n    event EventNewCrowdsaleSource(bytes32 invoiceId, uint sourceLength);\n    // Bank events\n    event EventWithdrawPPT(bytes32 blockchainActionId, bytes32 accountId, address depositContract, address to, uint amount);\n    event EventWithdrawPokens(bytes32 blockchainActionId, bytes32 accountId, address to, uint amount, bytes32 currency);\n    event EventImportPokens(bytes32 blockchainActionId, address from, bytes32 accountId, bytes32 currency, uint balance);\n    event EventNewCurrency(bytes32 blockchainActionId, bytes32 tokenName, uint8 decimalUnits, bytes32 tokenSymbol, address addr);\n    event EventNewDepositContract(bytes32 blockchainActionId, bytes32 clientId, address depositContractAddress);\n\n    \n    // FIELDS\n    mapping(bytes32 => address) currencies;\n    mapping(address => bytes32) currenciesSymbols;\n    // blockchainActionId => boolean \n    mapping(bytes32 => bool) actionStatus;\n\n    struct actionData {\n        bytes32 currency;\n        uint amount;\n        bytes32 accountId;\n        address to;\n    }\n\n    mapping(bytes32 => actionData) blockchainActionIdData;\n\n    // This variable will be used to keep track of client IDs and\n    // their deposit addresses\n    // clientId => depositAddress\n    mapping(bytes32 => address) depositAddress;\n\n    struct storageSource {\n        bytes dataHash;\n        bytes32 dataType; // crowdsale (creators, bids) + addresses /exchange_date/deposit_history (latest)/ -- for external auditing.\n    }\n\n    //actionId => invoiceId\n    mapping(bytes32 => bytes32) actionIdToInvoiceId;\n\n    struct record {\n       bool isSet;\n       storageSource[] documents; //source[0] = [\"0x23222324\"]\n    }\n    //invoiceId => (isSet, documents [\"crowdsale_log\",\"exchange_history\",\"deposit_history\"])\n    mapping(bytes32 => record) Blocks;\n\n\n    // NON-CONSTANT METHODS\n    // Constructor method called when contract instance is \n    // deployed with 'withAccessManager' modifier.\n    function Populous(address _accessManager) public withAccessManager(_accessManager) { }\n    /**\n    BANK MODULE\n    */\n\n\n    // NON-CONSTANT METHODS\n\n    /** @dev Insert a crowdsale record for a specific invoice crowdsale id. \n      * Limited to only the server address or platform admin\n      * @param _blockchainActionId the blockchain action id\n      * @param _invoiceId the invoice id      \n      * @param _ipfsHash the ipfs hash of the invoice file\n      */ \n    function insertBlock(bytes32 _blockchainActionId, bytes32 _invoiceId, bytes _ipfsHash) \n    public\n    onlyServer\n    {\n        require(Blocks[_invoiceId].isSet == false);\n        require(actionStatus[_blockchainActionId] == false);\n\n        Blocks[_invoiceId].documents.push(storageSource(\n           _ipfsHash,\n           \"ipfs_hash\")\n        );\n        // record the history of a crowdsale on the ledger, with internal and external logs, and interal address too so it can be easily audited using etherscan\n        Blocks[_invoiceId].isSet = true;\n        actionIdToInvoiceId[_blockchainActionId] = _invoiceId;\n        actionStatus[_blockchainActionId] = true;\n        EventNewCrowdsaleBlock(_blockchainActionId, _invoiceId, getRecordDocumentIndexes(_invoiceId));\n\n    }\n\n    /** @dev Insert a crowdsale record for a specific invoice crowdsale id \n      * @param _dataHash the hash of the data/record\n      */ \n    function insertSource(bytes32 _invoiceId, bytes _dataHash, bytes32 _dataType) public {\n        require(Blocks[_invoiceId].isSet == true);\n        Blocks[_invoiceId].documents.push(storageSource(\n           _dataHash,\n           _dataType)        \n        );\n        EventNewCrowdsaleSource(_invoiceId, getRecordDocumentIndexes(_invoiceId));\n    }\n    /** @dev Creates a new 'depositAddress' gotten from deploying a deposit contract linked to a client ID\n      * @param clientId The bytes32 client ID\n      * @return address The address of the deployed deposit contract instance.\n      */\n    function createAddress(bytes32 _blockchainActionId, bytes32 clientId) public\n        onlyServer\n    {\n        require(actionStatus[_blockchainActionId] == false);\n        depositAddress[clientId] = new DepositContract(clientId, AM);\n        assert(depositAddress[clientId] != 0x0);\n        actionStatus[_blockchainActionId] = true;\n        blockchainActionIdData[_blockchainActionId].accountId = clientId;\n        blockchainActionIdData[_blockchainActionId].to = depositAddress[clientId];\n        EventNewDepositContract(_blockchainActionId, clientId, depositAddress[clientId]);\n    }\n\n    /** @dev Creates a new token/currency.\n      * @param _tokenName  The name of the currency.\n      * @param _decimalUnits The number of decimals the currency has.\n      * @param _tokenSymbol The cyrrency symbol, e.g., GBP\n      */\n    function createCurrency(bytes32 _blockchainActionId, bytes32 _tokenName, uint8 _decimalUnits, \n        bytes32 _tokenSymbol)\n        public\n        onlyServer\n    {   \n        require(actionStatus[_blockchainActionId] == false);\n        // Check if currency already exists\n        require(currencies[_tokenSymbol] == 0x0);\n        currencies[_tokenSymbol] = new CurrencyToken(address(AM), _tokenName, _decimalUnits, _tokenSymbol);\n        assert(currencies[_tokenSymbol] != 0x0);\n        currenciesSymbols[currencies[_tokenSymbol]] = _tokenSymbol;\n        actionStatus[_blockchainActionId] = true;\n        blockchainActionIdData[_blockchainActionId].currency = _tokenSymbol;\n        blockchainActionIdData[_blockchainActionId].to = currencies[_tokenSymbol];\n\n        EventNewCurrency(_blockchainActionId, _tokenName, _decimalUnits, _tokenSymbol, currencies[_tokenSymbol]);\n    }\n\n\n    /** @dev Withdraw an amount of PPT Populous tokens to a blockchain address \n      * @param _blockchainActionId the blockchain action id\n      * @param pptAddress the address of the PPT smart contract\n      * @param accountId the account id of the client\n      * @param depositContract the address of the deposit smart contract\n      * @param to the blockchain address to withdraw and transfer the pokens to\n      * @param inCollateral the amount of pokens withheld by the platform\n      */    \n    function withdrawPPT(bytes32 _blockchainActionId, address pptAddress, bytes32 accountId, address depositContract, address to, uint amount, uint inCollateral) public onlyServer {\n        require(actionStatus[_blockchainActionId] == false);\n        DepositContract o = DepositContract(depositContract);\n        uint pptBalance = SafeMath.safeSub(o.balanceOf(pptAddress), inCollateral);\n        require((pptBalance >= amount) && (o.transfer(pptAddress, to, amount) == true));        \n        actionStatus[_blockchainActionId] = true;\n\n        setBlockchainActionData(_blockchainActionId, \"PPT\", amount, accountId, to);\n        EventWithdrawPPT(_blockchainActionId, accountId, depositContract, to, amount);\n    }\n\n    /** @dev Import all pokens of a particular currency from an ethereum wallet/address \n      * @param _blockchainActionId the blockchain action id\n      * @param accountId the account id of the client\n      * @param from the blockchain address to import pokens from\n      * @param currency the poken currency\n      */\n    function importPokens(bytes32 _blockchainActionId, bytes32 currency, address from, bytes32 accountId) public onlyServer {\n        require(actionStatus[_blockchainActionId] == false);\n        CurrencyToken CT = CurrencyToken(currencies[currency]);\n        //check balance.\n        uint256 balance = CT.balanceOf(from);\n        //balance is more than 0, and balance has been destroyed.\n        require(CT.balanceOf(from) > 0 && CT.destroyTokensFrom(balance, from) == true);\n        \n        actionStatus[_blockchainActionId] = true;\n\n        setBlockchainActionData(_blockchainActionId, currency, balance, accountId, from); \n\n        //emit event: Imported currency to system\n        EventImportPokens(_blockchainActionId, from, accountId, currency, balance);\n    }\n\n    /** @dev Withdraw an amount of pokens to an ethereum wallet/address \n      * @param _blockchainActionId the blockchain action id\n      * @param accountId the account id of the client\n      * @param to the blockchain address to send pokens to\n      * @param amount the amount of pokens to transfer\n      * @param currency the poken currency\n      */\n    function withdrawPoken(bytes32 _blockchainActionId, bytes32 accountId, address to, \n        uint amount, bytes32 currency) \n        public \n        onlyServer \n    {\n        require(actionStatus[_blockchainActionId] == false);\n        require(currencies[currency] != 0x0);\n        CurrencyToken cT = CurrencyToken(currencies[currency]);\n        //credit ledger\n        cT.mintTokens(amount);\n        //credit account\n        cT.transfer(to, amount);\n        \n        actionStatus[_blockchainActionId] = true;\n        \n        setBlockchainActionData(_blockchainActionId, currency, amount, accountId, to);\n        //emit event: Imported currency to system\n        EventWithdrawPokens(_blockchainActionId, accountId, to, amount, currency);\n    }\n\n\n    /** @dev set blockchain action data in struct \n      * @param _blockchainActionId the blockchain action id\n      * @param currency the token currency symbol\n      * @param accountId the clientId\n      * @param to the blockchain address or smart contract address used in the transaction\n      * @param amount the amount of tokens in the transaction\n      */\n    function setBlockchainActionData(bytes32 _blockchainActionId, bytes32 currency, uint amount, bytes32 accountId, address to) \n        private \n    {\n        require(actionStatus[_blockchainActionId] == true);\n        blockchainActionIdData[_blockchainActionId].currency = currency;\n        blockchainActionIdData[_blockchainActionId].amount = amount;\n        blockchainActionIdData[_blockchainActionId].accountId = accountId;\n        blockchainActionIdData[_blockchainActionId].to = to;\n    }\n\n    // CONSTANT METHODS\n\n    /** @dev Get the blockchain invoice Id with a blockchain Action id\n      * @param _blockchainActionId the blockchain action id\n      * @return bytes32 invoiceId\n      */\n    function getBlockInvoiceId(bytes32 _blockchainActionId) public view returns (bytes32) {\n        require(actionIdToInvoiceId[_blockchainActionId] != 0x0);\n        return actionIdToInvoiceId[_blockchainActionId];\n    }\n\n    /** @dev Get the blockchain action Id Data for a blockchain Action id\n      * @param _blockchainActionId the blockchain action id\n      * @return bytes32 currency\n      * @return uint amount\n      * @return bytes32 accountId\n      * @return address to\n      */\n    function getBlockchainActionIdData(bytes32 _blockchainActionId) public view \n    returns (bytes32, uint, bytes32, address) \n    {\n        require(actionStatus[_blockchainActionId] == true);\n\n        return (blockchainActionIdData[_blockchainActionId].currency, \n                blockchainActionIdData[_blockchainActionId].amount,\n                blockchainActionIdData[_blockchainActionId].accountId,\n                blockchainActionIdData[_blockchainActionId].to);\n    }\n\n    /** @dev Get the bool status of a blockchain Action id\n      * @param _blockchainActionId the blockchain action id\n      * @return bool actionStatus\n      */\n    function getActionStatus(bytes32 _blockchainActionId) public view returns (bool) {\n        return actionStatus[_blockchainActionId];\n    }\n\n    /** @dev Gets the address of a currency.\n      * @param currency The currency.\n      * @return address The currency address.\n      */\n    function getCurrency(bytes32 currency) public view returns (address) {\n        return currencies[currency];\n    }\n\n    /** @dev Gets the currency symbol of a currency.\n      * @param currency The currency.\n      * @return bytes32 The currency sybmol, e.g., GBP.\n      */\n    function getCurrencySymbol(address currency) public view returns (bytes32) {\n        return currenciesSymbols[currency];\n    }\n\n    /** @dev Gets the deposit address linked to a given client ID.\n      * @param clientId The client ID.\n      * @return address The deposit address.\n      */\n    function getDepositAddress(bytes32 clientId) public view returns (address) {\n        return depositAddress[clientId];\n    }\n\n    /** @dev Gets the details of an inserted crowdsale record\n      * @param _invoiceId The invoice ID.\n      * @param documentIndex The crowdsale document index.\n      * @return dataHash\n      * @return dataType\n      */\n    function getRecord(bytes32 _invoiceId, uint documentIndex) public view \n    returns(bytes, bytes32) \n    {\n        return (Blocks[_invoiceId].documents[documentIndex].dataHash,\n                Blocks[_invoiceId].documents[documentIndex].dataType\n                );\n    }\n\n    /** @dev Gets the total numnber of document indexes of a crowdsale record\n      * @param _invoiceId The invoice ID.\n      * @return total number of documents per crowdsale Id\n      */\n    function getRecordDocumentIndexes(bytes32 _invoiceId) public view\n    returns(uint)\n    {\n        return Blocks[_invoiceId].documents.length;\n    }\n}",
  "sourcePath": "/Users/najienka/Desktop/populous-smartcontracts/contracts/Populous.sol",
  "schemaVersion": "1.0.0",
  "updatedAt": "2018-04-19T18:34:07.755Z"
}