{
  "contractName": "Populous",
  "abi": [
    {
      "constant": false,
      "inputs": [
        {
          "name": "crowdsaleAddr",
          "type": "address"
        }
      ],
      "name": "fundBeneficiary",
      "outputs": [],
      "payable": false,
      "stateMutability": "nonpayable",
      "type": "function"
    },
    {
      "constant": false,
      "inputs": [
        {
          "name": "_accessManager",
          "type": "address"
        }
      ],
      "name": "updateAccessManager",
      "outputs": [],
      "payable": false,
      "stateMutability": "nonpayable",
      "type": "function"
    },
    {
      "constant": false,
      "inputs": [
        {
          "name": "crowdsaleAddr",
          "type": "address"
        }
      ],
      "name": "fundWinnerGroup",
      "outputs": [],
      "payable": false,
      "stateMutability": "nonpayable",
      "type": "function"
    },
    {
      "constant": false,
      "inputs": [
        {
          "name": "crowdsaleAddr",
          "type": "address"
        },
        {
          "name": "bidderIndex",
          "type": "uint256"
        }
      ],
      "name": "fundWinnerGroupBidder",
      "outputs": [],
      "payable": false,
      "stateMutability": "nonpayable",
      "type": "function"
    },
    {
      "constant": false,
      "inputs": [
        {
          "name": "crowdsaleAddr",
          "type": "address"
        },
        {
          "name": "groupName",
          "type": "string"
        },
        {
          "name": "goal",
          "type": "uint256"
        },
        {
          "name": "bidderId",
          "type": "bytes32"
        },
        {
          "name": "name",
          "type": "string"
        },
        {
          "name": "value",
          "type": "uint256"
        }
      ],
      "name": "initialBid",
      "outputs": [
        {
          "name": "success",
          "type": "bool"
        }
      ],
      "payable": false,
      "stateMutability": "nonpayable",
      "type": "function"
    },
    {
      "constant": false,
      "inputs": [
        {
          "name": "clientId",
          "type": "bytes32"
        },
        {
          "name": "from_currency",
          "type": "bytes32"
        },
        {
          "name": "to_currency",
          "type": "bytes32"
        },
        {
          "name": "from_amount",
          "type": "uint256"
        },
        {
          "name": "to_amount",
          "type": "uint256"
        },
        {
          "name": "fee_amount",
          "type": "uint256"
        },
        {
          "name": "conversion_rate",
          "type": "string"
        }
      ],
      "name": "exchangeCurrency",
      "outputs": [],
      "payable": false,
      "stateMutability": "nonpayable",
      "type": "function"
    },
    {
      "constant": true,
      "inputs": [
        {
          "name": "currency",
          "type": "address"
        }
      ],
      "name": "getCurrencySymbol",
      "outputs": [
        {
          "name": "",
          "type": "bytes32"
        }
      ],
      "payable": false,
      "stateMutability": "view",
      "type": "function"
    },
    {
      "constant": false,
      "inputs": [
        {
          "name": "currency",
          "type": "bytes32"
        },
        {
          "name": "from",
          "type": "bytes32"
        },
        {
          "name": "to",
          "type": "bytes32"
        },
        {
          "name": "amount",
          "type": "uint256"
        }
      ],
      "name": "transfer",
      "outputs": [],
      "payable": false,
      "stateMutability": "nonpayable",
      "type": "function"
    },
    {
      "constant": true,
      "inputs": [],
      "name": "getLedgerSystemAccount",
      "outputs": [
        {
          "name": "",
          "type": "bytes32"
        }
      ],
      "payable": false,
      "stateMutability": "view",
      "type": "function"
    },
    {
      "constant": true,
      "inputs": [
        {
          "name": "currency",
          "type": "bytes32"
        },
        {
          "name": "accountId",
          "type": "bytes32"
        }
      ],
      "name": "getLedgerEntry",
      "outputs": [
        {
          "name": "",
          "type": "uint256"
        }
      ],
      "payable": false,
      "stateMutability": "view",
      "type": "function"
    },
    {
      "constant": false,
      "inputs": [
        {
          "name": "_tokenName",
          "type": "bytes32"
        },
        {
          "name": "_decimalUnits",
          "type": "uint8"
        },
        {
          "name": "_tokenSymbol",
          "type": "bytes32"
        }
      ],
      "name": "createCurrency",
      "outputs": [],
      "payable": false,
      "stateMutability": "nonpayable",
      "type": "function"
    },
    {
      "constant": false,
      "inputs": [
        {
          "name": "crowdsaleAddr",
          "type": "address"
        },
        {
          "name": "groupIndex",
          "type": "uint256"
        },
        {
          "name": "bidderIndex",
          "type": "uint256"
        }
      ],
      "name": "refundLosingGroupBidder",
      "outputs": [],
      "payable": false,
      "stateMutability": "nonpayable",
      "type": "function"
    },
    {
      "constant": false,
      "inputs": [
        {
          "name": "clientExternal",
          "type": "address"
        },
        {
          "name": "clientId",
          "type": "bytes32"
        },
        {
          "name": "currency",
          "type": "bytes32"
        },
        {
          "name": "amount",
          "type": "uint256"
        },
        {
          "name": "fee",
          "type": "uint256"
        }
      ],
      "name": "withdraw",
      "outputs": [],
      "payable": false,
      "stateMutability": "nonpayable",
      "type": "function"
    },
    {
      "constant": false,
      "inputs": [
        {
          "name": "crowdsaleAddr",
          "type": "address"
        },
        {
          "name": "paidAmount",
          "type": "uint256"
        }
      ],
      "name": "invoicePaymentReceived",
      "outputs": [],
      "payable": false,
      "stateMutability": "nonpayable",
      "type": "function"
    },
    {
      "constant": false,
      "inputs": [
        {
          "name": "currency",
          "type": "bytes32"
        },
        {
          "name": "amount",
          "type": "uint256"
        }
      ],
      "name": "mintTokens",
      "outputs": [
        {
          "name": "success",
          "type": "bool"
        }
      ],
      "payable": false,
      "stateMutability": "nonpayable",
      "type": "function"
    },
    {
      "constant": false,
      "inputs": [
        {
          "name": "crowdsaleAddr",
          "type": "address"
        },
        {
          "name": "groupIndex",
          "type": "uint256"
        },
        {
          "name": "bidderId",
          "type": "bytes32"
        },
        {
          "name": "name",
          "type": "string"
        },
        {
          "name": "value",
          "type": "uint256"
        }
      ],
      "name": "bid",
      "outputs": [
        {
          "name": "success",
          "type": "bool"
        }
      ],
      "payable": false,
      "stateMutability": "nonpayable",
      "type": "function"
    },
    {
      "constant": true,
      "inputs": [
        {
          "name": "currency",
          "type": "bytes32"
        }
      ],
      "name": "getCurrency",
      "outputs": [
        {
          "name": "",
          "type": "address"
        }
      ],
      "payable": false,
      "stateMutability": "view",
      "type": "function"
    },
    {
      "constant": false,
      "inputs": [
        {
          "name": "currency",
          "type": "bytes32"
        },
        {
          "name": "amount",
          "type": "uint256"
        }
      ],
      "name": "destroyTokens",
      "outputs": [
        {
          "name": "success",
          "type": "bool"
        }
      ],
      "payable": false,
      "stateMutability": "nonpayable",
      "type": "function"
    },
    {
      "constant": false,
      "inputs": [
        {
          "name": "currency",
          "type": "bytes32"
        },
        {
          "name": "from",
          "type": "address"
        },
        {
          "name": "accountId",
          "type": "bytes32"
        }
      ],
      "name": "importExternalPokens",
      "outputs": [],
      "payable": false,
      "stateMutability": "nonpayable",
      "type": "function"
    },
    {
      "constant": true,
      "inputs": [],
      "name": "AM",
      "outputs": [
        {
          "name": "",
          "type": "address"
        }
      ],
      "payable": false,
      "stateMutability": "view",
      "type": "function"
    },
    {
      "inputs": [
        {
          "name": "_accessManager",
          "type": "address"
        }
      ],
      "payable": false,
      "stateMutability": "nonpayable",
      "type": "constructor"
    },
    {
      "anonymous": false,
      "inputs": [
        {
          "indexed": false,
          "name": "tokenName",
          "type": "bytes32"
        },
        {
          "indexed": false,
          "name": "decimalUnits",
          "type": "uint8"
        },
        {
          "indexed": false,
          "name": "tokenSymbol",
          "type": "bytes32"
        },
        {
          "indexed": false,
          "name": "addr",
          "type": "address"
        }
      ],
      "name": "EventNewCurrency",
      "type": "event"
    },
    {
      "anonymous": false,
      "inputs": [
        {
          "indexed": false,
          "name": "currency",
          "type": "bytes32"
        },
        {
          "indexed": false,
          "name": "amount",
          "type": "uint256"
        }
      ],
      "name": "EventMintTokens",
      "type": "event"
    },
    {
      "anonymous": false,
      "inputs": [
        {
          "indexed": false,
          "name": "currency",
          "type": "bytes32"
        },
        {
          "indexed": false,
          "name": "amount",
          "type": "uint256"
        }
      ],
      "name": "EventDestroyTokens",
      "type": "event"
    },
    {
      "anonymous": false,
      "inputs": [
        {
          "indexed": false,
          "name": "currency",
          "type": "bytes32"
        },
        {
          "indexed": false,
          "name": "fromId",
          "type": "bytes32"
        },
        {
          "indexed": false,
          "name": "toId",
          "type": "bytes32"
        },
        {
          "indexed": false,
          "name": "amount",
          "type": "uint256"
        }
      ],
      "name": "EventInternalTransfer",
      "type": "event"
    },
    {
      "anonymous": false,
      "inputs": [
        {
          "indexed": false,
          "name": "to",
          "type": "address"
        },
        {
          "indexed": false,
          "name": "clientId",
          "type": "bytes32"
        },
        {
          "indexed": false,
          "name": "currency",
          "type": "bytes32"
        },
        {
          "indexed": false,
          "name": "amount",
          "type": "uint256"
        },
        {
          "indexed": false,
          "name": "fee",
          "type": "uint256"
        }
      ],
      "name": "EventWithdrawal",
      "type": "event"
    },
    {
      "anonymous": false,
      "inputs": [
        {
          "indexed": false,
          "name": "from",
          "type": "address"
        },
        {
          "indexed": false,
          "name": "clientId",
          "type": "bytes32"
        },
        {
          "indexed": false,
          "name": "currency",
          "type": "bytes32"
        },
        {
          "indexed": false,
          "name": "amount",
          "type": "uint256"
        }
      ],
      "name": "EventDeposit",
      "type": "event"
    },
    {
      "anonymous": false,
      "inputs": [
        {
          "indexed": false,
          "name": "from",
          "type": "address"
        },
        {
          "indexed": false,
          "name": "clientId",
          "type": "bytes32"
        },
        {
          "indexed": false,
          "name": "currency",
          "type": "bytes32"
        },
        {
          "indexed": false,
          "name": "amount",
          "type": "uint256"
        }
      ],
      "name": "EventImportedPokens",
      "type": "event"
    },
    {
      "anonymous": false,
      "inputs": [
        {
          "indexed": false,
          "name": "crowdsaleAddr",
          "type": "address"
        },
        {
          "indexed": false,
          "name": "borrowerId",
          "type": "bytes32"
        },
        {
          "indexed": false,
          "name": "currency",
          "type": "bytes32"
        },
        {
          "indexed": false,
          "name": "amount",
          "type": "uint256"
        }
      ],
      "name": "EventBeneficiaryFunded",
      "type": "event"
    },
    {
      "anonymous": false,
      "inputs": [
        {
          "indexed": false,
          "name": "crowdsaleAddr",
          "type": "address"
        },
        {
          "indexed": false,
          "name": "groupIndex",
          "type": "uint256"
        },
        {
          "indexed": false,
          "name": "bidderId",
          "type": "bytes32"
        },
        {
          "indexed": false,
          "name": "currency",
          "type": "bytes32"
        },
        {
          "indexed": false,
          "name": "amount",
          "type": "uint256"
        }
      ],
      "name": "EventLosingGroupBidderRefunded",
      "type": "event"
    },
    {
      "anonymous": false,
      "inputs": [
        {
          "indexed": false,
          "name": "crowdsaleAddr",
          "type": "address"
        },
        {
          "indexed": false,
          "name": "currency",
          "type": "bytes32"
        },
        {
          "indexed": false,
          "name": "amount",
          "type": "uint256"
        }
      ],
      "name": "EventPaymentReceived",
      "type": "event"
    },
    {
      "anonymous": false,
      "inputs": [
        {
          "indexed": false,
          "name": "crowdsaleAddr",
          "type": "address"
        },
        {
          "indexed": false,
          "name": "groupIndex",
          "type": "uint256"
        },
        {
          "indexed": false,
          "name": "bidderId",
          "type": "bytes32"
        },
        {
          "indexed": false,
          "name": "currency",
          "type": "bytes32"
        },
        {
          "indexed": false,
          "name": "bidAmount",
          "type": "uint256"
        },
        {
          "indexed": false,
          "name": "benefitsAmount",
          "type": "uint256"
        }
      ],
      "name": "EventWinnerGroupBidderFunded",
      "type": "event"
    },
    {
      "anonymous": false,
      "inputs": [
        {
          "indexed": false,
          "name": "clientId",
          "type": "bytes32"
        },
        {
          "indexed": false,
          "name": "from_currency",
          "type": "bytes32"
        },
        {
          "indexed": false,
          "name": "to_currency",
          "type": "bytes32"
        },
        {
          "indexed": false,
          "name": "amount",
          "type": "uint256"
        },
        {
          "indexed": false,
          "name": "conversion_rate",
          "type": "string"
        },
        {
          "indexed": false,
          "name": "from_amount",
          "type": "uint256"
        },
        {
          "indexed": false,
          "name": "fee_amount",
          "type": "uint256"
        }
      ],
      "name": "EventExchange",
      "type": "event"
    }
  ],
  "bytecode": "0x6060604052341561000f57600080fd5b6040516020806138d08339810160405280805160008054600160a060020a03909216600160a060020a0319909216919091179055505061387c806100546000396000f300606060405236156100f55763ffffffff60e060020a600035041662a4e86381146100fa57806302ab72c41461011b578063110d3adc1461013a5780632a2ef712146101595780632aba53fc1461017b5780632fddc7a91461023b578063554c9b6a146102a75780635e63067f146102d85780636123db81146102f75780637f84ceec1461030a57806382cce80f1461032357806383588aea146103425780638b42912f14610367578063a8860b4014610392578063af8d309e146103b4578063c284a81d146103cd578063d383b80d14610437578063db86e0cb14610469578063dfda2b0114610482578063f7f01b4b146104a7575b600080fd5b341561010557600080fd5b610119600160a060020a03600435166104ba565b005b341561012657600080fd5b610119600160a060020a036004351661073a565b341561014557600080fd5b610119600160a060020a03600435166107ed565b341561016457600080fd5b610119600160a060020a0360043516602435610bf8565b341561018657600080fd5b61022760048035600160a060020a03169060446024803590810190830135806020601f8201819004810201604051908101604052818152929190602084018383808284375094968635966020808201359750919550606081019450604090810135860180830194503592508291601f8301819004810201905190810160405281815292919060208401838380828437509496505093359350610fd792505050565b604051901515815260200160405180910390f35b341561024657600080fd5b6101196004803590602480359160443591606435916084359160a435919060e49060c43590810190830135806020601f8201819004810201604051908101604052818152929190602084018383808284375094965061131495505050505050565b34156102b257600080fd5b6102c6600160a060020a036004351661152e565b60405190815260200160405180910390f35b34156102e357600080fd5b610119600435602435604435606435611549565b341561030257600080fd5b6102c6611663565b341561031557600080fd5b6102c6600435602435611675565b341561032e57600080fd5b61011960043560ff60243516604435611696565b341561034d57600080fd5b610119600160a060020a036004351660243560443561186c565b341561037257600080fd5b610119600160a060020a0360043516602435604435606435608435611bb8565b341561039d57600080fd5b610119600160a060020a0360043516602435611e9d565b34156103bf57600080fd5b6102276004356024356121cc565b34156103d857600080fd5b61022760048035600160a060020a03169060248035916044359160849060643590810190830135806020601f8201819004810201604051908101604052818152929190602084018383808284375094965050933593506122e392505050565b341561044257600080fd5b61044d600435612582565b604051600160a060020a03909116815260200160405180910390f35b341561047457600080fd5b61022760043560243561259d565b341561048d57600080fd5b610119600435600160a060020a03602435166044356126ad565b34156104b257600080fd5b61044d612943565b806000808080600160a060020a038516630cd87cff82604051602001526040518163ffffffff1660e060020a028152600401602060405180830381600087803b151561050557600080fd5b6102c65a03f1151561051657600080fd5b50505060405180511515600114905061052e57600080fd5b84600160a060020a031663f52eb3856000604051604001526040518163ffffffff1660e060020a0281526004016040805180830381600087803b151561057357600080fd5b6102c65a03f1151561058457600080fd5b50505060405180519060200180519195509093505060ff8416156105a757610732565b84600160a060020a0316636fbefedf6000604051602001526040518163ffffffff1660e060020a028152600401602060405180830381600087803b15156105ed57600080fd5b6102c65a03f115156105fe57600080fd5b5050506040518051925050600160a060020a03851663968c42096000604051602001526040518163ffffffff1660e060020a028152600401602060405180830381600087803b151561064f57600080fd5b6102c65a03f1151561066057600080fd5b505050604051805190509050610686816000805160206138318339815191528486612952565b84600160a060020a0316638942e19d6040518163ffffffff1660e060020a028152600401600060405180830381600087803b15156106c357600080fd5b6102c65a03f115156106d457600080fd5b5050507fd7dbae4b95599bb84a231f200f7e659db0829ec0875002a565180e9e9d32c00a86838386604051600160a060020a039094168452602084019290925260408084019190915260608301919091526080909101905180910390a15b505050505050565b60008054600160a060020a03169063fda089589033906040516020015260405160e060020a63ffffffff8416028152600160a060020a039091166004820152602401602060405180830381600087803b151561079557600080fd5b6102c65a03f115156107a657600080fd5b5050506040518051151560011490506107be57600080fd5b6000805473ffffffffffffffffffffffffffffffffffffffff1916600160a060020a0392909216919091179055565b8060008080808080808080808060048c600160a060020a0316634e69d5606000604051602001526040518163ffffffff1660e060020a028152600401602060405180830381600087803b151561084257600080fd5b6102c65a03f1151561085357600080fd5b5050506040518051905060ff16600581111561086b57fe5b600581111561087657fe5b1461088057610be9565b8b600160a060020a0316635cfa4d606000604051602001526040518163ffffffff1660e060020a028152600401602060405180830381600087803b15156108c657600080fd5b6102c65a03f115156108d757600080fd5b50505060405180519b5050600160a060020a038c1663ceb606548c600060405160a0015260405160e060020a63ffffffff8416028152600481019190915260240160a060405180830381600087803b151561093157600080fd5b6102c65a03f1151561094257600080fd5b5050506040518051906020018051906020018051906020018051906020018051929e50909c50909a505050508715156001141561097e57610be9565b8b600160a060020a031663968c42096000604051602001526040518163ffffffff1660e060020a028152600401602060405180830381600087803b15156109c457600080fd5b6102c65a03f115156109d557600080fd5b5050506040518051975050600160a060020a038c166312fa769f6000604051602001526040518163ffffffff1660e060020a028152600401602060405180830381600087803b1515610a2657600080fd5b6102c65a03f11515610a3757600080fd5b5050506040518051965060009550505b89851015610be9578b600160a060020a031663dee50b248c8760006040516080015260405160e060020a63ffffffff851602815260048101929092526024820152604401608060405180830381600087803b1515610aa457600080fd5b6102c65a03f11515610ab557600080fd5b5050506040518051906020018051906020018051906020018051939750909550919350505060018215151415610aea57610bde565b88868402811515610af757fe5b049050610b14876000805160206138318339815191528684612952565b8b600160a060020a03166319a0e16d8c8760405160e060020a63ffffffff851602815260048101929092526024820152604401600060405180830381600087803b1515610b6057600080fd5b6102c65a03f11515610b7157600080fd5b5050507ff88bb82be4a8c818d4a2024bb04d7d9503631b2177d9ef6abec545446528f4a68d8c868a8786604051600160a060020a03909616865260208601949094526040808601939093526060850191909152608084015260a083019190915260c0909101905180910390a15b600190940193610a47565b50505050505050505050505050565b81600080808080808080600489600160a060020a0316634e69d5606000604051602001526040518163ffffffff1660e060020a028152600401602060405180830381600087803b1515610c4a57600080fd5b6102c65a03f11515610c5b57600080fd5b5050506040518051905060ff166005811115610c7357fe5b6005811115610c7e57fe5b14610c8857610fca565b88600160a060020a0316635cfa4d606000604051602001526040518163ffffffff1660e060020a028152600401602060405180830381600087803b1515610cce57600080fd5b6102c65a03f11515610cdf57600080fd5b5050506040518051985050600160a060020a03891663dee50b24898c60006040516080015260405160e060020a63ffffffff851602815260048101929092526024820152604401608060405180830381600087803b1515610d3f57600080fd5b6102c65a03f11515610d5057600080fd5b5050506040518051906020018051906020018051906020018051939a5090985091965050851590508015610d82575060015b15610fca5788600160a060020a031663ceb6065489600060405160a0015260405160e060020a63ffffffff8416028152600481019190915260240160a060405180830381600087803b1515610dd657600080fd5b6102c65a03f11515610de757600080fd5b5050506040518051906020018051906020018051906020018051906020018051509097505050600160a060020a038b16915063968c420990506000604051602001526040518163ffffffff1660e060020a028152600401602060405180830381600087803b1515610e5757600080fd5b6102c65a03f11515610e6857600080fd5b5050506040518051935050600160a060020a0389166312fa769f6000604051602001526040518163ffffffff1660e060020a028152600401602060405180830381600087803b1515610eb957600080fd5b6102c65a03f11515610eca57600080fd5b50505060405180519050915083828702811515610ee357fe5b049050610f00836000805160206138318339815191528984612952565b88600160a060020a03166319a0e16d898c60405160e060020a63ffffffff851602815260048101929092526024820152604401600060405180830381600087803b1515610f4c57600080fd5b6102c65a03f11515610f5d57600080fd5b5050507ff88bb82be4a8c818d4a2024bb04d7d9503631b2177d9ef6abec545446528f4a68b8989868a86604051600160a060020a03909616865260208601949094526040808601939093526060850191909152608084015260a083019190915260c0909101905180910390a15b5050505050505050505050565b6000805481908190819081908190600160a060020a031663fda0895833836040516020015260405160e060020a63ffffffff8416028152600160a060020a039091166004820152602401602060405180830381600087803b151561103a57600080fd5b6102c65a03f1151561104b57600080fd5b50505060405180511515600114905061106357600080fd5b8b9450866001600087600160a060020a031663968c42096000604051602001526040518163ffffffff1660e060020a028152600401602060405180830381600087803b15156110b157600080fd5b6102c65a03f115156110c257600080fd5b5050506040518051825250602080820192909252604090810160009081208d8252909252902054108015906110f657508615155b151561110157600080fd5b84600160a060020a031663b503d8298c8c8c8c8c60006040516080015260405160e060020a63ffffffff881602815260248101859052604481018490526084810182905260a060048201908152908190606481019060a40188818151815260200191508051906020019080838360005b83811015611189578082015183820152602001611171565b50505050905090810190601f1680156111b65780820380516001836020036101000a031916815260200191505b50838103825285818151815260200191508051906020019080838360005b838110156111ec5780820151838201526020016111d4565b50505050905090810190601f1680156112195780820380516001836020036101000a031916815260200191505b50975050505050505050608060405180830381600087803b151561123c57600080fd5b6102c65a03f1151561124d57600080fd5b505050604051805190602001805190602001805190602001805193975091955093509091505060ff84161515611300576112f785600160a060020a031663968c42096000604051602001526040518163ffffffff1660e060020a028152600401602060405180830381600087803b15156112c657600080fd5b6102c65a03f115156112d757600080fd5b505050604051805190508a60008051602061383183398151915286612952565b60019550611305565b600095505b50505050509695505050505050565b60008054600160a060020a03169063fda089589033906040516020015260405160e060020a63ffffffff8416028152600160a060020a039091166004820152602401602060405180830381600087803b151561136f57600080fd5b6102c65a03f1151561138057600080fd5b50505060405180511515600114905061139857600080fd5b600086815260026020526040902054600160a060020a0316158015906113d45750600085815260026020526040902054600160a060020a031615155b80156113fa575060008681526001602090815260408083208a8452909152902054849010155b151561140557600080fd5b61141f868860c060020a67506f70756c6f75730287612952565b6114298685612a4e565b5061143d856114388585612b15565b612b32565b506114588560c060020a67506f70756c6f7573028986612952565b7f5c9e31422e3a50492ab1a4a05219fbd167999c9b0c1f160006fb3abd4ac1c5f88787878785888860405187815260208101879052604081018690526060810185905260a0810183905260c0810182905260e06080820181815290820185818151815260200191508051906020019080838360005b838110156114e55780820151838201526020016114cd565b50505050905090810190601f1680156115125780820380516001836020036101000a031916815260200191505b509850505050505050505060405180910390a150505050505050565b600160a060020a031660009081526003602052604090205490565b60008054600160a060020a03169063fda089589033906040516020015260405160e060020a63ffffffff8416028152600160a060020a039091166004820152602401602060405180830381600087803b15156115a457600080fd5b6102c65a03f115156115b557600080fd5b50505060405180511515600114905080611646575060008054600160a060020a03169063a6d286939033906040516020015260405160e060020a63ffffffff8416028152600160a060020a039091166004820152602401602060405180830381600087803b151561162557600080fd5b6102c65a03f1151561163657600080fd5b5050506040518051151560011490505b151561165157600080fd5b61165d84848484612952565b50505050565b60c060020a67506f70756c6f75730290565b60008281526001602090815260408083208484529091529020545b92915050565b60008054600160a060020a03169063fda089589033906040516020015260405160e060020a63ffffffff8416028152600160a060020a039091166004820152602401602060405180830381600087803b15156116f157600080fd5b6102c65a03f1151561170257600080fd5b50505060405180511515600114905061171a57600080fd5b600081815260026020526040902054600160a060020a03161561173c57600080fd5b600054600160a060020a0316838383611753612c03565b600160a060020a039094168452602084019290925260ff16604080840191909152606083019190915260809091019051809103906000f080151561179657600080fd5b6000828152600260205260409020805473ffffffffffffffffffffffffffffffffffffffff1916600160a060020a0392831617908190551615156117d657fe5b60008181526002602081815260408084208054600160a060020a03908116865260038452828620879055948690529290915290547f49ed04561088f8c4d4b6cf512cfd6e87722fae11971dad08e91c480f46ef0a909286928692869216905193845260ff9092166020840152604080840191909152600160a060020a0390911660608301526080909101905180910390a1505050565b826000808080600285600160a060020a0316634e69d5606000604051602001526040518163ffffffff1660e060020a028152600401602060405180830381600087803b15156118ba57600080fd5b6102c65a03f115156118cb57600080fd5b5050506040518051905060ff1660058111156118e357fe5b60058111156118ee57fe5b146118f857611bae565b8685600160a060020a0316635cfa4d606000604051602001526040518163ffffffff1660e060020a028152600401602060405180830381600087803b151561193f57600080fd5b6102c65a03f1151561195057600080fd5b505050604051805190501480156119c9575084600160a060020a0316630cd87cff6000604051602001526040518163ffffffff1660e060020a028152600401602060405180830381600087803b15156119a857600080fd5b6102c65a03f115156119b957600080fd5b5050506040518051151560011490505b156119d357611bae565b84600160a060020a031663dee50b24888860006040516080015260405160e060020a63ffffffff851602815260048101929092526024820152604401608060405180830381600087803b1515611a2857600080fd5b6102c65a03f11515611a3957600080fd5b505050604051805190602001805190602001805190602001805193975090955091935050821590508015611a6b575060015b15611bae5784600160a060020a031663968c42096000604051602001526040518163ffffffff1660e060020a028152600401602060405180830381600087803b1515611ab657600080fd5b6102c65a03f11515611ac757600080fd5b505050604051805190509050611aed816000805160206138318339815191528686612952565b84600160a060020a03166319a0e16d888860405160e060020a63ffffffff851602815260048101929092526024820152604401600060405180830381600087803b1515611b3957600080fd5b6102c65a03f11515611b4a57600080fd5b5050507f508227ac703f8d9b80797fa399730693ceddc3527e5f74a7a48b1d55cca4883b8888868487604051600160a060020a03909516855260208501939093526040808501929092526060840152608083019190915260a0909101905180910390a15b5050505050505050565b60008054600160a060020a031663fda0895833836040516020015260405160e060020a63ffffffff8416028152600160a060020a039091166004820152602401602060405180830381600087803b1515611c1157600080fd5b6102c65a03f11515611c2257600080fd5b505050604051805115156001149050611c3a57600080fd5b600084815260026020526040902054600160a060020a031615801590611c7a57506000848152600160209081526040808320888452909152902054839010155b1515611c8557600080fd5b6000848152600160209081526040808320888452909152902054611ca99084612bf1565b6000858152600160209081526040808320898452909152902055611ccd8383612bf1565b6000858152600260205260409081902054919250600160a060020a03909116906397304ced9083905160e060020a63ffffffff84160281526004810191909152602401600060405180830381600087803b1515611d2957600080fd5b6102c65a03f11515611d3a57600080fd5b50505060008481526002602052604080822054600160a060020a03169163a9059cbb9189918591516020015260405160e060020a63ffffffff8516028152600160a060020a0390921660048301526024820152604401602060405180830381600087803b1515611da957600080fd5b6102c65a03f11515611dba57600080fd5b505050604051805115156001149050611dd257600080fd5b600084815260016020908152604080832060c060020a67506f70756c6f7573028452909152902054611e049083612b15565b600085815260016020908152604080832060c060020a67506f70756c6f757302845290915290819020919091557fabc368aa64b93903ca1c6ee569519d9da9cc38523b4642507a16c0ca88cade44908790879087908790879051600160a060020a03909516855260208501939093526040808501929092526060840152608083019190915260a0909101905180910390a1505050505050565b600080548190600160a060020a031663fda0895833836040516020015260405160e060020a63ffffffff8416028152600160a060020a039091166004820152602401602060405180830381600087803b1515611ef857600080fd5b6102c65a03f11515611f0957600080fd5b505050604051805115156001149050611f2157600080fd5b839150600382600160a060020a0316634e69d5606000604051602001526040518163ffffffff1660e060020a028152600401602060405180830381600087803b1515611f6c57600080fd5b6102c65a03f11515611f7d57600080fd5b5050506040518051905060ff166005811115611f9557fe5b6005811115611fa057fe5b148061200e575081600160a060020a0316635e054efb6000604051602001526040518163ffffffff1660e060020a028152600401602060405180830381600087803b1515611fed57600080fd5b6102c65a03f11515611ffe57600080fd5b5050506040518051151560011490505b151561201657fe5b8282600160a060020a0316637478901d6000604051602001526040518163ffffffff1660e060020a028152600401602060405180830381600087803b151561205d57600080fd5b6102c65a03f1151561206e57600080fd5b505050604051805190501115151561208557600080fd5b81600160a060020a031663968c42096000604051602001526040518163ffffffff1660e060020a028152600401602060405180830381600087803b15156120cb57600080fd5b6102c65a03f115156120dc57600080fd5b5050506040518051905090506120f28184612b32565b5061211b8160c060020a67506f70756c6f75730260008051602061383183398151915286612952565b81600160a060020a03166385d8ed7d8460405160e060020a63ffffffff84160281526004810191909152602401600060405180830381600087803b151561216157600080fd5b6102c65a03f1151561217257600080fd5b5050507f58ceb9549b0424f0618abff77cfb7b958eccca0d2b63317ff25ac1f209dc6cbe848285604051600160a060020a03909316835260208301919091526040808301919091526060909101905180910390a150505050565b60008054600160a060020a031663fda0895833836040516020015260405160e060020a63ffffffff8416028152600160a060020a039091166004820152602401602060405180830381600087803b151561222557600080fd5b6102c65a03f1151561223657600080fd5b505050604051805115156001149050806122c7575060008054600160a060020a03169063a6d286939033906040516020015260405160e060020a63ffffffff8416028152600160a060020a039091166004820152602401602060405180830381600087803b15156122a657600080fd5b6102c65a03f115156122b757600080fd5b5050506040518051151560011490505b15156122d257600080fd5b6122dc8383612b32565b9392505050565b6000805481908190819081908190600160a060020a031663fda0895833836040516020015260405160e060020a63ffffffff8416028152600160a060020a039091166004820152602401602060405180830381600087803b151561234657600080fd5b6102c65a03f1151561235757600080fd5b50505060405180511515600114905061236f57600080fd5b8a9450866001600087600160a060020a031663968c42096000604051602001526040518163ffffffff1660e060020a028152600401602060405180830381600087803b15156123bd57600080fd5b6102c65a03f115156123ce57600080fd5b5050506040518051825250602080820192909252604090810160009081208d82529092529020541080159061240257508615155b151561240d57600080fd5b84600160a060020a031663f29c2e8b8b8b8b8b60006040516080015260405160e060020a63ffffffff8716028152600481018581526024820185905260648201839052608060448301908152909160840184818151815260200191508051906020019080838360005b8381101561248e578082015183820152602001612476565b50505050905090810190601f1680156124bb5780820380516001836020036101000a031916815260200191505b5095505050505050608060405180830381600087803b15156124dc57600080fd5b6102c65a03f115156124ed57600080fd5b505050604051805190602001805190602001805190602001805193975091955093509091505060ff8416151561256f5761256685600160a060020a031663968c42096000604051602001526040518163ffffffff1660e060020a028152600401602060405180830381600087803b15156112c657600080fd5b60019550612574565b600095505b505050505095945050505050565b600090815260026020526040902054600160a060020a031690565b60008054600160a060020a031663fda0895833836040516020015260405160e060020a63ffffffff8416028152600160a060020a039091166004820152602401602060405180830381600087803b15156125f657600080fd5b6102c65a03f1151561260757600080fd5b50505060405180511515600114905080612698575060008054600160a060020a03169063a6d286939033906040516020015260405160e060020a63ffffffff8416028152600160a060020a039091166004820152602401602060405180830381600087803b151561267757600080fd5b6102c65a03f1151561268857600080fd5b5050506040518051151560011490505b15156126a357600080fd5b6122dc8383612a4e565b600080548190600160a060020a031663fda0895833836040516020015260405160e060020a63ffffffff8416028152600160a060020a039091166004820152602401602060405180830381600087803b151561270857600080fd5b6102c65a03f1151561271957600080fd5b50505060405180511515600114905061273157600080fd5b60008581526002602052604080822054600160a060020a0316935083916370a0823191879190516020015260405160e060020a63ffffffff8416028152600160a060020a039091166004820152602401602060405180830381600087803b151561279a57600080fd5b6102c65a03f115156127ab57600080fd5b505050604051805190509050600082600160a060020a03166370a082318660006040516020015260405160e060020a63ffffffff8416028152600160a060020a039091166004820152602401602060405180830381600087803b151561281057600080fd5b6102c65a03f1151561282157600080fd5b505050604051805190501180156128b2575081600160a060020a0316630156b323828660006040516020015260405160e060020a63ffffffff85160281526004810192909252600160a060020a03166024820152604401602060405180830381600087803b151561289157600080fd5b6102c65a03f115156128a257600080fd5b5050506040518051151560011490505b15156128bd57600080fd5b6128c785826121cc565b506128e28560c060020a67506f70756c6f7573028584612952565b7f7a1a09f5ee849f58f4fbd74e45209654bbb5f6daabd493c38f6c376586adc7b784848784604051600160a060020a039094168452602084019290925260408084019190915260608301919091526080909101905180910390a15050505050565b600054600160a060020a031681565b80151561295e5761165d565b60008481526001602090815260408083208684529091529020548190101561298557600080fd5b60008481526001602090815260408083208684529091529020546129a99082612bf1565b60008581526001602090815260408083208784529091528082209290925583815220546129d69082612b15565b600085815260016020908152604080832086845290915290819020919091557f1b6f5dbe1f187f524cf1ec27da6fb055fca9617e83af0d7038fdeb87c50fa0d390859085908590859051938452602084019290925260408084019190915260608301919091526080909101905180910390a150505050565b600082815260026020526040812054600160a060020a031615612b0d57600083815260016020908152604080832060c060020a67506f70756c6f7573028452909152902054612a9d9083612bf1565b600084815260016020908152604080832060c060020a67506f70756c6f757302845290915290819020919091557f855ddfcb23a7313ebf5b93128f0915bcfa763727e34f612276cf06a7e7bf2b1e90849084905191825260208201526040908101905180910390a1506001611690565b506000611690565b6000828201838110801590612b2a5750828110155b15156122dc57fe5b600082815260026020526040812054600160a060020a031615612b0d57600083815260016020908152604080832060c060020a67506f70756c6f7573028452909152902054612b819083612b15565b600084815260016020908152604080832060c060020a67506f70756c6f757302845290915290819020919091557fb83a9cb495aa43a9871c87805ab90712a5f703de6d66d16b96d7afcc91bb329990849084905191825260208201526040908101905180910390a1506001611690565b600082821115612bfd57fe5b50900390565b604051610c1d80612c14833901905600606060405260008055341561001357600080fd5b604051608080610c1d8339810160405280805191906020018051919060200180519190602001805160068054600160a060020a031916600160a060020a03979097169690961790955550506001919091556002805460ff191660ff909216919091179055600355610b94806100896000396000f300606060405236156100ca5763ffffffff60e060020a6000350416630156b32381146100cf57806302ab72c41461010557806306fdde0314610126578063095ea7b31461014b57806318160ddd1461016d57806323b872dd1461018057806327e235e3146101a8578063313ce567146101c75780635c658165146101f057806367fbd2891461021557806370a082311461022b57806395d89b411461024a57806397304ced1461025d578063a9059cbb14610273578063dd62ed3e14610295578063f7f01b4b146102ba575b600080fd5b34156100da57600080fd5b6100f1600435600160a060020a03602435166102e9565b604051901515815260200160405180910390f35b341561011057600080fd5b610124600160a060020a03600435166103ed565b005b341561013157600080fd5b61013961049e565b60405190815260200160405180910390f35b341561015657600080fd5b6100f1600160a060020a03600435166024356104a4565b341561017857600080fd5b610139610510565b341561018b57600080fd5b6100f1600160a060020a0360043581169060243516604435610516565b34156101b357600080fd5b610139600160a060020a036004351661061c565b34156101d257600080fd5b6101da61062e565b60405160ff909116815260200160405180910390f35b34156101fb57600080fd5b610139600160a060020a0360043581169060243516610637565b341561022057600080fd5b6100f1600435610654565b341561023657600080fd5b610139600160a060020a0360043516610898565b341561025557600080fd5b6101396108b3565b341561026857600080fd5b6101246004356108b9565b341561027e57600080fd5b6100f1600160a060020a0360043516602435610a64565b34156102a057600080fd5b610139600160a060020a0360043581169060243516610af8565b34156102c557600080fd5b6102cd610b23565b604051600160a060020a03909116815260200160405180910390f35b600654600090600160a060020a03166305fd22d033836040516020015260405160e060020a63ffffffff8416028152600160a060020a039091166004820152602401602060405180830381600087803b151561034457600080fd5b6102c65a03f1151561035557600080fd5b50505060405180511515600114905061036d57600080fd5b600160a060020a03821660009081526004602052604090205483901015610396575060006103e7565b600160a060020a0382166000908152600460205260409020546103b99084610b32565b600160a060020a038316600090815260046020526040812091909155546103e09084610b32565b6000555060015b92915050565b600654600160a060020a031663fda089583360006040516020015260405160e060020a63ffffffff8416028152600160a060020a039091166004820152602401602060405180830381600087803b151561044657600080fd5b6102c65a03f1151561045757600080fd5b50505060405180511515600114905061046f57600080fd5b6006805473ffffffffffffffffffffffffffffffffffffffff1916600160a060020a0392909216919091179055565b60015481565b600160a060020a03338116600081815260056020908152604080832094871680845294909152808220859055909291907f8c5be1e5ebec7d5bd14f71427d1e84f3dd0314c0f7b2291e5b200ac8c7c3b9259085905190815260200160405180910390a350600192915050565b60005481565b600160a060020a03808416600081815260056020908152604080832033909516835293815283822054928252600490529182205483901080159061055a5750828110155b151561056557600080fd5b600160a060020a03808516600090815260046020526040808220805487019055918716815220805484900390556000198110156105ca57600160a060020a03808616600090815260056020908152604080832033909416835292905220805484900390555b83600160a060020a031685600160a060020a03167fddf252ad1be2c89b69c2b068fc378daa952ba7f163c4a11628f55a4df523b3ef8560405190815260200160405180910390a3506001949350505050565b60046020526000908152604090205481565b60025460ff1681565b600560209081526000928352604080842090915290825290205481565b600654600090600160a060020a03166305fd22d033836040516020015260405160e060020a63ffffffff8416028152600160a060020a039091166004820152602401602060405180830381600087803b15156106af57600080fd5b6102c65a03f115156106c057600080fd5b5050506040518051151560011490506106d857600080fd5b6006548290600490600090600160a060020a03166394a3760f82604051602001526040518163ffffffff1660e060020a028152600401602060405180830381600087803b151561072757600080fd5b6102c65a03f1151561073857600080fd5b5050506040518051600160a060020a0316825250602081019190915260400160002054101561076957506000610893565b6006546107f490600490600090600160a060020a03166394a3760f82604051602001526040518163ffffffff1660e060020a028152600401602060405180830381600087803b15156107ba57600080fd5b6102c65a03f115156107cb57600080fd5b5050506040518051600160a060020a031682525060208101919091526040016000205483610b32565b600654600490600090600160a060020a03166394a3760f82604051602001526040518163ffffffff1660e060020a028152600401602060405180830381600087803b151561084157600080fd5b6102c65a03f1151561085257600080fd5b50505060405180519050600160a060020a0316600160a060020a031681526020019081526020016000208190555061088c60005483610b32565b6000555060015b919050565b600160a060020a031660009081526004602052604090205490565b60035481565b600654600160a060020a03166305fd22d03360006040516020015260405160e060020a63ffffffff8416028152600160a060020a039091166004820152602401602060405180830381600087803b151561091257600080fd5b6102c65a03f1151561092357600080fd5b50505060405180511515600114905061093b57600080fd5b6006546109c690600490600090600160a060020a03166394a3760f82604051602001526040518163ffffffff1660e060020a028152600401602060405180830381600087803b151561098c57600080fd5b6102c65a03f1151561099d57600080fd5b5050506040518051600160a060020a031682525060208101919091526040016000205482610b44565b600654600490600090600160a060020a03166394a3760f82604051602001526040518163ffffffff1660e060020a028152600401602060405180830381600087803b1515610a1357600080fd5b6102c65a03f11515610a2457600080fd5b50505060405180519050600160a060020a0316600160a060020a0316815260200190815260200160002081905550610a5e60005482610b44565b60005550565b600160a060020a03331660009081526004602052604081205482901015610a8a57600080fd5b600160a060020a033381166000818152600460205260408082208054879003905592861680825290839020805486019055917fddf252ad1be2c89b69c2b068fc378daa952ba7f163c4a11628f55a4df523b3ef9085905190815260200160405180910390a350600192915050565b600160a060020a03918216600090815260056020908152604080832093909416825291909152205490565b600654600160a060020a031681565b600082821115610b3e57fe5b50900390565b6000828201838110801590610b595750828110155b1515610b6157fe5b93925050505600a165627a7a72305820cdd4c43157ba2984de9393f71be2e265a76c18ad808ac00eaac281ae46ef065d002943726f776473616c650000000000000000000000000000000000000000000000a165627a7a72305820349614f8ea68c0a4ab8f476605b1a9a5f71e096999873a92e603bf4ebb30b3d10029",
  "source": "/**\nThis is the core module of the system. Currently it holds the code of\nthe Bank and crowdsale modules to avoid external calls and higher gas costs.\nIt might be a good idea in the future to split the code, separate Bank\nand crowdsale modules into external files and have the core interact with them\nwith addresses and interfaces. \n*/\npragma solidity ^0.4.17;\n\nimport \"./CurrencyToken.sol\";\nimport \"./iCrowdsale.sol\";\nimport \"./iCrowdsaleManager.sol\";\nimport \"./iDepositContractsManager.sol\";\n\n\n/// @title Populous contract\ncontract Populous is withAccessManager {\n\n    // EVENTS\n\n    // Bank events\n    event EventNewCurrency(bytes32 tokenName, uint8 decimalUnits, bytes32 tokenSymbol, address addr);\n    event EventMintTokens(bytes32 currency, uint amount);\n    event EventDestroyTokens(bytes32 currency, uint amount);\n    event EventInternalTransfer(bytes32 currency, bytes32 fromId, bytes32 toId, uint amount);\n    event EventWithdrawal(address to, bytes32 clientId, bytes32 currency, uint amount, uint fee);\n    event EventDeposit(address from, bytes32 clientId, bytes32 currency, uint amount);\n    event EventImportedPokens(address from, bytes32 clientId, bytes32 currency, uint amount);\n\n    // crowdsale events\n    //event EventNewCrowdsale(address crowdsale, bytes32 _currencySymbol, bytes32 _borrowerId, bytes32 _invoiceId, string _invoiceNumber, uint _invoiceAmount, uint _fundingGoal, uint deadline);\n    event EventBeneficiaryFunded(address crowdsaleAddr, bytes32 borrowerId, bytes32 currency, uint amount);\n    event EventLosingGroupBidderRefunded(address crowdsaleAddr, uint groupIndex, bytes32 bidderId, bytes32 currency, uint amount);\n    event EventPaymentReceived(address crowdsaleAddr, bytes32 currency, uint amount);\n    event EventWinnerGroupBidderFunded(address crowdsaleAddr, uint groupIndex, bytes32 bidderId, bytes32 currency, uint bidAmount, uint benefitsAmount);\n\n    event EventExchange(bytes32 clientId, bytes32 from_currency, bytes32 to_currency, uint amount, string conversion_rate, uint from_amount, uint fee_amount);\n\n\n    // FIELDS\n\n    // Constant fields\n\n    bytes32 constant LEDGER_SYSTEM_ACCOUNT = \"Populous\";\n    bytes32 constant CROWDSALE_ACCOUNT = \"Crowdsale\";\n\n    // This has to be the same one as in Crowdsale\n    enum States { Pending, Open, Closed, WaitingForInvoicePayment, PaymentReceived, Completed }\n\n    // The 'ledger' will hold records of the amount of tokens\n    // an account holds and what currency it is.\n    // This amount will be retrieved using the currency symbol and \n    // account ID as keys.\n    // currencySymbol => (accountId => amount)\n    mapping(bytes32 => mapping(bytes32 => uint)) ledger;\n\n    mapping(bytes32 => address) currencies;\n    mapping(address => bytes32) currenciesSymbols;\n\n\n    // NON-CONSTANT METHODS\n\n    // Constructor method called when contract instance is \n    // deployed with 'withAccessManager' modifier.\n    function Populous(address _accessManager) public withAccessManager(_accessManager) { }\n    /**\n    BANK MODULE\n    */\n\n    // NON-CONSTANT METHODS\n\n    \n    /** @dev Creates a new token/currency.\n      * @param _tokenName  The name of the currency.\n      * @param _decimalUnits The number of decimals the currency has.\n      * @param _tokenSymbol The cyrrency symbol, e.g., GBP\n      */\n    function createCurrency(bytes32 _tokenName, uint8 _decimalUnits, bytes32 _tokenSymbol)\n        public\n        onlyServer\n    {\n        // Check if currency already exists\n        require(currencies[_tokenSymbol] == 0x0);\n\n        currencies[_tokenSymbol] = new CurrencyToken(address(AM), _tokenName, _decimalUnits, _tokenSymbol);\n        \n        assert(currencies[_tokenSymbol] != 0x0);\n\n        currenciesSymbols[currencies[_tokenSymbol]] = _tokenSymbol;\n\n        EventNewCurrency(_tokenName, _decimalUnits, _tokenSymbol, currencies[_tokenSymbol]);\n    }\n\n    /** @dev Allows a token owner to withdraw from their wallet to another address\n      * @param clientExternal The address to transfer withdrawn amount to.\n      * @param clientId The client ID.\n      * @param currency The cyrrency symbol, e.g., GBP\n      * @param amount The amount.\n      * @param fee The fee to charge the client.\n      */\n    function withdraw(address clientExternal, bytes32 clientId, bytes32 currency, uint amount, uint fee) public onlyServer {\n    require(currencies[currency] != 0x0 && ledger[currency][clientId] >= amount);\n\n        ledger[currency][clientId] = SafeMath.safeSub(ledger[currency][clientId], amount);\n        \n        uint mintAmount  = SafeMath.safeSub(amount, fee);\n\n        CurrencyToken(currencies[currency]).mintTokens(mintAmount);\n        require(CurrencyToken(currencies[currency]).transfer(clientExternal, mintAmount) == true);\n\n        //deposit fee to Ledger account.\n        ledger[currency][LEDGER_SYSTEM_ACCOUNT] = SafeMath.safeAdd(ledger[currency][LEDGER_SYSTEM_ACCOUNT], fee);\n\n        EventWithdrawal(clientExternal, clientId, currency, amount, fee);\n    }\n    \n    /** @dev Mints/Generates a specified amount of tokens \n      * @dev The method calls '_mintTokens' and \n      * @dev uses a modifier from withAccessManager contract to only permit populous to use it.\n      * @param amount The amount of tokens to create.\n      * @param currency The related currency to mint.\n      */\n    function mintTokens(bytes32 currency, uint amount)\n        public\n        onlyServerOrOnlyDCM\n        returns (bool success)\n    {\n        return _mintTokens(currency, amount);\n    }\n\n    /** @dev Mints/Generates a specified amount of tokens \n      * @dev The method is called by 'mintTokens'.\n      * @dev The method uses SafeMath to carry out safe additions.\n      * @param amount The amount of tokens to create.\n      * @param currency The related currency to mint.\n      */\n    function _mintTokens(bytes32 currency, uint amount)\n        private returns (bool success)\n    {\n        if (currencies[currency] != 0x0) {\n            ledger[currency][LEDGER_SYSTEM_ACCOUNT] = SafeMath.safeAdd(ledger[currency][LEDGER_SYSTEM_ACCOUNT], amount);\n            EventMintTokens(currency, amount);\n            return true;\n        } else {\n            return false;\n        }\n    }\n\n    /** @dev Destroys a specified amount of tokens \n      * @dev The method uses a modifier from withAccessManager contract to only permit token guardian to use it.\n      * @param amount The amount of tokens to create.\n      * @param currency The related currency to mint.\n      */\n    function destroyTokens(bytes32 currency, uint amount)\n        public onlyServerOrOnlyDCM returns (bool success)\n    {\n        return _destroyTokens(currency, amount);\n    }\n    \n    /** @dev Destroys a specified amount of tokens \n      * @dev The method uses a modifier from withAccessManager contract to only permit token guardian to use it.\n      * @dev The method uses SafeMath to carry out safe token deductions/subtraction.\n      * @param amount The amount of tokens to create.\n      * @param currency The related currency to mint.\n      */\n    function _destroyTokens(bytes32 currency, uint amount)\n        private returns (bool success)\n    {\n        if (currencies[currency] != 0x0) {\n            ledger[currency][LEDGER_SYSTEM_ACCOUNT] = SafeMath.safeSub(ledger[currency][LEDGER_SYSTEM_ACCOUNT], amount);\n            EventDestroyTokens(currency, amount);\n            return true;\n        } else {\n            return false;\n        }\n    }    \n\n    // Calls the _transfer method to make a transfer on the internal ledger.\n    function transfer(bytes32 currency, bytes32 from, bytes32 to, uint amount) public onlyServerOrOnlyDCM {\n        _transfer(currency, from, to, amount);\n    }\n\n    /** @dev Transfers an amount of a specific currency from 'from' to 'to' on the ledger.\n      * @param currency The currency for the transaction.\n      * @param from The client to debit.\n      * @param to The client to credit\n      * @param amount The amount to transfer.\n      */\n    function _transfer(bytes32 currency, bytes32 from, bytes32 to, uint amount) private {\n        if (amount == 0) {return;}\n        require(ledger[currency][from] >= amount);\n    \n        ledger[currency][from] = SafeMath.safeSub(ledger[currency][from], amount);\n        ledger[currency][to] = SafeMath.safeAdd(ledger[currency][to], amount);\n\n        EventInternalTransfer(currency, from, to, amount);\n    }\n\n    \n    function importExternalPokens(bytes32 currency, address from, bytes32 accountId) public onlyServer {\n        CurrencyToken CT = CurrencyToken(currencies[currency]);\n        \n        //check balance.\n        uint256 balance = CT.balanceOf(from);\n        //balance is more than 0, and balance has been destroyed.\n        require(CT.balanceOf(from) > 0 && CT.destroyTokensFrom(balance, from) == true);\n        //credit ledger\n        mintTokens(currency, balance);\n        //credit account\n        _transfer(currency, LEDGER_SYSTEM_ACCOUNT, accountId, balance);\n        //emit event: Imported currency to system\n       EventImportedPokens(from, accountId,currency,balance);\n    }\n\n    // NON-CONSTANT METHODS\n\n    /** @dev Gets a ledger entry.\n      * @param currency The currency for the transaction.\n      * @param accountId The entry id.\n      * @return uint The currency amount linked to the ledger entry\n      */\n    function getLedgerEntry(bytes32 currency, bytes32 accountId) public view returns (uint) {\n        return ledger[currency][accountId];\n    }\n\n    /** @dev Gets the address of a currency.\n      * @param currency The currency.\n      * @return address The currency address.\n      */\n    function getCurrency(bytes32 currency) public view returns (address) {\n        return currencies[currency];\n    }\n\n    /** @dev Gets the currency symbol of a currency.\n      * @param currency The currency.\n      * @return bytes32 The currency sybmol, e.g., GBP.\n      */\n    function getCurrencySymbol(address currency) public view returns (bytes32) {\n        return currenciesSymbols[currency];\n    }\n\n    //get the getLedgerSystemAccount\n    function getLedgerSystemAccount() public view returns(bytes32) {\n        return LEDGER_SYSTEM_ACCOUNT;\n    }\n\n    /**\n    END OF BANK MODULE\n    */\n\n    /**\n    crowdsale MODULE\n    */\n\n    // NON-CONSTANT METHODS\n\n    /** @dev Allows a bidder to place a bid in an invoice crowdsale.\n      * @param groupIndex The index/location of a group in a set of groups.\n      * @param bidderId The bidder id/location in a set of bidders.\n      * @param name The bidder name.\n      * @param value The bid value.\n      * @param crowdsaleAddr The address of the crowdsale contract.\n      * @return success A boolean value indicating whether a bid has been successful.\n      */\n    function bid(address crowdsaleAddr, uint groupIndex, bytes32 bidderId, string name, uint value)\n        public onlyServer returns (bool success)\n    {\n        iCrowdsale CS = iCrowdsale(crowdsaleAddr);\n        require(ledger[CS.currencySymbol()][bidderId] >= value && value != 0);//checking bidder poken balance\n\n        uint8 err;\n        uint finalValue;\n        uint groupGoal;\n        bool goalReached;\n        (err, finalValue, groupGoal, goalReached) = CS.bid(groupIndex, bidderId, name, value);\n\n        if (err == 0) {\n            _transfer(CS.currencySymbol(), bidderId, CROWDSALE_ACCOUNT, finalValue);\n            return true;\n        } else {\n            return false;\n        }\n    }\n\n    /** @dev Allows a first time bidder to create a new group if they do not belong to a group\n      * @dev and place an intial bid.\n      * @dev This function creates a group and calls the bid() function.\n      * @param groupName The name of the new investor group to be created.\n      * @param goal The group funding goal.\n      * @param bidderId The bidder id/location in a set of bidders.\n      * @param name The bidder name.\n      * @param value The bid value.\n      * @param crowdsaleAddr The address of the crowdsale contract.\n      * @return err 0 or 1 implying absence or presence of error.\n      * @return finalValue All bidder's bids value.\n      * @return groupGoal An unsigned integer representing the group's goal.\n      * @return goalReached A boolean value indicating whether the group goal has reached or not.\n      */\n    function initialBid(address crowdsaleAddr, string groupName, uint goal, bytes32 bidderId, string name, uint value)\n        public onlyServer returns (bool success)\n    {\n        iCrowdsale CS = iCrowdsale(crowdsaleAddr);\n        require(ledger[CS.currencySymbol()][bidderId] >= value && value != 0);//checking bidder poken balance\n\n        uint8 err;\n        uint finalValue;\n        uint groupGoal;\n        bool goalReached;\n        (err, finalValue, groupGoal, goalReached) = CS.initialBid(groupName, goal, bidderId, name, value);\n\n        if (err == 0) {\n            _transfer(CS.currencySymbol(), bidderId, CROWDSALE_ACCOUNT, finalValue);\n            return true;\n        } else {\n            return false;\n        }\n    }\n    /** @dev Funds an invoice crowdsale address with tokens\n      * @param crowdsaleAddr The invoice crowdsale address to fund\n      */\n    function fundBeneficiary(address crowdsaleAddr) public {\n        iCrowdsale CS = iCrowdsale(crowdsaleAddr);\n        require(CS.getHasWinnerGroup() == true);// bug fix - there has to be winner group set before beneficiary is funded\n\n        uint8 err;\n        uint amount;\n        (err, amount) = CS.getAmountForBeneficiary();\n        if (err != 0) { return; }\n\n        bytes32 borrowerId = CS.borrowerId();\n        bytes32 currency = CS.currencySymbol();\n        _transfer(currency, CROWDSALE_ACCOUNT, borrowerId, amount);\n\n        CS.setSentToBeneficiary();\n        EventBeneficiaryFunded(crowdsaleAddr, borrowerId, currency, amount);\n    }\n\n    /** @dev Transfers refund to loosing groups after crowdsale has closed.\n      * @dev This function has to be split, because it might exceed the gas limit, if the groups and bidders are too many.\n      * @param crowdsaleAddr The invoice crowdsale address.\n      */\n/*     function refundLosingGroups(address crowdsaleAddr) public {\n        iCrowdsale CS = iCrowdsale(crowdsaleAddr);\n\n        if (States(CS.getStatus()) != States.Closed) { return; }\n\n        bytes32 currency = CS.currencySymbol();\n        uint groupsCount = CS.getGroupsCount();\n        uint winnerGroupIndex = CS.winnerGroupIndex();\n\n        // Loop all bidding groups\n        for (uint groupIndex = 0; groupIndex < groupsCount; groupIndex++) {\n            uint biddersCount;\n            bool hasReceivedTokensBack;\n            ( , , biddersCount, , hasReceivedTokensBack) = CS.getGroup(groupIndex);\n\n            // Check if group is not winner group and has not already been refunded\n            if (groupIndex != winnerGroupIndex && hasReceivedTokensBack == false) {\n                // Loop all bidders\n                for (uint bidderIndex = 0; bidderIndex < biddersCount; bidderIndex++) {\n                    bytes32 bidderId;\n                    uint bidAmount;\n                    bool bidderHasReceivedTokensBack;\n                    (bidderId, , bidAmount, bidderHasReceivedTokensBack) = CS.getGroupBidder(groupIndex, bidderIndex);\n\n                    // Check if bidder has already been refunded\n                    if (bidderHasReceivedTokensBack == false) {\n                        // Refund bidder\n                        _transfer(currency, CROWDSALE_ACCOUNT, bidderId, bidAmount);\n                        \n                        // Save bidder refund in Crowdsale contract\n                        CS.setBidderHasReceivedTokensBack(groupIndex, bidderIndex);\n\n                        EventLosingGroupBidderRefunded(crowdsaleAddr, groupIndex, bidderId, currency, bidAmount);\n                    }\n                }\n            }\n        }\n    } */\n\n    /** @dev Transfers refund to a bidder after crowdsale has closed.\n      * @param crowdsaleAddr The invoice crowdsale address.\n      * @param groupIndex Group id used to find group among collection of groups.\n      * @param bidderIndex Bidder id used to find bidder among collection of bidders in a group.\n      */\n    function refundLosingGroupBidder(address crowdsaleAddr, uint groupIndex, uint bidderIndex) public {\n        iCrowdsale CS = iCrowdsale(crowdsaleAddr);\n\n        if (States(CS.getStatus()) != States.Closed) { return; }\n\n        if (CS.winnerGroupIndex() == groupIndex && CS.getHasWinnerGroup() == true) {return;} //bug fix - check hasWinnerGroup is set in crowdsale\n\n        bytes32 bidderId;\n        uint bidAmount;\n        bool bidderHasReceivedTokensBack;\n        (bidderId, , bidAmount, bidderHasReceivedTokensBack) = CS.getGroupBidder(groupIndex, bidderIndex);\n\n        if (bidderHasReceivedTokensBack == false && bidderId.length != 0) {\n            bytes32 currency = CS.currencySymbol();\n            _transfer(currency, CROWDSALE_ACCOUNT, bidderId, bidAmount);\n            \n            // Save bidder refund in Crowdsale contract\n            CS.setBidderHasReceivedTokensBack(groupIndex, bidderIndex);\n\n            EventLosingGroupBidderRefunded(crowdsaleAddr, groupIndex, bidderId, currency, bidAmount);\n        }\n    }\n\n    /** @dev Transfers payment to invoice crowdsale contract waiting for payment.\n      * @param crowdsaleAddr The invoice crowdsale address.\n      * @param paidAmount The amount to be paid.\n      */\n    function invoicePaymentReceived(address crowdsaleAddr, uint paidAmount) public onlyServer {\n        iCrowdsale CS = iCrowdsale(crowdsaleAddr);\n\n        //if (States(CS.getStatus()) != States.WaitingForInvoicePayment || CS.sentToWinnerGroup() == true) { return; }   \n\n        assert(States(CS.getStatus()) == States.WaitingForInvoicePayment || CS.sentToWinnerGroup() == true);   \n\n        require(CS.invoiceAmount() <= paidAmount);\n\n        bytes32 currency = CS.currencySymbol();\n        _mintTokens(currency, paidAmount);\n        _transfer(currency, LEDGER_SYSTEM_ACCOUNT, CROWDSALE_ACCOUNT, paidAmount);\n        CS.setPaidAmount(paidAmount);\n        \n        EventPaymentReceived(crowdsaleAddr, currency, paidAmount);\n    }\n    \n    /** @dev Transfers funds/payment to bidders in winner group based on contributions/total bid.\n      * @param crowdsaleAddr The invoice crowdsale address.\n      */\n    function fundWinnerGroup(address crowdsaleAddr) public {\n        iCrowdsale CS = iCrowdsale(crowdsaleAddr);\n\n        if (States(CS.getStatus()) != States.PaymentReceived) { return; }\n\n        uint winnerGroupIndex = CS.winnerGroupIndex();\n        uint biddersCount;\n        uint amountRaised;\n        bool hasReceivedTokensBack;\n\n        (, , biddersCount, amountRaised, hasReceivedTokensBack) = CS.getGroup(winnerGroupIndex);\n\n        if (hasReceivedTokensBack == true) { return; }\n\n        bytes32 currency = CS.currencySymbol();\n        uint paidAmount = CS.paidAmount();\n\n        for (uint bidderIndex = 0; bidderIndex < biddersCount; bidderIndex++) {\n            bytes32 bidderId;\n            uint bidAmount;\n            bool bidderHasReceivedTokensBack;\n            (bidderId, , bidAmount, bidderHasReceivedTokensBack) = CS.getGroupBidder(winnerGroupIndex, bidderIndex);\n\n            // Check if bidder has already been funded\n            if (bidderHasReceivedTokensBack == true) { continue; }\n\n            // Fund winning bidder based on his contribution\n            uint benefitsAmount = bidAmount * paidAmount / amountRaised;\n\n            _transfer(currency, CROWDSALE_ACCOUNT, bidderId, benefitsAmount);\n            \n            // Save bidder refund in Crowdsale contract\n            CS.setBidderHasReceivedTokensBack(winnerGroupIndex, bidderIndex);\n\n            EventWinnerGroupBidderFunded(crowdsaleAddr, winnerGroupIndex, bidderId, currency, bidAmount, benefitsAmount);\n        }\n    }\n\n    /** @dev Transfers funds/payment to a bidder in winner group.\n      * @param crowdsaleAddr The invoice crowdsale address.\n      * @param bidderIndex The ID used to find the bidder among collection of bidders in the winner group  with winnerGroupIndex.\n      */\n    function fundWinnerGroupBidder(address crowdsaleAddr, uint bidderIndex) public {\n        iCrowdsale CS = iCrowdsale(crowdsaleAddr);\n\n        if (States(CS.getStatus()) != States.PaymentReceived) { return; }\n\n        uint winnerGroupIndex = CS.winnerGroupIndex();\n        \n        bytes32 bidderId;\n        uint bidAmount;\n        bool bidderHasReceivedTokensBack;\n        (bidderId, , bidAmount, bidderHasReceivedTokensBack) = CS.getGroupBidder(winnerGroupIndex, bidderIndex);\n\n        if (bidderHasReceivedTokensBack == false && bidderId.length != 0) {\n            uint amountRaised;\n            (, , , amountRaised, ) = CS.getGroup(winnerGroupIndex);\n\n            bytes32 currency = CS.currencySymbol();\n            uint paidAmount = CS.paidAmount();\n            // Fund winning bidder based on his contribution\n            uint benefitsAmount = bidAmount * paidAmount / amountRaised;\n\n            _transfer(currency, CROWDSALE_ACCOUNT, bidderId, benefitsAmount);\n            \n            // Save bidder refund in Crowdsale contract\n            CS.setBidderHasReceivedTokensBack(winnerGroupIndex, bidderIndex);\n\n            EventWinnerGroupBidderFunded(crowdsaleAddr, winnerGroupIndex, bidderId, currency, bidAmount, benefitsAmount);\n        }\n    }    \n\n    /**\n    END OF CROWDSALE MODULE\n    */\n    /**\n    EXCHANGE MODULE \n     */\n     //Note: on the server, fee would have to be deducted from the to_amount. \n    //function exchangeCurrency(bytes32 clientId, bytes32 from_currency, bytes32 to_currency, uint from_amount, uint to_amount, uint256 fee_amount, bytes32 conversion_rate)\n    function exchangeCurrency(bytes32 clientId, bytes32 from_currency, bytes32 to_currency, uint from_amount, uint to_amount, uint256 fee_amount, string conversion_rate)\n        public\n        onlyServer\n    {\n        //client must own amount to exchange and currency held must already exist\n        require(currencies[from_currency] != 0x0 && currencies[to_currency] != 0x0 && ledger[from_currency][clientId] >= from_amount);\n\n        //transfer pokens to platform account from client, this will deduct from client balance\n        _transfer(from_currency, clientId, LEDGER_SYSTEM_ACCOUNT, from_amount);\n        //destroy transfered tokens\n        _destroyTokens(from_currency, from_amount);\n        \n        //mint receive amount of to_currency and transfer amount (fees has been deducted from the server.)\n        _mintTokens(to_currency, SafeMath.safeAdd(to_amount, fee_amount));\n        \n        //transfer minted amount\n        _transfer(to_currency, LEDGER_SYSTEM_ACCOUNT, clientId, to_amount);\n        \n        //emit exchange event\n        EventExchange(clientId, from_currency, to_currency, from_amount, conversion_rate, to_amount, fee_amount);\n    }\n}",
  "sourcePath": "/Users/najienka/Desktop/populous-smartcontracts/contracts/Populous.sol",
  "schemaVersion": "1.0.0",
  "updatedAt": "2018-02-02T08:05:34.169Z"
}