{
  "contractName": "Populous",
  "abi": [
    {
      "constant": false,
      "inputs": [
        {
          "name": "_accessManager",
          "type": "address"
        }
      ],
      "name": "updateAccessManager",
      "outputs": [],
      "payable": false,
      "stateMutability": "nonpayable",
      "type": "function"
    },
    {
      "constant": false,
      "inputs": [
        {
          "name": "_dataManager",
          "type": "address"
        },
        {
          "name": "_blockchainActionId",
          "type": "bytes32"
        },
        {
          "name": "_tokenName",
          "type": "bytes32"
        },
        {
          "name": "_decimalUnits",
          "type": "uint8"
        },
        {
          "name": "_tokenSymbol",
          "type": "bytes32"
        }
      ],
      "name": "createCurrency",
      "outputs": [],
      "payable": false,
      "stateMutability": "nonpayable",
      "type": "function"
    },
    {
      "constant": false,
      "inputs": [
        {
          "name": "_dataManager",
          "type": "address"
        },
        {
          "name": "_blockchainActionId",
          "type": "bytes32"
        },
        {
          "name": "pptAddress",
          "type": "address"
        },
        {
          "name": "accountId",
          "type": "bytes32"
        },
        {
          "name": "to",
          "type": "address"
        },
        {
          "name": "amount",
          "type": "uint256"
        },
        {
          "name": "inCollateral",
          "type": "uint256"
        },
        {
          "name": "pptFee",
          "type": "uint256"
        },
        {
          "name": "adminExternalWallet",
          "type": "address"
        }
      ],
      "name": "withdrawERC20",
      "outputs": [],
      "payable": false,
      "stateMutability": "nonpayable",
      "type": "function"
    },
    {
      "constant": false,
      "inputs": [
        {
          "name": "_dataManager",
          "type": "address"
        },
        {
          "name": "_blockchainActionId",
          "type": "bytes32"
        },
        {
          "name": "_currencyAddress",
          "type": "address"
        },
        {
          "name": "_tokenSymbol",
          "type": "bytes32"
        }
      ],
      "name": "upgradeCurrency",
      "outputs": [],
      "payable": false,
      "stateMutability": "nonpayable",
      "type": "function"
    },
    {
      "constant": false,
      "inputs": [
        {
          "name": "_dataManager",
          "type": "address"
        },
        {
          "name": "_blockchainActionId",
          "type": "bytes32"
        },
        {
          "name": "currency",
          "type": "bytes32"
        },
        {
          "name": "amount",
          "type": "uint256"
        },
        {
          "name": "from",
          "type": "address"
        },
        {
          "name": "to",
          "type": "address"
        },
        {
          "name": "accountId",
          "type": "bytes32"
        },
        {
          "name": "inCollateral",
          "type": "uint256"
        },
        {
          "name": "pptAddress",
          "type": "address"
        },
        {
          "name": "pptFee",
          "type": "uint256"
        },
        {
          "name": "adminExternalWallet",
          "type": "address"
        },
        {
          "name": "toBank",
          "type": "bool"
        }
      ],
      "name": "withdrawPoken",
      "outputs": [],
      "payable": false,
      "stateMutability": "nonpayable",
      "type": "function"
    },
    {
      "constant": false,
      "inputs": [
        {
          "name": "_dataManager",
          "type": "address"
        },
        {
          "name": "_blockchainActionId",
          "type": "bytes32"
        },
        {
          "name": "clientId",
          "type": "bytes32"
        }
      ],
      "name": "createAddress",
      "outputs": [],
      "payable": false,
      "stateMutability": "nonpayable",
      "type": "function"
    },
    {
      "constant": false,
      "inputs": [
        {
          "name": "_dataManager",
          "type": "address"
        },
        {
          "name": "_blockchainActionId",
          "type": "bytes32"
        },
        {
          "name": "_providerUserId",
          "type": "bytes32"
        },
        {
          "name": "_invoiceCountryCode",
          "type": "bytes2"
        },
        {
          "name": "_invoiceCompanyNumber",
          "type": "bytes32"
        },
        {
          "name": "_invoiceCompanyName",
          "type": "bytes32"
        },
        {
          "name": "_invoiceNumber",
          "type": "bytes32"
        }
      ],
      "name": "addInvoice",
      "outputs": [],
      "payable": false,
      "stateMutability": "nonpayable",
      "type": "function"
    },
    {
      "constant": false,
      "inputs": [
        {
          "name": "_dataManager",
          "type": "address"
        },
        {
          "name": "_blockchainActionId",
          "type": "bytes32"
        },
        {
          "name": "_userId",
          "type": "bytes32"
        },
        {
          "name": "_companyNumber",
          "type": "bytes32"
        },
        {
          "name": "_companyName",
          "type": "bytes32"
        },
        {
          "name": "_countryCode",
          "type": "bytes2"
        }
      ],
      "name": "addProvider",
      "outputs": [],
      "payable": false,
      "stateMutability": "nonpayable",
      "type": "function"
    },
    {
      "constant": false,
      "inputs": [
        {
          "name": "_dataManager",
          "type": "address"
        },
        {
          "name": "_blockchainActionId",
          "type": "bytes32"
        },
        {
          "name": "_clientId",
          "type": "bytes32"
        },
        {
          "name": "_depositContract",
          "type": "address"
        }
      ],
      "name": "upgradeDepositAddress",
      "outputs": [],
      "payable": false,
      "stateMutability": "nonpayable",
      "type": "function"
    },
    {
      "constant": true,
      "inputs": [],
      "name": "AM",
      "outputs": [
        {
          "name": "",
          "type": "address"
        }
      ],
      "payable": false,
      "stateMutability": "view",
      "type": "function"
    },
    {
      "inputs": [
        {
          "name": "_accessManager",
          "type": "address"
        }
      ],
      "payable": false,
      "stateMutability": "nonpayable",
      "type": "constructor"
    },
    {
      "anonymous": false,
      "inputs": [
        {
          "indexed": false,
          "name": "_deposit",
          "type": "address"
        },
        {
          "indexed": false,
          "name": "_ppt",
          "type": "address"
        },
        {
          "indexed": false,
          "name": "to",
          "type": "address"
        },
        {
          "indexed": false,
          "name": "amount",
          "type": "uint256"
        }
      ],
      "name": "EventTransferredPPT",
      "type": "event"
    },
    {
      "anonymous": false,
      "inputs": [
        {
          "indexed": false,
          "name": "blockchainActionId",
          "type": "bytes32"
        },
        {
          "indexed": false,
          "name": "accountId",
          "type": "bytes32"
        },
        {
          "indexed": false,
          "name": "depositContract",
          "type": "address"
        },
        {
          "indexed": false,
          "name": "to",
          "type": "address"
        },
        {
          "indexed": false,
          "name": "amount",
          "type": "uint256"
        }
      ],
      "name": "EventWithdrawPPT",
      "type": "event"
    },
    {
      "anonymous": false,
      "inputs": [
        {
          "indexed": false,
          "name": "_blockchainActionId",
          "type": "bytes32"
        },
        {
          "indexed": false,
          "name": "accountId",
          "type": "bytes32"
        },
        {
          "indexed": false,
          "name": "currency",
          "type": "bytes32"
        },
        {
          "indexed": false,
          "name": "amount",
          "type": "uint256"
        },
        {
          "indexed": false,
          "name": "toBank",
          "type": "bool"
        }
      ],
      "name": "EventWithdrawPoken",
      "type": "event"
    },
    {
      "anonymous": false,
      "inputs": [
        {
          "indexed": false,
          "name": "blockchainActionId",
          "type": "bytes32"
        },
        {
          "indexed": false,
          "name": "tokenName",
          "type": "bytes32"
        },
        {
          "indexed": false,
          "name": "decimalUnits",
          "type": "uint8"
        },
        {
          "indexed": false,
          "name": "tokenSymbol",
          "type": "bytes32"
        },
        {
          "indexed": false,
          "name": "addr",
          "type": "address"
        }
      ],
      "name": "EventNewCurrency",
      "type": "event"
    },
    {
      "anonymous": false,
      "inputs": [
        {
          "indexed": false,
          "name": "blockchainActionId",
          "type": "bytes32"
        },
        {
          "indexed": false,
          "name": "tokenName",
          "type": "bytes32"
        },
        {
          "indexed": false,
          "name": "decimalUnits",
          "type": "uint8"
        },
        {
          "indexed": false,
          "name": "tokenSymbol",
          "type": "bytes32"
        },
        {
          "indexed": false,
          "name": "addr",
          "type": "address"
        },
        {
          "indexed": false,
          "name": "version",
          "type": "uint256"
        }
      ],
      "name": "EventUpgradeCurrency",
      "type": "event"
    },
    {
      "anonymous": false,
      "inputs": [
        {
          "indexed": false,
          "name": "blockchainActionId",
          "type": "bytes32"
        },
        {
          "indexed": false,
          "name": "clientId",
          "type": "bytes32"
        },
        {
          "indexed": false,
          "name": "depositContractAddress",
          "type": "address"
        }
      ],
      "name": "EventNewDepositContract",
      "type": "event"
    },
    {
      "anonymous": false,
      "inputs": [
        {
          "indexed": false,
          "name": "blockchainActionId",
          "type": "bytes32"
        },
        {
          "indexed": false,
          "name": "clientId",
          "type": "bytes32"
        },
        {
          "indexed": false,
          "name": "depositContractAddress",
          "type": "address"
        },
        {
          "indexed": false,
          "name": "version",
          "type": "uint256"
        }
      ],
      "name": "EventUpgradeDepositContract",
      "type": "event"
    },
    {
      "anonymous": false,
      "inputs": [
        {
          "indexed": false,
          "name": "_blockchainActionId",
          "type": "bytes32"
        },
        {
          "indexed": false,
          "name": "_userId",
          "type": "bytes32"
        },
        {
          "indexed": false,
          "name": "_companyName",
          "type": "bytes32"
        },
        {
          "indexed": false,
          "name": "_companyNumber",
          "type": "bytes32"
        },
        {
          "indexed": false,
          "name": "countryCode",
          "type": "bytes2"
        }
      ],
      "name": "EventNewProvider",
      "type": "event"
    },
    {
      "anonymous": false,
      "inputs": [
        {
          "indexed": false,
          "name": "_blockchainActionId",
          "type": "bytes32"
        },
        {
          "indexed": false,
          "name": "_providerUserId",
          "type": "bytes32"
        },
        {
          "indexed": false,
          "name": "invoiceCountryCode",
          "type": "bytes2"
        },
        {
          "indexed": false,
          "name": "invoiceCompanyNumber",
          "type": "bytes32"
        },
        {
          "indexed": false,
          "name": "invoiceCompanyName",
          "type": "bytes32"
        },
        {
          "indexed": false,
          "name": "invoiceNumber",
          "type": "bytes32"
        }
      ],
      "name": "EventNewInvoice",
      "type": "event"
    },
    {
      "anonymous": false,
      "inputs": [
        {
          "indexed": false,
          "name": "_blockchainActionId",
          "type": "bytes32"
        },
        {
          "indexed": false,
          "name": "_userId",
          "type": "bytes32"
        },
        {
          "indexed": false,
          "name": "_countryCode",
          "type": "bytes2"
        },
        {
          "indexed": false,
          "name": "_companyNumber",
          "type": "bytes32"
        }
      ],
      "name": "EventProviderEnabled",
      "type": "event"
    },
    {
      "anonymous": false,
      "inputs": [
        {
          "indexed": false,
          "name": "_blockchainActionId",
          "type": "bytes32"
        },
        {
          "indexed": false,
          "name": "_userId",
          "type": "bytes32"
        },
        {
          "indexed": false,
          "name": "_countryCode",
          "type": "bytes2"
        },
        {
          "indexed": false,
          "name": "_companyNumber",
          "type": "bytes32"
        }
      ],
      "name": "EventProviderDisabled",
      "type": "event"
    }
  ],
  "bytecode": "0x6060604052341561000f57600080fd5b6040516020806139e48339810160405280805160008054600160a060020a03909216600160a060020a03199092169190911790555050613990806100546000396000f300606060405236156100885763ffffffff60e060020a60003504166302ab72c4811461008d5780630b180e08146100ae5780633da4138c146100dc57806360af3cf914610122578063a6d1fe491461014e578063a78caf19146101a6578063aa1b6fc6146101cb578063dcaa419714610206578063e414d2e21461023e578063f7f01b4b1461026b575b600080fd5b341561009857600080fd5b6100ac600160a060020a036004351661029a565b005b34156100b957600080fd5b6100ac600160a060020a036004351660243560443560ff6064351660843561034d565b34156100e757600080fd5b6100ac600160a060020a03600435811690602435906044358116906064359060843581169060a4359060c4359060e4359061010435166106a7565b341561012d57600080fd5b6100ac600160a060020a036004358116906024359060443516606435610c0d565b341561015957600080fd5b6100ac600160a060020a0360043581169060243590604435906064359060843581169060a43581169060c4359060e435906101043581169061012435906101443516610164351515611121565b34156101b157600080fd5b6100ac600160a060020a0360043516602435604435611d09565b34156101d657600080fd5b6100ac600160a060020a0360043516602435604435600160f060020a03196064351660843560a43560c4356120ad565b341561021157600080fd5b6100ac600160a060020a0360043516602435604435606435608435600160f060020a031960a435166123c0565b341561024957600080fd5b6100ac600160a060020a03600435811690602435906044359060643516612608565b341561027657600080fd5b61027e61285a565b604051600160a060020a03909116815260200160405180910390f35b60008054600160a060020a03169063fda089589033906040516020015260405160e060020a63ffffffff8416028152600160a060020a039091166004820152602401602060405180830381600087803b15156102f557600080fd5b6102c65a03f1151561030657600080fd5b50505060405180511515600114905061031e57600080fd5b6000805473ffffffffffffffffffffffffffffffffffffffff1916600160a060020a0392909216919091179055565b60008054600160a060020a031663fda0895833836040516020015260405160e060020a63ffffffff8416028152600160a060020a039091166004820152602401602060405180830381600087803b15156103a657600080fd5b6102c65a03f115156103b757600080fd5b5050506040518051151560011490506103cf57600080fd5b600160a060020a03861615156103e457600080fd5b506000548590600160a060020a038083169163c7062df39188911687878761040a61289f565b600160a060020a039094168452602084019290925260ff16604080840191909152606083019190915260809091019051809103906000f080151561044d57600080fd5b8560006040516020015260405160e060020a63ffffffff86160281526004810193909352600160a060020a0390911660248301526044820152606401602060405180830381600087803b15156104a257600080fd5b6102c65a03f115156104b357600080fd5b5050506040518051151560011490506104cb57600080fd5b600160a060020a0381166392c4b86786846000808563d383b80d84836040516020015260405160e060020a63ffffffff84160281526004810191909152602401602060405180830381600087803b151561052457600080fd5b6102c65a03f1151561053557600080fd5b505050604051805190506000806040516020015260405160e060020a63ffffffff89160281526004810196909652602486019490945260448501929092526064840152600160a060020a0316608483015260a482015260c401602060405180830381600087803b15156105a757600080fd5b6102c65a03f115156105b857600080fd5b5050506040518051151560011490506105d057600080fd5b7f6f9a94a4b659b99ce71e6f2eaa4b609443bd0350f9e1f7b2d566815cb90f0e968585858585600160a060020a031663d383b80d8860006040516020015260405160e060020a63ffffffff84160281526004810191909152602401602060405180830381600087803b151561064457600080fd5b6102c65a03f1151561065557600080fd5b50505060405180519050604051948552602085019390935260ff9091166040808501919091526060840191909152600160a060020a03909116608083015260a0909101905180910390a1505050505050565b600080548190819081908190600160a060020a031663fda0895833836040516020015260405160e060020a63ffffffff8416028152600160a060020a039091166004820152602401602060405180830381600087803b151561070857600080fd5b6102c65a03f1151561071957600080fd5b50505060405180511515600114905061073157600080fd5b600160a060020a038e16151561074657600080fd5b8d945084600160a060020a031663bea0897c8e60006040516020015260405160e060020a63ffffffff84160281526004810191909152602401602060405180830381600087803b151561079857600080fd5b6102c65a03f115156107a957600080fd5b50505060405180511590508015610831575084600160a060020a0316632a01a4518c60006040516020015260405160e060020a63ffffffff84160281526004810191909152602401602060405180830381600087803b151561080a57600080fd5b6102c65a03f1151561081b57600080fd5b5050506040518051600160a060020a0316151590505b151561083c57600080fd5b600160a060020a038616158015906108545750600087115b80156108605750600089115b151561086b57600080fd5b84600160a060020a0316632a01a4518c60006040516020015260405160e060020a63ffffffff84160281526004810191909152602401602060405180830381600087803b15156108ba57600080fd5b6102c65a03f115156108cb57600080fd5b50505060405180519050935083925061095583600160a060020a03166370a082318e60006040516020015260405160e060020a63ffffffff8416028152600160a060020a039091166004820152602401602060405180830381600087803b151561093457600080fd5b6102c65a03f1151561094557600080fd5b5050506040518051905089612869565b9150610961898861287b565b82101561096d57600080fd5b82600160a060020a031663beabacc88d8c8c60006040516020015260405160e060020a63ffffffff8616028152600160a060020a0393841660048201529190921660248201526044810191909152606401602060405180830381600087803b15156109d757600080fd5b6102c65a03f115156109e857600080fd5b505050604051805115156001149050610a0057600080fd5b82600160a060020a031663beabacc88d888a60006040516020015260405160e060020a63ffffffff8616028152600160a060020a0393841660048201529190921660248201526044810191909152606401602060405180830381600087803b1515610a6a57600080fd5b6102c65a03f11515610a7b57600080fd5b505050604051805115156001149050610a9357600080fd5b8b600160a060020a03166395d89b416000604051602001526040518163ffffffff1660e060020a028152600401602060405180830381600087803b1515610ad957600080fd5b6102c65a03f11515610aea57600080fd5b5050506040518051915050600160a060020a0385166392c4b8678e838c8f8f8d60006040516020015260405160e060020a63ffffffff89160281526004810196909652602486019490945260448501929092526064840152600160a060020a0316608483015260a482015260c401602060405180830381600087803b1515610b7157600080fd5b6102c65a03f11515610b8257600080fd5b505050604051805115156001149050610b9a57600080fd5b7fb34e83f654f4c047e331cea47cc1783dd0511abde3cac240a47bfbdefd6812e88d8c868d8d6040519485526020850193909352600160a060020a0391821660408086019190915291166060840152608083019190915260a0909101905180910390a15050505050505050505050505050565b60008054600160a060020a031663fda0895833836040516020015260405160e060020a63ffffffff8416028152600160a060020a039091166004820152602401602060405180830381600087803b1515610c6657600080fd5b6102c65a03f11515610c7757600080fd5b505050604051805115156001149050610c8f57600080fd5b600160a060020a0385161515610ca457600080fd5b5083600160a060020a0383166395d89b416000604051602001526040518163ffffffff1660e060020a028152600401602060405180830381600087803b1515610cec57600080fd5b6102c65a03f11515610cfd57600080fd5b50505060405180511580159150610d73575082600160a060020a03166306fdde036000604051602001526040518163ffffffff1660e060020a028152600401602060405180830381600087803b1515610d5557600080fd5b6102c65a03f11515610d6657600080fd5b5050506040518051151590505b8015610de2575081600160a060020a0384166395d89b416000604051602001526040518163ffffffff1660e060020a028152600401602060405180830381600087803b1515610dc157600080fd5b6102c65a03f11515610dd257600080fd5b5050506040518051905060001916145b1515610ded57600080fd5b80600160a060020a031663c7062df385858560006040516020015260405160e060020a63ffffffff86160281526004810193909352600160a060020a0390911660248301526044820152606401602060405180830381600087803b1515610e5357600080fd5b6102c65a03f11515610e6457600080fd5b505050604051805115156001149050610e7c57600080fd5b80600160a060020a03166392c4b8678584600080886000806040516020015260405160e060020a63ffffffff89160281526004810196909652602486019490945260448501929092526064840152600160a060020a0316608483015260a482015260c401602060405180830381600087803b1515610ef957600080fd5b6102c65a03f11515610f0a57600080fd5b505050604051805115156001149050610f2257600080fd5b7f3ec6d7d7019460b6f7ba7a92c6549433787fd48f1da24fcf3dd8886ba1da26878484600160a060020a03166306fdde036000604051602001526040518163ffffffff1660e060020a028152600401602060405180830381600087803b1515610f8a57600080fd5b6102c65a03f11515610f9b57600080fd5b5050506040518051905085600160a060020a031663313ce5676000604051602001526040518163ffffffff1660e060020a028152600401602060405180830381600087803b1515610feb57600080fd5b6102c65a03f11515610ffc57600080fd5b505050604051805190508585600160a060020a031663d383b80d8860006040516020015260405160e060020a63ffffffff84160281526004810191909152602401602060405180830381600087803b151561105657600080fd5b6102c65a03f1151561106757600080fd5b5050506040518051905086600160a060020a03166354fd4d506000604051602001526040518163ffffffff1660e060020a028152600401602060405180830381600087803b15156110b757600080fd5b6102c65a03f115156110c857600080fd5b50505060405180519050604051958652602086019490945260ff9092166040808601919091526060850191909152600160a060020a03909116608084015260a083019190915260c0909101905180910390a15050505050565b600080548190600160a060020a031663fda0895833836040516020015260405160e060020a63ffffffff8416028152600160a060020a039091166004820152602401602060405180830381600087803b151561117c57600080fd5b6102c65a03f1151561118d57600080fd5b5050506040518051151560011490506111a557600080fd5b600160a060020a038e1615156111ba57600080fd5b8d915081600160a060020a031663bea0897c8e60006040516020015260405160e060020a63ffffffff84160281526004810191909152602401602060405180830381600087803b151561120c57600080fd5b6102c65a03f1151561121d57600080fd5b505050604051805115905080156112a5575081600160a060020a0316632a01a4518960006040516020015260405160e060020a63ffffffff84160281526004810191909152602401602060405180830381600087803b151561127e57600080fd5b6102c65a03f1151561128f57600080fd5b5050506040518051600160a060020a0316151590505b15156112b057600080fd5b600160a060020a038416158015906112c85750600085115b15156112d357600080fd5b60008b118015611354575081600160a060020a031663d383b80d8d60006040516020015260405160e060020a63ffffffff84160281526004810191909152602401602060405180830381600087803b151561132d57600080fd5b6102c65a03f1151561133e57600080fd5b5050506040518051600160a060020a0316151590505b151561135f57600080fd5b81600160a060020a0316632a01a4518960006040516020015260405160e060020a63ffffffff84160281526004810191909152602401602060405180830381600087803b15156113ae57600080fd5b6102c65a03f115156113bf57600080fd5b5050506040518051905090508461142682600160a060020a03166370a082318960006040516020015260405160e060020a63ffffffff8416028152600160a060020a039091166004820152602401602060405180830381600087803b151561093457600080fd5b101561143157600080fd5b80600160a060020a031663beabacc887868860006040516020015260405160e060020a63ffffffff8616028152600160a060020a0393841660048201529190921660248201526044810191909152606401602060405180830381600087803b151561149b57600080fd5b6102c65a03f115156114ac57600080fd5b5050506040518051151560011490506114c457600080fd5b60018315151415611a595781600160a060020a031663d383b80d8d60006040516020015260405160e060020a63ffffffff84160281526004810191909152602401602060405180830381600087803b151561151e57600080fd5b6102c65a03f1151561152f57600080fd5b50505060405180519050600160a060020a03166370a082318b60006040516020015260405160e060020a63ffffffff8416028152600160a060020a039091166004820152602401602060405180830381600087803b151561158f57600080fd5b6102c65a03f115156115a057600080fd5b505050604051805190508b11156117805781600160a060020a031663d383b80d8d60006040516020015260405160e060020a63ffffffff84160281526004810191909152602401602060405180830381600087803b151561160057600080fd5b6102c65a03f1151561161157600080fd5b50505060405180519050600160a060020a0316630156b32383600160a060020a031663d383b80d8f60006040516020015260405160e060020a63ffffffff84160281526004810191909152602401602060405180830381600087803b151561167857600080fd5b6102c65a03f1151561168957600080fd5b50505060405180519050600160a060020a03166370a082318d60006040516020015260405160e060020a63ffffffff8416028152600160a060020a039091166004820152602401602060405180830381600087803b15156116e957600080fd5b6102c65a03f115156116fa57600080fd5b505050604051805190508c60006040516020015260405160e060020a63ffffffff85160281526004810192909252600160a060020a03166024820152604401602060405180830381600087803b151561175257600080fd5b6102c65a03f1151561176357600080fd5b50505060405180511515600114905061177b57600080fd5b611959565b8a82600160a060020a031663d383b80d8e60006040516020015260405160e060020a63ffffffff84160281526004810191909152602401602060405180830381600087803b15156117d057600080fd5b6102c65a03f115156117e157600080fd5b50505060405180519050600160a060020a03166370a082318c60006040516020015260405160e060020a63ffffffff8416028152600160a060020a039091166004820152602401602060405180830381600087803b151561184157600080fd5b6102c65a03f1151561185257600080fd5b505050604051805190501015151561186957600080fd5b81600160a060020a031663d383b80d8d60006040516020015260405160e060020a63ffffffff84160281526004810191909152602401602060405180830381600087803b15156118b857600080fd5b6102c65a03f115156118c957600080fd5b50505060405180519050600160a060020a0316630156b3238c8c60006040516020015260405160e060020a63ffffffff85160281526004810192909252600160a060020a03166024820152604401602060405180830381600087803b151561193057600080fd5b6102c65a03f1151561194157600080fd5b50505060405180511515600114905061195957600080fd5b81600160a060020a03166392c4b8678e8e8e8c8f8b60006040516020015260405160e060020a63ffffffff89160281526004810196909652602486019490945260448501929092526064840152600160a060020a0316608483015260a482015260c401602060405180830381600087803b15156119d557600080fd5b6102c65a03f115156119e657600080fd5b5050506040518051151560011490506119fe57600080fd5b7f471ca94ad77c519a81da4f8dc0fe508299cb64c10c988cc641abbaede6c075ff8d898e8e8760405194855260208501939093526040808501929092526060840152901515608083015260a0909101905180910390a1611cf9565b81600160a060020a031663d383b80d8d60006040516020015260405160e060020a63ffffffff84160281526004810191909152602401602060405180830381600087803b1515611aa857600080fd5b6102c65a03f11515611ab957600080fd5b50505060405180519050600160a060020a03166397304ced8c60405160e060020a63ffffffff84160281526004810191909152602401600060405180830381600087803b1515611b0857600080fd5b6102c65a03f11515611b1957600080fd5b50505081600160a060020a031663d383b80d8d60006040516020015260405160e060020a63ffffffff84160281526004810191909152602401602060405180830381600087803b1515611b6b57600080fd5b6102c65a03f11515611b7c57600080fd5b50505060405180519050600160a060020a031663a9059cbb8a8d60006040516020015260405160e060020a63ffffffff8516028152600160a060020a0390921660048301526024820152604401602060405180830381600087803b1515611be257600080fd5b6102c65a03f11515611bf357600080fd5b50505060405180515050600160a060020a0382166392c4b8678e8e8e8c8e8b60006040516020015260405160e060020a63ffffffff89160281526004810196909652602486019490945260448501929092526064840152600160a060020a0316608483015260a482015260c401602060405180830381600087803b1515611c7957600080fd5b6102c65a03f11515611c8a57600080fd5b505050604051805115156001149050611ca257600080fd5b7f471ca94ad77c519a81da4f8dc0fe508299cb64c10c988cc641abbaede6c075ff8d898e8e8760405194855260208501939093526040808501929092526060840152901515608083015260a0909101905180910390a15b5050505050505050505050505050565b60008054600160a060020a031663fda0895833836040516020015260405160e060020a63ffffffff8416028152600160a060020a039091166004820152602401602060405180830381600087803b1515611d6257600080fd5b6102c65a03f11515611d7357600080fd5b505050604051805115156001149050611d8b57600080fd5b600160a060020a0384161515611da057600080fd5b506000548390600160a060020a0380831691630e8ba167918691869116611dc56128af565b918252600160a060020a0316602082015260409081019051809103906000f0801515611df057600080fd5b8560006040516020015260405160e060020a63ffffffff86160281526004810193909352600160a060020a0390911660248301526044820152606401602060405180830381600087803b1515611e4557600080fd5b6102c65a03f11515611e5657600080fd5b505050604051805115156001149050611e6e57600080fd5b80600160a060020a0316632a01a4518360006040516020015260405160e060020a63ffffffff84160281526004810191909152602401602060405180830381600087803b1515611ebd57600080fd5b6102c65a03f11515611ece57600080fd5b5050506040518051600160a060020a031615159050611ee957fe5b600160a060020a0381166392c4b867846000808685632a01a45182846040516020015260405160e060020a63ffffffff84160281526004810191909152602401602060405180830381600087803b1515611f4257600080fd5b6102c65a03f11515611f5357600080fd5b505050604051805190506000806040516020015260405160e060020a63ffffffff89160281526004810196909652602486019490945260448501929092526064840152600160a060020a0316608483015260a482015260c401602060405180830381600087803b1515611fc557600080fd5b6102c65a03f11515611fd657600080fd5b505050604051805115156001149050611fee57600080fd5b7fb6e4c061023577b7e47ffdc4a06fbdb30a157c488fdd58e1735c32b6d8b33cb2838383600160a060020a0316632a01a4518660006040516020015260405160e060020a63ffffffff84160281526004810191909152602401602060405180830381600087803b151561206057600080fd5b6102c65a03f1151561207157600080fd5b505050604051805190506040519283526020830191909152600160a060020a03166040808301919091526060909101905180910390a150505050565b60008054819081908190600160a060020a031663fda0895833836040516020015260405160e060020a63ffffffff8416028152600160a060020a039091166004820152602401602060405180830381600087803b151561210c57600080fd5b6102c65a03f1151561211d57600080fd5b50505060405180511515600114905061213557600080fd5b600160a060020a038b16151561214a57600080fd5b8a935083600160a060020a0316631529905c8a60006040516060015260405160e060020a63ffffffff84160281526004810191909152602401606060405180830381600087803b151561219c57600080fd5b6102c65a03f115156121ad57600080fd5b505050604051805190602001805190602001805192955090935090915050600160f060020a03198316158015906121e357508115155b80156121ee57508015155b15156121f957600080fd5b83600160a060020a031663880a8e548b8b8b8b8b8b60006040516020015260405160e060020a63ffffffff891602815260048101969096526024860194909452600160f060020a031990921660448501526064840152608483015260a482015260c401602060405180830381600087803b151561227557600080fd5b6102c65a03f1151561228657600080fd5b50505060405180511515600114905061229e57600080fd5b83600160a060020a03166392c4b8678b6000808d60008060006040516020015260405160e060020a63ffffffff89160281526004810196909652602486019490945260448501929092526064840152600160a060020a0316608483015260a482015260c401602060405180830381600087803b151561231c57600080fd5b6102c65a03f1151561232d57600080fd5b50505060405180511515600114905061234557600080fd5b7f53c9402948bb1a0f1c1ff853af7d9843a08489c0e79a7066f4d6ac7a7ac7876a8a8a8a8a8a8a6040519586526020860194909452600160f060020a03199092166040808601919091526060850191909152608084019190915260a083019190915260c0909101905180910390a15050505050505050505050565b60008054600160a060020a031663fda0895833836040516020015260405160e060020a63ffffffff8416028152600160a060020a039091166004820152602401602060405180830381600087803b151561241957600080fd5b6102c65a03f1151561242a57600080fd5b50505060405180511515600114905061244257600080fd5b600160a060020a038716151561245757600080fd5b5085600160a060020a03811663a5c51a00878787878760006040516020015260405160e060020a63ffffffff88160281526004810195909552602485019390935260448401919091526064830152600160f060020a031916608482015260a401602060405180830381600087803b15156124d057600080fd5b6102c65a03f115156124e157600080fd5b5050506040518051151560011490506124f957600080fd5b80600160a060020a03166392c4b867876000808960008060006040516020015260405160e060020a63ffffffff89160281526004810196909652602486019490945260448501929092526064840152600160a060020a0316608483015260a482015260c401602060405180830381600087803b151561257757600080fd5b6102c65a03f1151561258857600080fd5b5050506040518051151560011490506125a057600080fd5b7f715169d37d48828f31a81b71e5da2d5934b107791a77894e3bce33b5d59e0fd6868685878660405194855260208501939093526040808501929092526060840152600160f060020a0319909116608083015260a0909101905180910390a150505050505050565b60008054600160a060020a031663fda0895833836040516020015260405160e060020a63ffffffff8416028152600160a060020a039091166004820152602401602060405180830381600087803b151561266157600080fd5b6102c65a03f1151561267257600080fd5b50505060405180511515600114905061268a57600080fd5b600160a060020a038516151561269f57600080fd5b5083600160a060020a03811663a85eb33485858560006040516020015260405160e060020a63ffffffff861602815260048101939093526024830191909152600160a060020a03166044820152606401602060405180830381600087803b151561270857600080fd5b6102c65a03f1151561271957600080fd5b50505060405180511515600114905061273157600080fd5b7fc9825393d621390cc1eecf778d4ccc25d31c544b3752d105a3c1bd443d4097e0848483600160a060020a0316632a01a4518760006040516020015260405160e060020a63ffffffff84160281526004810191909152602401602060405180830381600087803b15156127a357600080fd5b6102c65a03f115156127b457600080fd5b5050506040518051905084600160a060020a03166354fd4d506000604051602001526040518163ffffffff1660e060020a028152600401602060405180830381600087803b151561280457600080fd5b6102c65a03f1151561281557600080fd5b505050604051805190506040519384526020840192909252600160a060020a031660408084019190915260608301919091526080909101905180910390a15050505050565b600054600160a060020a031681565b60008282111561287557fe5b50900390565b60008282018381108015906128905750828110155b151561289857fe5b9392505050565b604051610c5a806128c083390190565b60405161044b8061351a833901905600606060405260008055341561001357600080fd5b604051608080610c5a8339810160405280805191906020018051919060200180519190602001805160068054600160a060020a031916600160a060020a03979097169690961790955550506001919091556002805460ff191660ff909216919091179055600355610bd1806100896000396000f300606060405236156100ca5763ffffffff60e060020a6000350416630156b32381146100cf57806302ab72c41461010557806306fdde0314610126578063095ea7b31461014b57806318160ddd1461016d57806323b872dd1461018057806327e235e3146101a8578063313ce567146101c75780635c658165146101f057806367fbd2891461021557806370a082311461022b57806395d89b411461024a57806397304ced1461025d578063a9059cbb14610273578063dd62ed3e14610295578063f7f01b4b146102ba575b600080fd5b34156100da57600080fd5b6100f1600435600160a060020a03602435166102e9565b604051901515815260200160405180910390f35b341561011057600080fd5b610124600160a060020a03600435166103ed565b005b341561013157600080fd5b61013961049e565b60405190815260200160405180910390f35b341561015657600080fd5b6100f1600160a060020a03600435166024356104a4565b341561017857600080fd5b610139610510565b341561018b57600080fd5b6100f1600160a060020a0360043581169060243516604435610516565b34156101b357600080fd5b610139600160a060020a036004351661061c565b34156101d257600080fd5b6101da61062e565b60405160ff909116815260200160405180910390f35b34156101fb57600080fd5b610139600160a060020a0360043581169060243516610637565b341561022057600080fd5b6100f1600435610654565b341561023657600080fd5b610139600160a060020a0360043516610898565b341561025557600080fd5b6101396108b3565b341561026857600080fd5b6101246004356108b9565b341561027e57600080fd5b6100f1600160a060020a0360043516602435610aa1565b34156102a057600080fd5b610139600160a060020a0360043581169060243516610b35565b34156102c557600080fd5b6102cd610b60565b604051600160a060020a03909116815260200160405180910390f35b600654600090600160a060020a03166305fd22d033836040516020015260405160e060020a63ffffffff8416028152600160a060020a039091166004820152602401602060405180830381600087803b151561034457600080fd5b6102c65a03f1151561035557600080fd5b50505060405180511515600114905061036d57600080fd5b600160a060020a03821660009081526004602052604090205483901015610396575060006103e7565b600160a060020a0382166000908152600460205260409020546103b99084610b6f565b600160a060020a038316600090815260046020526040812091909155546103e09084610b6f565b6000555060015b92915050565b600654600160a060020a031663fda089583360006040516020015260405160e060020a63ffffffff8416028152600160a060020a039091166004820152602401602060405180830381600087803b151561044657600080fd5b6102c65a03f1151561045757600080fd5b50505060405180511515600114905061046f57600080fd5b6006805473ffffffffffffffffffffffffffffffffffffffff1916600160a060020a0392909216919091179055565b60015481565b600160a060020a03338116600081815260056020908152604080832094871680845294909152808220859055909291907f8c5be1e5ebec7d5bd14f71427d1e84f3dd0314c0f7b2291e5b200ac8c7c3b9259085905190815260200160405180910390a350600192915050565b60005481565b600160a060020a03808416600081815260056020908152604080832033909516835293815283822054928252600490529182205483901080159061055a5750828110155b151561056557600080fd5b600160a060020a03808516600090815260046020526040808220805487019055918716815220805484900390556000198110156105ca57600160a060020a03808616600090815260056020908152604080832033909416835292905220805484900390555b83600160a060020a031685600160a060020a03167fddf252ad1be2c89b69c2b068fc378daa952ba7f163c4a11628f55a4df523b3ef8560405190815260200160405180910390a3506001949350505050565b60046020526000908152604090205481565b60025460ff1681565b600560209081526000928352604080842090915290825290205481565b600654600090600160a060020a03166305fd22d033836040516020015260405160e060020a63ffffffff8416028152600160a060020a039091166004820152602401602060405180830381600087803b15156106af57600080fd5b6102c65a03f115156106c057600080fd5b5050506040518051151560011490506106d857600080fd5b6006548290600490600090600160a060020a03166394a3760f82604051602001526040518163ffffffff1660e060020a028152600401602060405180830381600087803b151561072757600080fd5b6102c65a03f1151561073857600080fd5b5050506040518051600160a060020a0316825250602081019190915260400160002054101561076957506000610893565b6006546107f490600490600090600160a060020a03166394a3760f82604051602001526040518163ffffffff1660e060020a028152600401602060405180830381600087803b15156107ba57600080fd5b6102c65a03f115156107cb57600080fd5b5050506040518051600160a060020a031682525060208101919091526040016000205483610b6f565b600654600490600090600160a060020a03166394a3760f82604051602001526040518163ffffffff1660e060020a028152600401602060405180830381600087803b151561084157600080fd5b6102c65a03f1151561085257600080fd5b50505060405180519050600160a060020a0316600160a060020a031681526020019081526020016000208190555061088c60005483610b6f565b6000555060015b919050565b600160a060020a031660009081526004602052604090205490565b60035481565b600654600160a060020a03166305fd22d03360006040516020015260405160e060020a63ffffffff8416028152600160a060020a039091166004820152602401602060405180830381600087803b151561091257600080fd5b6102c65a03f1151561092357600080fd5b50505060405180511515600114905061093b57600080fd5b6006546109c690600490600090600160a060020a03166394a3760f82604051602001526040518163ffffffff1660e060020a028152600401602060405180830381600087803b151561098c57600080fd5b6102c65a03f1151561099d57600080fd5b5050506040518051600160a060020a031682525060208101919091526040016000205482610b81565b600654600490600090600160a060020a03166394a3760f82604051602001526040518163ffffffff1660e060020a028152600401602060405180830381600087803b1515610a1357600080fd5b6102c65a03f11515610a2457600080fd5b50505060405180519050600160a060020a0316600160a060020a0316815260200190815260200160002081905550610a5e60005482610b81565b6000556003547fb83a9cb495aa43a9871c87805ab90712a5f703de6d66d16b96d7afcc91bb3299908260405191825260208201526040908101905180910390a150565b600160a060020a03331660009081526004602052604081205482901015610ac757600080fd5b600160a060020a033381166000818152600460205260408082208054879003905592861680825290839020805486019055917fddf252ad1be2c89b69c2b068fc378daa952ba7f163c4a11628f55a4df523b3ef9085905190815260200160405180910390a350600192915050565b600160a060020a03918216600090815260056020908152604080832093909416825291909152205490565b600654600160a060020a031681565b600082821115610b7b57fe5b50900390565b6000828201838110801590610b965750828110155b1515610b9e57fe5b93925050505600a165627a7a72305820b32c7e80703c5c8642c1958efabfef8fd63761da726c5cd3a31a8ca41d9d10c200296060604052341561000f57600080fd5b60405160408061044b833981016040528080519190602001805160008054600160a060020a03909216600160a060020a031990921691909117905550506001556103ed8061005e6000396000f300606060405263ffffffff60e060020a60003504166302ab72c4811461004457806370a0823114610065578063beabacc814610096578063f7f01b4b146100d257600080fd5b341561004f57600080fd5b610063600160a060020a0360043516610101565b005b341561007057600080fd5b610084600160a060020a03600435166101b4565b60405190815260200160405180910390f35b34156100a157600080fd5b6100be600160a060020a036004358116906024351660443561022d565b604051901515815260200160405180910390f35b34156100dd57600080fd5b6100e56103b2565b604051600160a060020a03909116815260200160405180910390f35b60008054600160a060020a03169063fda089589033906040516020015260405160e060020a63ffffffff8416028152600160a060020a039091166004820152602401602060405180830381600087803b151561015c57600080fd5b6102c65a03f1151561016d57600080fd5b50505060405180511515600114905061018557600080fd5b6000805473ffffffffffffffffffffffffffffffffffffffff1916600160a060020a0392909216919091179055565b600081600160a060020a03166370a082313060006040516020015260405160e060020a63ffffffff8416028152600160a060020a039091166004820152602401602060405180830381600087803b151561020d57600080fd5b6102c65a03f1151561021e57600080fd5b50505060405180519392505050565b60008054600160a060020a031663fda0895833836040516020015260405160e060020a63ffffffff8416028152600160a060020a039091166004820152602401602060405180830381600087803b151561028657600080fd5b6102c65a03f1151561029757600080fd5b50505060405180511515600114905080610328575060008054600160a060020a0316906305fd22d09033906040516020015260405160e060020a63ffffffff8416028152600160a060020a039091166004820152602401602060405180830381600087803b151561030757600080fd5b6102c65a03f1151561031857600080fd5b5050506040518051151560011490505b151561033357600080fd5b83600160a060020a031663a9059cbb848460006040516020015260405160e060020a63ffffffff8516028152600160a060020a0390921660048301526024820152604401602060405180830381600087803b151561039057600080fd5b6102c65a03f115156103a157600080fd5b505050604051805195945050505050565b600054600160a060020a0316815600a165627a7a72305820aa6b00f4bb58e86009b6b26aa3b35733ea3d9e8b343423b70006bf2958ef9a310029a165627a7a7230582038c572cf79e0afc140c6e7dc9ae122bea9ce44b82556ccff888da9eaf10572bf0029",
  "source": "pragma solidity ^0.4.17;\n\n/**\nThis is the core module of the system. Currently it holds the code of\nthe Bank and crowdsale modules to avoid external calls and higher gas costs.\nIt might be a good idea in the future to split the code, separate Bank\nand crowdsale modules into external files and have the core interact with them\nwith addresses and interfaces. \n*/\n\nimport \"./iERC20Token.sol\";\nimport \"./CurrencyToken.sol\";\nimport \"./DepositContract.sol\";\nimport \"./SafeMath.sol\";\nimport \"./DataManager.sol\";\n\n/// @title Populous contract\ncontract Populous is withAccessManager {\n\n    event EventTransferredPPT(address _deposit, address _ppt, address to, uint amount);\n    // EVENTS\n    // Bank events\n    event EventWithdrawPPT(bytes32 blockchainActionId, bytes32 accountId, address depositContract, address to, uint amount);\n    event EventWithdrawPoken(bytes32 _blockchainActionId, bytes32 accountId, bytes32 currency, uint amount, bool toBank);\n    \n    event EventNewCurrency(bytes32 blockchainActionId, bytes32 tokenName, uint8 decimalUnits, bytes32 tokenSymbol, address addr);\n    event EventUpgradeCurrency(bytes32 blockchainActionId, bytes32 tokenName, uint8 decimalUnits, bytes32 tokenSymbol, address addr, uint256 version);\n    \n    event EventNewDepositContract(bytes32 blockchainActionId, bytes32 clientId, address depositContractAddress);\n    event EventUpgradeDepositContract(bytes32 blockchainActionId, bytes32 clientId, address depositContractAddress, uint256 version);\n    \n    event EventNewProvider(bytes32 _blockchainActionId, bytes32 _userId, bytes32 _companyName, bytes32 _companyNumber, bytes2 countryCode);\n    event EventNewInvoice(bytes32 _blockchainActionId, bytes32 _providerUserId, bytes2 invoiceCountryCode, bytes32 invoiceCompanyNumber, bytes32 invoiceCompanyName, bytes32 invoiceNumber);\n    event EventProviderEnabled(bytes32 _blockchainActionId, bytes32 _userId, bytes2 _countryCode, bytes32 _companyNumber);\n    event EventProviderDisabled(bytes32 _blockchainActionId, bytes32 _userId, bytes2 _countryCode, bytes32 _companyNumber);\n    \n    // FIELDS\n\n    // NON-CONSTANT METHODS\n    // Constructor method called when contract instance is \n    // deployed with 'withAccessManager' modifier.\n    function Populous(address _accessManager) public withAccessManager(_accessManager) {}\n    /**\n    BANK MODULE\n    */\n\n\n    // NON-CONSTANT METHODS\n    \n    /** @dev Creates a new 'depositAddress' gotten from deploying a deposit contract linked to a client ID\n      * @param clientId The bytes32 client ID\n      * @return address The address of the deployed deposit contract instance.\n      */\n    function createAddress(address _dataManager, bytes32 _blockchainActionId, bytes32 clientId) public\n        onlyServer\n    {   \n        require(_dataManager != 0x0);\n        DataManager dm = DataManager(_dataManager);\n        require(dm.setDepositAddress(_blockchainActionId, new DepositContract(clientId, AM), clientId) == true);\n        assert(dm.getDepositAddress(clientId) != 0x0);\n        require(dm.setBlockchainActionData(_blockchainActionId, 0x0, 0, clientId, dm.getDepositAddress(clientId), 0) == true);\n\n        //dm.blockchainActionIdData[_blockchainActionId].accountId = clientId;\n        //dm.blockchainActionIdData[_blockchainActionId].to = depositAddress[clientId];\n        EventNewDepositContract(_blockchainActionId, clientId, dm.getDepositAddress(clientId));\n    }\n\n    /** @dev Adds a deposit address for a client id from older version of populous\n      * @param _blockchainActionId the blockchain action id\n      * @param _clientId the client id\n      * @param _depositContract The address of the deposit smartt contract\n      */\n    function upgradeDepositAddress(address _dataManager, bytes32 _blockchainActionId, bytes32 _clientId, address _depositContract) public\n      onlyServer\n    {\n        require(_dataManager != 0x0);\n        DataManager dm = DataManager(_dataManager);\n        require(dm.upgradeDepositAddress(_blockchainActionId, _clientId, _depositContract) == true);\n        EventUpgradeDepositContract(_blockchainActionId, _clientId, dm.getDepositAddress(_clientId), dm.version());\n    }\n\n    /** @dev Creates a new token/currency.\n      * @param _tokenName  The name of the currency.\n      * @param _decimalUnits The number of decimals the currency has.\n      * @param _tokenSymbol The currency symbol, e.g., GBP\n      */\n    function createCurrency(\n        address _dataManager, bytes32 _blockchainActionId, \n        bytes32 _tokenName, uint8 _decimalUnits, bytes32 _tokenSymbol)\n        public\n        onlyServer\n    {   \n        require(_dataManager != 0x0);\n        DataManager dm = DataManager(_dataManager);\n        // Check if currency already exists\n        //require(currencies[_tokenSymbol] == 0x0);\n        require(dm.setCurrency(_blockchainActionId, new CurrencyToken(address(AM), _tokenName, _decimalUnits, _tokenSymbol), _tokenSymbol) == true);\n        require(dm.setBlockchainActionData(_blockchainActionId, _tokenSymbol, 0, 0x0, dm.getCurrency(_tokenSymbol), 0) == true);\n\n        //blockchainActionIdData[_blockchainActionId].currency = _tokenSymbol;\n        //blockchainActionIdData[_blockchainActionId].to = currencies[_tokenSymbol];\n\n        EventNewCurrency(_blockchainActionId, _tokenName, _decimalUnits, _tokenSymbol, dm.getCurrency(_tokenSymbol));\n    }\n\n    /** @dev Adds a currency from older version of populous\n      * @param _blockchainActionId the blockchain action id\n      * @param _currencyAddress the currency smart contract address\n      * @param _tokenSymbol The token symbol of the currency\n      */\n    function upgradeCurrency(address _dataManager, bytes32 _blockchainActionId, address _currencyAddress, bytes32 _tokenSymbol) public onlyServer\n    {   \n        require(_dataManager != 0x0);\n        DataManager dm = DataManager(_dataManager);\n        // check if blockchain action id is already used\n        // Check if currency exists as erc20\n        require(CurrencyToken(_currencyAddress).symbol() != 0x0 && CurrencyToken(_currencyAddress).name() != 0x0 && CurrencyToken(_currencyAddress).symbol() == _tokenSymbol);\n        require(dm.setCurrency(_blockchainActionId, _currencyAddress, _tokenSymbol) == true);\n        require(dm.setBlockchainActionData(_blockchainActionId, _tokenSymbol, 0, 0x0, _currencyAddress, 0) == true);\n\n        //blockchainActionIdData[_blockchainActionId].currency = _tokenSymbol;\n        //blockchainActionIdData[_blockchainActionId].to = currencies[_tokenSymbol];\n\n        EventUpgradeCurrency(_blockchainActionId, CurrencyToken(_currencyAddress).name(), CurrencyToken(_currencyAddress).decimals(), _tokenSymbol, dm.getCurrency(_tokenSymbol), dm.version());\n    }\n\n    /** @dev Add a new invoice provider to the platform  \n      * @param _blockchainActionId the blockchain action id\n      * @param _userId the user id of the provider\n      * @param _companyNumber the providers company number\n      * @param _companyName the providers company name\n      * @param _countryCode the providers country code\n      */\n    function addProvider(\n        address _dataManager, bytes32 _blockchainActionId, \n        bytes32 _userId, bytes32 _companyNumber, \n        bytes32 _companyName, bytes2 _countryCode) \n        public \n        onlyServer\n    {   \n        require(_dataManager != 0x0);\n        DataManager dm = DataManager(_dataManager);\n        require(dm.setProvider(_blockchainActionId, _userId, _companyNumber, _companyName, _countryCode) == true);\n        require(dm.setBlockchainActionData(_blockchainActionId, 0x0, 0, _userId, 0x0, 0) == true);\n        EventNewProvider(_blockchainActionId, _userId, _companyName, _companyNumber, _countryCode);\n    }\n\n    /** @dev Add a new crowdsale invoice from an invoice provider to the platform  \n      * @param _blockchainActionId the blockchain action id\n      * @param _providerUserId the user id of the provider\n      * @param _invoiceCompanyNumber the providers company number\n      * @param _invoiceCompanyName the providers company name\n      * @param _invoiceCountryCode the providers country code\n      * @param _invoiceNumber the invoice identification number\n      */\n    function addInvoice(\n        address _dataManager, bytes32 _blockchainActionId, \n        bytes32 _providerUserId, bytes2 _invoiceCountryCode, \n        bytes32 _invoiceCompanyNumber, bytes32 _invoiceCompanyName, bytes32 _invoiceNumber)\n        public\n        onlyServer\n    {\n        require(_dataManager != 0x0);\n        DataManager dm = DataManager(_dataManager);\n        bytes2 countryCode; \n        bytes32 companyName; \n        bytes32 companyNumber;\n        (countryCode, companyName, companyNumber) = dm.getProviderByUserId(_providerUserId);\n        //require(dm.getProviderStatus(_providerUserId) == true);\n        require(countryCode != 0x0 && companyName != 0x0 && companyNumber != 0x0);\n        require(dm.setInvoice(_blockchainActionId, _providerUserId, _invoiceCountryCode, _invoiceCompanyNumber, _invoiceCompanyName, _invoiceNumber) == true);\n        require(dm.setBlockchainActionData(_blockchainActionId, 0x0, 0, _providerUserId, 0x0, 0) == true);\n        EventNewInvoice(_blockchainActionId, _providerUserId, _invoiceCountryCode, _invoiceCompanyNumber, _invoiceCompanyName, _invoiceNumber);\n    }\n\n    /** @dev Import an amount of pokens of a particular currency from an ethereum wallet/address to bank\n      * @param _blockchainActionId the blockchain action id\n      * @param accountId the account id of the client\n      * @param from the blockchain address to import pokens from\n      * @param currency the poken currency\n      */\n    function withdrawPoken(\n        address _dataManager, bytes32 _blockchainActionId, \n        bytes32 currency, uint amount,\n        address from, address to, bytes32 accountId, uint inCollateral,\n        address pptAddress, uint pptFee, address adminExternalWallet, bool toBank) \n        public \n        onlyServer \n    {\n        require(_dataManager != 0x0);\n        DataManager dm = DataManager(_dataManager);\n        require(dm.getActionStatus(_blockchainActionId) == false && dm.getDepositAddress(accountId) != 0x0);\n        require(adminExternalWallet != 0x0 && pptFee > 0);\n        require(amount > 0 && dm.getCurrency(currency) != 0x0);\n        DepositContract o = DepositContract(dm.getDepositAddress(accountId));\n        // check if pptbalance minus collateral held is more than pptFee then transfer pptFee from users ppt deposit to adminWallet\n        require(SafeMath.safeSub(o.balanceOf(pptAddress), inCollateral) >= pptFee);\n        require(o.transfer(pptAddress, adminExternalWallet, pptFee) == true);\n        //stach deep with too many local variables, using cT directly\n        //CurrencyToken cT = CurrencyToken(dm.getCurrency(currency));\n        if (toBank == true) {\n            //WITHDRAW BANK\n            if (amount > CurrencyToken(dm.getCurrency(currency)).balanceOf(from)) {\n                // destroying total balance\n                require(CurrencyToken(dm.getCurrency(currency)).destroyTokensFrom(CurrencyToken(dm.getCurrency(currency)).balanceOf(from), from) == true);\n            } else {\n                // destroy amount from balance\n                require(CurrencyToken(dm.getCurrency(currency)).balanceOf(from) >= amount);\n                require(CurrencyToken(dm.getCurrency(currency)).destroyTokensFrom(amount, from) == true);\n            }\n            require(dm.setBlockchainActionData(_blockchainActionId, currency, amount, accountId, from, pptFee) == true); \n            //emit event: Imported currency to system\n            EventWithdrawPoken(_blockchainActionId, accountId, currency, amount, toBank);\n        } else {\n            // WITHDRAW POKEN        \n\n            //credit ledger\n            CurrencyToken(dm.getCurrency(currency)).mintTokens(amount);\n            //credit account\n            CurrencyToken(dm.getCurrency(currency)).transfer(to, amount);\n            require(dm.setBlockchainActionData(_blockchainActionId, currency, amount, accountId, to, pptFee) == true); \n            //emit event: Exported currency to wallet\n            EventWithdrawPoken(_blockchainActionId, accountId, currency, amount, toBank);\n        }   \n    }\n\n    /** @dev Withdraw an amount of PPT Populous tokens to a blockchain address \n      * @param _blockchainActionId the blockchain action id\n      * @param pptAddress the address of the PPT smart contract\n      * @param accountId the account id of the client\n      * @param pptFee the amount of fees to pay in PPT tokens\n      * @param adminExternalWallet the platform admin wallet address to pay the fees to \n      * @param to the blockchain address to withdraw and transfer the pokens to\n      * @param inCollateral the amount of pokens withheld by the platform\n      */    \n    function withdrawERC20(\n        address _dataManager, bytes32 _blockchainActionId, \n        address pptAddress, bytes32 accountId, \n        address to, uint amount, uint inCollateral, uint pptFee, address adminExternalWallet) \n        public \n        onlyServer \n    {   \n        require(_dataManager != 0x0);\n        DataManager dm = DataManager(_dataManager);\n        require(dm.getActionStatus(_blockchainActionId) == false && dm.getDepositAddress(accountId) != 0x0);\n        require(adminExternalWallet != 0x0 && pptFee > 0 && amount > 0);\n        address depositContract = dm.getDepositAddress(accountId);\n        DepositContract o = DepositContract(depositContract);\n        uint pptBalance = SafeMath.safeSub(o.balanceOf(pptAddress), inCollateral);\n        require(pptBalance >= SafeMath.safeAdd(amount, pptFee));\n        require(o.transfer(pptAddress, to, amount) == true);\n        require(o.transfer(pptAddress, adminExternalWallet, pptFee) == true); \n        bytes32 tokenSymbol = iERC20Token(pptAddress).symbol();       \n        require(dm.setBlockchainActionData(_blockchainActionId, tokenSymbol, amount, accountId, to, pptFee) == true); \n        EventWithdrawPPT(_blockchainActionId, accountId, depositContract, to, amount);\n    }\n\n    // CONSTANT METHODS\n\n    \n    \n}",
  "sourcePath": "/Users/najienka/Desktop/populous-smartcontracts/contracts/Populous.sol",
  "schemaVersion": "1.0.0",
  "updatedAt": "2018-06-25T09:34:24.761Z"
}