{
  "contractName": "Populous",
  "abi": [
    {
      "constant": false,
      "inputs": [
        {
          "name": "_accessManager",
          "type": "address"
        }
      ],
      "name": "updateAccessManager",
      "outputs": [],
      "payable": false,
      "stateMutability": "nonpayable",
      "type": "function"
    },
    {
      "constant": true,
      "inputs": [
        {
          "name": "_blockchainActionId",
          "type": "bytes32"
        }
      ],
      "name": "getBlockchainActionIdData",
      "outputs": [
        {
          "name": "",
          "type": "bytes32"
        },
        {
          "name": "",
          "type": "uint256"
        },
        {
          "name": "",
          "type": "bytes32"
        },
        {
          "name": "",
          "type": "address"
        }
      ],
      "payable": false,
      "stateMutability": "view",
      "type": "function"
    },
    {
      "constant": false,
      "inputs": [
        {
          "name": "_blockchainActionId",
          "type": "bytes32"
        },
        {
          "name": "_providerUserId",
          "type": "bytes32"
        },
        {
          "name": "_invoiceCountryCode",
          "type": "bytes2"
        },
        {
          "name": "_invoiceCompanyNumber",
          "type": "bytes32"
        },
        {
          "name": "_invoiceCompanyName",
          "type": "bytes32"
        },
        {
          "name": "_invoiceNumber",
          "type": "bytes32"
        }
      ],
      "name": "addInvoice",
      "outputs": [],
      "payable": false,
      "stateMutability": "nonpayable",
      "type": "function"
    },
    {
      "constant": false,
      "inputs": [
        {
          "name": "_blockchainActionId",
          "type": "bytes32"
        },
        {
          "name": "pptAddress",
          "type": "address"
        },
        {
          "name": "accountId",
          "type": "bytes32"
        },
        {
          "name": "to",
          "type": "address"
        },
        {
          "name": "amount",
          "type": "uint256"
        },
        {
          "name": "currency",
          "type": "bytes32"
        },
        {
          "name": "inCollateral",
          "type": "uint256"
        },
        {
          "name": "pptFee",
          "type": "uint256"
        },
        {
          "name": "adminExternalWallet",
          "type": "address"
        }
      ],
      "name": "withdrawPoken",
      "outputs": [],
      "payable": false,
      "stateMutability": "nonpayable",
      "type": "function"
    },
    {
      "constant": true,
      "inputs": [
        {
          "name": "clientId",
          "type": "bytes32"
        }
      ],
      "name": "getDepositAddress",
      "outputs": [
        {
          "name": "",
          "type": "address"
        }
      ],
      "payable": false,
      "stateMutability": "view",
      "type": "function"
    },
    {
      "constant": false,
      "inputs": [
        {
          "name": "_blockchainActionId",
          "type": "bytes32"
        },
        {
          "name": "clientId",
          "type": "bytes32"
        }
      ],
      "name": "createAddress",
      "outputs": [],
      "payable": false,
      "stateMutability": "nonpayable",
      "type": "function"
    },
    {
      "constant": true,
      "inputs": [
        {
          "name": "_blockchainActionId",
          "type": "bytes32"
        }
      ],
      "name": "getBlockInvoiceId",
      "outputs": [
        {
          "name": "",
          "type": "bytes32"
        }
      ],
      "payable": false,
      "stateMutability": "view",
      "type": "function"
    },
    {
      "constant": true,
      "inputs": [
        {
          "name": "currency",
          "type": "address"
        }
      ],
      "name": "getCurrencySymbol",
      "outputs": [
        {
          "name": "",
          "type": "bytes32"
        }
      ],
      "payable": false,
      "stateMutability": "view",
      "type": "function"
    },
    {
      "constant": false,
      "inputs": [
        {
          "name": "_blockchainActionId",
          "type": "bytes32"
        },
        {
          "name": "_userId",
          "type": "bytes32"
        }
      ],
      "name": "enableProvider",
      "outputs": [],
      "payable": false,
      "stateMutability": "nonpayable",
      "type": "function"
    },
    {
      "constant": false,
      "inputs": [
        {
          "name": "_blockchainActionId",
          "type": "bytes32"
        },
        {
          "name": "_userId",
          "type": "bytes32"
        },
        {
          "name": "_companyNumber",
          "type": "bytes32"
        },
        {
          "name": "_companyName",
          "type": "bytes32"
        },
        {
          "name": "_countryCode",
          "type": "bytes2"
        }
      ],
      "name": "addProvider",
      "outputs": [],
      "payable": false,
      "stateMutability": "nonpayable",
      "type": "function"
    },
    {
      "constant": false,
      "inputs": [
        {
          "name": "_blockchainActionId",
          "type": "bytes32"
        },
        {
          "name": "_userId",
          "type": "bytes32"
        }
      ],
      "name": "disableProvider",
      "outputs": [],
      "payable": false,
      "stateMutability": "nonpayable",
      "type": "function"
    },
    {
      "constant": true,
      "inputs": [
        {
          "name": "_blockchainActionId",
          "type": "bytes32"
        }
      ],
      "name": "getActionStatus",
      "outputs": [
        {
          "name": "",
          "type": "bool"
        }
      ],
      "payable": false,
      "stateMutability": "view",
      "type": "function"
    },
    {
      "constant": false,
      "inputs": [
        {
          "name": "_blockchainActionId",
          "type": "bytes32"
        },
        {
          "name": "_tokenName",
          "type": "bytes32"
        },
        {
          "name": "_decimalUnits",
          "type": "uint8"
        },
        {
          "name": "_tokenSymbol",
          "type": "bytes32"
        }
      ],
      "name": "createCurrency",
      "outputs": [],
      "payable": false,
      "stateMutability": "nonpayable",
      "type": "function"
    },
    {
      "constant": false,
      "inputs": [
        {
          "name": "_blockchainActionId",
          "type": "bytes32"
        },
        {
          "name": "currency",
          "type": "bytes32"
        },
        {
          "name": "from",
          "type": "address"
        },
        {
          "name": "accountId",
          "type": "bytes32"
        }
      ],
      "name": "withdrawBank",
      "outputs": [],
      "payable": false,
      "stateMutability": "nonpayable",
      "type": "function"
    },
    {
      "constant": true,
      "inputs": [
        {
          "name": "currency",
          "type": "bytes32"
        }
      ],
      "name": "getCurrency",
      "outputs": [
        {
          "name": "",
          "type": "address"
        }
      ],
      "payable": false,
      "stateMutability": "view",
      "type": "function"
    },
    {
      "constant": false,
      "inputs": [
        {
          "name": "_blockchainActionId",
          "type": "bytes32"
        },
        {
          "name": "pptAddress",
          "type": "address"
        },
        {
          "name": "accountId",
          "type": "bytes32"
        },
        {
          "name": "to",
          "type": "address"
        },
        {
          "name": "amount",
          "type": "uint256"
        },
        {
          "name": "inCollateral",
          "type": "uint256"
        },
        {
          "name": "pptFee",
          "type": "uint256"
        },
        {
          "name": "adminExternalWallet",
          "type": "address"
        }
      ],
      "name": "withdrawERC20",
      "outputs": [],
      "payable": false,
      "stateMutability": "nonpayable",
      "type": "function"
    },
    {
      "constant": true,
      "inputs": [],
      "name": "AM",
      "outputs": [
        {
          "name": "",
          "type": "address"
        }
      ],
      "payable": false,
      "stateMutability": "view",
      "type": "function"
    },
    {
      "inputs": [
        {
          "name": "_accessManager",
          "type": "address"
        }
      ],
      "payable": false,
      "stateMutability": "nonpayable",
      "type": "constructor"
    },
    {
      "anonymous": false,
      "inputs": [
        {
          "indexed": false,
          "name": "blockchainActionId",
          "type": "bytes32"
        },
        {
          "indexed": false,
          "name": "invoiceId",
          "type": "bytes32"
        },
        {
          "indexed": false,
          "name": "sourceLength",
          "type": "uint256"
        }
      ],
      "name": "EventNewCrowdsaleBlock",
      "type": "event"
    },
    {
      "anonymous": false,
      "inputs": [
        {
          "indexed": false,
          "name": "invoiceId",
          "type": "bytes32"
        },
        {
          "indexed": false,
          "name": "sourceLength",
          "type": "uint256"
        }
      ],
      "name": "EventNewCrowdsaleSource",
      "type": "event"
    },
    {
      "anonymous": false,
      "inputs": [
        {
          "indexed": false,
          "name": "blockchainActionId",
          "type": "bytes32"
        },
        {
          "indexed": false,
          "name": "accountId",
          "type": "bytes32"
        },
        {
          "indexed": false,
          "name": "depositContract",
          "type": "address"
        },
        {
          "indexed": false,
          "name": "to",
          "type": "address"
        },
        {
          "indexed": false,
          "name": "amount",
          "type": "uint256"
        }
      ],
      "name": "EventWithdrawPPT",
      "type": "event"
    },
    {
      "anonymous": false,
      "inputs": [
        {
          "indexed": false,
          "name": "blockchainActionId",
          "type": "bytes32"
        },
        {
          "indexed": false,
          "name": "accountId",
          "type": "bytes32"
        },
        {
          "indexed": false,
          "name": "to",
          "type": "address"
        },
        {
          "indexed": false,
          "name": "amount",
          "type": "uint256"
        },
        {
          "indexed": false,
          "name": "currency",
          "type": "bytes32"
        }
      ],
      "name": "EventWithdrawPokens",
      "type": "event"
    },
    {
      "anonymous": false,
      "inputs": [
        {
          "indexed": false,
          "name": "blockchainActionId",
          "type": "bytes32"
        },
        {
          "indexed": false,
          "name": "from",
          "type": "address"
        },
        {
          "indexed": false,
          "name": "accountId",
          "type": "bytes32"
        },
        {
          "indexed": false,
          "name": "currency",
          "type": "bytes32"
        },
        {
          "indexed": false,
          "name": "balance",
          "type": "uint256"
        }
      ],
      "name": "EventWithdrawBank",
      "type": "event"
    },
    {
      "anonymous": false,
      "inputs": [
        {
          "indexed": false,
          "name": "blockchainActionId",
          "type": "bytes32"
        },
        {
          "indexed": false,
          "name": "tokenName",
          "type": "bytes32"
        },
        {
          "indexed": false,
          "name": "decimalUnits",
          "type": "uint8"
        },
        {
          "indexed": false,
          "name": "tokenSymbol",
          "type": "bytes32"
        },
        {
          "indexed": false,
          "name": "addr",
          "type": "address"
        }
      ],
      "name": "EventNewCurrency",
      "type": "event"
    },
    {
      "anonymous": false,
      "inputs": [
        {
          "indexed": false,
          "name": "blockchainActionId",
          "type": "bytes32"
        },
        {
          "indexed": false,
          "name": "clientId",
          "type": "bytes32"
        },
        {
          "indexed": false,
          "name": "depositContractAddress",
          "type": "address"
        }
      ],
      "name": "EventNewDepositContract",
      "type": "event"
    },
    {
      "anonymous": false,
      "inputs": [
        {
          "indexed": false,
          "name": "_blockchainActionId",
          "type": "bytes32"
        },
        {
          "indexed": false,
          "name": "_userId",
          "type": "bytes32"
        },
        {
          "indexed": false,
          "name": "_companyName",
          "type": "bytes32"
        },
        {
          "indexed": false,
          "name": "_companyNumber",
          "type": "bytes32"
        },
        {
          "indexed": false,
          "name": "countryCode",
          "type": "bytes2"
        }
      ],
      "name": "EventNewProvider",
      "type": "event"
    },
    {
      "anonymous": false,
      "inputs": [
        {
          "indexed": false,
          "name": "_blockchainActionId",
          "type": "bytes32"
        },
        {
          "indexed": false,
          "name": "_providerUserId",
          "type": "bytes32"
        },
        {
          "indexed": false,
          "name": "invoiceCountryCode",
          "type": "bytes"
        },
        {
          "indexed": false,
          "name": "invoiceCompanyNumber",
          "type": "bytes"
        },
        {
          "indexed": false,
          "name": "invoiceCompanyName",
          "type": "bytes"
        },
        {
          "indexed": false,
          "name": "invoiceNumber",
          "type": "bytes"
        }
      ],
      "name": "EventNewInvoice",
      "type": "event"
    },
    {
      "anonymous": false,
      "inputs": [
        {
          "indexed": false,
          "name": "_blockchainActionId",
          "type": "bytes32"
        },
        {
          "indexed": false,
          "name": "_userId",
          "type": "bytes32"
        },
        {
          "indexed": false,
          "name": "response",
          "type": "string"
        }
      ],
      "name": "EventProviderEnabled",
      "type": "event"
    },
    {
      "anonymous": false,
      "inputs": [
        {
          "indexed": false,
          "name": "_blockchainActionId",
          "type": "bytes32"
        },
        {
          "indexed": false,
          "name": "_userId",
          "type": "bytes32"
        },
        {
          "indexed": false,
          "name": "response",
          "type": "string"
        }
      ],
      "name": "EventProviderDisabled",
      "type": "event"
    }
  ],
  "bytecode": "0x6060604052341561000f57600080fd5b60405160208061327b8339810160405280805160008054600160a060020a03909216600160a060020a03199092169190911790555050613227806100546000396000f300606060405236156100d55763ffffffff60e060020a60003504166302ab72c481146100da578063120ab58c146100fb578063150b1c6e146101455780631c8059f71461018c5780632a01a451146101cf5780633b6d6387146102015780634910784b1461021a578063554c9b6a146102425780637cfd3a8214610261578063859d129f1461027a578063a37aa1fc146102be578063bea0897c146102d7578063c80e7ee814610301578063ce8a3b7414610323578063d383b80d1461034b578063e388c34414610361578063f7f01b4b1461039f575b600080fd5b34156100e557600080fd5b6100f9600160a060020a03600435166103b2565b005b341561010657600080fd5b610111600435610458565b6040519384526020840192909252604080840191909152600160a060020a0390911660608301526080909101905180910390f35b341561015057600080fd5b6100f96004356024357fffff0000000000000000000000000000000000000000000000000000000000006044351660643560843560a4356104b3565b341561019757600080fd5b6100f9600435600160a060020a03602435811690604435906064358116906084359060a4359060c4359060e435906101043516610b05565b34156101da57600080fd5b6101e5600435610f3b565b604051600160a060020a03909116815260200160405180910390f35b341561020c57600080fd5b6100f9600435602435610f59565b341561022557600080fd5b61023060043561111b565b60405190815260200160405180910390f35b341561024d57600080fd5b610230600160a060020a0360043516611148565b341561026c57600080fd5b6100f9600435602435611163565b341561028557600080fd5b6100f96004356024356044356064357fffff000000000000000000000000000000000000000000000000000000000000608435166112bd565b34156102c957600080fd5b6100f9600435602435611475565b34156102e257600080fd5b6102ed6004356115d3565b604051901515815260200160405180910390f35b341561030c57600080fd5b6100f960043560243560ff604435166064356115e8565b341561032e57600080fd5b6100f9600435602435600160a060020a0360443516606435611814565b341561035657600080fd5b6101e5600435611acc565b341561036c57600080fd5b6100f9600435600160a060020a03602435811690604435906064358116906084359060a4359060c4359060e43516611ae7565b34156103aa57600080fd5b6101e5611e56565b60008054600160a060020a03169063fda089589033906040516020015260405160e060020a63ffffffff8416028152600160a060020a039091166004820152602401602060405180830381600087803b151561040d57600080fd5b6102c65a03f1151561041e57600080fd5b50505060405180511515600114905061043657600080fd5b60008054600160a060020a031916600160a060020a0392909216919091179055565b60008181526003602052604081205481908190819060ff16151560011461047e57600080fd5b5050506000918252506004602052604090208054600182015460028301546003909301549193909291600160a060020a031690565b6104bb612124565b6104c3612124565b6104cb612124565b6104d3612124565b60008a81526003602052604090205460ff16156104ef57600080fd5b60008981526007602052604090205460ff16151560011461050f57600080fd5b61052061051b89611e65565b611ee9565b935061052e61051b88611f59565b925061053c61051b87611f59565b915061054a61051b86611f59565b90506008846040518082805190602001908083835b6020831061057e5780518252601f19909201916020918201910161055f565b6001836020036101000a0380198251168184511680821785525050505050509050019150509081526020016040518091039020836040518082805190602001908083835b602083106105e15780518252601f1990920191602091820191016105c2565b6001836020036101000a0380198251168184511680821785525050505050509050019150509081526020016040518091039020816040518082805190602001908083835b602083106106445780518252601f199092019160209182019101610625565b6001836020036101000a038019825116818451168082178552505050505050905001915050908152602001604051908190039020541561068357600080fd5b886008856040518082805190602001908083835b602083106106b65780518252601f199092019160209182019101610697565b6001836020036101000a0380198251168184511680821785525050505050509050019150509081526020016040518091039020846040518082805190602001908083835b602083106107195780518252601f1990920191602091820191016106fa565b6001836020036101000a0380198251168184511680821785525050505050509050019150509081526020016040518091039020826040518082805190602001908083835b6020831061077c5780518252601f19909201916020918201910161075d565b6001836020036101000a03801982511681845116808217855250505050505090500191505090815260200160405190819003902055856008856040518082805190602001908083835b602083106107e45780518252601f1990920191602091820191016107c5565b6001836020036101000a0380198251168184511680821785525050505050509050019150509081526020016040518091039020846040518082805190602001908083835b602083106108475780518252601f199092019160209182019101610828565b6001836020036101000a0380198251168184511680821785525050505050509050019150509081526020016040518091039020826040518082805190602001908083835b602083106108aa5780518252601f19909201916020918201910161088b565b6001836020036101000a03801982511681845116808217855250505050505090500191505090815260200160405190819003902060019081019190915560008b8152600360205260408120805460ff191690921790915561090f908b90808c81611fd6565b7fb1dc09832f221c136d6dc5db2b69d01ffd68850640af9133ab81df4e4823328a8a8a868686866040518681526020810186905260c060408201818152906060830190608084019060a0850190850189818151815260200191508051906020019080838360005b8381101561098e578082015183820152602001610976565b50505050905090810190601f1680156109bb5780820380516001836020036101000a031916815260200191505b50858103845288818151815260200191508051906020019080838360005b838110156109f15780820151838201526020016109d9565b50505050905090810190601f168015610a1e5780820380516001836020036101000a031916815260200191505b50858103835287818151815260200191508051906020019080838360005b83811015610a54578082015183820152602001610a3c565b50505050905090810190601f168015610a815780820380516001836020036101000a031916815260200191505b50858103825286818151815260200191508051906020019080838360005b83811015610ab7578082015183820152602001610a9f565b50505050905090810190601f168015610ae45780820380516001836020036101000a031916815260200191505b509a505050505050505050505060405180910390a150505050505050505050565b6000805481908190600160a060020a031663fda0895833836040516020015260405160e060020a63ffffffff8416028152600160a060020a039091166004820152602401602060405180830381600087803b1515610b6257600080fd5b6102c65a03f11515610b7357600080fd5b505050604051805115156001149050610b8b57600080fd5b60008c81526003602052604090205460ff1615610ba757600080fd5b600087815260016020526040902054600160a060020a03161515610bca57600080fd5b600160a060020a03841615801590610be25750600085115b8015610bee5750600088115b1515610bf957600080fd5b610c028a610f3b565b9250610c7f83600160a060020a03166370a082318d60006040516020015260405160e060020a63ffffffff8416028152600160a060020a039091166004820152602401602060405180830381600087803b1515610c5e57600080fd5b6102c65a03f11515610c6f57600080fd5b5050506040518051905087612037565b9150610c8b8886612049565b8210158015610d20575082600160a060020a031663beabacc88c8b8b60006040516020015260405160e060020a63ffffffff8616028152600160a060020a0393841660048201529190921660248201526044810191909152606401602060405180830381600087803b1515610cff57600080fd5b6102c65a03f11515610d1057600080fd5b5050506040518051151560011490505b8015610db2575082600160a060020a031663beabacc88c868860006040516020015260405160e060020a63ffffffff8616028152600160a060020a0393841660048201529190921660248201526044810191909152606401602060405180830381600087803b1515610d9157600080fd5b6102c65a03f11515610da257600080fd5b5050506040518051151560011490505b1515610dbd57600080fd5b506000868152600160205260409081902054600160a060020a03169081906397304ced908a905160e060020a63ffffffff84160281526004810191909152602401600060405180830381600087803b1515610e1757600080fd5b6102c65a03f11515610e2857600080fd5b50505080600160a060020a031663a9059cbb8a8a60006040516020015260405160e060020a63ffffffff8516028152600160a060020a0390921660048301526024820152604401602060405180830381600087803b1515610e8857600080fd5b6102c65a03f11515610e9957600080fd5b5050506040518051505060008c8152600360205260409020805460ff19166001179055610ec98c888a8d8d611fd6565b7f648ca77b0808ef59be9348821ab5e09b2c80035dc2b94ff8edfdf76ca16be87e8c8b8b8b8b6040519485526020850193909352600160a060020a039091166040808501919091526060840191909152608083019190915260a0909101905180910390a1505050505050505050505050565b600081815260056020526040902054600160a060020a03165b919050565b60008054600160a060020a03169063fda089589033906040516020015260405160e060020a63ffffffff8416028152600160a060020a039091166004820152602401602060405180830381600087803b1515610fb457600080fd5b6102c65a03f11515610fc557600080fd5b505050604051805115156001149050610fdd57600080fd5b60008281526003602052604090205460ff1615610ff957600080fd5b6000548190600160a060020a031661100f612136565b918252600160a060020a0316602082015260409081019051809103906000f080151561103a57600080fd5b60008281526005602052604090208054600160a060020a031916600160a060020a03928316179081905516151561106d57fe5b6000828152600360208181526040808420805460ff1916600117905560048252808420600281018690558585526005909252928390208054919092018054600160a060020a031916600160a060020a0392831617905590547fb6e4c061023577b7e47ffdc4a06fbdb30a157c488fdd58e1735c32b6d8b33cb292859285921690519283526020830191909152600160a060020a03166040808301919091526060909101905180910390a15050565b600081815260066020526040812054151561113557600080fd5b5060009081526006602052604090205490565b600160a060020a031660009081526002602052604090205490565b60008054600160a060020a03169063fda089589033906040516020015260405160e060020a63ffffffff8416028152600160a060020a039091166004820152602401602060405180830381600087803b15156111be57600080fd5b6102c65a03f115156111cf57600080fd5b5050506040518051151560011490506111e757600080fd5b60008281526003602052604090205460ff161561120357600080fd5b60008181526007602052604090205460ff161561121f57600080fd5b6000828152600360205260408120805460ff19166001179055611246908390808481611fd6565b7fc10ccc02034124a1f273dc3f5de1f687672b01b67fc6cdbf782e9e380c0de9aa82826040519182526020820152606060408083018290526007918301919091527f656e61626c656400000000000000000000000000000000000000000000000000608083015260a0909101905180910390a15050565b60008054600160a060020a03169063fda089589033906040516020015260405160e060020a63ffffffff8416028152600160a060020a039091166004820152602401602060405180830381600087803b151561131857600080fd5b6102c65a03f1151561132957600080fd5b50505060405180511515600114905061134157600080fd5b60008581526003602052604090205460ff161561135d57600080fd5b6000848152600760205260409020600101541561137957600080fd5b60008481526007602090815260408083206003808201805461ffff19167e010000000000000000000000000000000000000000000000000000000000008804179055600282018790556001808301899055825460ff1990811682179093558a86529352908320805490911690911790556113f7908690808781611fd6565b7f715169d37d48828f31a81b71e5da2d5934b107791a77894e3bce33b5d59e0fd68585848685604051948552602085019390935260408085019290925260608401527fffff000000000000000000000000000000000000000000000000000000000000909116608083015260a0909101905180910390a15050505050565b60008054600160a060020a03169063fda089589033906040516020015260405160e060020a63ffffffff8416028152600160a060020a039091166004820152602401602060405180830381600087803b15156114d057600080fd5b6102c65a03f115156114e157600080fd5b5050506040518051151560011490506114f957600080fd5b60008281526003602052604090205460ff161561151557600080fd5b60008181526007602052604090205460ff16151560011461153557600080fd5b6000828152600360205260408120805460ff1916600117905561155c908390808481611fd6565b7fa65a88b6693db54157f5a567780c12ae17644595de02f279fdf2ee1cbbc46f3782826040519182526020820152606060408083018290526008918301919091527f64697361626c6564000000000000000000000000000000000000000000000000608083015260a0909101905180910390a15050565b60009081526003602052604090205460ff1690565b60008054600160a060020a03169063fda089589033906040516020015260405160e060020a63ffffffff8416028152600160a060020a039091166004820152602401602060405180830381600087803b151561164357600080fd5b6102c65a03f1151561165457600080fd5b50505060405180511515600114905061166c57600080fd5b60008481526003602052604090205460ff161561168857600080fd5b600081815260016020526040902054600160a060020a0316156116aa57600080fd5b600054600160a060020a03168383836116c1612146565b600160a060020a039094168452602084019290925260ff16604080840191909152606083019190915260809091019051809103906000f080151561170457600080fd5b60008281526001602052604090208054600160a060020a031916600160a060020a03928316179081905516151561173757fe5b60008181526001602081815260408084208054600160a060020a039081168652600284528286208790558986526003808552838720805460ff19168717905560048552838720888155835491018054600160a060020a031916918316919091179055948690529290915290547f6f9a94a4b659b99ce71e6f2eaa4b609443bd0350f9e1f7b2d566815cb90f0e9692879287928792879291169051948552602085019390935260ff9091166040808501919091526060840191909152600160a060020a03909116608083015260a0909101905180910390a150505050565b600080548190600160a060020a031663fda0895833836040516020015260405160e060020a63ffffffff8416028152600160a060020a039091166004820152602401602060405180830381600087803b151561186f57600080fd5b6102c65a03f1151561188057600080fd5b50505060405180511515600114905061189857600080fd5b60008681526003602052604090205460ff16156118b457600080fd5b60008581526001602052604080822054600160a060020a0316935083916370a0823191879190516020015260405160e060020a63ffffffff8416028152600160a060020a039091166004820152602401602060405180830381600087803b151561191d57600080fd5b6102c65a03f1151561192e57600080fd5b505050604051805190509050600082600160a060020a03166370a082318660006040516020015260405160e060020a63ffffffff8416028152600160a060020a039091166004820152602401602060405180830381600087803b151561199357600080fd5b6102c65a03f115156119a457600080fd5b50505060405180519050118015611a35575081600160a060020a0316630156b323828660006040516020015260405160e060020a63ffffffff85160281526004810192909252600160a060020a03166024820152604401602060405180830381600087803b1515611a1457600080fd5b6102c65a03f11515611a2557600080fd5b5050506040518051151560011490505b1515611a4057600080fd5b6000868152600360205260409020805460ff19166001179055611a668686838688611fd6565b7f31bc7c632f756929225b06931e9df604bbfdb1271aa60785c5b025a04e39f3fd8685858885604051948552600160a060020a0390931660208501526040808501929092526060840152608083019190915260a0909101905180910390a1505050505050565b600090815260016020526040902054600160a060020a031690565b6000805481908190600160a060020a031663fda0895833836040516020015260405160e060020a63ffffffff8416028152600160a060020a039091166004820152602401602060405180830381600087803b1515611b4457600080fd5b6102c65a03f11515611b5557600080fd5b505050604051805115156001149050611b6d57600080fd5b60008b81526003602052604090205460ff1615611b8957600080fd5b600160a060020a03841615801590611ba15750600085115b8015611bad5750600087115b1515611bb857600080fd5b611bc189610f3b565b9250611c1d83600160a060020a03166370a082318c60006040516020015260405160e060020a63ffffffff8416028152600160a060020a039091166004820152602401602060405180830381600087803b1515610c5e57600080fd5b9150611c298786612049565b8210158015611cbe575082600160a060020a031663beabacc88b8a8a60006040516020015260405160e060020a63ffffffff8616028152600160a060020a0393841660048201529190921660248201526044810191909152606401602060405180830381600087803b1515611c9d57600080fd5b6102c65a03f11515611cae57600080fd5b5050506040518051151560011490505b8015611d50575082600160a060020a031663beabacc88b868860006040516020015260405160e060020a63ffffffff8616028152600160a060020a0393841660048201529190921660248201526044810191909152606401602060405180830381600087803b1515611d2f57600080fd5b6102c65a03f11515611d4057600080fd5b5050506040518051151560011490505b1515611d5b57600080fd5b5060008a815260036020526040808220805460ff191660011790558a91611de6918d91600160a060020a038516916395d89b41919051602001526040518163ffffffff1660e060020a028152600401602060405180830381600087803b1515611dc357600080fd5b6102c65a03f11515611dd457600080fd5b50505060405180519050898c8c611fd6565b7fb34e83f654f4c047e331cea47cc1783dd0511abde3cac240a47bfbdefd6812e88b8a858b8b6040519485526020850193909352600160a060020a0391821660408086019190915291166060840152608083019190915260a0909101905180910390a15050505050505050505050565b600054600160a060020a031681565b611e6d612124565b611e75612124565b60006002604051805910611e865750595b908082528060200260200182016040525091505b6002811015611ee257838160028110611eaf57fe5b1a60f860020a02828281518110611ec257fe5b906020010190600160f860020a031916908160001a905350600101611e9a565b5092915050565b611ef1612124565b611ef9612124565b508160005b8151811015611ee257611f2d828281518110611f1657fe5b016020015160f860020a900460f860020a0261206d565b828281518110611f3957fe5b906020010190600160f860020a031916908160001a905350600101611efe565b611f61612124565b611f69612124565b60006020604051805910611f7a5750595b908082528060200260200182016040525091505b6020811015611ee257838160208110611fa357fe5b1a60f860020a02828281518110611fb657fe5b906020010190600160f860020a031916908160001a905350600101611f8e565b60008581526003602052604090205460ff161515600114611ff657600080fd5b600094855260046020526040909420928355600183019190915560028201556003018054600160a060020a031916600160a060020a03909216919091179055565b60008282111561204357fe5b50900390565b600082820183811080159061205e5750828110155b151561206657fe5b9392505050565b60007f41000000000000000000000000000000000000000000000000000000000000007fff0000000000000000000000000000000000000000000000000000000000000083161080159061210357507f5a000000000000000000000000000000000000000000000000000000000000007fff00000000000000000000000000000000000000000000000000000000000000831611155b15612120578160f860020a900460200160f860020a029050610f54565b5090565b60206040519081016040526000815290565b60405161044b8061215783390190565b604051610c5a806125a28339019056006060604052341561000f57600080fd5b60405160408061044b833981016040528080519190602001805160008054600160a060020a03909216600160a060020a031990921691909117905550506001556103ed8061005e6000396000f300606060405263ffffffff60e060020a60003504166302ab72c4811461004457806370a0823114610065578063beabacc814610096578063f7f01b4b146100d257600080fd5b341561004f57600080fd5b610063600160a060020a0360043516610101565b005b341561007057600080fd5b610084600160a060020a03600435166101b4565b60405190815260200160405180910390f35b34156100a157600080fd5b6100be600160a060020a036004358116906024351660443561022d565b604051901515815260200160405180910390f35b34156100dd57600080fd5b6100e56103b2565b604051600160a060020a03909116815260200160405180910390f35b60008054600160a060020a03169063fda089589033906040516020015260405160e060020a63ffffffff8416028152600160a060020a039091166004820152602401602060405180830381600087803b151561015c57600080fd5b6102c65a03f1151561016d57600080fd5b50505060405180511515600114905061018557600080fd5b6000805473ffffffffffffffffffffffffffffffffffffffff1916600160a060020a0392909216919091179055565b600081600160a060020a03166370a082313060006040516020015260405160e060020a63ffffffff8416028152600160a060020a039091166004820152602401602060405180830381600087803b151561020d57600080fd5b6102c65a03f1151561021e57600080fd5b50505060405180519392505050565b60008054600160a060020a031663fda0895833836040516020015260405160e060020a63ffffffff8416028152600160a060020a039091166004820152602401602060405180830381600087803b151561028657600080fd5b6102c65a03f1151561029757600080fd5b50505060405180511515600114905080610328575060008054600160a060020a0316906305fd22d09033906040516020015260405160e060020a63ffffffff8416028152600160a060020a039091166004820152602401602060405180830381600087803b151561030757600080fd5b6102c65a03f1151561031857600080fd5b5050506040518051151560011490505b151561033357600080fd5b83600160a060020a031663a9059cbb848460006040516020015260405160e060020a63ffffffff8516028152600160a060020a0390921660048301526024820152604401602060405180830381600087803b151561039057600080fd5b6102c65a03f115156103a157600080fd5b505050604051805195945050505050565b600054600160a060020a0316815600a165627a7a72305820aa6b00f4bb58e86009b6b26aa3b35733ea3d9e8b343423b70006bf2958ef9a310029606060405260008055341561001357600080fd5b604051608080610c5a8339810160405280805191906020018051919060200180519190602001805160068054600160a060020a031916600160a060020a03979097169690961790955550506001919091556002805460ff191660ff909216919091179055600355610bd1806100896000396000f300606060405236156100ca5763ffffffff60e060020a6000350416630156b32381146100cf57806302ab72c41461010557806306fdde0314610126578063095ea7b31461014b57806318160ddd1461016d57806323b872dd1461018057806327e235e3146101a8578063313ce567146101c75780635c658165146101f057806367fbd2891461021557806370a082311461022b57806395d89b411461024a57806397304ced1461025d578063a9059cbb14610273578063dd62ed3e14610295578063f7f01b4b146102ba575b600080fd5b34156100da57600080fd5b6100f1600435600160a060020a03602435166102e9565b604051901515815260200160405180910390f35b341561011057600080fd5b610124600160a060020a03600435166103ed565b005b341561013157600080fd5b61013961049e565b60405190815260200160405180910390f35b341561015657600080fd5b6100f1600160a060020a03600435166024356104a4565b341561017857600080fd5b610139610510565b341561018b57600080fd5b6100f1600160a060020a0360043581169060243516604435610516565b34156101b357600080fd5b610139600160a060020a036004351661061c565b34156101d257600080fd5b6101da61062e565b60405160ff909116815260200160405180910390f35b34156101fb57600080fd5b610139600160a060020a0360043581169060243516610637565b341561022057600080fd5b6100f1600435610654565b341561023657600080fd5b610139600160a060020a0360043516610898565b341561025557600080fd5b6101396108b3565b341561026857600080fd5b6101246004356108b9565b341561027e57600080fd5b6100f1600160a060020a0360043516602435610aa1565b34156102a057600080fd5b610139600160a060020a0360043581169060243516610b35565b34156102c557600080fd5b6102cd610b60565b604051600160a060020a03909116815260200160405180910390f35b600654600090600160a060020a03166305fd22d033836040516020015260405160e060020a63ffffffff8416028152600160a060020a039091166004820152602401602060405180830381600087803b151561034457600080fd5b6102c65a03f1151561035557600080fd5b50505060405180511515600114905061036d57600080fd5b600160a060020a03821660009081526004602052604090205483901015610396575060006103e7565b600160a060020a0382166000908152600460205260409020546103b99084610b6f565b600160a060020a038316600090815260046020526040812091909155546103e09084610b6f565b6000555060015b92915050565b600654600160a060020a031663fda089583360006040516020015260405160e060020a63ffffffff8416028152600160a060020a039091166004820152602401602060405180830381600087803b151561044657600080fd5b6102c65a03f1151561045757600080fd5b50505060405180511515600114905061046f57600080fd5b6006805473ffffffffffffffffffffffffffffffffffffffff1916600160a060020a0392909216919091179055565b60015481565b600160a060020a03338116600081815260056020908152604080832094871680845294909152808220859055909291907f8c5be1e5ebec7d5bd14f71427d1e84f3dd0314c0f7b2291e5b200ac8c7c3b9259085905190815260200160405180910390a350600192915050565b60005481565b600160a060020a03808416600081815260056020908152604080832033909516835293815283822054928252600490529182205483901080159061055a5750828110155b151561056557600080fd5b600160a060020a03808516600090815260046020526040808220805487019055918716815220805484900390556000198110156105ca57600160a060020a03808616600090815260056020908152604080832033909416835292905220805484900390555b83600160a060020a031685600160a060020a03167fddf252ad1be2c89b69c2b068fc378daa952ba7f163c4a11628f55a4df523b3ef8560405190815260200160405180910390a3506001949350505050565b60046020526000908152604090205481565b60025460ff1681565b600560209081526000928352604080842090915290825290205481565b600654600090600160a060020a03166305fd22d033836040516020015260405160e060020a63ffffffff8416028152600160a060020a039091166004820152602401602060405180830381600087803b15156106af57600080fd5b6102c65a03f115156106c057600080fd5b5050506040518051151560011490506106d857600080fd5b6006548290600490600090600160a060020a03166394a3760f82604051602001526040518163ffffffff1660e060020a028152600401602060405180830381600087803b151561072757600080fd5b6102c65a03f1151561073857600080fd5b5050506040518051600160a060020a0316825250602081019190915260400160002054101561076957506000610893565b6006546107f490600490600090600160a060020a03166394a3760f82604051602001526040518163ffffffff1660e060020a028152600401602060405180830381600087803b15156107ba57600080fd5b6102c65a03f115156107cb57600080fd5b5050506040518051600160a060020a031682525060208101919091526040016000205483610b6f565b600654600490600090600160a060020a03166394a3760f82604051602001526040518163ffffffff1660e060020a028152600401602060405180830381600087803b151561084157600080fd5b6102c65a03f1151561085257600080fd5b50505060405180519050600160a060020a0316600160a060020a031681526020019081526020016000208190555061088c60005483610b6f565b6000555060015b919050565b600160a060020a031660009081526004602052604090205490565b60035481565b600654600160a060020a03166305fd22d03360006040516020015260405160e060020a63ffffffff8416028152600160a060020a039091166004820152602401602060405180830381600087803b151561091257600080fd5b6102c65a03f1151561092357600080fd5b50505060405180511515600114905061093b57600080fd5b6006546109c690600490600090600160a060020a03166394a3760f82604051602001526040518163ffffffff1660e060020a028152600401602060405180830381600087803b151561098c57600080fd5b6102c65a03f1151561099d57600080fd5b5050506040518051600160a060020a031682525060208101919091526040016000205482610b81565b600654600490600090600160a060020a03166394a3760f82604051602001526040518163ffffffff1660e060020a028152600401602060405180830381600087803b1515610a1357600080fd5b6102c65a03f11515610a2457600080fd5b50505060405180519050600160a060020a0316600160a060020a0316815260200190815260200160002081905550610a5e60005482610b81565b6000556003547fb83a9cb495aa43a9871c87805ab90712a5f703de6d66d16b96d7afcc91bb3299908260405191825260208201526040908101905180910390a150565b600160a060020a03331660009081526004602052604081205482901015610ac757600080fd5b600160a060020a033381166000818152600460205260408082208054879003905592861680825290839020805486019055917fddf252ad1be2c89b69c2b068fc378daa952ba7f163c4a11628f55a4df523b3ef9085905190815260200160405180910390a350600192915050565b600160a060020a03918216600090815260056020908152604080832093909416825291909152205490565b600654600160a060020a031681565b600082821115610b7b57fe5b50900390565b6000828201838110801590610b965750828110155b1515610b9e57fe5b93925050505600a165627a7a72305820b32c7e80703c5c8642c1958efabfef8fd63761da726c5cd3a31a8ca41d9d10c20029a165627a7a7230582033b52859ead647131edec926d086fa677db5e4b412bb37a9c365cc8ecfa4244b0029",
  "source": "pragma solidity ^0.4.17;\n\n/**\nThis is the core module of the system. Currently it holds the code of\nthe Bank and crowdsale modules to avoid external calls and higher gas costs.\nIt might be a good idea in the future to split the code, separate Bank\nand crowdsale modules into external files and have the core interact with them\nwith addresses and interfaces. \n*/\n\nimport \"./iERC20Token.sol\";\nimport \"./CurrencyToken.sol\";\nimport \"./DepositContract.sol\";\nimport \"./SafeMath.sol\";\nimport \"./Utils.sol\";\n\n/// @title Populous contract\ncontract Populous is withAccessManager {\n\n    // EVENTS\n    event EventNewCrowdsaleBlock(bytes32 blockchainActionId, bytes32 invoiceId, uint sourceLength);\n    event EventNewCrowdsaleSource(bytes32 invoiceId, uint sourceLength);\n    // Bank events\n    event EventWithdrawPPT(bytes32 blockchainActionId, bytes32 accountId, address depositContract, address to, uint amount);\n    event EventWithdrawPokens(bytes32 blockchainActionId, bytes32 accountId, address to, uint amount, bytes32 currency);\n    event EventWithdrawBank(bytes32 blockchainActionId, address from, bytes32 accountId, bytes32 currency, uint balance);\n    event EventNewCurrency(bytes32 blockchainActionId, bytes32 tokenName, uint8 decimalUnits, bytes32 tokenSymbol, address addr);\n    event EventNewDepositContract(bytes32 blockchainActionId, bytes32 clientId, address depositContractAddress);\n    event EventNewProvider(bytes32 _blockchainActionId, bytes32 _userId, bytes32 _companyName, bytes32 _companyNumber, bytes2 countryCode);\n    event EventNewInvoice(bytes32 _blockchainActionId, bytes32 _providerUserId, bytes invoiceCountryCode, bytes invoiceCompanyNumber, bytes invoiceCompanyName, bytes invoiceNumber);\n    event EventProviderEnabled(bytes32 _blockchainActionId, bytes32 _userId, string response);\n    event EventProviderDisabled(bytes32 _blockchainActionId, bytes32 _userId, string response);\n    \n    // FIELDS\n    // currency symbol => currency erc20 contract address\n    mapping(bytes32 => address) currencies;\n    // currency address => currency symbol\n    mapping(address => bytes32) currenciesSymbols;\n    // blockchainActionId => boolean \n    mapping(bytes32 => bool) actionStatus;\n    // blockchainActionData\n    struct actionData {\n        bytes32 currency;\n        uint amount;\n        bytes32 accountId;\n        address to;\n    }\n    // blockchainActionId => actionData\n    mapping(bytes32 => actionData) blockchainActionIdData;\n\n    // This variable will be used to keep track of client IDs and\n    // their deposit addresses\n    // clientId => depositAddress\n    mapping(bytes32 => address) depositAddress;\n\n    //actionId => invoiceId\n    mapping(bytes32 => bytes32) actionIdToInvoiceId;\n    // invoice provider company data\n    struct providerCompany {\n        bool isEnabled;\n        bytes32 companyNumber;\n        bytes32 companyName;\n        bytes2 countryCode;\n    }\n    // providedId => providerCompany\n    mapping(bytes32 => providerCompany) providerCompanyData;\n    // crowdsale invoiceDetails\n    struct _invoiceDetails {\n        bytes2 invoiceCountryCode;\n        bytes32 invoiceCompanyNumber;\n        bytes32 invoiceCompanyName;\n        bytes32 invoiceNumber;\n    }\n    // crowdsale invoiceData\n    struct invoiceData {\n        bytes32 providerUserId;\n        bytes32 invoiceCompanyName;\n    }\n\n    // country code => company number => invoice number => invoice data\n    mapping(bytes => mapping(bytes => mapping(bytes => invoiceData))) invoices;\n\n    // NON-CONSTANT METHODS\n    // Constructor method called when contract instance is \n    // deployed with 'withAccessManager' modifier.\n    function Populous(address _accessManager) public withAccessManager(_accessManager) { }\n    /**\n    BANK MODULE\n    */\n\n\n    // NON-CONSTANT METHODS\n    \n    /** @dev Creates a new 'depositAddress' gotten from deploying a deposit contract linked to a client ID\n      * @param clientId The bytes32 client ID\n      * @return address The address of the deployed deposit contract instance.\n      */\n    function createAddress(bytes32 _blockchainActionId, bytes32 clientId) public\n        onlyServer\n    {\n        require(actionStatus[_blockchainActionId] == false);\n        depositAddress[clientId] = new DepositContract(clientId, AM);\n        assert(depositAddress[clientId] != 0x0);\n        actionStatus[_blockchainActionId] = true;\n        blockchainActionIdData[_blockchainActionId].accountId = clientId;\n        blockchainActionIdData[_blockchainActionId].to = depositAddress[clientId];\n        EventNewDepositContract(_blockchainActionId, clientId, depositAddress[clientId]);\n    }\n\n    /** @dev Creates a new token/currency.\n      * @param _tokenName  The name of the currency.\n      * @param _decimalUnits The number of decimals the currency has.\n      * @param _tokenSymbol The cyrrency symbol, e.g., GBP\n      */\n    function createCurrency(\n        bytes32 _blockchainActionId, bytes32 _tokenName, uint8 _decimalUnits, \n        bytes32 _tokenSymbol)\n        public\n        onlyServer\n    {   \n        require(actionStatus[_blockchainActionId] == false);\n        // Check if currency already exists\n        require(currencies[_tokenSymbol] == 0x0);\n        currencies[_tokenSymbol] = new CurrencyToken(address(AM), _tokenName, _decimalUnits, _tokenSymbol);\n        assert(currencies[_tokenSymbol] != 0x0);\n        currenciesSymbols[currencies[_tokenSymbol]] = _tokenSymbol;\n        actionStatus[_blockchainActionId] = true;\n        blockchainActionIdData[_blockchainActionId].currency = _tokenSymbol;\n        blockchainActionIdData[_blockchainActionId].to = currencies[_tokenSymbol];\n\n        EventNewCurrency(_blockchainActionId, _tokenName, _decimalUnits, _tokenSymbol, currencies[_tokenSymbol]);\n    }\n\n    /** @dev Withdraw an amount of PPT Populous tokens to a blockchain address \n      * @param _blockchainActionId the blockchain action id\n      * @param pptAddress the address of the PPT smart contract\n      * @param accountId the account id of the client\n      * @param pptFee the amount of fees to pay in PPT tokens\n      * @param adminExternalWallet the platform admin wallet address to pay the fees to \n      * @param to the blockchain address to withdraw and transfer the pokens to\n      * @param inCollateral the amount of pokens withheld by the platform\n      */    \n    function withdrawERC20(\n        bytes32 _blockchainActionId, address pptAddress, bytes32 accountId, \n        address to, uint amount, uint inCollateral, uint pptFee, address adminExternalWallet) \n        public \n        onlyServer \n    {\n        require(actionStatus[_blockchainActionId] == false);\n        require(adminExternalWallet != 0x0 && pptFee > 0 && amount > 0);\n        DepositContract o = DepositContract(getDepositAddress(accountId));\n        uint pptBalance = SafeMath.safeSub(o.balanceOf(pptAddress), inCollateral);\n        require(pptBalance >= (SafeMath.safeAdd(amount, pptFee)) && (o.transfer(pptAddress, to, amount) == true) && (o.transfer(pptAddress, adminExternalWallet, pptFee) == true));        \n        actionStatus[_blockchainActionId] = true;\n        \n        iERC20Token token = iERC20Token(pptAddress);\n        setBlockchainActionData(_blockchainActionId, token.symbol(), amount, accountId, to);\n        EventWithdrawPPT(_blockchainActionId, accountId, o, to, amount);\n    }\n\n    /** @dev Enable a previously added invoice provider with access to add an invoice to the blockchain\n      * @param _blockchainActionId the blockchain action id\n      * @param _userId the user id of the invoiceProvider\n      */\n    function enableProvider(bytes32 _blockchainActionId, bytes32 _userId)\n        public\n        onlyServer\n    {\n        require(actionStatus[_blockchainActionId] == false);\n        require(providerCompanyData[_userId].isEnabled == false);\n        providerCompanyData[_userId].isEnabled == true;\n        actionStatus[_blockchainActionId] = true;\n        setBlockchainActionData(_blockchainActionId, 0x0, 0, _userId, 0x0);\n        EventProviderEnabled(_blockchainActionId, _userId, \"enabled\");\n    }\n\n    /** @dev Disable access granted to a previously added invoice provider\n      * @param _blockchainActionId the blockchain action id\n      * @param _userId the user id of the invoiceProvider\n      */\n    function disableProvider(bytes32 _blockchainActionId, bytes32 _userId)\n        public\n        onlyServer\n    {\n        require(actionStatus[_blockchainActionId] == false);\n        require(providerCompanyData[_userId].isEnabled == true);  \n        providerCompanyData[_userId].isEnabled == false;\n        actionStatus[_blockchainActionId] = true;\n        setBlockchainActionData(_blockchainActionId, 0x0, 0, _userId, 0x0);\n        EventProviderDisabled(_blockchainActionId, _userId, \"disabled\");\n    }\n\n    /** @dev Add a new invoice provider to the platform  \n      * @param _blockchainActionId the blockchain action id\n      * @param _userId the user id of the provider\n      * @param _companyNumber the providers company number\n      * @param _companyName the providers company name\n      * @param _countryCode the providers country code\n      */\n    function addProvider(\n        bytes32 _blockchainActionId, bytes32 _userId, bytes32 _companyNumber, \n        bytes32 _companyName, bytes2 _countryCode) \n        public \n        onlyServer\n    {   \n        require(actionStatus[_blockchainActionId] == false);\n        require(providerCompanyData[_userId].companyNumber == 0x0);\n        providerCompanyData[_userId].countryCode = _countryCode;\n        providerCompanyData[_userId].companyName = _companyName;\n        providerCompanyData[_userId].companyNumber = _companyNumber;\n        providerCompanyData[_userId].isEnabled = true;\n        actionStatus[_blockchainActionId] = true;\n        setBlockchainActionData(_blockchainActionId, 0x0, 0, _userId, 0x0);\n        EventNewProvider(_blockchainActionId, _userId, _companyName, _companyNumber, _countryCode);\n    }\n\n    /** @dev Add a new crowdsale invoice from an invoice provider to the platform  \n      * @param _blockchainActionId the blockchain action id\n      * @param _providerUserId the user id of the provider\n      * @param _invoiceCompanyNumber the providers company number\n      * @param _invoiceCompanyName the providers company name\n      * @param _invoiceCountryCode the providers country code\n      * @param _invoiceNumber the invoice identification number\n      */\n    function addInvoice(\n        bytes32 _blockchainActionId, bytes32 _providerUserId, bytes2 _invoiceCountryCode, \n        bytes32 _invoiceCompanyNumber, bytes32 _invoiceCompanyName, bytes32 _invoiceNumber)\n        public\n    {\n        require(actionStatus[_blockchainActionId] == false);\n        require(providerCompanyData[_providerUserId].isEnabled == true);\n        //change all bytes32 invoice information to lower case\n    \n        bytes memory invoiceCountryCode = bytes(Utils.lower(Utils.bytes2ToString(_invoiceCountryCode)));\n        bytes memory invoiceCompanyNumber = bytes(Utils.lower(Utils.bytes32ToString(_invoiceCompanyNumber)));\n        bytes memory invoiceCompanyName = bytes(Utils.lower(Utils.bytes32ToString(_invoiceCompanyName)));\n        bytes memory invoiceNumber = bytes(Utils.lower(Utils.bytes32ToString(_invoiceNumber)));\n\n        require(invoices[invoiceCountryCode][invoiceCompanyNumber][invoiceNumber].providerUserId == 0x0);\n        // country code => company number => invoice number => invoice data\n        invoices[invoiceCountryCode][invoiceCompanyNumber][invoiceNumber].providerUserId = _providerUserId;\n        invoices[invoiceCountryCode][invoiceCompanyNumber][invoiceNumber].invoiceCompanyName = _invoiceCompanyName;\n        actionStatus[_blockchainActionId] = true;\n        setBlockchainActionData(_blockchainActionId, 0x0, 0, _providerUserId, 0x0);\n        EventNewInvoice(_blockchainActionId, _providerUserId, invoiceCountryCode, invoiceCompanyNumber, invoiceCompanyName, invoiceNumber);\n    }\n\n    /** @dev Import all pokens of a particular currency from an ethereum wallet/address \n      * @param _blockchainActionId the blockchain action id\n      * @param accountId the account id of the client\n      * @param from the blockchain address to import pokens from\n      * @param currency the poken currency\n      */\n    function withdrawBank(bytes32 _blockchainActionId, bytes32 currency, address from, bytes32 accountId) public onlyServer {\n        require(actionStatus[_blockchainActionId] == false);\n        CurrencyToken CT = CurrencyToken(currencies[currency]);\n        //check balance.\n        uint256 balance = CT.balanceOf(from);\n        //balance is more than 0, and balance has been destroyed.\n        require(CT.balanceOf(from) > 0 && CT.destroyTokensFrom(balance, from) == true);\n        \n        actionStatus[_blockchainActionId] = true;\n\n        setBlockchainActionData(_blockchainActionId, currency, balance, accountId, from); \n\n        //emit event: Imported currency to system\n        EventWithdrawBank(_blockchainActionId, from, accountId, currency, balance);\n    }\n\n    /** @dev Withdraw an amount of pokens to an ethereum wallet/address\n      * @dev This function will mint pokens of a particular currency and transfer to a specified wallet address\n      * @param _blockchainActionId the blockchain action id\n      * @param accountId the account id of the client\n      * @param to the blockchain address to send pokens to\n      * @param amount the amount of pokens to transfer\n      * @param currency the poken currency\n      */\n    function withdrawPoken(\n        bytes32 _blockchainActionId, address pptAddress, bytes32 accountId, address to, \n        uint amount, bytes32 currency, uint inCollateral, uint pptFee, address adminExternalWallet) \n        public \n        onlyServer \n    {\n        require(actionStatus[_blockchainActionId] == false);\n        require(currencies[currency] != 0x0);\n\n        require(adminExternalWallet != 0x0 && pptFee > 0 && amount > 0);\n        DepositContract o = DepositContract(getDepositAddress(accountId));\n        uint pptBalance = SafeMath.safeSub(o.balanceOf(pptAddress), inCollateral);\n        require(pptBalance >= (SafeMath.safeAdd(amount, pptFee)) && (o.transfer(pptAddress, to, amount) == true) && (o.transfer(pptAddress, adminExternalWallet, pptFee) == true));        \n        \n        CurrencyToken cT = CurrencyToken(currencies[currency]);\n        //credit ledger\n        cT.mintTokens(amount);\n        //credit account\n        cT.transfer(to, amount);\n        \n        actionStatus[_blockchainActionId] = true;\n        \n        setBlockchainActionData(_blockchainActionId, currency, amount, accountId, to);\n        //emit event: Imported currency to system\n        EventWithdrawPokens(_blockchainActionId, accountId, to, amount, currency);\n    }\n\n    /** @dev set blockchain action data in struct \n      * @param _blockchainActionId the blockchain action id\n      * @param currency the token currency symbol\n      * @param accountId the clientId\n      * @param to the blockchain address or smart contract address used in the transaction\n      * @param amount the amount of tokens in the transaction\n      */\n    function setBlockchainActionData(bytes32 _blockchainActionId, bytes32 currency, uint amount, bytes32 accountId, address to) \n        private \n    {\n        require(actionStatus[_blockchainActionId] == true);\n        blockchainActionIdData[_blockchainActionId].currency = currency;\n        blockchainActionIdData[_blockchainActionId].amount = amount;\n        blockchainActionIdData[_blockchainActionId].accountId = accountId;\n        blockchainActionIdData[_blockchainActionId].to = to;\n    }\n\n    // CONSTANT METHODS\n\n    /** @dev Get the blockchain invoice Id with a blockchain Action id\n      * @param _blockchainActionId the blockchain action id\n      * @return bytes32 invoiceId\n      */\n    function getBlockInvoiceId(bytes32 _blockchainActionId) public view returns (bytes32) {\n        require(actionIdToInvoiceId[_blockchainActionId] != 0x0);\n        return actionIdToInvoiceId[_blockchainActionId];\n    }\n\n    /** @dev Get the blockchain action Id Data for a blockchain Action id\n      * @param _blockchainActionId the blockchain action id\n      * @return bytes32 currency\n      * @return uint amount\n      * @return bytes32 accountId\n      * @return address to\n      */\n    function getBlockchainActionIdData(bytes32 _blockchainActionId) public view \n    returns (bytes32, uint, bytes32, address) \n    {\n        require(actionStatus[_blockchainActionId] == true);\n\n        return (blockchainActionIdData[_blockchainActionId].currency, \n        blockchainActionIdData[_blockchainActionId].amount,\n        blockchainActionIdData[_blockchainActionId].accountId,\n        blockchainActionIdData[_blockchainActionId].to);\n    }\n\n    /** @dev Get the bool status of a blockchain Action id\n      * @param _blockchainActionId the blockchain action id\n      * @return bool actionStatus\n      */\n    function getActionStatus(bytes32 _blockchainActionId) public view returns (bool) {\n        return actionStatus[_blockchainActionId];\n    }\n\n    /** @dev Gets the address of a currency.\n      * @param currency The currency.\n      * @return address The currency address.\n      */\n    function getCurrency(bytes32 currency) public view returns (address) {\n        return currencies[currency];\n    }\n\n    /** @dev Gets the currency symbol of a currency.\n      * @param currency The currency.\n      * @return bytes32 The currency sybmol, e.g., GBP.\n      */\n    function getCurrencySymbol(address currency) public view returns (bytes32) {\n        return currenciesSymbols[currency];\n    }\n\n    /** @dev Gets the deposit address linked to a given client ID.\n      * @param clientId The client ID.\n      * @return address The deposit address.\n      */\n    function getDepositAddress(bytes32 clientId) public view returns (address) {\n        return depositAddress[clientId];\n    }\n\n}",
  "sourcePath": "/Users/najienka/Desktop/populous-smartcontracts/contracts/Populous.sol",
  "schemaVersion": "1.0.0",
  "updatedAt": "2018-06-05T11:00:10.595Z"
}