{
  "contractName": "PopulousToken",
  "abi": [
    {
      "constant": true,
      "inputs": [],
      "name": "name",
      "outputs": [
        {
          "name": "",
          "type": "bytes32"
        }
      ],
      "payable": false,
      "stateMutability": "view",
      "type": "function"
    },
    {
      "constant": false,
      "inputs": [
        {
          "name": "_spender",
          "type": "address"
        },
        {
          "name": "_value",
          "type": "uint256"
        }
      ],
      "name": "approve",
      "outputs": [
        {
          "name": "success",
          "type": "bool"
        }
      ],
      "payable": false,
      "stateMutability": "nonpayable",
      "type": "function"
    },
    {
      "constant": true,
      "inputs": [
        {
          "name": "_addr",
          "type": "address"
        }
      ],
      "name": "isContract",
      "outputs": [
        {
          "name": "is_contract",
          "type": "bool"
        }
      ],
      "payable": false,
      "stateMutability": "view",
      "type": "function"
    },
    {
      "constant": true,
      "inputs": [],
      "name": "totalSupply",
      "outputs": [
        {
          "name": "",
          "type": "uint256"
        }
      ],
      "payable": false,
      "stateMutability": "view",
      "type": "function"
    },
    {
      "constant": false,
      "inputs": [
        {
          "name": "_from",
          "type": "address"
        },
        {
          "name": "_to",
          "type": "address"
        },
        {
          "name": "_value",
          "type": "uint256"
        }
      ],
      "name": "transferFrom",
      "outputs": [
        {
          "name": "success",
          "type": "bool"
        }
      ],
      "payable": false,
      "stateMutability": "nonpayable",
      "type": "function"
    },
    {
      "constant": true,
      "inputs": [],
      "name": "decimals",
      "outputs": [
        {
          "name": "",
          "type": "uint8"
        }
      ],
      "payable": false,
      "stateMutability": "view",
      "type": "function"
    },
    {
      "constant": false,
      "inputs": [
        {
          "name": "_to",
          "type": "address"
        },
        {
          "name": "_value",
          "type": "uint256"
        },
        {
          "name": "_data",
          "type": "bytes"
        }
      ],
      "name": "transferToContract",
      "outputs": [
        {
          "name": "success",
          "type": "bool"
        }
      ],
      "payable": false,
      "stateMutability": "nonpayable",
      "type": "function"
    },
    {
      "constant": false,
      "inputs": [
        {
          "name": "amount",
          "type": "uint256"
        }
      ],
      "name": "faucet",
      "outputs": [],
      "payable": false,
      "stateMutability": "nonpayable",
      "type": "function"
    },
    {
      "constant": true,
      "inputs": [
        {
          "name": "_owner",
          "type": "address"
        }
      ],
      "name": "balanceOf",
      "outputs": [
        {
          "name": "balance",
          "type": "uint256"
        }
      ],
      "payable": false,
      "stateMutability": "view",
      "type": "function"
    },
    {
      "constant": true,
      "inputs": [],
      "name": "symbol",
      "outputs": [
        {
          "name": "",
          "type": "bytes32"
        }
      ],
      "payable": false,
      "stateMutability": "view",
      "type": "function"
    },
    {
      "constant": false,
      "inputs": [
        {
          "name": "_to",
          "type": "address"
        },
        {
          "name": "_value",
          "type": "uint256"
        }
      ],
      "name": "transfer",
      "outputs": [
        {
          "name": "success",
          "type": "bool"
        }
      ],
      "payable": false,
      "stateMutability": "nonpayable",
      "type": "function"
    },
    {
      "constant": false,
      "inputs": [
        {
          "name": "_to",
          "type": "address"
        },
        {
          "name": "_value",
          "type": "uint256"
        }
      ],
      "name": "transferToAddress",
      "outputs": [
        {
          "name": "success",
          "type": "bool"
        }
      ],
      "payable": false,
      "stateMutability": "nonpayable",
      "type": "function"
    },
    {
      "constant": false,
      "inputs": [
        {
          "name": "_to",
          "type": "address"
        },
        {
          "name": "_value",
          "type": "uint256"
        },
        {
          "name": "_data",
          "type": "bytes"
        }
      ],
      "name": "transfer",
      "outputs": [
        {
          "name": "success",
          "type": "bool"
        }
      ],
      "payable": false,
      "stateMutability": "nonpayable",
      "type": "function"
    },
    {
      "constant": true,
      "inputs": [
        {
          "name": "_owner",
          "type": "address"
        },
        {
          "name": "_spender",
          "type": "address"
        }
      ],
      "name": "allowance",
      "outputs": [
        {
          "name": "remaining",
          "type": "uint256"
        }
      ],
      "payable": false,
      "stateMutability": "view",
      "type": "function"
    },
    {
      "inputs": [],
      "payable": false,
      "stateMutability": "nonpayable",
      "type": "constructor"
    },
    {
      "anonymous": false,
      "inputs": [
        {
          "indexed": false,
          "name": "_to",
          "type": "address"
        },
        {
          "indexed": false,
          "name": "_value",
          "type": "uint256"
        },
        {
          "indexed": false,
          "name": "_data",
          "type": "bytes"
        }
      ],
      "name": "ContractTransfer",
      "type": "event"
    },
    {
      "anonymous": false,
      "inputs": [
        {
          "indexed": true,
          "name": "_from",
          "type": "address"
        },
        {
          "indexed": true,
          "name": "_to",
          "type": "address"
        },
        {
          "indexed": false,
          "name": "_value",
          "type": "uint256"
        }
      ],
      "name": "Transfer",
      "type": "event"
    },
    {
      "anonymous": false,
      "inputs": [
        {
          "indexed": true,
          "name": "_owner",
          "type": "address"
        },
        {
          "indexed": true,
          "name": "_spender",
          "type": "address"
        },
        {
          "indexed": false,
          "name": "_value",
          "type": "uint256"
        }
      ],
      "name": "Approval",
      "type": "event"
    }
  ],
  "bytecode": "0x606060405260008055341561001357600080fd5b7f506f70756c6f757320506c6174666f726d0000000000000000000000000000006003556004805460ff191660081790557f505054000000000000000000000000000000000000000000000000000000000060055561099c806100776000396000f300606060405236156100cd5763ffffffff7c010000000000000000000000000000000000000000000000000000000060003504166306fdde0381146100d2578063095ea7b3146100f7578063162790551461012d57806318160ddd1461014c57806323b872dd1461015f578063313ce567146101875780633f35d033146101b0578063579158971461021557806370a082311461022d57806395d89b411461024c578063a9059cbb1461025f578063acef603714610281578063be45fd62146102a3578063dd62ed3e14610308575b600080fd5b34156100dd57600080fd5b6100e561032d565b60405190815260200160405180910390f35b341561010257600080fd5b610119600160a060020a0360043516602435610333565b604051901515815260200160405180910390f35b341561013857600080fd5b610119600160a060020a03600435166103a0565b341561015757600080fd5b6100e56103c0565b341561016a57600080fd5b610119600160a060020a03600435811690602435166044356103c6565b341561019257600080fd5b61019a6104e3565b60405160ff909116815260200160405180910390f35b34156101bb57600080fd5b61011960048035600160a060020a03169060248035919060649060443590810190830135806020601f820181900481020160405190810160405281815292919060208401838380828437509496506104ec95505050505050565b341561022057600080fd5b61022b600435610776565b005b341561023857600080fd5b6100e5600160a060020a03600435166107c6565b341561025757600080fd5b6100e56107e1565b341561026a57600080fd5b610119600160a060020a03600435166024356107e7565b341561028c57600080fd5b610119600160a060020a0360043516602435610822565b34156102ae57600080fd5b61011960048035600160a060020a03169060248035919060649060443590810190830135806020601f820181900481020160405190810160405281815292919060208401838380828437509496506108ea95505050505050565b341561031357600080fd5b6100e5600160a060020a0360043581169060243516610916565b60035481565b600160a060020a03338116600081815260026020908152604080832094871680845294909152808220859055909291907f8c5be1e5ebec7d5bd14f71427d1e84f3dd0314c0f7b2291e5b200ac8c7c3b9259085905190815260200160405180910390a35060015b92915050565b6000813b818111156103b557600191506103ba565b600091505b50919050565b60005481565b600160a060020a0383166000908152600160205260408120548290108015906104165750600160a060020a0380851660009081526002602090815260408083203390941683529290522054829010155b80156104225750600082115b80156104475750600160a060020a038316600090815260016020526040902054828101115b156104d857600160a060020a03808416600081815260016020908152604080832080548801905588851680845281842080548990039055600283528184203390961684529490915290819020805486900390559091907fddf252ad1be2c89b69c2b068fc378daa952ba7f163c4a11628f55a4df523b3ef9085905190815260200160405180910390a35060016104dc565b5060005b9392505050565b60045460ff1681565b600160a060020a03331660009081526001602052604081205481908490108015906105175750600084115b801561053c5750600160a060020a038516600090815260016020526040902054848101115b156107695750600160a060020a033381811660009081526001602052604080822080548890039055928716808252908390208054870190558692909163c0ee0b8a9187908790518463ffffffff167c01000000000000000000000000000000000000000000000000000000000281526004018084600160a060020a0316600160a060020a0316815260200183815260200180602001828103825283818151815260200191508051906020019080838360005b838110156106065780820151838201526020016105ee565b50505050905090810190601f1680156106335780820380516001836020036101000a031916815260200191505b50945050505050600060405180830381600087803b151561065357600080fd5b6102c65a03f1151561066457600080fd5b50505084600160a060020a031633600160a060020a03167fddf252ad1be2c89b69c2b068fc378daa952ba7f163c4a11628f55a4df523b3ef8660405190815260200160405180910390a37fb35b712dc2c80945537903ca9aa7ed83607d14fc206a7e7ef41d5cf8946a3772858585604051600160a060020a03841681526020810183905260606040820181815290820183818151815260200191508051906020019080838360005b8381101561072457808201518382015260200161070c565b50505050905090810190601f1680156107515780820380516001836020036101000a031916815260200191505b5094505050505060405180910390a16001915061076e565b600091505b509392505050565b600160a060020a0333166000908152600160205260409020546107999082610941565b600160a060020a033316600090815260016020526040812091909155546107c09082610941565b60005550565b600160a060020a031660009081526001602052604090205490565b60055481565b60006107f161095e565b6107fa846103a0565b156108115761080a8484836104ec565b915061081b565b61080a8484610822565b5092915050565b600160a060020a03331660009081526001602052604081205482901080159061084b5750600082115b80156108705750600160a060020a038316600090815260016020526040902054828101115b156108e257600160a060020a033381166000818152600160205260408082208054879003905592861680825290839020805486019055917fddf252ad1be2c89b69c2b068fc378daa952ba7f163c4a11628f55a4df523b3ef9085905190815260200160405180910390a350600161039a565b50600061039a565b60006108f5846103a0565b1561090c576109058484846104ec565b90506104dc565b6109058484610822565b600160a060020a03918216600090815260026020908152604080832093909416825291909152205490565b60008282018381108015906109565750828110155b15156104dc57fe5b602060405190810160405260008152905600a165627a7a723058206a957eee28b860790b49c3f7afc0fd6a231dfc0ed629859058d73f581d040f750029",
  "source": "pragma solidity ^0.4.17;\n\nimport \"./ERC23Token.sol\";\nimport \"./SafeMath.sol\";\n\n\n/// @title PopulousToken contract\ncontract PopulousToken is ERC23Token {\n\n    // FIELDS\n\n    // Non-constant token specific fields\n    bytes32 public name;\n    uint8 public decimals;\n    bytes32 public symbol;\n\n    // NON-CONSTANT METHODS\n    \n    function PopulousToken () public {\n        name = \"Populous Platform\";\n        decimals = 8;\n        symbol = \"PPT\";\n    }\n\n    function faucet(uint amount) public {\n        balances[msg.sender] = SafeMath.safeAdd(balances[msg.sender], amount);\n        totalSupply = SafeMath.safeAdd(totalSupply, amount);\n    }\n}",
  "sourcePath": "/Users/najienka/Desktop/populous-smartcontracts/contracts/PopulousToken.sol",
  "schemaVersion": "1.0.0",
  "updatedAt": "2018-01-24T16:07:55.924Z"
}