{
  "contractName": "Populous",
  "abi": [
    {
      "constant": false,
      "inputs": [
        {
          "name": "_blockchainActionId",
          "type": "bytes"
        },
        {
          "name": "_tokenName",
          "type": "bytes32"
        },
        {
          "name": "_decimalUnits",
          "type": "uint8"
        },
        {
          "name": "_tokenSymbol",
          "type": "bytes32"
        }
      ],
      "name": "createCurrency",
      "outputs": [],
      "payable": false,
      "stateMutability": "nonpayable",
      "type": "function"
    },
    {
      "constant": false,
      "inputs": [
        {
          "name": "_accessManager",
          "type": "address"
        }
      ],
      "name": "updateAccessManager",
      "outputs": [],
      "payable": false,
      "stateMutability": "nonpayable",
      "type": "function"
    },
    {
      "constant": true,
      "inputs": [
        {
          "name": "_invoiceId",
          "type": "bytes"
        }
      ],
      "name": "getRecordDocumentIndexes",
      "outputs": [
        {
          "name": "",
          "type": "uint256"
        }
      ],
      "payable": false,
      "stateMutability": "view",
      "type": "function"
    },
    {
      "constant": false,
      "inputs": [
        {
          "name": "_blockchainActionId",
          "type": "bytes"
        },
        {
          "name": "_invoiceId",
          "type": "bytes"
        },
        {
          "name": "_ipfsHash",
          "type": "bytes"
        }
      ],
      "name": "insertBlock",
      "outputs": [],
      "payable": false,
      "stateMutability": "nonpayable",
      "type": "function"
    },
    {
      "constant": false,
      "inputs": [
        {
          "name": "_blockchainActionId",
          "type": "bytes"
        },
        {
          "name": "accountId",
          "type": "bytes32"
        },
        {
          "name": "to",
          "type": "address"
        },
        {
          "name": "amount",
          "type": "uint256"
        },
        {
          "name": "currency",
          "type": "bytes32"
        }
      ],
      "name": "withdrawPoken",
      "outputs": [],
      "payable": false,
      "stateMutability": "nonpayable",
      "type": "function"
    },
    {
      "constant": false,
      "inputs": [
        {
          "name": "_invoiceId",
          "type": "bytes"
        },
        {
          "name": "_dataHash",
          "type": "bytes"
        },
        {
          "name": "_dataType",
          "type": "bytes32"
        }
      ],
      "name": "insertSource",
      "outputs": [],
      "payable": false,
      "stateMutability": "nonpayable",
      "type": "function"
    },
    {
      "constant": true,
      "inputs": [
        {
          "name": "_invoiceId",
          "type": "bytes"
        },
        {
          "name": "documentIndex",
          "type": "uint256"
        }
      ],
      "name": "getRecord",
      "outputs": [
        {
          "name": "",
          "type": "bytes"
        },
        {
          "name": "",
          "type": "bytes32"
        }
      ],
      "payable": false,
      "stateMutability": "view",
      "type": "function"
    },
    {
      "constant": true,
      "inputs": [
        {
          "name": "currency",
          "type": "address"
        }
      ],
      "name": "getCurrencySymbol",
      "outputs": [
        {
          "name": "",
          "type": "bytes32"
        }
      ],
      "payable": false,
      "stateMutability": "view",
      "type": "function"
    },
    {
      "constant": true,
      "inputs": [
        {
          "name": "_blockchainActionId",
          "type": "bytes"
        }
      ],
      "name": "getBlockInvoiceId",
      "outputs": [
        {
          "name": "",
          "type": "bytes"
        }
      ],
      "payable": false,
      "stateMutability": "view",
      "type": "function"
    },
    {
      "constant": false,
      "inputs": [
        {
          "name": "_blockchainActionId",
          "type": "bytes"
        },
        {
          "name": "currency",
          "type": "bytes32"
        },
        {
          "name": "from",
          "type": "address"
        },
        {
          "name": "accountId",
          "type": "bytes32"
        }
      ],
      "name": "importPokens",
      "outputs": [],
      "payable": false,
      "stateMutability": "nonpayable",
      "type": "function"
    },
    {
      "constant": false,
      "inputs": [
        {
          "name": "_blockchainActionId",
          "type": "bytes"
        },
        {
          "name": "clientId",
          "type": "bytes"
        }
      ],
      "name": "createAddress",
      "outputs": [],
      "payable": false,
      "stateMutability": "nonpayable",
      "type": "function"
    },
    {
      "constant": true,
      "inputs": [
        {
          "name": "currency",
          "type": "bytes32"
        }
      ],
      "name": "getCurrency",
      "outputs": [
        {
          "name": "",
          "type": "address"
        }
      ],
      "payable": false,
      "stateMutability": "view",
      "type": "function"
    },
    {
      "constant": false,
      "inputs": [
        {
          "name": "_blockchainActionId",
          "type": "bytes"
        },
        {
          "name": "pptAddress",
          "type": "address"
        },
        {
          "name": "accountId",
          "type": "bytes32"
        },
        {
          "name": "depositContract",
          "type": "address"
        },
        {
          "name": "to",
          "type": "address"
        },
        {
          "name": "amount",
          "type": "uint256"
        },
        {
          "name": "inCollateral",
          "type": "uint256"
        }
      ],
      "name": "withdrawPPT",
      "outputs": [],
      "payable": false,
      "stateMutability": "nonpayable",
      "type": "function"
    },
    {
      "constant": true,
      "inputs": [
        {
          "name": "_blockchainActionId",
          "type": "bytes"
        }
      ],
      "name": "getBlockchainActionIdData",
      "outputs": [
        {
          "name": "",
          "type": "bytes32"
        },
        {
          "name": "",
          "type": "uint256"
        },
        {
          "name": "",
          "type": "bytes32"
        },
        {
          "name": "",
          "type": "address"
        }
      ],
      "payable": false,
      "stateMutability": "view",
      "type": "function"
    },
    {
      "constant": true,
      "inputs": [
        {
          "name": "clientId",
          "type": "bytes"
        }
      ],
      "name": "getDepositAddress",
      "outputs": [
        {
          "name": "",
          "type": "address"
        }
      ],
      "payable": false,
      "stateMutability": "view",
      "type": "function"
    },
    {
      "constant": true,
      "inputs": [
        {
          "name": "_blockchainActionId",
          "type": "bytes"
        }
      ],
      "name": "getActionStatus",
      "outputs": [
        {
          "name": "",
          "type": "bool"
        }
      ],
      "payable": false,
      "stateMutability": "view",
      "type": "function"
    },
    {
      "constant": true,
      "inputs": [],
      "name": "AM",
      "outputs": [
        {
          "name": "",
          "type": "address"
        }
      ],
      "payable": false,
      "stateMutability": "view",
      "type": "function"
    },
    {
      "inputs": [
        {
          "name": "_accessManager",
          "type": "address"
        }
      ],
      "payable": false,
      "stateMutability": "nonpayable",
      "type": "constructor"
    },
    {
      "anonymous": false,
      "inputs": [
        {
          "indexed": false,
          "name": "blockchainActionId",
          "type": "bytes"
        },
        {
          "indexed": false,
          "name": "invoiceId",
          "type": "bytes"
        },
        {
          "indexed": false,
          "name": "sourceLength",
          "type": "uint256"
        }
      ],
      "name": "EventNewCrowdsaleBlock",
      "type": "event"
    },
    {
      "anonymous": false,
      "inputs": [
        {
          "indexed": false,
          "name": "invoiceId",
          "type": "bytes"
        },
        {
          "indexed": false,
          "name": "sourceLength",
          "type": "uint256"
        }
      ],
      "name": "EventNewCrowdsaleSource",
      "type": "event"
    },
    {
      "anonymous": false,
      "inputs": [
        {
          "indexed": false,
          "name": "blockchainActionId",
          "type": "bytes"
        },
        {
          "indexed": false,
          "name": "accountId",
          "type": "bytes32"
        },
        {
          "indexed": false,
          "name": "depositContract",
          "type": "address"
        },
        {
          "indexed": false,
          "name": "to",
          "type": "address"
        },
        {
          "indexed": false,
          "name": "amount",
          "type": "uint256"
        }
      ],
      "name": "EventWithdrawPPT",
      "type": "event"
    },
    {
      "anonymous": false,
      "inputs": [
        {
          "indexed": false,
          "name": "blockchainActionId",
          "type": "bytes"
        },
        {
          "indexed": false,
          "name": "accountId",
          "type": "bytes32"
        },
        {
          "indexed": false,
          "name": "to",
          "type": "address"
        },
        {
          "indexed": false,
          "name": "amount",
          "type": "uint256"
        },
        {
          "indexed": false,
          "name": "currency",
          "type": "bytes32"
        }
      ],
      "name": "EventWithdrawPokens",
      "type": "event"
    },
    {
      "anonymous": false,
      "inputs": [
        {
          "indexed": false,
          "name": "blockchainActionId",
          "type": "bytes"
        },
        {
          "indexed": false,
          "name": "from",
          "type": "address"
        },
        {
          "indexed": false,
          "name": "accountId",
          "type": "bytes32"
        },
        {
          "indexed": false,
          "name": "currency",
          "type": "bytes32"
        },
        {
          "indexed": false,
          "name": "balance",
          "type": "uint256"
        }
      ],
      "name": "EventImportPokens",
      "type": "event"
    },
    {
      "anonymous": false,
      "inputs": [
        {
          "indexed": false,
          "name": "blockchainActionId",
          "type": "bytes"
        },
        {
          "indexed": false,
          "name": "tokenName",
          "type": "bytes32"
        },
        {
          "indexed": false,
          "name": "decimalUnits",
          "type": "uint8"
        },
        {
          "indexed": false,
          "name": "tokenSymbol",
          "type": "bytes32"
        },
        {
          "indexed": false,
          "name": "addr",
          "type": "address"
        }
      ],
      "name": "EventNewCurrency",
      "type": "event"
    },
    {
      "anonymous": false,
      "inputs": [
        {
          "indexed": false,
          "name": "blockchainActionId",
          "type": "bytes"
        },
        {
          "indexed": false,
          "name": "clientId",
          "type": "bytes"
        },
        {
          "indexed": false,
          "name": "depositContractAddress",
          "type": "address"
        }
      ],
      "name": "EventNewDepositContract",
      "type": "event"
    }
  ],
  "bytecode": "0x6060604052341561000f57600080fd5b6040516020806142ef8339810160405280805160008054600160a060020a03909216600160a060020a0319909216919091179055505061429b806100546000396000f30060606040523615620000e65763ffffffff60e060020a6000350416624a63938114620000eb57806302ab72c414620001515780630511375f14620001735780630bc14fcf14620001d95780630ef0e9dd14620002b15780632d9fb3c114620003215780634ffb161214620003b9578063554c9b6a1462000491578063876f763914620004b3578063a2e75f121462000581578063cb3796dc14620005eb578063d383b80d1462000681578063d6199f3214620006b6578063d9d934e11462000736578063db0e1ee514620007be578063de50767c1462000812578063f7f01b4b146200087a575b600080fd5b3415620000f757600080fd5b6200014f60046024813581810190830135806020601f820181900481020160405190810160405281815292919060208401838380828437509496505084359460ff602082013516945060400135925062000890915050565b005b34156200015d57600080fd5b6200014f600160a060020a036004351662000bde565b34156200017f57600080fd5b620001c760046024813581810190830135806020601f8201819004810201604051908101604052818152929190602084018383808284375094965062000c9495505050505050565b60405190815260200160405180910390f35b3415620001e557600080fd5b6200014f60046024813581810190830135806020601f8201819004810201604051908101604052818152929190602084018383808284378201915050505050509190803590602001908201803590602001908080601f01602080910402602001604051908101604052818152929190602084018383808284378201915050505050509190803590602001908201803590602001908080601f01602080910402602001604051908101604052818152929190602084018383808284375094965062000d0895505050505050565b3415620002bd57600080fd5b6200014f60046024813581810190830135806020601f8201819004810201604051908101604052818152929190602084018383808284375094965050843594600160a060020a03602082013516945060408101359350606001359150620011f39050565b34156200032d57600080fd5b6200014f60046024813581810190830135806020601f8201819004810201604051908101604052818152929190602084018383808284378201915050505050509190803590602001908201803590602001908080601f01602080910402602001604051908101604052818152929190602084018383808284375094965050933593506200171992505050565b3415620003c557600080fd5b6200040f60046024813581810190830135806020601f8201819004810201604051908101604052818152929190602084018383808284375094965050933593506200191192505050565b6040516020810182905260408082528190810184818151815260200191508051906020019080838360005b83811015620004545780820151838201526020016200043a565b50505050905090810190601f168015620004825780820380516001836020036101000a031916815260200191505b50935050505060405180910390f35b34156200049d57600080fd5b620001c7600160a060020a036004351662001adb565b3415620004bf57600080fd5b6200050760046024813581810190830135806020601f8201819004810201604051908101604052818152929190602084018383808284375094965062001af695505050505050565b60405160208082528190810183818151815260200191508051906020019080838360005b83811015620005455780820151838201526020016200052b565b50505050905090810190601f168015620005735780820380516001836020036101000a031916815260200191505b509250505060405180910390f35b34156200058d57600080fd5b6200014f60046024813581810190830135806020601f8201819004810201604051908101604052818152929190602084018383808284375094965050843594600160a060020a03602082013516945060400135925062001c93915050565b3415620005f757600080fd5b6200014f60046024813581810190830135806020601f8201819004810201604051908101604052818152929190602084018383808284378201915050505050509190803590602001908201803590602001908080601f016020809104026020016040519081016040528181529291906020840183838082843750949650620021f895505050505050565b34156200068d57600080fd5b6200069a600435620026b9565b604051600160a060020a03909116815260200160405180910390f35b3415620006c257600080fd5b6200014f60046024813581810190830135806020601f8201819004810201604051908101604052818152929190602084018383808284375094965050600160a060020a03853581169560208101359550604081013582169450606081013590911692506080810135915060a00135620026d4565b34156200074257600080fd5b6200078a60046024813581810190830135806020601f8201819004810201604051908101604052818152929190602084018383808284375094965062002c3a95505050505050565b6040519384526020840192909252604080840191909152600160a060020a0390911660608301526080909101905180910390f35b3415620007ca57600080fd5b6200069a60046024813581810190830135806020601f8201819004810201604051908101604052818152929190602084018383808284375094965062002e7f95505050505050565b34156200081e57600080fd5b6200086660046024813581810190830135806020601f8201819004810201604051908101604052818152929190602084018383808284375094965062002ef995505050505050565b604051901515815260200160405180910390f35b34156200088657600080fd5b6200069a62002f6d565b60008054600160a060020a03169063fda089589033906040516020015260405160e060020a63ffffffff8416028152600160a060020a039091166004820152602401602060405180830381600087803b1515620008ec57600080fd5b6102c65a03f11515620008fe57600080fd5b5050506040518051151560011490506200091757600080fd5b6003846040518082805190602001908083835b602083106200094b5780518252601f1990920191602091820191016200092a565b6001836020036101000a0380198251168184511680821785525050505050509050019150509081526020016040519081900390205460ff16156200098e57600080fd5b600081815260016020526040902054600160a060020a031615620009b157600080fd5b600054600160a060020a0316838383620009ca62002f8f565b600160a060020a039094168452602084019290925260ff16604080840191909152606083019190915260809091019051809103906000f080151562000a0e57600080fd5b6000828152600160205260409020805473ffffffffffffffffffffffffffffffffffffffff1916600160a060020a03928316179081905516151562000a4f57fe5b600081815260016020818152604080842054600160a060020a03168452600290915291829020839055906003908690518082805190602001908083835b6020831062000aad5780518252601f19909201916020918201910162000a8c565b6001836020036101000a038019825116818451168082178552505050505050905001915050908152602001604051908190039020805460ff191691151591909117905560008181526001602052604090819020547f9dcbebac1b9e9b7ec157c3e6648da01bfbbf6cc6861ae795e7acf35ace9614fe918691869186918691600160a060020a0390911690516020810185905260ff8416604082015260608101839052600160a060020a038216608082015260a08082528190810187818151815260200191508051906020019080838360005b8381101562000b9957808201518382015260200162000b7f565b50505050905090810190601f16801562000bc75780820380516001836020036101000a031916815260200191505b50965050505050505060405180910390a150505050565b60008054600160a060020a03169063fda089589033906040516020015260405160e060020a63ffffffff8416028152600160a060020a039091166004820152602401602060405180830381600087803b151562000c3a57600080fd5b6102c65a03f1151562000c4c57600080fd5b50505060405180511515600114905062000c6557600080fd5b6000805473ffffffffffffffffffffffffffffffffffffffff1916600160a060020a0392909216919091179055565b60006007826040518082805190602001908083835b6020831062000cca5780518252601f19909201916020918201910162000ca9565b6001836020036101000a0380198251168184511680821785525050505050509050019150509081526020016040519081900390206001015492915050565b60008054600160a060020a03169063fda089589033906040516020015260405160e060020a63ffffffff8416028152600160a060020a039091166004820152602401602060405180830381600087803b151562000d6457600080fd5b6102c65a03f1151562000d7657600080fd5b50505060405180511515600114905062000d8f57600080fd5b6007826040518082805190602001908083835b6020831062000dc35780518252601f19909201916020918201910162000da2565b6001836020036101000a0380198251168184511680821785525050505050509050019150509081526020016040519081900390205460ff161562000e0657600080fd5b6003836040518082805190602001908083835b6020831062000e3a5780518252601f19909201916020918201910162000e19565b6001836020036101000a0380198251168184511680821785525050505050509050019150509081526020016040519081900390205460ff161562000e7d57600080fd5b6007826040518082805190602001908083835b6020831062000eb15780518252601f19909201916020918201910162000e90565b6001836020036101000a0380198251168184511680821785525050505050509050019150509081526020016040518091039020600101805480600101828162000efb919062002fa0565b91600052602060002090600202016000604080519081016040528481527f697066735f686173680000000000000000000000000000000000000000000000602082015291905081518190805162000f5792916020019062002fd4565b506020820151600191820155915060079050836040518082805190602001908083835b6020831062000f9b5780518252601f19909201916020918201910162000f7a565b6001836020036101000a038019825116818451168082178552505050505050905001915050908152602001604051908190039020805460ff1916911515919091179055816006846040518082805190602001908083835b60208310620010135780518252601f19909201916020918201910162000ff2565b6001836020036101000a03801982511681845116808217855250505050505090500191505090815260200160405180910390209080516200105992916020019062002fd4565b5060016003846040518082805190602001908083835b60208310620010905780518252601f1990920191602091820191016200106f565b6001836020036101000a038019825116818451168082178552505050505050905001915050908152602001604051908190039020805460ff19169115159190911790557fdba831e6cfb0e130a7f42ffc77284ae390e0ce24679b16e684fae5dc6722b38c8383620011018162000c94565b604051808060200180602001848152602001838103835286818151815260200191508051906020019080838360005b838110156200114a57808201518382015260200162001130565b50505050905090810190601f168015620011785780820380516001836020036101000a031916815260200191505b50838103825285818151815260200191508051906020019080838360005b83811015620011b057808201518382015260200162001196565b50505050905090810190601f168015620011de5780820380516001836020036101000a031916815260200191505b509550505050505060405180910390a1505050565b60008054600160a060020a031663fda0895833836040516020015260405160e060020a63ffffffff8416028152600160a060020a039091166004820152602401602060405180830381600087803b15156200124d57600080fd5b6102c65a03f115156200125f57600080fd5b5050506040518051151560011490506200127857600080fd5b6003866040518082805190602001908083835b60208310620012ac5780518252601f1990920191602091820191016200128b565b6001836020036101000a0380198251168184511680821785525050505050509050019150509081526020016040519081900390205460ff1615620012ef57600080fd5b600082815260016020526040902054600160a060020a031615156200131357600080fd5b506000818152600160205260409081902054600160a060020a03169081906397304ced9085905160e060020a63ffffffff84160281526004810191909152602401600060405180830381600087803b15156200136e57600080fd5b6102c65a03f115156200138057600080fd5b50505080600160a060020a031663a9059cbb858560006040516020015260405160e060020a63ffffffff8516028152600160a060020a0390921660048301526024820152604401602060405180830381600087803b1515620013e157600080fd5b6102c65a03f11515620013f357600080fd5b5050506040518051905050816004876040518082805190602001908083835b60208310620014335780518252601f19909201916020918201910162001412565b6001836020036101000a03801982511681845116808217855250505050505090500191505090815260200160405190819003902055826004876040518082805190602001908083835b602083106200149d5780518252601f1990920191602091820191016200147c565b6001836020036101000a03801982511681845116808217855250505050505090500191505090815260200160405190819003902060010155846004876040518082805190602001908083835b602083106200150a5780518252601f199092019160209182019101620014e9565b6001836020036101000a03801982511681845116808217855250505050505090500191505090815260200160405190819003902060020155836004876040518082805190602001908083835b60208310620015775780518252601f19909201916020918201910162001556565b6001836020036101000a038019825116818451168082178552505050505050905001915050908152602001604051809103902060030160006101000a815481600160a060020a030219169083600160a060020a0316021790555060016003876040518082805190602001908083835b60208310620016075780518252601f199092019160209182019101620015e6565b6001836020036101000a038019825116818451168082178552505050505050905001915050908152602001604051908190039020805460ff19169115159190911790557f57964db8f7682abd9c79b37add175ce412cb1873b91b500c4b718f5a2d6164b8868686868660405160208101859052600160a060020a0384166040820152606081018390526080810182905260a08082528190810187818151815260200191508051906020019080838360005b83811015620016d2578082015183820152602001620016b8565b50505050905090810190601f168015620017005780820380516001836020036101000a031916815260200191505b50965050505050505060405180910390a1505050505050565b6007836040518082805190602001908083835b602083106200174d5780518252601f1990920191602091820191016200172c565b6001836020036101000a0380198251168184511680821785525050505050509050019150509081526020016040519081900390205460ff1615156001146200179457600080fd5b6007836040518082805190602001908083835b60208310620017c85780518252601f199092019160209182019101620017a7565b6001836020036101000a0380198251168184511680821785525050505050509050019150509081526020016040518091039020600101805480600101828162001812919062002fa0565b9160005260206000209060020201600060408051908101604052858152602081018590529190508151819080516200184f92916020019062002fd4565b506020820151600190910155507f38140fc4188190123b23e70ee75dbf972a239de49f0d38a4d373c8bbfbde3dbe9050836200188b8162000c94565b6040518080602001838152602001828103825284818151815260200191508051906020019080838360005b83811015620018d0578082015183820152602001620018b6565b50505050905090810190601f168015620018fe5780820380516001836020036101000a031916815260200191505b50935050505060405180910390a1505050565b6200191b62003059565b60006007846040518082805190602001908083835b60208310620019515780518252601f19909201916020918201910162001930565b6001836020036101000a0380198251168184511680821785525050505050509050019150509081526020016040518091039020600101838154811015156200199557fe5b90600052602060002090600202016000016007856040518082805190602001908083835b60208310620019da5780518252601f199092019160209182019101620019b9565b6001836020036101000a03801982511681845116808217855250505050505090500191505090815260200160405180910390206001018481548110151562001a1e57fe5b906000526020600020906002020160010154818054600181600116156101000203166002900480601f01602080910402602001604051908101604052809291908181526020018280546001816001161561010002031660029004801562001ac95780601f1062001a9d5761010080835404028352916020019162001ac9565b820191906000526020600020905b81548152906001019060200180831162001aab57829003601f168201915b50505050509150915091509250929050565b600160a060020a031660009081526002602052604090205490565b62001b0062003059565b6006826040518082805190602001908083835b6020831062001b345780518252601f19909201916020918201910162001b13565b6001836020036101000a0380198251168184511680821785525050505050509050019150509081526020016040519081900390205460026000196101006001841615020190911604151562001b8857600080fd5b6006826040518082805190602001908083835b6020831062001bbc5780518252601f19909201916020918201910162001b9b565b6001836020036101000a03801982511681845116808217855250505050505090500191505090815260200160405180910390208054600181600116156101000203166002900480601f01602080910402602001604051908101604052809291908181526020018280546001816001161561010002031660029004801562001c875780601f1062001c5b5761010080835404028352916020019162001c87565b820191906000526020600020905b81548152906001019060200180831162001c6957829003601f168201915b50505050509050919050565b600080548190600160a060020a031663fda0895833836040516020015260405160e060020a63ffffffff8416028152600160a060020a039091166004820152602401602060405180830381600087803b151562001cef57600080fd5b6102c65a03f1151562001d0157600080fd5b50505060405180511515600114905062001d1a57600080fd5b6003866040518082805190602001908083835b6020831062001d4e5780518252601f19909201916020918201910162001d2d565b6001836020036101000a0380198251168184511680821785525050505050509050019150509081526020016040519081900390205460ff161562001d9157600080fd5b60008581526001602052604080822054600160a060020a0316935083916370a0823191879190516020015260405160e060020a63ffffffff8416028152600160a060020a039091166004820152602401602060405180830381600087803b151562001dfb57600080fd5b6102c65a03f1151562001e0d57600080fd5b505050604051805190509050600082600160a060020a03166370a082318660006040516020015260405160e060020a63ffffffff8416028152600160a060020a039091166004820152602401602060405180830381600087803b151562001e7357600080fd5b6102c65a03f1151562001e8557600080fd5b5050506040518051905011801562001f19575081600160a060020a0316630156b323828660006040516020015260405160e060020a63ffffffff85160281526004810192909252600160a060020a03166024820152604401602060405180830381600087803b151562001ef757600080fd5b6102c65a03f1151562001f0957600080fd5b5050506040518051151560011490505b151562001f2557600080fd5b846004876040518082805190602001908083835b6020831062001f5a5780518252601f19909201916020918201910162001f39565b6001836020036101000a03801982511681845116808217855250505050505090500191505090815260200160405190819003902055806004876040518082805190602001908083835b6020831062001fc45780518252601f19909201916020918201910162001fa3565b6001836020036101000a03801982511681845116808217855250505050505090500191505090815260200160405190819003902060010155826004876040518082805190602001908083835b60208310620020315780518252601f19909201916020918201910162002010565b6001836020036101000a03801982511681845116808217855250505050505090500191505090815260200160405190819003902060020155836004876040518082805190602001908083835b602083106200209e5780518252601f1990920191602091820191016200207d565b6001836020036101000a038019825116818451168082178552505050505050905001915050908152602001604051809103902060030160006101000a815481600160a060020a030219169083600160a060020a0316021790555060016003876040518082805190602001908083835b602083106200212e5780518252601f1990920191602091820191016200210d565b6001836020036101000a038019825116818451168082178552505050505050905001915050908152602001604051908190039020805460ff19169115159190911790557fe8b33780aea6a4076fdd50e5eecd5a270bbda828e7f9cbd00942d03b229bd07a8685858885604051600160a060020a038516602082015260408101849052606081018390526080810182905260a080825281908101878181518152602001915080519060200190808383600083811015620016d2578082015183820152602001620016b8565b60008054600160a060020a03169063fda089589033906040516020015260405160e060020a63ffffffff8416028152600160a060020a039091166004820152602401602060405180830381600087803b15156200225457600080fd5b6102c65a03f115156200226657600080fd5b5050506040518051151560011490506200227f57600080fd5b6003826040518082805190602001908083835b60208310620022b35780518252601f19909201916020918201910162002292565b6001836020036101000a0380198251168184511680821785525050505050509050019150509081526020016040519081900390205460ff1615620022f657600080fd5b6000548190600160a060020a03166200230e6200306b565b600160a060020a038216602082015260408082528190810184818151815260200191508051906020019080838360005b83811015620023585780820151838201526020016200233e565b50505050905090810190601f168015620023865780820380516001836020036101000a031916815260200191505b509350505050604051809103906000f0801515620023a357600080fd5b6005826040518082805190602001908083835b60208310620023d75780518252601f199092019160209182019101620023b6565b6001836020036101000a038019825116818451168082178552505050505050905001915050908152602001604051908190039020805473ffffffffffffffffffffffffffffffffffffffff1916600160a060020a03929092169190911790556005816040518082805190602001908083835b602083106200246a5780518252601f19909201916020918201910162002449565b6001836020036101000a03801982511681845116808217855250505050505090500191505090815260200160405190819003902054600160a060020a03161515620024b157fe5b60016003836040518082805190602001908083835b60208310620024e75780518252601f199092019160209182019101620024c6565b6001836020036101000a038019825116818451168082178552505050505050905001915050908152602001604051908190039020805460ff19169115159190911790557f2bd21ddc6b1f403053a966df054bb2997151624860516094a13c0e52f2f02c6882826005816040518082805190602001908083835b60208310620025815780518252601f19909201916020918201910162002560565b6001836020036101000a03801982511681845116808217855250505050505090500191505090815260200160405190819003902054600160a060020a0316604051600160a060020a0382166040820152606080825281906020820190820186818151815260200191508051906020019080838360005b8381101562002611578082015183820152602001620025f7565b50505050905090810190601f1680156200263f5780820380516001836020036101000a031916815260200191505b50838103825285818151815260200191508051906020019080838360005b83811015620026775780820151838201526020016200265d565b50505050905090810190601f168015620026a55780820380516001836020036101000a031916815260200191505b509550505050505060405180910390a15050565b600090815260016020526040902054600160a060020a031690565b600080548190600160a060020a031663fda0895833836040516020015260405160e060020a63ffffffff8416028152600160a060020a039091166004820152602401602060405180830381600087803b15156200273057600080fd5b6102c65a03f115156200274257600080fd5b5050506040518051151560011490506200275b57600080fd5b6003896040518082805190602001908083835b602083106200278f5780518252601f1990920191602091820191016200276e565b6001836020036101000a0380198251168184511680821785525050505050509050019150509081526020016040519081900390205460ff1615620027d257600080fd5b8591506200285482600160a060020a03166370a082318a60006040516020015260405160e060020a63ffffffff8416028152600160a060020a039091166004820152602401602060405180830381600087803b15156200283157600080fd5b6102c65a03f115156200284357600080fd5b505050604051805190508462002f7c565b9050838110158015620028ef575081600160a060020a031663beabacc889878760006040516020015260405160e060020a63ffffffff8616028152600160a060020a0393841660048201529190921660248201526044810191909152606401602060405180830381600087803b1515620028cd57600080fd5b6102c65a03f11515620028df57600080fd5b5050506040518051151560011490505b1515620028fb57600080fd5b7f505054000000000000000000000000000000000000000000000000000000000060048a6040518082805190602001908083835b60208310620029505780518252601f1990920191602091820191016200292f565b6001836020036101000a038019825116818451168082178552505050505050905001915050908152602001604051908190039020558360048a6040518082805190602001908083835b60208310620029ba5780518252601f19909201916020918201910162002999565b6001836020036101000a038019825116818451168082178552505050505050905001915050908152602001604051908190039020600101558660048a6040518082805190602001908083835b6020831062002a275780518252601f19909201916020918201910162002a06565b6001836020036101000a038019825116818451168082178552505050505050905001915050908152602001604051908190039020600201558460048a6040518082805190602001908083835b6020831062002a945780518252601f19909201916020918201910162002a73565b6001836020036101000a038019825116818451168082178552505050505050905001915050908152602001604051809103902060030160006101000a815481600160a060020a030219169083600160a060020a03160217905550600160038a6040518082805190602001908083835b6020831062002b245780518252601f19909201916020918201910162002b03565b6001836020036101000a038019825116818451168082178552505050505050905001915050908152602001604051908190039020805460ff19169115159190911790557f0d02d204bbb0257143767d943084f52523931868befb38726d0a239d12fb1b42898888888860405160208101859052600160a060020a038085166040830152831660608201526080810182905260a08082528190810187818151815260200191508051906020019080838360005b8381101562002bf057808201518382015260200162002bd6565b50505050905090810190601f16801562002c1e5780820380516001836020036101000a031916815260200191505b50965050505050505060405180910390a1505050505050505050565b6000806000806003856040518082805190602001908083835b6020831062002c745780518252601f19909201916020918201910162002c53565b6001836020036101000a0380198251168184511680821785525050505050509050019150509081526020016040519081900390205460ff16151560011462002cbb57600080fd5b6004856040518082805190602001908083835b6020831062002cef5780518252601f19909201916020918201910162002cce565b6001836020036101000a038019825116818451168082178552505050505050905001915050908152602001604051908190039020546004866040518082805190602001908083835b6020831062002d585780518252601f19909201916020918201910162002d37565b6001836020036101000a0380198251168184511680821785525050505050509050019150509081526020016040518091039020600101546004876040518082805190602001908083835b6020831062002dc35780518252601f19909201916020918201910162002da2565b6001836020036101000a0380198251168184511680821785525050505050509050019150509081526020016040518091039020600201546004886040518082805190602001908083835b6020831062002e2e5780518252601f19909201916020918201910162002e0d565b6001836020036101000a0380198251168184511680821785525050505050509050019150509081526020016040519081900390206003015492989197509550600160a060020a039091169350915050565b60006005826040518082805190602001908083835b6020831062002eb55780518252601f19909201916020918201910162002e94565b6001836020036101000a03801982511681845116808217855250505050505090500191505090815260200160405190819003902054600160a060020a031692915050565b60006003826040518082805190602001908083835b6020831062002f2f5780518252601f19909201916020918201910162002f0e565b6001836020036101000a0380198251168184511680821785525050505050509050019150509081526020016040519081900390205460ff1692915050565b600054600160a060020a031681565b60008282111562002f8957fe5b50900390565b604051610c5a806200311783390190565b81548183558181151162002fcf5760020281600202836000526020600020918201910162002fcf91906200307c565b505050565b828054600181600116156101000203166002900490600052602060002090601f016020900481019282601f106200301757805160ff191683800117855562003047565b8280016001018555821562003047579182015b82811115620030475782518255916020019190600101906200302a565b5062003055929150620030ae565b5090565b60206040519081016040526000815290565b6040516104ff8062003d7183390190565b620030ab91905b80821115620030555760006200309a8282620030cb565b506000600182015560020162003083565b90565b620030ab91905b80821115620030555760008155600101620030b5565b50805460018160011615610100020316600290046000825580601f10620030f3575062003113565b601f016020900490600052602060002090810190620031139190620030ae565b505600606060405260008055341561001357600080fd5b604051608080610c5a8339810160405280805191906020018051919060200180519190602001805160068054600160a060020a031916600160a060020a03979097169690961790955550506001919091556002805460ff191660ff909216919091179055600355610bd1806100896000396000f300606060405236156100ca5763ffffffff60e060020a6000350416630156b32381146100cf57806302ab72c41461010557806306fdde0314610126578063095ea7b31461014b57806318160ddd1461016d57806323b872dd1461018057806327e235e3146101a8578063313ce567146101c75780635c658165146101f057806367fbd2891461021557806370a082311461022b57806395d89b411461024a57806397304ced1461025d578063a9059cbb14610273578063dd62ed3e14610295578063f7f01b4b146102ba575b600080fd5b34156100da57600080fd5b6100f1600435600160a060020a03602435166102e9565b604051901515815260200160405180910390f35b341561011057600080fd5b610124600160a060020a03600435166103ed565b005b341561013157600080fd5b61013961049e565b60405190815260200160405180910390f35b341561015657600080fd5b6100f1600160a060020a03600435166024356104a4565b341561017857600080fd5b610139610510565b341561018b57600080fd5b6100f1600160a060020a0360043581169060243516604435610516565b34156101b357600080fd5b610139600160a060020a036004351661061c565b34156101d257600080fd5b6101da61062e565b60405160ff909116815260200160405180910390f35b34156101fb57600080fd5b610139600160a060020a0360043581169060243516610637565b341561022057600080fd5b6100f1600435610654565b341561023657600080fd5b610139600160a060020a0360043516610898565b341561025557600080fd5b6101396108b3565b341561026857600080fd5b6101246004356108b9565b341561027e57600080fd5b6100f1600160a060020a0360043516602435610aa1565b34156102a057600080fd5b610139600160a060020a0360043581169060243516610b35565b34156102c557600080fd5b6102cd610b60565b604051600160a060020a03909116815260200160405180910390f35b600654600090600160a060020a03166305fd22d033836040516020015260405160e060020a63ffffffff8416028152600160a060020a039091166004820152602401602060405180830381600087803b151561034457600080fd5b6102c65a03f1151561035557600080fd5b50505060405180511515600114905061036d57600080fd5b600160a060020a03821660009081526004602052604090205483901015610396575060006103e7565b600160a060020a0382166000908152600460205260409020546103b99084610b6f565b600160a060020a038316600090815260046020526040812091909155546103e09084610b6f565b6000555060015b92915050565b600654600160a060020a031663fda089583360006040516020015260405160e060020a63ffffffff8416028152600160a060020a039091166004820152602401602060405180830381600087803b151561044657600080fd5b6102c65a03f1151561045757600080fd5b50505060405180511515600114905061046f57600080fd5b6006805473ffffffffffffffffffffffffffffffffffffffff1916600160a060020a0392909216919091179055565b60015481565b600160a060020a03338116600081815260056020908152604080832094871680845294909152808220859055909291907f8c5be1e5ebec7d5bd14f71427d1e84f3dd0314c0f7b2291e5b200ac8c7c3b9259085905190815260200160405180910390a350600192915050565b60005481565b600160a060020a03808416600081815260056020908152604080832033909516835293815283822054928252600490529182205483901080159061055a5750828110155b151561056557600080fd5b600160a060020a03808516600090815260046020526040808220805487019055918716815220805484900390556000198110156105ca57600160a060020a03808616600090815260056020908152604080832033909416835292905220805484900390555b83600160a060020a031685600160a060020a03167fddf252ad1be2c89b69c2b068fc378daa952ba7f163c4a11628f55a4df523b3ef8560405190815260200160405180910390a3506001949350505050565b60046020526000908152604090205481565b60025460ff1681565b600560209081526000928352604080842090915290825290205481565b600654600090600160a060020a03166305fd22d033836040516020015260405160e060020a63ffffffff8416028152600160a060020a039091166004820152602401602060405180830381600087803b15156106af57600080fd5b6102c65a03f115156106c057600080fd5b5050506040518051151560011490506106d857600080fd5b6006548290600490600090600160a060020a03166394a3760f82604051602001526040518163ffffffff1660e060020a028152600401602060405180830381600087803b151561072757600080fd5b6102c65a03f1151561073857600080fd5b5050506040518051600160a060020a0316825250602081019190915260400160002054101561076957506000610893565b6006546107f490600490600090600160a060020a03166394a3760f82604051602001526040518163ffffffff1660e060020a028152600401602060405180830381600087803b15156107ba57600080fd5b6102c65a03f115156107cb57600080fd5b5050506040518051600160a060020a031682525060208101919091526040016000205483610b6f565b600654600490600090600160a060020a03166394a3760f82604051602001526040518163ffffffff1660e060020a028152600401602060405180830381600087803b151561084157600080fd5b6102c65a03f1151561085257600080fd5b50505060405180519050600160a060020a0316600160a060020a031681526020019081526020016000208190555061088c60005483610b6f565b6000555060015b919050565b600160a060020a031660009081526004602052604090205490565b60035481565b600654600160a060020a03166305fd22d03360006040516020015260405160e060020a63ffffffff8416028152600160a060020a039091166004820152602401602060405180830381600087803b151561091257600080fd5b6102c65a03f1151561092357600080fd5b50505060405180511515600114905061093b57600080fd5b6006546109c690600490600090600160a060020a03166394a3760f82604051602001526040518163ffffffff1660e060020a028152600401602060405180830381600087803b151561098c57600080fd5b6102c65a03f1151561099d57600080fd5b5050506040518051600160a060020a031682525060208101919091526040016000205482610b81565b600654600490600090600160a060020a03166394a3760f82604051602001526040518163ffffffff1660e060020a028152600401602060405180830381600087803b1515610a1357600080fd5b6102c65a03f11515610a2457600080fd5b50505060405180519050600160a060020a0316600160a060020a0316815260200190815260200160002081905550610a5e60005482610b81565b6000556003547fb83a9cb495aa43a9871c87805ab90712a5f703de6d66d16b96d7afcc91bb3299908260405191825260208201526040908101905180910390a150565b600160a060020a03331660009081526004602052604081205482901015610ac757600080fd5b600160a060020a033381166000818152600460205260408082208054879003905592861680825290839020805486019055917fddf252ad1be2c89b69c2b068fc378daa952ba7f163c4a11628f55a4df523b3ef9085905190815260200160405180910390a350600192915050565b600160a060020a03918216600090815260056020908152604080832093909416825291909152205490565b600654600160a060020a031681565b600082821115610b7b57fe5b50900390565b6000828201838110801590610b965750828110155b1515610b9e57fe5b93925050505600a165627a7a72305820e1ea077b2b747f054457cdf87652fe476bd655b3ae3d86f141a150193e83ec3e00296060604052341561000f57600080fd5b6040516104ff3803806104ff8339810160405280805182019190602001805160008054600160a060020a031916600160a060020a038316179055915060019050828051610060929160200190610068565b505050610103565b828054600181600116156101000203166002900490600052602060002090601f016020900481019282601f106100a957805160ff19168380011785556100d6565b828001600101855582156100d6579182015b828111156100d65782518255916020019190600101906100bb565b506100e29291506100e6565b5090565b61010091905b808211156100e257600081556001016100ec565b90565b6103ed806101126000396000f300606060405263ffffffff60e060020a60003504166302ab72c4811461004457806370a0823114610065578063beabacc814610096578063f7f01b4b146100d257600080fd5b341561004f57600080fd5b610063600160a060020a0360043516610101565b005b341561007057600080fd5b610084600160a060020a03600435166101b4565b60405190815260200160405180910390f35b34156100a157600080fd5b6100be600160a060020a036004358116906024351660443561022d565b604051901515815260200160405180910390f35b34156100dd57600080fd5b6100e56103b2565b604051600160a060020a03909116815260200160405180910390f35b60008054600160a060020a03169063fda089589033906040516020015260405160e060020a63ffffffff8416028152600160a060020a039091166004820152602401602060405180830381600087803b151561015c57600080fd5b6102c65a03f1151561016d57600080fd5b50505060405180511515600114905061018557600080fd5b6000805473ffffffffffffffffffffffffffffffffffffffff1916600160a060020a0392909216919091179055565b600081600160a060020a03166370a082313060006040516020015260405160e060020a63ffffffff8416028152600160a060020a039091166004820152602401602060405180830381600087803b151561020d57600080fd5b6102c65a03f1151561021e57600080fd5b50505060405180519392505050565b60008054600160a060020a031663fda0895833836040516020015260405160e060020a63ffffffff8416028152600160a060020a039091166004820152602401602060405180830381600087803b151561028657600080fd5b6102c65a03f1151561029757600080fd5b50505060405180511515600114905080610328575060008054600160a060020a0316906305fd22d09033906040516020015260405160e060020a63ffffffff8416028152600160a060020a039091166004820152602401602060405180830381600087803b151561030757600080fd5b6102c65a03f1151561031857600080fd5b5050506040518051151560011490505b151561033357600080fd5b83600160a060020a031663a9059cbb848460006040516020015260405160e060020a63ffffffff8516028152600160a060020a0390921660048301526024820152604401602060405180830381600087803b151561039057600080fd5b6102c65a03f115156103a157600080fd5b505050604051805195945050505050565b600054600160a060020a0316815600a165627a7a723058205c6024747c7aa9715f22cf70418220018390e0e7e229352b6946fba964843a010029a165627a7a723058205e347bb6e86977853be5c0df1c4feb29252965dcc44d2785d536d594c3060d030029",
  "source": "/**\nThis is the core module of the system. Currently it holds the code of\nthe Bank and crowdsale modules to avoid external calls and higher gas costs.\nIt might be a good idea in the future to split the code, separate Bank\nand crowdsale modules into external files and have the core interact with them\nwith addresses and interfaces. \n*/\npragma solidity ^0.4.17;\n\nimport \"./iERC20Token.sol\";\nimport \"./CurrencyToken.sol\";\nimport \"./DepositContract.sol\";\nimport \"./SafeMath.sol\";\n\n/// @title Populous contract\ncontract Populous is withAccessManager {\n\n    // EVENTS\n    event EventNewCrowdsaleBlock(bytes blockchainActionId, bytes invoiceId, uint sourceLength);\n    event EventNewCrowdsaleSource(bytes invoiceId, uint sourceLength);\n    // Bank events\n    event EventWithdrawPPT(bytes blockchainActionId, bytes32 accountId, address depositContract, address to, uint amount);\n    event EventWithdrawPokens(bytes blockchainActionId, bytes32 accountId, address to, uint amount, bytes32 currency);\n    event EventImportPokens(bytes blockchainActionId, address from, bytes32 accountId, bytes32 currency, uint balance);\n    event EventNewCurrency(bytes blockchainActionId, bytes32 tokenName, uint8 decimalUnits, bytes32 tokenSymbol, address addr);\n    event EventNewDepositContract(bytes blockchainActionId, bytes clientId, address depositContractAddress);\n\n\n    // FIELDS\n    mapping(bytes32 => address) currencies;\n    mapping(address => bytes32) currenciesSymbols;\n    mapping(bytes => bool) actionStatus;\n\n    struct actionData {\n        bytes32 currency;\n        uint amount;\n        bytes32 accountId;\n        address to;\n    }\n\n    mapping(bytes => actionData) blockchainActionIdData;\n\n    // This variable will be used to keep track of client IDs and\n    // their deposit addresses\n    // clientId => depositAddress\n    mapping(bytes => address) depositAddress;\n\n    struct storageSource {\n        bytes dataHash;\n        bytes32 dataType; // crowdsale (creators, bids) + addresses /exchange_date/deposit_history (latest)/ -- for external auditing.\n    }\n\n    //actionId => invoiceId\n    mapping(bytes => bytes) actionIdToInvoiceId;\n\n    struct record {\n       bool isSet;\n       storageSource[] documents; //source[0] = [\"0x23222324\"]\n    }\n\n    //invoiceId => (isSet, documents [\"crowdsale_log\",\"exchange_history\",\"deposit_history\"])\n    mapping(bytes => record) Blocks;\n\n\n    // NON-CONSTANT METHODS\n    // Constructor method called when contract instance is \n    // deployed with 'withAccessManager' modifier.\n    function Populous(address _accessManager) public withAccessManager(_accessManager) { }\n    /**\n    BANK MODULE\n    */\n\n\n    // NON-CONSTANT METHODS\n\n    /** @dev Insert a crowdsale record for a specific invoice crowdsale id. \n      * Limited to only the server address or platform admin\n      * @param _blockchainActionId the blockchain action id\n      * @param _invoiceId the invoice id      \n      * @param _ipfsHash the ipfs hash of the invoice file\n      */ \n    function insertBlock(bytes _blockchainActionId, bytes _invoiceId, bytes _ipfsHash) \n    public\n    onlyServer\n    {\n        require(Blocks[_invoiceId].isSet == false);\n        require(actionStatus[_blockchainActionId] == false);\n\n        Blocks[_invoiceId].documents.push(storageSource(\n           _ipfsHash,\n           \"ipfs_hash\")\n        );\n\n        // record the history of a crowdsale on the ledger, with internal and external logs, and interal address too so it can be easily audited using etherscan\n        Blocks[_invoiceId].isSet = true;\n        actionIdToInvoiceId[_blockchainActionId] = _invoiceId;\n        actionStatus[_blockchainActionId] = true;\n        EventNewCrowdsaleBlock(_blockchainActionId, _invoiceId, getRecordDocumentIndexes(_invoiceId));\n\n    }\n\n    /** @dev Insert a crowdsale record for a specific invoice crowdsale id \n      * @param _dataHash the hash of the data/record\n      */ \n    function insertSource(bytes _invoiceId, bytes _dataHash, bytes32 _dataType) public {\n        require(Blocks[_invoiceId].isSet == true);\n        Blocks[_invoiceId].documents.push(storageSource(\n           _dataHash,\n           _dataType)        \n        );\n        EventNewCrowdsaleSource(_invoiceId, getRecordDocumentIndexes(_invoiceId));\n    }\n    /** @dev Creates a new 'depositAddress' gotten from deploying a deposit contract linked to a client ID\n      * @param clientId The bytes client ID\n      * @return address The address of the deployed deposit contract instance.\n      */\n    function createAddress(bytes _blockchainActionId, bytes clientId) public\n        onlyServer\n    {\n        require(actionStatus[_blockchainActionId] == false);\n        depositAddress[clientId] = new DepositContract(clientId, AM);\n        assert(depositAddress[clientId] != 0x0);\n        actionStatus[_blockchainActionId] = true;\n        EventNewDepositContract(_blockchainActionId, clientId, depositAddress[clientId]);\n    }\n\n    /** @dev Creates a new token/currency.\n      * @param _tokenName  The name of the currency.\n      * @param _decimalUnits The number of decimals the currency has.\n      * @param _tokenSymbol The cyrrency symbol, e.g., GBP\n      */\n    function createCurrency(bytes _blockchainActionId, bytes32 _tokenName, uint8 _decimalUnits, bytes32 _tokenSymbol)\n        public\n        onlyServer\n    {   \n        require(actionStatus[_blockchainActionId] == false);\n        // Check if currency already exists\n        require(currencies[_tokenSymbol] == 0x0);\n        currencies[_tokenSymbol] = new CurrencyToken(address(AM), _tokenName, _decimalUnits, _tokenSymbol);\n        assert(currencies[_tokenSymbol] != 0x0);\n        currenciesSymbols[currencies[_tokenSymbol]] = _tokenSymbol;\n        actionStatus[_blockchainActionId] = true;\n        EventNewCurrency(_blockchainActionId, _tokenName, _decimalUnits, _tokenSymbol, currencies[_tokenSymbol]);\n    }\n\n\n    /** @dev Withdraw an amount of PPT Populous tokens to a blockchain address \n      * @param _blockchainActionId the blockchain action id\n      * @param pptAddress the address of the PPT smart contract\n      * @param accountId the account id of the client\n      * @param depositContract the address of the deposit smart contract\n      * @param to the blockchain address to withdraw and transfer the pokens to\n      * @param inCollateral the amount of pokens withheld by the platform\n      */    \n    function withdrawPPT(bytes _blockchainActionId, address pptAddress, bytes32 accountId, address depositContract, address to, uint amount, uint inCollateral) public onlyServer {\n        require(actionStatus[_blockchainActionId] == false);\n        DepositContract o = DepositContract(depositContract);\n        uint PPT_balance = SafeMath.safeSub(o.balanceOf(pptAddress), inCollateral);\n        require((PPT_balance >= amount) && (o.transfer(pptAddress, to, amount) == true));\n        blockchainActionIdData[_blockchainActionId].currency = \"PPT\";\n        blockchainActionIdData[_blockchainActionId].amount = amount;\n        blockchainActionIdData[_blockchainActionId].accountId = accountId;\n        blockchainActionIdData[_blockchainActionId].to = to;\n        actionStatus[_blockchainActionId] = true;\n        EventWithdrawPPT(_blockchainActionId, accountId, depositContract, to, amount);\n    }\n\n    /** @dev Import all pokens of a particular currency from an ethereum wallet/address \n      * @param _blockchainActionId the blockchain action id\n      * @param accountId the account id of the client\n      * @param from the blockchain address to import pokens from\n      * @param currency the poken currency\n      */\n    function importPokens(bytes _blockchainActionId, bytes32 currency, address from, bytes32 accountId) public onlyServer {\n        require(actionStatus[_blockchainActionId] == false);\n        CurrencyToken CT = CurrencyToken(currencies[currency]);\n        //check balance.\n        uint256 balance = CT.balanceOf(from);\n        //balance is more than 0, and balance has been destroyed.\n        require(CT.balanceOf(from) > 0 && CT.destroyTokensFrom(balance, from) == true);\n        \n        blockchainActionIdData[_blockchainActionId].currency = currency;\n        blockchainActionIdData[_blockchainActionId].amount = balance;\n        blockchainActionIdData[_blockchainActionId].accountId = accountId;\n        blockchainActionIdData[_blockchainActionId].to = from;\n        actionStatus[_blockchainActionId] = true;\n        //emit event: Imported currency to system\n        EventImportPokens(_blockchainActionId, from, accountId,currency,balance);\n    }\n\n    /** @dev Withdraw an amount of pokens to an ethereum wallet/address \n      * @param _blockchainActionId the blockchain action id\n      * @param accountId the account id of the client\n      * @param to the blockchain address to send pokens to\n      * @param amount the amount of pokens to transfer\n      * @param currency the poken currency\n      */\n    function withdrawPoken(bytes _blockchainActionId, bytes32 accountId, address to, uint amount, bytes32 currency) public onlyServer {\n        require(actionStatus[_blockchainActionId] == false);\n        require(currencies[currency] != 0x0);\n\n        CurrencyToken cT = CurrencyToken(currencies[currency]);\n\n        //credit ledger\n        cT.mintTokens(amount);\n        //credit account\n        cT.transfer(to, amount);\n        \n        blockchainActionIdData[_blockchainActionId].currency = currency;\n        blockchainActionIdData[_blockchainActionId].amount = amount;\n        blockchainActionIdData[_blockchainActionId].accountId = accountId;\n        blockchainActionIdData[_blockchainActionId].to = to;\n        actionStatus[_blockchainActionId] = true;\n        //emit event: Imported currency to system\n        EventWithdrawPokens(_blockchainActionId, accountId, to, amount, currency);\n    }\n\n    // CONSTANT METHODS\n\n    /** @dev Get the blockchain invoice Id with a blockchain Action id\n      * @param _blockchainActionId the blockchain action id\n      * @return bytes invoiceId\n      */\n    function getBlockInvoiceId(bytes _blockchainActionId) public view returns (bytes) {\n        require(actionIdToInvoiceId[_blockchainActionId].length != 0);\n        return actionIdToInvoiceId[_blockchainActionId];\n    }\n\n    /** @dev Get the blockchain action Id Data for a blockchain Action id\n      * @param _blockchainActionId the blockchain action id\n      * @return bytes32 currency\n      * @return uint amount\n      * @return bytes32 accountId\n      * @return address to\n      */\n    function getBlockchainActionIdData(bytes _blockchainActionId) public view \n    returns (bytes32, uint, bytes32, address) \n    {\n        require(actionStatus[_blockchainActionId] == true);\n\n        return (blockchainActionIdData[_blockchainActionId].currency, \n                blockchainActionIdData[_blockchainActionId].amount,\n                blockchainActionIdData[_blockchainActionId].accountId,\n                blockchainActionIdData[_blockchainActionId].to);\n    }\n\n    /** @dev Get the bool status of a blockchain Action id\n      * @param _blockchainActionId the blockchain action id\n      * @return bool actionStatus\n      */\n    function getActionStatus(bytes _blockchainActionId) public view returns (bool) {\n        return actionStatus[_blockchainActionId];\n    }\n\n    /** @dev Gets the address of a currency.\n      * @param currency The currency.\n      * @return address The currency address.\n      */\n    function getCurrency(bytes32 currency) public view returns (address) {\n        return currencies[currency];\n    }\n\n    /** @dev Gets the currency symbol of a currency.\n      * @param currency The currency.\n      * @return bytes32 The currency sybmol, e.g., GBP.\n      */\n    function getCurrencySymbol(address currency) public view returns (bytes32) {\n        return currenciesSymbols[currency];\n    }\n\n    /** @dev Gets the deposit address linked to a given client ID.\n      * @param clientId The client ID.\n      * @return address The deposit address.\n      */\n    function getDepositAddress(bytes clientId) public view returns (address) {\n        return depositAddress[clientId];\n    }\n\n    /** @dev Gets the details of an inserted crowdsale record\n      * @param _invoiceId The invoice ID.\n      * @param documentIndex The crowdsale document index.\n      * @return dataHash\n      * @return dataType\n      */\n    function getRecord(bytes _invoiceId, uint documentIndex) public view \n    returns(bytes, bytes32) \n    {\n        return (Blocks[_invoiceId].documents[documentIndex].dataHash,\n                Blocks[_invoiceId].documents[documentIndex].dataType\n                );\n    }\n\n    /** @dev Gets the total numnber of document indexes of a crowdsale record\n      * @param _invoiceId The invoice ID.\n      * @return total number of documents per crowdsale Id\n      */\n    function getRecordDocumentIndexes(bytes _invoiceId) public view\n    returns(uint)\n    {\n        return Blocks[_invoiceId].documents.length;\n    }\n}",
  "sourcePath": "/Users/najienka/Desktop/populous-smartcontracts/contracts/Populous.sol",
  "schemaVersion": "1.0.0",
  "updatedAt": "2018-04-17T13:22:28.696Z"
}