{
  "contractName": "Populous",
  "abi": [
    {
      "constant": false,
      "inputs": [
        {
          "name": "_accessManager",
          "type": "address"
        }
      ],
      "name": "updateAccessManager",
      "outputs": [],
      "payable": false,
      "stateMutability": "nonpayable",
      "type": "function"
    },
    {
      "constant": false,
      "inputs": [
        {
          "name": "clientId",
          "type": "bytes32"
        }
      ],
      "name": "createAddress",
      "outputs": [],
      "payable": false,
      "stateMutability": "nonpayable",
      "type": "function"
    },
    {
      "constant": false,
      "inputs": [
        {
          "name": "_blockchainActionId",
          "type": "bytes"
        },
        {
          "name": "accountId",
          "type": "bytes32"
        },
        {
          "name": "to",
          "type": "address"
        },
        {
          "name": "amount",
          "type": "uint256"
        },
        {
          "name": "currency",
          "type": "bytes32"
        }
      ],
      "name": "withdrawPoken",
      "outputs": [],
      "payable": false,
      "stateMutability": "nonpayable",
      "type": "function"
    },
    {
      "constant": true,
      "inputs": [
        {
          "name": "clientId",
          "type": "bytes32"
        }
      ],
      "name": "getDepositAddress",
      "outputs": [
        {
          "name": "",
          "type": "address"
        }
      ],
      "payable": false,
      "stateMutability": "view",
      "type": "function"
    },
    {
      "constant": true,
      "inputs": [
        {
          "name": "_crowdsaleId",
          "type": "bytes32"
        }
      ],
      "name": "getRecordDocumentIndexes",
      "outputs": [
        {
          "name": "",
          "type": "uint256"
        }
      ],
      "payable": false,
      "stateMutability": "view",
      "type": "function"
    },
    {
      "constant": true,
      "inputs": [
        {
          "name": "currency",
          "type": "address"
        }
      ],
      "name": "getCurrencySymbol",
      "outputs": [
        {
          "name": "",
          "type": "bytes32"
        }
      ],
      "payable": false,
      "stateMutability": "view",
      "type": "function"
    },
    {
      "constant": false,
      "inputs": [
        {
          "name": "_blockchainActionId",
          "type": "bytes"
        },
        {
          "name": "_crowdsaleId",
          "type": "bytes32"
        },
        {
          "name": "_dataHash",
          "type": "bytes"
        },
        {
          "name": "_dataSource",
          "type": "bytes32"
        },
        {
          "name": "_dataType",
          "type": "bytes32"
        }
      ],
      "name": "insertSource",
      "outputs": [],
      "payable": false,
      "stateMutability": "nonpayable",
      "type": "function"
    },
    {
      "constant": false,
      "inputs": [
        {
          "name": "_tokenName",
          "type": "bytes32"
        },
        {
          "name": "_decimalUnits",
          "type": "uint8"
        },
        {
          "name": "_tokenSymbol",
          "type": "bytes32"
        }
      ],
      "name": "createCurrency",
      "outputs": [],
      "payable": false,
      "stateMutability": "nonpayable",
      "type": "function"
    },
    {
      "constant": false,
      "inputs": [
        {
          "name": "_blockchainActionId",
          "type": "bytes"
        },
        {
          "name": "currency",
          "type": "bytes32"
        },
        {
          "name": "from",
          "type": "address"
        },
        {
          "name": "accountId",
          "type": "bytes32"
        }
      ],
      "name": "importPokens",
      "outputs": [],
      "payable": false,
      "stateMutability": "nonpayable",
      "type": "function"
    },
    {
      "constant": false,
      "inputs": [
        {
          "name": "_blockchainActionId",
          "type": "bytes"
        },
        {
          "name": "_crowdsaleId",
          "type": "bytes32"
        },
        {
          "name": "_invoiceId",
          "type": "bytes32"
        },
        {
          "name": "_ipfsHash",
          "type": "bytes"
        },
        {
          "name": "_dataType",
          "type": "bytes32"
        }
      ],
      "name": "insertBlock",
      "outputs": [],
      "payable": false,
      "stateMutability": "nonpayable",
      "type": "function"
    },
    {
      "constant": true,
      "inputs": [
        {
          "name": "currency",
          "type": "bytes32"
        }
      ],
      "name": "getCurrency",
      "outputs": [
        {
          "name": "",
          "type": "address"
        }
      ],
      "payable": false,
      "stateMutability": "view",
      "type": "function"
    },
    {
      "constant": false,
      "inputs": [
        {
          "name": "_blockchainActionId",
          "type": "bytes"
        },
        {
          "name": "pptAddress",
          "type": "address"
        },
        {
          "name": "accountId",
          "type": "bytes32"
        },
        {
          "name": "depositContract",
          "type": "address"
        },
        {
          "name": "to",
          "type": "address"
        },
        {
          "name": "amount",
          "type": "uint256"
        },
        {
          "name": "inCollateral",
          "type": "uint256"
        }
      ],
      "name": "withdrawPPT",
      "outputs": [],
      "payable": false,
      "stateMutability": "nonpayable",
      "type": "function"
    },
    {
      "constant": true,
      "inputs": [
        {
          "name": "_blockchainActionId",
          "type": "bytes"
        }
      ],
      "name": "getActionStatus",
      "outputs": [
        {
          "name": "",
          "type": "bool"
        }
      ],
      "payable": false,
      "stateMutability": "view",
      "type": "function"
    },
    {
      "constant": true,
      "inputs": [
        {
          "name": "_crowdsaleId",
          "type": "bytes32"
        },
        {
          "name": "documentIndex",
          "type": "uint256"
        }
      ],
      "name": "getRecord",
      "outputs": [
        {
          "name": "",
          "type": "bytes32"
        },
        {
          "name": "",
          "type": "bytes"
        },
        {
          "name": "",
          "type": "bytes32"
        },
        {
          "name": "",
          "type": "bytes32"
        }
      ],
      "payable": false,
      "stateMutability": "view",
      "type": "function"
    },
    {
      "constant": true,
      "inputs": [],
      "name": "AM",
      "outputs": [
        {
          "name": "",
          "type": "address"
        }
      ],
      "payable": false,
      "stateMutability": "view",
      "type": "function"
    },
    {
      "inputs": [
        {
          "name": "_accessManager",
          "type": "address"
        }
      ],
      "payable": false,
      "stateMutability": "nonpayable",
      "type": "constructor"
    },
    {
      "anonymous": false,
      "inputs": [
        {
          "indexed": false,
          "name": "blockchainActionId",
          "type": "bytes"
        },
        {
          "indexed": false,
          "name": "crowdsaleId",
          "type": "bytes32"
        },
        {
          "indexed": false,
          "name": "invoiceId",
          "type": "bytes32"
        },
        {
          "indexed": false,
          "name": "sourceLength",
          "type": "uint256"
        }
      ],
      "name": "EventNewCrowdsaleBlock",
      "type": "event"
    },
    {
      "anonymous": false,
      "inputs": [
        {
          "indexed": false,
          "name": "blockchainActionId",
          "type": "bytes"
        },
        {
          "indexed": false,
          "name": "crowdsaleId",
          "type": "bytes32"
        },
        {
          "indexed": false,
          "name": "invoiceId",
          "type": "bytes32"
        },
        {
          "indexed": false,
          "name": "sourceLength",
          "type": "uint256"
        }
      ],
      "name": "EventNewCrowdsaleSource",
      "type": "event"
    },
    {
      "anonymous": false,
      "inputs": [
        {
          "indexed": false,
          "name": "blockchainActionId",
          "type": "bytes"
        },
        {
          "indexed": false,
          "name": "accountId",
          "type": "bytes32"
        },
        {
          "indexed": false,
          "name": "depositContract",
          "type": "address"
        },
        {
          "indexed": false,
          "name": "to",
          "type": "address"
        },
        {
          "indexed": false,
          "name": "amount",
          "type": "uint256"
        }
      ],
      "name": "EventWithdrawPPT",
      "type": "event"
    },
    {
      "anonymous": false,
      "inputs": [
        {
          "indexed": false,
          "name": "blockchainActionId",
          "type": "bytes"
        },
        {
          "indexed": false,
          "name": "accountId",
          "type": "bytes32"
        },
        {
          "indexed": false,
          "name": "to",
          "type": "address"
        },
        {
          "indexed": false,
          "name": "amount",
          "type": "uint256"
        },
        {
          "indexed": false,
          "name": "currency",
          "type": "bytes32"
        }
      ],
      "name": "EventWithdrawPokens",
      "type": "event"
    },
    {
      "anonymous": false,
      "inputs": [
        {
          "indexed": false,
          "name": "blockchainActionId",
          "type": "bytes"
        },
        {
          "indexed": false,
          "name": "from",
          "type": "address"
        },
        {
          "indexed": false,
          "name": "accountId",
          "type": "bytes32"
        },
        {
          "indexed": false,
          "name": "currency",
          "type": "bytes32"
        },
        {
          "indexed": false,
          "name": "balance",
          "type": "uint256"
        }
      ],
      "name": "EventImportPokens",
      "type": "event"
    },
    {
      "anonymous": false,
      "inputs": [
        {
          "indexed": false,
          "name": "tokenName",
          "type": "bytes32"
        },
        {
          "indexed": false,
          "name": "decimalUnits",
          "type": "uint8"
        },
        {
          "indexed": false,
          "name": "tokenSymbol",
          "type": "bytes32"
        },
        {
          "indexed": false,
          "name": "addr",
          "type": "address"
        }
      ],
      "name": "EventNewCurrency",
      "type": "event"
    },
    {
      "anonymous": false,
      "inputs": [
        {
          "indexed": false,
          "name": "clientId",
          "type": "bytes32"
        },
        {
          "indexed": false,
          "name": "depositContractAddress",
          "type": "address"
        }
      ],
      "name": "EventNewDepositContract",
      "type": "event"
    }
  ],
  "bytecode": "0x6060604052341561000f57600080fd5b604051602080612add8339810160405280805160008054600160a060020a03909216600160a060020a03199092169190911790555050612a89806100546000396000f300606060405236156100bf5763ffffffff60e060020a60003504166302ab72c481146100c45780630be2f236146100e55780630ef0e9dd146100fb5780632a01a4511461016857806335d195081461019a578063554c9b6a146101c257806362f2638f146101e157806382cce80f14610280578063a2e75f121461029f578063c9de06af14610306578063d383b80d146103a4578063d6199f32146103ba578063de50767c14610437578063f24d954e1461049c578063f7f01b4b14610543575b600080fd5b34156100cf57600080fd5b6100e3600160a060020a0360043516610556565b005b34156100f057600080fd5b6100e3600435610609565b341561010657600080fd5b6100e360046024813581810190830135806020601f8201819004810201604051908101604052818152929190602084018383808284375094965050843594600160a060020a0360208201351694506040810135935060600135915061076e9050565b341561017357600080fd5b61017e600435610a3d565b604051600160a060020a03909116815260200160405180910390f35b34156101a557600080fd5b6101b0600435610a58565b60405190815260200160405180910390f35b34156101cd57600080fd5b6101b0600160a060020a0360043516610a6d565b34156101ec57600080fd5b6100e360046024813581810190830135806020601f8201819004810201604051908101604052818152929190602084018383808284375094968635969095506040808201955060209182013587018083019550359350839250601f830182900482029091019051908101604052818152929190602084018383808284375094965050843594602001359350610a8892505050565b341561028b57600080fd5b6100e360043560ff60243516604435610c72565b34156102aa57600080fd5b6100e360046024813581810190830135806020601f8201819004810201604051908101604052818152929190602084018383808284375094965050843594600160a060020a036020820135169450604001359250610e48915050565b341561031157600080fd5b6100e360046024813581810190830135806020601f8201819004810201604051908101604052818152929190602084018383808284375094968635966020808201359750919550606081019450604090810135860180830194503592508291601f830181900481020190519081016040528181529291906020840183838082843750949650509335935061115492505050565b34156103af57600080fd5b61017e600435611357565b34156103c557600080fd5b6100e360046024813581810190830135806020601f8201819004810201604051908101604052818152929190602084018383808284375094965050600160a060020a03853581169560208101359550604081013582169450606081013590911692506080810135915060a00135611372565b341561044257600080fd5b61048860046024813581810190830135806020601f8201819004810201604051908101604052818152929190602084018383808284375094965061165e95505050505050565b604051901515815260200160405180910390f35b34156104a757600080fd5b6104b56004356024356116d0565b604051848152604081018390526060810182905260806020820181815290820185818151815260200191508051906020019080838360005b838110156105055780820151838201526020016104ed565b50505050905090810190601f1680156105325780820380516001836020036101000a031916815260200191505b509550505050505060405180910390f35b341561054e57600080fd5b61017e611821565b60008054600160a060020a03169063fda089589033906040516020015260405160e060020a63ffffffff8416028152600160a060020a039091166004820152602401602060405180830381600087803b15156105b157600080fd5b6102c65a03f115156105c257600080fd5b5050506040518051151560011490506105da57600080fd5b6000805473ffffffffffffffffffffffffffffffffffffffff1916600160a060020a0392909216919091179055565b60008054600160a060020a03169063fda089589033906040516020015260405160e060020a63ffffffff8416028152600160a060020a039091166004820152602401602060405180830381600087803b151561066457600080fd5b6102c65a03f1151561067557600080fd5b50505060405180511515600114905061068d57600080fd5b6000548190600160a060020a03166106a3611842565b918252600160a060020a0316602082015260409081019051809103906000f08015156106ce57600080fd5b6000828152600460205260409020805473ffffffffffffffffffffffffffffffffffffffff1916600160a060020a03928316179081905516151561070e57fe5b60008181526004602052604090819020547f331e8d7fbf36512cd5eb514f38db31465c8f937497c179aa3eda3250125028fc918391600160a060020a03169051918252600160a060020a031660208201526040908101905180910390a150565b60008054600160a060020a031663fda0895833836040516020015260405160e060020a63ffffffff8416028152600160a060020a039091166004820152602401602060405180830381600087803b15156107c757600080fd5b6102c65a03f115156107d857600080fd5b5050506040518051151560011490506107f057600080fd5b600082815260016020526040902054600160a060020a0316151561081357600080fd5b506000818152600160205260409081902054600160a060020a03169081906397304ced9085905160e060020a63ffffffff84160281526004810191909152602401600060405180830381600087803b151561086d57600080fd5b6102c65a03f1151561087e57600080fd5b50505080600160a060020a031663a9059cbb858560006040516020015260405160e060020a63ffffffff8516028152600160a060020a0390921660048301526024820152604401602060405180830381600087803b15156108de57600080fd5b6102c65a03f115156108ef57600080fd5b505050604051805190505060016003876040518082805190602001908083835b6020831061092e5780518252601f19909201916020918201910161090f565b6001836020036101000a038019825116818451168082178552505050505050905001915050908152602001604051908190039020805460ff19169115159190911790557f57964db8f7682abd9c79b37add175ce412cb1873b91b500c4b718f5a2d6164b8868686868660405160208101859052600160a060020a0384166040820152606081018390526080810182905260a08082528190810187818151815260200191508051906020019080838360005b838110156109f75780820151838201526020016109df565b50505050905090810190601f168015610a245780820380516001836020036101000a031916815260200191505b50965050505050505060405180910390a1505050505050565b600090815260046020526040902054600160a060020a031690565b60009081526005602052604090206002015490565b600160a060020a031660009081526002602052604090205490565b600084815260056020526040902060019081015460ff16151514610aab57600080fd5b6000848152600560205260409020600201805460018101610acc8382611852565b9160005260206000209060030201600060606040519081016040908152878252602082018790528101859052919050815181908051610b0f929160200190611883565b5060208201516001820155604082015160029091015550600190506003866040518082805190602001908083835b60208310610b5c5780518252601f199092019160209182019101610b3d565b6001836020036101000a038019825116818451168082178552505050505050905001915050908152602001604051908190039020805460ff19169115159190911790556000848152600560205260409020547fe19391c3b6a91e944fca9a99f2a92defdf735a7eab612a63672727bb697f3b3a9086908690610bdd82610a58565b60405160208101849052604081018390526060810182905260808082528190810186818151815260200191508051906020019080838360005b83811015610c2e578082015183820152602001610c16565b50505050905090810190601f168015610c5b5780820380516001836020036101000a031916815260200191505b509550505050505060405180910390a15050505050565b60008054600160a060020a03169063fda089589033906040516020015260405160e060020a63ffffffff8416028152600160a060020a039091166004820152602401602060405180830381600087803b1515610ccd57600080fd5b6102c65a03f11515610cde57600080fd5b505050604051805115156001149050610cf657600080fd5b600081815260016020526040902054600160a060020a031615610d1857600080fd5b600054600160a060020a0316838383610d2f611901565b600160a060020a039094168452602084019290925260ff16604080840191909152606083019190915260809091019051809103906000f0801515610d7257600080fd5b6000828152600160205260409020805473ffffffffffffffffffffffffffffffffffffffff1916600160a060020a039283161790819055161515610db257fe5b60008181526001602081815260408084208054600160a060020a03908116865260028452828620879055948690529290915290547f49ed04561088f8c4d4b6cf512cfd6e87722fae11971dad08e91c480f46ef0a909286928692869216905193845260ff9092166020840152604080840191909152600160a060020a0390911660608301526080909101905180910390a1505050565b600080548190600160a060020a031663fda0895833836040516020015260405160e060020a63ffffffff8416028152600160a060020a039091166004820152602401602060405180830381600087803b1515610ea357600080fd5b6102c65a03f11515610eb457600080fd5b505050604051805115156001149050610ecc57600080fd5b60008581526001602052604080822054600160a060020a0316935083916370a0823191879190516020015260405160e060020a63ffffffff8416028152600160a060020a039091166004820152602401602060405180830381600087803b1515610f3557600080fd5b6102c65a03f11515610f4657600080fd5b505050604051805190509050600082600160a060020a03166370a082318660006040516020015260405160e060020a63ffffffff8416028152600160a060020a039091166004820152602401602060405180830381600087803b1515610fab57600080fd5b6102c65a03f11515610fbc57600080fd5b5050506040518051905011801561104d575081600160a060020a0316630156b323828660006040516020015260405160e060020a63ffffffff85160281526004810192909252600160a060020a03166024820152604401602060405180830381600087803b151561102c57600080fd5b6102c65a03f1151561103d57600080fd5b5050506040518051151560011490505b151561105857600080fd5b60016003876040518082805190602001908083835b6020831061108c5780518252601f19909201916020918201910161106d565b6001836020036101000a038019825116818451168082178552505050505050905001915050908152602001604051908190039020805460ff19169115159190911790557fe8b33780aea6a4076fdd50e5eecd5a270bbda828e7f9cbd00942d03b229bd07a8685858885604051600160a060020a038516602082015260408101849052606081018390526080810182905260a0808252819081018781815181526020019150805190602001908083836000838110156109f75780820151838201526020016109df565b60008054600160a060020a03169063fda089589033906040516020015260405160e060020a63ffffffff8416028152600160a060020a039091166004820152602401602060405180830381600087803b15156111af57600080fd5b6102c65a03f115156111c057600080fd5b5050506040518051151560011490506111d857600080fd5b60008481526005602052604090206001015460ff16156111f757600080fd5b60008481526005602052604090206002018054600181016112188382611852565b91600052602060002090600302016000606060405190810160409081528682527f69706673000000000000000000000000000000000000000000000000000000006020830152810185905291905081518190805161127a929160200190611883565b506020820151600182015560408201516002909101555050600084815260056020526040908190208481556001908101805460ff191682179055906003908790518082805190602001908083835b602083106112e75780518252601f1990920191602091820191016112c8565b6001836020036101000a038019825116818451168082178552505050505050905001915050908152602001604051908190039020805460ff19169115159190911790557ff43df57c7425bdf3d4ff7cf74a47143a7ea9ca88471cfa77281bdbd42f8316a9858585610bdd82610a58565b600090815260016020526040902054600160a060020a031690565b600080548190600160a060020a031663fda0895833836040516020015260405160e060020a63ffffffff8416028152600160a060020a039091166004820152602401602060405180830381600087803b15156113cd57600080fd5b6102c65a03f115156113de57600080fd5b5050506040518051151560011490506113f657600080fd5b85915061147482600160a060020a03166370a082318a60006040516020015260405160e060020a63ffffffff8416028152600160a060020a039091166004820152602401602060405180830381600087803b151561145357600080fd5b6102c65a03f1151561146457600080fd5b5050506040518051905084611830565b905083811015801561150c575081600160a060020a031663beabacc889878760006040516020015260405160e060020a63ffffffff8616028152600160a060020a0393841660048201529190921660248201526044810191909152606401602060405180830381600087803b15156114eb57600080fd5b6102c65a03f115156114fc57600080fd5b5050506040518051151560011490505b151561151757600080fd5b600160038a6040518082805190602001908083835b6020831061154b5780518252601f19909201916020918201910161152c565b6001836020036101000a038019825116818451168082178552505050505050905001915050908152602001604051908190039020805460ff19169115159190911790557f0d02d204bbb0257143767d943084f52523931868befb38726d0a239d12fb1b42898888888860405160208101859052600160a060020a038085166040830152831660608201526080810182905260a08082528190810187818151815260200191508051906020019080838360005b838110156116155780820151838201526020016115fd565b50505050905090810190601f1680156116425780820380516001836020036101000a031916815260200191505b50965050505050505060405180910390a1505050505050505050565b60006003826040518082805190602001908083835b602083106116925780518252601f199092019160209182019101611673565b6001836020036101000a0380198251168184511680821785525050505050509050019150509081526020016040519081900390205460ff1692915050565b60006116da611911565b600084815260056020526040812080546002909101805483929190879081106116ff57fe5b600091825260208083208a8452600590915260409092206002018054600390920290920191908890811061172f57fe5b60009182526020808320600160039093020191909101548a83526005909152604090912060020180548990811061176257fe5b906000526020600020906003020160020154828054600181600116156101000203166002900480601f0160208091040260200160405190810160405280929190818152602001828054600181600116156101000203166002900480156118095780601f106117de57610100808354040283529160200191611809565b820191906000526020600020905b8154815290600101906020018083116117ec57829003601f168201915b50505050509250935093509350935092959194509250565b600054600160a060020a031681565b60008282111561183c57fe5b50900390565b60405161044b806119b983390190565b81548183558181151161187e5760030281600302836000526020600020918201910161187e9190611923565b505050565b828054600181600116156101000203166002900490600052602060002090601f016020900481019282601f106118c457805160ff19168380011785556118f1565b828001600101855582156118f1579182015b828111156118f15782518255916020019190600101906118d6565b506118fd929150611957565b5090565b604051610c5a80611e0483390190565b60206040519081016040526000815290565b61195491905b808211156118fd57600061193d8282611971565b506000600182018190556002820155600301611929565b90565b61195491905b808211156118fd576000815560010161195d565b50805460018160011615610100020316600290046000825580601f1061199757506119b5565b601f0160209004906000526020600020908101906119b59190611957565b5056006060604052341561000f57600080fd5b60405160408061044b833981016040528080519190602001805160008054600160a060020a03909216600160a060020a031990921691909117905550506001556103ed8061005e6000396000f300606060405263ffffffff60e060020a60003504166302ab72c4811461004457806370a0823114610065578063beabacc814610096578063f7f01b4b146100d257600080fd5b341561004f57600080fd5b610063600160a060020a0360043516610101565b005b341561007057600080fd5b610084600160a060020a03600435166101b4565b60405190815260200160405180910390f35b34156100a157600080fd5b6100be600160a060020a036004358116906024351660443561022d565b604051901515815260200160405180910390f35b34156100dd57600080fd5b6100e56103b2565b604051600160a060020a03909116815260200160405180910390f35b60008054600160a060020a03169063fda089589033906040516020015260405160e060020a63ffffffff8416028152600160a060020a039091166004820152602401602060405180830381600087803b151561015c57600080fd5b6102c65a03f1151561016d57600080fd5b50505060405180511515600114905061018557600080fd5b6000805473ffffffffffffffffffffffffffffffffffffffff1916600160a060020a0392909216919091179055565b600081600160a060020a03166370a082313060006040516020015260405160e060020a63ffffffff8416028152600160a060020a039091166004820152602401602060405180830381600087803b151561020d57600080fd5b6102c65a03f1151561021e57600080fd5b50505060405180519392505050565b60008054600160a060020a031663fda0895833836040516020015260405160e060020a63ffffffff8416028152600160a060020a039091166004820152602401602060405180830381600087803b151561028657600080fd5b6102c65a03f1151561029757600080fd5b50505060405180511515600114905080610328575060008054600160a060020a0316906305fd22d09033906040516020015260405160e060020a63ffffffff8416028152600160a060020a039091166004820152602401602060405180830381600087803b151561030757600080fd5b6102c65a03f1151561031857600080fd5b5050506040518051151560011490505b151561033357600080fd5b83600160a060020a031663a9059cbb848460006040516020015260405160e060020a63ffffffff8516028152600160a060020a0390921660048301526024820152604401602060405180830381600087803b151561039057600080fd5b6102c65a03f115156103a157600080fd5b505050604051805195945050505050565b600054600160a060020a0316815600a165627a7a72305820457ef6ea7f253c41a95074f2a5e5253acfaa51743c122bda2c1b43a58b2f63500029606060405260008055341561001357600080fd5b604051608080610c5a8339810160405280805191906020018051919060200180519190602001805160068054600160a060020a031916600160a060020a03979097169690961790955550506001919091556002805460ff191660ff909216919091179055600355610bd1806100896000396000f300606060405236156100ca5763ffffffff60e060020a6000350416630156b32381146100cf57806302ab72c41461010557806306fdde0314610126578063095ea7b31461014b57806318160ddd1461016d57806323b872dd1461018057806327e235e3146101a8578063313ce567146101c75780635c658165146101f057806367fbd2891461021557806370a082311461022b57806395d89b411461024a57806397304ced1461025d578063a9059cbb14610273578063dd62ed3e14610295578063f7f01b4b146102ba575b600080fd5b34156100da57600080fd5b6100f1600435600160a060020a03602435166102e9565b604051901515815260200160405180910390f35b341561011057600080fd5b610124600160a060020a03600435166103ed565b005b341561013157600080fd5b61013961049e565b60405190815260200160405180910390f35b341561015657600080fd5b6100f1600160a060020a03600435166024356104a4565b341561017857600080fd5b610139610510565b341561018b57600080fd5b6100f1600160a060020a0360043581169060243516604435610516565b34156101b357600080fd5b610139600160a060020a036004351661061c565b34156101d257600080fd5b6101da61062e565b60405160ff909116815260200160405180910390f35b34156101fb57600080fd5b610139600160a060020a0360043581169060243516610637565b341561022057600080fd5b6100f1600435610654565b341561023657600080fd5b610139600160a060020a0360043516610898565b341561025557600080fd5b6101396108b3565b341561026857600080fd5b6101246004356108b9565b341561027e57600080fd5b6100f1600160a060020a0360043516602435610aa1565b34156102a057600080fd5b610139600160a060020a0360043581169060243516610b35565b34156102c557600080fd5b6102cd610b60565b604051600160a060020a03909116815260200160405180910390f35b600654600090600160a060020a03166305fd22d033836040516020015260405160e060020a63ffffffff8416028152600160a060020a039091166004820152602401602060405180830381600087803b151561034457600080fd5b6102c65a03f1151561035557600080fd5b50505060405180511515600114905061036d57600080fd5b600160a060020a03821660009081526004602052604090205483901015610396575060006103e7565b600160a060020a0382166000908152600460205260409020546103b99084610b6f565b600160a060020a038316600090815260046020526040812091909155546103e09084610b6f565b6000555060015b92915050565b600654600160a060020a031663fda089583360006040516020015260405160e060020a63ffffffff8416028152600160a060020a039091166004820152602401602060405180830381600087803b151561044657600080fd5b6102c65a03f1151561045757600080fd5b50505060405180511515600114905061046f57600080fd5b6006805473ffffffffffffffffffffffffffffffffffffffff1916600160a060020a0392909216919091179055565b60015481565b600160a060020a03338116600081815260056020908152604080832094871680845294909152808220859055909291907f8c5be1e5ebec7d5bd14f71427d1e84f3dd0314c0f7b2291e5b200ac8c7c3b9259085905190815260200160405180910390a350600192915050565b60005481565b600160a060020a03808416600081815260056020908152604080832033909516835293815283822054928252600490529182205483901080159061055a5750828110155b151561056557600080fd5b600160a060020a03808516600090815260046020526040808220805487019055918716815220805484900390556000198110156105ca57600160a060020a03808616600090815260056020908152604080832033909416835292905220805484900390555b83600160a060020a031685600160a060020a03167fddf252ad1be2c89b69c2b068fc378daa952ba7f163c4a11628f55a4df523b3ef8560405190815260200160405180910390a3506001949350505050565b60046020526000908152604090205481565b60025460ff1681565b600560209081526000928352604080842090915290825290205481565b600654600090600160a060020a03166305fd22d033836040516020015260405160e060020a63ffffffff8416028152600160a060020a039091166004820152602401602060405180830381600087803b15156106af57600080fd5b6102c65a03f115156106c057600080fd5b5050506040518051151560011490506106d857600080fd5b6006548290600490600090600160a060020a03166394a3760f82604051602001526040518163ffffffff1660e060020a028152600401602060405180830381600087803b151561072757600080fd5b6102c65a03f1151561073857600080fd5b5050506040518051600160a060020a0316825250602081019190915260400160002054101561076957506000610893565b6006546107f490600490600090600160a060020a03166394a3760f82604051602001526040518163ffffffff1660e060020a028152600401602060405180830381600087803b15156107ba57600080fd5b6102c65a03f115156107cb57600080fd5b5050506040518051600160a060020a031682525060208101919091526040016000205483610b6f565b600654600490600090600160a060020a03166394a3760f82604051602001526040518163ffffffff1660e060020a028152600401602060405180830381600087803b151561084157600080fd5b6102c65a03f1151561085257600080fd5b50505060405180519050600160a060020a0316600160a060020a031681526020019081526020016000208190555061088c60005483610b6f565b6000555060015b919050565b600160a060020a031660009081526004602052604090205490565b60035481565b600654600160a060020a03166305fd22d03360006040516020015260405160e060020a63ffffffff8416028152600160a060020a039091166004820152602401602060405180830381600087803b151561091257600080fd5b6102c65a03f1151561092357600080fd5b50505060405180511515600114905061093b57600080fd5b6006546109c690600490600090600160a060020a03166394a3760f82604051602001526040518163ffffffff1660e060020a028152600401602060405180830381600087803b151561098c57600080fd5b6102c65a03f1151561099d57600080fd5b5050506040518051600160a060020a031682525060208101919091526040016000205482610b81565b600654600490600090600160a060020a03166394a3760f82604051602001526040518163ffffffff1660e060020a028152600401602060405180830381600087803b1515610a1357600080fd5b6102c65a03f11515610a2457600080fd5b50505060405180519050600160a060020a0316600160a060020a0316815260200190815260200160002081905550610a5e60005482610b81565b6000556003547fb83a9cb495aa43a9871c87805ab90712a5f703de6d66d16b96d7afcc91bb3299908260405191825260208201526040908101905180910390a150565b600160a060020a03331660009081526004602052604081205482901015610ac757600080fd5b600160a060020a033381166000818152600460205260408082208054879003905592861680825290839020805486019055917fddf252ad1be2c89b69c2b068fc378daa952ba7f163c4a11628f55a4df523b3ef9085905190815260200160405180910390a350600192915050565b600160a060020a03918216600090815260056020908152604080832093909416825291909152205490565b600654600160a060020a031681565b600082821115610b7b57fe5b50900390565b6000828201838110801590610b965750828110155b1515610b9e57fe5b93925050505600a165627a7a72305820e1ea077b2b747f054457cdf87652fe476bd655b3ae3d86f141a150193e83ec3e0029a165627a7a723058209e02b12eb0f253482eefee0b1ba084641b2304f26d81182033cb842a605006d60029",
  "source": "/**\nThis is the core module of the system. Currently it holds the code of\nthe Bank and crowdsale modules to avoid external calls and higher gas costs.\nIt might be a good idea in the future to split the code, separate Bank\nand crowdsale modules into external files and have the core interact with them\nwith addresses and interfaces. \n*/\npragma solidity ^0.4.17;\n\nimport \"./iERC20Token.sol\";\nimport \"./CurrencyToken.sol\";\nimport \"./DepositContract.sol\";\nimport \"./SafeMath.sol\";\n\n/// @title Populous contract\ncontract Populous is withAccessManager {\n\n    // EVENTS\n    event EventNewCrowdsaleBlock(bytes blockchainActionId, bytes32 crowdsaleId, bytes32 invoiceId, uint sourceLength);\n    event EventNewCrowdsaleSource(bytes blockchainActionId, bytes32 crowdsaleId, bytes32 invoiceId, uint sourceLength);\n    // Bank events\n    event EventWithdrawPPT(bytes blockchainActionId, bytes32 accountId, address depositContract, address to, uint amount);\n    event EventWithdrawPokens(bytes blockchainActionId, bytes32 accountId, address to, uint amount, bytes32 currency);\n    event EventImportPokens(bytes blockchainActionId, address from, bytes32 accountId, bytes32 currency, uint balance);\n    event EventNewCurrency(bytes32 tokenName, uint8 decimalUnits, bytes32 tokenSymbol, address addr);\n    event EventNewDepositContract(bytes32 clientId, address depositContractAddress);\n\n    // FIELDS\n    mapping(bytes32 => address) currencies;\n    mapping(address => bytes32) currenciesSymbols;\n    mapping(bytes => bool) actionStatus;\n\n\n    // This variable will be used to keep track of client IDs and\n    // their deposit addresses\n    // clientId => depositAddress\n    mapping (bytes32 => address) depositAddress;\n\n    struct storageSource {\n        bytes dataHash;\n        bytes32 dataSource; // upload provider: ipfs / aws (uploaded to our aws server) / ... who provides the storage for this information.\n        bytes32 dataType; // crowdsale (creators, bids) + addresses /exchange_date/deposit_history (latest)/ -- for external auditing.\n    }\n\n    struct record {\n       bytes32 invoiceId;\n       bool isSet;\n       storageSource[] documents; //source[0] = [\"0x23222324\"]\n    }\n\n    //crowdsaleId => (invoiceId, documents [\"crowdsale_log\",\"exchange_history\",\"deposit_history\"])\n    mapping(bytes32 => record) Blocks;\n\n\n    // NON-CONSTANT METHODS\n    // Constructor method called when contract instance is \n    // deployed with 'withAccessManager' modifier.\n    function Populous(address _accessManager) public withAccessManager(_accessManager) { }\n    /**\n    BANK MODULE\n    */\n\n\n    // NON-CONSTANT METHODS\n\n    /** @dev Insert a crowdsale record for a specific invoice crowdsale id. \n      * Limited to only the server address or platform admin\n      * @param _blockchainActionId the blockchain action id\n      * @param _crowdsaleId the crowdsale identifier\n      * @param _invoiceId the invoice id      \n      * @param _ipfsHash the ipfs hash of the invoice file\n      * @param _dataType the data type\n      */ \n    function insertBlock(bytes _blockchainActionId, bytes32 _crowdsaleId, bytes32 _invoiceId, \n        bytes _ipfsHash, bytes32 _dataType) \n    public\n    onlyServer\n    {\n        require(Blocks[_crowdsaleId].isSet == false);\n        Blocks[_crowdsaleId].documents.push(storageSource(\n           _ipfsHash,\n           \"ipfs\",\n           _dataType)\n        );\n\n        // record the history of a crowdsale on the ledger, with internal and external logs, and interal address too so it can be easily audited using etherscan\n        Blocks[_crowdsaleId].invoiceId = _invoiceId;\n\n        Blocks[_crowdsaleId].isSet = true;\n\n        actionStatus[_blockchainActionId] = true;\n        EventNewCrowdsaleBlock(_blockchainActionId, _crowdsaleId, _invoiceId, getRecordDocumentIndexes(_crowdsaleId));\n\n    }\n\n    /** @dev Insert a crowdsale record for a specific invoice crowdsale id \n      * @param _blockchainActionId the blockchain action id\n      * @param _crowdsaleId the crowdsale identifier\n      * @param _dataHash the hash of the data/record\n      * @param _dataSource the data source\n      * @param _dataType the data type\n      */ \n    function insertSource(bytes _blockchainActionId, bytes32 _crowdsaleId, bytes _dataHash, bytes32 _dataSource, bytes32 _dataType) public {\n        require(Blocks[_crowdsaleId].isSet == true);\n\n        Blocks[_crowdsaleId].documents.push(storageSource(\n           _dataHash,\n           _dataSource,\n           _dataType)\n        );\n        actionStatus[_blockchainActionId] = true;\n        EventNewCrowdsaleSource(_blockchainActionId, _crowdsaleId, Blocks[_crowdsaleId].invoiceId, getRecordDocumentIndexes(_crowdsaleId));\n    }\n    /** @dev Creates a new 'depositAddress' gotten from deploying a deposit contract linked to a client ID\n      * @param clientId The bytes32 client ID\n      * @return address The address of the deployed deposit contract instance.\n      */\n    function createAddress(bytes32 clientId) public\n        onlyServer\n    {\n        depositAddress[clientId] = new DepositContract(clientId, AM);\n        assert(depositAddress[clientId] != 0x0);\n\n        EventNewDepositContract(clientId, depositAddress[clientId]);\n    }\n\n    /** @dev Creates a new token/currency.\n      * @param _tokenName  The name of the currency.\n      * @param _decimalUnits The number of decimals the currency has.\n      * @param _tokenSymbol The cyrrency symbol, e.g., GBP\n      */\n    function createCurrency(bytes32 _tokenName, uint8 _decimalUnits, bytes32 _tokenSymbol)\n        public\n        onlyServer\n    {\n        // Check if currency already exists\n        require(currencies[_tokenSymbol] == 0x0);\n\n        currencies[_tokenSymbol] = new CurrencyToken(address(AM), _tokenName, _decimalUnits, _tokenSymbol);\n        \n        assert(currencies[_tokenSymbol] != 0x0);\n\n        currenciesSymbols[currencies[_tokenSymbol]] = _tokenSymbol;\n\n        EventNewCurrency(_tokenName, _decimalUnits, _tokenSymbol, currencies[_tokenSymbol]);\n    }\n\n\n    /** @dev Withdraw an amount of PPT Populous tokens to a blockchain address \n      * @param _blockchainActionId the blockchain action id\n      * @param pptAddress the address of the PPT smart contract\n      * @param accountId the account id of the client\n      * @param depositContract the address of the deposit smart contract\n      * @param to the blockchain address to withdraw and transfer the pokens to\n      * @param inCollateral the amount of pokens withheld by the platform\n      */    \n    function withdrawPPT(bytes _blockchainActionId, address pptAddress, bytes32 accountId, address depositContract, address to, uint amount, uint inCollateral) public onlyServer {\n        DepositContract o = DepositContract(depositContract);\n        uint PPT_balance = SafeMath.safeSub(o.balanceOf(pptAddress), inCollateral);\n        require((PPT_balance >= amount) && (o.transfer(pptAddress, to, amount) == true));\n        actionStatus[_blockchainActionId] = true;\n        EventWithdrawPPT(_blockchainActionId, accountId, depositContract, to, amount);\n    }\n\n    /** @dev Import all pokens of a particular currency from an ethereum wallet/address \n      * @param _blockchainActionId the blockchain action id\n      * @param accountId the account id of the client\n      * @param from the blockchain address to import pokens from\n      * @param currency the poken currency\n      */\n    function importPokens(bytes _blockchainActionId, bytes32 currency, address from, bytes32 accountId) public onlyServer {\n        CurrencyToken CT = CurrencyToken(currencies[currency]);\n        \n        //check balance.\n        uint256 balance = CT.balanceOf(from);\n        //balance is more than 0, and balance has been destroyed.\n        require(CT.balanceOf(from) > 0 && CT.destroyTokensFrom(balance, from) == true);\n        actionStatus[_blockchainActionId] = true;\n        //emit event: Imported currency to system\n        EventImportPokens(_blockchainActionId, from, accountId,currency,balance);\n    }\n\n    /** @dev Withdraw an amount of pokens to an ethereum wallet/address \n      * @param _blockchainActionId the blockchain action id\n      * @param accountId the account id of the client\n      * @param to the blockchain address to send pokens to\n      * @param amount the amount of pokens to transfer\n      * @param currency the poken currency\n      */\n    function withdrawPoken(bytes _blockchainActionId, bytes32 accountId, address to, uint amount, bytes32 currency) public onlyServer {\n        require(currencies[currency] != 0x0);\n\n        CurrencyToken cT = CurrencyToken(currencies[currency]);\n\n        //credit ledger\n        cT.mintTokens(amount);\n        //credit account\n        cT.transfer(to, amount);\n        actionStatus[_blockchainActionId] = true;\n        //emit event: Imported currency to system\n        EventWithdrawPokens(_blockchainActionId, accountId, to, amount, currency);\n    }\n\n    // CONSTANT METHODS\n\n    /** @dev Get the bool status of a blockchain Action id\n      * @param _blockchainActionId the blockchain action id\n      * @return bool actionStatus\n      */\n    function getActionStatus(bytes _blockchainActionId) public view returns (bool) {\n        return actionStatus[_blockchainActionId];\n    }\n\n    /** @dev Gets the address of a currency.\n      * @param currency The currency.\n      * @return address The currency address.\n      */\n    function getCurrency(bytes32 currency) public view returns (address) {\n        return currencies[currency];\n    }\n\n    /** @dev Gets the currency symbol of a currency.\n      * @param currency The currency.\n      * @return bytes32 The currency sybmol, e.g., GBP.\n      */\n    function getCurrencySymbol(address currency) public view returns (bytes32) {\n        return currenciesSymbols[currency];\n    }\n    /** @dev Gets the deposit address linked to a given client ID.\n      * @param clientId The client ID.\n      * @return address The deposit address.\n      */\n    function getDepositAddress(bytes32 clientId) public view returns (address) {\n        return depositAddress[clientId];\n    }\n\n    /** @dev Gets the details of an inserted crowdsale record\n      * @param _crowdsaleId The crowdsale ID.\n      * @param documentIndex The crowdsale document index.\n      * @return invoiceId\n      * @return dataHash\n      * @return dataSource\n      * @return dataType\n      */\n    function getRecord(bytes32 _crowdsaleId, uint documentIndex) public view \n    returns(bytes32, bytes, bytes32, bytes32) \n    {\n        return (Blocks[_crowdsaleId].invoiceId,\n                Blocks[_crowdsaleId].documents[documentIndex].dataHash,\n                Blocks[_crowdsaleId].documents[documentIndex].dataSource,\n                Blocks[_crowdsaleId].documents[documentIndex].dataType\n                );\n    }\n\n    /** @dev Gets the total numnber of document indexes of a crowdsale record\n      * @param _crowdsaleId The crowdsale ID.\n      * @return total number of documents per crowdsale Id\n      */\n    function getRecordDocumentIndexes(bytes32 _crowdsaleId) public view\n    returns(uint)\n    {\n        return Blocks[_crowdsaleId].documents.length;\n    }\n}",
  "sourcePath": "/Users/najienka/Desktop/populous-smartcontracts/contracts/Populous.sol",
  "schemaVersion": "1.0.0",
  "updatedAt": "2018-04-02T10:44:39.165Z"
}