{
  "contractName": "Populous",
  "abi": [
    {
      "constant": false,
      "inputs": [
        {
          "name": "_accessManager",
          "type": "address"
        }
      ],
      "name": "updateAccessManager",
      "outputs": [],
      "payable": false,
      "stateMutability": "nonpayable",
      "type": "function"
    },
    {
      "constant": false,
      "inputs": [
        {
          "name": "_blockchainActionId",
          "type": "bytes32"
        },
        {
          "name": "_providerUserId",
          "type": "bytes32"
        },
        {
          "name": "_invoiceCountryCode",
          "type": "bytes2"
        },
        {
          "name": "_invoiceCompanyNumber",
          "type": "bytes32"
        },
        {
          "name": "_invoiceCompanyName",
          "type": "bytes32"
        },
        {
          "name": "_invoiceNumber",
          "type": "bytes32"
        }
      ],
      "name": "addInvoice",
      "outputs": [],
      "payable": false,
      "stateMutability": "nonpayable",
      "type": "function"
    },
    {
      "constant": false,
      "inputs": [
        {
          "name": "_blockchainActionId",
          "type": "bytes32"
        },
        {
          "name": "clientId",
          "type": "bytes32"
        }
      ],
      "name": "createAddress",
      "outputs": [],
      "payable": false,
      "stateMutability": "nonpayable",
      "type": "function"
    },
    {
      "constant": true,
      "inputs": [],
      "name": "getDataManager",
      "outputs": [
        {
          "name": "_dm",
          "type": "address"
        }
      ],
      "payable": false,
      "stateMutability": "view",
      "type": "function"
    },
    {
      "constant": false,
      "inputs": [
        {
          "name": "_blockchainActionId",
          "type": "bytes32"
        },
        {
          "name": "_userId",
          "type": "bytes32"
        },
        {
          "name": "_companyNumber",
          "type": "bytes32"
        },
        {
          "name": "_companyName",
          "type": "bytes32"
        },
        {
          "name": "_countryCode",
          "type": "bytes2"
        }
      ],
      "name": "addProvider",
      "outputs": [],
      "payable": false,
      "stateMutability": "nonpayable",
      "type": "function"
    },
    {
      "constant": false,
      "inputs": [
        {
          "name": "_blockchainActionId",
          "type": "bytes32"
        },
        {
          "name": "_clientId",
          "type": "bytes32"
        },
        {
          "name": "_depositContract",
          "type": "address"
        }
      ],
      "name": "upgradeDepositAddress",
      "outputs": [],
      "payable": false,
      "stateMutability": "nonpayable",
      "type": "function"
    },
    {
      "constant": false,
      "inputs": [
        {
          "name": "_blockchainActionId",
          "type": "bytes32"
        },
        {
          "name": "_currencyAddress",
          "type": "address"
        },
        {
          "name": "_tokenSymbol",
          "type": "bytes32"
        }
      ],
      "name": "upgradeCurrency",
      "outputs": [],
      "payable": false,
      "stateMutability": "nonpayable",
      "type": "function"
    },
    {
      "constant": false,
      "inputs": [
        {
          "name": "_blockchainActionId",
          "type": "bytes32"
        },
        {
          "name": "currency",
          "type": "bytes32"
        },
        {
          "name": "amount",
          "type": "uint256"
        },
        {
          "name": "from",
          "type": "address"
        },
        {
          "name": "to",
          "type": "address"
        },
        {
          "name": "accountId",
          "type": "bytes32"
        },
        {
          "name": "inCollateral",
          "type": "uint256"
        },
        {
          "name": "pptAddress",
          "type": "address"
        },
        {
          "name": "pptFee",
          "type": "uint256"
        },
        {
          "name": "adminExternalWallet",
          "type": "address"
        },
        {
          "name": "toBank",
          "type": "bool"
        }
      ],
      "name": "withdrawPoken",
      "outputs": [],
      "payable": false,
      "stateMutability": "nonpayable",
      "type": "function"
    },
    {
      "constant": false,
      "inputs": [
        {
          "name": "_blockchainActionId",
          "type": "bytes32"
        },
        {
          "name": "_tokenName",
          "type": "bytes32"
        },
        {
          "name": "_decimalUnits",
          "type": "uint8"
        },
        {
          "name": "_tokenSymbol",
          "type": "bytes32"
        }
      ],
      "name": "createCurrency",
      "outputs": [],
      "payable": false,
      "stateMutability": "nonpayable",
      "type": "function"
    },
    {
      "constant": false,
      "inputs": [
        {
          "name": "_blockchainActionId",
          "type": "bytes32"
        },
        {
          "name": "pptAddress",
          "type": "address"
        },
        {
          "name": "accountId",
          "type": "bytes32"
        },
        {
          "name": "to",
          "type": "address"
        },
        {
          "name": "amount",
          "type": "uint256"
        },
        {
          "name": "inCollateral",
          "type": "uint256"
        },
        {
          "name": "pptFee",
          "type": "uint256"
        },
        {
          "name": "adminExternalWallet",
          "type": "address"
        }
      ],
      "name": "withdrawERC20",
      "outputs": [],
      "payable": false,
      "stateMutability": "nonpayable",
      "type": "function"
    },
    {
      "constant": true,
      "inputs": [],
      "name": "AM",
      "outputs": [
        {
          "name": "",
          "type": "address"
        }
      ],
      "payable": false,
      "stateMutability": "view",
      "type": "function"
    },
    {
      "inputs": [
        {
          "name": "_accessManager",
          "type": "address"
        },
        {
          "name": "_dataManager",
          "type": "address"
        }
      ],
      "payable": false,
      "stateMutability": "nonpayable",
      "type": "constructor"
    },
    {
      "anonymous": false,
      "inputs": [
        {
          "indexed": false,
          "name": "blockchainActionId",
          "type": "bytes32"
        },
        {
          "indexed": false,
          "name": "accountId",
          "type": "bytes32"
        },
        {
          "indexed": false,
          "name": "depositContract",
          "type": "address"
        },
        {
          "indexed": false,
          "name": "to",
          "type": "address"
        },
        {
          "indexed": false,
          "name": "amount",
          "type": "uint256"
        }
      ],
      "name": "EventWithdrawPPT",
      "type": "event"
    },
    {
      "anonymous": false,
      "inputs": [
        {
          "indexed": false,
          "name": "_blockchainActionId",
          "type": "bytes32"
        },
        {
          "indexed": false,
          "name": "accountId",
          "type": "bytes32"
        },
        {
          "indexed": false,
          "name": "currency",
          "type": "bytes32"
        },
        {
          "indexed": false,
          "name": "amount",
          "type": "uint256"
        },
        {
          "indexed": false,
          "name": "toBank",
          "type": "bool"
        }
      ],
      "name": "EventWithdrawPoken",
      "type": "event"
    },
    {
      "anonymous": false,
      "inputs": [
        {
          "indexed": false,
          "name": "blockchainActionId",
          "type": "bytes32"
        },
        {
          "indexed": false,
          "name": "tokenName",
          "type": "bytes32"
        },
        {
          "indexed": false,
          "name": "decimalUnits",
          "type": "uint8"
        },
        {
          "indexed": false,
          "name": "tokenSymbol",
          "type": "bytes32"
        },
        {
          "indexed": false,
          "name": "addr",
          "type": "address"
        }
      ],
      "name": "EventNewCurrency",
      "type": "event"
    },
    {
      "anonymous": false,
      "inputs": [
        {
          "indexed": false,
          "name": "blockchainActionId",
          "type": "bytes32"
        },
        {
          "indexed": false,
          "name": "tokenName",
          "type": "bytes32"
        },
        {
          "indexed": false,
          "name": "decimalUnits",
          "type": "uint8"
        },
        {
          "indexed": false,
          "name": "tokenSymbol",
          "type": "bytes32"
        },
        {
          "indexed": false,
          "name": "addr",
          "type": "address"
        },
        {
          "indexed": false,
          "name": "version",
          "type": "uint256"
        }
      ],
      "name": "EventUpgradeCurrency",
      "type": "event"
    },
    {
      "anonymous": false,
      "inputs": [
        {
          "indexed": false,
          "name": "blockchainActionId",
          "type": "bytes32"
        },
        {
          "indexed": false,
          "name": "clientId",
          "type": "bytes32"
        },
        {
          "indexed": false,
          "name": "depositContractAddress",
          "type": "address"
        }
      ],
      "name": "EventNewDepositContract",
      "type": "event"
    },
    {
      "anonymous": false,
      "inputs": [
        {
          "indexed": false,
          "name": "blockchainActionId",
          "type": "bytes32"
        },
        {
          "indexed": false,
          "name": "clientId",
          "type": "bytes32"
        },
        {
          "indexed": false,
          "name": "depositContractAddress",
          "type": "address"
        },
        {
          "indexed": false,
          "name": "version",
          "type": "uint256"
        }
      ],
      "name": "EventUpgradeDepositContract",
      "type": "event"
    },
    {
      "anonymous": false,
      "inputs": [
        {
          "indexed": false,
          "name": "_blockchainActionId",
          "type": "bytes32"
        },
        {
          "indexed": false,
          "name": "_userId",
          "type": "bytes32"
        },
        {
          "indexed": false,
          "name": "_companyName",
          "type": "bytes32"
        },
        {
          "indexed": false,
          "name": "_companyNumber",
          "type": "bytes32"
        },
        {
          "indexed": false,
          "name": "countryCode",
          "type": "bytes2"
        }
      ],
      "name": "EventNewProvider",
      "type": "event"
    },
    {
      "anonymous": false,
      "inputs": [
        {
          "indexed": false,
          "name": "_blockchainActionId",
          "type": "bytes32"
        },
        {
          "indexed": false,
          "name": "_providerUserId",
          "type": "bytes32"
        },
        {
          "indexed": false,
          "name": "invoiceCountryCode",
          "type": "bytes2"
        },
        {
          "indexed": false,
          "name": "invoiceCompanyNumber",
          "type": "bytes32"
        },
        {
          "indexed": false,
          "name": "invoiceCompanyName",
          "type": "bytes32"
        },
        {
          "indexed": false,
          "name": "invoiceNumber",
          "type": "bytes32"
        }
      ],
      "name": "EventNewInvoice",
      "type": "event"
    },
    {
      "anonymous": false,
      "inputs": [
        {
          "indexed": false,
          "name": "_blockchainActionId",
          "type": "bytes32"
        },
        {
          "indexed": false,
          "name": "_userId",
          "type": "bytes32"
        },
        {
          "indexed": false,
          "name": "_countryCode",
          "type": "bytes2"
        },
        {
          "indexed": false,
          "name": "_companyNumber",
          "type": "bytes32"
        }
      ],
      "name": "EventProviderEnabled",
      "type": "event"
    },
    {
      "anonymous": false,
      "inputs": [
        {
          "indexed": false,
          "name": "_blockchainActionId",
          "type": "bytes32"
        },
        {
          "indexed": false,
          "name": "_userId",
          "type": "bytes32"
        },
        {
          "indexed": false,
          "name": "_countryCode",
          "type": "bytes2"
        },
        {
          "indexed": false,
          "name": "_companyNumber",
          "type": "bytes32"
        }
      ],
      "name": "EventProviderDisabled",
      "type": "event"
    }
  ],
  "bytecode": "0x6060604052341561000f57600080fd5b604051604080613b52833981016040528080519190602001805160008054600160a060020a03958616600160a060020a03199182161790915560018054959092169416939093179092555050613ae88061006a6000396000f300606060405236156100935763ffffffff60e060020a60003504166302ab72c48114610098578063150b1c6e146100b95780633b6d6387146100e85780637c811aa914610101578063859d129f14610130578063a85eb3341461015c578063ac157f2614610181578063baea3306146101a6578063c80e7ee8146101f4578063e388c34414610216578063f7f01b4b14610254575b600080fd5b34156100a357600080fd5b6100b7600160a060020a0360043516610267565b005b34156100c457600080fd5b6100b7600435602435600160f060020a03196044351660643560843560a43561031a565b34156100f357600080fd5b6100b76004356024356106ff565b341561010c57600080fd5b610114610b7d565b604051600160a060020a03909116815260200160405180910390f35b341561013b57600080fd5b6100b7600435602435604435606435600160f060020a031960843516610b8c565b341561016757600080fd5b6100b7600435602435600160a060020a0360443516610d18565b341561018c57600080fd5b6100b7600435600160a060020a0360243516604435610f5d565b34156101b157600080fd5b6100b7600435602435604435600160a060020a0360643581169060843581169060a4359060c4359060e4358116906101043590610124351661014435151561154b565b34156101ff57600080fd5b6100b760043560243560ff60443516606435611fbd565b341561022157600080fd5b6100b7600435600160a060020a03602435811690604435906064358116906084359060a4359060c4359060e435166123f1565b341561025f57600080fd5b6101146129b2565b60008054600160a060020a03169063fda089589033906040516020015260405160e060020a63ffffffff8416028152600160a060020a039091166004820152602401602060405180830381600087803b15156102c257600080fd5b6102c65a03f115156102d357600080fd5b5050506040518051151560011490506102eb57600080fd5b6000805473ffffffffffffffffffffffffffffffffffffffff1916600160a060020a0392909216919091179055565b6000805481908190600160a060020a031663fda0895833836040516020015260405160e060020a63ffffffff8416028152600160a060020a039091166004820152602401602060405180830381600087803b151561037757600080fd5b6102c65a03f1151561038857600080fd5b5050506040518051151560011490506103a057600080fd5b600154600160a060020a031663bea0897c8a60006040516020015260405160e060020a63ffffffff84160281526004810191909152602401602060405180830381600087803b15156103f157600080fd5b6102c65a03f1151561040257600080fd5b505050604051805115905061041657600080fd5b600154600160a060020a0316631529905c8960006040516060015260405160e060020a63ffffffff84160281526004810191909152602401606060405180830381600087803b151561046757600080fd5b6102c65a03f1151561047857600080fd5b505050604051805190602001805190602001805192955090935090915050600160f060020a03198316158015906104ae57508115155b80156104b957508015155b15156104c457600080fd5b600154600160a060020a03166339cb696e898989898960006040516020015260405160e060020a63ffffffff88160281526004810195909552600160f060020a0319909316602485015260448401919091526064830152608482015260a401602060405180830381600087803b151561053c57600080fd5b6102c65a03f1151561054d57600080fd5b50505060405180511515600114905061056557600080fd5b600154600160a060020a031663c5dbb9f88a60006040516020015260405160e060020a63ffffffff84160281526004810191909152602401602060405180830381600087803b15156105b657600080fd5b6102c65a03f115156105c757600080fd5b5050506040518051151560011490506105df57600080fd5b600154600160a060020a03166392c4b8678a6000808c8180806040516020015260405160e060020a63ffffffff89160281526004810196909652602486019490945260448501929092526064840152600160a060020a0316608483015260a482015260c401602060405180830381600087803b151561065d57600080fd5b6102c65a03f1151561066e57600080fd5b50505060405180511515600114905061068657600080fd5b7f53c9402948bb1a0f1c1ff853af7d9843a08489c0e79a7066f4d6ac7a7ac7876a8989898989896040519586526020860194909452600160f060020a03199092166040808601919091526060850191909152608084019190915260a083019190915260c0909101905180910390a1505050505050505050565b60008054600160a060020a03169063fda089589033906040516020015260405160e060020a63ffffffff8416028152600160a060020a039091166004820152602401602060405180830381600087803b151561075a57600080fd5b6102c65a03f1151561076b57600080fd5b50505060405180511515600114905061078357600080fd5b600154600160a060020a031663bea0897c8360006040516020015260405160e060020a63ffffffff84160281526004810191909152602401602060405180830381600087803b15156107d457600080fd5b6102c65a03f115156107e557600080fd5b50505060405180511590506107f957600080fd5b600154600054600160a060020a03918216916368d9d3e19184911661081c6129f7565b918252600160a060020a0316602082015260409081019051809103906000f080151561084757600080fd5b8360006040516020015260405160e060020a63ffffffff8516028152600160a060020a0390921660048301526024820152604401602060405180830381600087803b151561089457600080fd5b6102c65a03f115156108a557600080fd5b5050506040518051151560011490506108bd57600080fd5b600154600160a060020a0316632a01a4518260006040516020015260405160e060020a63ffffffff84160281526004810191909152602401602060405180830381600087803b151561090e57600080fd5b6102c65a03f1151561091f57600080fd5b5050506040518051600160a060020a03161515905061093a57fe5b600154600160a060020a031663c5dbb9f88360006040516020015260405160e060020a63ffffffff84160281526004810191909152602401602060405180830381600087803b151561098b57600080fd5b6102c65a03f1151561099c57600080fd5b5050506040518051151560011490506109b457600080fd5b600154600160a060020a03166392c4b867836000808585632a01a45182846040516020015260405160e060020a63ffffffff84160281526004810191909152602401602060405180830381600087803b1515610a0f57600080fd5b6102c65a03f11515610a2057600080fd5b505050604051805190506000806040516020015260405160e060020a63ffffffff89160281526004810196909652602486019490945260448501929092526064840152600160a060020a0316608483015260a482015260c401602060405180830381600087803b1515610a9257600080fd5b6102c65a03f11515610aa357600080fd5b505050604051805115156001149050610abb57600080fd5b6001547fb6e4c061023577b7e47ffdc4a06fbdb30a157c488fdd58e1735c32b6d8b33cb29083908390600160a060020a0316632a01a4518260006040516020015260405160e060020a63ffffffff84160281526004810191909152602401602060405180830381600087803b1515610b3257600080fd5b6102c65a03f11515610b4357600080fd5b505050604051805190506040519283526020830191909152600160a060020a03166040808301919091526060909101905180910390a15050565b600154600160a060020a031690565b60008054600160a060020a03169063fda089589033906040516020015260405160e060020a63ffffffff8416028152600160a060020a039091166004820152602401602060405180830381600087803b1515610be757600080fd5b6102c65a03f11515610bf857600080fd5b505050604051805115156001149050610c1057600080fd5b600154600160a060020a031663a5c51a00868686868660006040516020015260405160e060020a63ffffffff88160281526004810195909552602485019390935260448401919091526064830152600160f060020a031916608482015260a401602060405180830381600087803b1515610c8957600080fd5b6102c65a03f11515610c9a57600080fd5b505050604051805115156001149050610cb257600080fd5b7f715169d37d48828f31a81b71e5da2d5934b107791a77894e3bce33b5d59e0fd6858584868560405194855260208501939093526040808501929092526060840152600160f060020a0319909116608083015260a0909101905180910390a15050505050565b60008054600160a060020a03169063fda089589033906040516020015260405160e060020a63ffffffff8416028152600160a060020a039091166004820152602401602060405180830381600087803b1515610d7357600080fd5b6102c65a03f11515610d8457600080fd5b505050604051805115156001149050610d9c57600080fd5b600154600160a060020a031663a85eb33484848460006040516020015260405160e060020a63ffffffff861602815260048101939093526024830191909152600160a060020a03166044820152606401602060405180830381600087803b1515610e0557600080fd5b6102c65a03f11515610e1657600080fd5b505050604051805115156001149050610e2e57600080fd5b6001547fc9825393d621390cc1eecf778d4ccc25d31c544b3752d105a3c1bd443d4097e09084908490600160a060020a0316632a01a4518260006040516020015260405160e060020a63ffffffff84160281526004810191909152602401602060405180830381600087803b1515610ea557600080fd5b6102c65a03f11515610eb657600080fd5b5050506040518051600154909150600160a060020a03166354fd4d506000604051602001526040518163ffffffff1660e060020a028152600401602060405180830381600087803b1515610f0957600080fd5b6102c65a03f11515610f1a57600080fd5b505050604051805190506040519384526020840192909252600160a060020a031660408084019190915260608301919091526080909101905180910390a1505050565b60008054600160a060020a03169063fda089589033906040516020015260405160e060020a63ffffffff8416028152600160a060020a039091166004820152602401602060405180830381600087803b1515610fb857600080fd5b6102c65a03f11515610fc957600080fd5b505050604051805115156001149050610fe157600080fd5b600154600160a060020a031663bea0897c8460006040516020015260405160e060020a63ffffffff84160281526004810191909152602401602060405180830381600087803b151561103257600080fd5b6102c65a03f1151561104357600080fd5b505050604051805115905061105757600080fd5b81600160a060020a03166395d89b416000604051602001526040518163ffffffff1660e060020a028152600401602060405180830381600087803b151561109d57600080fd5b6102c65a03f115156110ae57600080fd5b50505060405180511580159150611124575081600160a060020a03166306fdde036000604051602001526040518163ffffffff1660e060020a028152600401602060405180830381600087803b151561110657600080fd5b6102c65a03f1151561111757600080fd5b5050506040518051151590505b8015611193575080600160a060020a0383166395d89b416000604051602001526040518163ffffffff1660e060020a028152600401602060405180830381600087803b151561117257600080fd5b6102c65a03f1151561118357600080fd5b5050506040518051905060001916145b151561119e57600080fd5b600154600160a060020a0316632fdfd33a838360006040516020015260405160e060020a63ffffffff8516028152600160a060020a0390921660048301526024820152604401602060405180830381600087803b15156111fd57600080fd5b6102c65a03f1151561120e57600080fd5b50505060405180511515600114905061122657600080fd5b600154600160a060020a031663c5dbb9f88460006040516020015260405160e060020a63ffffffff84160281526004810191909152602401602060405180830381600087803b151561127757600080fd5b6102c65a03f1151561128857600080fd5b5050506040518051151560011490506112a057600080fd5b600154600160a060020a03166392c4b86784836000808781806040516020015260405160e060020a63ffffffff89160281526004810196909652602486019490945260448501929092526064840152600160a060020a0316608483015260a482015260c401602060405180830381600087803b151561131e57600080fd5b6102c65a03f1151561132f57600080fd5b50505060405180511515600114905061134757600080fd5b7f3ec6d7d7019460b6f7ba7a92c6549433787fd48f1da24fcf3dd8886ba1da26878383600160a060020a03166306fdde036000604051602001526040518163ffffffff1660e060020a028152600401602060405180830381600087803b15156113af57600080fd5b6102c65a03f115156113c057600080fd5b5050506040518051905084600160a060020a031663313ce5676000604051602001526040518163ffffffff1660e060020a028152600401602060405180830381600087803b151561141057600080fd5b6102c65a03f1151561142157600080fd5b50505060405180516001549091508590600160a060020a031663d383b80d8260006040516020015260405160e060020a63ffffffff84160281526004810191909152602401602060405180830381600087803b151561147f57600080fd5b6102c65a03f1151561149057600080fd5b5050506040518051600154909150600160a060020a03166354fd4d506000604051602001526040518163ffffffff1660e060020a028152600401602060405180830381600087803b15156114e357600080fd5b6102c65a03f115156114f457600080fd5b50505060405180519050604051958652602086019490945260ff9092166040808601919091526060850191909152600160a060020a03909116608084015260a083019190915260c0909101905180910390a1505050565b600080548190600160a060020a031663fda0895833836040516020015260405160e060020a63ffffffff8416028152600160a060020a039091166004820152602401602060405180830381600087803b15156115a657600080fd5b6102c65a03f115156115b757600080fd5b5050506040518051151560011490506115cf57600080fd5b600154600160a060020a031663bea0897c8e60006040516020015260405160e060020a63ffffffff84160281526004810191909152602401602060405180830381600087803b151561162057600080fd5b6102c65a03f1151561163157600080fd5b505050604051805115905080156116bb5750600154600160a060020a0316632a01a4518960006040516020015260405160e060020a63ffffffff84160281526004810191909152602401602060405180830381600087803b151561169457600080fd5b6102c65a03f115156116a557600080fd5b5050506040518051600160a060020a0316151590505b15156116c657600080fd5b600160a060020a038416158015906116de5750600085115b80156116ea575060008b115b80156117695750600154600160a060020a031663d383b80d8d60006040516020015260405160e060020a63ffffffff84160281526004810191909152602401602060405180830381600087803b151561174257600080fd5b6102c65a03f1151561175357600080fd5b5050506040518051600160a060020a0316151590505b151561177457600080fd5b600154600160a060020a0316632a01a4518960006040516020015260405160e060020a63ffffffff84160281526004810191909152602401602060405180830381600087803b15156117c557600080fd5b6102c65a03f115156117d657600080fd5b5050506040518051905091508461185e83600160a060020a03166370a082318960006040516020015260405160e060020a63ffffffff8416028152600160a060020a039091166004820152602401602060405180830381600087803b151561183d57600080fd5b6102c65a03f1151561184e57600080fd5b50505060405180519050896129c1565b101580156118f2575081600160a060020a031663beabacc887868860006040516020015260405160e060020a63ffffffff8616028152600160a060020a0393841660048201529190921660248201526044810191909152606401602060405180830381600087803b15156118d157600080fd5b6102c65a03f115156118e257600080fd5b5050506040518051151560011490505b15156118fd57600080fd5b600154600160a060020a031663d383b80d8d60006040516020015260405160e060020a63ffffffff84160281526004810191909152602401602060405180830381600087803b151561194e57600080fd5b6102c65a03f1151561195f57600080fd5b505050604051805191505060018315151415611d645780600160a060020a03166370a082318b60006040516020015260405160e060020a63ffffffff8416028152600160a060020a039091166004820152602401602060405180830381600087803b15156119cc57600080fd5b6102c65a03f115156119dd57600080fd5b505050604051805190508b1115611ae257600160a060020a038116630156b323816370a082318d60006040516020015260405160e060020a63ffffffff8416028152600160a060020a039091166004820152602401602060405180830381600087803b1515611a4b57600080fd5b6102c65a03f11515611a5c57600080fd5b505050604051805190508c60006040516020015260405160e060020a63ffffffff85160281526004810192909252600160a060020a03166024820152604401602060405180830381600087803b1515611ab457600080fd5b6102c65a03f11515611ac557600080fd5b505050604051805115156001149050611add57600080fd5b611be8565b8a81600160a060020a03166370a082318c60006040516020015260405160e060020a63ffffffff8416028152600160a060020a039091166004820152602401602060405180830381600087803b1515611b3a57600080fd5b6102c65a03f11515611b4b57600080fd5b5050506040518051905010158015611bdd575080600160a060020a0316630156b3238c8c60006040516020015260405160e060020a63ffffffff85160281526004810192909252600160a060020a03166024820152604401602060405180830381600087803b1515611bbc57600080fd5b6102c65a03f11515611bcd57600080fd5b5050506040518051151560011490505b1515611be857600080fd5b600154600160a060020a031663c5dbb9f88e60006040516020015260405160e060020a63ffffffff84160281526004810191909152602401602060405180830381600087803b1515611c3957600080fd5b6102c65a03f11515611c4a57600080fd5b505050604051805115156001149050611c6257600080fd5b600154600160a060020a03166392c4b8678e8e8e8c8f8b60006040516020015260405160e060020a63ffffffff89160281526004810196909652602486019490945260448501929092526064840152600160a060020a0316608483015260a482015260c401602060405180830381600087803b1515611ce057600080fd5b6102c65a03f11515611cf157600080fd5b505050604051805115156001149050611d0957600080fd5b7f471ca94ad77c519a81da4f8dc0fe508299cb64c10c988cc641abbaede6c075ff8d898e8e8760405194855260208501939093526040808501929092526060840152901515608083015260a0909101905180910390a1611fae565b80600160a060020a03166397304ced8c60405160e060020a63ffffffff84160281526004810191909152602401600060405180830381600087803b1515611daa57600080fd5b6102c65a03f11515611dbb57600080fd5b50505080600160a060020a031663a9059cbb8a8d60006040516020015260405160e060020a63ffffffff8516028152600160a060020a0390921660048301526024820152604401602060405180830381600087803b1515611e1b57600080fd5b6102c65a03f11515611e2c57600080fd5b50505060405180515050600154600160a060020a031663c5dbb9f88e60006040516020015260405160e060020a63ffffffff84160281526004810191909152602401602060405180830381600087803b1515611e8757600080fd5b6102c65a03f11515611e9857600080fd5b505050604051805115156001149050611eb057600080fd5b600154600160a060020a03166392c4b8678e8e8e8c8e8b60006040516020015260405160e060020a63ffffffff89160281526004810196909652602486019490945260448501929092526064840152600160a060020a0316608483015260a482015260c401602060405180830381600087803b1515611f2e57600080fd5b6102c65a03f11515611f3f57600080fd5b505050604051805115156001149050611f5757600080fd5b7f471ca94ad77c519a81da4f8dc0fe508299cb64c10c988cc641abbaede6c075ff8d898e8e8760405194855260208501939093526040808501929092526060840152901515608083015260a0909101905180910390a15b50505050505050505050505050565b60008054600160a060020a03169063fda089589033906040516020015260405160e060020a63ffffffff8416028152600160a060020a039091166004820152602401602060405180830381600087803b151561201857600080fd5b6102c65a03f1151561202957600080fd5b50505060405180511515600114905061204157600080fd5b600154600160a060020a031663bea0897c8560006040516020015260405160e060020a63ffffffff84160281526004810191909152602401602060405180830381600087803b151561209257600080fd5b6102c65a03f115156120a357600080fd5b50505060405180511590506120b757600080fd5b600154600054600160a060020a0391821691632fdfd33a91168585856120db612a07565b600160a060020a039094168452602084019290925260ff16604080840191909152606083019190915260809091019051809103906000f080151561211e57600080fd5b8360006040516020015260405160e060020a63ffffffff8516028152600160a060020a0390921660048301526024820152604401602060405180830381600087803b151561216b57600080fd5b6102c65a03f1151561217c57600080fd5b50505060405180511515600114905061219457600080fd5b600154600160a060020a031663c5dbb9f88560006040516020015260405160e060020a63ffffffff84160281526004810191909152602401602060405180830381600087803b15156121e557600080fd5b6102c65a03f115156121f657600080fd5b50505060405180511515600114905061220e57600080fd5b600154600160a060020a03166392c4b86785836000808563d383b80d84836040516020015260405160e060020a63ffffffff84160281526004810191909152602401602060405180830381600087803b151561226957600080fd5b6102c65a03f1151561227a57600080fd5b505050604051805190506000806040516020015260405160e060020a63ffffffff89160281526004810196909652602486019490945260448501929092526064840152600160a060020a0316608483015260a482015260c401602060405180830381600087803b15156122ec57600080fd5b6102c65a03f115156122fd57600080fd5b50505060405180511515600114905061231557600080fd5b6001547f6f9a94a4b659b99ce71e6f2eaa4b609443bd0350f9e1f7b2d566815cb90f0e96908590859085908590600160a060020a031663d383b80d8260006040516020015260405160e060020a63ffffffff84160281526004810191909152602401602060405180830381600087803b151561239057600080fd5b6102c65a03f115156123a157600080fd5b50505060405180519050604051948552602085019390935260ff9091166040808501919091526060840191909152600160a060020a03909116608083015260a0909101905180910390a150505050565b6000805481908190600160a060020a031663fda0895833836040516020015260405160e060020a63ffffffff8416028152600160a060020a039091166004820152602401602060405180830381600087803b151561244e57600080fd5b6102c65a03f1151561245f57600080fd5b50505060405180511515600114905061247757600080fd5b600154600160a060020a031663bea0897c8c60006040516020015260405160e060020a63ffffffff84160281526004810191909152602401602060405180830381600087803b15156124c857600080fd5b6102c65a03f115156124d957600080fd5b505050604051805115905080156125635750600154600160a060020a0316632a01a4518a60006040516020015260405160e060020a63ffffffff84160281526004810191909152602401602060405180830381600087803b151561253c57600080fd5b6102c65a03f1151561254d57600080fd5b5050506040518051600160a060020a0316151590505b151561256e57600080fd5b600160a060020a038416158015906125865750600085115b80156125925750600087115b151561259d57600080fd5b600154600160a060020a0316632a01a4518a60006040516020015260405160e060020a63ffffffff84160281526004810191909152602401602060405180830381600087803b15156125ee57600080fd5b6102c65a03f115156125ff57600080fd5b50505060405180519050925061268683600160a060020a03166370a082318c60006040516020015260405160e060020a63ffffffff8416028152600160a060020a039091166004820152602401602060405180830381600087803b151561266557600080fd5b6102c65a03f1151561267657600080fd5b50505060405180519050876129c1565b915061269287866129d3565b8210158015612727575082600160a060020a031663beabacc88b8a8a60006040516020015260405160e060020a63ffffffff8616028152600160a060020a0393841660048201529190921660248201526044810191909152606401602060405180830381600087803b151561270657600080fd5b6102c65a03f1151561271757600080fd5b5050506040518051151560011490505b80156127b9575082600160a060020a031663beabacc88b868860006040516020015260405160e060020a63ffffffff8616028152600160a060020a0393841660048201529190921660248201526044810191909152606401602060405180830381600087803b151561279857600080fd5b6102c65a03f115156127a957600080fd5b5050506040518051151560011490505b15156127c457600080fd5b600154600160a060020a031663c5dbb9f88c60006040516020015260405160e060020a63ffffffff84160281526004810191909152602401602060405180830381600087803b151561281557600080fd5b6102c65a03f1151561282657600080fd5b50505060405180511515600114905061283e57600080fd5b506001548990600160a060020a03908116906392c4b867908d9084166395d89b416000604051602001526040518163ffffffff1660e060020a028152600401602060405180830381600087803b151561289657600080fd5b6102c65a03f115156128a757600080fd5b505050604051805190508a8d8d8b60006040516020015260405160e060020a63ffffffff89160281526004810196909652602486019490945260448501929092526064840152600160a060020a0316608483015260a482015260c401602060405180830381600087803b151561291c57600080fd5b6102c65a03f1151561292d57600080fd5b50505060405180519050151561294257600080fd5b7fb34e83f654f4c047e331cea47cc1783dd0511abde3cac240a47bfbdefd6812e88b8a858b8b6040519485526020850193909352600160a060020a0391821660408086019190915291166060840152608083019190915260a0909101905180910390a15050505050505050505050565b600054600160a060020a031681565b6000828211156129cd57fe5b50900390565b60008282018381108015906129e85750828110155b15156129f057fe5b9392505050565b60405161044b80612a1883390190565b604051610c5a80612e638339019056006060604052341561000f57600080fd5b60405160408061044b833981016040528080519190602001805160008054600160a060020a03909216600160a060020a031990921691909117905550506001556103ed8061005e6000396000f300606060405263ffffffff60e060020a60003504166302ab72c4811461004457806370a0823114610065578063beabacc814610096578063f7f01b4b146100d257600080fd5b341561004f57600080fd5b610063600160a060020a0360043516610101565b005b341561007057600080fd5b610084600160a060020a03600435166101b4565b60405190815260200160405180910390f35b34156100a157600080fd5b6100be600160a060020a036004358116906024351660443561022d565b604051901515815260200160405180910390f35b34156100dd57600080fd5b6100e56103b2565b604051600160a060020a03909116815260200160405180910390f35b60008054600160a060020a03169063fda089589033906040516020015260405160e060020a63ffffffff8416028152600160a060020a039091166004820152602401602060405180830381600087803b151561015c57600080fd5b6102c65a03f1151561016d57600080fd5b50505060405180511515600114905061018557600080fd5b6000805473ffffffffffffffffffffffffffffffffffffffff1916600160a060020a0392909216919091179055565b600081600160a060020a03166370a082313060006040516020015260405160e060020a63ffffffff8416028152600160a060020a039091166004820152602401602060405180830381600087803b151561020d57600080fd5b6102c65a03f1151561021e57600080fd5b50505060405180519392505050565b60008054600160a060020a031663fda0895833836040516020015260405160e060020a63ffffffff8416028152600160a060020a039091166004820152602401602060405180830381600087803b151561028657600080fd5b6102c65a03f1151561029757600080fd5b50505060405180511515600114905080610328575060008054600160a060020a0316906305fd22d09033906040516020015260405160e060020a63ffffffff8416028152600160a060020a039091166004820152602401602060405180830381600087803b151561030757600080fd5b6102c65a03f1151561031857600080fd5b5050506040518051151560011490505b151561033357600080fd5b83600160a060020a031663a9059cbb848460006040516020015260405160e060020a63ffffffff8516028152600160a060020a0390921660048301526024820152604401602060405180830381600087803b151561039057600080fd5b6102c65a03f115156103a157600080fd5b505050604051805195945050505050565b600054600160a060020a0316815600a165627a7a72305820aa6b00f4bb58e86009b6b26aa3b35733ea3d9e8b343423b70006bf2958ef9a310029606060405260008055341561001357600080fd5b604051608080610c5a8339810160405280805191906020018051919060200180519190602001805160068054600160a060020a031916600160a060020a03979097169690961790955550506001919091556002805460ff191660ff909216919091179055600355610bd1806100896000396000f300606060405236156100ca5763ffffffff60e060020a6000350416630156b32381146100cf57806302ab72c41461010557806306fdde0314610126578063095ea7b31461014b57806318160ddd1461016d57806323b872dd1461018057806327e235e3146101a8578063313ce567146101c75780635c658165146101f057806367fbd2891461021557806370a082311461022b57806395d89b411461024a57806397304ced1461025d578063a9059cbb14610273578063dd62ed3e14610295578063f7f01b4b146102ba575b600080fd5b34156100da57600080fd5b6100f1600435600160a060020a03602435166102e9565b604051901515815260200160405180910390f35b341561011057600080fd5b610124600160a060020a03600435166103ed565b005b341561013157600080fd5b61013961049e565b60405190815260200160405180910390f35b341561015657600080fd5b6100f1600160a060020a03600435166024356104a4565b341561017857600080fd5b610139610510565b341561018b57600080fd5b6100f1600160a060020a0360043581169060243516604435610516565b34156101b357600080fd5b610139600160a060020a036004351661061c565b34156101d257600080fd5b6101da61062e565b60405160ff909116815260200160405180910390f35b34156101fb57600080fd5b610139600160a060020a0360043581169060243516610637565b341561022057600080fd5b6100f1600435610654565b341561023657600080fd5b610139600160a060020a0360043516610898565b341561025557600080fd5b6101396108b3565b341561026857600080fd5b6101246004356108b9565b341561027e57600080fd5b6100f1600160a060020a0360043516602435610aa1565b34156102a057600080fd5b610139600160a060020a0360043581169060243516610b35565b34156102c557600080fd5b6102cd610b60565b604051600160a060020a03909116815260200160405180910390f35b600654600090600160a060020a03166305fd22d033836040516020015260405160e060020a63ffffffff8416028152600160a060020a039091166004820152602401602060405180830381600087803b151561034457600080fd5b6102c65a03f1151561035557600080fd5b50505060405180511515600114905061036d57600080fd5b600160a060020a03821660009081526004602052604090205483901015610396575060006103e7565b600160a060020a0382166000908152600460205260409020546103b99084610b6f565b600160a060020a038316600090815260046020526040812091909155546103e09084610b6f565b6000555060015b92915050565b600654600160a060020a031663fda089583360006040516020015260405160e060020a63ffffffff8416028152600160a060020a039091166004820152602401602060405180830381600087803b151561044657600080fd5b6102c65a03f1151561045757600080fd5b50505060405180511515600114905061046f57600080fd5b6006805473ffffffffffffffffffffffffffffffffffffffff1916600160a060020a0392909216919091179055565b60015481565b600160a060020a03338116600081815260056020908152604080832094871680845294909152808220859055909291907f8c5be1e5ebec7d5bd14f71427d1e84f3dd0314c0f7b2291e5b200ac8c7c3b9259085905190815260200160405180910390a350600192915050565b60005481565b600160a060020a03808416600081815260056020908152604080832033909516835293815283822054928252600490529182205483901080159061055a5750828110155b151561056557600080fd5b600160a060020a03808516600090815260046020526040808220805487019055918716815220805484900390556000198110156105ca57600160a060020a03808616600090815260056020908152604080832033909416835292905220805484900390555b83600160a060020a031685600160a060020a03167fddf252ad1be2c89b69c2b068fc378daa952ba7f163c4a11628f55a4df523b3ef8560405190815260200160405180910390a3506001949350505050565b60046020526000908152604090205481565b60025460ff1681565b600560209081526000928352604080842090915290825290205481565b600654600090600160a060020a03166305fd22d033836040516020015260405160e060020a63ffffffff8416028152600160a060020a039091166004820152602401602060405180830381600087803b15156106af57600080fd5b6102c65a03f115156106c057600080fd5b5050506040518051151560011490506106d857600080fd5b6006548290600490600090600160a060020a03166394a3760f82604051602001526040518163ffffffff1660e060020a028152600401602060405180830381600087803b151561072757600080fd5b6102c65a03f1151561073857600080fd5b5050506040518051600160a060020a0316825250602081019190915260400160002054101561076957506000610893565b6006546107f490600490600090600160a060020a03166394a3760f82604051602001526040518163ffffffff1660e060020a028152600401602060405180830381600087803b15156107ba57600080fd5b6102c65a03f115156107cb57600080fd5b5050506040518051600160a060020a031682525060208101919091526040016000205483610b6f565b600654600490600090600160a060020a03166394a3760f82604051602001526040518163ffffffff1660e060020a028152600401602060405180830381600087803b151561084157600080fd5b6102c65a03f1151561085257600080fd5b50505060405180519050600160a060020a0316600160a060020a031681526020019081526020016000208190555061088c60005483610b6f565b6000555060015b919050565b600160a060020a031660009081526004602052604090205490565b60035481565b600654600160a060020a03166305fd22d03360006040516020015260405160e060020a63ffffffff8416028152600160a060020a039091166004820152602401602060405180830381600087803b151561091257600080fd5b6102c65a03f1151561092357600080fd5b50505060405180511515600114905061093b57600080fd5b6006546109c690600490600090600160a060020a03166394a3760f82604051602001526040518163ffffffff1660e060020a028152600401602060405180830381600087803b151561098c57600080fd5b6102c65a03f1151561099d57600080fd5b5050506040518051600160a060020a031682525060208101919091526040016000205482610b81565b600654600490600090600160a060020a03166394a3760f82604051602001526040518163ffffffff1660e060020a028152600401602060405180830381600087803b1515610a1357600080fd5b6102c65a03f11515610a2457600080fd5b50505060405180519050600160a060020a0316600160a060020a0316815260200190815260200160002081905550610a5e60005482610b81565b6000556003547fb83a9cb495aa43a9871c87805ab90712a5f703de6d66d16b96d7afcc91bb3299908260405191825260208201526040908101905180910390a150565b600160a060020a03331660009081526004602052604081205482901015610ac757600080fd5b600160a060020a033381166000818152600460205260408082208054879003905592861680825290839020805486019055917fddf252ad1be2c89b69c2b068fc378daa952ba7f163c4a11628f55a4df523b3ef9085905190815260200160405180910390a350600192915050565b600160a060020a03918216600090815260056020908152604080832093909416825291909152205490565b600654600160a060020a031681565b600082821115610b7b57fe5b50900390565b6000828201838110801590610b965750828110155b1515610b9e57fe5b93925050505600a165627a7a72305820b32c7e80703c5c8642c1958efabfef8fd63761da726c5cd3a31a8ca41d9d10c20029a165627a7a72305820b828166bd0594f817a3da03f210797495f2aff6b28721b28e9f52747fc7ecda10029",
  "source": "pragma solidity ^0.4.17;\n\n/**\nThis is the core module of the system. Currently it holds the code of\nthe Bank and crowdsale modules to avoid external calls and higher gas costs.\nIt might be a good idea in the future to split the code, separate Bank\nand crowdsale modules into external files and have the core interact with them\nwith addresses and interfaces. \n*/\n\nimport \"./iERC20Token.sol\";\nimport \"./CurrencyToken.sol\";\nimport \"./DepositContract.sol\";\nimport \"./SafeMath.sol\";\nimport \"./DataManager.sol\";\n//import \"./Utils.sol\";\n\n/// @title Populous contract\ncontract Populous is withAccessManager {\n\n    \n    // EVENTS\n    // Bank events\n    event EventWithdrawPPT(bytes32 blockchainActionId, bytes32 accountId, address depositContract, address to, uint amount);\n    event EventWithdrawPoken(bytes32 _blockchainActionId, bytes32 accountId, bytes32 currency, uint amount, bool toBank);\n    \n    event EventNewCurrency(bytes32 blockchainActionId, bytes32 tokenName, uint8 decimalUnits, bytes32 tokenSymbol, address addr);\n    event EventUpgradeCurrency(bytes32 blockchainActionId, bytes32 tokenName, uint8 decimalUnits, bytes32 tokenSymbol, address addr, uint256 version);\n    \n    event EventNewDepositContract(bytes32 blockchainActionId, bytes32 clientId, address depositContractAddress);\n    event EventUpgradeDepositContract(bytes32 blockchainActionId, bytes32 clientId, address depositContractAddress, uint256 version);\n    \n    event EventNewProvider(bytes32 _blockchainActionId, bytes32 _userId, bytes32 _companyName, bytes32 _companyNumber, bytes2 countryCode);\n    event EventNewInvoice(bytes32 _blockchainActionId, bytes32 _providerUserId, bytes2 invoiceCountryCode, bytes32 invoiceCompanyNumber, bytes32 invoiceCompanyName, bytes32 invoiceNumber);\n    event EventProviderEnabled(bytes32 _blockchainActionId, bytes32 _userId, bytes2 _countryCode, bytes32 _companyNumber);\n    event EventProviderDisabled(bytes32 _blockchainActionId, bytes32 _userId, bytes2 _countryCode, bytes32 _companyNumber);\n    \n    // FIELDS\n    DataManager dm;\n\n    //in constructor\n    // dm = DataManager(0xD5f9D8D94886E70b06E474c3fB14Fd43E2f23970);\n    //deploy DM before populous or set DM address when deploying populous\n\n\n    //uint256 public version = 1;\n \n    // NON-CONSTANT METHODS\n    // Constructor method called when contract instance is \n    // deployed with 'withAccessManager' modifier.\n    function Populous(address _accessManager, address _dataManager) public withAccessManager(_accessManager) { \n        dm = DataManager(_dataManager);\n    }\n    /**\n    BANK MODULE\n    */\n\n\n    // NON-CONSTANT METHODS\n    \n    /** @dev Creates a new 'depositAddress' gotten from deploying a deposit contract linked to a client ID\n      * @param clientId The bytes32 client ID\n      * @return address The address of the deployed deposit contract instance.\n      */\n    function createAddress(bytes32 _blockchainActionId, bytes32 clientId) public\n        onlyServer\n    {\n        require(dm.getActionStatus(_blockchainActionId) == false);\n        require(dm.setDepositAddress(new DepositContract(clientId, AM), clientId) == true);\n        assert(dm.getDepositAddress(clientId) != 0x0);\n        require(dm.setActionStatus(_blockchainActionId) == true);\n\n        require(dm.setBlockchainActionData(_blockchainActionId, 0x0, 0, clientId, dm.getDepositAddress(clientId), 0) == true);\n\n        //dm.blockchainActionIdData[_blockchainActionId].accountId = clientId;\n        //dm.blockchainActionIdData[_blockchainActionId].to = depositAddress[clientId];\n        EventNewDepositContract(_blockchainActionId, clientId, dm.getDepositAddress(clientId));\n    }\n\n    /** @dev Adds a deposit address for a client id from older version of populous\n      * @param _blockchainActionId the blockchain action id\n      * @param _clientId the client id\n      * @param _depositContract The address of the deposit smartt contract\n      */\n    function upgradeDepositAddress(bytes32 _blockchainActionId, bytes32 _clientId, address _depositContract) public\n      onlyServer\n    {\n        require(dm.upgradeDepositAddress(_blockchainActionId, _clientId, _depositContract) == true);\n        EventUpgradeDepositContract(_blockchainActionId, _clientId, dm.getDepositAddress(_clientId), dm.version());\n    }\n\n    /** @dev Creates a new token/currency.\n      * @param _tokenName  The name of the currency.\n      * @param _decimalUnits The number of decimals the currency has.\n      * @param _tokenSymbol The currency symbol, e.g., GBP\n      */\n    function createCurrency(\n        bytes32 _blockchainActionId, bytes32 _tokenName, uint8 _decimalUnits, \n        bytes32 _tokenSymbol)\n        public\n        onlyServer\n    {   \n        require(dm.getActionStatus(_blockchainActionId) == false);\n        // Check if currency already exists\n        //require(currencies[_tokenSymbol] == 0x0);\n        require(dm.setCurrency(new CurrencyToken(address(AM), _tokenName, _decimalUnits, _tokenSymbol), _tokenSymbol) == true);\n        require(dm.setActionStatus(_blockchainActionId) == true);\n\n        require(dm.setBlockchainActionData(_blockchainActionId, _tokenSymbol, 0, 0x0, dm.getCurrency(_tokenSymbol), 0) == true);\n\n        //blockchainActionIdData[_blockchainActionId].currency = _tokenSymbol;\n        //blockchainActionIdData[_blockchainActionId].to = currencies[_tokenSymbol];\n\n        EventNewCurrency(_blockchainActionId, _tokenName, _decimalUnits, _tokenSymbol, dm.getCurrency(_tokenSymbol));\n    }\n\n    /** @dev Adds a currency from older version of populous\n      * @param _blockchainActionId the blockchain action id\n      * @param _currencyAddress the currency smart contract address\n      * @param _tokenSymbol The token symbol of the currency\n      */\n    function upgradeCurrency(bytes32 _blockchainActionId, address _currencyAddress, bytes32 _tokenSymbol) public onlyServer\n    {   \n        // check if blockchain action id is already used\n        require(dm.getActionStatus(_blockchainActionId) == false);\n        // Check if currency exists as erc20\n        require(CurrencyToken(_currencyAddress).symbol() != 0x0 && CurrencyToken(_currencyAddress).name() != 0x0 && CurrencyToken(_currencyAddress).symbol() == _tokenSymbol);\n        require(dm.setCurrency(_currencyAddress, _tokenSymbol) == true);\n        \n        require(dm.setActionStatus(_blockchainActionId) == true);\n        require(dm.setBlockchainActionData(_blockchainActionId, _tokenSymbol, 0, 0x0, _currencyAddress, 0) == true);\n\n        //blockchainActionIdData[_blockchainActionId].currency = _tokenSymbol;\n        //blockchainActionIdData[_blockchainActionId].to = currencies[_tokenSymbol];\n\n        EventUpgradeCurrency(_blockchainActionId, CurrencyToken(_currencyAddress).name(), CurrencyToken(_currencyAddress).decimals(), _tokenSymbol, dm.getCurrency(_tokenSymbol), dm.version());\n    }\n\n    /** @dev Add a new invoice provider to the platform  \n      * @param _blockchainActionId the blockchain action id\n      * @param _userId the user id of the provider\n      * @param _companyNumber the providers company number\n      * @param _companyName the providers company name\n      * @param _countryCode the providers country code\n      */\n    function addProvider(\n        bytes32 _blockchainActionId, bytes32 _userId, bytes32 _companyNumber, \n        bytes32 _companyName, bytes2 _countryCode) \n        public \n        onlyServer\n    {   \n        require(dm.setProvider(_blockchainActionId, _userId, _companyNumber, _companyName, _countryCode) == true);\n        EventNewProvider(_blockchainActionId, _userId, _companyName, _companyNumber, _countryCode);\n    }\n\n    /** @dev Add a new crowdsale invoice from an invoice provider to the platform  \n      * @param _blockchainActionId the blockchain action id\n      * @param _providerUserId the user id of the provider\n      * @param _invoiceCompanyNumber the providers company number\n      * @param _invoiceCompanyName the providers company name\n      * @param _invoiceCountryCode the providers country code\n      * @param _invoiceNumber the invoice identification number\n      */\n    function addInvoice(\n        bytes32 _blockchainActionId, bytes32 _providerUserId, bytes2 _invoiceCountryCode, \n        bytes32 _invoiceCompanyNumber, bytes32 _invoiceCompanyName, bytes32 _invoiceNumber)\n        public\n        onlyServer\n    {\n        require(dm.getActionStatus(_blockchainActionId) == false);\n        bytes2 countryCode; \n        bytes32 companyName; \n        bytes32 companyNumber;\n        (countryCode, companyName, companyNumber) = dm.getProviderByUserId(_providerUserId);\n        //require(dm.getProviderStatus(_providerUserId) == true);\n        require(countryCode != 0x0 && companyName != 0x0 && companyNumber != 0x0);\n        require(dm.setInvoice(_providerUserId, _invoiceCountryCode, _invoiceCompanyNumber, _invoiceCompanyName, _invoiceNumber) == true);\n        require(dm.setActionStatus(_blockchainActionId) == true);\n        require(dm.setBlockchainActionData(_blockchainActionId, 0x0, 0, _providerUserId, 0x0, 0) == true);\n        EventNewInvoice(_blockchainActionId, _providerUserId, _invoiceCountryCode, _invoiceCompanyNumber, _invoiceCompanyName, _invoiceNumber);\n    }\n\n    /** @dev Import an amount of pokens of a particular currency from an ethereum wallet/address to bank\n      * @param _blockchainActionId the blockchain action id\n      * @param accountId the account id of the client\n      * @param from the blockchain address to import pokens from\n      * @param currency the poken currency\n      */\n    function withdrawPoken(\n        bytes32 _blockchainActionId, bytes32 currency, uint amount,\n        address from, address to, bytes32 accountId, uint inCollateral,\n        address pptAddress, uint pptFee, address adminExternalWallet, bool toBank) \n        public \n        onlyServer \n    {\n        require(dm.getActionStatus(_blockchainActionId) == false && dm.getDepositAddress(accountId) != 0x0);\n        require(adminExternalWallet != 0x0 && pptFee > 0 && amount > 0 && dm.getCurrency(currency) != 0x0);\n        DepositContract o = DepositContract(dm.getDepositAddress(accountId));\n        // check if pptbalance minus collateral held is more than pptFee then transfer pptFee from users ppt deposit to adminWallet\n        require((SafeMath.safeSub(o.balanceOf(pptAddress), inCollateral) >= pptFee) && (o.transfer(pptAddress, adminExternalWallet, pptFee) == true));\n        CurrencyToken cT = CurrencyToken(dm.getCurrency(currency));\n        if (toBank == true) {\n            //WITHDRAW BANK\n            if (amount > cT.balanceOf(from)) {\n                // destroying total balance\n                require(cT.destroyTokensFrom(cT.balanceOf(from), from) == true);\n            } else {\n                // destroy amount from balance\n                require((cT.balanceOf(from) >= amount) && (cT.destroyTokensFrom(amount, from) == true));\n            }\n            require(dm.setActionStatus(_blockchainActionId) == true);\n            require(dm.setBlockchainActionData(_blockchainActionId, currency, amount, accountId, from, pptFee) == true); \n            //emit event: Imported currency to system\n            EventWithdrawPoken(_blockchainActionId, accountId, currency, amount, toBank);\n        } else {\n            // WITHDRAW POKEN        \n\n            //credit ledger\n            cT.mintTokens(amount);\n            //credit account\n            cT.transfer(to, amount);\n\n            require(dm.setActionStatus(_blockchainActionId) == true);           \n            require(dm.setBlockchainActionData(_blockchainActionId, currency, amount, accountId, to, pptFee) == true); \n            //emit event: Exported currency to wallet\n            EventWithdrawPoken(_blockchainActionId, accountId, currency, amount, toBank);\n        }   \n    }\n\n    /** @dev Withdraw an amount of PPT Populous tokens to a blockchain address \n      * @param _blockchainActionId the blockchain action id\n      * @param pptAddress the address of the PPT smart contract\n      * @param accountId the account id of the client\n      * @param pptFee the amount of fees to pay in PPT tokens\n      * @param adminExternalWallet the platform admin wallet address to pay the fees to \n      * @param to the blockchain address to withdraw and transfer the pokens to\n      * @param inCollateral the amount of pokens withheld by the platform\n      */    \n    function withdrawERC20(\n        bytes32 _blockchainActionId, address pptAddress, bytes32 accountId, \n        address to, uint amount, uint inCollateral, uint pptFee, address adminExternalWallet) \n        public \n        onlyServer \n    {\n        require(dm.getActionStatus(_blockchainActionId) == false && dm.getDepositAddress(accountId) != 0x0);\n        require(adminExternalWallet != 0x0 && pptFee > 0 && amount > 0);\n        DepositContract o = DepositContract(dm.getDepositAddress(accountId));\n        uint pptBalance = SafeMath.safeSub(o.balanceOf(pptAddress), inCollateral);\n        require(pptBalance >= (SafeMath.safeAdd(amount, pptFee)) && (o.transfer(pptAddress, to, amount) == true) && (o.transfer(pptAddress, adminExternalWallet, pptFee) == true));        \n        require(dm.setActionStatus(_blockchainActionId) == true); \n        \n        iERC20Token token = iERC20Token(pptAddress);\n        require(dm.setBlockchainActionData(_blockchainActionId, token.symbol(), amount, accountId, to, pptFee));\n        EventWithdrawPPT(_blockchainActionId, accountId, o, to, amount);\n    }\n\n    // CONSTANT METHODS\n\n    /** @dev Gets the address of the data manager smart contract\n      * @return _dm The address of the data manager smart contract\n      */\n    function getDataManager() public view returns (DataManager _dm) {\n        return dm;\n    }\n    \n}",
  "sourcePath": "/Users/najienka/Desktop/populous-smartcontracts/contracts/Populous.sol",
  "schemaVersion": "1.0.0",
  "updatedAt": "2018-06-14T09:24:42.001Z"
}