{
  "contractName": "withAccessManager",
  "abi": [
    {
      "constant": true,
      "inputs": [],
      "name": "AM",
      "outputs": [
        {
          "name": "",
          "type": "address"
        }
      ],
      "payable": false,
      "stateMutability": "view",
      "type": "function"
    },
    {
      "inputs": [
        {
          "name": "_accessManager",
          "type": "address"
        }
      ],
      "payable": false,
      "stateMutability": "nonpayable",
      "type": "constructor"
    },
    {
      "constant": false,
      "inputs": [
        {
          "name": "_accessManager",
          "type": "address"
        }
      ],
      "name": "updateAccessManager",
      "outputs": [],
      "payable": false,
      "stateMutability": "nonpayable",
      "type": "function"
    }
  ],
  "bytecode": "0x608060405234801561001057600080fd5b5060405160208061030b83398101806040528101908080519060200190929190505050806000806101000a81548173ffffffffffffffffffffffffffffffffffffffff021916908373ffffffffffffffffffffffffffffffffffffffff16021790555050610288806100836000396000f30060806040526004361061004c576000357c0100000000000000000000000000000000000000000000000000000000900463ffffffff16806302ab72c414610051578063f7f01b4b14610094575b600080fd5b34801561005d57600080fd5b50610092600480360381019080803573ffffffffffffffffffffffffffffffffffffffff1690602001909291905050506100eb565b005b3480156100a057600080fd5b506100a9610237565b604051808273ffffffffffffffffffffffffffffffffffffffff1673ffffffffffffffffffffffffffffffffffffffff16815260200191505060405180910390f35b600115156000809054906101000a900473ffffffffffffffffffffffffffffffffffffffff1673ffffffffffffffffffffffffffffffffffffffff1663fda08958336040518263ffffffff167c0100000000000000000000000000000000000000000000000000000000028152600401808273ffffffffffffffffffffffffffffffffffffffff1673ffffffffffffffffffffffffffffffffffffffff168152602001915050602060405180830381600087803b1580156101ab57600080fd5b505af11580156101bf573d6000803e3d6000fd5b505050506040513d60208110156101d557600080fd5b810190808051906020019092919050505015151415156101f457600080fd5b806000806101000a81548173ffffffffffffffffffffffffffffffffffffffff021916908373ffffffffffffffffffffffffffffffffffffffff16021790555050565b6000809054906101000a900473ffffffffffffffffffffffffffffffffffffffff16815600a165627a7a7230582088a69c6d27065947ff2cdb391edda05907aaf92d5318cbea0f4beb0603836c950029",
  "source": "pragma solidity ^0.4.17;\n\nimport \"./AccessManager.sol\";\n\n\n/// @title withAccessManager contract\ncontract withAccessManager {\n\n    // FIELDS\n    \n    AccessManager public AM;\n\n    // MODIFIERS\n\n    // This modifier uses the isServer method in the AccessManager contract AM to determine\n    // whether the msg.sender address is server.\n    modifier onlyServer {\n        require(AM.isServer(msg.sender) == true);\n        _;\n    }\n\n    modifier onlyServerOrOnlyPopulous {\n        require(AM.isServer(msg.sender) == true || AM.isPopulous(msg.sender) == true);\n        _;\n    }\n\n    // This modifier uses the isGuardian method in the AccessManager contract AM to determine\n    // whether the msg.sender address is guardian.\n    /* modifier onlyGuardian {\n        require(AM.isGuardian(msg.sender) == true);\n        _;\n    } */\n\n    // This modifier uses the isPopulous method in the AccessManager contract AM to determine\n    // whether the msg.sender address is populous.\n    modifier onlyPopulous {\n        require(AM.isPopulous(msg.sender) == true);\n        _;\n    }\n\n    // NON-CONSTANT METHODS\n    \n    /** @dev Sets the AccessManager contract address while deploying this contract`.\n      * @param _accessManager The address to set.\n      */\n    function withAccessManager(address _accessManager) public {\n        AM = AccessManager(_accessManager);\n    }\n    \n    /** @dev Updates the AccessManager contract address if msg.sender is guardian.\n      * @param _accessManager The address to set.\n      */\n    function updateAccessManager(address _accessManager) public onlyServer {\n        AM = AccessManager(_accessManager);\n    }\n\n}",
  "sourcePath": "/Users/najienka/Desktop/populous-smartcontracts/contracts/withAccessManager.sol",
  "compiler": {
    "name": "solc",
    "version": "0.4.25+commit.59dbf8f1.Emscripten.clang"
  },
  "schemaVersion": "2.0.2",
  "updatedAt": "2019-05-09T17:03:58.943Z"
}