{
  "contractName": "withAccessManager",
  "abi": [
    {
      "constant": false,
      "inputs": [
        {
          "name": "_accessManager",
          "type": "address"
        }
      ],
      "name": "updateAccessManager",
      "outputs": [],
      "payable": false,
      "stateMutability": "nonpayable",
      "type": "function"
    },
    {
      "constant": true,
      "inputs": [],
      "name": "AM",
      "outputs": [
        {
          "name": "",
          "type": "address"
        }
      ],
      "payable": false,
      "stateMutability": "view",
      "type": "function"
    },
    {
      "inputs": [
        {
          "name": "_accessManager",
          "type": "address"
        }
      ],
      "payable": false,
      "stateMutability": "nonpayable",
      "type": "constructor"
    }
  ],
  "bytecode": "0x6060604052341561000f57600080fd5b6040516020806101f28339810160405280805160008054600160a060020a03909216600160a060020a0319909216919091179055505061019e806100546000396000f300606060405263ffffffff7c010000000000000000000000000000000000000000000000000000000060003504166302ab72c48114610047578063f7f01b4b1461006857600080fd5b341561005257600080fd5b610066600160a060020a0360043516610097565b005b341561007357600080fd5b61007b610163565b604051600160a060020a03909116815260200160405180910390f35b60008054600160a060020a03169063fda08958903390604051602001526040517c010000000000000000000000000000000000000000000000000000000063ffffffff8416028152600160a060020a039091166004820152602401602060405180830381600087803b151561010b57600080fd5b6102c65a03f1151561011c57600080fd5b50505060405180511515600114905061013457600080fd5b6000805473ffffffffffffffffffffffffffffffffffffffff1916600160a060020a0392909216919091179055565b600054600160a060020a0316815600a165627a7a723058201262d61cbff771ab962354901640f761b702d4cefab701683806003ccffb12c10029",
  "source": "pragma solidity ^0.4.17;\n\nimport \"./AccessManager.sol\";\n\n\n/// @title withAccessManager contract\ncontract withAccessManager {\n\n    // FIELDS\n    \n    AccessManager public AM;\n\n    // MODIFIERS\n\n    // This modifier uses the isServer method in the AccessManager contract AM to determine\n    // whether the msg.sender address is server.\n    modifier onlyServer {\n        require(AM.isServer(msg.sender) == true);\n        _;\n    }\n\n    modifier onlyServerOrOnlyPopulous {\n        require(AM.isServer(msg.sender) == true || AM.isPopulous(msg.sender) == true);\n        _;\n    }\n\n    // This modifier uses the isGuardian method in the AccessManager contract AM to determine\n    // whether the msg.sender address is guardian.\n    /* modifier onlyGuardian {\n        require(AM.isGuardian(msg.sender) == true);\n        _;\n    } */\n\n    // This modifier uses the isPopulous method in the AccessManager contract AM to determine\n    // whether the msg.sender address is populous.\n    modifier onlyPopulous {\n        require(AM.isPopulous(msg.sender) == true);\n        _;\n    }\n\n    // NON-CONSTANT METHODS\n    \n    /** @dev Sets the AccessManager contract address while deploying this contract`.\n      * @param _accessManager The address to set.\n      */\n    function withAccessManager(address _accessManager) public {\n        AM = AccessManager(_accessManager);\n    }\n    \n    /** @dev Updates the AccessManager contract address if msg.sender is guardian.\n      * @param _accessManager The address to set.\n      */\n    function updateAccessManager(address _accessManager) public onlyServer {\n        AM = AccessManager(_accessManager);\n    }\n\n}",
  "sourcePath": "/Users/najienka/Desktop/populous-smartcontracts/contracts/withAccessManager.sol",
  "schemaVersion": "1.0.0",
  "updatedAt": "2018-06-15T13:00:43.721Z"
}